{
	"data": {
		"bytecode": {
			"linkReferences": {
				"contracts/LSP8CollectionMinter.sol": {
					"LSP8CollectionMinter": [
						{
							"length": 20,
							"start": 6640
						}
					]
				}
			},
			"object": "608060405234801562000010575f80fd5b506040516200683e3803806200683e8339818101604052810190620000369190620008cb565b84848484600284848484815f73ffffffffffffffffffffffffffffffffffffffff168173ffffffffffffffffffffffffffffffffffffffff1603620000a7576040517f1ad8836c00000000000000000000000000000000000000000000000000000000815260040160405180910390fd5b620000b8816200027c60201b60201c565b50620001227feafec4d89fa9619884b60000a4d96624a38f7ac2d8d9a604ecf07c12c77e480c5f1b6040518060400160405280600481526020017fa4d96624000000000000000000000000000000000000000000000000000000008152506200037b60201b60201c565b620001567fdeba1e292f8ba88238e10ab3c7f88bd4be4fac56cad5194b6ecceaf653468af15f1b856200037b60201b60201c565b6200018a7f2f0a68ab07768e01943a599e73362a0e17a63a72e94dd2e384d2c1d4db9327565f1b846200037b60201b60201c565b620001df7fe0261fa95db2eb3b5439bd033cda66d56b96f92f243a8228fd87550ed7bdfdb35f1b82604051602001620001c49190620009bd565b6040516020818303038152906040526200037b60201b60201c565b50505050620002387ff675e9361af1c1664c1868cfa3eb97672d6b1a513aa5b81dec34c9ee330e818d5f1b826040516020016200021d9190620009bd565b604051602081830303815290604052620003da60201b60201c565b5050505050620002717f9afb95cacc9f95858ec44aa8c3b685511002e30ae54415823f406128b85b238e5f1b82620003f060201b60201c565b505050505062000d5c565b6200028c6200046260201b60201c565b73ffffffffffffffffffffffffffffffffffffffff168173ffffffffffffffffffffffffffffffffffffffff161462000378578073ffffffffffffffffffffffffffffffffffffffff165f8054906101000a900473ffffffffffffffffffffffffffffffffffffffff1673ffffffffffffffffffffffffffffffffffffffff167f8be0079c531659141344cd1fd0a4f28419497f9722a3daafe3b4186f6b6457e060405160405180910390a3805f806101000a81548173ffffffffffffffffffffffffffffffffffffffff021916908373ffffffffffffffffffffffffffffffffffffffff1602179055505b50565b8060015f8481526020019081526020015f2090816200039b919062000c06565b50817fece574603820d07bc9b91f2a932baadf4628aabcb8afba49776529c14a6104b282604051620003ce919062000d3a565b60405180910390a25050565b620003ec82826200048960201b60201c565b5050565b7ff675e9361af1c1664c1868cfa3eb97672d6b1a513aa5b81dec34c9ee330e818d5f1b82036200044c576040517f3664800a00000000000000000000000000000000000000000000000000000000815260040160405180910390fd5b6200045e8282620003da60201b60201c565b5050565b5f805f9054906101000a900473ffffffffffffffffffffffffffffffffffffffff16905090565b7fdeba1e292f8ba88238e10ab3c7f88bd4be4fac56cad5194b6ecceaf653468af15f1b8203620004e5576040517f85c169bd00000000000000000000000000000000000000000000000000000000815260040160405180910390fd5b7f2f0a68ab07768e01943a599e73362a0e17a63a72e94dd2e384d2c1d4db9327565f1b820362000541576040517f76755b3800000000000000000000000000000000000000000000000000000000815260040160405180910390fd5b7fe0261fa95db2eb3b5439bd033cda66d56b96f92f243a8228fd87550ed7bdfdb35f1b82036200059d576040517f4ef6d7fb00000000000000000000000000000000000000000000000000000000815260040160405180910390fd5b8060015f8481526020019081526020015f209081620005bd919062000c06565b50817fece574603820d07bc9b91f2a932baadf4628aabcb8afba49776529c14a6104b282604051620005f0919062000d3a565b60405180910390a25050565b5f604051905090565b5f80fd5b5f80fd5b5f80fd5b5f80fd5b5f601f19601f8301169050919050565b7f4e487b71000000000000000000000000000000000000000000000000000000005f52604160045260245ffd5b6200065d8262000615565b810181811067ffffffffffffffff821117156200067f576200067e62000625565b5b80604052505050565b5f62000693620005fc565b9050620006a1828262000652565b919050565b5f67ffffffffffffffff821115620006c357620006c262000625565b5b620006ce8262000615565b9050602081019050919050565b5f5b83811015620006fa578082015181840152602081019050620006dd565b5f8484015250505050565b5f6200071b6200071584620006a6565b62000688565b9050828152602081018484840111156200073a576200073962000611565b5b62000747848285620006db565b509392505050565b5f82601f8301126200076657620007656200060d565b5b81516200077884826020860162000705565b91505092915050565b5f73ffffffffffffffffffffffffffffffffffffffff82169050919050565b5f620007ac8262000781565b9050919050565b620007be81620007a0565b8114620007c9575f80fd5b50565b5f81519050620007dc81620007b3565b92915050565b5f819050919050565b620007f681620007e2565b811462000801575f80fd5b50565b5f815190506200081481620007eb565b92915050565b5f67ffffffffffffffff82111562000837576200083662000625565b5b620008428262000615565b9050602081019050919050565b5f620008656200085f846200081a565b62000688565b90508281526020810184848401111562000884576200088362000611565b5b62000891848285620006db565b509392505050565b5f82601f830112620008b057620008af6200060d565b5b8151620008c28482602086016200084f565b91505092915050565b5f805f805f60a08688031215620008e757620008e662000605565b5b5f86015167ffffffffffffffff81111562000907576200090662000609565b5b62000915888289016200074f565b955050602086015167ffffffffffffffff81111562000939576200093862000609565b5b62000947888289016200074f565b94505060406200095a88828901620007cc565b93505060606200096d8882890162000804565b925050608086015167ffffffffffffffff81111562000991576200099062000609565b5b6200099f8882890162000899565b9150509295509295909350565b620009b781620007e2565b82525050565b5f602082019050620009d25f830184620009ac565b92915050565b5f81519050919050565b7f4e487b71000000000000000000000000000000000000000000000000000000005f52602260045260245ffd5b5f600282049050600182168062000a2757607f821691505b60208210810362000a3d5762000a3c620009e2565b5b50919050565b5f819050815f5260205f209050919050565b5f6020601f8301049050919050565b5f82821b905092915050565b5f6008830262000aa17fffffffffffffffffffffffffffffffffffffffffffffffffffffffffffffffff8262000a64565b62000aad868362000a64565b95508019841693508086168417925050509392505050565b5f819050919050565b5f62000aee62000ae862000ae284620007e2565b62000ac5565b620007e2565b9050919050565b5f819050919050565b62000b098362000ace565b62000b2162000b188262000af5565b84845462000a70565b825550505050565b5f90565b62000b3762000b29565b62000b4481848462000afe565b505050565b5b8181101562000b6b5762000b5f5f8262000b2d565b60018101905062000b4a565b5050565b601f82111562000bba5762000b848162000a43565b62000b8f8462000a55565b8101602085101562000b9f578190505b62000bb762000bae8562000a55565b83018262000b49565b50505b505050565b5f82821c905092915050565b5f62000bdc5f198460080262000bbf565b1980831691505092915050565b5f62000bf6838362000bcb565b9150826002028217905092915050565b62000c1182620009d8565b67ffffffffffffffff81111562000c2d5762000c2c62000625565b5b62000c39825462000a0f565b62000c4682828562000b6f565b5f60209050601f83116001811462000c7c575f841562000c67578287015190505b62000c73858262000be9565b86555062000ce2565b601f19841662000c8c8662000a43565b5f5b8281101562000cb55784890151825560018201915060208501945060208101905062000c8e565b8683101562000cd5578489015162000cd1601f89168262000bcb565b8355505b6001600288020188555050505b505050505050565b5f82825260208201905092915050565b5f62000d0682620009d8565b62000d12818562000cea565b935062000d24818560208601620006db565b62000d2f8162000615565b840191505092915050565b5f6020820190508181035f83015262000d54818462000cfa565b905092915050565b615ad48062000d6a5f395ff3fe608060405260043610610233575f3560e01c80635acc786e1161012d57806397902421116100aa578063db8c96631161006e578063db8c9663146109f4578063dedff9c614610a1c578063f08e076d14610a58578063f2fde38b14610a94578063f4e4fb4114610abc576102ac565b80639790242114610910578063a3b261f21461092c578063be9f0e6f14610968578063d54488fe14610990578063d6c1407c146109cc576102ac565b80637e87632c116100f15780637e87632c146108525780637f23690c1461087a57806386a10ddd146108965780638da5cb5b146108be57806392e18c4a146108e8576102ac565b80635acc786e146107605780636963d4381461079c57806370a08231146107d8578063715018a6146108145780637aad1f7d1461082a576102ac565b8063217b2270116101bb57806349a6078d1161017f57806349a6078d146106485780634b74a1f114610684578063511b6952146106c05780635283c480146106e857806354f6127f14610724576102ac565b8063217b22701461051c5780632a3654a4146105585780633a0f787f146105945780633db3ed30146105d05780634046b9fd1461060c576102ac565b8063075bf13111610202578063075bf131146104025780630c590f511461043e57806316e023b31461047a57806318160ddd146104b65780631d26fce6146104e0576102ac565b8063013eba92146103125780630183c1911461034e57806301ffc9a71461038a578063046335d0146103c6576102ac565b366102ac575f340361027a576040517fe5099ee3000000000000000000000000000000000000000000000000000000008152600401610271906139f8565b60405180910390fd5b6040517f61f4944200000000000000000000000000000000000000000000000000000000815260040160405180910390fd5b5f36606060045f36905010156102fb5782826040517fe5099ee30000000000000000000000000000000000000000000000000000000081526004016102f2929190613a60565b60405180910390fd5b6103058383610af8565b9050915050805190602001f35b34801561031d575f80fd5b5061033860048036038101906103339190613aed565b610c6e565b6040516103459190613b30565b60405180910390f35b348015610359575f80fd5b50610374600480360381019061036f9190613d64565b610c83565b6040516103819190613e94565b60405180910390f35b348015610395575f80fd5b506103b060048036038101906103ab9190613f02565b610f44565b6040516103bd9190613f3c565b60405180910390f35b3480156103d1575f80fd5b506103ec60048036038101906103e79190613aed565b610fb4565b6040516103f99190613f3c565b60405180910390f35b34801561040d575f80fd5b5061042860048036038101906104239190613aed565b61100b565b6040516104359190613fbf565b60405180910390f35b348015610449575f80fd5b50610464600480360381019061045f9190613aed565b6110a6565b6040516104719190613b30565b60405180910390f35b348015610485575f80fd5b506104a0600480360381019061049b9190614012565b6110ec565b6040516104ad9190613fbf565b60405180910390f35b3480156104c1575f80fd5b506104ca611100565b6040516104d79190613b30565b60405180910390f35b3480156104eb575f80fd5b5061050660048036038101906105019190614114565b611109565b604051610513919061428d565b60405180910390f35b348015610527575f80fd5b50610542600480360381019061053d91906142ad565b611210565b60405161054f9190613e94565b60405180910390f35b348015610563575f80fd5b5061057e600480360381019061057991906142d8565b6112be565b60405161058b9190613f3c565b60405180910390f35b34801561059f575f80fd5b506105ba60048036038101906105b59190613aed565b6112d1565b6040516105c79190613b30565b60405180910390f35b3480156105db575f80fd5b506105f660048036038101906105f19190613aed565b6112e6565b6040516106039190613b30565b60405180910390f35b348015610617575f80fd5b50610632600480360381019061062d9190613aed565b61132c565b60405161063f91906143cd565b60405180910390f35b348015610653575f80fd5b5061066e600480360381019061066991906142ad565b6113bf565b60405161067b91906144a4565b60405180910390f35b34801561068f575f80fd5b506106aa60048036038101906106a59190613aed565b6113ea565b6040516106b79190613fbf565b60405180910390f35b3480156106cb575f80fd5b506106e660048036038101906106e191906144c4565b6114b7565b005b3480156106f3575f80fd5b5061070e60048036038101906107099190614557565b611518565b60405161071b9190613f3c565b60405180910390f35b34801561072f575f80fd5b5061074a600480360381019061074591906142ad565b611542565b6040516107579190613fbf565b60405180910390f35b34801561076b575f80fd5b5061078660048036038101906107819190614595565b611554565b6040516107939190613e94565b60405180910390f35b3480156107a7575f80fd5b506107c260048036038101906107bd919061462c565b61159c565b6040516107cf919061428d565b60405180910390f35b3480156107e3575f80fd5b506107fe60048036038101906107f99190613aed565b611712565b60405161080b9190613b30565b60405180910390f35b34801561081f575f80fd5b5061082861175f565b005b348015610835575f80fd5b50610850600480360381019061084b91906142ad565b611772565b005b34801561085d575f80fd5b50610878600480360381019061087391906148d5565b611925565b005b610894600480360381019061088f91906149d8565b611a37565b005b3480156108a1575f80fd5b506108bc60048036038101906108b79190614a32565b611a86565b005b3480156108c9575f80fd5b506108d2611cdc565b6040516108df9190613e94565b60405180910390f35b3480156108f3575f80fd5b5061090e60048036038101906109099190614a9e565b611d03565b005b61092a60048036038101906109259190614af8565b611d52565b005b348015610937575f80fd5b50610952600480360381019061094d9190613aed565b611e61565b60405161095f91906143cd565b60405180910390f35b348015610973575f80fd5b5061098e60048036038101906109899190614b6e565b611eaf565b005b34801561099b575f80fd5b506109b660048036038101906109b191906142ad565b611fb0565b6040516109c391906144a4565b60405180910390f35b3480156109d7575f80fd5b506109f260048036038101906109ed9190614c12565b61204c565b005b3480156109ff575f80fd5b50610a1a6004803603810190610a159190614c7e565b612064565b005b348015610a27575f80fd5b50610a426004803603810190610a3d9190614cfe565b612231565b604051610a4f919061428d565b60405180910390f35b348015610a63575f80fd5b50610a7e6004803603810190610a799190613aed565b6122e1565b604051610a8b9190613b30565b60405180910390f35b348015610a9f575f80fd5b50610aba6004803603810190610ab59190613aed565b6122f6565b005b348015610ac7575f80fd5b50610ae26004803603810190610add9190614d45565b61236f565b604051610aef9190614d92565b60405180910390f35b60605f610b275f357fffffffff000000000000000000000000000000000000000000000000000000001661239a565b5090505f73ffffffffffffffffffffffffffffffffffffffff168173ffffffffffffffffffffffffffffffffffffffff1603610bbd575f357fffffffff00000000000000000000000000000000000000000000000000000000166040517fbb370b2b000000000000000000000000000000000000000000000000000000008152600401610bb49190614dba565b60405180910390fd5b5f808273ffffffffffffffffffffffffffffffffffffffff163487873334604051602001610bee9493929190614e66565b604051602081830303815290604052604051610c0a9190614ed0565b5f6040518083038185875af1925050503d805f8114610c44576040519150601f19603f3d011682016040523d82523d5f602084013e610c49565b606091505b50915091508115610c5f57809350505050610c68565b80518060208301fd5b92915050565b6007602052805f5260405f205f915090505481565b5f73__$58dfd55f33955099614ce920d5505ba750$__63b3b2981e8a8a60028b8b8b8b6040518863ffffffff1660e01b8152600401610cc89796959493929190614fef565b602060405180830381865af4158015610ce3573d5f803e3d5ffd5b505050506040513d601f19601f82011682018060405250810190610d079190615085565b90505f8173ffffffffffffffffffffffffffffffffffffffff165f1b9050610d408382600160405180602001604052805f815250612450565b4260075f3373ffffffffffffffffffffffffffffffffffffffff1673ffffffffffffffffffffffffffffffffffffffff1681526020019081526020015f20819055504260085f8473ffffffffffffffffffffffffffffffffffffffff1673ffffffffffffffffffffffffffffffffffffffff1681526020019081526020015f2081905550610dce8285611d03565b600c5f8473ffffffffffffffffffffffffffffffffffffffff1673ffffffffffffffffffffffffffffffffffffffff1681526020019081526020015f205f815480929190610e1b906150dd565b9190505550600d5f8373ffffffffffffffffffffffffffffffffffffffff1673ffffffffffffffffffffffffffffffffffffffff1681526020019081526020015f2081908060018154018082558091505060019003905f5260205f20015f9091909190915055610e8a33610fb4565b15610ed2574260075f3373ffffffffffffffffffffffffffffffffffffffff1673ffffffffffffffffffffffffffffffffffffffff1681526020019081526020015f20819055505b8173ffffffffffffffffffffffffffffffffffffffff163373ffffffffffffffffffffffffffffffffffffffff167fab8530f87dc9b59234c4623bf917212bb2536d647574c8e7e5da92c2ede0c9f842604051610f2f9190613b30565b60405180910390a35098975050505050505050565b5f633a27170660e01b7bffffffffffffffffffffffffffffffffffffffffffffffffffffffff1916827bffffffffffffffffffffffffffffffffffffffffffffffffffffffff19161480610f9d5750610f9c826126be565b5b80610fad5750610fac8261271e565b5b9050919050565b5f6201518060075f8473ffffffffffffffffffffffffffffffffffffffff1673ffffffffffffffffffffffffffffffffffffffff1681526020019081526020015f20546110019190615124565b4210159050919050565b600b602052805f5260405f205f91509050805461102790615184565b80601f016020809104026020016040519081016040528092919081815260200182805461105390615184565b801561109e5780601f106110755761010080835404028352916020019161109e565b820191905f5260205f20905b81548152906001019060200180831161108157829003601f168201915b505050505081565b5f60085f8373ffffffffffffffffffffffffffffffffffffffff1673ffffffffffffffffffffffffffffffffffffffff1681526020019081526020015f20549050919050565b60606110f88383612782565b905092915050565b5f600254905090565b60608151835114611146576040517f2fa71dfe00000000000000000000000000000000000000000000000000000000815260040160405180910390fd5b825167ffffffffffffffff81111561116157611160613b51565b5b60405190808252806020026020018201604052801561119457816020015b606081526020019060019003908161117f5790505b5090505f5b8351811015611209576111e08482815181106111b8576111b76151b4565b5b60200260200101518483815181106111d3576111d26151b4565b5b6020026020010151612782565b8282815181106111f3576111f26151b4565b5b6020026020010181905250806001019050611199565b5092915050565b5f8060035f8481526020019081526020015f205f9054906101000a900473ffffffffffffffffffffffffffffffffffffffff1690505f73ffffffffffffffffffffffffffffffffffffffff168173ffffffffffffffffffffffffffffffffffffffff16036112b557826040517fae8f9a360000000000000000000000000000000000000000000000000000000081526004016112ac9190614d92565b60405180910390fd5b80915050919050565b5f6112c98383612796565b905092915050565b600c602052805f5260405f205f915090505481565b5f600c5f8373ffffffffffffffffffffffffffffffffffffffff1673ffffffffffffffffffffffffffffffffffffffff1681526020019081526020015f20549050919050565b6060600d5f8373ffffffffffffffffffffffffffffffffffffffff1673ffffffffffffffffffffffffffffffffffffffff1681526020019081526020015f208054806020026020016040519081016040528092919081815260200182805480156113b357602002820191905f5260205f20905b81548152602001906001019080831161139f575b50505050509050919050565b60606113ca82612800565b6113e360055f8481526020019081526020015f2061284d565b9050919050565b6060600b5f8373ffffffffffffffffffffffffffffffffffffffff1673ffffffffffffffffffffffffffffffffffffffff1681526020019081526020015f20805461143490615184565b80601f016020809104026020016040519081016040528092919081815260200182805461146090615184565b80156114ab5780601f10611482576101008083540402835291602001916114ab565b820191905f5260205f20905b81548152906001019060200180831161148e57829003601f168201915b50505050509050919050565b6114c13384612796565b6115045782336040517f1294d2a90000000000000000000000000000000000000000000000000000000081526004016114fb9291906151e1565b60405180910390fd5b611511858585858561286c565b5050505050565b600a602052815f5260405f20602052805f5260405f205f915091509054906101000a900460ff1681565b606061154d82612b96565b9050919050565b6009602052815f5260405f20818154811061156d575f80fd5b905f5260205f20015f915091509054906101000a900473ffffffffffffffffffffffffffffffffffffffff1681565b60608282905067ffffffffffffffff8111156115bb576115ba613b51565b5b6040519080825280602002602001820160405280156115ee57816020015b60608152602001906001900390816115d95790505b5090505f5b8383905081101561170b575f803073ffffffffffffffffffffffffffffffffffffffff1686868581811061162a576116296151b4565b5b905060200281019061163c9190615214565b60405161164a929190615276565b5f60405180830381855af49150503d805f8114611682576040519150601f19603f3d011682016040523d82523d5f602084013e611687565b606091505b5091509150816116df575f8151146116a25780518082602001fd5b826040517f234eb8190000000000000000000000000000000000000000000000000000000081526004016116d69190613b30565b60405180910390fd5b808484815181106116f3576116f26151b4565b5b602002602001018190525082600101925050506115f3565b5092915050565b5f61175860045f8473ffffffffffffffffffffffffffffffffffffffff1673ffffffffffffffffffffffffffffffffffffffff1681526020019081526020015f20612c37565b9050919050565b611767612c4a565b6117705f612cc3565b565b600a5f8281526020019081526020015f205f3373ffffffffffffffffffffffffffffffffffffffff1673ffffffffffffffffffffffffffffffffffffffff1681526020019081526020015f205f9054906101000a900460ff161561180b576040517f08c379a0000000000000000000000000000000000000000000000000000000008152600401611802906152e8565b60405180910390fd5b60095f8281526020019081526020015f2033908060018154018082558091505060019003905f5260205f20015f9091909190916101000a81548173ffffffffffffffffffffffffffffffffffffffff021916908373ffffffffffffffffffffffffffffffffffffffff1602179055506001600a5f8381526020019081526020015f205f3373ffffffffffffffffffffffffffffffffffffffff1673ffffffffffffffffffffffffffffffffffffffff1681526020019081526020015f205f6101000a81548160ff021916908315150217905550803373ffffffffffffffffffffffffffffffffffffffff167fcc9ad2f72ac43fccc2fbe8b5861dafdd6c56e8902f0c792ffeb4dcaffc4ea41760405160405180910390a350565b5f8551905084518114158061193b575083518114155b80611947575082518114155b80611953575081518114155b1561198a576040517f93a8311900000000000000000000000000000000000000000000000000000000815260040160405180910390fd5b5f5b81811015611a2e57611a238782815181106119aa576119a96151b4565b5b60200260200101518783815181106119c5576119c46151b4565b5b60200260200101518784815181106119e0576119df6151b4565b5b60200260200101518785815181106119fb576119fa6151b4565b5b6020026020010151878681518110611a1657611a156151b4565b5b60200260200101516114b7565b80600101905061198c565b50505050505050565b611a3f612c4a565b5f3414611a78576040517ff36ba73700000000000000000000000000000000000000000000000000000000815260040160405180910390fd5b611a828282612db9565b5050565b5f611a9083611210565b90503373ffffffffffffffffffffffffffffffffffffffff168173ffffffffffffffffffffffffffffffffffffffff1614611b06578083336040517f5b271ea2000000000000000000000000000000000000000000000000000000008152600401611afd93929190615306565b60405180910390fd5b5f73ffffffffffffffffffffffffffffffffffffffff168473ffffffffffffffffffffffffffffffffffffffff1603611b6b576040517f9577b8b300000000000000000000000000000000000000000000000000000000815260040160405180910390fd5b8373ffffffffffffffffffffffffffffffffffffffff168173ffffffffffffffffffffffffffffffffffffffff1603611bd0576040517f89fdad6200000000000000000000000000000000000000000000000000000000815260040160405180910390fd5b5f611bf48560055f8781526020019081526020015f20612e2290919063ffffffff16565b905080611c3a5784846040517fa7626b68000000000000000000000000000000000000000000000000000000008152600401611c3192919061533b565b60405180910390fd5b838273ffffffffffffffffffffffffffffffffffffffff168673ffffffffffffffffffffffffffffffffffffffff167f1b1b58aa2ec0cec2228b2d37124556d41f5a1f7b12f089171f896cc23667121586604051611c989190613fbf565b60405180910390a45f3385600186604051602001611cb99493929190615362565b6040516020818303038152906040529050611cd48682612e4f565b505050505050565b5f805f9054906101000a900473ffffffffffffffffffffffffffffffffffffffff16905090565b80600b5f8473ffffffffffffffffffffffffffffffffffffffff1673ffffffffffffffffffffffffffffffffffffffff1681526020019081526020015f209081611d4d9190615540565b505050565b611d5a612c4a565b5f3414611d93576040517ff36ba73700000000000000000000000000000000000000000000000000000000815260040160405180910390fd5b8051825114611dce576040517f3bcc897900000000000000000000000000000000000000000000000000000000815260040160405180910390fd5b5f825103611e08576040517f97da5f9500000000000000000000000000000000000000000000000000000000815260040160405180910390fd5b5f5b8251811015611e5c57611e51838281518110611e2957611e286151b4565b5b6020026020010151838381518110611e4457611e436151b4565b5b6020026020010151612db9565b806001019050611e0a565b505050565b6060611ea860045f8473ffffffffffffffffffffffffffffffffffffffff1673ffffffffffffffffffffffffffffffffffffffff1681526020019081526020015f20612e80565b9050919050565b611eb7612c4a565b81518351141580611eca57508051825114155b15611f01576040517f2fa71dfe00000000000000000000000000000000000000000000000000000000815260040160405180910390fd5b5f835103611f3b576040517f80c9830500000000000000000000000000000000000000000000000000000000815260040160405180910390fd5b5f5b8351811015611faa57611f9f848281518110611f5c57611f5b6151b4565b5b6020026020010151848381518110611f7757611f766151b4565b5b6020026020010151848481518110611f9257611f916151b4565b5b6020026020010151612e9f565b806001019050611f3d565b50505050565b606060095f8381526020019081526020015f2080548060200260200160405190810160405280929190818152602001828054801561204057602002820191905f5260205f20905b815f9054906101000a900473ffffffffffffffffffffffffffffffffffffffff1673ffffffffffffffffffffffffffffffffffffffff1681526020019060010190808311611ff7575b50505050509050919050565b612054612c4a565b61205f838383612e9f565b505050565b5f61206e84611210565b90508073ffffffffffffffffffffffffffffffffffffffff163373ffffffffffffffffffffffffffffffffffffffff1614612118573373ffffffffffffffffffffffffffffffffffffffff168573ffffffffffffffffffffffffffffffffffffffff1614612117573381856040517f760b5acd00000000000000000000000000000000000000000000000000000000815260040161210e9392919061560f565b60405180910390fd5b5b5f73ffffffffffffffffffffffffffffffffffffffff168573ffffffffffffffffffffffffffffffffffffffff160361217d576040517f9577b8b300000000000000000000000000000000000000000000000000000000815260040160405180910390fd5b8473ffffffffffffffffffffffffffffffffffffffff168173ffffffffffffffffffffffffffffffffffffffff16036121e2576040517f89fdad6200000000000000000000000000000000000000000000000000000000815260040160405180910390fd5b6121ef8582868686612ee8565b821561222a575f81855f8560405160200161220d9493929190615362565b60405160208183030381529060405290506122288682612e4f565b505b5050505050565b6060815167ffffffffffffffff81111561224e5761224d613b51565b5b60405190808252806020026020018201604052801561228157816020015b606081526020019060019003908161226c5790505b5090505f5b82518110156122db576122b28382815181106122a5576122a46151b4565b5b6020026020010151612b96565b8282815181106122c5576122c46151b4565b5b6020026020010181905250806001019050612286565b50919050565b6008602052805f5260405f205f915090505481565b6122fe612c4a565b5f73ffffffffffffffffffffffffffffffffffffffff168173ffffffffffffffffffffffffffffffffffffffff1603612363576040517f1ad8836c00000000000000000000000000000000000000000000000000000000815260040160405180910390fd5b61236c81612cc3565b50565b600d602052815f5260405f208181548110612388575f80fd5b905f5260205f20015f91509150505481565b5f805f6123d369cee78b4094da8601109660b01b857bffffffffffffffffffffffffffffffffffffffffffffffffffffffff1916612fc2565b90505f6123df82612b96565b905060148151141580156123f457505f815114155b1561243657806040517f42bfe79f00000000000000000000000000000000000000000000000000000000815260040161242d9190613fbf565b60405180910390fd5b8061244090615692565b60601c6001935093505050915091565b5f73ffffffffffffffffffffffffffffffffffffffff168473ffffffffffffffffffffffffffffffffffffffff16036124b5576040517f24ecef4d00000000000000000000000000000000000000000000000000000000815260040160405180910390fd5b6124be83613000565b1561250057826040517f34c7b5110000000000000000000000000000000000000000000000000000000081526004016124f79190614d92565b60405180910390fd5b61250c5f858584613068565b61251583613000565b1561255757826040517f34c7b51100000000000000000000000000000000000000000000000000000000815260040161254e9190614d92565b60405180910390fd5b60025f8154612565906150dd565b919050819055506125bb8360045f8773ffffffffffffffffffffffffffffffffffffffff1673ffffffffffffffffffffffffffffffffffffffff1681526020019081526020015f2061306e90919063ffffffff16565b508360035f8581526020019081526020015f205f6101000a81548173ffffffffffffffffffffffffffffffffffffffff021916908373ffffffffffffffffffffffffffffffffffffffff160217905550828473ffffffffffffffffffffffffffffffffffffffff165f73ffffffffffffffffffffffffffffffffffffffff167fb333c813a7426a7a11e2b190cad52c44119421594b47f6f32ace6d8c7207b2bf33868660405161266d939291906156f8565b60405180910390a46126815f858584613083565b5f335f86868560405160200161269b959493929190615734565b60405160208183030381529060405290506126b7858483613089565b5050505050565b5f63a918fa6b60e01b7bffffffffffffffffffffffffffffffffffffffffffffffffffffffff1916827bffffffffffffffffffffffffffffffffffffffffffffffffffffffff191614806127175750612716826131e8565b5b9050919050565b5f806127306301ffc9a760e01b61239a565b5090505f73ffffffffffffffffffffffffffffffffffffffff168173ffffffffffffffffffffffffffffffffffffffff160361276f575f91505061277d565b6127798184613248565b9150505b919050565b606061278e83836132e1565b905092915050565b5f6127a082611210565b73ffffffffffffffffffffffffffffffffffffffff168373ffffffffffffffffffffffffffffffffffffffff1614806127f857506127f78360055f8581526020019081526020015f2061336890919063ffffffff16565b5b905092915050565b61280981613000565b61284a57806040517fae8f9a360000000000000000000000000000000000000000000000000000000081526004016128419190614d92565b60405180910390fd5b50565b60605f61285b835f01613395565b905060608190508092505050919050565b5f61287684611210565b90508573ffffffffffffffffffffffffffffffffffffffff168173ffffffffffffffffffffffffffffffffffffffff16146128ec578084876040517f5b271ea20000000000000000000000000000000000000000000000000000000081526004016128e393929190615306565b60405180910390fd5b5f73ffffffffffffffffffffffffffffffffffffffff168573ffffffffffffffffffffffffffffffffffffffff1603612951576040517f24ecef4d00000000000000000000000000000000000000000000000000000000815260040160405180910390fd5b61295d86868685613068565b5f61296785611210565b90508073ffffffffffffffffffffffffffffffffffffffff168273ffffffffffffffffffffffffffffffffffffffff16146129dd578482826040517f5a9c31d30000000000000000000000000000000000000000000000000000000081526004016129d49392919061578c565b60405180910390fd5b6129e787866133ee565b612a368560045f8a73ffffffffffffffffffffffffffffffffffffffff1673ffffffffffffffffffffffffffffffffffffffff1681526020019081526020015f2061345c90919063ffffffff16565b50612a868560045f8973ffffffffffffffffffffffffffffffffffffffff1673ffffffffffffffffffffffffffffffffffffffff1681526020019081526020015f2061306e90919063ffffffff16565b508560035f8781526020019081526020015f205f6101000a81548173ffffffffffffffffffffffffffffffffffffffff021916908373ffffffffffffffffffffffffffffffffffffffff160217905550848673ffffffffffffffffffffffffffffffffffffffff168873ffffffffffffffffffffffffffffffffffffffff167fb333c813a7426a7a11e2b190cad52c44119421594b47f6f32ace6d8c7207b2bf338888604051612b38939291906156f8565b60405180910390a4612b4c87878786613083565b5f3388888887604051602001612b66959493929190615734565b6040516020818303038152906040529050612b818882613471565b612b8c878683613089565b5050505050505050565b606060015f8381526020019081526020015f208054612bb490615184565b80601f0160208091040260200160405190810160405280929190818152602001828054612be090615184565b8015612c2b5780601f10612c0257610100808354040283529160200191612c2b565b820191905f5260205f20905b815481529060010190602001808311612c0e57829003601f168201915b50505050509050919050565b5f612c43825f016134a2565b9050919050565b3373ffffffffffffffffffffffffffffffffffffffff16612c69611cdc565b73ffffffffffffffffffffffffffffffffffffffff1614612cc157336040517fbf1169c5000000000000000000000000000000000000000000000000000000008152600401612cb89190613e94565b60405180910390fd5b565b612ccb611cdc565b73ffffffffffffffffffffffffffffffffffffffff168173ffffffffffffffffffffffffffffffffffffffff1614612db6578073ffffffffffffffffffffffffffffffffffffffff165f8054906101000a900473ffffffffffffffffffffffffffffffffffffffff1673ffffffffffffffffffffffffffffffffffffffff167f8be0079c531659141344cd1fd0a4f28419497f9722a3daafe3b4186f6b6457e060405160405180910390a3805f806101000a81548173ffffffffffffffffffffffffffffffffffffffff021916908373ffffffffffffffffffffffffffffffffffffffff1602179055505b50565b7ff675e9361af1c1664c1868cfa3eb97672d6b1a513aa5b81dec34c9ee330e818d5f1b8203612e14576040517f3664800a00000000000000000000000000000000000000000000000000000000815260040160405180910390fd5b612e1e82826134b1565b5050565b5f612e47835f018373ffffffffffffffffffffffffffffffffffffffff165f1b6134bf565b905092915050565b612e7c827f8a1c15a8799f71b547e08e2bcb2e85257e81b0a07eee2ce6712549eef1f009705f1b83613526565b5050565b60605f612e8e835f01613395565b905060608190508092505050919050565b612eaa8383836135e0565b81837fa6e4251f855f750545fe414f120db91c76b88def14d120969e5bb2d3f05debbb83604051612edb9190613fbf565b60405180910390a3505050565b5f612f0c8660055f8781526020019081526020015f2061364f90919063ffffffff16565b905080612f525785846040517f4aa31a8c000000000000000000000000000000000000000000000000000000008152600401612f4992919061533b565b60405180910390fd5b838573ffffffffffffffffffffffffffffffffffffffff168773ffffffffffffffffffffffffffffffffffffffff167fc78cd419d6136f9f1c1c6aec1d3fae098cffaf8bc86314a8f2685e32fe574e3c8686604051612fb29291906157c1565b60405180910390a4505050505050565b5f80835f60f01b84604051602001612fdc939291906158a5565b604051602081830303815290604052905080612ff7906158f5565b91505092915050565b5f8073ffffffffffffffffffffffffffffffffffffffff1660035f8481526020019081526020015f205f9054906101000a900473ffffffffffffffffffffffffffffffffffffffff1673ffffffffffffffffffffffffffffffffffffffff1614159050919050565b50505050565b5f61307b835f01836134bf565b905092915050565b50505050565b61309a83636bb56a1460e01b613248565b15613145578273ffffffffffffffffffffffffffffffffffffffff16636bb56a147f0b084a55ebf70fd3c06fd755269dac2212c4d3f0f4d09079780bfa50c1b2984d5f1b836040518363ffffffff1660e01b81526004016130fc92919061595b565b5f604051808303815f875af1158015613117573d5f803e3d5ffd5b505050506040513d5f823e3d601f19601f8201168201806040525081019061313f91906159f7565b506131e3565b816131e2575f8373ffffffffffffffffffffffffffffffffffffffff163b146131a557826040517f4349776d00000000000000000000000000000000000000000000000000000000815260040161319c9190613e94565b60405180910390fd5b826040517f031731370000000000000000000000000000000000000000000000000000000081526004016131d99190613e94565b60405180910390fd5b5b505050565b5f63629aa69460e01b7bffffffffffffffffffffffffffffffffffffffffffffffffffffffff1916827bffffffffffffffffffffffffffffffffffffffffffffffffffffffff1916148061324157506132408261367c565b5b9050919050565b5f808260405160240161325b9190614dba565b6040516020818303038152906040526301ffc9a760e01b6020820180517bffffffffffffffffffffffffffffffffffffffffffffffffffffffff838183161783525050505090505f805f60205f8551602087018a617530fa92503d91505f5190508280156132ca575060208210155b80156132d557505f81115b94505050505092915050565b6060825f1c73ffffffffffffffffffffffffffffffffffffffff166354f6127f836040518263ffffffff1660e01b815260040161331e9190614d92565b5f60405180830381865afa158015613338573d5f803e3d5ffd5b505050506040513d5f823e3d601f19601f8201168201806040525081019061336091906159f7565b905092915050565b5f61338d835f018373ffffffffffffffffffffffffffffffffffffffff165f1b6136e5565b905092915050565b6060815f018054806020026020016040519081016040528092919081815260200182805480156133e257602002820191905f5260205f20905b8154815260200190600101908083116133ce575b50505050509050919050565b5f60055f8381526020019081526020015f2090505f61340c82613705565b90505f805b828110156134545761342c5f8561371890919063ffffffff16565b91506134498287875f60405180602001604052805f815250612ee8565b806001019050613411565b505050505050565b5f613469835f018361372f565b905092915050565b61349e827fb23eae7e6d1564b295b4c3e3be402d9a2f0776c57bdf365903496f6fa481ab005f1b83613526565b5050565b5f815f01805490509050919050565b6134bb828261382b565b5050565b5f6134ca83836136e5565b61351c57825f0182908060018154018082558091505060019003905f5260205f20015f9091909190915055825f0180549050836001015f8481526020019081526020015f208190555060019050613520565b5f90505b92915050565b613556636bb56a1460e01b8473ffffffffffffffffffffffffffffffffffffffff1661324890919063ffffffff16565b156135db578273ffffffffffffffffffffffffffffffffffffffff16636bb56a1483836040518363ffffffff1660e01b815260040161359692919061595b565b5f604051808303815f875af11580156135b1573d5f803e3d5ffd5b505050506040513d5f823e3d601f19601f820116820180604052508101906135d991906159f7565b505b505050565b825f1c73ffffffffffffffffffffffffffffffffffffffff16637f23690c83836040518363ffffffff1660e01b815260040161361d92919061595b565b5f604051808303815f87803b158015613634575f80fd5b505af1158015613646573d5f803e3d5ffd5b50505050505050565b5f613674835f018373ffffffffffffffffffffffffffffffffffffffff165f1b61372f565b905092915050565b5f7f01ffc9a7000000000000000000000000000000000000000000000000000000007bffffffffffffffffffffffffffffffffffffffffffffffffffffffff1916827bffffffffffffffffffffffffffffffffffffffffffffffffffffffff1916149050919050565b5f80836001015f8481526020019081526020015f20541415905092915050565b5f613711825f016134a2565b9050919050565b5f613725835f0183613997565b5f1c905092915050565b5f80836001015f8481526020019081526020015f205490505f8114613820575f60018261375c9190615a3e565b90505f6001865f01805490506137729190615a3e565b90508082146137d8575f865f018281548110613791576137906151b4565b5b905f5260205f200154905080875f0184815481106137b2576137b16151b4565b5b905f5260205f20018190555083876001015f8381526020019081526020015f2081905550505b855f018054806137eb576137ea615a71565b5b600190038181905f5260205f20015f90559055856001015f8681526020019081526020015f205f905560019350505050613825565b5f9150505b92915050565b7fdeba1e292f8ba88238e10ab3c7f88bd4be4fac56cad5194b6ecceaf653468af15f1b8203613886576040517f85c169bd00000000000000000000000000000000000000000000000000000000815260040160405180910390fd5b7f2f0a68ab07768e01943a599e73362a0e17a63a72e94dd2e384d2c1d4db9327565f1b82036138e1576040517f76755b3800000000000000000000000000000000000000000000000000000000815260040160405180910390fd5b7fe0261fa95db2eb3b5439bd033cda66d56b96f92f243a8228fd87550ed7bdfdb35f1b820361393c576040517f4ef6d7fb00000000000000000000000000000000000000000000000000000000815260040160405180910390fd5b8060015f8481526020019081526020015f20908161395a9190615540565b50817fece574603820d07bc9b91f2a932baadf4628aabcb8afba49776529c14a6104b28260405161398b9190613fbf565b60405180910390a25050565b5f825f0182815481106139ad576139ac6151b4565b5b905f5260205f200154905092915050565b5f82825260208201905092915050565b5f8082015250565b5f6139e26004836139be565b91506139ed826139ce565b602082019050919050565b5f6020820190508181035f830152613a0f816139d6565b9050919050565b828183375f83830152505050565b5f601f19601f8301169050919050565b5f613a3f83856139be565b9350613a4c838584613a16565b613a5583613a24565b840190509392505050565b5f6020820190508181035f830152613a79818486613a34565b90509392505050565b5f604051905090565b5f80fd5b5f80fd5b5f73ffffffffffffffffffffffffffffffffffffffff82169050919050565b5f613abc82613a93565b9050919050565b613acc81613ab2565b8114613ad6575f80fd5b50565b5f81359050613ae781613ac3565b92915050565b5f60208284031215613b0257613b01613a8b565b5b5f613b0f84828501613ad9565b91505092915050565b5f819050919050565b613b2a81613b18565b82525050565b5f602082019050613b435f830184613b21565b92915050565b5f80fd5b5f80fd5b7f4e487b71000000000000000000000000000000000000000000000000000000005f52604160045260245ffd5b613b8782613a24565b810181811067ffffffffffffffff82111715613ba657613ba5613b51565b5b80604052505050565b5f613bb8613a82565b9050613bc48282613b7e565b919050565b5f67ffffffffffffffff821115613be357613be2613b51565b5b613bec82613a24565b9050602081019050919050565b5f613c0b613c0684613bc9565b613baf565b905082815260208101848484011115613c2757613c26613b4d565b5b613c32848285613a16565b509392505050565b5f82601f830112613c4e57613c4d613b49565b5b8135613c5e848260208601613bf9565b91505092915050565b5f8115159050919050565b613c7b81613c67565b8114613c85575f80fd5b50565b5f81359050613c9681613c72565b92915050565b613ca581613b18565b8114613caf575f80fd5b50565b5f81359050613cc081613c9c565b92915050565b5f67ffffffffffffffff821115613ce057613cdf613b51565b5b613ce982613a24565b9050602081019050919050565b5f613d08613d0384613cc6565b613baf565b905082815260208101848484011115613d2457613d23613b4d565b5b613d2f848285613a16565b509392505050565b5f82601f830112613d4b57613d4a613b49565b5b8135613d5b848260208601613cf6565b91505092915050565b5f805f805f805f80610100898b031215613d8157613d80613a8b565b5b5f89013567ffffffffffffffff811115613d9e57613d9d613a8f565b5b613daa8b828c01613c3a565b985050602089013567ffffffffffffffff811115613dcb57613dca613a8f565b5b613dd78b828c01613c3a565b9750506040613de88b828c01613c88565b9650506060613df98b828c01613cb2565b9550506080613e0a8b828c01613ad9565b94505060a089013567ffffffffffffffff811115613e2b57613e2a613a8f565b5b613e378b828c01613d37565b93505060c089013567ffffffffffffffff811115613e5857613e57613a8f565b5b613e648b828c01613d37565b92505060e0613e758b828c01613ad9565b9150509295985092959890939650565b613e8e81613ab2565b82525050565b5f602082019050613ea75f830184613e85565b92915050565b5f7fffffffff0000000000000000000000000000000000000000000000000000000082169050919050565b613ee181613ead565b8114613eeb575f80fd5b50565b5f81359050613efc81613ed8565b92915050565b5f60208284031215613f1757613f16613a8b565b5b5f613f2484828501613eee565b91505092915050565b613f3681613c67565b82525050565b5f602082019050613f4f5f830184613f2d565b92915050565b5f81519050919050565b5f5b83811015613f7c578082015181840152602081019050613f61565b5f8484015250505050565b5f613f9182613f55565b613f9b81856139be565b9350613fab818560208601613f5f565b613fb481613a24565b840191505092915050565b5f6020820190508181035f830152613fd78184613f87565b905092915050565b5f819050919050565b613ff181613fdf565b8114613ffb575f80fd5b50565b5f8135905061400c81613fe8565b92915050565b5f806040838503121561402857614027613a8b565b5b5f61403585828601613ffe565b925050602061404685828601613ffe565b9150509250929050565b5f67ffffffffffffffff82111561406a57614069613b51565b5b602082029050602081019050919050565b5f80fd5b5f61409161408c84614050565b613baf565b905080838252602082019050602084028301858111156140b4576140b361407b565b5b835b818110156140dd57806140c98882613ffe565b8452602084019350506020810190506140b6565b5050509392505050565b5f82601f8301126140fb576140fa613b49565b5b813561410b84826020860161407f565b91505092915050565b5f806040838503121561412a57614129613a8b565b5b5f83013567ffffffffffffffff81111561414757614146613a8f565b5b614153858286016140e7565b925050602083013567ffffffffffffffff81111561417457614173613a8f565b5b614180858286016140e7565b9150509250929050565b5f81519050919050565b5f82825260208201905092915050565b5f819050602082019050919050565b5f82825260208201905092915050565b5f6141cd82613f55565b6141d781856141b3565b93506141e7818560208601613f5f565b6141f081613a24565b840191505092915050565b5f61420683836141c3565b905092915050565b5f602082019050919050565b5f6142248261418a565b61422e8185614194565b935083602082028501614240856141a4565b805f5b8581101561427b578484038952815161425c85826141fb565b94506142678361420e565b925060208a01995050600181019050614243565b50829750879550505050505092915050565b5f6020820190508181035f8301526142a5818461421a565b905092915050565b5f602082840312156142c2576142c1613a8b565b5b5f6142cf84828501613ffe565b91505092915050565b5f80604083850312156142ee576142ed613a8b565b5b5f6142fb85828601613ad9565b925050602061430c85828601613ffe565b9150509250929050565b5f81519050919050565b5f82825260208201905092915050565b5f819050602082019050919050565b61434881613fdf565b82525050565b5f614359838361433f565b60208301905092915050565b5f602082019050919050565b5f61437b82614316565b6143858185614320565b935061439083614330565b805f5b838110156143c05781516143a7888261434e565b97506143b283614365565b925050600181019050614393565b5085935050505092915050565b5f6020820190508181035f8301526143e58184614371565b905092915050565b5f81519050919050565b5f82825260208201905092915050565b5f819050602082019050919050565b61441f81613ab2565b82525050565b5f6144308383614416565b60208301905092915050565b5f602082019050919050565b5f614452826143ed565b61445c81856143f7565b935061446783614407565b805f5b8381101561449757815161447e8882614425565b97506144898361443c565b92505060018101905061446a565b5085935050505092915050565b5f6020820190508181035f8301526144bc8184614448565b905092915050565b5f805f805f60a086880312156144dd576144dc613a8b565b5b5f6144ea88828901613ad9565b95505060206144fb88828901613ad9565b945050604061450c88828901613ffe565b935050606061451d88828901613c88565b925050608086013567ffffffffffffffff81111561453e5761453d613a8f565b5b61454a88828901613d37565b9150509295509295909350565b5f806040838503121561456d5761456c613a8b565b5b5f61457a85828601613ffe565b925050602061458b85828601613ad9565b9150509250929050565b5f80604083850312156145ab576145aa613a8b565b5b5f6145b885828601613ffe565b92505060206145c985828601613cb2565b9150509250929050565b5f80fd5b5f8083601f8401126145ec576145eb613b49565b5b8235905067ffffffffffffffff811115614609576146086145d3565b5b6020830191508360208202830111156146255761462461407b565b5b9250929050565b5f806020838503121561464257614641613a8b565b5b5f83013567ffffffffffffffff81111561465f5761465e613a8f565b5b61466b858286016145d7565b92509250509250929050565b5f67ffffffffffffffff82111561469157614690613b51565b5b602082029050602081019050919050565b5f6146b46146af84614677565b613baf565b905080838252602082019050602084028301858111156146d7576146d661407b565b5b835b8181101561470057806146ec8882613ad9565b8452602084019350506020810190506146d9565b5050509392505050565b5f82601f83011261471e5761471d613b49565b5b813561472e8482602086016146a2565b91505092915050565b5f67ffffffffffffffff82111561475157614750613b51565b5b602082029050602081019050919050565b5f61477461476f84614737565b613baf565b905080838252602082019050602084028301858111156147975761479661407b565b5b835b818110156147c057806147ac8882613c88565b845260208401935050602081019050614799565b5050509392505050565b5f82601f8301126147de576147dd613b49565b5b81356147ee848260208601614762565b91505092915050565b5f67ffffffffffffffff82111561481157614810613b51565b5b602082029050602081019050919050565b5f61483461482f846147f7565b613baf565b905080838252602082019050602084028301858111156148575761485661407b565b5b835b8181101561489e57803567ffffffffffffffff81111561487c5761487b613b49565b5b8086016148898982613d37565b85526020850194505050602081019050614859565b5050509392505050565b5f82601f8301126148bc576148bb613b49565b5b81356148cc848260208601614822565b91505092915050565b5f805f805f60a086880312156148ee576148ed613a8b565b5b5f86013567ffffffffffffffff81111561490b5761490a613a8f565b5b6149178882890161470a565b955050602086013567ffffffffffffffff81111561493857614937613a8f565b5b6149448882890161470a565b945050604086013567ffffffffffffffff81111561496557614964613a8f565b5b614971888289016140e7565b935050606086013567ffffffffffffffff81111561499257614991613a8f565b5b61499e888289016147ca565b925050608086013567ffffffffffffffff8111156149bf576149be613a8f565b5b6149cb888289016148a8565b9150509295509295909350565b5f80604083850312156149ee576149ed613a8b565b5b5f6149fb85828601613ffe565b925050602083013567ffffffffffffffff811115614a1c57614a1b613a8f565b5b614a2885828601613d37565b9150509250929050565b5f805f60608486031215614a4957614a48613a8b565b5b5f614a5686828701613ad9565b9350506020614a6786828701613ffe565b925050604084013567ffffffffffffffff811115614a8857614a87613a8f565b5b614a9486828701613d37565b9150509250925092565b5f8060408385031215614ab457614ab3613a8b565b5b5f614ac185828601613ad9565b925050602083013567ffffffffffffffff811115614ae257614ae1613a8f565b5b614aee85828601613d37565b9150509250929050565b5f8060408385031215614b0e57614b0d613a8b565b5b5f83013567ffffffffffffffff811115614b2b57614b2a613a8f565b5b614b37858286016140e7565b925050602083013567ffffffffffffffff811115614b5857614b57613a8f565b5b614b64858286016148a8565b9150509250929050565b5f805f60608486031215614b8557614b84613a8b565b5b5f84013567ffffffffffffffff811115614ba257614ba1613a8f565b5b614bae868287016140e7565b935050602084013567ffffffffffffffff811115614bcf57614bce613a8f565b5b614bdb868287016140e7565b925050604084013567ffffffffffffffff811115614bfc57614bfb613a8f565b5b614c08868287016148a8565b9150509250925092565b5f805f60608486031215614c2957614c28613a8b565b5b5f614c3686828701613ffe565b9350506020614c4786828701613ffe565b925050604084013567ffffffffffffffff811115614c6857614c67613a8f565b5b614c7486828701613d37565b9150509250925092565b5f805f8060808587031215614c9657614c95613a8b565b5b5f614ca387828801613ad9565b9450506020614cb487828801613ffe565b9350506040614cc587828801613c88565b925050606085013567ffffffffffffffff811115614ce657614ce5613a8f565b5b614cf287828801613d37565b91505092959194509250565b5f60208284031215614d1357614d12613a8b565b5b5f82013567ffffffffffffffff811115614d3057614d2f613a8f565b5b614d3c848285016140e7565b91505092915050565b5f8060408385031215614d5b57614d5a613a8b565b5b5f614d6885828601613ad9565b9250506020614d7985828601613cb2565b9150509250929050565b614d8c81613fdf565b82525050565b5f602082019050614da55f830184614d83565b92915050565b614db481613ead565b82525050565b5f602082019050614dcd5f830184614dab565b92915050565b5f81905092915050565b5f614de88385614dd3565b9350614df5838584613a16565b82840190509392505050565b5f8160601b9050919050565b5f614e1782614e01565b9050919050565b5f614e2882614e0d565b9050919050565b614e40614e3b82613ab2565b614e1e565b82525050565b5f819050919050565b614e60614e5b82613b18565b614e46565b82525050565b5f614e72828688614ddd565b9150614e7e8285614e2f565b601482019150614e8e8284614e4f565b60208201915081905095945050505050565b5f614eaa82613f55565b614eb48185614dd3565b9350614ec4818560208601613f5f565b80840191505092915050565b5f614edb8284614ea0565b915081905092915050565b5f81519050919050565b5f82825260208201905092915050565b5f614f0a82614ee6565b614f148185614ef0565b9350614f24818560208601613f5f565b614f2d81613a24565b840191505092915050565b5f819050919050565b5f819050919050565b5f614f64614f5f614f5a84614f38565b614f41565b613b18565b9050919050565b614f7481614f4a565b82525050565b614f8381613c67565b82525050565b614f9281613b18565b82525050565b614fa181613ab2565b82525050565b5f82825260208201905092915050565b5f614fc182613f55565b614fcb8185614fa7565b9350614fdb818560208601613f5f565b614fe481613a24565b840191505092915050565b5f60e0820190508181035f830152615007818a614f00565b9050818103602083015261501b8189614f00565b905061502a6040830188614f6b565b6150376060830187614f7a565b6150446080830186614f89565b61505160a0830185614f98565b81810360c08301526150638184614fb7565b905098975050505050505050565b5f8151905061507f81613ac3565b92915050565b5f6020828403121561509a57615099613a8b565b5b5f6150a784828501615071565b91505092915050565b7f4e487b71000000000000000000000000000000000000000000000000000000005f52601160045260245ffd5b5f6150e782613b18565b91507fffffffffffffffffffffffffffffffffffffffffffffffffffffffffffffffff8203615119576151186150b0565b5b600182019050919050565b5f61512e82613b18565b915061513983613b18565b9250828201905080821115615151576151506150b0565b5b92915050565b7f4e487b71000000000000000000000000000000000000000000000000000000005f52602260045260245ffd5b5f600282049050600182168061519b57607f821691505b6020821081036151ae576151ad615157565b5b50919050565b7f4e487b71000000000000000000000000000000000000000000000000000000005f52603260045260245ffd5b5f6040820190506151f45f830185614d83565b6152016020830184613e85565b9392505050565b5f80fd5b5f80fd5b5f80fd5b5f80833560016020038436030381126152305761522f615208565b5b80840192508235915067ffffffffffffffff8211156152525761525161520c565b5b60208301925060018202360383131561526e5761526d615210565b5b509250929050565b5f615282828486614ddd565b91508190509392505050565b5f82825260208201905092915050565b7f596f752063616e206f6e6c79206c696b65206120746f6b656e206f6e636500005f82015250565b5f6152d2601e8361528e565b91506152dd8261529e565b602082019050919050565b5f6020820190508181035f8301526152ff816152c6565b9050919050565b5f6060820190506153195f830186613e85565b6153266020830185614d83565b6153336040830184613e85565b949350505050565b5f60408201905061534e5f830185613e85565b61535b6020830184614d83565b9392505050565b5f6080820190506153755f830187613e85565b6153826020830186614d83565b61538f6040830185613f2d565b81810360608301526153a18184613f87565b905095945050505050565b5f819050815f5260205f209050919050565b5f6020601f8301049050919050565b5f82821b905092915050565b5f600883026154087fffffffffffffffffffffffffffffffffffffffffffffffffffffffffffffffff826153cd565b61541286836153cd565b95508019841693508086168417925050509392505050565b5f61544461543f61543a84613b18565b614f41565b613b18565b9050919050565b5f819050919050565b61545d8361542a565b6154716154698261544b565b8484546153d9565b825550505050565b5f90565b615485615479565b615490818484615454565b505050565b5b818110156154b3576154a85f8261547d565b600181019050615496565b5050565b601f8211156154f8576154c9816153ac565b6154d2846153be565b810160208510156154e1578190505b6154f56154ed856153be565b830182615495565b50505b505050565b5f82821c905092915050565b5f6155185f19846008026154fd565b1980831691505092915050565b5f6155308383615509565b9150826002028217905092915050565b61554982613f55565b67ffffffffffffffff81111561556257615561613b51565b5b61556c8254615184565b6155778282856154b7565b5f60209050601f8311600181146155a8575f8415615596578287015190505b6155a08582615525565b865550615607565b601f1984166155b6866153ac565b5f5b828110156155dd578489015182556001820191506020850194506020810190506155b8565b868310156155fa57848901516155f6601f891682615509565b8355505b6001600288020188555050505b505050505050565b5f6060820190506156225f830186613e85565b61562f6020830185613e85565b61563c6040830184614d83565b949350505050565b5f819050602082019050919050565b5f7fffffffffffffffffffffffffffffffffffffffff00000000000000000000000082169050919050565b5f6156898251615653565b80915050919050565b5f61569c82613f55565b826156a684615644565b90506156b18161567e565b925060148210156156f1576156ec7fffffffffffffffffffffffffffffffffffffffff000000000000000000000000836014036008026153cd565b831692505b5050919050565b5f60608201905061570b5f830186613e85565b6157186020830185613f2d565b818103604083015261572a8184613f87565b9050949350505050565b5f60a0820190506157475f830188613e85565b6157546020830187613e85565b6157616040830186613e85565b61576e6060830185614d83565b81810360808301526157808184613f87565b90509695505050505050565b5f60608201905061579f5f830186614d83565b6157ac6020830185613e85565b6157b96040830184613e85565b949350505050565b5f6040820190506157d45f830185613f2d565b81810360208301526157e68184613f87565b90509392505050565b5f7fffffffffffffffffffff0000000000000000000000000000000000000000000082169050919050565b5f819050919050565b61583461582f826157ef565b61581a565b82525050565b5f7fffff00000000000000000000000000000000000000000000000000000000000082169050919050565b5f819050919050565b61587f61587a8261583a565b615865565b82525050565b5f819050919050565b61589f61589a82615653565b615885565b82525050565b5f6158b08286615823565b600a820191506158c0828561586e565b6002820191506158d0828461588e565b601482019150819050949350505050565b5f6158ec8251613fdf565b80915050919050565b5f6158ff82613f55565b8261590984615644565b9050615914816158e1565b925060208210156159545761594f7fffffffffffffffffffffffffffffffffffffffffffffffffffffffffffffffff836020036008026153cd565b831692505b5050919050565b5f60408201905061596e5f830185614d83565b81810360208301526159808184613f87565b90509392505050565b5f61599b61599684613cc6565b613baf565b9050828152602081018484840111156159b7576159b6613b4d565b5b6159c2848285613f5f565b509392505050565b5f82601f8301126159de576159dd613b49565b5b81516159ee848260208601615989565b91505092915050565b5f60208284031215615a0c57615a0b613a8b565b5b5f82015167ffffffffffffffff811115615a2957615a28613a8f565b5b615a35848285016159ca565b91505092915050565b5f615a4882613b18565b9150615a5383613b18565b9250828203905081811115615a6b57615a6a6150b0565b5b92915050565b7f4e487b71000000000000000000000000000000000000000000000000000000005f52603160045260245ffdfea2646970667358221220cfcc076bcae098a5e032134c32e4ecd57890e6a95fc52da6d95538546c847bc364736f6c63430008140033",
			"opcodes": "PUSH1 0x80 PUSH1 0x40 MSTORE CALLVALUE DUP1 ISZERO PUSH3 0x10 JUMPI PUSH0 DUP1 REVERT JUMPDEST POP PUSH1 0x40 MLOAD PUSH3 0x683E CODESIZE SUB DUP1 PUSH3 0x683E DUP4 CODECOPY DUP2 DUP2 ADD PUSH1 0x40 MSTORE DUP2 ADD SWAP1 PUSH3 0x36 SWAP2 SWAP1 PUSH3 0x8CB JUMP JUMPDEST DUP5 DUP5 DUP5 DUP5 PUSH1 0x2 DUP5 DUP5 DUP5 DUP5 DUP2 PUSH0 PUSH20 0xFFFFFFFFFFFFFFFFFFFFFFFFFFFFFFFFFFFFFFFF AND DUP2 PUSH20 0xFFFFFFFFFFFFFFFFFFFFFFFFFFFFFFFFFFFFFFFF AND SUB PUSH3 0xA7 JUMPI PUSH1 0x40 MLOAD PUSH32 0x1AD8836C00000000000000000000000000000000000000000000000000000000 DUP2 MSTORE PUSH1 0x4 ADD PUSH1 0x40 MLOAD DUP1 SWAP2 SUB SWAP1 REVERT JUMPDEST PUSH3 0xB8 DUP2 PUSH3 0x27C PUSH1 0x20 SHL PUSH1 0x20 SHR JUMP JUMPDEST POP PUSH3 0x122 PUSH32 0xEAFEC4D89FA9619884B60000A4D96624A38F7AC2D8D9A604ECF07C12C77E480C PUSH0 SHL PUSH1 0x40 MLOAD DUP1 PUSH1 0x40 ADD PUSH1 0x40 MSTORE DUP1 PUSH1 0x4 DUP2 MSTORE PUSH1 0x20 ADD PUSH32 0xA4D9662400000000000000000000000000000000000000000000000000000000 DUP2 MSTORE POP PUSH3 0x37B PUSH1 0x20 SHL PUSH1 0x20 SHR JUMP JUMPDEST PUSH3 0x156 PUSH32 0xDEBA1E292F8BA88238E10AB3C7F88BD4BE4FAC56CAD5194B6ECCEAF653468AF1 PUSH0 SHL DUP6 PUSH3 0x37B PUSH1 0x20 SHL PUSH1 0x20 SHR JUMP JUMPDEST PUSH3 0x18A PUSH32 0x2F0A68AB07768E01943A599E73362A0E17A63A72E94DD2E384D2C1D4DB932756 PUSH0 SHL DUP5 PUSH3 0x37B PUSH1 0x20 SHL PUSH1 0x20 SHR JUMP JUMPDEST PUSH3 0x1DF PUSH32 0xE0261FA95DB2EB3B5439BD033CDA66D56B96F92F243A8228FD87550ED7BDFDB3 PUSH0 SHL DUP3 PUSH1 0x40 MLOAD PUSH1 0x20 ADD PUSH3 0x1C4 SWAP2 SWAP1 PUSH3 0x9BD JUMP JUMPDEST PUSH1 0x40 MLOAD PUSH1 0x20 DUP2 DUP4 SUB SUB DUP2 MSTORE SWAP1 PUSH1 0x40 MSTORE PUSH3 0x37B PUSH1 0x20 SHL PUSH1 0x20 SHR JUMP JUMPDEST POP POP POP POP PUSH3 0x238 PUSH32 0xF675E9361AF1C1664C1868CFA3EB97672D6B1A513AA5B81DEC34C9EE330E818D PUSH0 SHL DUP3 PUSH1 0x40 MLOAD PUSH1 0x20 ADD PUSH3 0x21D SWAP2 SWAP1 PUSH3 0x9BD JUMP JUMPDEST PUSH1 0x40 MLOAD PUSH1 0x20 DUP2 DUP4 SUB SUB DUP2 MSTORE SWAP1 PUSH1 0x40 MSTORE PUSH3 0x3DA PUSH1 0x20 SHL PUSH1 0x20 SHR JUMP JUMPDEST POP POP POP POP POP PUSH3 0x271 PUSH32 0x9AFB95CACC9F95858EC44AA8C3B685511002E30AE54415823F406128B85B238E PUSH0 SHL DUP3 PUSH3 0x3F0 PUSH1 0x20 SHL PUSH1 0x20 SHR JUMP JUMPDEST POP POP POP POP POP PUSH3 0xD5C JUMP JUMPDEST PUSH3 0x28C PUSH3 0x462 PUSH1 0x20 SHL PUSH1 0x20 SHR JUMP JUMPDEST PUSH20 0xFFFFFFFFFFFFFFFFFFFFFFFFFFFFFFFFFFFFFFFF AND DUP2 PUSH20 0xFFFFFFFFFFFFFFFFFFFFFFFFFFFFFFFFFFFFFFFF AND EQ PUSH3 0x378 JUMPI DUP1 PUSH20 0xFFFFFFFFFFFFFFFFFFFFFFFFFFFFFFFFFFFFFFFF AND PUSH0 DUP1 SLOAD SWAP1 PUSH2 0x100 EXP SWAP1 DIV PUSH20 0xFFFFFFFFFFFFFFFFFFFFFFFFFFFFFFFFFFFFFFFF AND PUSH20 0xFFFFFFFFFFFFFFFFFFFFFFFFFFFFFFFFFFFFFFFF AND PUSH32 0x8BE0079C531659141344CD1FD0A4F28419497F9722A3DAAFE3B4186F6B6457E0 PUSH1 0x40 MLOAD PUSH1 0x40 MLOAD DUP1 SWAP2 SUB SWAP1 LOG3 DUP1 PUSH0 DUP1 PUSH2 0x100 EXP DUP2 SLOAD DUP2 PUSH20 0xFFFFFFFFFFFFFFFFFFFFFFFFFFFFFFFFFFFFFFFF MUL NOT AND SWAP1 DUP4 PUSH20 0xFFFFFFFFFFFFFFFFFFFFFFFFFFFFFFFFFFFFFFFF AND MUL OR SWAP1 SSTORE POP JUMPDEST POP JUMP JUMPDEST DUP1 PUSH1 0x1 PUSH0 DUP5 DUP2 MSTORE PUSH1 0x20 ADD SWAP1 DUP2 MSTORE PUSH1 0x20 ADD PUSH0 KECCAK256 SWAP1 DUP2 PUSH3 0x39B SWAP2 SWAP1 PUSH3 0xC06 JUMP JUMPDEST POP DUP2 PUSH32 0xECE574603820D07BC9B91F2A932BAADF4628AABCB8AFBA49776529C14A6104B2 DUP3 PUSH1 0x40 MLOAD PUSH3 0x3CE SWAP2 SWAP1 PUSH3 0xD3A JUMP JUMPDEST PUSH1 0x40 MLOAD DUP1 SWAP2 SUB SWAP1 LOG2 POP POP JUMP JUMPDEST PUSH3 0x3EC DUP3 DUP3 PUSH3 0x489 PUSH1 0x20 SHL PUSH1 0x20 SHR JUMP JUMPDEST POP POP JUMP JUMPDEST PUSH32 0xF675E9361AF1C1664C1868CFA3EB97672D6B1A513AA5B81DEC34C9EE330E818D PUSH0 SHL DUP3 SUB PUSH3 0x44C JUMPI PUSH1 0x40 MLOAD PUSH32 0x3664800A00000000000000000000000000000000000000000000000000000000 DUP2 MSTORE PUSH1 0x4 ADD PUSH1 0x40 MLOAD DUP1 SWAP2 SUB SWAP1 REVERT JUMPDEST PUSH3 0x45E DUP3 DUP3 PUSH3 0x3DA PUSH1 0x20 SHL PUSH1 0x20 SHR JUMP JUMPDEST POP POP JUMP JUMPDEST PUSH0 DUP1 PUSH0 SWAP1 SLOAD SWAP1 PUSH2 0x100 EXP SWAP1 DIV PUSH20 0xFFFFFFFFFFFFFFFFFFFFFFFFFFFFFFFFFFFFFFFF AND SWAP1 POP SWAP1 JUMP JUMPDEST PUSH32 0xDEBA1E292F8BA88238E10AB3C7F88BD4BE4FAC56CAD5194B6ECCEAF653468AF1 PUSH0 SHL DUP3 SUB PUSH3 0x4E5 JUMPI PUSH1 0x40 MLOAD PUSH32 0x85C169BD00000000000000000000000000000000000000000000000000000000 DUP2 MSTORE PUSH1 0x4 ADD PUSH1 0x40 MLOAD DUP1 SWAP2 SUB SWAP1 REVERT JUMPDEST PUSH32 0x2F0A68AB07768E01943A599E73362A0E17A63A72E94DD2E384D2C1D4DB932756 PUSH0 SHL DUP3 SUB PUSH3 0x541 JUMPI PUSH1 0x40 MLOAD PUSH32 0x76755B3800000000000000000000000000000000000000000000000000000000 DUP2 MSTORE PUSH1 0x4 ADD PUSH1 0x40 MLOAD DUP1 SWAP2 SUB SWAP1 REVERT JUMPDEST PUSH32 0xE0261FA95DB2EB3B5439BD033CDA66D56B96F92F243A8228FD87550ED7BDFDB3 PUSH0 SHL DUP3 SUB PUSH3 0x59D JUMPI PUSH1 0x40 MLOAD PUSH32 0x4EF6D7FB00000000000000000000000000000000000000000000000000000000 DUP2 MSTORE PUSH1 0x4 ADD PUSH1 0x40 MLOAD DUP1 SWAP2 SUB SWAP1 REVERT JUMPDEST DUP1 PUSH1 0x1 PUSH0 DUP5 DUP2 MSTORE PUSH1 0x20 ADD SWAP1 DUP2 MSTORE PUSH1 0x20 ADD PUSH0 KECCAK256 SWAP1 DUP2 PUSH3 0x5BD SWAP2 SWAP1 PUSH3 0xC06 JUMP JUMPDEST POP DUP2 PUSH32 0xECE574603820D07BC9B91F2A932BAADF4628AABCB8AFBA49776529C14A6104B2 DUP3 PUSH1 0x40 MLOAD PUSH3 0x5F0 SWAP2 SWAP1 PUSH3 0xD3A JUMP JUMPDEST PUSH1 0x40 MLOAD DUP1 SWAP2 SUB SWAP1 LOG2 POP POP JUMP JUMPDEST PUSH0 PUSH1 0x40 MLOAD SWAP1 POP SWAP1 JUMP JUMPDEST PUSH0 DUP1 REVERT JUMPDEST PUSH0 DUP1 REVERT JUMPDEST PUSH0 DUP1 REVERT JUMPDEST PUSH0 DUP1 REVERT JUMPDEST PUSH0 PUSH1 0x1F NOT PUSH1 0x1F DUP4 ADD AND SWAP1 POP SWAP2 SWAP1 POP JUMP JUMPDEST PUSH32 0x4E487B7100000000000000000000000000000000000000000000000000000000 PUSH0 MSTORE PUSH1 0x41 PUSH1 0x4 MSTORE PUSH1 0x24 PUSH0 REVERT JUMPDEST PUSH3 0x65D DUP3 PUSH3 0x615 JUMP JUMPDEST DUP2 ADD DUP2 DUP2 LT PUSH8 0xFFFFFFFFFFFFFFFF DUP3 GT OR ISZERO PUSH3 0x67F JUMPI PUSH3 0x67E PUSH3 0x625 JUMP JUMPDEST JUMPDEST DUP1 PUSH1 0x40 MSTORE POP POP POP JUMP JUMPDEST PUSH0 PUSH3 0x693 PUSH3 0x5FC JUMP JUMPDEST SWAP1 POP PUSH3 0x6A1 DUP3 DUP3 PUSH3 0x652 JUMP JUMPDEST SWAP2 SWAP1 POP JUMP JUMPDEST PUSH0 PUSH8 0xFFFFFFFFFFFFFFFF DUP3 GT ISZERO PUSH3 0x6C3 JUMPI PUSH3 0x6C2 PUSH3 0x625 JUMP JUMPDEST JUMPDEST PUSH3 0x6CE DUP3 PUSH3 0x615 JUMP JUMPDEST SWAP1 POP PUSH1 0x20 DUP2 ADD SWAP1 POP SWAP2 SWAP1 POP JUMP JUMPDEST PUSH0 JUMPDEST DUP4 DUP2 LT ISZERO PUSH3 0x6FA JUMPI DUP1 DUP3 ADD MLOAD DUP2 DUP5 ADD MSTORE PUSH1 0x20 DUP2 ADD SWAP1 POP PUSH3 0x6DD JUMP JUMPDEST PUSH0 DUP5 DUP5 ADD MSTORE POP POP POP POP JUMP JUMPDEST PUSH0 PUSH3 0x71B PUSH3 0x715 DUP5 PUSH3 0x6A6 JUMP JUMPDEST PUSH3 0x688 JUMP JUMPDEST SWAP1 POP DUP3 DUP2 MSTORE PUSH1 0x20 DUP2 ADD DUP5 DUP5 DUP5 ADD GT ISZERO PUSH3 0x73A JUMPI PUSH3 0x739 PUSH3 0x611 JUMP JUMPDEST JUMPDEST PUSH3 0x747 DUP5 DUP3 DUP6 PUSH3 0x6DB JUMP JUMPDEST POP SWAP4 SWAP3 POP POP POP JUMP JUMPDEST PUSH0 DUP3 PUSH1 0x1F DUP4 ADD SLT PUSH3 0x766 JUMPI PUSH3 0x765 PUSH3 0x60D JUMP JUMPDEST JUMPDEST DUP2 MLOAD PUSH3 0x778 DUP5 DUP3 PUSH1 0x20 DUP7 ADD PUSH3 0x705 JUMP JUMPDEST SWAP2 POP POP SWAP3 SWAP2 POP POP JUMP JUMPDEST PUSH0 PUSH20 0xFFFFFFFFFFFFFFFFFFFFFFFFFFFFFFFFFFFFFFFF DUP3 AND SWAP1 POP SWAP2 SWAP1 POP JUMP JUMPDEST PUSH0 PUSH3 0x7AC DUP3 PUSH3 0x781 JUMP JUMPDEST SWAP1 POP SWAP2 SWAP1 POP JUMP JUMPDEST PUSH3 0x7BE DUP2 PUSH3 0x7A0 JUMP JUMPDEST DUP2 EQ PUSH3 0x7C9 JUMPI PUSH0 DUP1 REVERT JUMPDEST POP JUMP JUMPDEST PUSH0 DUP2 MLOAD SWAP1 POP PUSH3 0x7DC DUP2 PUSH3 0x7B3 JUMP JUMPDEST SWAP3 SWAP2 POP POP JUMP JUMPDEST PUSH0 DUP2 SWAP1 POP SWAP2 SWAP1 POP JUMP JUMPDEST PUSH3 0x7F6 DUP2 PUSH3 0x7E2 JUMP JUMPDEST DUP2 EQ PUSH3 0x801 JUMPI PUSH0 DUP1 REVERT JUMPDEST POP JUMP JUMPDEST PUSH0 DUP2 MLOAD SWAP1 POP PUSH3 0x814 DUP2 PUSH3 0x7EB JUMP JUMPDEST SWAP3 SWAP2 POP POP JUMP JUMPDEST PUSH0 PUSH8 0xFFFFFFFFFFFFFFFF DUP3 GT ISZERO PUSH3 0x837 JUMPI PUSH3 0x836 PUSH3 0x625 JUMP JUMPDEST JUMPDEST PUSH3 0x842 DUP3 PUSH3 0x615 JUMP JUMPDEST SWAP1 POP PUSH1 0x20 DUP2 ADD SWAP1 POP SWAP2 SWAP1 POP JUMP JUMPDEST PUSH0 PUSH3 0x865 PUSH3 0x85F DUP5 PUSH3 0x81A JUMP JUMPDEST PUSH3 0x688 JUMP JUMPDEST SWAP1 POP DUP3 DUP2 MSTORE PUSH1 0x20 DUP2 ADD DUP5 DUP5 DUP5 ADD GT ISZERO PUSH3 0x884 JUMPI PUSH3 0x883 PUSH3 0x611 JUMP JUMPDEST JUMPDEST PUSH3 0x891 DUP5 DUP3 DUP6 PUSH3 0x6DB JUMP JUMPDEST POP SWAP4 SWAP3 POP POP POP JUMP JUMPDEST PUSH0 DUP3 PUSH1 0x1F DUP4 ADD SLT PUSH3 0x8B0 JUMPI PUSH3 0x8AF PUSH3 0x60D JUMP JUMPDEST JUMPDEST DUP2 MLOAD PUSH3 0x8C2 DUP5 DUP3 PUSH1 0x20 DUP7 ADD PUSH3 0x84F JUMP JUMPDEST SWAP2 POP POP SWAP3 SWAP2 POP POP JUMP JUMPDEST PUSH0 DUP1 PUSH0 DUP1 PUSH0 PUSH1 0xA0 DUP7 DUP9 SUB SLT ISZERO PUSH3 0x8E7 JUMPI PUSH3 0x8E6 PUSH3 0x605 JUMP JUMPDEST JUMPDEST PUSH0 DUP7 ADD MLOAD PUSH8 0xFFFFFFFFFFFFFFFF DUP2 GT ISZERO PUSH3 0x907 JUMPI PUSH3 0x906 PUSH3 0x609 JUMP JUMPDEST JUMPDEST PUSH3 0x915 DUP9 DUP3 DUP10 ADD PUSH3 0x74F JUMP JUMPDEST SWAP6 POP POP PUSH1 0x20 DUP7 ADD MLOAD PUSH8 0xFFFFFFFFFFFFFFFF DUP2 GT ISZERO PUSH3 0x939 JUMPI PUSH3 0x938 PUSH3 0x609 JUMP JUMPDEST JUMPDEST PUSH3 0x947 DUP9 DUP3 DUP10 ADD PUSH3 0x74F JUMP JUMPDEST SWAP5 POP POP PUSH1 0x40 PUSH3 0x95A DUP9 DUP3 DUP10 ADD PUSH3 0x7CC JUMP JUMPDEST SWAP4 POP POP PUSH1 0x60 PUSH3 0x96D DUP9 DUP3 DUP10 ADD PUSH3 0x804 JUMP JUMPDEST SWAP3 POP POP PUSH1 0x80 DUP7 ADD MLOAD PUSH8 0xFFFFFFFFFFFFFFFF DUP2 GT ISZERO PUSH3 0x991 JUMPI PUSH3 0x990 PUSH3 0x609 JUMP JUMPDEST JUMPDEST PUSH3 0x99F DUP9 DUP3 DUP10 ADD PUSH3 0x899 JUMP JUMPDEST SWAP2 POP POP SWAP3 SWAP6 POP SWAP3 SWAP6 SWAP1 SWAP4 POP JUMP JUMPDEST PUSH3 0x9B7 DUP2 PUSH3 0x7E2 JUMP JUMPDEST DUP3 MSTORE POP POP JUMP JUMPDEST PUSH0 PUSH1 0x20 DUP3 ADD SWAP1 POP PUSH3 0x9D2 PUSH0 DUP4 ADD DUP5 PUSH3 0x9AC JUMP JUMPDEST SWAP3 SWAP2 POP POP JUMP JUMPDEST PUSH0 DUP2 MLOAD SWAP1 POP SWAP2 SWAP1 POP JUMP JUMPDEST PUSH32 0x4E487B7100000000000000000000000000000000000000000000000000000000 PUSH0 MSTORE PUSH1 0x22 PUSH1 0x4 MSTORE PUSH1 0x24 PUSH0 REVERT JUMPDEST PUSH0 PUSH1 0x2 DUP3 DIV SWAP1 POP PUSH1 0x1 DUP3 AND DUP1 PUSH3 0xA27 JUMPI PUSH1 0x7F DUP3 AND SWAP2 POP JUMPDEST PUSH1 0x20 DUP3 LT DUP2 SUB PUSH3 0xA3D JUMPI PUSH3 0xA3C PUSH3 0x9E2 JUMP JUMPDEST JUMPDEST POP SWAP2 SWAP1 POP JUMP JUMPDEST PUSH0 DUP2 SWAP1 POP DUP2 PUSH0 MSTORE PUSH1 0x20 PUSH0 KECCAK256 SWAP1 POP SWAP2 SWAP1 POP JUMP JUMPDEST PUSH0 PUSH1 0x20 PUSH1 0x1F DUP4 ADD DIV SWAP1 POP SWAP2 SWAP1 POP JUMP JUMPDEST PUSH0 DUP3 DUP3 SHL SWAP1 POP SWAP3 SWAP2 POP POP JUMP JUMPDEST PUSH0 PUSH1 0x8 DUP4 MUL PUSH3 0xAA1 PUSH32 0xFFFFFFFFFFFFFFFFFFFFFFFFFFFFFFFFFFFFFFFFFFFFFFFFFFFFFFFFFFFFFFFF DUP3 PUSH3 0xA64 JUMP JUMPDEST PUSH3 0xAAD DUP7 DUP4 PUSH3 0xA64 JUMP JUMPDEST SWAP6 POP DUP1 NOT DUP5 AND SWAP4 POP DUP1 DUP7 AND DUP5 OR SWAP3 POP POP POP SWAP4 SWAP3 POP POP POP JUMP JUMPDEST PUSH0 DUP2 SWAP1 POP SWAP2 SWAP1 POP JUMP JUMPDEST PUSH0 PUSH3 0xAEE PUSH3 0xAE8 PUSH3 0xAE2 DUP5 PUSH3 0x7E2 JUMP JUMPDEST PUSH3 0xAC5 JUMP JUMPDEST PUSH3 0x7E2 JUMP JUMPDEST SWAP1 POP SWAP2 SWAP1 POP JUMP JUMPDEST PUSH0 DUP2 SWAP1 POP SWAP2 SWAP1 POP JUMP JUMPDEST PUSH3 0xB09 DUP4 PUSH3 0xACE JUMP JUMPDEST PUSH3 0xB21 PUSH3 0xB18 DUP3 PUSH3 0xAF5 JUMP JUMPDEST DUP5 DUP5 SLOAD PUSH3 0xA70 JUMP JUMPDEST DUP3 SSTORE POP POP POP POP JUMP JUMPDEST PUSH0 SWAP1 JUMP JUMPDEST PUSH3 0xB37 PUSH3 0xB29 JUMP JUMPDEST PUSH3 0xB44 DUP2 DUP5 DUP5 PUSH3 0xAFE JUMP JUMPDEST POP POP POP JUMP JUMPDEST JUMPDEST DUP2 DUP2 LT ISZERO PUSH3 0xB6B JUMPI PUSH3 0xB5F PUSH0 DUP3 PUSH3 0xB2D JUMP JUMPDEST PUSH1 0x1 DUP2 ADD SWAP1 POP PUSH3 0xB4A JUMP JUMPDEST POP POP JUMP JUMPDEST PUSH1 0x1F DUP3 GT ISZERO PUSH3 0xBBA JUMPI PUSH3 0xB84 DUP2 PUSH3 0xA43 JUMP JUMPDEST PUSH3 0xB8F DUP5 PUSH3 0xA55 JUMP JUMPDEST DUP2 ADD PUSH1 0x20 DUP6 LT ISZERO PUSH3 0xB9F JUMPI DUP2 SWAP1 POP JUMPDEST PUSH3 0xBB7 PUSH3 0xBAE DUP6 PUSH3 0xA55 JUMP JUMPDEST DUP4 ADD DUP3 PUSH3 0xB49 JUMP JUMPDEST POP POP JUMPDEST POP POP POP JUMP JUMPDEST PUSH0 DUP3 DUP3 SHR SWAP1 POP SWAP3 SWAP2 POP POP JUMP JUMPDEST PUSH0 PUSH3 0xBDC PUSH0 NOT DUP5 PUSH1 0x8 MUL PUSH3 0xBBF JUMP JUMPDEST NOT DUP1 DUP4 AND SWAP2 POP POP SWAP3 SWAP2 POP POP JUMP JUMPDEST PUSH0 PUSH3 0xBF6 DUP4 DUP4 PUSH3 0xBCB JUMP JUMPDEST SWAP2 POP DUP3 PUSH1 0x2 MUL DUP3 OR SWAP1 POP SWAP3 SWAP2 POP POP JUMP JUMPDEST PUSH3 0xC11 DUP3 PUSH3 0x9D8 JUMP JUMPDEST PUSH8 0xFFFFFFFFFFFFFFFF DUP2 GT ISZERO PUSH3 0xC2D JUMPI PUSH3 0xC2C PUSH3 0x625 JUMP JUMPDEST JUMPDEST PUSH3 0xC39 DUP3 SLOAD PUSH3 0xA0F JUMP JUMPDEST PUSH3 0xC46 DUP3 DUP3 DUP6 PUSH3 0xB6F JUMP JUMPDEST PUSH0 PUSH1 0x20 SWAP1 POP PUSH1 0x1F DUP4 GT PUSH1 0x1 DUP2 EQ PUSH3 0xC7C JUMPI PUSH0 DUP5 ISZERO PUSH3 0xC67 JUMPI DUP3 DUP8 ADD MLOAD SWAP1 POP JUMPDEST PUSH3 0xC73 DUP6 DUP3 PUSH3 0xBE9 JUMP JUMPDEST DUP7 SSTORE POP PUSH3 0xCE2 JUMP JUMPDEST PUSH1 0x1F NOT DUP5 AND PUSH3 0xC8C DUP7 PUSH3 0xA43 JUMP JUMPDEST PUSH0 JUMPDEST DUP3 DUP2 LT ISZERO PUSH3 0xCB5 JUMPI DUP5 DUP10 ADD MLOAD DUP3 SSTORE PUSH1 0x1 DUP3 ADD SWAP2 POP PUSH1 0x20 DUP6 ADD SWAP5 POP PUSH1 0x20 DUP2 ADD SWAP1 POP PUSH3 0xC8E JUMP JUMPDEST DUP7 DUP4 LT ISZERO PUSH3 0xCD5 JUMPI DUP5 DUP10 ADD MLOAD PUSH3 0xCD1 PUSH1 0x1F DUP10 AND DUP3 PUSH3 0xBCB JUMP JUMPDEST DUP4 SSTORE POP JUMPDEST PUSH1 0x1 PUSH1 0x2 DUP9 MUL ADD DUP9 SSTORE POP POP POP JUMPDEST POP POP POP POP POP POP JUMP JUMPDEST PUSH0 DUP3 DUP3 MSTORE PUSH1 0x20 DUP3 ADD SWAP1 POP SWAP3 SWAP2 POP POP JUMP JUMPDEST PUSH0 PUSH3 0xD06 DUP3 PUSH3 0x9D8 JUMP JUMPDEST PUSH3 0xD12 DUP2 DUP6 PUSH3 0xCEA JUMP JUMPDEST SWAP4 POP PUSH3 0xD24 DUP2 DUP6 PUSH1 0x20 DUP7 ADD PUSH3 0x6DB JUMP JUMPDEST PUSH3 0xD2F DUP2 PUSH3 0x615 JUMP JUMPDEST DUP5 ADD SWAP2 POP POP SWAP3 SWAP2 POP POP JUMP JUMPDEST PUSH0 PUSH1 0x20 DUP3 ADD SWAP1 POP DUP2 DUP2 SUB PUSH0 DUP4 ADD MSTORE PUSH3 0xD54 DUP2 DUP5 PUSH3 0xCFA JUMP JUMPDEST SWAP1 POP SWAP3 SWAP2 POP POP JUMP JUMPDEST PUSH2 0x5AD4 DUP1 PUSH3 0xD6A PUSH0 CODECOPY PUSH0 RETURN INVALID PUSH1 0x80 PUSH1 0x40 MSTORE PUSH1 0x4 CALLDATASIZE LT PUSH2 0x233 JUMPI PUSH0 CALLDATALOAD PUSH1 0xE0 SHR DUP1 PUSH4 0x5ACC786E GT PUSH2 0x12D JUMPI DUP1 PUSH4 0x97902421 GT PUSH2 0xAA JUMPI DUP1 PUSH4 0xDB8C9663 GT PUSH2 0x6E JUMPI DUP1 PUSH4 0xDB8C9663 EQ PUSH2 0x9F4 JUMPI DUP1 PUSH4 0xDEDFF9C6 EQ PUSH2 0xA1C JUMPI DUP1 PUSH4 0xF08E076D EQ PUSH2 0xA58 JUMPI DUP1 PUSH4 0xF2FDE38B EQ PUSH2 0xA94 JUMPI DUP1 PUSH4 0xF4E4FB41 EQ PUSH2 0xABC JUMPI PUSH2 0x2AC JUMP JUMPDEST DUP1 PUSH4 0x97902421 EQ PUSH2 0x910 JUMPI DUP1 PUSH4 0xA3B261F2 EQ PUSH2 0x92C JUMPI DUP1 PUSH4 0xBE9F0E6F EQ PUSH2 0x968 JUMPI DUP1 PUSH4 0xD54488FE EQ PUSH2 0x990 JUMPI DUP1 PUSH4 0xD6C1407C EQ PUSH2 0x9CC JUMPI PUSH2 0x2AC JUMP JUMPDEST DUP1 PUSH4 0x7E87632C GT PUSH2 0xF1 JUMPI DUP1 PUSH4 0x7E87632C EQ PUSH2 0x852 JUMPI DUP1 PUSH4 0x7F23690C EQ PUSH2 0x87A JUMPI DUP1 PUSH4 0x86A10DDD EQ PUSH2 0x896 JUMPI DUP1 PUSH4 0x8DA5CB5B EQ PUSH2 0x8BE JUMPI DUP1 PUSH4 0x92E18C4A EQ PUSH2 0x8E8 JUMPI PUSH2 0x2AC JUMP JUMPDEST DUP1 PUSH4 0x5ACC786E EQ PUSH2 0x760 JUMPI DUP1 PUSH4 0x6963D438 EQ PUSH2 0x79C JUMPI DUP1 PUSH4 0x70A08231 EQ PUSH2 0x7D8 JUMPI DUP1 PUSH4 0x715018A6 EQ PUSH2 0x814 JUMPI DUP1 PUSH4 0x7AAD1F7D EQ PUSH2 0x82A JUMPI PUSH2 0x2AC JUMP JUMPDEST DUP1 PUSH4 0x217B2270 GT PUSH2 0x1BB JUMPI DUP1 PUSH4 0x49A6078D GT PUSH2 0x17F JUMPI DUP1 PUSH4 0x49A6078D EQ PUSH2 0x648 JUMPI DUP1 PUSH4 0x4B74A1F1 EQ PUSH2 0x684 JUMPI DUP1 PUSH4 0x511B6952 EQ PUSH2 0x6C0 JUMPI DUP1 PUSH4 0x5283C480 EQ PUSH2 0x6E8 JUMPI DUP1 PUSH4 0x54F6127F EQ PUSH2 0x724 JUMPI PUSH2 0x2AC JUMP JUMPDEST DUP1 PUSH4 0x217B2270 EQ PUSH2 0x51C JUMPI DUP1 PUSH4 0x2A3654A4 EQ PUSH2 0x558 JUMPI DUP1 PUSH4 0x3A0F787F EQ PUSH2 0x594 JUMPI DUP1 PUSH4 0x3DB3ED30 EQ PUSH2 0x5D0 JUMPI DUP1 PUSH4 0x4046B9FD EQ PUSH2 0x60C JUMPI PUSH2 0x2AC JUMP JUMPDEST DUP1 PUSH4 0x75BF131 GT PUSH2 0x202 JUMPI DUP1 PUSH4 0x75BF131 EQ PUSH2 0x402 JUMPI DUP1 PUSH4 0xC590F51 EQ PUSH2 0x43E JUMPI DUP1 PUSH4 0x16E023B3 EQ PUSH2 0x47A JUMPI DUP1 PUSH4 0x18160DDD EQ PUSH2 0x4B6 JUMPI DUP1 PUSH4 0x1D26FCE6 EQ PUSH2 0x4E0 JUMPI PUSH2 0x2AC JUMP JUMPDEST DUP1 PUSH4 0x13EBA92 EQ PUSH2 0x312 JUMPI DUP1 PUSH4 0x183C191 EQ PUSH2 0x34E JUMPI DUP1 PUSH4 0x1FFC9A7 EQ PUSH2 0x38A JUMPI DUP1 PUSH4 0x46335D0 EQ PUSH2 0x3C6 JUMPI PUSH2 0x2AC JUMP JUMPDEST CALLDATASIZE PUSH2 0x2AC JUMPI PUSH0 CALLVALUE SUB PUSH2 0x27A JUMPI PUSH1 0x40 MLOAD PUSH32 0xE5099EE300000000000000000000000000000000000000000000000000000000 DUP2 MSTORE PUSH1 0x4 ADD PUSH2 0x271 SWAP1 PUSH2 0x39F8 JUMP JUMPDEST PUSH1 0x40 MLOAD DUP1 SWAP2 SUB SWAP1 REVERT JUMPDEST PUSH1 0x40 MLOAD PUSH32 0x61F4944200000000000000000000000000000000000000000000000000000000 DUP2 MSTORE PUSH1 0x4 ADD PUSH1 0x40 MLOAD DUP1 SWAP2 SUB SWAP1 REVERT JUMPDEST PUSH0 CALLDATASIZE PUSH1 0x60 PUSH1 0x4 PUSH0 CALLDATASIZE SWAP1 POP LT ISZERO PUSH2 0x2FB JUMPI DUP3 DUP3 PUSH1 0x40 MLOAD PUSH32 0xE5099EE300000000000000000000000000000000000000000000000000000000 DUP2 MSTORE PUSH1 0x4 ADD PUSH2 0x2F2 SWAP3 SWAP2 SWAP1 PUSH2 0x3A60 JUMP JUMPDEST PUSH1 0x40 MLOAD DUP1 SWAP2 SUB SWAP1 REVERT JUMPDEST PUSH2 0x305 DUP4 DUP4 PUSH2 0xAF8 JUMP JUMPDEST SWAP1 POP SWAP2 POP POP DUP1 MLOAD SWAP1 PUSH1 0x20 ADD RETURN JUMPDEST CALLVALUE DUP1 ISZERO PUSH2 0x31D JUMPI PUSH0 DUP1 REVERT JUMPDEST POP PUSH2 0x338 PUSH1 0x4 DUP1 CALLDATASIZE SUB DUP2 ADD SWAP1 PUSH2 0x333 SWAP2 SWAP1 PUSH2 0x3AED JUMP JUMPDEST PUSH2 0xC6E JUMP JUMPDEST PUSH1 0x40 MLOAD PUSH2 0x345 SWAP2 SWAP1 PUSH2 0x3B30 JUMP JUMPDEST PUSH1 0x40 MLOAD DUP1 SWAP2 SUB SWAP1 RETURN JUMPDEST CALLVALUE DUP1 ISZERO PUSH2 0x359 JUMPI PUSH0 DUP1 REVERT JUMPDEST POP PUSH2 0x374 PUSH1 0x4 DUP1 CALLDATASIZE SUB DUP2 ADD SWAP1 PUSH2 0x36F SWAP2 SWAP1 PUSH2 0x3D64 JUMP JUMPDEST PUSH2 0xC83 JUMP JUMPDEST PUSH1 0x40 MLOAD PUSH2 0x381 SWAP2 SWAP1 PUSH2 0x3E94 JUMP JUMPDEST PUSH1 0x40 MLOAD DUP1 SWAP2 SUB SWAP1 RETURN JUMPDEST CALLVALUE DUP1 ISZERO PUSH2 0x395 JUMPI PUSH0 DUP1 REVERT JUMPDEST POP PUSH2 0x3B0 PUSH1 0x4 DUP1 CALLDATASIZE SUB DUP2 ADD SWAP1 PUSH2 0x3AB SWAP2 SWAP1 PUSH2 0x3F02 JUMP JUMPDEST PUSH2 0xF44 JUMP JUMPDEST PUSH1 0x40 MLOAD PUSH2 0x3BD SWAP2 SWAP1 PUSH2 0x3F3C JUMP JUMPDEST PUSH1 0x40 MLOAD DUP1 SWAP2 SUB SWAP1 RETURN JUMPDEST CALLVALUE DUP1 ISZERO PUSH2 0x3D1 JUMPI PUSH0 DUP1 REVERT JUMPDEST POP PUSH2 0x3EC PUSH1 0x4 DUP1 CALLDATASIZE SUB DUP2 ADD SWAP1 PUSH2 0x3E7 SWAP2 SWAP1 PUSH2 0x3AED JUMP JUMPDEST PUSH2 0xFB4 JUMP JUMPDEST PUSH1 0x40 MLOAD PUSH2 0x3F9 SWAP2 SWAP1 PUSH2 0x3F3C JUMP JUMPDEST PUSH1 0x40 MLOAD DUP1 SWAP2 SUB SWAP1 RETURN JUMPDEST CALLVALUE DUP1 ISZERO PUSH2 0x40D JUMPI PUSH0 DUP1 REVERT JUMPDEST POP PUSH2 0x428 PUSH1 0x4 DUP1 CALLDATASIZE SUB DUP2 ADD SWAP1 PUSH2 0x423 SWAP2 SWAP1 PUSH2 0x3AED JUMP JUMPDEST PUSH2 0x100B JUMP JUMPDEST PUSH1 0x40 MLOAD PUSH2 0x435 SWAP2 SWAP1 PUSH2 0x3FBF JUMP JUMPDEST PUSH1 0x40 MLOAD DUP1 SWAP2 SUB SWAP1 RETURN JUMPDEST CALLVALUE DUP1 ISZERO PUSH2 0x449 JUMPI PUSH0 DUP1 REVERT JUMPDEST POP PUSH2 0x464 PUSH1 0x4 DUP1 CALLDATASIZE SUB DUP2 ADD SWAP1 PUSH2 0x45F SWAP2 SWAP1 PUSH2 0x3AED JUMP JUMPDEST PUSH2 0x10A6 JUMP JUMPDEST PUSH1 0x40 MLOAD PUSH2 0x471 SWAP2 SWAP1 PUSH2 0x3B30 JUMP JUMPDEST PUSH1 0x40 MLOAD DUP1 SWAP2 SUB SWAP1 RETURN JUMPDEST CALLVALUE DUP1 ISZERO PUSH2 0x485 JUMPI PUSH0 DUP1 REVERT JUMPDEST POP PUSH2 0x4A0 PUSH1 0x4 DUP1 CALLDATASIZE SUB DUP2 ADD SWAP1 PUSH2 0x49B SWAP2 SWAP1 PUSH2 0x4012 JUMP JUMPDEST PUSH2 0x10EC JUMP JUMPDEST PUSH1 0x40 MLOAD PUSH2 0x4AD SWAP2 SWAP1 PUSH2 0x3FBF JUMP JUMPDEST PUSH1 0x40 MLOAD DUP1 SWAP2 SUB SWAP1 RETURN JUMPDEST CALLVALUE DUP1 ISZERO PUSH2 0x4C1 JUMPI PUSH0 DUP1 REVERT JUMPDEST POP PUSH2 0x4CA PUSH2 0x1100 JUMP JUMPDEST PUSH1 0x40 MLOAD PUSH2 0x4D7 SWAP2 SWAP1 PUSH2 0x3B30 JUMP JUMPDEST PUSH1 0x40 MLOAD DUP1 SWAP2 SUB SWAP1 RETURN JUMPDEST CALLVALUE DUP1 ISZERO PUSH2 0x4EB JUMPI PUSH0 DUP1 REVERT JUMPDEST POP PUSH2 0x506 PUSH1 0x4 DUP1 CALLDATASIZE SUB DUP2 ADD SWAP1 PUSH2 0x501 SWAP2 SWAP1 PUSH2 0x4114 JUMP JUMPDEST PUSH2 0x1109 JUMP JUMPDEST PUSH1 0x40 MLOAD PUSH2 0x513 SWAP2 SWAP1 PUSH2 0x428D JUMP JUMPDEST PUSH1 0x40 MLOAD DUP1 SWAP2 SUB SWAP1 RETURN JUMPDEST CALLVALUE DUP1 ISZERO PUSH2 0x527 JUMPI PUSH0 DUP1 REVERT JUMPDEST POP PUSH2 0x542 PUSH1 0x4 DUP1 CALLDATASIZE SUB DUP2 ADD SWAP1 PUSH2 0x53D SWAP2 SWAP1 PUSH2 0x42AD JUMP JUMPDEST PUSH2 0x1210 JUMP JUMPDEST PUSH1 0x40 MLOAD PUSH2 0x54F SWAP2 SWAP1 PUSH2 0x3E94 JUMP JUMPDEST PUSH1 0x40 MLOAD DUP1 SWAP2 SUB SWAP1 RETURN JUMPDEST CALLVALUE DUP1 ISZERO PUSH2 0x563 JUMPI PUSH0 DUP1 REVERT JUMPDEST POP PUSH2 0x57E PUSH1 0x4 DUP1 CALLDATASIZE SUB DUP2 ADD SWAP1 PUSH2 0x579 SWAP2 SWAP1 PUSH2 0x42D8 JUMP JUMPDEST PUSH2 0x12BE JUMP JUMPDEST PUSH1 0x40 MLOAD PUSH2 0x58B SWAP2 SWAP1 PUSH2 0x3F3C JUMP JUMPDEST PUSH1 0x40 MLOAD DUP1 SWAP2 SUB SWAP1 RETURN JUMPDEST CALLVALUE DUP1 ISZERO PUSH2 0x59F JUMPI PUSH0 DUP1 REVERT JUMPDEST POP PUSH2 0x5BA PUSH1 0x4 DUP1 CALLDATASIZE SUB DUP2 ADD SWAP1 PUSH2 0x5B5 SWAP2 SWAP1 PUSH2 0x3AED JUMP JUMPDEST PUSH2 0x12D1 JUMP JUMPDEST PUSH1 0x40 MLOAD PUSH2 0x5C7 SWAP2 SWAP1 PUSH2 0x3B30 JUMP JUMPDEST PUSH1 0x40 MLOAD DUP1 SWAP2 SUB SWAP1 RETURN JUMPDEST CALLVALUE DUP1 ISZERO PUSH2 0x5DB JUMPI PUSH0 DUP1 REVERT JUMPDEST POP PUSH2 0x5F6 PUSH1 0x4 DUP1 CALLDATASIZE SUB DUP2 ADD SWAP1 PUSH2 0x5F1 SWAP2 SWAP1 PUSH2 0x3AED JUMP JUMPDEST PUSH2 0x12E6 JUMP JUMPDEST PUSH1 0x40 MLOAD PUSH2 0x603 SWAP2 SWAP1 PUSH2 0x3B30 JUMP JUMPDEST PUSH1 0x40 MLOAD DUP1 SWAP2 SUB SWAP1 RETURN JUMPDEST CALLVALUE DUP1 ISZERO PUSH2 0x617 JUMPI PUSH0 DUP1 REVERT JUMPDEST POP PUSH2 0x632 PUSH1 0x4 DUP1 CALLDATASIZE SUB DUP2 ADD SWAP1 PUSH2 0x62D SWAP2 SWAP1 PUSH2 0x3AED JUMP JUMPDEST PUSH2 0x132C JUMP JUMPDEST PUSH1 0x40 MLOAD PUSH2 0x63F SWAP2 SWAP1 PUSH2 0x43CD JUMP JUMPDEST PUSH1 0x40 MLOAD DUP1 SWAP2 SUB SWAP1 RETURN JUMPDEST CALLVALUE DUP1 ISZERO PUSH2 0x653 JUMPI PUSH0 DUP1 REVERT JUMPDEST POP PUSH2 0x66E PUSH1 0x4 DUP1 CALLDATASIZE SUB DUP2 ADD SWAP1 PUSH2 0x669 SWAP2 SWAP1 PUSH2 0x42AD JUMP JUMPDEST PUSH2 0x13BF JUMP JUMPDEST PUSH1 0x40 MLOAD PUSH2 0x67B SWAP2 SWAP1 PUSH2 0x44A4 JUMP JUMPDEST PUSH1 0x40 MLOAD DUP1 SWAP2 SUB SWAP1 RETURN JUMPDEST CALLVALUE DUP1 ISZERO PUSH2 0x68F JUMPI PUSH0 DUP1 REVERT JUMPDEST POP PUSH2 0x6AA PUSH1 0x4 DUP1 CALLDATASIZE SUB DUP2 ADD SWAP1 PUSH2 0x6A5 SWAP2 SWAP1 PUSH2 0x3AED JUMP JUMPDEST PUSH2 0x13EA JUMP JUMPDEST PUSH1 0x40 MLOAD PUSH2 0x6B7 SWAP2 SWAP1 PUSH2 0x3FBF JUMP JUMPDEST PUSH1 0x40 MLOAD DUP1 SWAP2 SUB SWAP1 RETURN JUMPDEST CALLVALUE DUP1 ISZERO PUSH2 0x6CB JUMPI PUSH0 DUP1 REVERT JUMPDEST POP PUSH2 0x6E6 PUSH1 0x4 DUP1 CALLDATASIZE SUB DUP2 ADD SWAP1 PUSH2 0x6E1 SWAP2 SWAP1 PUSH2 0x44C4 JUMP JUMPDEST PUSH2 0x14B7 JUMP JUMPDEST STOP JUMPDEST CALLVALUE DUP1 ISZERO PUSH2 0x6F3 JUMPI PUSH0 DUP1 REVERT JUMPDEST POP PUSH2 0x70E PUSH1 0x4 DUP1 CALLDATASIZE SUB DUP2 ADD SWAP1 PUSH2 0x709 SWAP2 SWAP1 PUSH2 0x4557 JUMP JUMPDEST PUSH2 0x1518 JUMP JUMPDEST PUSH1 0x40 MLOAD PUSH2 0x71B SWAP2 SWAP1 PUSH2 0x3F3C JUMP JUMPDEST PUSH1 0x40 MLOAD DUP1 SWAP2 SUB SWAP1 RETURN JUMPDEST CALLVALUE DUP1 ISZERO PUSH2 0x72F JUMPI PUSH0 DUP1 REVERT JUMPDEST POP PUSH2 0x74A PUSH1 0x4 DUP1 CALLDATASIZE SUB DUP2 ADD SWAP1 PUSH2 0x745 SWAP2 SWAP1 PUSH2 0x42AD JUMP JUMPDEST PUSH2 0x1542 JUMP JUMPDEST PUSH1 0x40 MLOAD PUSH2 0x757 SWAP2 SWAP1 PUSH2 0x3FBF JUMP JUMPDEST PUSH1 0x40 MLOAD DUP1 SWAP2 SUB SWAP1 RETURN JUMPDEST CALLVALUE DUP1 ISZERO PUSH2 0x76B JUMPI PUSH0 DUP1 REVERT JUMPDEST POP PUSH2 0x786 PUSH1 0x4 DUP1 CALLDATASIZE SUB DUP2 ADD SWAP1 PUSH2 0x781 SWAP2 SWAP1 PUSH2 0x4595 JUMP JUMPDEST PUSH2 0x1554 JUMP JUMPDEST PUSH1 0x40 MLOAD PUSH2 0x793 SWAP2 SWAP1 PUSH2 0x3E94 JUMP JUMPDEST PUSH1 0x40 MLOAD DUP1 SWAP2 SUB SWAP1 RETURN JUMPDEST CALLVALUE DUP1 ISZERO PUSH2 0x7A7 JUMPI PUSH0 DUP1 REVERT JUMPDEST POP PUSH2 0x7C2 PUSH1 0x4 DUP1 CALLDATASIZE SUB DUP2 ADD SWAP1 PUSH2 0x7BD SWAP2 SWAP1 PUSH2 0x462C JUMP JUMPDEST PUSH2 0x159C JUMP JUMPDEST PUSH1 0x40 MLOAD PUSH2 0x7CF SWAP2 SWAP1 PUSH2 0x428D JUMP JUMPDEST PUSH1 0x40 MLOAD DUP1 SWAP2 SUB SWAP1 RETURN JUMPDEST CALLVALUE DUP1 ISZERO PUSH2 0x7E3 JUMPI PUSH0 DUP1 REVERT JUMPDEST POP PUSH2 0x7FE PUSH1 0x4 DUP1 CALLDATASIZE SUB DUP2 ADD SWAP1 PUSH2 0x7F9 SWAP2 SWAP1 PUSH2 0x3AED JUMP JUMPDEST PUSH2 0x1712 JUMP JUMPDEST PUSH1 0x40 MLOAD PUSH2 0x80B SWAP2 SWAP1 PUSH2 0x3B30 JUMP JUMPDEST PUSH1 0x40 MLOAD DUP1 SWAP2 SUB SWAP1 RETURN JUMPDEST CALLVALUE DUP1 ISZERO PUSH2 0x81F JUMPI PUSH0 DUP1 REVERT JUMPDEST POP PUSH2 0x828 PUSH2 0x175F JUMP JUMPDEST STOP JUMPDEST CALLVALUE DUP1 ISZERO PUSH2 0x835 JUMPI PUSH0 DUP1 REVERT JUMPDEST POP PUSH2 0x850 PUSH1 0x4 DUP1 CALLDATASIZE SUB DUP2 ADD SWAP1 PUSH2 0x84B SWAP2 SWAP1 PUSH2 0x42AD JUMP JUMPDEST PUSH2 0x1772 JUMP JUMPDEST STOP JUMPDEST CALLVALUE DUP1 ISZERO PUSH2 0x85D JUMPI PUSH0 DUP1 REVERT JUMPDEST POP PUSH2 0x878 PUSH1 0x4 DUP1 CALLDATASIZE SUB DUP2 ADD SWAP1 PUSH2 0x873 SWAP2 SWAP1 PUSH2 0x48D5 JUMP JUMPDEST PUSH2 0x1925 JUMP JUMPDEST STOP JUMPDEST PUSH2 0x894 PUSH1 0x4 DUP1 CALLDATASIZE SUB DUP2 ADD SWAP1 PUSH2 0x88F SWAP2 SWAP1 PUSH2 0x49D8 JUMP JUMPDEST PUSH2 0x1A37 JUMP JUMPDEST STOP JUMPDEST CALLVALUE DUP1 ISZERO PUSH2 0x8A1 JUMPI PUSH0 DUP1 REVERT JUMPDEST POP PUSH2 0x8BC PUSH1 0x4 DUP1 CALLDATASIZE SUB DUP2 ADD SWAP1 PUSH2 0x8B7 SWAP2 SWAP1 PUSH2 0x4A32 JUMP JUMPDEST PUSH2 0x1A86 JUMP JUMPDEST STOP JUMPDEST CALLVALUE DUP1 ISZERO PUSH2 0x8C9 JUMPI PUSH0 DUP1 REVERT JUMPDEST POP PUSH2 0x8D2 PUSH2 0x1CDC JUMP JUMPDEST PUSH1 0x40 MLOAD PUSH2 0x8DF SWAP2 SWAP1 PUSH2 0x3E94 JUMP JUMPDEST PUSH1 0x40 MLOAD DUP1 SWAP2 SUB SWAP1 RETURN JUMPDEST CALLVALUE DUP1 ISZERO PUSH2 0x8F3 JUMPI PUSH0 DUP1 REVERT JUMPDEST POP PUSH2 0x90E PUSH1 0x4 DUP1 CALLDATASIZE SUB DUP2 ADD SWAP1 PUSH2 0x909 SWAP2 SWAP1 PUSH2 0x4A9E JUMP JUMPDEST PUSH2 0x1D03 JUMP JUMPDEST STOP JUMPDEST PUSH2 0x92A PUSH1 0x4 DUP1 CALLDATASIZE SUB DUP2 ADD SWAP1 PUSH2 0x925 SWAP2 SWAP1 PUSH2 0x4AF8 JUMP JUMPDEST PUSH2 0x1D52 JUMP JUMPDEST STOP JUMPDEST CALLVALUE DUP1 ISZERO PUSH2 0x937 JUMPI PUSH0 DUP1 REVERT JUMPDEST POP PUSH2 0x952 PUSH1 0x4 DUP1 CALLDATASIZE SUB DUP2 ADD SWAP1 PUSH2 0x94D SWAP2 SWAP1 PUSH2 0x3AED JUMP JUMPDEST PUSH2 0x1E61 JUMP JUMPDEST PUSH1 0x40 MLOAD PUSH2 0x95F SWAP2 SWAP1 PUSH2 0x43CD JUMP JUMPDEST PUSH1 0x40 MLOAD DUP1 SWAP2 SUB SWAP1 RETURN JUMPDEST CALLVALUE DUP1 ISZERO PUSH2 0x973 JUMPI PUSH0 DUP1 REVERT JUMPDEST POP PUSH2 0x98E PUSH1 0x4 DUP1 CALLDATASIZE SUB DUP2 ADD SWAP1 PUSH2 0x989 SWAP2 SWAP1 PUSH2 0x4B6E JUMP JUMPDEST PUSH2 0x1EAF JUMP JUMPDEST STOP JUMPDEST CALLVALUE DUP1 ISZERO PUSH2 0x99B JUMPI PUSH0 DUP1 REVERT JUMPDEST POP PUSH2 0x9B6 PUSH1 0x4 DUP1 CALLDATASIZE SUB DUP2 ADD SWAP1 PUSH2 0x9B1 SWAP2 SWAP1 PUSH2 0x42AD JUMP JUMPDEST PUSH2 0x1FB0 JUMP JUMPDEST PUSH1 0x40 MLOAD PUSH2 0x9C3 SWAP2 SWAP1 PUSH2 0x44A4 JUMP JUMPDEST PUSH1 0x40 MLOAD DUP1 SWAP2 SUB SWAP1 RETURN JUMPDEST CALLVALUE DUP1 ISZERO PUSH2 0x9D7 JUMPI PUSH0 DUP1 REVERT JUMPDEST POP PUSH2 0x9F2 PUSH1 0x4 DUP1 CALLDATASIZE SUB DUP2 ADD SWAP1 PUSH2 0x9ED SWAP2 SWAP1 PUSH2 0x4C12 JUMP JUMPDEST PUSH2 0x204C JUMP JUMPDEST STOP JUMPDEST CALLVALUE DUP1 ISZERO PUSH2 0x9FF JUMPI PUSH0 DUP1 REVERT JUMPDEST POP PUSH2 0xA1A PUSH1 0x4 DUP1 CALLDATASIZE SUB DUP2 ADD SWAP1 PUSH2 0xA15 SWAP2 SWAP1 PUSH2 0x4C7E JUMP JUMPDEST PUSH2 0x2064 JUMP JUMPDEST STOP JUMPDEST CALLVALUE DUP1 ISZERO PUSH2 0xA27 JUMPI PUSH0 DUP1 REVERT JUMPDEST POP PUSH2 0xA42 PUSH1 0x4 DUP1 CALLDATASIZE SUB DUP2 ADD SWAP1 PUSH2 0xA3D SWAP2 SWAP1 PUSH2 0x4CFE JUMP JUMPDEST PUSH2 0x2231 JUMP JUMPDEST PUSH1 0x40 MLOAD PUSH2 0xA4F SWAP2 SWAP1 PUSH2 0x428D JUMP JUMPDEST PUSH1 0x40 MLOAD DUP1 SWAP2 SUB SWAP1 RETURN JUMPDEST CALLVALUE DUP1 ISZERO PUSH2 0xA63 JUMPI PUSH0 DUP1 REVERT JUMPDEST POP PUSH2 0xA7E PUSH1 0x4 DUP1 CALLDATASIZE SUB DUP2 ADD SWAP1 PUSH2 0xA79 SWAP2 SWAP1 PUSH2 0x3AED JUMP JUMPDEST PUSH2 0x22E1 JUMP JUMPDEST PUSH1 0x40 MLOAD PUSH2 0xA8B SWAP2 SWAP1 PUSH2 0x3B30 JUMP JUMPDEST PUSH1 0x40 MLOAD DUP1 SWAP2 SUB SWAP1 RETURN JUMPDEST CALLVALUE DUP1 ISZERO PUSH2 0xA9F JUMPI PUSH0 DUP1 REVERT JUMPDEST POP PUSH2 0xABA PUSH1 0x4 DUP1 CALLDATASIZE SUB DUP2 ADD SWAP1 PUSH2 0xAB5 SWAP2 SWAP1 PUSH2 0x3AED JUMP JUMPDEST PUSH2 0x22F6 JUMP JUMPDEST STOP JUMPDEST CALLVALUE DUP1 ISZERO PUSH2 0xAC7 JUMPI PUSH0 DUP1 REVERT JUMPDEST POP PUSH2 0xAE2 PUSH1 0x4 DUP1 CALLDATASIZE SUB DUP2 ADD SWAP1 PUSH2 0xADD SWAP2 SWAP1 PUSH2 0x4D45 JUMP JUMPDEST PUSH2 0x236F JUMP JUMPDEST PUSH1 0x40 MLOAD PUSH2 0xAEF SWAP2 SWAP1 PUSH2 0x4D92 JUMP JUMPDEST PUSH1 0x40 MLOAD DUP1 SWAP2 SUB SWAP1 RETURN JUMPDEST PUSH1 0x60 PUSH0 PUSH2 0xB27 PUSH0 CALLDATALOAD PUSH32 0xFFFFFFFF00000000000000000000000000000000000000000000000000000000 AND PUSH2 0x239A JUMP JUMPDEST POP SWAP1 POP PUSH0 PUSH20 0xFFFFFFFFFFFFFFFFFFFFFFFFFFFFFFFFFFFFFFFF AND DUP2 PUSH20 0xFFFFFFFFFFFFFFFFFFFFFFFFFFFFFFFFFFFFFFFF AND SUB PUSH2 0xBBD JUMPI PUSH0 CALLDATALOAD PUSH32 0xFFFFFFFF00000000000000000000000000000000000000000000000000000000 AND PUSH1 0x40 MLOAD PUSH32 0xBB370B2B00000000000000000000000000000000000000000000000000000000 DUP2 MSTORE PUSH1 0x4 ADD PUSH2 0xBB4 SWAP2 SWAP1 PUSH2 0x4DBA JUMP JUMPDEST PUSH1 0x40 MLOAD DUP1 SWAP2 SUB SWAP1 REVERT JUMPDEST PUSH0 DUP1 DUP3 PUSH20 0xFFFFFFFFFFFFFFFFFFFFFFFFFFFFFFFFFFFFFFFF AND CALLVALUE DUP8 DUP8 CALLER CALLVALUE PUSH1 0x40 MLOAD PUSH1 0x20 ADD PUSH2 0xBEE SWAP5 SWAP4 SWAP3 SWAP2 SWAP1 PUSH2 0x4E66 JUMP JUMPDEST PUSH1 0x40 MLOAD PUSH1 0x20 DUP2 DUP4 SUB SUB DUP2 MSTORE SWAP1 PUSH1 0x40 MSTORE PUSH1 0x40 MLOAD PUSH2 0xC0A SWAP2 SWAP1 PUSH2 0x4ED0 JUMP JUMPDEST PUSH0 PUSH1 0x40 MLOAD DUP1 DUP4 SUB DUP2 DUP6 DUP8 GAS CALL SWAP3 POP POP POP RETURNDATASIZE DUP1 PUSH0 DUP2 EQ PUSH2 0xC44 JUMPI PUSH1 0x40 MLOAD SWAP2 POP PUSH1 0x1F NOT PUSH1 0x3F RETURNDATASIZE ADD AND DUP3 ADD PUSH1 0x40 MSTORE RETURNDATASIZE DUP3 MSTORE RETURNDATASIZE PUSH0 PUSH1 0x20 DUP5 ADD RETURNDATACOPY PUSH2 0xC49 JUMP JUMPDEST PUSH1 0x60 SWAP2 POP JUMPDEST POP SWAP2 POP SWAP2 POP DUP2 ISZERO PUSH2 0xC5F JUMPI DUP1 SWAP4 POP POP POP POP PUSH2 0xC68 JUMP JUMPDEST DUP1 MLOAD DUP1 PUSH1 0x20 DUP4 ADD REVERT JUMPDEST SWAP3 SWAP2 POP POP JUMP JUMPDEST PUSH1 0x7 PUSH1 0x20 MSTORE DUP1 PUSH0 MSTORE PUSH1 0x40 PUSH0 KECCAK256 PUSH0 SWAP2 POP SWAP1 POP SLOAD DUP2 JUMP JUMPDEST PUSH0 PUSH20 0x0 PUSH4 0xB3B2981E DUP11 DUP11 PUSH1 0x2 DUP12 DUP12 DUP12 DUP12 PUSH1 0x40 MLOAD DUP9 PUSH4 0xFFFFFFFF AND PUSH1 0xE0 SHL DUP2 MSTORE PUSH1 0x4 ADD PUSH2 0xCC8 SWAP8 SWAP7 SWAP6 SWAP5 SWAP4 SWAP3 SWAP2 SWAP1 PUSH2 0x4FEF JUMP JUMPDEST PUSH1 0x20 PUSH1 0x40 MLOAD DUP1 DUP4 SUB DUP2 DUP7 GAS DELEGATECALL ISZERO DUP1 ISZERO PUSH2 0xCE3 JUMPI RETURNDATASIZE PUSH0 DUP1 RETURNDATACOPY RETURNDATASIZE PUSH0 REVERT JUMPDEST POP POP POP POP PUSH1 0x40 MLOAD RETURNDATASIZE PUSH1 0x1F NOT PUSH1 0x1F DUP3 ADD AND DUP3 ADD DUP1 PUSH1 0x40 MSTORE POP DUP2 ADD SWAP1 PUSH2 0xD07 SWAP2 SWAP1 PUSH2 0x5085 JUMP JUMPDEST SWAP1 POP PUSH0 DUP2 PUSH20 0xFFFFFFFFFFFFFFFFFFFFFFFFFFFFFFFFFFFFFFFF AND PUSH0 SHL SWAP1 POP PUSH2 0xD40 DUP4 DUP3 PUSH1 0x1 PUSH1 0x40 MLOAD DUP1 PUSH1 0x20 ADD PUSH1 0x40 MSTORE DUP1 PUSH0 DUP2 MSTORE POP PUSH2 0x2450 JUMP JUMPDEST TIMESTAMP PUSH1 0x7 PUSH0 CALLER PUSH20 0xFFFFFFFFFFFFFFFFFFFFFFFFFFFFFFFFFFFFFFFF AND PUSH20 0xFFFFFFFFFFFFFFFFFFFFFFFFFFFFFFFFFFFFFFFF AND DUP2 MSTORE PUSH1 0x20 ADD SWAP1 DUP2 MSTORE PUSH1 0x20 ADD PUSH0 KECCAK256 DUP2 SWAP1 SSTORE POP TIMESTAMP PUSH1 0x8 PUSH0 DUP5 PUSH20 0xFFFFFFFFFFFFFFFFFFFFFFFFFFFFFFFFFFFFFFFF AND PUSH20 0xFFFFFFFFFFFFFFFFFFFFFFFFFFFFFFFFFFFFFFFF AND DUP2 MSTORE PUSH1 0x20 ADD SWAP1 DUP2 MSTORE PUSH1 0x20 ADD PUSH0 KECCAK256 DUP2 SWAP1 SSTORE POP PUSH2 0xDCE DUP3 DUP6 PUSH2 0x1D03 JUMP JUMPDEST PUSH1 0xC PUSH0 DUP5 PUSH20 0xFFFFFFFFFFFFFFFFFFFFFFFFFFFFFFFFFFFFFFFF AND PUSH20 0xFFFFFFFFFFFFFFFFFFFFFFFFFFFFFFFFFFFFFFFF AND DUP2 MSTORE PUSH1 0x20 ADD SWAP1 DUP2 MSTORE PUSH1 0x20 ADD PUSH0 KECCAK256 PUSH0 DUP2 SLOAD DUP1 SWAP3 SWAP2 SWAP1 PUSH2 0xE1B SWAP1 PUSH2 0x50DD JUMP JUMPDEST SWAP2 SWAP1 POP SSTORE POP PUSH1 0xD PUSH0 DUP4 PUSH20 0xFFFFFFFFFFFFFFFFFFFFFFFFFFFFFFFFFFFFFFFF AND PUSH20 0xFFFFFFFFFFFFFFFFFFFFFFFFFFFFFFFFFFFFFFFF AND DUP2 MSTORE PUSH1 0x20 ADD SWAP1 DUP2 MSTORE PUSH1 0x20 ADD PUSH0 KECCAK256 DUP2 SWAP1 DUP1 PUSH1 0x1 DUP2 SLOAD ADD DUP1 DUP3 SSTORE DUP1 SWAP2 POP POP PUSH1 0x1 SWAP1 SUB SWAP1 PUSH0 MSTORE PUSH1 0x20 PUSH0 KECCAK256 ADD PUSH0 SWAP1 SWAP2 SWAP1 SWAP2 SWAP1 SWAP2 POP SSTORE PUSH2 0xE8A CALLER PUSH2 0xFB4 JUMP JUMPDEST ISZERO PUSH2 0xED2 JUMPI TIMESTAMP PUSH1 0x7 PUSH0 CALLER PUSH20 0xFFFFFFFFFFFFFFFFFFFFFFFFFFFFFFFFFFFFFFFF AND PUSH20 0xFFFFFFFFFFFFFFFFFFFFFFFFFFFFFFFFFFFFFFFF AND DUP2 MSTORE PUSH1 0x20 ADD SWAP1 DUP2 MSTORE PUSH1 0x20 ADD PUSH0 KECCAK256 DUP2 SWAP1 SSTORE POP JUMPDEST DUP2 PUSH20 0xFFFFFFFFFFFFFFFFFFFFFFFFFFFFFFFFFFFFFFFF AND CALLER PUSH20 0xFFFFFFFFFFFFFFFFFFFFFFFFFFFFFFFFFFFFFFFF AND PUSH32 0xAB8530F87DC9B59234C4623BF917212BB2536D647574C8E7E5DA92C2EDE0C9F8 TIMESTAMP PUSH1 0x40 MLOAD PUSH2 0xF2F SWAP2 SWAP1 PUSH2 0x3B30 JUMP JUMPDEST PUSH1 0x40 MLOAD DUP1 SWAP2 SUB SWAP1 LOG3 POP SWAP9 SWAP8 POP POP POP POP POP POP POP POP JUMP JUMPDEST PUSH0 PUSH4 0x3A271706 PUSH1 0xE0 SHL PUSH28 0xFFFFFFFFFFFFFFFFFFFFFFFFFFFFFFFFFFFFFFFFFFFFFFFFFFFFFFFF NOT AND DUP3 PUSH28 0xFFFFFFFFFFFFFFFFFFFFFFFFFFFFFFFFFFFFFFFFFFFFFFFFFFFFFFFF NOT AND EQ DUP1 PUSH2 0xF9D JUMPI POP PUSH2 0xF9C DUP3 PUSH2 0x26BE JUMP JUMPDEST JUMPDEST DUP1 PUSH2 0xFAD JUMPI POP PUSH2 0xFAC DUP3 PUSH2 0x271E JUMP JUMPDEST JUMPDEST SWAP1 POP SWAP2 SWAP1 POP JUMP JUMPDEST PUSH0 PUSH3 0x15180 PUSH1 0x7 PUSH0 DUP5 PUSH20 0xFFFFFFFFFFFFFFFFFFFFFFFFFFFFFFFFFFFFFFFF AND PUSH20 0xFFFFFFFFFFFFFFFFFFFFFFFFFFFFFFFFFFFFFFFF AND DUP2 MSTORE PUSH1 0x20 ADD SWAP1 DUP2 MSTORE PUSH1 0x20 ADD PUSH0 KECCAK256 SLOAD PUSH2 0x1001 SWAP2 SWAP1 PUSH2 0x5124 JUMP JUMPDEST TIMESTAMP LT ISZERO SWAP1 POP SWAP2 SWAP1 POP JUMP JUMPDEST PUSH1 0xB PUSH1 0x20 MSTORE DUP1 PUSH0 MSTORE PUSH1 0x40 PUSH0 KECCAK256 PUSH0 SWAP2 POP SWAP1 POP DUP1 SLOAD PUSH2 0x1027 SWAP1 PUSH2 0x5184 JUMP JUMPDEST DUP1 PUSH1 0x1F ADD PUSH1 0x20 DUP1 SWAP2 DIV MUL PUSH1 0x20 ADD PUSH1 0x40 MLOAD SWAP1 DUP2 ADD PUSH1 0x40 MSTORE DUP1 SWAP3 SWAP2 SWAP1 DUP2 DUP2 MSTORE PUSH1 0x20 ADD DUP3 DUP1 SLOAD PUSH2 0x1053 SWAP1 PUSH2 0x5184 JUMP JUMPDEST DUP1 ISZERO PUSH2 0x109E JUMPI DUP1 PUSH1 0x1F LT PUSH2 0x1075 JUMPI PUSH2 0x100 DUP1 DUP4 SLOAD DIV MUL DUP4 MSTORE SWAP2 PUSH1 0x20 ADD SWAP2 PUSH2 0x109E JUMP JUMPDEST DUP3 ADD SWAP2 SWAP1 PUSH0 MSTORE PUSH1 0x20 PUSH0 KECCAK256 SWAP1 JUMPDEST DUP2 SLOAD DUP2 MSTORE SWAP1 PUSH1 0x1 ADD SWAP1 PUSH1 0x20 ADD DUP1 DUP4 GT PUSH2 0x1081 JUMPI DUP3 SWAP1 SUB PUSH1 0x1F AND DUP3 ADD SWAP2 JUMPDEST POP POP POP POP POP DUP2 JUMP JUMPDEST PUSH0 PUSH1 0x8 PUSH0 DUP4 PUSH20 0xFFFFFFFFFFFFFFFFFFFFFFFFFFFFFFFFFFFFFFFF AND PUSH20 0xFFFFFFFFFFFFFFFFFFFFFFFFFFFFFFFFFFFFFFFF AND DUP2 MSTORE PUSH1 0x20 ADD SWAP1 DUP2 MSTORE PUSH1 0x20 ADD PUSH0 KECCAK256 SLOAD SWAP1 POP SWAP2 SWAP1 POP JUMP JUMPDEST PUSH1 0x60 PUSH2 0x10F8 DUP4 DUP4 PUSH2 0x2782 JUMP JUMPDEST SWAP1 POP SWAP3 SWAP2 POP POP JUMP JUMPDEST PUSH0 PUSH1 0x2 SLOAD SWAP1 POP SWAP1 JUMP JUMPDEST PUSH1 0x60 DUP2 MLOAD DUP4 MLOAD EQ PUSH2 0x1146 JUMPI PUSH1 0x40 MLOAD PUSH32 0x2FA71DFE00000000000000000000000000000000000000000000000000000000 DUP2 MSTORE PUSH1 0x4 ADD PUSH1 0x40 MLOAD DUP1 SWAP2 SUB SWAP1 REVERT JUMPDEST DUP3 MLOAD PUSH8 0xFFFFFFFFFFFFFFFF DUP2 GT ISZERO PUSH2 0x1161 JUMPI PUSH2 0x1160 PUSH2 0x3B51 JUMP JUMPDEST JUMPDEST PUSH1 0x40 MLOAD SWAP1 DUP1 DUP3 MSTORE DUP1 PUSH1 0x20 MUL PUSH1 0x20 ADD DUP3 ADD PUSH1 0x40 MSTORE DUP1 ISZERO PUSH2 0x1194 JUMPI DUP2 PUSH1 0x20 ADD JUMPDEST PUSH1 0x60 DUP2 MSTORE PUSH1 0x20 ADD SWAP1 PUSH1 0x1 SWAP1 SUB SWAP1 DUP2 PUSH2 0x117F JUMPI SWAP1 POP JUMPDEST POP SWAP1 POP PUSH0 JUMPDEST DUP4 MLOAD DUP2 LT ISZERO PUSH2 0x1209 JUMPI PUSH2 0x11E0 DUP5 DUP3 DUP2 MLOAD DUP2 LT PUSH2 0x11B8 JUMPI PUSH2 0x11B7 PUSH2 0x51B4 JUMP JUMPDEST JUMPDEST PUSH1 0x20 MUL PUSH1 0x20 ADD ADD MLOAD DUP5 DUP4 DUP2 MLOAD DUP2 LT PUSH2 0x11D3 JUMPI PUSH2 0x11D2 PUSH2 0x51B4 JUMP JUMPDEST JUMPDEST PUSH1 0x20 MUL PUSH1 0x20 ADD ADD MLOAD PUSH2 0x2782 JUMP JUMPDEST DUP3 DUP3 DUP2 MLOAD DUP2 LT PUSH2 0x11F3 JUMPI PUSH2 0x11F2 PUSH2 0x51B4 JUMP JUMPDEST JUMPDEST PUSH1 0x20 MUL PUSH1 0x20 ADD ADD DUP2 SWAP1 MSTORE POP DUP1 PUSH1 0x1 ADD SWAP1 POP PUSH2 0x1199 JUMP JUMPDEST POP SWAP3 SWAP2 POP POP JUMP JUMPDEST PUSH0 DUP1 PUSH1 0x3 PUSH0 DUP5 DUP2 MSTORE PUSH1 0x20 ADD SWAP1 DUP2 MSTORE PUSH1 0x20 ADD PUSH0 KECCAK256 PUSH0 SWAP1 SLOAD SWAP1 PUSH2 0x100 EXP SWAP1 DIV PUSH20 0xFFFFFFFFFFFFFFFFFFFFFFFFFFFFFFFFFFFFFFFF AND SWAP1 POP PUSH0 PUSH20 0xFFFFFFFFFFFFFFFFFFFFFFFFFFFFFFFFFFFFFFFF AND DUP2 PUSH20 0xFFFFFFFFFFFFFFFFFFFFFFFFFFFFFFFFFFFFFFFF AND SUB PUSH2 0x12B5 JUMPI DUP3 PUSH1 0x40 MLOAD PUSH32 0xAE8F9A3600000000000000000000000000000000000000000000000000000000 DUP2 MSTORE PUSH1 0x4 ADD PUSH2 0x12AC SWAP2 SWAP1 PUSH2 0x4D92 JUMP JUMPDEST PUSH1 0x40 MLOAD DUP1 SWAP2 SUB SWAP1 REVERT JUMPDEST DUP1 SWAP2 POP POP SWAP2 SWAP1 POP JUMP JUMPDEST PUSH0 PUSH2 0x12C9 DUP4 DUP4 PUSH2 0x2796 JUMP JUMPDEST SWAP1 POP SWAP3 SWAP2 POP POP JUMP JUMPDEST PUSH1 0xC PUSH1 0x20 MSTORE DUP1 PUSH0 MSTORE PUSH1 0x40 PUSH0 KECCAK256 PUSH0 SWAP2 POP SWAP1 POP SLOAD DUP2 JUMP JUMPDEST PUSH0 PUSH1 0xC PUSH0 DUP4 PUSH20 0xFFFFFFFFFFFFFFFFFFFFFFFFFFFFFFFFFFFFFFFF AND PUSH20 0xFFFFFFFFFFFFFFFFFFFFFFFFFFFFFFFFFFFFFFFF AND DUP2 MSTORE PUSH1 0x20 ADD SWAP1 DUP2 MSTORE PUSH1 0x20 ADD PUSH0 KECCAK256 SLOAD SWAP1 POP SWAP2 SWAP1 POP JUMP JUMPDEST PUSH1 0x60 PUSH1 0xD PUSH0 DUP4 PUSH20 0xFFFFFFFFFFFFFFFFFFFFFFFFFFFFFFFFFFFFFFFF AND PUSH20 0xFFFFFFFFFFFFFFFFFFFFFFFFFFFFFFFFFFFFFFFF AND DUP2 MSTORE PUSH1 0x20 ADD SWAP1 DUP2 MSTORE PUSH1 0x20 ADD PUSH0 KECCAK256 DUP1 SLOAD DUP1 PUSH1 0x20 MUL PUSH1 0x20 ADD PUSH1 0x40 MLOAD SWAP1 DUP2 ADD PUSH1 0x40 MSTORE DUP1 SWAP3 SWAP2 SWAP1 DUP2 DUP2 MSTORE PUSH1 0x20 ADD DUP3 DUP1 SLOAD DUP1 ISZERO PUSH2 0x13B3 JUMPI PUSH1 0x20 MUL DUP3 ADD SWAP2 SWAP1 PUSH0 MSTORE PUSH1 0x20 PUSH0 KECCAK256 SWAP1 JUMPDEST DUP2 SLOAD DUP2 MSTORE PUSH1 0x20 ADD SWAP1 PUSH1 0x1 ADD SWAP1 DUP1 DUP4 GT PUSH2 0x139F JUMPI JUMPDEST POP POP POP POP POP SWAP1 POP SWAP2 SWAP1 POP JUMP JUMPDEST PUSH1 0x60 PUSH2 0x13CA DUP3 PUSH2 0x2800 JUMP JUMPDEST PUSH2 0x13E3 PUSH1 0x5 PUSH0 DUP5 DUP2 MSTORE PUSH1 0x20 ADD SWAP1 DUP2 MSTORE PUSH1 0x20 ADD PUSH0 KECCAK256 PUSH2 0x284D JUMP JUMPDEST SWAP1 POP SWAP2 SWAP1 POP JUMP JUMPDEST PUSH1 0x60 PUSH1 0xB PUSH0 DUP4 PUSH20 0xFFFFFFFFFFFFFFFFFFFFFFFFFFFFFFFFFFFFFFFF AND PUSH20 0xFFFFFFFFFFFFFFFFFFFFFFFFFFFFFFFFFFFFFFFF AND DUP2 MSTORE PUSH1 0x20 ADD SWAP1 DUP2 MSTORE PUSH1 0x20 ADD PUSH0 KECCAK256 DUP1 SLOAD PUSH2 0x1434 SWAP1 PUSH2 0x5184 JUMP JUMPDEST DUP1 PUSH1 0x1F ADD PUSH1 0x20 DUP1 SWAP2 DIV MUL PUSH1 0x20 ADD PUSH1 0x40 MLOAD SWAP1 DUP2 ADD PUSH1 0x40 MSTORE DUP1 SWAP3 SWAP2 SWAP1 DUP2 DUP2 MSTORE PUSH1 0x20 ADD DUP3 DUP1 SLOAD PUSH2 0x1460 SWAP1 PUSH2 0x5184 JUMP JUMPDEST DUP1 ISZERO PUSH2 0x14AB JUMPI DUP1 PUSH1 0x1F LT PUSH2 0x1482 JUMPI PUSH2 0x100 DUP1 DUP4 SLOAD DIV MUL DUP4 MSTORE SWAP2 PUSH1 0x20 ADD SWAP2 PUSH2 0x14AB JUMP JUMPDEST DUP3 ADD SWAP2 SWAP1 PUSH0 MSTORE PUSH1 0x20 PUSH0 KECCAK256 SWAP1 JUMPDEST DUP2 SLOAD DUP2 MSTORE SWAP1 PUSH1 0x1 ADD SWAP1 PUSH1 0x20 ADD DUP1 DUP4 GT PUSH2 0x148E JUMPI DUP3 SWAP1 SUB PUSH1 0x1F AND DUP3 ADD SWAP2 JUMPDEST POP POP POP POP POP SWAP1 POP SWAP2 SWAP1 POP JUMP JUMPDEST PUSH2 0x14C1 CALLER DUP5 PUSH2 0x2796 JUMP JUMPDEST PUSH2 0x1504 JUMPI DUP3 CALLER PUSH1 0x40 MLOAD PUSH32 0x1294D2A900000000000000000000000000000000000000000000000000000000 DUP2 MSTORE PUSH1 0x4 ADD PUSH2 0x14FB SWAP3 SWAP2 SWAP1 PUSH2 0x51E1 JUMP JUMPDEST PUSH1 0x40 MLOAD DUP1 SWAP2 SUB SWAP1 REVERT JUMPDEST PUSH2 0x1511 DUP6 DUP6 DUP6 DUP6 DUP6 PUSH2 0x286C JUMP JUMPDEST POP POP POP POP POP JUMP JUMPDEST PUSH1 0xA PUSH1 0x20 MSTORE DUP2 PUSH0 MSTORE PUSH1 0x40 PUSH0 KECCAK256 PUSH1 0x20 MSTORE DUP1 PUSH0 MSTORE PUSH1 0x40 PUSH0 KECCAK256 PUSH0 SWAP2 POP SWAP2 POP SWAP1 SLOAD SWAP1 PUSH2 0x100 EXP SWAP1 DIV PUSH1 0xFF AND DUP2 JUMP JUMPDEST PUSH1 0x60 PUSH2 0x154D DUP3 PUSH2 0x2B96 JUMP JUMPDEST SWAP1 POP SWAP2 SWAP1 POP JUMP JUMPDEST PUSH1 0x9 PUSH1 0x20 MSTORE DUP2 PUSH0 MSTORE PUSH1 0x40 PUSH0 KECCAK256 DUP2 DUP2 SLOAD DUP2 LT PUSH2 0x156D JUMPI PUSH0 DUP1 REVERT JUMPDEST SWAP1 PUSH0 MSTORE PUSH1 0x20 PUSH0 KECCAK256 ADD PUSH0 SWAP2 POP SWAP2 POP SWAP1 SLOAD SWAP1 PUSH2 0x100 EXP SWAP1 DIV PUSH20 0xFFFFFFFFFFFFFFFFFFFFFFFFFFFFFFFFFFFFFFFF AND DUP2 JUMP JUMPDEST PUSH1 0x60 DUP3 DUP3 SWAP1 POP PUSH8 0xFFFFFFFFFFFFFFFF DUP2 GT ISZERO PUSH2 0x15BB JUMPI PUSH2 0x15BA PUSH2 0x3B51 JUMP JUMPDEST JUMPDEST PUSH1 0x40 MLOAD SWAP1 DUP1 DUP3 MSTORE DUP1 PUSH1 0x20 MUL PUSH1 0x20 ADD DUP3 ADD PUSH1 0x40 MSTORE DUP1 ISZERO PUSH2 0x15EE JUMPI DUP2 PUSH1 0x20 ADD JUMPDEST PUSH1 0x60 DUP2 MSTORE PUSH1 0x20 ADD SWAP1 PUSH1 0x1 SWAP1 SUB SWAP1 DUP2 PUSH2 0x15D9 JUMPI SWAP1 POP JUMPDEST POP SWAP1 POP PUSH0 JUMPDEST DUP4 DUP4 SWAP1 POP DUP2 LT ISZERO PUSH2 0x170B JUMPI PUSH0 DUP1 ADDRESS PUSH20 0xFFFFFFFFFFFFFFFFFFFFFFFFFFFFFFFFFFFFFFFF AND DUP7 DUP7 DUP6 DUP2 DUP2 LT PUSH2 0x162A JUMPI PUSH2 0x1629 PUSH2 0x51B4 JUMP JUMPDEST JUMPDEST SWAP1 POP PUSH1 0x20 MUL DUP2 ADD SWAP1 PUSH2 0x163C SWAP2 SWAP1 PUSH2 0x5214 JUMP JUMPDEST PUSH1 0x40 MLOAD PUSH2 0x164A SWAP3 SWAP2 SWAP1 PUSH2 0x5276 JUMP JUMPDEST PUSH0 PUSH1 0x40 MLOAD DUP1 DUP4 SUB DUP2 DUP6 GAS DELEGATECALL SWAP2 POP POP RETURNDATASIZE DUP1 PUSH0 DUP2 EQ PUSH2 0x1682 JUMPI PUSH1 0x40 MLOAD SWAP2 POP PUSH1 0x1F NOT PUSH1 0x3F RETURNDATASIZE ADD AND DUP3 ADD PUSH1 0x40 MSTORE RETURNDATASIZE DUP3 MSTORE RETURNDATASIZE PUSH0 PUSH1 0x20 DUP5 ADD RETURNDATACOPY PUSH2 0x1687 JUMP JUMPDEST PUSH1 0x60 SWAP2 POP JUMPDEST POP SWAP2 POP SWAP2 POP DUP2 PUSH2 0x16DF JUMPI PUSH0 DUP2 MLOAD EQ PUSH2 0x16A2 JUMPI DUP1 MLOAD DUP1 DUP3 PUSH1 0x20 ADD REVERT JUMPDEST DUP3 PUSH1 0x40 MLOAD PUSH32 0x234EB81900000000000000000000000000000000000000000000000000000000 DUP2 MSTORE PUSH1 0x4 ADD PUSH2 0x16D6 SWAP2 SWAP1 PUSH2 0x3B30 JUMP JUMPDEST PUSH1 0x40 MLOAD DUP1 SWAP2 SUB SWAP1 REVERT JUMPDEST DUP1 DUP5 DUP5 DUP2 MLOAD DUP2 LT PUSH2 0x16F3 JUMPI PUSH2 0x16F2 PUSH2 0x51B4 JUMP JUMPDEST JUMPDEST PUSH1 0x20 MUL PUSH1 0x20 ADD ADD DUP2 SWAP1 MSTORE POP DUP3 PUSH1 0x1 ADD SWAP3 POP POP POP PUSH2 0x15F3 JUMP JUMPDEST POP SWAP3 SWAP2 POP POP JUMP JUMPDEST PUSH0 PUSH2 0x1758 PUSH1 0x4 PUSH0 DUP5 PUSH20 0xFFFFFFFFFFFFFFFFFFFFFFFFFFFFFFFFFFFFFFFF AND PUSH20 0xFFFFFFFFFFFFFFFFFFFFFFFFFFFFFFFFFFFFFFFF AND DUP2 MSTORE PUSH1 0x20 ADD SWAP1 DUP2 MSTORE PUSH1 0x20 ADD PUSH0 KECCAK256 PUSH2 0x2C37 JUMP JUMPDEST SWAP1 POP SWAP2 SWAP1 POP JUMP JUMPDEST PUSH2 0x1767 PUSH2 0x2C4A JUMP JUMPDEST PUSH2 0x1770 PUSH0 PUSH2 0x2CC3 JUMP JUMPDEST JUMP JUMPDEST PUSH1 0xA PUSH0 DUP3 DUP2 MSTORE PUSH1 0x20 ADD SWAP1 DUP2 MSTORE PUSH1 0x20 ADD PUSH0 KECCAK256 PUSH0 CALLER PUSH20 0xFFFFFFFFFFFFFFFFFFFFFFFFFFFFFFFFFFFFFFFF AND PUSH20 0xFFFFFFFFFFFFFFFFFFFFFFFFFFFFFFFFFFFFFFFF AND DUP2 MSTORE PUSH1 0x20 ADD SWAP1 DUP2 MSTORE PUSH1 0x20 ADD PUSH0 KECCAK256 PUSH0 SWAP1 SLOAD SWAP1 PUSH2 0x100 EXP SWAP1 DIV PUSH1 0xFF AND ISZERO PUSH2 0x180B JUMPI PUSH1 0x40 MLOAD PUSH32 0x8C379A000000000000000000000000000000000000000000000000000000000 DUP2 MSTORE PUSH1 0x4 ADD PUSH2 0x1802 SWAP1 PUSH2 0x52E8 JUMP JUMPDEST PUSH1 0x40 MLOAD DUP1 SWAP2 SUB SWAP1 REVERT JUMPDEST PUSH1 0x9 PUSH0 DUP3 DUP2 MSTORE PUSH1 0x20 ADD SWAP1 DUP2 MSTORE PUSH1 0x20 ADD PUSH0 KECCAK256 CALLER SWAP1 DUP1 PUSH1 0x1 DUP2 SLOAD ADD DUP1 DUP3 SSTORE DUP1 SWAP2 POP POP PUSH1 0x1 SWAP1 SUB SWAP1 PUSH0 MSTORE PUSH1 0x20 PUSH0 KECCAK256 ADD PUSH0 SWAP1 SWAP2 SWAP1 SWAP2 SWAP1 SWAP2 PUSH2 0x100 EXP DUP2 SLOAD DUP2 PUSH20 0xFFFFFFFFFFFFFFFFFFFFFFFFFFFFFFFFFFFFFFFF MUL NOT AND SWAP1 DUP4 PUSH20 0xFFFFFFFFFFFFFFFFFFFFFFFFFFFFFFFFFFFFFFFF AND MUL OR SWAP1 SSTORE POP PUSH1 0x1 PUSH1 0xA PUSH0 DUP4 DUP2 MSTORE PUSH1 0x20 ADD SWAP1 DUP2 MSTORE PUSH1 0x20 ADD PUSH0 KECCAK256 PUSH0 CALLER PUSH20 0xFFFFFFFFFFFFFFFFFFFFFFFFFFFFFFFFFFFFFFFF AND PUSH20 0xFFFFFFFFFFFFFFFFFFFFFFFFFFFFFFFFFFFFFFFF AND DUP2 MSTORE PUSH1 0x20 ADD SWAP1 DUP2 MSTORE PUSH1 0x20 ADD PUSH0 KECCAK256 PUSH0 PUSH2 0x100 EXP DUP2 SLOAD DUP2 PUSH1 0xFF MUL NOT AND SWAP1 DUP4 ISZERO ISZERO MUL OR SWAP1 SSTORE POP DUP1 CALLER PUSH20 0xFFFFFFFFFFFFFFFFFFFFFFFFFFFFFFFFFFFFFFFF AND PUSH32 0xCC9AD2F72AC43FCCC2FBE8B5861DAFDD6C56E8902F0C792FFEB4DCAFFC4EA417 PUSH1 0x40 MLOAD PUSH1 0x40 MLOAD DUP1 SWAP2 SUB SWAP1 LOG3 POP JUMP JUMPDEST PUSH0 DUP6 MLOAD SWAP1 POP DUP5 MLOAD DUP2 EQ ISZERO DUP1 PUSH2 0x193B JUMPI POP DUP4 MLOAD DUP2 EQ ISZERO JUMPDEST DUP1 PUSH2 0x1947 JUMPI POP DUP3 MLOAD DUP2 EQ ISZERO JUMPDEST DUP1 PUSH2 0x1953 JUMPI POP DUP2 MLOAD DUP2 EQ ISZERO JUMPDEST ISZERO PUSH2 0x198A JUMPI PUSH1 0x40 MLOAD PUSH32 0x93A8311900000000000000000000000000000000000000000000000000000000 DUP2 MSTORE PUSH1 0x4 ADD PUSH1 0x40 MLOAD DUP1 SWAP2 SUB SWAP1 REVERT JUMPDEST PUSH0 JUMPDEST DUP2 DUP2 LT ISZERO PUSH2 0x1A2E JUMPI PUSH2 0x1A23 DUP8 DUP3 DUP2 MLOAD DUP2 LT PUSH2 0x19AA JUMPI PUSH2 0x19A9 PUSH2 0x51B4 JUMP JUMPDEST JUMPDEST PUSH1 0x20 MUL PUSH1 0x20 ADD ADD MLOAD DUP8 DUP4 DUP2 MLOAD DUP2 LT PUSH2 0x19C5 JUMPI PUSH2 0x19C4 PUSH2 0x51B4 JUMP JUMPDEST JUMPDEST PUSH1 0x20 MUL PUSH1 0x20 ADD ADD MLOAD DUP8 DUP5 DUP2 MLOAD DUP2 LT PUSH2 0x19E0 JUMPI PUSH2 0x19DF PUSH2 0x51B4 JUMP JUMPDEST JUMPDEST PUSH1 0x20 MUL PUSH1 0x20 ADD ADD MLOAD DUP8 DUP6 DUP2 MLOAD DUP2 LT PUSH2 0x19FB JUMPI PUSH2 0x19FA PUSH2 0x51B4 JUMP JUMPDEST JUMPDEST PUSH1 0x20 MUL PUSH1 0x20 ADD ADD MLOAD DUP8 DUP7 DUP2 MLOAD DUP2 LT PUSH2 0x1A16 JUMPI PUSH2 0x1A15 PUSH2 0x51B4 JUMP JUMPDEST JUMPDEST PUSH1 0x20 MUL PUSH1 0x20 ADD ADD MLOAD PUSH2 0x14B7 JUMP JUMPDEST DUP1 PUSH1 0x1 ADD SWAP1 POP PUSH2 0x198C JUMP JUMPDEST POP POP POP POP POP POP POP JUMP JUMPDEST PUSH2 0x1A3F PUSH2 0x2C4A JUMP JUMPDEST PUSH0 CALLVALUE EQ PUSH2 0x1A78 JUMPI PUSH1 0x40 MLOAD PUSH32 0xF36BA73700000000000000000000000000000000000000000000000000000000 DUP2 MSTORE PUSH1 0x4 ADD PUSH1 0x40 MLOAD DUP1 SWAP2 SUB SWAP1 REVERT JUMPDEST PUSH2 0x1A82 DUP3 DUP3 PUSH2 0x2DB9 JUMP JUMPDEST POP POP JUMP JUMPDEST PUSH0 PUSH2 0x1A90 DUP4 PUSH2 0x1210 JUMP JUMPDEST SWAP1 POP CALLER PUSH20 0xFFFFFFFFFFFFFFFFFFFFFFFFFFFFFFFFFFFFFFFF AND DUP2 PUSH20 0xFFFFFFFFFFFFFFFFFFFFFFFFFFFFFFFFFFFFFFFF AND EQ PUSH2 0x1B06 JUMPI DUP1 DUP4 CALLER PUSH1 0x40 MLOAD PUSH32 0x5B271EA200000000000000000000000000000000000000000000000000000000 DUP2 MSTORE PUSH1 0x4 ADD PUSH2 0x1AFD SWAP4 SWAP3 SWAP2 SWAP1 PUSH2 0x5306 JUMP JUMPDEST PUSH1 0x40 MLOAD DUP1 SWAP2 SUB SWAP1 REVERT JUMPDEST PUSH0 PUSH20 0xFFFFFFFFFFFFFFFFFFFFFFFFFFFFFFFFFFFFFFFF AND DUP5 PUSH20 0xFFFFFFFFFFFFFFFFFFFFFFFFFFFFFFFFFFFFFFFF AND SUB PUSH2 0x1B6B JUMPI PUSH1 0x40 MLOAD PUSH32 0x9577B8B300000000000000000000000000000000000000000000000000000000 DUP2 MSTORE PUSH1 0x4 ADD PUSH1 0x40 MLOAD DUP1 SWAP2 SUB SWAP1 REVERT JUMPDEST DUP4 PUSH20 0xFFFFFFFFFFFFFFFFFFFFFFFFFFFFFFFFFFFFFFFF AND DUP2 PUSH20 0xFFFFFFFFFFFFFFFFFFFFFFFFFFFFFFFFFFFFFFFF AND SUB PUSH2 0x1BD0 JUMPI PUSH1 0x40 MLOAD PUSH32 0x89FDAD6200000000000000000000000000000000000000000000000000000000 DUP2 MSTORE PUSH1 0x4 ADD PUSH1 0x40 MLOAD DUP1 SWAP2 SUB SWAP1 REVERT JUMPDEST PUSH0 PUSH2 0x1BF4 DUP6 PUSH1 0x5 PUSH0 DUP8 DUP2 MSTORE PUSH1 0x20 ADD SWAP1 DUP2 MSTORE PUSH1 0x20 ADD PUSH0 KECCAK256 PUSH2 0x2E22 SWAP1 SWAP2 SWAP1 PUSH4 0xFFFFFFFF AND JUMP JUMPDEST SWAP1 POP DUP1 PUSH2 0x1C3A JUMPI DUP5 DUP5 PUSH1 0x40 MLOAD PUSH32 0xA7626B6800000000000000000000000000000000000000000000000000000000 DUP2 MSTORE PUSH1 0x4 ADD PUSH2 0x1C31 SWAP3 SWAP2 SWAP1 PUSH2 0x533B JUMP JUMPDEST PUSH1 0x40 MLOAD DUP1 SWAP2 SUB SWAP1 REVERT JUMPDEST DUP4 DUP3 PUSH20 0xFFFFFFFFFFFFFFFFFFFFFFFFFFFFFFFFFFFFFFFF AND DUP7 PUSH20 0xFFFFFFFFFFFFFFFFFFFFFFFFFFFFFFFFFFFFFFFF AND PUSH32 0x1B1B58AA2EC0CEC2228B2D37124556D41F5A1F7B12F089171F896CC236671215 DUP7 PUSH1 0x40 MLOAD PUSH2 0x1C98 SWAP2 SWAP1 PUSH2 0x3FBF JUMP JUMPDEST PUSH1 0x40 MLOAD DUP1 SWAP2 SUB SWAP1 LOG4 PUSH0 CALLER DUP6 PUSH1 0x1 DUP7 PUSH1 0x40 MLOAD PUSH1 0x20 ADD PUSH2 0x1CB9 SWAP5 SWAP4 SWAP3 SWAP2 SWAP1 PUSH2 0x5362 JUMP JUMPDEST PUSH1 0x40 MLOAD PUSH1 0x20 DUP2 DUP4 SUB SUB DUP2 MSTORE SWAP1 PUSH1 0x40 MSTORE SWAP1 POP PUSH2 0x1CD4 DUP7 DUP3 PUSH2 0x2E4F JUMP JUMPDEST POP POP POP POP POP POP JUMP JUMPDEST PUSH0 DUP1 PUSH0 SWAP1 SLOAD SWAP1 PUSH2 0x100 EXP SWAP1 DIV PUSH20 0xFFFFFFFFFFFFFFFFFFFFFFFFFFFFFFFFFFFFFFFF AND SWAP1 POP SWAP1 JUMP JUMPDEST DUP1 PUSH1 0xB PUSH0 DUP5 PUSH20 0xFFFFFFFFFFFFFFFFFFFFFFFFFFFFFFFFFFFFFFFF AND PUSH20 0xFFFFFFFFFFFFFFFFFFFFFFFFFFFFFFFFFFFFFFFF AND DUP2 MSTORE PUSH1 0x20 ADD SWAP1 DUP2 MSTORE PUSH1 0x20 ADD PUSH0 KECCAK256 SWAP1 DUP2 PUSH2 0x1D4D SWAP2 SWAP1 PUSH2 0x5540 JUMP JUMPDEST POP POP POP JUMP JUMPDEST PUSH2 0x1D5A PUSH2 0x2C4A JUMP JUMPDEST PUSH0 CALLVALUE EQ PUSH2 0x1D93 JUMPI PUSH1 0x40 MLOAD PUSH32 0xF36BA73700000000000000000000000000000000000000000000000000000000 DUP2 MSTORE PUSH1 0x4 ADD PUSH1 0x40 MLOAD DUP1 SWAP2 SUB SWAP1 REVERT JUMPDEST DUP1 MLOAD DUP3 MLOAD EQ PUSH2 0x1DCE JUMPI PUSH1 0x40 MLOAD PUSH32 0x3BCC897900000000000000000000000000000000000000000000000000000000 DUP2 MSTORE PUSH1 0x4 ADD PUSH1 0x40 MLOAD DUP1 SWAP2 SUB SWAP1 REVERT JUMPDEST PUSH0 DUP3 MLOAD SUB PUSH2 0x1E08 JUMPI PUSH1 0x40 MLOAD PUSH32 0x97DA5F9500000000000000000000000000000000000000000000000000000000 DUP2 MSTORE PUSH1 0x4 ADD PUSH1 0x40 MLOAD DUP1 SWAP2 SUB SWAP1 REVERT JUMPDEST PUSH0 JUMPDEST DUP3 MLOAD DUP2 LT ISZERO PUSH2 0x1E5C JUMPI PUSH2 0x1E51 DUP4 DUP3 DUP2 MLOAD DUP2 LT PUSH2 0x1E29 JUMPI PUSH2 0x1E28 PUSH2 0x51B4 JUMP JUMPDEST JUMPDEST PUSH1 0x20 MUL PUSH1 0x20 ADD ADD MLOAD DUP4 DUP4 DUP2 MLOAD DUP2 LT PUSH2 0x1E44 JUMPI PUSH2 0x1E43 PUSH2 0x51B4 JUMP JUMPDEST JUMPDEST PUSH1 0x20 MUL PUSH1 0x20 ADD ADD MLOAD PUSH2 0x2DB9 JUMP JUMPDEST DUP1 PUSH1 0x1 ADD SWAP1 POP PUSH2 0x1E0A JUMP JUMPDEST POP POP POP JUMP JUMPDEST PUSH1 0x60 PUSH2 0x1EA8 PUSH1 0x4 PUSH0 DUP5 PUSH20 0xFFFFFFFFFFFFFFFFFFFFFFFFFFFFFFFFFFFFFFFF AND PUSH20 0xFFFFFFFFFFFFFFFFFFFFFFFFFFFFFFFFFFFFFFFF AND DUP2 MSTORE PUSH1 0x20 ADD SWAP1 DUP2 MSTORE PUSH1 0x20 ADD PUSH0 KECCAK256 PUSH2 0x2E80 JUMP JUMPDEST SWAP1 POP SWAP2 SWAP1 POP JUMP JUMPDEST PUSH2 0x1EB7 PUSH2 0x2C4A JUMP JUMPDEST DUP2 MLOAD DUP4 MLOAD EQ ISZERO DUP1 PUSH2 0x1ECA JUMPI POP DUP1 MLOAD DUP3 MLOAD EQ ISZERO JUMPDEST ISZERO PUSH2 0x1F01 JUMPI PUSH1 0x40 MLOAD PUSH32 0x2FA71DFE00000000000000000000000000000000000000000000000000000000 DUP2 MSTORE PUSH1 0x4 ADD PUSH1 0x40 MLOAD DUP1 SWAP2 SUB SWAP1 REVERT JUMPDEST PUSH0 DUP4 MLOAD SUB PUSH2 0x1F3B JUMPI PUSH1 0x40 MLOAD PUSH32 0x80C9830500000000000000000000000000000000000000000000000000000000 DUP2 MSTORE PUSH1 0x4 ADD PUSH1 0x40 MLOAD DUP1 SWAP2 SUB SWAP1 REVERT JUMPDEST PUSH0 JUMPDEST DUP4 MLOAD DUP2 LT ISZERO PUSH2 0x1FAA JUMPI PUSH2 0x1F9F DUP5 DUP3 DUP2 MLOAD DUP2 LT PUSH2 0x1F5C JUMPI PUSH2 0x1F5B PUSH2 0x51B4 JUMP JUMPDEST JUMPDEST PUSH1 0x20 MUL PUSH1 0x20 ADD ADD MLOAD DUP5 DUP4 DUP2 MLOAD DUP2 LT PUSH2 0x1F77 JUMPI PUSH2 0x1F76 PUSH2 0x51B4 JUMP JUMPDEST JUMPDEST PUSH1 0x20 MUL PUSH1 0x20 ADD ADD MLOAD DUP5 DUP5 DUP2 MLOAD DUP2 LT PUSH2 0x1F92 JUMPI PUSH2 0x1F91 PUSH2 0x51B4 JUMP JUMPDEST JUMPDEST PUSH1 0x20 MUL PUSH1 0x20 ADD ADD MLOAD PUSH2 0x2E9F JUMP JUMPDEST DUP1 PUSH1 0x1 ADD SWAP1 POP PUSH2 0x1F3D JUMP JUMPDEST POP POP POP POP JUMP JUMPDEST PUSH1 0x60 PUSH1 0x9 PUSH0 DUP4 DUP2 MSTORE PUSH1 0x20 ADD SWAP1 DUP2 MSTORE PUSH1 0x20 ADD PUSH0 KECCAK256 DUP1 SLOAD DUP1 PUSH1 0x20 MUL PUSH1 0x20 ADD PUSH1 0x40 MLOAD SWAP1 DUP2 ADD PUSH1 0x40 MSTORE DUP1 SWAP3 SWAP2 SWAP1 DUP2 DUP2 MSTORE PUSH1 0x20 ADD DUP3 DUP1 SLOAD DUP1 ISZERO PUSH2 0x2040 JUMPI PUSH1 0x20 MUL DUP3 ADD SWAP2 SWAP1 PUSH0 MSTORE PUSH1 0x20 PUSH0 KECCAK256 SWAP1 JUMPDEST DUP2 PUSH0 SWAP1 SLOAD SWAP1 PUSH2 0x100 EXP SWAP1 DIV PUSH20 0xFFFFFFFFFFFFFFFFFFFFFFFFFFFFFFFFFFFFFFFF AND PUSH20 0xFFFFFFFFFFFFFFFFFFFFFFFFFFFFFFFFFFFFFFFF AND DUP2 MSTORE PUSH1 0x20 ADD SWAP1 PUSH1 0x1 ADD SWAP1 DUP1 DUP4 GT PUSH2 0x1FF7 JUMPI JUMPDEST POP POP POP POP POP SWAP1 POP SWAP2 SWAP1 POP JUMP JUMPDEST PUSH2 0x2054 PUSH2 0x2C4A JUMP JUMPDEST PUSH2 0x205F DUP4 DUP4 DUP4 PUSH2 0x2E9F JUMP JUMPDEST POP POP POP JUMP JUMPDEST PUSH0 PUSH2 0x206E DUP5 PUSH2 0x1210 JUMP JUMPDEST SWAP1 POP DUP1 PUSH20 0xFFFFFFFFFFFFFFFFFFFFFFFFFFFFFFFFFFFFFFFF AND CALLER PUSH20 0xFFFFFFFFFFFFFFFFFFFFFFFFFFFFFFFFFFFFFFFF AND EQ PUSH2 0x2118 JUMPI CALLER PUSH20 0xFFFFFFFFFFFFFFFFFFFFFFFFFFFFFFFFFFFFFFFF AND DUP6 PUSH20 0xFFFFFFFFFFFFFFFFFFFFFFFFFFFFFFFFFFFFFFFF AND EQ PUSH2 0x2117 JUMPI CALLER DUP2 DUP6 PUSH1 0x40 MLOAD PUSH32 0x760B5ACD00000000000000000000000000000000000000000000000000000000 DUP2 MSTORE PUSH1 0x4 ADD PUSH2 0x210E SWAP4 SWAP3 SWAP2 SWAP1 PUSH2 0x560F JUMP JUMPDEST PUSH1 0x40 MLOAD DUP1 SWAP2 SUB SWAP1 REVERT JUMPDEST JUMPDEST PUSH0 PUSH20 0xFFFFFFFFFFFFFFFFFFFFFFFFFFFFFFFFFFFFFFFF AND DUP6 PUSH20 0xFFFFFFFFFFFFFFFFFFFFFFFFFFFFFFFFFFFFFFFF AND SUB PUSH2 0x217D JUMPI PUSH1 0x40 MLOAD PUSH32 0x9577B8B300000000000000000000000000000000000000000000000000000000 DUP2 MSTORE PUSH1 0x4 ADD PUSH1 0x40 MLOAD DUP1 SWAP2 SUB SWAP1 REVERT JUMPDEST DUP5 PUSH20 0xFFFFFFFFFFFFFFFFFFFFFFFFFFFFFFFFFFFFFFFF AND DUP2 PUSH20 0xFFFFFFFFFFFFFFFFFFFFFFFFFFFFFFFFFFFFFFFF AND SUB PUSH2 0x21E2 JUMPI PUSH1 0x40 MLOAD PUSH32 0x89FDAD6200000000000000000000000000000000000000000000000000000000 DUP2 MSTORE PUSH1 0x4 ADD PUSH1 0x40 MLOAD DUP1 SWAP2 SUB SWAP1 REVERT JUMPDEST PUSH2 0x21EF DUP6 DUP3 DUP7 DUP7 DUP7 PUSH2 0x2EE8 JUMP JUMPDEST DUP3 ISZERO PUSH2 0x222A JUMPI PUSH0 DUP2 DUP6 PUSH0 DUP6 PUSH1 0x40 MLOAD PUSH1 0x20 ADD PUSH2 0x220D SWAP5 SWAP4 SWAP3 SWAP2 SWAP1 PUSH2 0x5362 JUMP JUMPDEST PUSH1 0x40 MLOAD PUSH1 0x20 DUP2 DUP4 SUB SUB DUP2 MSTORE SWAP1 PUSH1 0x40 MSTORE SWAP1 POP PUSH2 0x2228 DUP7 DUP3 PUSH2 0x2E4F JUMP JUMPDEST POP JUMPDEST POP POP POP POP POP JUMP JUMPDEST PUSH1 0x60 DUP2 MLOAD PUSH8 0xFFFFFFFFFFFFFFFF DUP2 GT ISZERO PUSH2 0x224E JUMPI PUSH2 0x224D PUSH2 0x3B51 JUMP JUMPDEST JUMPDEST PUSH1 0x40 MLOAD SWAP1 DUP1 DUP3 MSTORE DUP1 PUSH1 0x20 MUL PUSH1 0x20 ADD DUP3 ADD PUSH1 0x40 MSTORE DUP1 ISZERO PUSH2 0x2281 JUMPI DUP2 PUSH1 0x20 ADD JUMPDEST PUSH1 0x60 DUP2 MSTORE PUSH1 0x20 ADD SWAP1 PUSH1 0x1 SWAP1 SUB SWAP1 DUP2 PUSH2 0x226C JUMPI SWAP1 POP JUMPDEST POP SWAP1 POP PUSH0 JUMPDEST DUP3 MLOAD DUP2 LT ISZERO PUSH2 0x22DB JUMPI PUSH2 0x22B2 DUP4 DUP3 DUP2 MLOAD DUP2 LT PUSH2 0x22A5 JUMPI PUSH2 0x22A4 PUSH2 0x51B4 JUMP JUMPDEST JUMPDEST PUSH1 0x20 MUL PUSH1 0x20 ADD ADD MLOAD PUSH2 0x2B96 JUMP JUMPDEST DUP3 DUP3 DUP2 MLOAD DUP2 LT PUSH2 0x22C5 JUMPI PUSH2 0x22C4 PUSH2 0x51B4 JUMP JUMPDEST JUMPDEST PUSH1 0x20 MUL PUSH1 0x20 ADD ADD DUP2 SWAP1 MSTORE POP DUP1 PUSH1 0x1 ADD SWAP1 POP PUSH2 0x2286 JUMP JUMPDEST POP SWAP2 SWAP1 POP JUMP JUMPDEST PUSH1 0x8 PUSH1 0x20 MSTORE DUP1 PUSH0 MSTORE PUSH1 0x40 PUSH0 KECCAK256 PUSH0 SWAP2 POP SWAP1 POP SLOAD DUP2 JUMP JUMPDEST PUSH2 0x22FE PUSH2 0x2C4A JUMP JUMPDEST PUSH0 PUSH20 0xFFFFFFFFFFFFFFFFFFFFFFFFFFFFFFFFFFFFFFFF AND DUP2 PUSH20 0xFFFFFFFFFFFFFFFFFFFFFFFFFFFFFFFFFFFFFFFF AND SUB PUSH2 0x2363 JUMPI PUSH1 0x40 MLOAD PUSH32 0x1AD8836C00000000000000000000000000000000000000000000000000000000 DUP2 MSTORE PUSH1 0x4 ADD PUSH1 0x40 MLOAD DUP1 SWAP2 SUB SWAP1 REVERT JUMPDEST PUSH2 0x236C DUP2 PUSH2 0x2CC3 JUMP JUMPDEST POP JUMP JUMPDEST PUSH1 0xD PUSH1 0x20 MSTORE DUP2 PUSH0 MSTORE PUSH1 0x40 PUSH0 KECCAK256 DUP2 DUP2 SLOAD DUP2 LT PUSH2 0x2388 JUMPI PUSH0 DUP1 REVERT JUMPDEST SWAP1 PUSH0 MSTORE PUSH1 0x20 PUSH0 KECCAK256 ADD PUSH0 SWAP2 POP SWAP2 POP POP SLOAD DUP2 JUMP JUMPDEST PUSH0 DUP1 PUSH0 PUSH2 0x23D3 PUSH10 0xCEE78B4094DA86011096 PUSH1 0xB0 SHL DUP6 PUSH28 0xFFFFFFFFFFFFFFFFFFFFFFFFFFFFFFFFFFFFFFFFFFFFFFFFFFFFFFFF NOT AND PUSH2 0x2FC2 JUMP JUMPDEST SWAP1 POP PUSH0 PUSH2 0x23DF DUP3 PUSH2 0x2B96 JUMP JUMPDEST SWAP1 POP PUSH1 0x14 DUP2 MLOAD EQ ISZERO DUP1 ISZERO PUSH2 0x23F4 JUMPI POP PUSH0 DUP2 MLOAD EQ ISZERO JUMPDEST ISZERO PUSH2 0x2436 JUMPI DUP1 PUSH1 0x40 MLOAD PUSH32 0x42BFE79F00000000000000000000000000000000000000000000000000000000 DUP2 MSTORE PUSH1 0x4 ADD PUSH2 0x242D SWAP2 SWAP1 PUSH2 0x3FBF JUMP JUMPDEST PUSH1 0x40 MLOAD DUP1 SWAP2 SUB SWAP1 REVERT JUMPDEST DUP1 PUSH2 0x2440 SWAP1 PUSH2 0x5692 JUMP JUMPDEST PUSH1 0x60 SHR PUSH1 0x1 SWAP4 POP SWAP4 POP POP POP SWAP2 POP SWAP2 JUMP JUMPDEST PUSH0 PUSH20 0xFFFFFFFFFFFFFFFFFFFFFFFFFFFFFFFFFFFFFFFF AND DUP5 PUSH20 0xFFFFFFFFFFFFFFFFFFFFFFFFFFFFFFFFFFFFFFFF AND SUB PUSH2 0x24B5 JUMPI PUSH1 0x40 MLOAD PUSH32 0x24ECEF4D00000000000000000000000000000000000000000000000000000000 DUP2 MSTORE PUSH1 0x4 ADD PUSH1 0x40 MLOAD DUP1 SWAP2 SUB SWAP1 REVERT JUMPDEST PUSH2 0x24BE DUP4 PUSH2 0x3000 JUMP JUMPDEST ISZERO PUSH2 0x2500 JUMPI DUP3 PUSH1 0x40 MLOAD PUSH32 0x34C7B51100000000000000000000000000000000000000000000000000000000 DUP2 MSTORE PUSH1 0x4 ADD PUSH2 0x24F7 SWAP2 SWAP1 PUSH2 0x4D92 JUMP JUMPDEST PUSH1 0x40 MLOAD DUP1 SWAP2 SUB SWAP1 REVERT JUMPDEST PUSH2 0x250C PUSH0 DUP6 DUP6 DUP5 PUSH2 0x3068 JUMP JUMPDEST PUSH2 0x2515 DUP4 PUSH2 0x3000 JUMP JUMPDEST ISZERO PUSH2 0x2557 JUMPI DUP3 PUSH1 0x40 MLOAD PUSH32 0x34C7B51100000000000000000000000000000000000000000000000000000000 DUP2 MSTORE PUSH1 0x4 ADD PUSH2 0x254E SWAP2 SWAP1 PUSH2 0x4D92 JUMP JUMPDEST PUSH1 0x40 MLOAD DUP1 SWAP2 SUB SWAP1 REVERT JUMPDEST PUSH1 0x2 PUSH0 DUP2 SLOAD PUSH2 0x2565 SWAP1 PUSH2 0x50DD JUMP JUMPDEST SWAP2 SWAP1 POP DUP2 SWAP1 SSTORE POP PUSH2 0x25BB DUP4 PUSH1 0x4 PUSH0 DUP8 PUSH20 0xFFFFFFFFFFFFFFFFFFFFFFFFFFFFFFFFFFFFFFFF AND PUSH20 0xFFFFFFFFFFFFFFFFFFFFFFFFFFFFFFFFFFFFFFFF AND DUP2 MSTORE PUSH1 0x20 ADD SWAP1 DUP2 MSTORE PUSH1 0x20 ADD PUSH0 KECCAK256 PUSH2 0x306E SWAP1 SWAP2 SWAP1 PUSH4 0xFFFFFFFF AND JUMP JUMPDEST POP DUP4 PUSH1 0x3 PUSH0 DUP6 DUP2 MSTORE PUSH1 0x20 ADD SWAP1 DUP2 MSTORE PUSH1 0x20 ADD PUSH0 KECCAK256 PUSH0 PUSH2 0x100 EXP DUP2 SLOAD DUP2 PUSH20 0xFFFFFFFFFFFFFFFFFFFFFFFFFFFFFFFFFFFFFFFF MUL NOT AND SWAP1 DUP4 PUSH20 0xFFFFFFFFFFFFFFFFFFFFFFFFFFFFFFFFFFFFFFFF AND MUL OR SWAP1 SSTORE POP DUP3 DUP5 PUSH20 0xFFFFFFFFFFFFFFFFFFFFFFFFFFFFFFFFFFFFFFFF AND PUSH0 PUSH20 0xFFFFFFFFFFFFFFFFFFFFFFFFFFFFFFFFFFFFFFFF AND PUSH32 0xB333C813A7426A7A11E2B190CAD52C44119421594B47F6F32ACE6D8C7207B2BF CALLER DUP7 DUP7 PUSH1 0x40 MLOAD PUSH2 0x266D SWAP4 SWAP3 SWAP2 SWAP1 PUSH2 0x56F8 JUMP JUMPDEST PUSH1 0x40 MLOAD DUP1 SWAP2 SUB SWAP1 LOG4 PUSH2 0x2681 PUSH0 DUP6 DUP6 DUP5 PUSH2 0x3083 JUMP JUMPDEST PUSH0 CALLER PUSH0 DUP7 DUP7 DUP6 PUSH1 0x40 MLOAD PUSH1 0x20 ADD PUSH2 0x269B SWAP6 SWAP5 SWAP4 SWAP3 SWAP2 SWAP1 PUSH2 0x5734 JUMP JUMPDEST PUSH1 0x40 MLOAD PUSH1 0x20 DUP2 DUP4 SUB SUB DUP2 MSTORE SWAP1 PUSH1 0x40 MSTORE SWAP1 POP PUSH2 0x26B7 DUP6 DUP5 DUP4 PUSH2 0x3089 JUMP JUMPDEST POP POP POP POP POP JUMP JUMPDEST PUSH0 PUSH4 0xA918FA6B PUSH1 0xE0 SHL PUSH28 0xFFFFFFFFFFFFFFFFFFFFFFFFFFFFFFFFFFFFFFFFFFFFFFFFFFFFFFFF NOT AND DUP3 PUSH28 0xFFFFFFFFFFFFFFFFFFFFFFFFFFFFFFFFFFFFFFFFFFFFFFFFFFFFFFFF NOT AND EQ DUP1 PUSH2 0x2717 JUMPI POP PUSH2 0x2716 DUP3 PUSH2 0x31E8 JUMP JUMPDEST JUMPDEST SWAP1 POP SWAP2 SWAP1 POP JUMP JUMPDEST PUSH0 DUP1 PUSH2 0x2730 PUSH4 0x1FFC9A7 PUSH1 0xE0 SHL PUSH2 0x239A JUMP JUMPDEST POP SWAP1 POP PUSH0 PUSH20 0xFFFFFFFFFFFFFFFFFFFFFFFFFFFFFFFFFFFFFFFF AND DUP2 PUSH20 0xFFFFFFFFFFFFFFFFFFFFFFFFFFFFFFFFFFFFFFFF AND SUB PUSH2 0x276F JUMPI PUSH0 SWAP2 POP POP PUSH2 0x277D JUMP JUMPDEST PUSH2 0x2779 DUP2 DUP5 PUSH2 0x3248 JUMP JUMPDEST SWAP2 POP POP JUMPDEST SWAP2 SWAP1 POP JUMP JUMPDEST PUSH1 0x60 PUSH2 0x278E DUP4 DUP4 PUSH2 0x32E1 JUMP JUMPDEST SWAP1 POP SWAP3 SWAP2 POP POP JUMP JUMPDEST PUSH0 PUSH2 0x27A0 DUP3 PUSH2 0x1210 JUMP JUMPDEST PUSH20 0xFFFFFFFFFFFFFFFFFFFFFFFFFFFFFFFFFFFFFFFF AND DUP4 PUSH20 0xFFFFFFFFFFFFFFFFFFFFFFFFFFFFFFFFFFFFFFFF AND EQ DUP1 PUSH2 0x27F8 JUMPI POP PUSH2 0x27F7 DUP4 PUSH1 0x5 PUSH0 DUP6 DUP2 MSTORE PUSH1 0x20 ADD SWAP1 DUP2 MSTORE PUSH1 0x20 ADD PUSH0 KECCAK256 PUSH2 0x3368 SWAP1 SWAP2 SWAP1 PUSH4 0xFFFFFFFF AND JUMP JUMPDEST JUMPDEST SWAP1 POP SWAP3 SWAP2 POP POP JUMP JUMPDEST PUSH2 0x2809 DUP2 PUSH2 0x3000 JUMP JUMPDEST PUSH2 0x284A JUMPI DUP1 PUSH1 0x40 MLOAD PUSH32 0xAE8F9A3600000000000000000000000000000000000000000000000000000000 DUP2 MSTORE PUSH1 0x4 ADD PUSH2 0x2841 SWAP2 SWAP1 PUSH2 0x4D92 JUMP JUMPDEST PUSH1 0x40 MLOAD DUP1 SWAP2 SUB SWAP1 REVERT JUMPDEST POP JUMP JUMPDEST PUSH1 0x60 PUSH0 PUSH2 0x285B DUP4 PUSH0 ADD PUSH2 0x3395 JUMP JUMPDEST SWAP1 POP PUSH1 0x60 DUP2 SWAP1 POP DUP1 SWAP3 POP POP POP SWAP2 SWAP1 POP JUMP JUMPDEST PUSH0 PUSH2 0x2876 DUP5 PUSH2 0x1210 JUMP JUMPDEST SWAP1 POP DUP6 PUSH20 0xFFFFFFFFFFFFFFFFFFFFFFFFFFFFFFFFFFFFFFFF AND DUP2 PUSH20 0xFFFFFFFFFFFFFFFFFFFFFFFFFFFFFFFFFFFFFFFF AND EQ PUSH2 0x28EC JUMPI DUP1 DUP5 DUP8 PUSH1 0x40 MLOAD PUSH32 0x5B271EA200000000000000000000000000000000000000000000000000000000 DUP2 MSTORE PUSH1 0x4 ADD PUSH2 0x28E3 SWAP4 SWAP3 SWAP2 SWAP1 PUSH2 0x5306 JUMP JUMPDEST PUSH1 0x40 MLOAD DUP1 SWAP2 SUB SWAP1 REVERT JUMPDEST PUSH0 PUSH20 0xFFFFFFFFFFFFFFFFFFFFFFFFFFFFFFFFFFFFFFFF AND DUP6 PUSH20 0xFFFFFFFFFFFFFFFFFFFFFFFFFFFFFFFFFFFFFFFF AND SUB PUSH2 0x2951 JUMPI PUSH1 0x40 MLOAD PUSH32 0x24ECEF4D00000000000000000000000000000000000000000000000000000000 DUP2 MSTORE PUSH1 0x4 ADD PUSH1 0x40 MLOAD DUP1 SWAP2 SUB SWAP1 REVERT JUMPDEST PUSH2 0x295D DUP7 DUP7 DUP7 DUP6 PUSH2 0x3068 JUMP JUMPDEST PUSH0 PUSH2 0x2967 DUP6 PUSH2 0x1210 JUMP JUMPDEST SWAP1 POP DUP1 PUSH20 0xFFFFFFFFFFFFFFFFFFFFFFFFFFFFFFFFFFFFFFFF AND DUP3 PUSH20 0xFFFFFFFFFFFFFFFFFFFFFFFFFFFFFFFFFFFFFFFF AND EQ PUSH2 0x29DD JUMPI DUP5 DUP3 DUP3 PUSH1 0x40 MLOAD PUSH32 0x5A9C31D300000000000000000000000000000000000000000000000000000000 DUP2 MSTORE PUSH1 0x4 ADD PUSH2 0x29D4 SWAP4 SWAP3 SWAP2 SWAP1 PUSH2 0x578C JUMP JUMPDEST PUSH1 0x40 MLOAD DUP1 SWAP2 SUB SWAP1 REVERT JUMPDEST PUSH2 0x29E7 DUP8 DUP7 PUSH2 0x33EE JUMP JUMPDEST PUSH2 0x2A36 DUP6 PUSH1 0x4 PUSH0 DUP11 PUSH20 0xFFFFFFFFFFFFFFFFFFFFFFFFFFFFFFFFFFFFFFFF AND PUSH20 0xFFFFFFFFFFFFFFFFFFFFFFFFFFFFFFFFFFFFFFFF AND DUP2 MSTORE PUSH1 0x20 ADD SWAP1 DUP2 MSTORE PUSH1 0x20 ADD PUSH0 KECCAK256 PUSH2 0x345C SWAP1 SWAP2 SWAP1 PUSH4 0xFFFFFFFF AND JUMP JUMPDEST POP PUSH2 0x2A86 DUP6 PUSH1 0x4 PUSH0 DUP10 PUSH20 0xFFFFFFFFFFFFFFFFFFFFFFFFFFFFFFFFFFFFFFFF AND PUSH20 0xFFFFFFFFFFFFFFFFFFFFFFFFFFFFFFFFFFFFFFFF AND DUP2 MSTORE PUSH1 0x20 ADD SWAP1 DUP2 MSTORE PUSH1 0x20 ADD PUSH0 KECCAK256 PUSH2 0x306E SWAP1 SWAP2 SWAP1 PUSH4 0xFFFFFFFF AND JUMP JUMPDEST POP DUP6 PUSH1 0x3 PUSH0 DUP8 DUP2 MSTORE PUSH1 0x20 ADD SWAP1 DUP2 MSTORE PUSH1 0x20 ADD PUSH0 KECCAK256 PUSH0 PUSH2 0x100 EXP DUP2 SLOAD DUP2 PUSH20 0xFFFFFFFFFFFFFFFFFFFFFFFFFFFFFFFFFFFFFFFF MUL NOT AND SWAP1 DUP4 PUSH20 0xFFFFFFFFFFFFFFFFFFFFFFFFFFFFFFFFFFFFFFFF AND MUL OR SWAP1 SSTORE POP DUP5 DUP7 PUSH20 0xFFFFFFFFFFFFFFFFFFFFFFFFFFFFFFFFFFFFFFFF AND DUP9 PUSH20 0xFFFFFFFFFFFFFFFFFFFFFFFFFFFFFFFFFFFFFFFF AND PUSH32 0xB333C813A7426A7A11E2B190CAD52C44119421594B47F6F32ACE6D8C7207B2BF CALLER DUP9 DUP9 PUSH1 0x40 MLOAD PUSH2 0x2B38 SWAP4 SWAP3 SWAP2 SWAP1 PUSH2 0x56F8 JUMP JUMPDEST PUSH1 0x40 MLOAD DUP1 SWAP2 SUB SWAP1 LOG4 PUSH2 0x2B4C DUP8 DUP8 DUP8 DUP7 PUSH2 0x3083 JUMP JUMPDEST PUSH0 CALLER DUP9 DUP9 DUP9 DUP8 PUSH1 0x40 MLOAD PUSH1 0x20 ADD PUSH2 0x2B66 SWAP6 SWAP5 SWAP4 SWAP3 SWAP2 SWAP1 PUSH2 0x5734 JUMP JUMPDEST PUSH1 0x40 MLOAD PUSH1 0x20 DUP2 DUP4 SUB SUB DUP2 MSTORE SWAP1 PUSH1 0x40 MSTORE SWAP1 POP PUSH2 0x2B81 DUP9 DUP3 PUSH2 0x3471 JUMP JUMPDEST PUSH2 0x2B8C DUP8 DUP7 DUP4 PUSH2 0x3089 JUMP JUMPDEST POP POP POP POP POP POP POP POP JUMP JUMPDEST PUSH1 0x60 PUSH1 0x1 PUSH0 DUP4 DUP2 MSTORE PUSH1 0x20 ADD SWAP1 DUP2 MSTORE PUSH1 0x20 ADD PUSH0 KECCAK256 DUP1 SLOAD PUSH2 0x2BB4 SWAP1 PUSH2 0x5184 JUMP JUMPDEST DUP1 PUSH1 0x1F ADD PUSH1 0x20 DUP1 SWAP2 DIV MUL PUSH1 0x20 ADD PUSH1 0x40 MLOAD SWAP1 DUP2 ADD PUSH1 0x40 MSTORE DUP1 SWAP3 SWAP2 SWAP1 DUP2 DUP2 MSTORE PUSH1 0x20 ADD DUP3 DUP1 SLOAD PUSH2 0x2BE0 SWAP1 PUSH2 0x5184 JUMP JUMPDEST DUP1 ISZERO PUSH2 0x2C2B JUMPI DUP1 PUSH1 0x1F LT PUSH2 0x2C02 JUMPI PUSH2 0x100 DUP1 DUP4 SLOAD DIV MUL DUP4 MSTORE SWAP2 PUSH1 0x20 ADD SWAP2 PUSH2 0x2C2B JUMP JUMPDEST DUP3 ADD SWAP2 SWAP1 PUSH0 MSTORE PUSH1 0x20 PUSH0 KECCAK256 SWAP1 JUMPDEST DUP2 SLOAD DUP2 MSTORE SWAP1 PUSH1 0x1 ADD SWAP1 PUSH1 0x20 ADD DUP1 DUP4 GT PUSH2 0x2C0E JUMPI DUP3 SWAP1 SUB PUSH1 0x1F AND DUP3 ADD SWAP2 JUMPDEST POP POP POP POP POP SWAP1 POP SWAP2 SWAP1 POP JUMP JUMPDEST PUSH0 PUSH2 0x2C43 DUP3 PUSH0 ADD PUSH2 0x34A2 JUMP JUMPDEST SWAP1 POP SWAP2 SWAP1 POP JUMP JUMPDEST CALLER PUSH20 0xFFFFFFFFFFFFFFFFFFFFFFFFFFFFFFFFFFFFFFFF AND PUSH2 0x2C69 PUSH2 0x1CDC JUMP JUMPDEST PUSH20 0xFFFFFFFFFFFFFFFFFFFFFFFFFFFFFFFFFFFFFFFF AND EQ PUSH2 0x2CC1 JUMPI CALLER PUSH1 0x40 MLOAD PUSH32 0xBF1169C500000000000000000000000000000000000000000000000000000000 DUP2 MSTORE PUSH1 0x4 ADD PUSH2 0x2CB8 SWAP2 SWAP1 PUSH2 0x3E94 JUMP JUMPDEST PUSH1 0x40 MLOAD DUP1 SWAP2 SUB SWAP1 REVERT JUMPDEST JUMP JUMPDEST PUSH2 0x2CCB PUSH2 0x1CDC JUMP JUMPDEST PUSH20 0xFFFFFFFFFFFFFFFFFFFFFFFFFFFFFFFFFFFFFFFF AND DUP2 PUSH20 0xFFFFFFFFFFFFFFFFFFFFFFFFFFFFFFFFFFFFFFFF AND EQ PUSH2 0x2DB6 JUMPI DUP1 PUSH20 0xFFFFFFFFFFFFFFFFFFFFFFFFFFFFFFFFFFFFFFFF AND PUSH0 DUP1 SLOAD SWAP1 PUSH2 0x100 EXP SWAP1 DIV PUSH20 0xFFFFFFFFFFFFFFFFFFFFFFFFFFFFFFFFFFFFFFFF AND PUSH20 0xFFFFFFFFFFFFFFFFFFFFFFFFFFFFFFFFFFFFFFFF AND PUSH32 0x8BE0079C531659141344CD1FD0A4F28419497F9722A3DAAFE3B4186F6B6457E0 PUSH1 0x40 MLOAD PUSH1 0x40 MLOAD DUP1 SWAP2 SUB SWAP1 LOG3 DUP1 PUSH0 DUP1 PUSH2 0x100 EXP DUP2 SLOAD DUP2 PUSH20 0xFFFFFFFFFFFFFFFFFFFFFFFFFFFFFFFFFFFFFFFF MUL NOT AND SWAP1 DUP4 PUSH20 0xFFFFFFFFFFFFFFFFFFFFFFFFFFFFFFFFFFFFFFFF AND MUL OR SWAP1 SSTORE POP JUMPDEST POP JUMP JUMPDEST PUSH32 0xF675E9361AF1C1664C1868CFA3EB97672D6B1A513AA5B81DEC34C9EE330E818D PUSH0 SHL DUP3 SUB PUSH2 0x2E14 JUMPI PUSH1 0x40 MLOAD PUSH32 0x3664800A00000000000000000000000000000000000000000000000000000000 DUP2 MSTORE PUSH1 0x4 ADD PUSH1 0x40 MLOAD DUP1 SWAP2 SUB SWAP1 REVERT JUMPDEST PUSH2 0x2E1E DUP3 DUP3 PUSH2 0x34B1 JUMP JUMPDEST POP POP JUMP JUMPDEST PUSH0 PUSH2 0x2E47 DUP4 PUSH0 ADD DUP4 PUSH20 0xFFFFFFFFFFFFFFFFFFFFFFFFFFFFFFFFFFFFFFFF AND PUSH0 SHL PUSH2 0x34BF JUMP JUMPDEST SWAP1 POP SWAP3 SWAP2 POP POP JUMP JUMPDEST PUSH2 0x2E7C DUP3 PUSH32 0x8A1C15A8799F71B547E08E2BCB2E85257E81B0A07EEE2CE6712549EEF1F00970 PUSH0 SHL DUP4 PUSH2 0x3526 JUMP JUMPDEST POP POP JUMP JUMPDEST PUSH1 0x60 PUSH0 PUSH2 0x2E8E DUP4 PUSH0 ADD PUSH2 0x3395 JUMP JUMPDEST SWAP1 POP PUSH1 0x60 DUP2 SWAP1 POP DUP1 SWAP3 POP POP POP SWAP2 SWAP1 POP JUMP JUMPDEST PUSH2 0x2EAA DUP4 DUP4 DUP4 PUSH2 0x35E0 JUMP JUMPDEST DUP2 DUP4 PUSH32 0xA6E4251F855F750545FE414F120DB91C76B88DEF14D120969E5BB2D3F05DEBBB DUP4 PUSH1 0x40 MLOAD PUSH2 0x2EDB SWAP2 SWAP1 PUSH2 0x3FBF JUMP JUMPDEST PUSH1 0x40 MLOAD DUP1 SWAP2 SUB SWAP1 LOG3 POP POP POP JUMP JUMPDEST PUSH0 PUSH2 0x2F0C DUP7 PUSH1 0x5 PUSH0 DUP8 DUP2 MSTORE PUSH1 0x20 ADD SWAP1 DUP2 MSTORE PUSH1 0x20 ADD PUSH0 KECCAK256 PUSH2 0x364F SWAP1 SWAP2 SWAP1 PUSH4 0xFFFFFFFF AND JUMP JUMPDEST SWAP1 POP DUP1 PUSH2 0x2F52 JUMPI DUP6 DUP5 PUSH1 0x40 MLOAD PUSH32 0x4AA31A8C00000000000000000000000000000000000000000000000000000000 DUP2 MSTORE PUSH1 0x4 ADD PUSH2 0x2F49 SWAP3 SWAP2 SWAP1 PUSH2 0x533B JUMP JUMPDEST PUSH1 0x40 MLOAD DUP1 SWAP2 SUB SWAP1 REVERT JUMPDEST DUP4 DUP6 PUSH20 0xFFFFFFFFFFFFFFFFFFFFFFFFFFFFFFFFFFFFFFFF AND DUP8 PUSH20 0xFFFFFFFFFFFFFFFFFFFFFFFFFFFFFFFFFFFFFFFF AND PUSH32 0xC78CD419D6136F9F1C1C6AEC1D3FAE098CFFAF8BC86314A8F2685E32FE574E3C DUP7 DUP7 PUSH1 0x40 MLOAD PUSH2 0x2FB2 SWAP3 SWAP2 SWAP1 PUSH2 0x57C1 JUMP JUMPDEST PUSH1 0x40 MLOAD DUP1 SWAP2 SUB SWAP1 LOG4 POP POP POP POP POP POP JUMP JUMPDEST PUSH0 DUP1 DUP4 PUSH0 PUSH1 0xF0 SHL DUP5 PUSH1 0x40 MLOAD PUSH1 0x20 ADD PUSH2 0x2FDC SWAP4 SWAP3 SWAP2 SWAP1 PUSH2 0x58A5 JUMP JUMPDEST PUSH1 0x40 MLOAD PUSH1 0x20 DUP2 DUP4 SUB SUB DUP2 MSTORE SWAP1 PUSH1 0x40 MSTORE SWAP1 POP DUP1 PUSH2 0x2FF7 SWAP1 PUSH2 0x58F5 JUMP JUMPDEST SWAP2 POP POP SWAP3 SWAP2 POP POP JUMP JUMPDEST PUSH0 DUP1 PUSH20 0xFFFFFFFFFFFFFFFFFFFFFFFFFFFFFFFFFFFFFFFF AND PUSH1 0x3 PUSH0 DUP5 DUP2 MSTORE PUSH1 0x20 ADD SWAP1 DUP2 MSTORE PUSH1 0x20 ADD PUSH0 KECCAK256 PUSH0 SWAP1 SLOAD SWAP1 PUSH2 0x100 EXP SWAP1 DIV PUSH20 0xFFFFFFFFFFFFFFFFFFFFFFFFFFFFFFFFFFFFFFFF AND PUSH20 0xFFFFFFFFFFFFFFFFFFFFFFFFFFFFFFFFFFFFFFFF AND EQ ISZERO SWAP1 POP SWAP2 SWAP1 POP JUMP JUMPDEST POP POP POP POP JUMP JUMPDEST PUSH0 PUSH2 0x307B DUP4 PUSH0 ADD DUP4 PUSH2 0x34BF JUMP JUMPDEST SWAP1 POP SWAP3 SWAP2 POP POP JUMP JUMPDEST POP POP POP POP JUMP JUMPDEST PUSH2 0x309A DUP4 PUSH4 0x6BB56A14 PUSH1 0xE0 SHL PUSH2 0x3248 JUMP JUMPDEST ISZERO PUSH2 0x3145 JUMPI DUP3 PUSH20 0xFFFFFFFFFFFFFFFFFFFFFFFFFFFFFFFFFFFFFFFF AND PUSH4 0x6BB56A14 PUSH32 0xB084A55EBF70FD3C06FD755269DAC2212C4D3F0F4D09079780BFA50C1B2984D PUSH0 SHL DUP4 PUSH1 0x40 MLOAD DUP4 PUSH4 0xFFFFFFFF AND PUSH1 0xE0 SHL DUP2 MSTORE PUSH1 0x4 ADD PUSH2 0x30FC SWAP3 SWAP2 SWAP1 PUSH2 0x595B JUMP JUMPDEST PUSH0 PUSH1 0x40 MLOAD DUP1 DUP4 SUB DUP2 PUSH0 DUP8 GAS CALL ISZERO DUP1 ISZERO PUSH2 0x3117 JUMPI RETURNDATASIZE PUSH0 DUP1 RETURNDATACOPY RETURNDATASIZE PUSH0 REVERT JUMPDEST POP POP POP POP PUSH1 0x40 MLOAD RETURNDATASIZE PUSH0 DUP3 RETURNDATACOPY RETURNDATASIZE PUSH1 0x1F NOT PUSH1 0x1F DUP3 ADD AND DUP3 ADD DUP1 PUSH1 0x40 MSTORE POP DUP2 ADD SWAP1 PUSH2 0x313F SWAP2 SWAP1 PUSH2 0x59F7 JUMP JUMPDEST POP PUSH2 0x31E3 JUMP JUMPDEST DUP2 PUSH2 0x31E2 JUMPI PUSH0 DUP4 PUSH20 0xFFFFFFFFFFFFFFFFFFFFFFFFFFFFFFFFFFFFFFFF AND EXTCODESIZE EQ PUSH2 0x31A5 JUMPI DUP3 PUSH1 0x40 MLOAD PUSH32 0x4349776D00000000000000000000000000000000000000000000000000000000 DUP2 MSTORE PUSH1 0x4 ADD PUSH2 0x319C SWAP2 SWAP1 PUSH2 0x3E94 JUMP JUMPDEST PUSH1 0x40 MLOAD DUP1 SWAP2 SUB SWAP1 REVERT JUMPDEST DUP3 PUSH1 0x40 MLOAD PUSH32 0x317313700000000000000000000000000000000000000000000000000000000 DUP2 MSTORE PUSH1 0x4 ADD PUSH2 0x31D9 SWAP2 SWAP1 PUSH2 0x3E94 JUMP JUMPDEST PUSH1 0x40 MLOAD DUP1 SWAP2 SUB SWAP1 REVERT JUMPDEST JUMPDEST POP POP POP JUMP JUMPDEST PUSH0 PUSH4 0x629AA694 PUSH1 0xE0 SHL PUSH28 0xFFFFFFFFFFFFFFFFFFFFFFFFFFFFFFFFFFFFFFFFFFFFFFFFFFFFFFFF NOT AND DUP3 PUSH28 0xFFFFFFFFFFFFFFFFFFFFFFFFFFFFFFFFFFFFFFFFFFFFFFFFFFFFFFFF NOT AND EQ DUP1 PUSH2 0x3241 JUMPI POP PUSH2 0x3240 DUP3 PUSH2 0x367C JUMP JUMPDEST JUMPDEST SWAP1 POP SWAP2 SWAP1 POP JUMP JUMPDEST PUSH0 DUP1 DUP3 PUSH1 0x40 MLOAD PUSH1 0x24 ADD PUSH2 0x325B SWAP2 SWAP1 PUSH2 0x4DBA JUMP JUMPDEST PUSH1 0x40 MLOAD PUSH1 0x20 DUP2 DUP4 SUB SUB DUP2 MSTORE SWAP1 PUSH1 0x40 MSTORE PUSH4 0x1FFC9A7 PUSH1 0xE0 SHL PUSH1 0x20 DUP3 ADD DUP1 MLOAD PUSH28 0xFFFFFFFFFFFFFFFFFFFFFFFFFFFFFFFFFFFFFFFFFFFFFFFFFFFFFFFF DUP4 DUP2 DUP4 AND OR DUP4 MSTORE POP POP POP POP SWAP1 POP PUSH0 DUP1 PUSH0 PUSH1 0x20 PUSH0 DUP6 MLOAD PUSH1 0x20 DUP8 ADD DUP11 PUSH2 0x7530 STATICCALL SWAP3 POP RETURNDATASIZE SWAP2 POP PUSH0 MLOAD SWAP1 POP DUP3 DUP1 ISZERO PUSH2 0x32CA JUMPI POP PUSH1 0x20 DUP3 LT ISZERO JUMPDEST DUP1 ISZERO PUSH2 0x32D5 JUMPI POP PUSH0 DUP2 GT JUMPDEST SWAP5 POP POP POP POP POP SWAP3 SWAP2 POP POP JUMP JUMPDEST PUSH1 0x60 DUP3 PUSH0 SHR PUSH20 0xFFFFFFFFFFFFFFFFFFFFFFFFFFFFFFFFFFFFFFFF AND PUSH4 0x54F6127F DUP4 PUSH1 0x40 MLOAD DUP3 PUSH4 0xFFFFFFFF AND PUSH1 0xE0 SHL DUP2 MSTORE PUSH1 0x4 ADD PUSH2 0x331E SWAP2 SWAP1 PUSH2 0x4D92 JUMP JUMPDEST PUSH0 PUSH1 0x40 MLOAD DUP1 DUP4 SUB DUP2 DUP7 GAS STATICCALL ISZERO DUP1 ISZERO PUSH2 0x3338 JUMPI RETURNDATASIZE PUSH0 DUP1 RETURNDATACOPY RETURNDATASIZE PUSH0 REVERT JUMPDEST POP POP POP POP PUSH1 0x40 MLOAD RETURNDATASIZE PUSH0 DUP3 RETURNDATACOPY RETURNDATASIZE PUSH1 0x1F NOT PUSH1 0x1F DUP3 ADD AND DUP3 ADD DUP1 PUSH1 0x40 MSTORE POP DUP2 ADD SWAP1 PUSH2 0x3360 SWAP2 SWAP1 PUSH2 0x59F7 JUMP JUMPDEST SWAP1 POP SWAP3 SWAP2 POP POP JUMP JUMPDEST PUSH0 PUSH2 0x338D DUP4 PUSH0 ADD DUP4 PUSH20 0xFFFFFFFFFFFFFFFFFFFFFFFFFFFFFFFFFFFFFFFF AND PUSH0 SHL PUSH2 0x36E5 JUMP JUMPDEST SWAP1 POP SWAP3 SWAP2 POP POP JUMP JUMPDEST PUSH1 0x60 DUP2 PUSH0 ADD DUP1 SLOAD DUP1 PUSH1 0x20 MUL PUSH1 0x20 ADD PUSH1 0x40 MLOAD SWAP1 DUP2 ADD PUSH1 0x40 MSTORE DUP1 SWAP3 SWAP2 SWAP1 DUP2 DUP2 MSTORE PUSH1 0x20 ADD DUP3 DUP1 SLOAD DUP1 ISZERO PUSH2 0x33E2 JUMPI PUSH1 0x20 MUL DUP3 ADD SWAP2 SWAP1 PUSH0 MSTORE PUSH1 0x20 PUSH0 KECCAK256 SWAP1 JUMPDEST DUP2 SLOAD DUP2 MSTORE PUSH1 0x20 ADD SWAP1 PUSH1 0x1 ADD SWAP1 DUP1 DUP4 GT PUSH2 0x33CE JUMPI JUMPDEST POP POP POP POP POP SWAP1 POP SWAP2 SWAP1 POP JUMP JUMPDEST PUSH0 PUSH1 0x5 PUSH0 DUP4 DUP2 MSTORE PUSH1 0x20 ADD SWAP1 DUP2 MSTORE PUSH1 0x20 ADD PUSH0 KECCAK256 SWAP1 POP PUSH0 PUSH2 0x340C DUP3 PUSH2 0x3705 JUMP JUMPDEST SWAP1 POP PUSH0 DUP1 JUMPDEST DUP3 DUP2 LT ISZERO PUSH2 0x3454 JUMPI PUSH2 0x342C PUSH0 DUP6 PUSH2 0x3718 SWAP1 SWAP2 SWAP1 PUSH4 0xFFFFFFFF AND JUMP JUMPDEST SWAP2 POP PUSH2 0x3449 DUP3 DUP8 DUP8 PUSH0 PUSH1 0x40 MLOAD DUP1 PUSH1 0x20 ADD PUSH1 0x40 MSTORE DUP1 PUSH0 DUP2 MSTORE POP PUSH2 0x2EE8 JUMP JUMPDEST DUP1 PUSH1 0x1 ADD SWAP1 POP PUSH2 0x3411 JUMP JUMPDEST POP POP POP POP POP POP JUMP JUMPDEST PUSH0 PUSH2 0x3469 DUP4 PUSH0 ADD DUP4 PUSH2 0x372F JUMP JUMPDEST SWAP1 POP SWAP3 SWAP2 POP POP JUMP JUMPDEST PUSH2 0x349E DUP3 PUSH32 0xB23EAE7E6D1564B295B4C3E3BE402D9A2F0776C57BDF365903496F6FA481AB00 PUSH0 SHL DUP4 PUSH2 0x3526 JUMP JUMPDEST POP POP JUMP JUMPDEST PUSH0 DUP2 PUSH0 ADD DUP1 SLOAD SWAP1 POP SWAP1 POP SWAP2 SWAP1 POP JUMP JUMPDEST PUSH2 0x34BB DUP3 DUP3 PUSH2 0x382B JUMP JUMPDEST POP POP JUMP JUMPDEST PUSH0 PUSH2 0x34CA DUP4 DUP4 PUSH2 0x36E5 JUMP JUMPDEST PUSH2 0x351C JUMPI DUP3 PUSH0 ADD DUP3 SWAP1 DUP1 PUSH1 0x1 DUP2 SLOAD ADD DUP1 DUP3 SSTORE DUP1 SWAP2 POP POP PUSH1 0x1 SWAP1 SUB SWAP1 PUSH0 MSTORE PUSH1 0x20 PUSH0 KECCAK256 ADD PUSH0 SWAP1 SWAP2 SWAP1 SWAP2 SWAP1 SWAP2 POP SSTORE DUP3 PUSH0 ADD DUP1 SLOAD SWAP1 POP DUP4 PUSH1 0x1 ADD PUSH0 DUP5 DUP2 MSTORE PUSH1 0x20 ADD SWAP1 DUP2 MSTORE PUSH1 0x20 ADD PUSH0 KECCAK256 DUP2 SWAP1 SSTORE POP PUSH1 0x1 SWAP1 POP PUSH2 0x3520 JUMP JUMPDEST PUSH0 SWAP1 POP JUMPDEST SWAP3 SWAP2 POP POP JUMP JUMPDEST PUSH2 0x3556 PUSH4 0x6BB56A14 PUSH1 0xE0 SHL DUP5 PUSH20 0xFFFFFFFFFFFFFFFFFFFFFFFFFFFFFFFFFFFFFFFF AND PUSH2 0x3248 SWAP1 SWAP2 SWAP1 PUSH4 0xFFFFFFFF AND JUMP JUMPDEST ISZERO PUSH2 0x35DB JUMPI DUP3 PUSH20 0xFFFFFFFFFFFFFFFFFFFFFFFFFFFFFFFFFFFFFFFF AND PUSH4 0x6BB56A14 DUP4 DUP4 PUSH1 0x40 MLOAD DUP4 PUSH4 0xFFFFFFFF AND PUSH1 0xE0 SHL DUP2 MSTORE PUSH1 0x4 ADD PUSH2 0x3596 SWAP3 SWAP2 SWAP1 PUSH2 0x595B JUMP JUMPDEST PUSH0 PUSH1 0x40 MLOAD DUP1 DUP4 SUB DUP2 PUSH0 DUP8 GAS CALL ISZERO DUP1 ISZERO PUSH2 0x35B1 JUMPI RETURNDATASIZE PUSH0 DUP1 RETURNDATACOPY RETURNDATASIZE PUSH0 REVERT JUMPDEST POP POP POP POP PUSH1 0x40 MLOAD RETURNDATASIZE PUSH0 DUP3 RETURNDATACOPY RETURNDATASIZE PUSH1 0x1F NOT PUSH1 0x1F DUP3 ADD AND DUP3 ADD DUP1 PUSH1 0x40 MSTORE POP DUP2 ADD SWAP1 PUSH2 0x35D9 SWAP2 SWAP1 PUSH2 0x59F7 JUMP JUMPDEST POP JUMPDEST POP POP POP JUMP JUMPDEST DUP3 PUSH0 SHR PUSH20 0xFFFFFFFFFFFFFFFFFFFFFFFFFFFFFFFFFFFFFFFF AND PUSH4 0x7F23690C DUP4 DUP4 PUSH1 0x40 MLOAD DUP4 PUSH4 0xFFFFFFFF AND PUSH1 0xE0 SHL DUP2 MSTORE PUSH1 0x4 ADD PUSH2 0x361D SWAP3 SWAP2 SWAP1 PUSH2 0x595B JUMP JUMPDEST PUSH0 PUSH1 0x40 MLOAD DUP1 DUP4 SUB DUP2 PUSH0 DUP8 DUP1 EXTCODESIZE ISZERO DUP1 ISZERO PUSH2 0x3634 JUMPI PUSH0 DUP1 REVERT JUMPDEST POP GAS CALL ISZERO DUP1 ISZERO PUSH2 0x3646 JUMPI RETURNDATASIZE PUSH0 DUP1 RETURNDATACOPY RETURNDATASIZE PUSH0 REVERT JUMPDEST POP POP POP POP POP POP POP JUMP JUMPDEST PUSH0 PUSH2 0x3674 DUP4 PUSH0 ADD DUP4 PUSH20 0xFFFFFFFFFFFFFFFFFFFFFFFFFFFFFFFFFFFFFFFF AND PUSH0 SHL PUSH2 0x372F JUMP JUMPDEST SWAP1 POP SWAP3 SWAP2 POP POP JUMP JUMPDEST PUSH0 PUSH32 0x1FFC9A700000000000000000000000000000000000000000000000000000000 PUSH28 0xFFFFFFFFFFFFFFFFFFFFFFFFFFFFFFFFFFFFFFFFFFFFFFFFFFFFFFFF NOT AND DUP3 PUSH28 0xFFFFFFFFFFFFFFFFFFFFFFFFFFFFFFFFFFFFFFFFFFFFFFFFFFFFFFFF NOT AND EQ SWAP1 POP SWAP2 SWAP1 POP JUMP JUMPDEST PUSH0 DUP1 DUP4 PUSH1 0x1 ADD PUSH0 DUP5 DUP2 MSTORE PUSH1 0x20 ADD SWAP1 DUP2 MSTORE PUSH1 0x20 ADD PUSH0 KECCAK256 SLOAD EQ ISZERO SWAP1 POP SWAP3 SWAP2 POP POP JUMP JUMPDEST PUSH0 PUSH2 0x3711 DUP3 PUSH0 ADD PUSH2 0x34A2 JUMP JUMPDEST SWAP1 POP SWAP2 SWAP1 POP JUMP JUMPDEST PUSH0 PUSH2 0x3725 DUP4 PUSH0 ADD DUP4 PUSH2 0x3997 JUMP JUMPDEST PUSH0 SHR SWAP1 POP SWAP3 SWAP2 POP POP JUMP JUMPDEST PUSH0 DUP1 DUP4 PUSH1 0x1 ADD PUSH0 DUP5 DUP2 MSTORE PUSH1 0x20 ADD SWAP1 DUP2 MSTORE PUSH1 0x20 ADD PUSH0 KECCAK256 SLOAD SWAP1 POP PUSH0 DUP2 EQ PUSH2 0x3820 JUMPI PUSH0 PUSH1 0x1 DUP3 PUSH2 0x375C SWAP2 SWAP1 PUSH2 0x5A3E JUMP JUMPDEST SWAP1 POP PUSH0 PUSH1 0x1 DUP7 PUSH0 ADD DUP1 SLOAD SWAP1 POP PUSH2 0x3772 SWAP2 SWAP1 PUSH2 0x5A3E JUMP JUMPDEST SWAP1 POP DUP1 DUP3 EQ PUSH2 0x37D8 JUMPI PUSH0 DUP7 PUSH0 ADD DUP3 DUP2 SLOAD DUP2 LT PUSH2 0x3791 JUMPI PUSH2 0x3790 PUSH2 0x51B4 JUMP JUMPDEST JUMPDEST SWAP1 PUSH0 MSTORE PUSH1 0x20 PUSH0 KECCAK256 ADD SLOAD SWAP1 POP DUP1 DUP8 PUSH0 ADD DUP5 DUP2 SLOAD DUP2 LT PUSH2 0x37B2 JUMPI PUSH2 0x37B1 PUSH2 0x51B4 JUMP JUMPDEST JUMPDEST SWAP1 PUSH0 MSTORE PUSH1 0x20 PUSH0 KECCAK256 ADD DUP2 SWAP1 SSTORE POP DUP4 DUP8 PUSH1 0x1 ADD PUSH0 DUP4 DUP2 MSTORE PUSH1 0x20 ADD SWAP1 DUP2 MSTORE PUSH1 0x20 ADD PUSH0 KECCAK256 DUP2 SWAP1 SSTORE POP POP JUMPDEST DUP6 PUSH0 ADD DUP1 SLOAD DUP1 PUSH2 0x37EB JUMPI PUSH2 0x37EA PUSH2 0x5A71 JUMP JUMPDEST JUMPDEST PUSH1 0x1 SWAP1 SUB DUP2 DUP2 SWAP1 PUSH0 MSTORE PUSH1 0x20 PUSH0 KECCAK256 ADD PUSH0 SWAP1 SSTORE SWAP1 SSTORE DUP6 PUSH1 0x1 ADD PUSH0 DUP7 DUP2 MSTORE PUSH1 0x20 ADD SWAP1 DUP2 MSTORE PUSH1 0x20 ADD PUSH0 KECCAK256 PUSH0 SWAP1 SSTORE PUSH1 0x1 SWAP4 POP POP POP POP PUSH2 0x3825 JUMP JUMPDEST PUSH0 SWAP2 POP POP JUMPDEST SWAP3 SWAP2 POP POP JUMP JUMPDEST PUSH32 0xDEBA1E292F8BA88238E10AB3C7F88BD4BE4FAC56CAD5194B6ECCEAF653468AF1 PUSH0 SHL DUP3 SUB PUSH2 0x3886 JUMPI PUSH1 0x40 MLOAD PUSH32 0x85C169BD00000000000000000000000000000000000000000000000000000000 DUP2 MSTORE PUSH1 0x4 ADD PUSH1 0x40 MLOAD DUP1 SWAP2 SUB SWAP1 REVERT JUMPDEST PUSH32 0x2F0A68AB07768E01943A599E73362A0E17A63A72E94DD2E384D2C1D4DB932756 PUSH0 SHL DUP3 SUB PUSH2 0x38E1 JUMPI PUSH1 0x40 MLOAD PUSH32 0x76755B3800000000000000000000000000000000000000000000000000000000 DUP2 MSTORE PUSH1 0x4 ADD PUSH1 0x40 MLOAD DUP1 SWAP2 SUB SWAP1 REVERT JUMPDEST PUSH32 0xE0261FA95DB2EB3B5439BD033CDA66D56B96F92F243A8228FD87550ED7BDFDB3 PUSH0 SHL DUP3 SUB PUSH2 0x393C JUMPI PUSH1 0x40 MLOAD PUSH32 0x4EF6D7FB00000000000000000000000000000000000000000000000000000000 DUP2 MSTORE PUSH1 0x4 ADD PUSH1 0x40 MLOAD DUP1 SWAP2 SUB SWAP1 REVERT JUMPDEST DUP1 PUSH1 0x1 PUSH0 DUP5 DUP2 MSTORE PUSH1 0x20 ADD SWAP1 DUP2 MSTORE PUSH1 0x20 ADD PUSH0 KECCAK256 SWAP1 DUP2 PUSH2 0x395A SWAP2 SWAP1 PUSH2 0x5540 JUMP JUMPDEST POP DUP2 PUSH32 0xECE574603820D07BC9B91F2A932BAADF4628AABCB8AFBA49776529C14A6104B2 DUP3 PUSH1 0x40 MLOAD PUSH2 0x398B SWAP2 SWAP1 PUSH2 0x3FBF JUMP JUMPDEST PUSH1 0x40 MLOAD DUP1 SWAP2 SUB SWAP1 LOG2 POP POP JUMP JUMPDEST PUSH0 DUP3 PUSH0 ADD DUP3 DUP2 SLOAD DUP2 LT PUSH2 0x39AD JUMPI PUSH2 0x39AC PUSH2 0x51B4 JUMP JUMPDEST JUMPDEST SWAP1 PUSH0 MSTORE PUSH1 0x20 PUSH0 KECCAK256 ADD SLOAD SWAP1 POP SWAP3 SWAP2 POP POP JUMP JUMPDEST PUSH0 DUP3 DUP3 MSTORE PUSH1 0x20 DUP3 ADD SWAP1 POP SWAP3 SWAP2 POP POP JUMP JUMPDEST PUSH0 DUP1 DUP3 ADD MSTORE POP JUMP JUMPDEST PUSH0 PUSH2 0x39E2 PUSH1 0x4 DUP4 PUSH2 0x39BE JUMP JUMPDEST SWAP2 POP PUSH2 0x39ED DUP3 PUSH2 0x39CE JUMP JUMPDEST PUSH1 0x20 DUP3 ADD SWAP1 POP SWAP2 SWAP1 POP JUMP JUMPDEST PUSH0 PUSH1 0x20 DUP3 ADD SWAP1 POP DUP2 DUP2 SUB PUSH0 DUP4 ADD MSTORE PUSH2 0x3A0F DUP2 PUSH2 0x39D6 JUMP JUMPDEST SWAP1 POP SWAP2 SWAP1 POP JUMP JUMPDEST DUP3 DUP2 DUP4 CALLDATACOPY PUSH0 DUP4 DUP4 ADD MSTORE POP POP POP JUMP JUMPDEST PUSH0 PUSH1 0x1F NOT PUSH1 0x1F DUP4 ADD AND SWAP1 POP SWAP2 SWAP1 POP JUMP JUMPDEST PUSH0 PUSH2 0x3A3F DUP4 DUP6 PUSH2 0x39BE JUMP JUMPDEST SWAP4 POP PUSH2 0x3A4C DUP4 DUP6 DUP5 PUSH2 0x3A16 JUMP JUMPDEST PUSH2 0x3A55 DUP4 PUSH2 0x3A24 JUMP JUMPDEST DUP5 ADD SWAP1 POP SWAP4 SWAP3 POP POP POP JUMP JUMPDEST PUSH0 PUSH1 0x20 DUP3 ADD SWAP1 POP DUP2 DUP2 SUB PUSH0 DUP4 ADD MSTORE PUSH2 0x3A79 DUP2 DUP5 DUP7 PUSH2 0x3A34 JUMP JUMPDEST SWAP1 POP SWAP4 SWAP3 POP POP POP JUMP JUMPDEST PUSH0 PUSH1 0x40 MLOAD SWAP1 POP SWAP1 JUMP JUMPDEST PUSH0 DUP1 REVERT JUMPDEST PUSH0 DUP1 REVERT JUMPDEST PUSH0 PUSH20 0xFFFFFFFFFFFFFFFFFFFFFFFFFFFFFFFFFFFFFFFF DUP3 AND SWAP1 POP SWAP2 SWAP1 POP JUMP JUMPDEST PUSH0 PUSH2 0x3ABC DUP3 PUSH2 0x3A93 JUMP JUMPDEST SWAP1 POP SWAP2 SWAP1 POP JUMP JUMPDEST PUSH2 0x3ACC DUP2 PUSH2 0x3AB2 JUMP JUMPDEST DUP2 EQ PUSH2 0x3AD6 JUMPI PUSH0 DUP1 REVERT JUMPDEST POP JUMP JUMPDEST PUSH0 DUP2 CALLDATALOAD SWAP1 POP PUSH2 0x3AE7 DUP2 PUSH2 0x3AC3 JUMP JUMPDEST SWAP3 SWAP2 POP POP JUMP JUMPDEST PUSH0 PUSH1 0x20 DUP3 DUP5 SUB SLT ISZERO PUSH2 0x3B02 JUMPI PUSH2 0x3B01 PUSH2 0x3A8B JUMP JUMPDEST JUMPDEST PUSH0 PUSH2 0x3B0F DUP5 DUP3 DUP6 ADD PUSH2 0x3AD9 JUMP JUMPDEST SWAP2 POP POP SWAP3 SWAP2 POP POP JUMP JUMPDEST PUSH0 DUP2 SWAP1 POP SWAP2 SWAP1 POP JUMP JUMPDEST PUSH2 0x3B2A DUP2 PUSH2 0x3B18 JUMP JUMPDEST DUP3 MSTORE POP POP JUMP JUMPDEST PUSH0 PUSH1 0x20 DUP3 ADD SWAP1 POP PUSH2 0x3B43 PUSH0 DUP4 ADD DUP5 PUSH2 0x3B21 JUMP JUMPDEST SWAP3 SWAP2 POP POP JUMP JUMPDEST PUSH0 DUP1 REVERT JUMPDEST PUSH0 DUP1 REVERT JUMPDEST PUSH32 0x4E487B7100000000000000000000000000000000000000000000000000000000 PUSH0 MSTORE PUSH1 0x41 PUSH1 0x4 MSTORE PUSH1 0x24 PUSH0 REVERT JUMPDEST PUSH2 0x3B87 DUP3 PUSH2 0x3A24 JUMP JUMPDEST DUP2 ADD DUP2 DUP2 LT PUSH8 0xFFFFFFFFFFFFFFFF DUP3 GT OR ISZERO PUSH2 0x3BA6 JUMPI PUSH2 0x3BA5 PUSH2 0x3B51 JUMP JUMPDEST JUMPDEST DUP1 PUSH1 0x40 MSTORE POP POP POP JUMP JUMPDEST PUSH0 PUSH2 0x3BB8 PUSH2 0x3A82 JUMP JUMPDEST SWAP1 POP PUSH2 0x3BC4 DUP3 DUP3 PUSH2 0x3B7E JUMP JUMPDEST SWAP2 SWAP1 POP JUMP JUMPDEST PUSH0 PUSH8 0xFFFFFFFFFFFFFFFF DUP3 GT ISZERO PUSH2 0x3BE3 JUMPI PUSH2 0x3BE2 PUSH2 0x3B51 JUMP JUMPDEST JUMPDEST PUSH2 0x3BEC DUP3 PUSH2 0x3A24 JUMP JUMPDEST SWAP1 POP PUSH1 0x20 DUP2 ADD SWAP1 POP SWAP2 SWAP1 POP JUMP JUMPDEST PUSH0 PUSH2 0x3C0B PUSH2 0x3C06 DUP5 PUSH2 0x3BC9 JUMP JUMPDEST PUSH2 0x3BAF JUMP JUMPDEST SWAP1 POP DUP3 DUP2 MSTORE PUSH1 0x20 DUP2 ADD DUP5 DUP5 DUP5 ADD GT ISZERO PUSH2 0x3C27 JUMPI PUSH2 0x3C26 PUSH2 0x3B4D JUMP JUMPDEST JUMPDEST PUSH2 0x3C32 DUP5 DUP3 DUP6 PUSH2 0x3A16 JUMP JUMPDEST POP SWAP4 SWAP3 POP POP POP JUMP JUMPDEST PUSH0 DUP3 PUSH1 0x1F DUP4 ADD SLT PUSH2 0x3C4E JUMPI PUSH2 0x3C4D PUSH2 0x3B49 JUMP JUMPDEST JUMPDEST DUP2 CALLDATALOAD PUSH2 0x3C5E DUP5 DUP3 PUSH1 0x20 DUP7 ADD PUSH2 0x3BF9 JUMP JUMPDEST SWAP2 POP POP SWAP3 SWAP2 POP POP JUMP JUMPDEST PUSH0 DUP2 ISZERO ISZERO SWAP1 POP SWAP2 SWAP1 POP JUMP JUMPDEST PUSH2 0x3C7B DUP2 PUSH2 0x3C67 JUMP JUMPDEST DUP2 EQ PUSH2 0x3C85 JUMPI PUSH0 DUP1 REVERT JUMPDEST POP JUMP JUMPDEST PUSH0 DUP2 CALLDATALOAD SWAP1 POP PUSH2 0x3C96 DUP2 PUSH2 0x3C72 JUMP JUMPDEST SWAP3 SWAP2 POP POP JUMP JUMPDEST PUSH2 0x3CA5 DUP2 PUSH2 0x3B18 JUMP JUMPDEST DUP2 EQ PUSH2 0x3CAF JUMPI PUSH0 DUP1 REVERT JUMPDEST POP JUMP JUMPDEST PUSH0 DUP2 CALLDATALOAD SWAP1 POP PUSH2 0x3CC0 DUP2 PUSH2 0x3C9C JUMP JUMPDEST SWAP3 SWAP2 POP POP JUMP JUMPDEST PUSH0 PUSH8 0xFFFFFFFFFFFFFFFF DUP3 GT ISZERO PUSH2 0x3CE0 JUMPI PUSH2 0x3CDF PUSH2 0x3B51 JUMP JUMPDEST JUMPDEST PUSH2 0x3CE9 DUP3 PUSH2 0x3A24 JUMP JUMPDEST SWAP1 POP PUSH1 0x20 DUP2 ADD SWAP1 POP SWAP2 SWAP1 POP JUMP JUMPDEST PUSH0 PUSH2 0x3D08 PUSH2 0x3D03 DUP5 PUSH2 0x3CC6 JUMP JUMPDEST PUSH2 0x3BAF JUMP JUMPDEST SWAP1 POP DUP3 DUP2 MSTORE PUSH1 0x20 DUP2 ADD DUP5 DUP5 DUP5 ADD GT ISZERO PUSH2 0x3D24 JUMPI PUSH2 0x3D23 PUSH2 0x3B4D JUMP JUMPDEST JUMPDEST PUSH2 0x3D2F DUP5 DUP3 DUP6 PUSH2 0x3A16 JUMP JUMPDEST POP SWAP4 SWAP3 POP POP POP JUMP JUMPDEST PUSH0 DUP3 PUSH1 0x1F DUP4 ADD SLT PUSH2 0x3D4B JUMPI PUSH2 0x3D4A PUSH2 0x3B49 JUMP JUMPDEST JUMPDEST DUP2 CALLDATALOAD PUSH2 0x3D5B DUP5 DUP3 PUSH1 0x20 DUP7 ADD PUSH2 0x3CF6 JUMP JUMPDEST SWAP2 POP POP SWAP3 SWAP2 POP POP JUMP JUMPDEST PUSH0 DUP1 PUSH0 DUP1 PUSH0 DUP1 PUSH0 DUP1 PUSH2 0x100 DUP10 DUP12 SUB SLT ISZERO PUSH2 0x3D81 JUMPI PUSH2 0x3D80 PUSH2 0x3A8B JUMP JUMPDEST JUMPDEST PUSH0 DUP10 ADD CALLDATALOAD PUSH8 0xFFFFFFFFFFFFFFFF DUP2 GT ISZERO PUSH2 0x3D9E JUMPI PUSH2 0x3D9D PUSH2 0x3A8F JUMP JUMPDEST JUMPDEST PUSH2 0x3DAA DUP12 DUP3 DUP13 ADD PUSH2 0x3C3A JUMP JUMPDEST SWAP9 POP POP PUSH1 0x20 DUP10 ADD CALLDATALOAD PUSH8 0xFFFFFFFFFFFFFFFF DUP2 GT ISZERO PUSH2 0x3DCB JUMPI PUSH2 0x3DCA PUSH2 0x3A8F JUMP JUMPDEST JUMPDEST PUSH2 0x3DD7 DUP12 DUP3 DUP13 ADD PUSH2 0x3C3A JUMP JUMPDEST SWAP8 POP POP PUSH1 0x40 PUSH2 0x3DE8 DUP12 DUP3 DUP13 ADD PUSH2 0x3C88 JUMP JUMPDEST SWAP7 POP POP PUSH1 0x60 PUSH2 0x3DF9 DUP12 DUP3 DUP13 ADD PUSH2 0x3CB2 JUMP JUMPDEST SWAP6 POP POP PUSH1 0x80 PUSH2 0x3E0A DUP12 DUP3 DUP13 ADD PUSH2 0x3AD9 JUMP JUMPDEST SWAP5 POP POP PUSH1 0xA0 DUP10 ADD CALLDATALOAD PUSH8 0xFFFFFFFFFFFFFFFF DUP2 GT ISZERO PUSH2 0x3E2B JUMPI PUSH2 0x3E2A PUSH2 0x3A8F JUMP JUMPDEST JUMPDEST PUSH2 0x3E37 DUP12 DUP3 DUP13 ADD PUSH2 0x3D37 JUMP JUMPDEST SWAP4 POP POP PUSH1 0xC0 DUP10 ADD CALLDATALOAD PUSH8 0xFFFFFFFFFFFFFFFF DUP2 GT ISZERO PUSH2 0x3E58 JUMPI PUSH2 0x3E57 PUSH2 0x3A8F JUMP JUMPDEST JUMPDEST PUSH2 0x3E64 DUP12 DUP3 DUP13 ADD PUSH2 0x3D37 JUMP JUMPDEST SWAP3 POP POP PUSH1 0xE0 PUSH2 0x3E75 DUP12 DUP3 DUP13 ADD PUSH2 0x3AD9 JUMP JUMPDEST SWAP2 POP POP SWAP3 SWAP6 SWAP9 POP SWAP3 SWAP6 SWAP9 SWAP1 SWAP4 SWAP7 POP JUMP JUMPDEST PUSH2 0x3E8E DUP2 PUSH2 0x3AB2 JUMP JUMPDEST DUP3 MSTORE POP POP JUMP JUMPDEST PUSH0 PUSH1 0x20 DUP3 ADD SWAP1 POP PUSH2 0x3EA7 PUSH0 DUP4 ADD DUP5 PUSH2 0x3E85 JUMP JUMPDEST SWAP3 SWAP2 POP POP JUMP JUMPDEST PUSH0 PUSH32 0xFFFFFFFF00000000000000000000000000000000000000000000000000000000 DUP3 AND SWAP1 POP SWAP2 SWAP1 POP JUMP JUMPDEST PUSH2 0x3EE1 DUP2 PUSH2 0x3EAD JUMP JUMPDEST DUP2 EQ PUSH2 0x3EEB JUMPI PUSH0 DUP1 REVERT JUMPDEST POP JUMP JUMPDEST PUSH0 DUP2 CALLDATALOAD SWAP1 POP PUSH2 0x3EFC DUP2 PUSH2 0x3ED8 JUMP JUMPDEST SWAP3 SWAP2 POP POP JUMP JUMPDEST PUSH0 PUSH1 0x20 DUP3 DUP5 SUB SLT ISZERO PUSH2 0x3F17 JUMPI PUSH2 0x3F16 PUSH2 0x3A8B JUMP JUMPDEST JUMPDEST PUSH0 PUSH2 0x3F24 DUP5 DUP3 DUP6 ADD PUSH2 0x3EEE JUMP JUMPDEST SWAP2 POP POP SWAP3 SWAP2 POP POP JUMP JUMPDEST PUSH2 0x3F36 DUP2 PUSH2 0x3C67 JUMP JUMPDEST DUP3 MSTORE POP POP JUMP JUMPDEST PUSH0 PUSH1 0x20 DUP3 ADD SWAP1 POP PUSH2 0x3F4F PUSH0 DUP4 ADD DUP5 PUSH2 0x3F2D JUMP JUMPDEST SWAP3 SWAP2 POP POP JUMP JUMPDEST PUSH0 DUP2 MLOAD SWAP1 POP SWAP2 SWAP1 POP JUMP JUMPDEST PUSH0 JUMPDEST DUP4 DUP2 LT ISZERO PUSH2 0x3F7C JUMPI DUP1 DUP3 ADD MLOAD DUP2 DUP5 ADD MSTORE PUSH1 0x20 DUP2 ADD SWAP1 POP PUSH2 0x3F61 JUMP JUMPDEST PUSH0 DUP5 DUP5 ADD MSTORE POP POP POP POP JUMP JUMPDEST PUSH0 PUSH2 0x3F91 DUP3 PUSH2 0x3F55 JUMP JUMPDEST PUSH2 0x3F9B DUP2 DUP6 PUSH2 0x39BE JUMP JUMPDEST SWAP4 POP PUSH2 0x3FAB DUP2 DUP6 PUSH1 0x20 DUP7 ADD PUSH2 0x3F5F JUMP JUMPDEST PUSH2 0x3FB4 DUP2 PUSH2 0x3A24 JUMP JUMPDEST DUP5 ADD SWAP2 POP POP SWAP3 SWAP2 POP POP JUMP JUMPDEST PUSH0 PUSH1 0x20 DUP3 ADD SWAP1 POP DUP2 DUP2 SUB PUSH0 DUP4 ADD MSTORE PUSH2 0x3FD7 DUP2 DUP5 PUSH2 0x3F87 JUMP JUMPDEST SWAP1 POP SWAP3 SWAP2 POP POP JUMP JUMPDEST PUSH0 DUP2 SWAP1 POP SWAP2 SWAP1 POP JUMP JUMPDEST PUSH2 0x3FF1 DUP2 PUSH2 0x3FDF JUMP JUMPDEST DUP2 EQ PUSH2 0x3FFB JUMPI PUSH0 DUP1 REVERT JUMPDEST POP JUMP JUMPDEST PUSH0 DUP2 CALLDATALOAD SWAP1 POP PUSH2 0x400C DUP2 PUSH2 0x3FE8 JUMP JUMPDEST SWAP3 SWAP2 POP POP JUMP JUMPDEST PUSH0 DUP1 PUSH1 0x40 DUP4 DUP6 SUB SLT ISZERO PUSH2 0x4028 JUMPI PUSH2 0x4027 PUSH2 0x3A8B JUMP JUMPDEST JUMPDEST PUSH0 PUSH2 0x4035 DUP6 DUP3 DUP7 ADD PUSH2 0x3FFE JUMP JUMPDEST SWAP3 POP POP PUSH1 0x20 PUSH2 0x4046 DUP6 DUP3 DUP7 ADD PUSH2 0x3FFE JUMP JUMPDEST SWAP2 POP POP SWAP3 POP SWAP3 SWAP1 POP JUMP JUMPDEST PUSH0 PUSH8 0xFFFFFFFFFFFFFFFF DUP3 GT ISZERO PUSH2 0x406A JUMPI PUSH2 0x4069 PUSH2 0x3B51 JUMP JUMPDEST JUMPDEST PUSH1 0x20 DUP3 MUL SWAP1 POP PUSH1 0x20 DUP2 ADD SWAP1 POP SWAP2 SWAP1 POP JUMP JUMPDEST PUSH0 DUP1 REVERT JUMPDEST PUSH0 PUSH2 0x4091 PUSH2 0x408C DUP5 PUSH2 0x4050 JUMP JUMPDEST PUSH2 0x3BAF JUMP JUMPDEST SWAP1 POP DUP1 DUP4 DUP3 MSTORE PUSH1 0x20 DUP3 ADD SWAP1 POP PUSH1 0x20 DUP5 MUL DUP4 ADD DUP6 DUP2 GT ISZERO PUSH2 0x40B4 JUMPI PUSH2 0x40B3 PUSH2 0x407B JUMP JUMPDEST JUMPDEST DUP4 JUMPDEST DUP2 DUP2 LT ISZERO PUSH2 0x40DD JUMPI DUP1 PUSH2 0x40C9 DUP9 DUP3 PUSH2 0x3FFE JUMP JUMPDEST DUP5 MSTORE PUSH1 0x20 DUP5 ADD SWAP4 POP POP PUSH1 0x20 DUP2 ADD SWAP1 POP PUSH2 0x40B6 JUMP JUMPDEST POP POP POP SWAP4 SWAP3 POP POP POP JUMP JUMPDEST PUSH0 DUP3 PUSH1 0x1F DUP4 ADD SLT PUSH2 0x40FB JUMPI PUSH2 0x40FA PUSH2 0x3B49 JUMP JUMPDEST JUMPDEST DUP2 CALLDATALOAD PUSH2 0x410B DUP5 DUP3 PUSH1 0x20 DUP7 ADD PUSH2 0x407F JUMP JUMPDEST SWAP2 POP POP SWAP3 SWAP2 POP POP JUMP JUMPDEST PUSH0 DUP1 PUSH1 0x40 DUP4 DUP6 SUB SLT ISZERO PUSH2 0x412A JUMPI PUSH2 0x4129 PUSH2 0x3A8B JUMP JUMPDEST JUMPDEST PUSH0 DUP4 ADD CALLDATALOAD PUSH8 0xFFFFFFFFFFFFFFFF DUP2 GT ISZERO PUSH2 0x4147 JUMPI PUSH2 0x4146 PUSH2 0x3A8F JUMP JUMPDEST JUMPDEST PUSH2 0x4153 DUP6 DUP3 DUP7 ADD PUSH2 0x40E7 JUMP JUMPDEST SWAP3 POP POP PUSH1 0x20 DUP4 ADD CALLDATALOAD PUSH8 0xFFFFFFFFFFFFFFFF DUP2 GT ISZERO PUSH2 0x4174 JUMPI PUSH2 0x4173 PUSH2 0x3A8F JUMP JUMPDEST JUMPDEST PUSH2 0x4180 DUP6 DUP3 DUP7 ADD PUSH2 0x40E7 JUMP JUMPDEST SWAP2 POP POP SWAP3 POP SWAP3 SWAP1 POP JUMP JUMPDEST PUSH0 DUP2 MLOAD SWAP1 POP SWAP2 SWAP1 POP JUMP JUMPDEST PUSH0 DUP3 DUP3 MSTORE PUSH1 0x20 DUP3 ADD SWAP1 POP SWAP3 SWAP2 POP POP JUMP JUMPDEST PUSH0 DUP2 SWAP1 POP PUSH1 0x20 DUP3 ADD SWAP1 POP SWAP2 SWAP1 POP JUMP JUMPDEST PUSH0 DUP3 DUP3 MSTORE PUSH1 0x20 DUP3 ADD SWAP1 POP SWAP3 SWAP2 POP POP JUMP JUMPDEST PUSH0 PUSH2 0x41CD DUP3 PUSH2 0x3F55 JUMP JUMPDEST PUSH2 0x41D7 DUP2 DUP6 PUSH2 0x41B3 JUMP JUMPDEST SWAP4 POP PUSH2 0x41E7 DUP2 DUP6 PUSH1 0x20 DUP7 ADD PUSH2 0x3F5F JUMP JUMPDEST PUSH2 0x41F0 DUP2 PUSH2 0x3A24 JUMP JUMPDEST DUP5 ADD SWAP2 POP POP SWAP3 SWAP2 POP POP JUMP JUMPDEST PUSH0 PUSH2 0x4206 DUP4 DUP4 PUSH2 0x41C3 JUMP JUMPDEST SWAP1 POP SWAP3 SWAP2 POP POP JUMP JUMPDEST PUSH0 PUSH1 0x20 DUP3 ADD SWAP1 POP SWAP2 SWAP1 POP JUMP JUMPDEST PUSH0 PUSH2 0x4224 DUP3 PUSH2 0x418A JUMP JUMPDEST PUSH2 0x422E DUP2 DUP6 PUSH2 0x4194 JUMP JUMPDEST SWAP4 POP DUP4 PUSH1 0x20 DUP3 MUL DUP6 ADD PUSH2 0x4240 DUP6 PUSH2 0x41A4 JUMP JUMPDEST DUP1 PUSH0 JUMPDEST DUP6 DUP2 LT ISZERO PUSH2 0x427B JUMPI DUP5 DUP5 SUB DUP10 MSTORE DUP2 MLOAD PUSH2 0x425C DUP6 DUP3 PUSH2 0x41FB JUMP JUMPDEST SWAP5 POP PUSH2 0x4267 DUP4 PUSH2 0x420E JUMP JUMPDEST SWAP3 POP PUSH1 0x20 DUP11 ADD SWAP10 POP POP PUSH1 0x1 DUP2 ADD SWAP1 POP PUSH2 0x4243 JUMP JUMPDEST POP DUP3 SWAP8 POP DUP8 SWAP6 POP POP POP POP POP POP SWAP3 SWAP2 POP POP JUMP JUMPDEST PUSH0 PUSH1 0x20 DUP3 ADD SWAP1 POP DUP2 DUP2 SUB PUSH0 DUP4 ADD MSTORE PUSH2 0x42A5 DUP2 DUP5 PUSH2 0x421A JUMP JUMPDEST SWAP1 POP SWAP3 SWAP2 POP POP JUMP JUMPDEST PUSH0 PUSH1 0x20 DUP3 DUP5 SUB SLT ISZERO PUSH2 0x42C2 JUMPI PUSH2 0x42C1 PUSH2 0x3A8B JUMP JUMPDEST JUMPDEST PUSH0 PUSH2 0x42CF DUP5 DUP3 DUP6 ADD PUSH2 0x3FFE JUMP JUMPDEST SWAP2 POP POP SWAP3 SWAP2 POP POP JUMP JUMPDEST PUSH0 DUP1 PUSH1 0x40 DUP4 DUP6 SUB SLT ISZERO PUSH2 0x42EE JUMPI PUSH2 0x42ED PUSH2 0x3A8B JUMP JUMPDEST JUMPDEST PUSH0 PUSH2 0x42FB DUP6 DUP3 DUP7 ADD PUSH2 0x3AD9 JUMP JUMPDEST SWAP3 POP POP PUSH1 0x20 PUSH2 0x430C DUP6 DUP3 DUP7 ADD PUSH2 0x3FFE JUMP JUMPDEST SWAP2 POP POP SWAP3 POP SWAP3 SWAP1 POP JUMP JUMPDEST PUSH0 DUP2 MLOAD SWAP1 POP SWAP2 SWAP1 POP JUMP JUMPDEST PUSH0 DUP3 DUP3 MSTORE PUSH1 0x20 DUP3 ADD SWAP1 POP SWAP3 SWAP2 POP POP JUMP JUMPDEST PUSH0 DUP2 SWAP1 POP PUSH1 0x20 DUP3 ADD SWAP1 POP SWAP2 SWAP1 POP JUMP JUMPDEST PUSH2 0x4348 DUP2 PUSH2 0x3FDF JUMP JUMPDEST DUP3 MSTORE POP POP JUMP JUMPDEST PUSH0 PUSH2 0x4359 DUP4 DUP4 PUSH2 0x433F JUMP JUMPDEST PUSH1 0x20 DUP4 ADD SWAP1 POP SWAP3 SWAP2 POP POP JUMP JUMPDEST PUSH0 PUSH1 0x20 DUP3 ADD SWAP1 POP SWAP2 SWAP1 POP JUMP JUMPDEST PUSH0 PUSH2 0x437B DUP3 PUSH2 0x4316 JUMP JUMPDEST PUSH2 0x4385 DUP2 DUP6 PUSH2 0x4320 JUMP JUMPDEST SWAP4 POP PUSH2 0x4390 DUP4 PUSH2 0x4330 JUMP JUMPDEST DUP1 PUSH0 JUMPDEST DUP4 DUP2 LT ISZERO PUSH2 0x43C0 JUMPI DUP2 MLOAD PUSH2 0x43A7 DUP9 DUP3 PUSH2 0x434E JUMP JUMPDEST SWAP8 POP PUSH2 0x43B2 DUP4 PUSH2 0x4365 JUMP JUMPDEST SWAP3 POP POP PUSH1 0x1 DUP2 ADD SWAP1 POP PUSH2 0x4393 JUMP JUMPDEST POP DUP6 SWAP4 POP POP POP POP SWAP3 SWAP2 POP POP JUMP JUMPDEST PUSH0 PUSH1 0x20 DUP3 ADD SWAP1 POP DUP2 DUP2 SUB PUSH0 DUP4 ADD MSTORE PUSH2 0x43E5 DUP2 DUP5 PUSH2 0x4371 JUMP JUMPDEST SWAP1 POP SWAP3 SWAP2 POP POP JUMP JUMPDEST PUSH0 DUP2 MLOAD SWAP1 POP SWAP2 SWAP1 POP JUMP JUMPDEST PUSH0 DUP3 DUP3 MSTORE PUSH1 0x20 DUP3 ADD SWAP1 POP SWAP3 SWAP2 POP POP JUMP JUMPDEST PUSH0 DUP2 SWAP1 POP PUSH1 0x20 DUP3 ADD SWAP1 POP SWAP2 SWAP1 POP JUMP JUMPDEST PUSH2 0x441F DUP2 PUSH2 0x3AB2 JUMP JUMPDEST DUP3 MSTORE POP POP JUMP JUMPDEST PUSH0 PUSH2 0x4430 DUP4 DUP4 PUSH2 0x4416 JUMP JUMPDEST PUSH1 0x20 DUP4 ADD SWAP1 POP SWAP3 SWAP2 POP POP JUMP JUMPDEST PUSH0 PUSH1 0x20 DUP3 ADD SWAP1 POP SWAP2 SWAP1 POP JUMP JUMPDEST PUSH0 PUSH2 0x4452 DUP3 PUSH2 0x43ED JUMP JUMPDEST PUSH2 0x445C DUP2 DUP6 PUSH2 0x43F7 JUMP JUMPDEST SWAP4 POP PUSH2 0x4467 DUP4 PUSH2 0x4407 JUMP JUMPDEST DUP1 PUSH0 JUMPDEST DUP4 DUP2 LT ISZERO PUSH2 0x4497 JUMPI DUP2 MLOAD PUSH2 0x447E DUP9 DUP3 PUSH2 0x4425 JUMP JUMPDEST SWAP8 POP PUSH2 0x4489 DUP4 PUSH2 0x443C JUMP JUMPDEST SWAP3 POP POP PUSH1 0x1 DUP2 ADD SWAP1 POP PUSH2 0x446A JUMP JUMPDEST POP DUP6 SWAP4 POP POP POP POP SWAP3 SWAP2 POP POP JUMP JUMPDEST PUSH0 PUSH1 0x20 DUP3 ADD SWAP1 POP DUP2 DUP2 SUB PUSH0 DUP4 ADD MSTORE PUSH2 0x44BC DUP2 DUP5 PUSH2 0x4448 JUMP JUMPDEST SWAP1 POP SWAP3 SWAP2 POP POP JUMP JUMPDEST PUSH0 DUP1 PUSH0 DUP1 PUSH0 PUSH1 0xA0 DUP7 DUP9 SUB SLT ISZERO PUSH2 0x44DD JUMPI PUSH2 0x44DC PUSH2 0x3A8B JUMP JUMPDEST JUMPDEST PUSH0 PUSH2 0x44EA DUP9 DUP3 DUP10 ADD PUSH2 0x3AD9 JUMP JUMPDEST SWAP6 POP POP PUSH1 0x20 PUSH2 0x44FB DUP9 DUP3 DUP10 ADD PUSH2 0x3AD9 JUMP JUMPDEST SWAP5 POP POP PUSH1 0x40 PUSH2 0x450C DUP9 DUP3 DUP10 ADD PUSH2 0x3FFE JUMP JUMPDEST SWAP4 POP POP PUSH1 0x60 PUSH2 0x451D DUP9 DUP3 DUP10 ADD PUSH2 0x3C88 JUMP JUMPDEST SWAP3 POP POP PUSH1 0x80 DUP7 ADD CALLDATALOAD PUSH8 0xFFFFFFFFFFFFFFFF DUP2 GT ISZERO PUSH2 0x453E JUMPI PUSH2 0x453D PUSH2 0x3A8F JUMP JUMPDEST JUMPDEST PUSH2 0x454A DUP9 DUP3 DUP10 ADD PUSH2 0x3D37 JUMP JUMPDEST SWAP2 POP POP SWAP3 SWAP6 POP SWAP3 SWAP6 SWAP1 SWAP4 POP JUMP JUMPDEST PUSH0 DUP1 PUSH1 0x40 DUP4 DUP6 SUB SLT ISZERO PUSH2 0x456D JUMPI PUSH2 0x456C PUSH2 0x3A8B JUMP JUMPDEST JUMPDEST PUSH0 PUSH2 0x457A DUP6 DUP3 DUP7 ADD PUSH2 0x3FFE JUMP JUMPDEST SWAP3 POP POP PUSH1 0x20 PUSH2 0x458B DUP6 DUP3 DUP7 ADD PUSH2 0x3AD9 JUMP JUMPDEST SWAP2 POP POP SWAP3 POP SWAP3 SWAP1 POP JUMP JUMPDEST PUSH0 DUP1 PUSH1 0x40 DUP4 DUP6 SUB SLT ISZERO PUSH2 0x45AB JUMPI PUSH2 0x45AA PUSH2 0x3A8B JUMP JUMPDEST JUMPDEST PUSH0 PUSH2 0x45B8 DUP6 DUP3 DUP7 ADD PUSH2 0x3FFE JUMP JUMPDEST SWAP3 POP POP PUSH1 0x20 PUSH2 0x45C9 DUP6 DUP3 DUP7 ADD PUSH2 0x3CB2 JUMP JUMPDEST SWAP2 POP POP SWAP3 POP SWAP3 SWAP1 POP JUMP JUMPDEST PUSH0 DUP1 REVERT JUMPDEST PUSH0 DUP1 DUP4 PUSH1 0x1F DUP5 ADD SLT PUSH2 0x45EC JUMPI PUSH2 0x45EB PUSH2 0x3B49 JUMP JUMPDEST JUMPDEST DUP3 CALLDATALOAD SWAP1 POP PUSH8 0xFFFFFFFFFFFFFFFF DUP2 GT ISZERO PUSH2 0x4609 JUMPI PUSH2 0x4608 PUSH2 0x45D3 JUMP JUMPDEST JUMPDEST PUSH1 0x20 DUP4 ADD SWAP2 POP DUP4 PUSH1 0x20 DUP3 MUL DUP4 ADD GT ISZERO PUSH2 0x4625 JUMPI PUSH2 0x4624 PUSH2 0x407B JUMP JUMPDEST JUMPDEST SWAP3 POP SWAP3 SWAP1 POP JUMP JUMPDEST PUSH0 DUP1 PUSH1 0x20 DUP4 DUP6 SUB SLT ISZERO PUSH2 0x4642 JUMPI PUSH2 0x4641 PUSH2 0x3A8B JUMP JUMPDEST JUMPDEST PUSH0 DUP4 ADD CALLDATALOAD PUSH8 0xFFFFFFFFFFFFFFFF DUP2 GT ISZERO PUSH2 0x465F JUMPI PUSH2 0x465E PUSH2 0x3A8F JUMP JUMPDEST JUMPDEST PUSH2 0x466B DUP6 DUP3 DUP7 ADD PUSH2 0x45D7 JUMP JUMPDEST SWAP3 POP SWAP3 POP POP SWAP3 POP SWAP3 SWAP1 POP JUMP JUMPDEST PUSH0 PUSH8 0xFFFFFFFFFFFFFFFF DUP3 GT ISZERO PUSH2 0x4691 JUMPI PUSH2 0x4690 PUSH2 0x3B51 JUMP JUMPDEST JUMPDEST PUSH1 0x20 DUP3 MUL SWAP1 POP PUSH1 0x20 DUP2 ADD SWAP1 POP SWAP2 SWAP1 POP JUMP JUMPDEST PUSH0 PUSH2 0x46B4 PUSH2 0x46AF DUP5 PUSH2 0x4677 JUMP JUMPDEST PUSH2 0x3BAF JUMP JUMPDEST SWAP1 POP DUP1 DUP4 DUP3 MSTORE PUSH1 0x20 DUP3 ADD SWAP1 POP PUSH1 0x20 DUP5 MUL DUP4 ADD DUP6 DUP2 GT ISZERO PUSH2 0x46D7 JUMPI PUSH2 0x46D6 PUSH2 0x407B JUMP JUMPDEST JUMPDEST DUP4 JUMPDEST DUP2 DUP2 LT ISZERO PUSH2 0x4700 JUMPI DUP1 PUSH2 0x46EC DUP9 DUP3 PUSH2 0x3AD9 JUMP JUMPDEST DUP5 MSTORE PUSH1 0x20 DUP5 ADD SWAP4 POP POP PUSH1 0x20 DUP2 ADD SWAP1 POP PUSH2 0x46D9 JUMP JUMPDEST POP POP POP SWAP4 SWAP3 POP POP POP JUMP JUMPDEST PUSH0 DUP3 PUSH1 0x1F DUP4 ADD SLT PUSH2 0x471E JUMPI PUSH2 0x471D PUSH2 0x3B49 JUMP JUMPDEST JUMPDEST DUP2 CALLDATALOAD PUSH2 0x472E DUP5 DUP3 PUSH1 0x20 DUP7 ADD PUSH2 0x46A2 JUMP JUMPDEST SWAP2 POP POP SWAP3 SWAP2 POP POP JUMP JUMPDEST PUSH0 PUSH8 0xFFFFFFFFFFFFFFFF DUP3 GT ISZERO PUSH2 0x4751 JUMPI PUSH2 0x4750 PUSH2 0x3B51 JUMP JUMPDEST JUMPDEST PUSH1 0x20 DUP3 MUL SWAP1 POP PUSH1 0x20 DUP2 ADD SWAP1 POP SWAP2 SWAP1 POP JUMP JUMPDEST PUSH0 PUSH2 0x4774 PUSH2 0x476F DUP5 PUSH2 0x4737 JUMP JUMPDEST PUSH2 0x3BAF JUMP JUMPDEST SWAP1 POP DUP1 DUP4 DUP3 MSTORE PUSH1 0x20 DUP3 ADD SWAP1 POP PUSH1 0x20 DUP5 MUL DUP4 ADD DUP6 DUP2 GT ISZERO PUSH2 0x4797 JUMPI PUSH2 0x4796 PUSH2 0x407B JUMP JUMPDEST JUMPDEST DUP4 JUMPDEST DUP2 DUP2 LT ISZERO PUSH2 0x47C0 JUMPI DUP1 PUSH2 0x47AC DUP9 DUP3 PUSH2 0x3C88 JUMP JUMPDEST DUP5 MSTORE PUSH1 0x20 DUP5 ADD SWAP4 POP POP PUSH1 0x20 DUP2 ADD SWAP1 POP PUSH2 0x4799 JUMP JUMPDEST POP POP POP SWAP4 SWAP3 POP POP POP JUMP JUMPDEST PUSH0 DUP3 PUSH1 0x1F DUP4 ADD SLT PUSH2 0x47DE JUMPI PUSH2 0x47DD PUSH2 0x3B49 JUMP JUMPDEST JUMPDEST DUP2 CALLDATALOAD PUSH2 0x47EE DUP5 DUP3 PUSH1 0x20 DUP7 ADD PUSH2 0x4762 JUMP JUMPDEST SWAP2 POP POP SWAP3 SWAP2 POP POP JUMP JUMPDEST PUSH0 PUSH8 0xFFFFFFFFFFFFFFFF DUP3 GT ISZERO PUSH2 0x4811 JUMPI PUSH2 0x4810 PUSH2 0x3B51 JUMP JUMPDEST JUMPDEST PUSH1 0x20 DUP3 MUL SWAP1 POP PUSH1 0x20 DUP2 ADD SWAP1 POP SWAP2 SWAP1 POP JUMP JUMPDEST PUSH0 PUSH2 0x4834 PUSH2 0x482F DUP5 PUSH2 0x47F7 JUMP JUMPDEST PUSH2 0x3BAF JUMP JUMPDEST SWAP1 POP DUP1 DUP4 DUP3 MSTORE PUSH1 0x20 DUP3 ADD SWAP1 POP PUSH1 0x20 DUP5 MUL DUP4 ADD DUP6 DUP2 GT ISZERO PUSH2 0x4857 JUMPI PUSH2 0x4856 PUSH2 0x407B JUMP JUMPDEST JUMPDEST DUP4 JUMPDEST DUP2 DUP2 LT ISZERO PUSH2 0x489E JUMPI DUP1 CALLDATALOAD PUSH8 0xFFFFFFFFFFFFFFFF DUP2 GT ISZERO PUSH2 0x487C JUMPI PUSH2 0x487B PUSH2 0x3B49 JUMP JUMPDEST JUMPDEST DUP1 DUP7 ADD PUSH2 0x4889 DUP10 DUP3 PUSH2 0x3D37 JUMP JUMPDEST DUP6 MSTORE PUSH1 0x20 DUP6 ADD SWAP5 POP POP POP PUSH1 0x20 DUP2 ADD SWAP1 POP PUSH2 0x4859 JUMP JUMPDEST POP POP POP SWAP4 SWAP3 POP POP POP JUMP JUMPDEST PUSH0 DUP3 PUSH1 0x1F DUP4 ADD SLT PUSH2 0x48BC JUMPI PUSH2 0x48BB PUSH2 0x3B49 JUMP JUMPDEST JUMPDEST DUP2 CALLDATALOAD PUSH2 0x48CC DUP5 DUP3 PUSH1 0x20 DUP7 ADD PUSH2 0x4822 JUMP JUMPDEST SWAP2 POP POP SWAP3 SWAP2 POP POP JUMP JUMPDEST PUSH0 DUP1 PUSH0 DUP1 PUSH0 PUSH1 0xA0 DUP7 DUP9 SUB SLT ISZERO PUSH2 0x48EE JUMPI PUSH2 0x48ED PUSH2 0x3A8B JUMP JUMPDEST JUMPDEST PUSH0 DUP7 ADD CALLDATALOAD PUSH8 0xFFFFFFFFFFFFFFFF DUP2 GT ISZERO PUSH2 0x490B JUMPI PUSH2 0x490A PUSH2 0x3A8F JUMP JUMPDEST JUMPDEST PUSH2 0x4917 DUP9 DUP3 DUP10 ADD PUSH2 0x470A JUMP JUMPDEST SWAP6 POP POP PUSH1 0x20 DUP7 ADD CALLDATALOAD PUSH8 0xFFFFFFFFFFFFFFFF DUP2 GT ISZERO PUSH2 0x4938 JUMPI PUSH2 0x4937 PUSH2 0x3A8F JUMP JUMPDEST JUMPDEST PUSH2 0x4944 DUP9 DUP3 DUP10 ADD PUSH2 0x470A JUMP JUMPDEST SWAP5 POP POP PUSH1 0x40 DUP7 ADD CALLDATALOAD PUSH8 0xFFFFFFFFFFFFFFFF DUP2 GT ISZERO PUSH2 0x4965 JUMPI PUSH2 0x4964 PUSH2 0x3A8F JUMP JUMPDEST JUMPDEST PUSH2 0x4971 DUP9 DUP3 DUP10 ADD PUSH2 0x40E7 JUMP JUMPDEST SWAP4 POP POP PUSH1 0x60 DUP7 ADD CALLDATALOAD PUSH8 0xFFFFFFFFFFFFFFFF DUP2 GT ISZERO PUSH2 0x4992 JUMPI PUSH2 0x4991 PUSH2 0x3A8F JUMP JUMPDEST JUMPDEST PUSH2 0x499E DUP9 DUP3 DUP10 ADD PUSH2 0x47CA JUMP JUMPDEST SWAP3 POP POP PUSH1 0x80 DUP7 ADD CALLDATALOAD PUSH8 0xFFFFFFFFFFFFFFFF DUP2 GT ISZERO PUSH2 0x49BF JUMPI PUSH2 0x49BE PUSH2 0x3A8F JUMP JUMPDEST JUMPDEST PUSH2 0x49CB DUP9 DUP3 DUP10 ADD PUSH2 0x48A8 JUMP JUMPDEST SWAP2 POP POP SWAP3 SWAP6 POP SWAP3 SWAP6 SWAP1 SWAP4 POP JUMP JUMPDEST PUSH0 DUP1 PUSH1 0x40 DUP4 DUP6 SUB SLT ISZERO PUSH2 0x49EE JUMPI PUSH2 0x49ED PUSH2 0x3A8B JUMP JUMPDEST JUMPDEST PUSH0 PUSH2 0x49FB DUP6 DUP3 DUP7 ADD PUSH2 0x3FFE JUMP JUMPDEST SWAP3 POP POP PUSH1 0x20 DUP4 ADD CALLDATALOAD PUSH8 0xFFFFFFFFFFFFFFFF DUP2 GT ISZERO PUSH2 0x4A1C JUMPI PUSH2 0x4A1B PUSH2 0x3A8F JUMP JUMPDEST JUMPDEST PUSH2 0x4A28 DUP6 DUP3 DUP7 ADD PUSH2 0x3D37 JUMP JUMPDEST SWAP2 POP POP SWAP3 POP SWAP3 SWAP1 POP JUMP JUMPDEST PUSH0 DUP1 PUSH0 PUSH1 0x60 DUP5 DUP7 SUB SLT ISZERO PUSH2 0x4A49 JUMPI PUSH2 0x4A48 PUSH2 0x3A8B JUMP JUMPDEST JUMPDEST PUSH0 PUSH2 0x4A56 DUP7 DUP3 DUP8 ADD PUSH2 0x3AD9 JUMP JUMPDEST SWAP4 POP POP PUSH1 0x20 PUSH2 0x4A67 DUP7 DUP3 DUP8 ADD PUSH2 0x3FFE JUMP JUMPDEST SWAP3 POP POP PUSH1 0x40 DUP5 ADD CALLDATALOAD PUSH8 0xFFFFFFFFFFFFFFFF DUP2 GT ISZERO PUSH2 0x4A88 JUMPI PUSH2 0x4A87 PUSH2 0x3A8F JUMP JUMPDEST JUMPDEST PUSH2 0x4A94 DUP7 DUP3 DUP8 ADD PUSH2 0x3D37 JUMP JUMPDEST SWAP2 POP POP SWAP3 POP SWAP3 POP SWAP3 JUMP JUMPDEST PUSH0 DUP1 PUSH1 0x40 DUP4 DUP6 SUB SLT ISZERO PUSH2 0x4AB4 JUMPI PUSH2 0x4AB3 PUSH2 0x3A8B JUMP JUMPDEST JUMPDEST PUSH0 PUSH2 0x4AC1 DUP6 DUP3 DUP7 ADD PUSH2 0x3AD9 JUMP JUMPDEST SWAP3 POP POP PUSH1 0x20 DUP4 ADD CALLDATALOAD PUSH8 0xFFFFFFFFFFFFFFFF DUP2 GT ISZERO PUSH2 0x4AE2 JUMPI PUSH2 0x4AE1 PUSH2 0x3A8F JUMP JUMPDEST JUMPDEST PUSH2 0x4AEE DUP6 DUP3 DUP7 ADD PUSH2 0x3D37 JUMP JUMPDEST SWAP2 POP POP SWAP3 POP SWAP3 SWAP1 POP JUMP JUMPDEST PUSH0 DUP1 PUSH1 0x40 DUP4 DUP6 SUB SLT ISZERO PUSH2 0x4B0E JUMPI PUSH2 0x4B0D PUSH2 0x3A8B JUMP JUMPDEST JUMPDEST PUSH0 DUP4 ADD CALLDATALOAD PUSH8 0xFFFFFFFFFFFFFFFF DUP2 GT ISZERO PUSH2 0x4B2B JUMPI PUSH2 0x4B2A PUSH2 0x3A8F JUMP JUMPDEST JUMPDEST PUSH2 0x4B37 DUP6 DUP3 DUP7 ADD PUSH2 0x40E7 JUMP JUMPDEST SWAP3 POP POP PUSH1 0x20 DUP4 ADD CALLDATALOAD PUSH8 0xFFFFFFFFFFFFFFFF DUP2 GT ISZERO PUSH2 0x4B58 JUMPI PUSH2 0x4B57 PUSH2 0x3A8F JUMP JUMPDEST JUMPDEST PUSH2 0x4B64 DUP6 DUP3 DUP7 ADD PUSH2 0x48A8 JUMP JUMPDEST SWAP2 POP POP SWAP3 POP SWAP3 SWAP1 POP JUMP JUMPDEST PUSH0 DUP1 PUSH0 PUSH1 0x60 DUP5 DUP7 SUB SLT ISZERO PUSH2 0x4B85 JUMPI PUSH2 0x4B84 PUSH2 0x3A8B JUMP JUMPDEST JUMPDEST PUSH0 DUP5 ADD CALLDATALOAD PUSH8 0xFFFFFFFFFFFFFFFF DUP2 GT ISZERO PUSH2 0x4BA2 JUMPI PUSH2 0x4BA1 PUSH2 0x3A8F JUMP JUMPDEST JUMPDEST PUSH2 0x4BAE DUP7 DUP3 DUP8 ADD PUSH2 0x40E7 JUMP JUMPDEST SWAP4 POP POP PUSH1 0x20 DUP5 ADD CALLDATALOAD PUSH8 0xFFFFFFFFFFFFFFFF DUP2 GT ISZERO PUSH2 0x4BCF JUMPI PUSH2 0x4BCE PUSH2 0x3A8F JUMP JUMPDEST JUMPDEST PUSH2 0x4BDB DUP7 DUP3 DUP8 ADD PUSH2 0x40E7 JUMP JUMPDEST SWAP3 POP POP PUSH1 0x40 DUP5 ADD CALLDATALOAD PUSH8 0xFFFFFFFFFFFFFFFF DUP2 GT ISZERO PUSH2 0x4BFC JUMPI PUSH2 0x4BFB PUSH2 0x3A8F JUMP JUMPDEST JUMPDEST PUSH2 0x4C08 DUP7 DUP3 DUP8 ADD PUSH2 0x48A8 JUMP JUMPDEST SWAP2 POP POP SWAP3 POP SWAP3 POP SWAP3 JUMP JUMPDEST PUSH0 DUP1 PUSH0 PUSH1 0x60 DUP5 DUP7 SUB SLT ISZERO PUSH2 0x4C29 JUMPI PUSH2 0x4C28 PUSH2 0x3A8B JUMP JUMPDEST JUMPDEST PUSH0 PUSH2 0x4C36 DUP7 DUP3 DUP8 ADD PUSH2 0x3FFE JUMP JUMPDEST SWAP4 POP POP PUSH1 0x20 PUSH2 0x4C47 DUP7 DUP3 DUP8 ADD PUSH2 0x3FFE JUMP JUMPDEST SWAP3 POP POP PUSH1 0x40 DUP5 ADD CALLDATALOAD PUSH8 0xFFFFFFFFFFFFFFFF DUP2 GT ISZERO PUSH2 0x4C68 JUMPI PUSH2 0x4C67 PUSH2 0x3A8F JUMP JUMPDEST JUMPDEST PUSH2 0x4C74 DUP7 DUP3 DUP8 ADD PUSH2 0x3D37 JUMP JUMPDEST SWAP2 POP POP SWAP3 POP SWAP3 POP SWAP3 JUMP JUMPDEST PUSH0 DUP1 PUSH0 DUP1 PUSH1 0x80 DUP6 DUP8 SUB SLT ISZERO PUSH2 0x4C96 JUMPI PUSH2 0x4C95 PUSH2 0x3A8B JUMP JUMPDEST JUMPDEST PUSH0 PUSH2 0x4CA3 DUP8 DUP3 DUP9 ADD PUSH2 0x3AD9 JUMP JUMPDEST SWAP5 POP POP PUSH1 0x20 PUSH2 0x4CB4 DUP8 DUP3 DUP9 ADD PUSH2 0x3FFE JUMP JUMPDEST SWAP4 POP POP PUSH1 0x40 PUSH2 0x4CC5 DUP8 DUP3 DUP9 ADD PUSH2 0x3C88 JUMP JUMPDEST SWAP3 POP POP PUSH1 0x60 DUP6 ADD CALLDATALOAD PUSH8 0xFFFFFFFFFFFFFFFF DUP2 GT ISZERO PUSH2 0x4CE6 JUMPI PUSH2 0x4CE5 PUSH2 0x3A8F JUMP JUMPDEST JUMPDEST PUSH2 0x4CF2 DUP8 DUP3 DUP9 ADD PUSH2 0x3D37 JUMP JUMPDEST SWAP2 POP POP SWAP3 SWAP6 SWAP2 SWAP5 POP SWAP3 POP JUMP JUMPDEST PUSH0 PUSH1 0x20 DUP3 DUP5 SUB SLT ISZERO PUSH2 0x4D13 JUMPI PUSH2 0x4D12 PUSH2 0x3A8B JUMP JUMPDEST JUMPDEST PUSH0 DUP3 ADD CALLDATALOAD PUSH8 0xFFFFFFFFFFFFFFFF DUP2 GT ISZERO PUSH2 0x4D30 JUMPI PUSH2 0x4D2F PUSH2 0x3A8F JUMP JUMPDEST JUMPDEST PUSH2 0x4D3C DUP5 DUP3 DUP6 ADD PUSH2 0x40E7 JUMP JUMPDEST SWAP2 POP POP SWAP3 SWAP2 POP POP JUMP JUMPDEST PUSH0 DUP1 PUSH1 0x40 DUP4 DUP6 SUB SLT ISZERO PUSH2 0x4D5B JUMPI PUSH2 0x4D5A PUSH2 0x3A8B JUMP JUMPDEST JUMPDEST PUSH0 PUSH2 0x4D68 DUP6 DUP3 DUP7 ADD PUSH2 0x3AD9 JUMP JUMPDEST SWAP3 POP POP PUSH1 0x20 PUSH2 0x4D79 DUP6 DUP3 DUP7 ADD PUSH2 0x3CB2 JUMP JUMPDEST SWAP2 POP POP SWAP3 POP SWAP3 SWAP1 POP JUMP JUMPDEST PUSH2 0x4D8C DUP2 PUSH2 0x3FDF JUMP JUMPDEST DUP3 MSTORE POP POP JUMP JUMPDEST PUSH0 PUSH1 0x20 DUP3 ADD SWAP1 POP PUSH2 0x4DA5 PUSH0 DUP4 ADD DUP5 PUSH2 0x4D83 JUMP JUMPDEST SWAP3 SWAP2 POP POP JUMP JUMPDEST PUSH2 0x4DB4 DUP2 PUSH2 0x3EAD JUMP JUMPDEST DUP3 MSTORE POP POP JUMP JUMPDEST PUSH0 PUSH1 0x20 DUP3 ADD SWAP1 POP PUSH2 0x4DCD PUSH0 DUP4 ADD DUP5 PUSH2 0x4DAB JUMP JUMPDEST SWAP3 SWAP2 POP POP JUMP JUMPDEST PUSH0 DUP2 SWAP1 POP SWAP3 SWAP2 POP POP JUMP JUMPDEST PUSH0 PUSH2 0x4DE8 DUP4 DUP6 PUSH2 0x4DD3 JUMP JUMPDEST SWAP4 POP PUSH2 0x4DF5 DUP4 DUP6 DUP5 PUSH2 0x3A16 JUMP JUMPDEST DUP3 DUP5 ADD SWAP1 POP SWAP4 SWAP3 POP POP POP JUMP JUMPDEST PUSH0 DUP2 PUSH1 0x60 SHL SWAP1 POP SWAP2 SWAP1 POP JUMP JUMPDEST PUSH0 PUSH2 0x4E17 DUP3 PUSH2 0x4E01 JUMP JUMPDEST SWAP1 POP SWAP2 SWAP1 POP JUMP JUMPDEST PUSH0 PUSH2 0x4E28 DUP3 PUSH2 0x4E0D JUMP JUMPDEST SWAP1 POP SWAP2 SWAP1 POP JUMP JUMPDEST PUSH2 0x4E40 PUSH2 0x4E3B DUP3 PUSH2 0x3AB2 JUMP JUMPDEST PUSH2 0x4E1E JUMP JUMPDEST DUP3 MSTORE POP POP JUMP JUMPDEST PUSH0 DUP2 SWAP1 POP SWAP2 SWAP1 POP JUMP JUMPDEST PUSH2 0x4E60 PUSH2 0x4E5B DUP3 PUSH2 0x3B18 JUMP JUMPDEST PUSH2 0x4E46 JUMP JUMPDEST DUP3 MSTORE POP POP JUMP JUMPDEST PUSH0 PUSH2 0x4E72 DUP3 DUP7 DUP9 PUSH2 0x4DDD JUMP JUMPDEST SWAP2 POP PUSH2 0x4E7E DUP3 DUP6 PUSH2 0x4E2F JUMP JUMPDEST PUSH1 0x14 DUP3 ADD SWAP2 POP PUSH2 0x4E8E DUP3 DUP5 PUSH2 0x4E4F JUMP JUMPDEST PUSH1 0x20 DUP3 ADD SWAP2 POP DUP2 SWAP1 POP SWAP6 SWAP5 POP POP POP POP POP JUMP JUMPDEST PUSH0 PUSH2 0x4EAA DUP3 PUSH2 0x3F55 JUMP JUMPDEST PUSH2 0x4EB4 DUP2 DUP6 PUSH2 0x4DD3 JUMP JUMPDEST SWAP4 POP PUSH2 0x4EC4 DUP2 DUP6 PUSH1 0x20 DUP7 ADD PUSH2 0x3F5F JUMP JUMPDEST DUP1 DUP5 ADD SWAP2 POP POP SWAP3 SWAP2 POP POP JUMP JUMPDEST PUSH0 PUSH2 0x4EDB DUP3 DUP5 PUSH2 0x4EA0 JUMP JUMPDEST SWAP2 POP DUP2 SWAP1 POP SWAP3 SWAP2 POP POP JUMP JUMPDEST PUSH0 DUP2 MLOAD SWAP1 POP SWAP2 SWAP1 POP JUMP JUMPDEST PUSH0 DUP3 DUP3 MSTORE PUSH1 0x20 DUP3 ADD SWAP1 POP SWAP3 SWAP2 POP POP JUMP JUMPDEST PUSH0 PUSH2 0x4F0A DUP3 PUSH2 0x4EE6 JUMP JUMPDEST PUSH2 0x4F14 DUP2 DUP6 PUSH2 0x4EF0 JUMP JUMPDEST SWAP4 POP PUSH2 0x4F24 DUP2 DUP6 PUSH1 0x20 DUP7 ADD PUSH2 0x3F5F JUMP JUMPDEST PUSH2 0x4F2D DUP2 PUSH2 0x3A24 JUMP JUMPDEST DUP5 ADD SWAP2 POP POP SWAP3 SWAP2 POP POP JUMP JUMPDEST PUSH0 DUP2 SWAP1 POP SWAP2 SWAP1 POP JUMP JUMPDEST PUSH0 DUP2 SWAP1 POP SWAP2 SWAP1 POP JUMP JUMPDEST PUSH0 PUSH2 0x4F64 PUSH2 0x4F5F PUSH2 0x4F5A DUP5 PUSH2 0x4F38 JUMP JUMPDEST PUSH2 0x4F41 JUMP JUMPDEST PUSH2 0x3B18 JUMP JUMPDEST SWAP1 POP SWAP2 SWAP1 POP JUMP JUMPDEST PUSH2 0x4F74 DUP2 PUSH2 0x4F4A JUMP JUMPDEST DUP3 MSTORE POP POP JUMP JUMPDEST PUSH2 0x4F83 DUP2 PUSH2 0x3C67 JUMP JUMPDEST DUP3 MSTORE POP POP JUMP JUMPDEST PUSH2 0x4F92 DUP2 PUSH2 0x3B18 JUMP JUMPDEST DUP3 MSTORE POP POP JUMP JUMPDEST PUSH2 0x4FA1 DUP2 PUSH2 0x3AB2 JUMP JUMPDEST DUP3 MSTORE POP POP JUMP JUMPDEST PUSH0 DUP3 DUP3 MSTORE PUSH1 0x20 DUP3 ADD SWAP1 POP SWAP3 SWAP2 POP POP JUMP JUMPDEST PUSH0 PUSH2 0x4FC1 DUP3 PUSH2 0x3F55 JUMP JUMPDEST PUSH2 0x4FCB DUP2 DUP6 PUSH2 0x4FA7 JUMP JUMPDEST SWAP4 POP PUSH2 0x4FDB DUP2 DUP6 PUSH1 0x20 DUP7 ADD PUSH2 0x3F5F JUMP JUMPDEST PUSH2 0x4FE4 DUP2 PUSH2 0x3A24 JUMP JUMPDEST DUP5 ADD SWAP2 POP POP SWAP3 SWAP2 POP POP JUMP JUMPDEST PUSH0 PUSH1 0xE0 DUP3 ADD SWAP1 POP DUP2 DUP2 SUB PUSH0 DUP4 ADD MSTORE PUSH2 0x5007 DUP2 DUP11 PUSH2 0x4F00 JUMP JUMPDEST SWAP1 POP DUP2 DUP2 SUB PUSH1 0x20 DUP4 ADD MSTORE PUSH2 0x501B DUP2 DUP10 PUSH2 0x4F00 JUMP JUMPDEST SWAP1 POP PUSH2 0x502A PUSH1 0x40 DUP4 ADD DUP9 PUSH2 0x4F6B JUMP JUMPDEST PUSH2 0x5037 PUSH1 0x60 DUP4 ADD DUP8 PUSH2 0x4F7A JUMP JUMPDEST PUSH2 0x5044 PUSH1 0x80 DUP4 ADD DUP7 PUSH2 0x4F89 JUMP JUMPDEST PUSH2 0x5051 PUSH1 0xA0 DUP4 ADD DUP6 PUSH2 0x4F98 JUMP JUMPDEST DUP2 DUP2 SUB PUSH1 0xC0 DUP4 ADD MSTORE PUSH2 0x5063 DUP2 DUP5 PUSH2 0x4FB7 JUMP JUMPDEST SWAP1 POP SWAP9 SWAP8 POP POP POP POP POP POP POP POP JUMP JUMPDEST PUSH0 DUP2 MLOAD SWAP1 POP PUSH2 0x507F DUP2 PUSH2 0x3AC3 JUMP JUMPDEST SWAP3 SWAP2 POP POP JUMP JUMPDEST PUSH0 PUSH1 0x20 DUP3 DUP5 SUB SLT ISZERO PUSH2 0x509A JUMPI PUSH2 0x5099 PUSH2 0x3A8B JUMP JUMPDEST JUMPDEST PUSH0 PUSH2 0x50A7 DUP5 DUP3 DUP6 ADD PUSH2 0x5071 JUMP JUMPDEST SWAP2 POP POP SWAP3 SWAP2 POP POP JUMP JUMPDEST PUSH32 0x4E487B7100000000000000000000000000000000000000000000000000000000 PUSH0 MSTORE PUSH1 0x11 PUSH1 0x4 MSTORE PUSH1 0x24 PUSH0 REVERT JUMPDEST PUSH0 PUSH2 0x50E7 DUP3 PUSH2 0x3B18 JUMP JUMPDEST SWAP2 POP PUSH32 0xFFFFFFFFFFFFFFFFFFFFFFFFFFFFFFFFFFFFFFFFFFFFFFFFFFFFFFFFFFFFFFFF DUP3 SUB PUSH2 0x5119 JUMPI PUSH2 0x5118 PUSH2 0x50B0 JUMP JUMPDEST JUMPDEST PUSH1 0x1 DUP3 ADD SWAP1 POP SWAP2 SWAP1 POP JUMP JUMPDEST PUSH0 PUSH2 0x512E DUP3 PUSH2 0x3B18 JUMP JUMPDEST SWAP2 POP PUSH2 0x5139 DUP4 PUSH2 0x3B18 JUMP JUMPDEST SWAP3 POP DUP3 DUP3 ADD SWAP1 POP DUP1 DUP3 GT ISZERO PUSH2 0x5151 JUMPI PUSH2 0x5150 PUSH2 0x50B0 JUMP JUMPDEST JUMPDEST SWAP3 SWAP2 POP POP JUMP JUMPDEST PUSH32 0x4E487B7100000000000000000000000000000000000000000000000000000000 PUSH0 MSTORE PUSH1 0x22 PUSH1 0x4 MSTORE PUSH1 0x24 PUSH0 REVERT JUMPDEST PUSH0 PUSH1 0x2 DUP3 DIV SWAP1 POP PUSH1 0x1 DUP3 AND DUP1 PUSH2 0x519B JUMPI PUSH1 0x7F DUP3 AND SWAP2 POP JUMPDEST PUSH1 0x20 DUP3 LT DUP2 SUB PUSH2 0x51AE JUMPI PUSH2 0x51AD PUSH2 0x5157 JUMP JUMPDEST JUMPDEST POP SWAP2 SWAP1 POP JUMP JUMPDEST PUSH32 0x4E487B7100000000000000000000000000000000000000000000000000000000 PUSH0 MSTORE PUSH1 0x32 PUSH1 0x4 MSTORE PUSH1 0x24 PUSH0 REVERT JUMPDEST PUSH0 PUSH1 0x40 DUP3 ADD SWAP1 POP PUSH2 0x51F4 PUSH0 DUP4 ADD DUP6 PUSH2 0x4D83 JUMP JUMPDEST PUSH2 0x5201 PUSH1 0x20 DUP4 ADD DUP5 PUSH2 0x3E85 JUMP JUMPDEST SWAP4 SWAP3 POP POP POP JUMP JUMPDEST PUSH0 DUP1 REVERT JUMPDEST PUSH0 DUP1 REVERT JUMPDEST PUSH0 DUP1 REVERT JUMPDEST PUSH0 DUP1 DUP4 CALLDATALOAD PUSH1 0x1 PUSH1 0x20 SUB DUP5 CALLDATASIZE SUB SUB DUP2 SLT PUSH2 0x5230 JUMPI PUSH2 0x522F PUSH2 0x5208 JUMP JUMPDEST JUMPDEST DUP1 DUP5 ADD SWAP3 POP DUP3 CALLDATALOAD SWAP2 POP PUSH8 0xFFFFFFFFFFFFFFFF DUP3 GT ISZERO PUSH2 0x5252 JUMPI PUSH2 0x5251 PUSH2 0x520C JUMP JUMPDEST JUMPDEST PUSH1 0x20 DUP4 ADD SWAP3 POP PUSH1 0x1 DUP3 MUL CALLDATASIZE SUB DUP4 SGT ISZERO PUSH2 0x526E JUMPI PUSH2 0x526D PUSH2 0x5210 JUMP JUMPDEST JUMPDEST POP SWAP3 POP SWAP3 SWAP1 POP JUMP JUMPDEST PUSH0 PUSH2 0x5282 DUP3 DUP5 DUP7 PUSH2 0x4DDD JUMP JUMPDEST SWAP2 POP DUP2 SWAP1 POP SWAP4 SWAP3 POP POP POP JUMP JUMPDEST PUSH0 DUP3 DUP3 MSTORE PUSH1 0x20 DUP3 ADD SWAP1 POP SWAP3 SWAP2 POP POP JUMP JUMPDEST PUSH32 0x596F752063616E206F6E6C79206C696B65206120746F6B656E206F6E63650000 PUSH0 DUP3 ADD MSTORE POP JUMP JUMPDEST PUSH0 PUSH2 0x52D2 PUSH1 0x1E DUP4 PUSH2 0x528E JUMP JUMPDEST SWAP2 POP PUSH2 0x52DD DUP3 PUSH2 0x529E JUMP JUMPDEST PUSH1 0x20 DUP3 ADD SWAP1 POP SWAP2 SWAP1 POP JUMP JUMPDEST PUSH0 PUSH1 0x20 DUP3 ADD SWAP1 POP DUP2 DUP2 SUB PUSH0 DUP4 ADD MSTORE PUSH2 0x52FF DUP2 PUSH2 0x52C6 JUMP JUMPDEST SWAP1 POP SWAP2 SWAP1 POP JUMP JUMPDEST PUSH0 PUSH1 0x60 DUP3 ADD SWAP1 POP PUSH2 0x5319 PUSH0 DUP4 ADD DUP7 PUSH2 0x3E85 JUMP JUMPDEST PUSH2 0x5326 PUSH1 0x20 DUP4 ADD DUP6 PUSH2 0x4D83 JUMP JUMPDEST PUSH2 0x5333 PUSH1 0x40 DUP4 ADD DUP5 PUSH2 0x3E85 JUMP JUMPDEST SWAP5 SWAP4 POP POP POP POP JUMP JUMPDEST PUSH0 PUSH1 0x40 DUP3 ADD SWAP1 POP PUSH2 0x534E PUSH0 DUP4 ADD DUP6 PUSH2 0x3E85 JUMP JUMPDEST PUSH2 0x535B PUSH1 0x20 DUP4 ADD DUP5 PUSH2 0x4D83 JUMP JUMPDEST SWAP4 SWAP3 POP POP POP JUMP JUMPDEST PUSH0 PUSH1 0x80 DUP3 ADD SWAP1 POP PUSH2 0x5375 PUSH0 DUP4 ADD DUP8 PUSH2 0x3E85 JUMP JUMPDEST PUSH2 0x5382 PUSH1 0x20 DUP4 ADD DUP7 PUSH2 0x4D83 JUMP JUMPDEST PUSH2 0x538F PUSH1 0x40 DUP4 ADD DUP6 PUSH2 0x3F2D JUMP JUMPDEST DUP2 DUP2 SUB PUSH1 0x60 DUP4 ADD MSTORE PUSH2 0x53A1 DUP2 DUP5 PUSH2 0x3F87 JUMP JUMPDEST SWAP1 POP SWAP6 SWAP5 POP POP POP POP POP JUMP JUMPDEST PUSH0 DUP2 SWAP1 POP DUP2 PUSH0 MSTORE PUSH1 0x20 PUSH0 KECCAK256 SWAP1 POP SWAP2 SWAP1 POP JUMP JUMPDEST PUSH0 PUSH1 0x20 PUSH1 0x1F DUP4 ADD DIV SWAP1 POP SWAP2 SWAP1 POP JUMP JUMPDEST PUSH0 DUP3 DUP3 SHL SWAP1 POP SWAP3 SWAP2 POP POP JUMP JUMPDEST PUSH0 PUSH1 0x8 DUP4 MUL PUSH2 0x5408 PUSH32 0xFFFFFFFFFFFFFFFFFFFFFFFFFFFFFFFFFFFFFFFFFFFFFFFFFFFFFFFFFFFFFFFF DUP3 PUSH2 0x53CD JUMP JUMPDEST PUSH2 0x5412 DUP7 DUP4 PUSH2 0x53CD JUMP JUMPDEST SWAP6 POP DUP1 NOT DUP5 AND SWAP4 POP DUP1 DUP7 AND DUP5 OR SWAP3 POP POP POP SWAP4 SWAP3 POP POP POP JUMP JUMPDEST PUSH0 PUSH2 0x5444 PUSH2 0x543F PUSH2 0x543A DUP5 PUSH2 0x3B18 JUMP JUMPDEST PUSH2 0x4F41 JUMP JUMPDEST PUSH2 0x3B18 JUMP JUMPDEST SWAP1 POP SWAP2 SWAP1 POP JUMP JUMPDEST PUSH0 DUP2 SWAP1 POP SWAP2 SWAP1 POP JUMP JUMPDEST PUSH2 0x545D DUP4 PUSH2 0x542A JUMP JUMPDEST PUSH2 0x5471 PUSH2 0x5469 DUP3 PUSH2 0x544B JUMP JUMPDEST DUP5 DUP5 SLOAD PUSH2 0x53D9 JUMP JUMPDEST DUP3 SSTORE POP POP POP POP JUMP JUMPDEST PUSH0 SWAP1 JUMP JUMPDEST PUSH2 0x5485 PUSH2 0x5479 JUMP JUMPDEST PUSH2 0x5490 DUP2 DUP5 DUP5 PUSH2 0x5454 JUMP JUMPDEST POP POP POP JUMP JUMPDEST JUMPDEST DUP2 DUP2 LT ISZERO PUSH2 0x54B3 JUMPI PUSH2 0x54A8 PUSH0 DUP3 PUSH2 0x547D JUMP JUMPDEST PUSH1 0x1 DUP2 ADD SWAP1 POP PUSH2 0x5496 JUMP JUMPDEST POP POP JUMP JUMPDEST PUSH1 0x1F DUP3 GT ISZERO PUSH2 0x54F8 JUMPI PUSH2 0x54C9 DUP2 PUSH2 0x53AC JUMP JUMPDEST PUSH2 0x54D2 DUP5 PUSH2 0x53BE JUMP JUMPDEST DUP2 ADD PUSH1 0x20 DUP6 LT ISZERO PUSH2 0x54E1 JUMPI DUP2 SWAP1 POP JUMPDEST PUSH2 0x54F5 PUSH2 0x54ED DUP6 PUSH2 0x53BE JUMP JUMPDEST DUP4 ADD DUP3 PUSH2 0x5495 JUMP JUMPDEST POP POP JUMPDEST POP POP POP JUMP JUMPDEST PUSH0 DUP3 DUP3 SHR SWAP1 POP SWAP3 SWAP2 POP POP JUMP JUMPDEST PUSH0 PUSH2 0x5518 PUSH0 NOT DUP5 PUSH1 0x8 MUL PUSH2 0x54FD JUMP JUMPDEST NOT DUP1 DUP4 AND SWAP2 POP POP SWAP3 SWAP2 POP POP JUMP JUMPDEST PUSH0 PUSH2 0x5530 DUP4 DUP4 PUSH2 0x5509 JUMP JUMPDEST SWAP2 POP DUP3 PUSH1 0x2 MUL DUP3 OR SWAP1 POP SWAP3 SWAP2 POP POP JUMP JUMPDEST PUSH2 0x5549 DUP3 PUSH2 0x3F55 JUMP JUMPDEST PUSH8 0xFFFFFFFFFFFFFFFF DUP2 GT ISZERO PUSH2 0x5562 JUMPI PUSH2 0x5561 PUSH2 0x3B51 JUMP JUMPDEST JUMPDEST PUSH2 0x556C DUP3 SLOAD PUSH2 0x5184 JUMP JUMPDEST PUSH2 0x5577 DUP3 DUP3 DUP6 PUSH2 0x54B7 JUMP JUMPDEST PUSH0 PUSH1 0x20 SWAP1 POP PUSH1 0x1F DUP4 GT PUSH1 0x1 DUP2 EQ PUSH2 0x55A8 JUMPI PUSH0 DUP5 ISZERO PUSH2 0x5596 JUMPI DUP3 DUP8 ADD MLOAD SWAP1 POP JUMPDEST PUSH2 0x55A0 DUP6 DUP3 PUSH2 0x5525 JUMP JUMPDEST DUP7 SSTORE POP PUSH2 0x5607 JUMP JUMPDEST PUSH1 0x1F NOT DUP5 AND PUSH2 0x55B6 DUP7 PUSH2 0x53AC JUMP JUMPDEST PUSH0 JUMPDEST DUP3 DUP2 LT ISZERO PUSH2 0x55DD JUMPI DUP5 DUP10 ADD MLOAD DUP3 SSTORE PUSH1 0x1 DUP3 ADD SWAP2 POP PUSH1 0x20 DUP6 ADD SWAP5 POP PUSH1 0x20 DUP2 ADD SWAP1 POP PUSH2 0x55B8 JUMP JUMPDEST DUP7 DUP4 LT ISZERO PUSH2 0x55FA JUMPI DUP5 DUP10 ADD MLOAD PUSH2 0x55F6 PUSH1 0x1F DUP10 AND DUP3 PUSH2 0x5509 JUMP JUMPDEST DUP4 SSTORE POP JUMPDEST PUSH1 0x1 PUSH1 0x2 DUP9 MUL ADD DUP9 SSTORE POP POP POP JUMPDEST POP POP POP POP POP POP JUMP JUMPDEST PUSH0 PUSH1 0x60 DUP3 ADD SWAP1 POP PUSH2 0x5622 PUSH0 DUP4 ADD DUP7 PUSH2 0x3E85 JUMP JUMPDEST PUSH2 0x562F PUSH1 0x20 DUP4 ADD DUP6 PUSH2 0x3E85 JUMP JUMPDEST PUSH2 0x563C PUSH1 0x40 DUP4 ADD DUP5 PUSH2 0x4D83 JUMP JUMPDEST SWAP5 SWAP4 POP POP POP POP JUMP JUMPDEST PUSH0 DUP2 SWAP1 POP PUSH1 0x20 DUP3 ADD SWAP1 POP SWAP2 SWAP1 POP JUMP JUMPDEST PUSH0 PUSH32 0xFFFFFFFFFFFFFFFFFFFFFFFFFFFFFFFFFFFFFFFF000000000000000000000000 DUP3 AND SWAP1 POP SWAP2 SWAP1 POP JUMP JUMPDEST PUSH0 PUSH2 0x5689 DUP3 MLOAD PUSH2 0x5653 JUMP JUMPDEST DUP1 SWAP2 POP POP SWAP2 SWAP1 POP JUMP JUMPDEST PUSH0 PUSH2 0x569C DUP3 PUSH2 0x3F55 JUMP JUMPDEST DUP3 PUSH2 0x56A6 DUP5 PUSH2 0x5644 JUMP JUMPDEST SWAP1 POP PUSH2 0x56B1 DUP2 PUSH2 0x567E JUMP JUMPDEST SWAP3 POP PUSH1 0x14 DUP3 LT ISZERO PUSH2 0x56F1 JUMPI PUSH2 0x56EC PUSH32 0xFFFFFFFFFFFFFFFFFFFFFFFFFFFFFFFFFFFFFFFF000000000000000000000000 DUP4 PUSH1 0x14 SUB PUSH1 0x8 MUL PUSH2 0x53CD JUMP JUMPDEST DUP4 AND SWAP3 POP JUMPDEST POP POP SWAP2 SWAP1 POP JUMP JUMPDEST PUSH0 PUSH1 0x60 DUP3 ADD SWAP1 POP PUSH2 0x570B PUSH0 DUP4 ADD DUP7 PUSH2 0x3E85 JUMP JUMPDEST PUSH2 0x5718 PUSH1 0x20 DUP4 ADD DUP6 PUSH2 0x3F2D JUMP JUMPDEST DUP2 DUP2 SUB PUSH1 0x40 DUP4 ADD MSTORE PUSH2 0x572A DUP2 DUP5 PUSH2 0x3F87 JUMP JUMPDEST SWAP1 POP SWAP5 SWAP4 POP POP POP POP JUMP JUMPDEST PUSH0 PUSH1 0xA0 DUP3 ADD SWAP1 POP PUSH2 0x5747 PUSH0 DUP4 ADD DUP9 PUSH2 0x3E85 JUMP JUMPDEST PUSH2 0x5754 PUSH1 0x20 DUP4 ADD DUP8 PUSH2 0x3E85 JUMP JUMPDEST PUSH2 0x5761 PUSH1 0x40 DUP4 ADD DUP7 PUSH2 0x3E85 JUMP JUMPDEST PUSH2 0x576E PUSH1 0x60 DUP4 ADD DUP6 PUSH2 0x4D83 JUMP JUMPDEST DUP2 DUP2 SUB PUSH1 0x80 DUP4 ADD MSTORE PUSH2 0x5780 DUP2 DUP5 PUSH2 0x3F87 JUMP JUMPDEST SWAP1 POP SWAP7 SWAP6 POP POP POP POP POP POP JUMP JUMPDEST PUSH0 PUSH1 0x60 DUP3 ADD SWAP1 POP PUSH2 0x579F PUSH0 DUP4 ADD DUP7 PUSH2 0x4D83 JUMP JUMPDEST PUSH2 0x57AC PUSH1 0x20 DUP4 ADD DUP6 PUSH2 0x3E85 JUMP JUMPDEST PUSH2 0x57B9 PUSH1 0x40 DUP4 ADD DUP5 PUSH2 0x3E85 JUMP JUMPDEST SWAP5 SWAP4 POP POP POP POP JUMP JUMPDEST PUSH0 PUSH1 0x40 DUP3 ADD SWAP1 POP PUSH2 0x57D4 PUSH0 DUP4 ADD DUP6 PUSH2 0x3F2D JUMP JUMPDEST DUP2 DUP2 SUB PUSH1 0x20 DUP4 ADD MSTORE PUSH2 0x57E6 DUP2 DUP5 PUSH2 0x3F87 JUMP JUMPDEST SWAP1 POP SWAP4 SWAP3 POP POP POP JUMP JUMPDEST PUSH0 PUSH32 0xFFFFFFFFFFFFFFFFFFFF00000000000000000000000000000000000000000000 DUP3 AND SWAP1 POP SWAP2 SWAP1 POP JUMP JUMPDEST PUSH0 DUP2 SWAP1 POP SWAP2 SWAP1 POP JUMP JUMPDEST PUSH2 0x5834 PUSH2 0x582F DUP3 PUSH2 0x57EF JUMP JUMPDEST PUSH2 0x581A JUMP JUMPDEST DUP3 MSTORE POP POP JUMP JUMPDEST PUSH0 PUSH32 0xFFFF000000000000000000000000000000000000000000000000000000000000 DUP3 AND SWAP1 POP SWAP2 SWAP1 POP JUMP JUMPDEST PUSH0 DUP2 SWAP1 POP SWAP2 SWAP1 POP JUMP JUMPDEST PUSH2 0x587F PUSH2 0x587A DUP3 PUSH2 0x583A JUMP JUMPDEST PUSH2 0x5865 JUMP JUMPDEST DUP3 MSTORE POP POP JUMP JUMPDEST PUSH0 DUP2 SWAP1 POP SWAP2 SWAP1 POP JUMP JUMPDEST PUSH2 0x589F PUSH2 0x589A DUP3 PUSH2 0x5653 JUMP JUMPDEST PUSH2 0x5885 JUMP JUMPDEST DUP3 MSTORE POP POP JUMP JUMPDEST PUSH0 PUSH2 0x58B0 DUP3 DUP7 PUSH2 0x5823 JUMP JUMPDEST PUSH1 0xA DUP3 ADD SWAP2 POP PUSH2 0x58C0 DUP3 DUP6 PUSH2 0x586E JUMP JUMPDEST PUSH1 0x2 DUP3 ADD SWAP2 POP PUSH2 0x58D0 DUP3 DUP5 PUSH2 0x588E JUMP JUMPDEST PUSH1 0x14 DUP3 ADD SWAP2 POP DUP2 SWAP1 POP SWAP5 SWAP4 POP POP POP POP JUMP JUMPDEST PUSH0 PUSH2 0x58EC DUP3 MLOAD PUSH2 0x3FDF JUMP JUMPDEST DUP1 SWAP2 POP POP SWAP2 SWAP1 POP JUMP JUMPDEST PUSH0 PUSH2 0x58FF DUP3 PUSH2 0x3F55 JUMP JUMPDEST DUP3 PUSH2 0x5909 DUP5 PUSH2 0x5644 JUMP JUMPDEST SWAP1 POP PUSH2 0x5914 DUP2 PUSH2 0x58E1 JUMP JUMPDEST SWAP3 POP PUSH1 0x20 DUP3 LT ISZERO PUSH2 0x5954 JUMPI PUSH2 0x594F PUSH32 0xFFFFFFFFFFFFFFFFFFFFFFFFFFFFFFFFFFFFFFFFFFFFFFFFFFFFFFFFFFFFFFFF DUP4 PUSH1 0x20 SUB PUSH1 0x8 MUL PUSH2 0x53CD JUMP JUMPDEST DUP4 AND SWAP3 POP JUMPDEST POP POP SWAP2 SWAP1 POP JUMP JUMPDEST PUSH0 PUSH1 0x40 DUP3 ADD SWAP1 POP PUSH2 0x596E PUSH0 DUP4 ADD DUP6 PUSH2 0x4D83 JUMP JUMPDEST DUP2 DUP2 SUB PUSH1 0x20 DUP4 ADD MSTORE PUSH2 0x5980 DUP2 DUP5 PUSH2 0x3F87 JUMP JUMPDEST SWAP1 POP SWAP4 SWAP3 POP POP POP JUMP JUMPDEST PUSH0 PUSH2 0x599B PUSH2 0x5996 DUP5 PUSH2 0x3CC6 JUMP JUMPDEST PUSH2 0x3BAF JUMP JUMPDEST SWAP1 POP DUP3 DUP2 MSTORE PUSH1 0x20 DUP2 ADD DUP5 DUP5 DUP5 ADD GT ISZERO PUSH2 0x59B7 JUMPI PUSH2 0x59B6 PUSH2 0x3B4D JUMP JUMPDEST JUMPDEST PUSH2 0x59C2 DUP5 DUP3 DUP6 PUSH2 0x3F5F JUMP JUMPDEST POP SWAP4 SWAP3 POP POP POP JUMP JUMPDEST PUSH0 DUP3 PUSH1 0x1F DUP4 ADD SLT PUSH2 0x59DE JUMPI PUSH2 0x59DD PUSH2 0x3B49 JUMP JUMPDEST JUMPDEST DUP2 MLOAD PUSH2 0x59EE DUP5 DUP3 PUSH1 0x20 DUP7 ADD PUSH2 0x5989 JUMP JUMPDEST SWAP2 POP POP SWAP3 SWAP2 POP POP JUMP JUMPDEST PUSH0 PUSH1 0x20 DUP3 DUP5 SUB SLT ISZERO PUSH2 0x5A0C JUMPI PUSH2 0x5A0B PUSH2 0x3A8B JUMP JUMPDEST JUMPDEST PUSH0 DUP3 ADD MLOAD PUSH8 0xFFFFFFFFFFFFFFFF DUP2 GT ISZERO PUSH2 0x5A29 JUMPI PUSH2 0x5A28 PUSH2 0x3A8F JUMP JUMPDEST JUMPDEST PUSH2 0x5A35 DUP5 DUP3 DUP6 ADD PUSH2 0x59CA JUMP JUMPDEST SWAP2 POP POP SWAP3 SWAP2 POP POP JUMP JUMPDEST PUSH0 PUSH2 0x5A48 DUP3 PUSH2 0x3B18 JUMP JUMPDEST SWAP2 POP PUSH2 0x5A53 DUP4 PUSH2 0x3B18 JUMP JUMPDEST SWAP3 POP DUP3 DUP3 SUB SWAP1 POP DUP2 DUP2 GT ISZERO PUSH2 0x5A6B JUMPI PUSH2 0x5A6A PUSH2 0x50B0 JUMP JUMPDEST JUMPDEST SWAP3 SWAP2 POP POP JUMP JUMPDEST PUSH32 0x4E487B7100000000000000000000000000000000000000000000000000000000 PUSH0 MSTORE PUSH1 0x31 PUSH1 0x4 MSTORE PUSH1 0x24 PUSH0 REVERT INVALID LOG2 PUSH5 0x6970667358 0x22 SLT KECCAK256 0xCF 0xCC SMOD PUSH12 0xCAE098A5E032134C32E4ECD5 PUSH25 0x90E6A95FC52DA6D95538546C847BC364736F6C634300081400 CALLER "
		},
		"gasEstimates": {
			"creation": {
				"codeDepositCost": "4650400",
				"executionCost": "infinite",
				"totalCost": "infinite"
			},
			"external": {
				"": "infinite",
				"authorizeOperator(address,bytes32,bytes)": "infinite",
				"balanceOf(address)": "3021",
				"batchCalls(bytes[])": "infinite",
				"canClaimReward(address)": "infinite",
				"encryptedEncryptionKeys(address)": "infinite",
				"getAllMoments(address)": "infinite",
				"getData(bytes32)": "infinite",
				"getDataBatch(bytes32[])": "infinite",
				"getDataBatchForTokenIds(bytes32[],bytes32[])": "infinite",
				"getDataForTokenId(bytes32,bytes32)": "infinite",
				"getEncryptedKey(address)": "infinite",
				"getLikes(bytes32)": "infinite",
				"getMintingDate(address)": "2897",
				"getNFTcounts(address)": "2941",
				"getOperatorsOf(bytes32)": "infinite",
				"hasLiked(bytes32,address)": "3182",
				"isOperatorFor(address,bytes32)": "infinite",
				"lastClaimed(address)": "2849",
				"like(bytes32)": "77471",
				"mint(string,string,bool,uint256,address,bytes,bytes,address)": "infinite",
				"mintingDates(address)": "2890",
				"moments(address,uint256)": "5283",
				"owner()": "2626",
				"renounceOwnership()": "infinite",
				"revokeOperator(address,bytes32,bool,bytes)": "infinite",
				"setData(bytes32,bytes)": "infinite",
				"setDataBatch(bytes32[],bytes[])": "infinite",
				"setDataBatchForTokenIds(bytes32[],bytes32[],bytes[])": "infinite",
				"setDataForTokenId(bytes32,bytes32,bytes)": "infinite",
				"storeEncryptedKey(address,bytes)": "infinite",
				"supportsInterface(bytes4)": "infinite",
				"tokenIdsOf(address)": "infinite",
				"tokenLikes(bytes32,uint256)": "5228",
				"tokenOwnerOf(bytes32)": "infinite",
				"totalNFTcounts(address)": "2892",
				"totalSupply()": "2544",
				"transfer(address,address,bytes32,bool,bytes)": "infinite",
				"transferBatch(address[],address[],bytes32[],bool[],bytes[])": "infinite",
				"transferOwnership(address)": "infinite"
			},
			"internal": {
				"_getDataForTokenId(bytes32,bytes32)": "infinite",
				"_setDataForTokenId(bytes32,bytes32,bytes memory)": "infinite"
			}
		},
		"methodIdentifiers": {
			"authorizeOperator(address,bytes32,bytes)": "86a10ddd",
			"balanceOf(address)": "70a08231",
			"batchCalls(bytes[])": "6963d438",
			"canClaimReward(address)": "046335d0",
			"encryptedEncryptionKeys(address)": "075bf131",
			"getAllMoments(address)": "4046b9fd",
			"getData(bytes32)": "54f6127f",
			"getDataBatch(bytes32[])": "dedff9c6",
			"getDataBatchForTokenIds(bytes32[],bytes32[])": "1d26fce6",
			"getDataForTokenId(bytes32,bytes32)": "16e023b3",
			"getEncryptedKey(address)": "4b74a1f1",
			"getLikes(bytes32)": "d54488fe",
			"getMintingDate(address)": "0c590f51",
			"getNFTcounts(address)": "3db3ed30",
			"getOperatorsOf(bytes32)": "49a6078d",
			"hasLiked(bytes32,address)": "5283c480",
			"isOperatorFor(address,bytes32)": "2a3654a4",
			"lastClaimed(address)": "013eba92",
			"like(bytes32)": "7aad1f7d",
			"mint(string,string,bool,uint256,address,bytes,bytes,address)": "0183c191",
			"mintingDates(address)": "f08e076d",
			"moments(address,uint256)": "f4e4fb41",
			"owner()": "8da5cb5b",
			"renounceOwnership()": "715018a6",
			"revokeOperator(address,bytes32,bool,bytes)": "db8c9663",
			"setData(bytes32,bytes)": "7f23690c",
			"setDataBatch(bytes32[],bytes[])": "97902421",
			"setDataBatchForTokenIds(bytes32[],bytes32[],bytes[])": "be9f0e6f",
			"setDataForTokenId(bytes32,bytes32,bytes)": "d6c1407c",
			"storeEncryptedKey(address,bytes)": "92e18c4a",
			"supportsInterface(bytes4)": "01ffc9a7",
			"tokenIdsOf(address)": "a3b261f2",
			"tokenLikes(bytes32,uint256)": "5acc786e",
			"tokenOwnerOf(bytes32)": "217b2270",
			"totalNFTcounts(address)": "3a0f787f",
			"totalSupply()": "18160ddd",
			"transfer(address,address,bytes32,bool,bytes)": "511b6952",
			"transferBatch(address[],address[],bytes32[],bool[],bytes[])": "7e87632c",
			"transferOwnership(address)": "f2fde38b"
		}
	},
	"abi": [
		{
			"inputs": [
				{
					"internalType": "string",
					"name": "name_",
					"type": "string"
				},
				{
					"internalType": "string",
					"name": "symbol_",
					"type": "string"
				},
				{
					"internalType": "address",
					"name": "newOwner_",
					"type": "address"
				},
				{
					"internalType": "uint256",
					"name": "lsp4TokenType_",
					"type": "uint256"
				},
				{
					"internalType": "bytes",
					"name": "lsp4MetadataURI_",
					"type": "bytes"
				}
			],
			"stateMutability": "nonpayable",
			"type": "constructor"
		},
		{
			"inputs": [],
			"name": "ERC725Y_DataKeysValuesEmptyArray",
			"type": "error"
		},
		{
			"inputs": [],
			"name": "ERC725Y_DataKeysValuesLengthMismatch",
			"type": "error"
		},
		{
			"inputs": [],
			"name": "ERC725Y_MsgValueDisallowed",
			"type": "error"
		},
		{
			"inputs": [
				{
					"internalType": "bytes",
					"name": "storedData",
					"type": "bytes"
				}
			],
			"name": "InvalidExtensionAddress",
			"type": "error"
		},
		{
			"inputs": [
				{
					"internalType": "bytes",
					"name": "data",
					"type": "bytes"
				}
			],
			"name": "InvalidFunctionSelector",
			"type": "error"
		},
		{
			"inputs": [],
			"name": "LSP4TokenNameNotEditable",
			"type": "error"
		},
		{
			"inputs": [],
			"name": "LSP4TokenSymbolNotEditable",
			"type": "error"
		},
		{
			"inputs": [],
			"name": "LSP4TokenTypeNotEditable",
			"type": "error"
		},
		{
			"inputs": [
				{
					"internalType": "uint256",
					"name": "callIndex",
					"type": "uint256"
				}
			],
			"name": "LSP8BatchCallFailed",
			"type": "error"
		},
		{
			"inputs": [],
			"name": "LSP8CannotSendToAddressZero",
			"type": "error"
		},
		{
			"inputs": [],
			"name": "LSP8CannotUseAddressZeroAsOperator",
			"type": "error"
		},
		{
			"inputs": [],
			"name": "LSP8InvalidTransferBatch",
			"type": "error"
		},
		{
			"inputs": [
				{
					"internalType": "bytes32",
					"name": "tokenId",
					"type": "bytes32"
				}
			],
			"name": "LSP8NonExistentTokenId",
			"type": "error"
		},
		{
			"inputs": [
				{
					"internalType": "address",
					"name": "operator",
					"type": "address"
				},
				{
					"internalType": "bytes32",
					"name": "tokenId",
					"type": "bytes32"
				}
			],
			"name": "LSP8NonExistingOperator",
			"type": "error"
		},
		{
			"inputs": [
				{
					"internalType": "bytes32",
					"name": "tokenId",
					"type": "bytes32"
				},
				{
					"internalType": "address",
					"name": "caller",
					"type": "address"
				}
			],
			"name": "LSP8NotTokenOperator",
			"type": "error"
		},
		{
			"inputs": [
				{
					"internalType": "address",
					"name": "tokenOwner",
					"type": "address"
				},
				{
					"internalType": "bytes32",
					"name": "tokenId",
					"type": "bytes32"
				},
				{
					"internalType": "address",
					"name": "caller",
					"type": "address"
				}
			],
			"name": "LSP8NotTokenOwner",
			"type": "error"
		},
		{
			"inputs": [
				{
					"internalType": "address",
					"name": "tokenReceiver",
					"type": "address"
				}
			],
			"name": "LSP8NotifyTokenReceiverContractMissingLSP1Interface",
			"type": "error"
		},
		{
			"inputs": [
				{
					"internalType": "address",
					"name": "tokenReceiver",
					"type": "address"
				}
			],
			"name": "LSP8NotifyTokenReceiverIsEOA",
			"type": "error"
		},
		{
			"inputs": [
				{
					"internalType": "address",
					"name": "operator",
					"type": "address"
				},
				{
					"internalType": "bytes32",
					"name": "tokenId",
					"type": "bytes32"
				}
			],
			"name": "LSP8OperatorAlreadyAuthorized",
			"type": "error"
		},
		{
			"inputs": [
				{
					"internalType": "address",
					"name": "caller",
					"type": "address"
				},
				{
					"internalType": "address",
					"name": "tokenOwner",
					"type": "address"
				},
				{
					"internalType": "bytes32",
					"name": "tokenId",
					"type": "bytes32"
				}
			],
			"name": "LSP8RevokeOperatorNotAuthorized",
			"type": "error"
		},
		{
			"inputs": [],
			"name": "LSP8TokenContractCannotHoldValue",
			"type": "error"
		},
		{
			"inputs": [
				{
					"internalType": "bytes32",
					"name": "tokenId",
					"type": "bytes32"
				}
			],
			"name": "LSP8TokenIdAlreadyMinted",
			"type": "error"
		},
		{
			"inputs": [],
			"name": "LSP8TokenIdFormatNotEditable",
			"type": "error"
		},
		{
			"inputs": [],
			"name": "LSP8TokenIdsDataEmptyArray",
			"type": "error"
		},
		{
			"inputs": [],
			"name": "LSP8TokenIdsDataLengthMismatch",
			"type": "error"
		},
		{
			"inputs": [],
			"name": "LSP8TokenOwnerCannotBeOperator",
			"type": "error"
		},
		{
			"inputs": [
				{
					"internalType": "bytes32",
					"name": "tokenId",
					"type": "bytes32"
				},
				{
					"internalType": "address",
					"name": "oldOwner",
					"type": "address"
				},
				{
					"internalType": "address",
					"name": "newOwner",
					"type": "address"
				}
			],
			"name": "LSP8TokenOwnerChanged",
			"type": "error"
		},
		{
			"inputs": [
				{
					"internalType": "bytes4",
					"name": "functionSelector",
					"type": "bytes4"
				}
			],
			"name": "NoExtensionFoundForFunctionSelector",
			"type": "error"
		},
		{
			"inputs": [
				{
					"internalType": "address",
					"name": "callerAddress",
					"type": "address"
				}
			],
			"name": "OwnableCallerNotTheOwner",
			"type": "error"
		},
		{
			"inputs": [],
			"name": "OwnableCannotSetZeroAddressAsOwner",
			"type": "error"
		},
		{
			"anonymous": false,
			"inputs": [
				{
					"indexed": true,
					"internalType": "bytes32",
					"name": "dataKey",
					"type": "bytes32"
				},
				{
					"indexed": false,
					"internalType": "bytes",
					"name": "dataValue",
					"type": "bytes"
				}
			],
			"name": "DataChanged",
			"type": "event"
		},
		{
			"anonymous": false,
			"inputs": [
				{
					"indexed": true,
					"internalType": "address",
					"name": "liker",
					"type": "address"
				},
				{
					"indexed": true,
					"internalType": "bytes32",
					"name": "tokenId",
					"type": "bytes32"
				}
			],
			"name": "Like",
			"type": "event"
		},
		{
			"anonymous": false,
			"inputs": [
				{
					"indexed": true,
					"internalType": "address",
					"name": "minter",
					"type": "address"
				},
				{
					"indexed": true,
					"internalType": "address",
					"name": "lsp7SubCollectionAddress",
					"type": "address"
				},
				{
					"indexed": false,
					"internalType": "uint256",
					"name": "timestamp",
					"type": "uint256"
				}
			],
			"name": "Mint",
			"type": "event"
		},
		{
			"anonymous": false,
			"inputs": [
				{
					"indexed": true,
					"internalType": "address",
					"name": "operator",
					"type": "address"
				},
				{
					"indexed": true,
					"internalType": "address",
					"name": "tokenOwner",
					"type": "address"
				},
				{
					"indexed": true,
					"internalType": "bytes32",
					"name": "tokenId",
					"type": "bytes32"
				},
				{
					"indexed": false,
					"internalType": "bytes",
					"name": "operatorNotificationData",
					"type": "bytes"
				}
			],
			"name": "OperatorAuthorizationChanged",
			"type": "event"
		},
		{
			"anonymous": false,
			"inputs": [
				{
					"indexed": true,
					"internalType": "address",
					"name": "operator",
					"type": "address"
				},
				{
					"indexed": true,
					"internalType": "address",
					"name": "tokenOwner",
					"type": "address"
				},
				{
					"indexed": true,
					"internalType": "bytes32",
					"name": "tokenId",
					"type": "bytes32"
				},
				{
					"indexed": false,
					"internalType": "bool",
					"name": "notified",
					"type": "bool"
				},
				{
					"indexed": false,
					"internalType": "bytes",
					"name": "operatorNotificationData",
					"type": "bytes"
				}
			],
			"name": "OperatorRevoked",
			"type": "event"
		},
		{
			"anonymous": false,
			"inputs": [
				{
					"indexed": true,
					"internalType": "address",
					"name": "previousOwner",
					"type": "address"
				},
				{
					"indexed": true,
					"internalType": "address",
					"name": "newOwner",
					"type": "address"
				}
			],
			"name": "OwnershipTransferred",
			"type": "event"
		},
		{
			"anonymous": false,
			"inputs": [
				{
					"indexed": true,
					"internalType": "bytes32",
					"name": "tokenId",
					"type": "bytes32"
				},
				{
					"indexed": true,
					"internalType": "bytes32",
					"name": "dataKey",
					"type": "bytes32"
				},
				{
					"indexed": false,
					"internalType": "bytes",
					"name": "dataValue",
					"type": "bytes"
				}
			],
			"name": "TokenIdDataChanged",
			"type": "event"
		},
		{
			"anonymous": false,
			"inputs": [
				{
					"indexed": false,
					"internalType": "address",
					"name": "operator",
					"type": "address"
				},
				{
					"indexed": true,
					"internalType": "address",
					"name": "from",
					"type": "address"
				},
				{
					"indexed": true,
					"internalType": "address",
					"name": "to",
					"type": "address"
				},
				{
					"indexed": true,
					"internalType": "bytes32",
					"name": "tokenId",
					"type": "bytes32"
				},
				{
					"indexed": false,
					"internalType": "bool",
					"name": "force",
					"type": "bool"
				},
				{
					"indexed": false,
					"internalType": "bytes",
					"name": "data",
					"type": "bytes"
				}
			],
			"name": "Transfer",
			"type": "event"
		},
		{
			"stateMutability": "payable",
			"type": "fallback"
		},
		{
			"inputs": [
				{
					"internalType": "address",
					"name": "operator",
					"type": "address"
				},
				{
					"internalType": "bytes32",
					"name": "tokenId",
					"type": "bytes32"
				},
				{
					"internalType": "bytes",
					"name": "operatorNotificationData",
					"type": "bytes"
				}
			],
			"name": "authorizeOperator",
			"outputs": [],
			"stateMutability": "nonpayable",
			"type": "function"
		},
		{
			"inputs": [
				{
					"internalType": "address",
					"name": "tokenOwner",
					"type": "address"
				}
			],
			"name": "balanceOf",
			"outputs": [
				{
					"internalType": "uint256",
					"name": "",
					"type": "uint256"
				}
			],
			"stateMutability": "view",
			"type": "function"
		},
		{
			"inputs": [
				{
					"internalType": "bytes[]",
					"name": "data",
					"type": "bytes[]"
				}
			],
			"name": "batchCalls",
			"outputs": [
				{
					"internalType": "bytes[]",
					"name": "results",
					"type": "bytes[]"
				}
			],
			"stateMutability": "nonpayable",
			"type": "function"
		},
		{
			"inputs": [
				{
					"internalType": "address",
					"name": "user",
					"type": "address"
				}
			],
			"name": "canClaimReward",
			"outputs": [
				{
					"internalType": "bool",
					"name": "",
					"type": "bool"
				}
			],
			"stateMutability": "view",
			"type": "function"
		},
		{
			"inputs": [
				{
					"internalType": "address",
					"name": "",
					"type": "address"
				}
			],
			"name": "encryptedEncryptionKeys",
			"outputs": [
				{
					"internalType": "bytes",
					"name": "",
					"type": "bytes"
				}
			],
			"stateMutability": "view",
			"type": "function"
		},
		{
			"inputs": [
				{
					"internalType": "address",
					"name": "vaultAddress",
					"type": "address"
				}
			],
			"name": "getAllMoments",
			"outputs": [
				{
					"internalType": "bytes32[]",
					"name": "",
					"type": "bytes32[]"
				}
			],
			"stateMutability": "view",
			"type": "function"
		},
		{
			"inputs": [
				{
					"internalType": "bytes32",
					"name": "dataKey",
					"type": "bytes32"
				}
			],
			"name": "getData",
			"outputs": [
				{
					"internalType": "bytes",
					"name": "dataValue",
					"type": "bytes"
				}
			],
			"stateMutability": "view",
			"type": "function"
		},
		{
			"inputs": [
				{
					"internalType": "bytes32[]",
					"name": "dataKeys",
					"type": "bytes32[]"
				}
			],
			"name": "getDataBatch",
			"outputs": [
				{
					"internalType": "bytes[]",
					"name": "dataValues",
					"type": "bytes[]"
				}
			],
			"stateMutability": "view",
			"type": "function"
		},
		{
			"inputs": [
				{
					"internalType": "bytes32[]",
					"name": "tokenIds",
					"type": "bytes32[]"
				},
				{
					"internalType": "bytes32[]",
					"name": "dataKeys",
					"type": "bytes32[]"
				}
			],
			"name": "getDataBatchForTokenIds",
			"outputs": [
				{
					"internalType": "bytes[]",
					"name": "dataValues",
					"type": "bytes[]"
				}
			],
			"stateMutability": "view",
			"type": "function"
		},
		{
			"inputs": [
				{
					"internalType": "bytes32",
					"name": "tokenId",
					"type": "bytes32"
				},
				{
					"internalType": "bytes32",
					"name": "dataKey",
					"type": "bytes32"
				}
			],
			"name": "getDataForTokenId",
			"outputs": [
				{
					"internalType": "bytes",
					"name": "dataValue",
					"type": "bytes"
				}
			],
			"stateMutability": "view",
			"type": "function"
		},
		{
			"inputs": [
				{
					"internalType": "address",
					"name": "lsp7SubCollectionAddress",
					"type": "address"
				}
			],
			"name": "getEncryptedKey",
			"outputs": [
				{
					"internalType": "bytes",
					"name": "",
					"type": "bytes"
				}
			],
			"stateMutability": "view",
			"type": "function"
		},
		{
			"inputs": [
				{
					"internalType": "bytes32",
					"name": "tokenId",
					"type": "bytes32"
				}
			],
			"name": "getLikes",
			"outputs": [
				{
					"internalType": "address[]",
					"name": "",
					"type": "address[]"
				}
			],
			"stateMutability": "view",
			"type": "function"
		},
		{
			"inputs": [
				{
					"internalType": "address",
					"name": "lsp7SubCollectionAddress",
					"type": "address"
				}
			],
			"name": "getMintingDate",
			"outputs": [
				{
					"internalType": "uint256",
					"name": "",
					"type": "uint256"
				}
			],
			"stateMutability": "view",
			"type": "function"
		},
		{
			"inputs": [
				{
					"internalType": "address",
					"name": "vaultAddress_",
					"type": "address"
				}
			],
			"name": "getNFTcounts",
			"outputs": [
				{
					"internalType": "uint256",
					"name": "",
					"type": "uint256"
				}
			],
			"stateMutability": "view",
			"type": "function"
		},
		{
			"inputs": [
				{
					"internalType": "bytes32",
					"name": "tokenId",
					"type": "bytes32"
				}
			],
			"name": "getOperatorsOf",
			"outputs": [
				{
					"internalType": "address[]",
					"name": "",
					"type": "address[]"
				}
			],
			"stateMutability": "view",
			"type": "function"
		},
		{
			"inputs": [
				{
					"internalType": "bytes32",
					"name": "",
					"type": "bytes32"
				},
				{
					"internalType": "address",
					"name": "",
					"type": "address"
				}
			],
			"name": "hasLiked",
			"outputs": [
				{
					"internalType": "bool",
					"name": "",
					"type": "bool"
				}
			],
			"stateMutability": "view",
			"type": "function"
		},
		{
			"inputs": [
				{
					"internalType": "address",
					"name": "operator",
					"type": "address"
				},
				{
					"internalType": "bytes32",
					"name": "tokenId",
					"type": "bytes32"
				}
			],
			"name": "isOperatorFor",
			"outputs": [
				{
					"internalType": "bool",
					"name": "",
					"type": "bool"
				}
			],
			"stateMutability": "view",
			"type": "function"
		},
		{
			"inputs": [
				{
					"internalType": "address",
					"name": "",
					"type": "address"
				}
			],
			"name": "lastClaimed",
			"outputs": [
				{
					"internalType": "uint256",
					"name": "",
					"type": "uint256"
				}
			],
			"stateMutability": "view",
			"type": "function"
		},
		{
			"inputs": [
				{
					"internalType": "bytes32",
					"name": "tokenId",
					"type": "bytes32"
				}
			],
			"name": "like",
			"outputs": [],
			"stateMutability": "nonpayable",
			"type": "function"
		},
		{
			"inputs": [
				{
					"internalType": "string",
					"name": "nameOfLSP7_",
					"type": "string"
				},
				{
					"internalType": "string",
					"name": "symbolOfLSP7_",
					"type": "string"
				},
				{
					"internalType": "bool",
					"name": "isNonDivisible_",
					"type": "bool"
				},
				{
					"internalType": "uint256",
					"name": "totalSupplyOfLSP7_",
					"type": "uint256"
				},
				{
					"internalType": "address",
					"name": "receiverOfInitialTokens_",
					"type": "address"
				},
				{
					"internalType": "bytes",
					"name": "lsp4MetadataURIOfLSP7_",
					"type": "bytes"
				},
				{
					"internalType": "bytes",
					"name": "encryptedEncryptionKey_",
					"type": "bytes"
				},
				{
					"internalType": "address",
					"name": "vaultAddress_",
					"type": "address"
				}
			],
			"name": "mint",
			"outputs": [
				{
					"internalType": "address",
					"name": "lsp7SubCollectionAddress",
					"type": "address"
				}
			],
			"stateMutability": "nonpayable",
			"type": "function"
		},
		{
			"inputs": [
				{
					"internalType": "address",
					"name": "",
					"type": "address"
				}
			],
			"name": "mintingDates",
			"outputs": [
				{
					"internalType": "uint256",
					"name": "",
					"type": "uint256"
				}
			],
			"stateMutability": "view",
			"type": "function"
		},
		{
			"inputs": [
				{
					"internalType": "address",
					"name": "",
					"type": "address"
				},
				{
					"internalType": "uint256",
					"name": "",
					"type": "uint256"
				}
			],
			"name": "moments",
			"outputs": [
				{
					"internalType": "bytes32",
					"name": "",
					"type": "bytes32"
				}
			],
			"stateMutability": "view",
			"type": "function"
		},
		{
			"inputs": [],
			"name": "owner",
			"outputs": [
				{
					"internalType": "address",
					"name": "",
					"type": "address"
				}
			],
			"stateMutability": "view",
			"type": "function"
		},
		{
			"inputs": [],
			"name": "renounceOwnership",
			"outputs": [],
			"stateMutability": "nonpayable",
			"type": "function"
		},
		{
			"inputs": [
				{
					"internalType": "address",
					"name": "operator",
					"type": "address"
				},
				{
					"internalType": "bytes32",
					"name": "tokenId",
					"type": "bytes32"
				},
				{
					"internalType": "bool",
					"name": "notify",
					"type": "bool"
				},
				{
					"internalType": "bytes",
					"name": "operatorNotificationData",
					"type": "bytes"
				}
			],
			"name": "revokeOperator",
			"outputs": [],
			"stateMutability": "nonpayable",
			"type": "function"
		},
		{
			"inputs": [
				{
					"internalType": "bytes32",
					"name": "dataKey",
					"type": "bytes32"
				},
				{
					"internalType": "bytes",
					"name": "dataValue",
					"type": "bytes"
				}
			],
			"name": "setData",
			"outputs": [],
			"stateMutability": "payable",
			"type": "function"
		},
		{
			"inputs": [
				{
					"internalType": "bytes32[]",
					"name": "dataKeys",
					"type": "bytes32[]"
				},
				{
					"internalType": "bytes[]",
					"name": "dataValues",
					"type": "bytes[]"
				}
			],
			"name": "setDataBatch",
			"outputs": [],
			"stateMutability": "payable",
			"type": "function"
		},
		{
			"inputs": [
				{
					"internalType": "bytes32[]",
					"name": "tokenIds",
					"type": "bytes32[]"
				},
				{
					"internalType": "bytes32[]",
					"name": "dataKeys",
					"type": "bytes32[]"
				},
				{
					"internalType": "bytes[]",
					"name": "dataValues",
					"type": "bytes[]"
				}
			],
			"name": "setDataBatchForTokenIds",
			"outputs": [],
			"stateMutability": "nonpayable",
			"type": "function"
		},
		{
			"inputs": [
				{
					"internalType": "bytes32",
					"name": "tokenId",
					"type": "bytes32"
				},
				{
					"internalType": "bytes32",
					"name": "dataKey",
					"type": "bytes32"
				},
				{
					"internalType": "bytes",
					"name": "dataValue",
					"type": "bytes"
				}
			],
			"name": "setDataForTokenId",
			"outputs": [],
			"stateMutability": "nonpayable",
			"type": "function"
		},
		{
			"inputs": [
				{
					"internalType": "address",
					"name": "lsp7SubCollectionAddress",
					"type": "address"
				},
				{
					"internalType": "bytes",
					"name": "encryptedEncryptionKey",
					"type": "bytes"
				}
			],
			"name": "storeEncryptedKey",
			"outputs": [],
			"stateMutability": "nonpayable",
			"type": "function"
		},
		{
			"inputs": [
				{
					"internalType": "bytes4",
					"name": "interfaceId",
					"type": "bytes4"
				}
			],
			"name": "supportsInterface",
			"outputs": [
				{
					"internalType": "bool",
					"name": "",
					"type": "bool"
				}
			],
			"stateMutability": "view",
			"type": "function"
		},
		{
			"inputs": [
				{
					"internalType": "address",
					"name": "tokenOwner",
					"type": "address"
				}
			],
			"name": "tokenIdsOf",
			"outputs": [
				{
					"internalType": "bytes32[]",
					"name": "",
					"type": "bytes32[]"
				}
			],
			"stateMutability": "view",
			"type": "function"
		},
		{
			"inputs": [
				{
					"internalType": "bytes32",
					"name": "",
					"type": "bytes32"
				},
				{
					"internalType": "uint256",
					"name": "",
					"type": "uint256"
				}
			],
			"name": "tokenLikes",
			"outputs": [
				{
					"internalType": "address",
					"name": "",
					"type": "address"
				}
			],
			"stateMutability": "view",
			"type": "function"
		},
		{
			"inputs": [
				{
					"internalType": "bytes32",
					"name": "tokenId",
					"type": "bytes32"
				}
			],
			"name": "tokenOwnerOf",
			"outputs": [
				{
					"internalType": "address",
					"name": "",
					"type": "address"
				}
			],
			"stateMutability": "view",
			"type": "function"
		},
		{
			"inputs": [
				{
					"internalType": "address",
					"name": "",
					"type": "address"
				}
			],
			"name": "totalNFTcounts",
			"outputs": [
				{
					"internalType": "uint256",
					"name": "",
					"type": "uint256"
				}
			],
			"stateMutability": "view",
			"type": "function"
		},
		{
			"inputs": [],
			"name": "totalSupply",
			"outputs": [
				{
					"internalType": "uint256",
					"name": "",
					"type": "uint256"
				}
			],
			"stateMutability": "view",
			"type": "function"
		},
		{
			"inputs": [
				{
					"internalType": "address",
					"name": "from",
					"type": "address"
				},
				{
					"internalType": "address",
					"name": "to",
					"type": "address"
				},
				{
					"internalType": "bytes32",
					"name": "tokenId",
					"type": "bytes32"
				},
				{
					"internalType": "bool",
					"name": "force",
					"type": "bool"
				},
				{
					"internalType": "bytes",
					"name": "data",
					"type": "bytes"
				}
			],
			"name": "transfer",
			"outputs": [],
			"stateMutability": "nonpayable",
			"type": "function"
		},
		{
			"inputs": [
				{
					"internalType": "address[]",
					"name": "from",
					"type": "address[]"
				},
				{
					"internalType": "address[]",
					"name": "to",
					"type": "address[]"
				},
				{
					"internalType": "bytes32[]",
					"name": "tokenId",
					"type": "bytes32[]"
				},
				{
					"internalType": "bool[]",
					"name": "force",
					"type": "bool[]"
				},
				{
					"internalType": "bytes[]",
					"name": "data",
					"type": "bytes[]"
				}
			],
			"name": "transferBatch",
			"outputs": [],
			"stateMutability": "nonpayable",
			"type": "function"
		},
		{
			"inputs": [
				{
					"internalType": "address",
					"name": "newOwner",
					"type": "address"
				}
			],
			"name": "transferOwnership",
			"outputs": [],
			"stateMutability": "nonpayable",
			"type": "function"
		},
		{
			"stateMutability": "payable",
			"type": "receive"
		}
	]
}