{
	"data": {
		"bytecode": {
			"linkReferences": {},
			"object": "608060405234801562000010575f80fd5b50604051620065b5380380620065b5833981810160405281019062000036919062000786565b83838360016002848484848484848484815f73ffffffffffffffffffffffffffffffffffffffff168173ffffffffffffffffffffffffffffffffffffffff1603620000ad576040517f1ad8836c00000000000000000000000000000000000000000000000000000000815260040160405180910390fd5b620000be816200029260201b60201c565b50620001287feafec4d89fa9619884b60000a4d96624a38f7ac2d8d9a604ecf07c12c77e480c5f1b6040518060400160405280600481526020017fa4d96624000000000000000000000000000000000000000000000000000000008152506200039160201b60201c565b6200015c7fdeba1e292f8ba88238e10ab3c7f88bd4be4fac56cad5194b6ecceaf653468af15f1b856200039160201b60201c565b620001907f2f0a68ab07768e01943a599e73362a0e17a63a72e94dd2e384d2c1d4db9327565f1b846200039160201b60201c565b620001e57fe0261fa95db2eb3b5439bd033cda66d56b96f92f243a8228fd87550ed7bdfdb35f1b82604051602001620001ca91906200084d565b6040516020818303038152906040526200039160201b60201c565b505050506200023e7ff675e9361af1c1664c1868cfa3eb97672d6b1a513aa5b81dec34c9ee330e818d5f1b826040516020016200022391906200084d565b604051602081830303815290604052620003f060201b60201c565b505050505050505050508060075f6101000a81548173ffffffffffffffffffffffffffffffffffffffff021916908373ffffffffffffffffffffffffffffffffffffffff1602179055505050505062000bec565b620002a26200040660201b60201c565b73ffffffffffffffffffffffffffffffffffffffff168173ffffffffffffffffffffffffffffffffffffffff16146200038e578073ffffffffffffffffffffffffffffffffffffffff165f8054906101000a900473ffffffffffffffffffffffffffffffffffffffff1673ffffffffffffffffffffffffffffffffffffffff167f8be0079c531659141344cd1fd0a4f28419497f9722a3daafe3b4186f6b6457e060405160405180910390a3805f806101000a81548173ffffffffffffffffffffffffffffffffffffffff021916908373ffffffffffffffffffffffffffffffffffffffff1602179055505b50565b8060015f8481526020019081526020015f209081620003b1919062000a96565b50817fece574603820d07bc9b91f2a932baadf4628aabcb8afba49776529c14a6104b282604051620003e4919062000bca565b60405180910390a25050565b6200040282826200042d60201b60201c565b5050565b5f805f9054906101000a900473ffffffffffffffffffffffffffffffffffffffff16905090565b7fdeba1e292f8ba88238e10ab3c7f88bd4be4fac56cad5194b6ecceaf653468af15f1b820362000489576040517f85c169bd00000000000000000000000000000000000000000000000000000000815260040160405180910390fd5b7f2f0a68ab07768e01943a599e73362a0e17a63a72e94dd2e384d2c1d4db9327565f1b8203620004e5576040517f76755b3800000000000000000000000000000000000000000000000000000000815260040160405180910390fd5b7fe0261fa95db2eb3b5439bd033cda66d56b96f92f243a8228fd87550ed7bdfdb35f1b820362000541576040517f4ef6d7fb00000000000000000000000000000000000000000000000000000000815260040160405180910390fd5b8060015f8481526020019081526020015f20908162000561919062000a96565b50817fece574603820d07bc9b91f2a932baadf4628aabcb8afba49776529c14a6104b28260405162000594919062000bca565b60405180910390a25050565b5f604051905090565b5f80fd5b5f80fd5b5f80fd5b5f80fd5b5f601f19601f8301169050919050565b7f4e487b71000000000000000000000000000000000000000000000000000000005f52604160045260245ffd5b6200060182620005b9565b810181811067ffffffffffffffff82111715620006235762000622620005c9565b5b80604052505050565b5f62000637620005a0565b9050620006458282620005f6565b919050565b5f67ffffffffffffffff821115620006675762000666620005c9565b5b6200067282620005b9565b9050602081019050919050565b5f5b838110156200069e57808201518184015260208101905062000681565b5f8484015250505050565b5f620006bf620006b9846200064a565b6200062c565b905082815260208101848484011115620006de57620006dd620005b5565b5b620006eb8482856200067f565b509392505050565b5f82601f8301126200070a5762000709620005b1565b5b81516200071c848260208601620006a9565b91505092915050565b5f73ffffffffffffffffffffffffffffffffffffffff82169050919050565b5f620007508262000725565b9050919050565b620007628162000744565b81146200076d575f80fd5b50565b5f81519050620007808162000757565b92915050565b5f805f8060808587031215620007a157620007a0620005a9565b5b5f85015167ffffffffffffffff811115620007c157620007c0620005ad565b5b620007cf87828801620006f3565b945050602085015167ffffffffffffffff811115620007f357620007f2620005ad565b5b6200080187828801620006f3565b9350506040620008148782880162000770565b9250506060620008278782880162000770565b91505092959194509250565b5f819050919050565b620008478162000833565b82525050565b5f602082019050620008625f8301846200083c565b92915050565b5f81519050919050565b7f4e487b71000000000000000000000000000000000000000000000000000000005f52602260045260245ffd5b5f6002820490506001821680620008b757607f821691505b602082108103620008cd57620008cc62000872565b5b50919050565b5f819050815f5260205f209050919050565b5f6020601f8301049050919050565b5f82821b905092915050565b5f60088302620009317fffffffffffffffffffffffffffffffffffffffffffffffffffffffffffffffff82620008f4565b6200093d8683620008f4565b95508019841693508086168417925050509392505050565b5f819050919050565b5f6200097e62000978620009728462000833565b62000955565b62000833565b9050919050565b5f819050919050565b62000999836200095e565b620009b1620009a88262000985565b84845462000900565b825550505050565b5f90565b620009c7620009b9565b620009d48184846200098e565b505050565b5b81811015620009fb57620009ef5f82620009bd565b600181019050620009da565b5050565b601f82111562000a4a5762000a1481620008d3565b62000a1f84620008e5565b8101602085101562000a2f578190505b62000a4762000a3e85620008e5565b830182620009d9565b50505b505050565b5f82821c905092915050565b5f62000a6c5f198460080262000a4f565b1980831691505092915050565b5f62000a86838362000a5b565b9150826002028217905092915050565b62000aa18262000868565b67ffffffffffffffff81111562000abd5762000abc620005c9565b5b62000ac982546200089f565b62000ad6828285620009ff565b5f60209050601f83116001811462000b0c575f841562000af7578287015190505b62000b03858262000a79565b86555062000b72565b601f19841662000b1c86620008d3565b5f5b8281101562000b455784890151825560018201915060208501945060208101905062000b1e565b8683101562000b65578489015162000b61601f89168262000a5b565b8355505b6001600288020188555050505b505050505050565b5f82825260208201905092915050565b5f62000b968262000868565b62000ba2818562000b7a565b935062000bb48185602086016200067f565b62000bbf81620005b9565b840191505092915050565b5f6020820190508181035f83015262000be4818462000b8a565b905092915050565b6159bb8062000bfa5f395ff3fe608060405260043610610228575f3560e01c8063715018a611610122578063af255b61116100aa578063dedff9c61161006e578063dedff9c614610975578063f08e076d146109b1578063f2fde38b146109ed578063f4e4fb4114610a15578063f6e5826e14610a53576102a1565b8063af255b61146108ab578063be9f0e6f146108d3578063beb9716d146108fb578063d6c1407c14610925578063db8c96631461094d576102a1565b806386f029d8116100f157806386f029d8146107d75780638da5cb5b1461080157806392e18c4a1461082b5780639790242114610853578063a3b261f21461086f576102a1565b8063715018a6146107555780637e87632c1461076b5780637f23690c1461079357806386a10ddd146107af576102a1565b806332e30aea116101b05780634b74a1f1116101745780634b74a1f11461063d578063511b69521461067957806354f6127f146106a15780636963d438146106dd57806370a0823114610719576102a1565b806332e30aea146105115780633a0f787f1461054d5780633db3ed30146105895780634046b9fd146105c557806349a6078d14610601576102a1565b806316e023b3116101f757806316e023b3146103f757806318160ddd146104335780631d26fce61461045d578063217b2270146104995780632a3654a4146104d5576102a1565b8063013eba921461030757806301ffc9a714610343578063075bf1311461037f5780630c590f51146103bb576102a1565b366102a1575f340361026f576040517fe5099ee300000000000000000000000000000000000000000000000000000000815260040161026690613869565b60405180910390fd5b6040517f61f4944200000000000000000000000000000000000000000000000000000000815260040160405180910390fd5b5f36606060045f36905010156102f05782826040517fe5099ee30000000000000000000000000000000000000000000000000000000081526004016102e79291906138d1565b60405180910390fd5b6102fa8383610a8f565b9050915050805190602001f35b348015610312575f80fd5b5061032d6004803603810190610328919061395e565b610c05565b60405161033a91906139a1565b60405180910390f35b34801561034e575f80fd5b5061036960048036038101906103649190613a0f565b610c1a565b6040516103769190613a54565b60405180910390f35b34801561038a575f80fd5b506103a560048036038101906103a0919061395e565b610c8a565b6040516103b29190613ad7565b60405180910390f35b3480156103c6575f80fd5b506103e160048036038101906103dc919061395e565b610d25565b6040516103ee91906139a1565b60405180910390f35b348015610402575f80fd5b5061041d60048036038101906104189190613b2a565b610d6b565b60405161042a9190613ad7565b60405180910390f35b34801561043e575f80fd5b50610447610d7f565b60405161045491906139a1565b60405180910390f35b348015610468575f80fd5b50610483600480360381019061047e9190613ca8565b610d88565b6040516104909190613e21565b60405180910390f35b3480156104a4575f80fd5b506104bf60048036038101906104ba9190613e41565b610e8f565b6040516104cc9190613e7b565b60405180910390f35b3480156104e0575f80fd5b506104fb60048036038101906104f69190613e94565b610f3d565b6040516105089190613a54565b60405180910390f35b34801561051c575f80fd5b5061053760048036038101906105329190613e41565b610f50565b6040516105449190613e7b565b60405180910390f35b348015610558575f80fd5b50610573600480360381019061056e919061395e565b610f80565b60405161058091906139a1565b60405180910390f35b348015610594575f80fd5b506105af60048036038101906105aa919061395e565b610f95565b6040516105bc91906139a1565b60405180910390f35b3480156105d0575f80fd5b506105eb60048036038101906105e6919061395e565b610fdb565b6040516105f89190613fe7565b60405180910390f35b34801561060c575f80fd5b5061062760048036038101906106229190613e41565b6110dc565b60405161063491906140af565b60405180910390f35b348015610648575f80fd5b50610663600480360381019061065e919061395e565b611107565b6040516106709190613ad7565b60405180910390f35b348015610684575f80fd5b5061069f600480360381019061069a919061419b565b6111d4565b005b3480156106ac575f80fd5b506106c760048036038101906106c29190613e41565b611235565b6040516106d49190613ad7565b60405180910390f35b3480156106e8575f80fd5b5061070360048036038101906106fe9190614287565b611247565b6040516107109190613e21565b60405180910390f35b348015610724575f80fd5b5061073f600480360381019061073a919061395e565b6113bd565b60405161074c91906139a1565b60405180910390f35b348015610760575f80fd5b5061076961140a565b005b348015610776575f80fd5b50610791600480360381019061078c9190614530565b61141d565b005b6107ad60048036038101906107a89190614633565b61152f565b005b3480156107ba575f80fd5b506107d560048036038101906107d0919061468d565b61157e565b005b3480156107e2575f80fd5b506107eb6117d4565b6040516107f89190614754565b60405180910390f35b34801561080c575f80fd5b506108156117f9565b6040516108229190613e7b565b60405180910390f35b348015610836575f80fd5b50610851600480360381019061084c919061476d565b611820565b005b61086d600480360381019061086891906147c7565b61186f565b005b34801561087a575f80fd5b506108956004803603810190610890919061395e565b61197e565b6040516108a291906148e5565b60405180910390f35b3480156108b6575f80fd5b506108d160048036038101906108cc9190614905565b6119cc565b005b3480156108de575f80fd5b506108f960048036038101906108f49190614985565b6119e6565b005b348015610906575f80fd5b5061090f611ae7565b60405161091c9190613a54565b60405180910390f35b348015610930575f80fd5b5061094b60048036038101906109469190614a29565b611b3b565b005b348015610958575f80fd5b50610973600480360381019061096e9190614905565b611b53565b005b348015610980575f80fd5b5061099b60048036038101906109969190614a95565b611d20565b6040516109a89190613e21565b60405180910390f35b3480156109bc575f80fd5b506109d760048036038101906109d2919061395e565b611dd0565b6040516109e491906139a1565b60405180910390f35b3480156109f8575f80fd5b50610a136004803603810190610a0e919061395e565b611de5565b005b348015610a20575f80fd5b50610a3b6004803603810190610a369190614b06565b611e5e565b604051610a4a93929190614b53565b60405180910390f35b348015610a5e575f80fd5b50610a796004803603810190610a749190614c26565b611ebd565b604051610a869190614cf1565b60405180910390f35b60605f610abe5f357fffffffff0000000000000000000000000000000000000000000000000000000016612234565b5090505f73ffffffffffffffffffffffffffffffffffffffff168173ffffffffffffffffffffffffffffffffffffffff1603610b54575f357fffffffff00000000000000000000000000000000000000000000000000000000166040517fbb370b2b000000000000000000000000000000000000000000000000000000008152600401610b4b9190614d19565b60405180910390fd5b5f808273ffffffffffffffffffffffffffffffffffffffff163487873334604051602001610b859493929190614dc5565b604051602081830303815290604052604051610ba19190614e2f565b5f6040518083038185875af1925050503d805f8114610bdb576040519150601f19603f3d011682016040523d82523d5f602084013e610be0565b606091505b50915091508115610bf657809350505050610bff565b80518060208301fd5b92915050565b6008602052805f5260405f205f915090505481565b5f633a27170660e01b7bffffffffffffffffffffffffffffffffffffffffffffffffffffffff1916827bffffffffffffffffffffffffffffffffffffffffffffffffffffffff19161480610c735750610c72826122ea565b5b80610c835750610c828261234a565b5b9050919050565b600a602052805f5260405f205f915090508054610ca690614e72565b80601f0160208091040260200160405190810160405280929190818152602001828054610cd290614e72565b8015610d1d5780601f10610cf457610100808354040283529160200191610d1d565b820191905f5260205f20905b815481529060010190602001808311610d0057829003601f168201915b505050505081565b5f60095f8373ffffffffffffffffffffffffffffffffffffffff1673ffffffffffffffffffffffffffffffffffffffff1681526020019081526020015f20549050919050565b6060610d7783836123ae565b905092915050565b5f600254905090565b60608151835114610dc5576040517f2fa71dfe00000000000000000000000000000000000000000000000000000000815260040160405180910390fd5b825167ffffffffffffffff811115610de057610ddf613b6c565b5b604051908082528060200260200182016040528015610e1357816020015b6060815260200190600190039081610dfe5790505b5090505f5b8351811015610e8857610e5f848281518110610e3757610e36614ea2565b5b6020026020010151848381518110610e5257610e51614ea2565b5b60200260200101516123ae565b828281518110610e7257610e71614ea2565b5b6020026020010181905250806001019050610e18565b5092915050565b5f8060035f8481526020019081526020015f205f9054906101000a900473ffffffffffffffffffffffffffffffffffffffff1690505f73ffffffffffffffffffffffffffffffffffffffff168173ffffffffffffffffffffffffffffffffffffffff1603610f3457826040517fae8f9a36000000000000000000000000000000000000000000000000000000008152600401610f2b9190614cf1565b60405180910390fd5b80915050919050565b5f610f48838361245f565b905092915050565b600d602052805f5260405f205f915054906101000a900473ffffffffffffffffffffffffffffffffffffffff1681565b600b602052805f5260405f205f915090505481565b5f600b5f8373ffffffffffffffffffffffffffffffffffffffff1673ffffffffffffffffffffffffffffffffffffffff1681526020019081526020015f20549050919050565b6060600c5f8373ffffffffffffffffffffffffffffffffffffffff1673ffffffffffffffffffffffffffffffffffffffff1681526020019081526020015f20805480602002602001604051908101604052809291908181526020015f905b828210156110d1578382905f5260205f2090600302016040518060600160405290815f8201548152602001600182015f9054906101000a900473ffffffffffffffffffffffffffffffffffffffff1673ffffffffffffffffffffffffffffffffffffffff1673ffffffffffffffffffffffffffffffffffffffff16815260200160028201548152505081526020019060010190611039565b505050509050919050565b60606110e7826124c9565b61110060055f8481526020019081526020015f20612516565b9050919050565b6060600a5f8373ffffffffffffffffffffffffffffffffffffffff1673ffffffffffffffffffffffffffffffffffffffff1681526020019081526020015f20805461115190614e72565b80601f016020809104026020016040519081016040528092919081815260200182805461117d90614e72565b80156111c85780601f1061119f576101008083540402835291602001916111c8565b820191905f5260205f20905b8154815290600101906020018083116111ab57829003601f168201915b50505050509050919050565b6111de338461245f565b6112215782336040517f1294d2a9000000000000000000000000000000000000000000000000000000008152600401611218929190614ecf565b60405180910390fd5b61122e8585858585612535565b5050505050565b60606112408261285f565b9050919050565b60608282905067ffffffffffffffff81111561126657611265613b6c565b5b60405190808252806020026020018201604052801561129957816020015b60608152602001906001900390816112845790505b5090505f5b838390508110156113b6575f803073ffffffffffffffffffffffffffffffffffffffff168686858181106112d5576112d4614ea2565b5b90506020028101906112e79190614f02565b6040516112f5929190614f64565b5f60405180830381855af49150503d805f811461132d576040519150601f19603f3d011682016040523d82523d5f602084013e611332565b606091505b50915091508161138a575f81511461134d5780518082602001fd5b826040517f234eb81900000000000000000000000000000000000000000000000000000000815260040161138191906139a1565b60405180910390fd5b8084848151811061139e5761139d614ea2565b5b6020026020010181905250826001019250505061129e565b5092915050565b5f61140360045f8473ffffffffffffffffffffffffffffffffffffffff1673ffffffffffffffffffffffffffffffffffffffff1681526020019081526020015f20612900565b9050919050565b611412612913565b61141b5f61298c565b565b5f85519050845181141580611433575083518114155b8061143f575082518114155b8061144b575081518114155b15611482576040517f93a8311900000000000000000000000000000000000000000000000000000000815260040160405180910390fd5b5f5b818110156115265761151b8782815181106114a2576114a1614ea2565b5b60200260200101518783815181106114bd576114bc614ea2565b5b60200260200101518784815181106114d8576114d7614ea2565b5b60200260200101518785815181106114f3576114f2614ea2565b5b602002602001015187868151811061150e5761150d614ea2565b5b60200260200101516111d4565b806001019050611484565b50505050505050565b611537612913565b5f3414611570576040517ff36ba73700000000000000000000000000000000000000000000000000000000815260040160405180910390fd5b61157a8282612a82565b5050565b5f61158883610e8f565b90503373ffffffffffffffffffffffffffffffffffffffff168173ffffffffffffffffffffffffffffffffffffffff16146115fe578083336040517f5b271ea20000000000000000000000000000000000000000000000000000000081526004016115f593929190614f7c565b60405180910390fd5b5f73ffffffffffffffffffffffffffffffffffffffff168473ffffffffffffffffffffffffffffffffffffffff1603611663576040517f9577b8b300000000000000000000000000000000000000000000000000000000815260040160405180910390fd5b8373ffffffffffffffffffffffffffffffffffffffff168173ffffffffffffffffffffffffffffffffffffffff16036116c8576040517f89fdad6200000000000000000000000000000000000000000000000000000000815260040160405180910390fd5b5f6116ec8560055f8781526020019081526020015f20612aeb90919063ffffffff16565b9050806117325784846040517fa7626b68000000000000000000000000000000000000000000000000000000008152600401611729929190614fb1565b60405180910390fd5b838273ffffffffffffffffffffffffffffffffffffffff168673ffffffffffffffffffffffffffffffffffffffff167f1b1b58aa2ec0cec2228b2d37124556d41f5a1f7b12f089171f896cc236671215866040516117909190613ad7565b60405180910390a45f33856001866040516020016117b19493929190614fd8565b60405160208183030381529060405290506117cc8682612b18565b505050505050565b60075f9054906101000a900473ffffffffffffffffffffffffffffffffffffffff1681565b5f805f9054906101000a900473ffffffffffffffffffffffffffffffffffffffff16905090565b80600a5f8473ffffffffffffffffffffffffffffffffffffffff1673ffffffffffffffffffffffffffffffffffffffff1681526020019081526020015f20908161186a91906151b6565b505050565b611877612913565b5f34146118b0576040517ff36ba73700000000000000000000000000000000000000000000000000000000815260040160405180910390fd5b80518251146118eb576040517f3bcc897900000000000000000000000000000000000000000000000000000000815260040160405180910390fd5b5f825103611925576040517f97da5f9500000000000000000000000000000000000000000000000000000000815260040160405180910390fd5b5f5b82518110156119795761196e83828151811061194657611945614ea2565b5b602002602001015183838151811061196157611960614ea2565b5b6020026020010151612a82565b806001019050611927565b505050565b60606119c560045f8473ffffffffffffffffffffffffffffffffffffffff1673ffffffffffffffffffffffffffffffffffffffff1681526020019081526020015f20612b49565b9050919050565b6119d4612913565b6119e084848484612b68565b50505050565b6119ee612913565b81518351141580611a0157508051825114155b15611a38576040517f2fa71dfe00000000000000000000000000000000000000000000000000000000815260040160405180910390fd5b5f835103611a72576040517f80c9830500000000000000000000000000000000000000000000000000000000815260040160405180910390fd5b5f5b8351811015611ae157611ad6848281518110611a9357611a92614ea2565b5b6020026020010151848381518110611aae57611aad614ea2565b5b6020026020010151848481518110611ac957611ac8614ea2565b5b6020026020010151612dd6565b806001019050611a74565b50505050565b5f6201518060085f3373ffffffffffffffffffffffffffffffffffffffff1673ffffffffffffffffffffffffffffffffffffffff1681526020019081526020015f2054611b3491906152b2565b4210905090565b611b43612913565b611b4e838383612dd6565b505050565b5f611b5d84610e8f565b90508073ffffffffffffffffffffffffffffffffffffffff163373ffffffffffffffffffffffffffffffffffffffff1614611c07573373ffffffffffffffffffffffffffffffffffffffff168573ffffffffffffffffffffffffffffffffffffffff1614611c06573381856040517f760b5acd000000000000000000000000000000000000000000000000000000008152600401611bfd939291906152e5565b60405180910390fd5b5b5f73ffffffffffffffffffffffffffffffffffffffff168573ffffffffffffffffffffffffffffffffffffffff1603611c6c576040517f9577b8b300000000000000000000000000000000000000000000000000000000815260040160405180910390fd5b8473ffffffffffffffffffffffffffffffffffffffff168173ffffffffffffffffffffffffffffffffffffffff1603611cd1576040517f89fdad6200000000000000000000000000000000000000000000000000000000815260040160405180910390fd5b611cde8582868686612e42565b8215611d19575f81855f85604051602001611cfc9493929190614fd8565b6040516020818303038152906040529050611d178682612b18565b505b5050505050565b6060815167ffffffffffffffff811115611d3d57611d3c613b6c565b5b604051908082528060200260200182016040528015611d7057816020015b6060815260200190600190039081611d5b5790505b5090505f5b8251811015611dca57611da1838281518110611d9457611d93614ea2565b5b602002602001015161285f565b828281518110611db457611db3614ea2565b5b6020026020010181905250806001019050611d75565b50919050565b6009602052805f5260405f205f915090505481565b611ded612913565b5f73ffffffffffffffffffffffffffffffffffffffff168173ffffffffffffffffffffffffffffffffffffffff1603611e52576040517f1ad8836c00000000000000000000000000000000000000000000000000000000815260040160405180910390fd5b611e5b8161298c565b50565b600c602052815f5260405f208181548110611e77575f80fd5b905f5260205f2090600302015f9150915050805f015490806001015f9054906101000a900473ffffffffffffffffffffffffffffffffffffffff16908060020154905083565b5f80604051611ecb90613822565b604051809103905ff080158015611ee4573d5f803e3d5ffd5b5090505f8173ffffffffffffffffffffffffffffffffffffffff165f1b9050611f0e818888612dd6565b60075f9054906101000a900473ffffffffffffffffffffffffffffffffffffffff1673ffffffffffffffffffffffffffffffffffffffff166376a83f1682866040518363ffffffff1660e01b8152600401611f6a92919061536c565b5f604051808303815f87803b158015611f81575f80fd5b505af1158015611f93573d5f803e3d5ffd5b50505050611fb28882600160405180602001604052805f815250612b68565b4260085f3373ffffffffffffffffffffffffffffffffffffffff1673ffffffffffffffffffffffffffffffffffffffff1681526020019081526020015f20819055504260095f8473ffffffffffffffffffffffffffffffffffffffff1673ffffffffffffffffffffffffffffffffffffffff1681526020019081526020015f20819055506120408286611820565b600b5f8973ffffffffffffffffffffffffffffffffffffffff1673ffffffffffffffffffffffffffffffffffffffff1681526020019081526020015f205f81548092919061208d9061539a565b91905055505f60405180606001604052808381526020013373ffffffffffffffffffffffffffffffffffffffff168152602001428152509050600c5f8a73ffffffffffffffffffffffffffffffffffffffff1673ffffffffffffffffffffffffffffffffffffffff1681526020019081526020015f2081908060018154018082558091505060019003905f5260205f2090600302015f909190919091505f820151815f01556020820151816001015f6101000a81548173ffffffffffffffffffffffffffffffffffffffff021916908373ffffffffffffffffffffffffffffffffffffffff16021790555060408201518160020155505033600d5f8481526020019081526020015f205f6101000a81548173ffffffffffffffffffffffffffffffffffffffff021916908373ffffffffffffffffffffffffffffffffffffffff1602179055508873ffffffffffffffffffffffffffffffffffffffff167f4af0e90f5243680602ba0ce6be26bfd783c4a7b08e9809529920d8f765124f8383334260405161221d93929190614b53565b60405180910390a281935050505095945050505050565b5f805f61226d69cee78b4094da8601109660b01b857bffffffffffffffffffffffffffffffffffffffffffffffffffffffff1916612f1c565b90505f6122798261285f565b9050601481511415801561228e57505f815114155b156122d057806040517f42bfe79f0000000000000000000000000000000000000000000000000000000081526004016122c79190613ad7565b60405180910390fd5b806122da9061542f565b60601c6001935093505050915091565b5f63a918fa6b60e01b7bffffffffffffffffffffffffffffffffffffffffffffffffffffffff1916827bffffffffffffffffffffffffffffffffffffffffffffffffffffffff19161480612343575061234282612f5a565b5b9050919050565b5f8061235c6301ffc9a760e01b612234565b5090505f73ffffffffffffffffffffffffffffffffffffffff168173ffffffffffffffffffffffffffffffffffffffff160361239b575f9150506123a9565b6123a58184612fba565b9150505b919050565b606060065f8481526020019081526020015f205f8381526020019081526020015f2080546123db90614e72565b80601f016020809104026020016040519081016040528092919081815260200182805461240790614e72565b80156124525780601f1061242957610100808354040283529160200191612452565b820191905f5260205f20905b81548152906001019060200180831161243557829003601f168201915b5050505050905092915050565b5f61246982610e8f565b73ffffffffffffffffffffffffffffffffffffffff168373ffffffffffffffffffffffffffffffffffffffff1614806124c157506124c08360055f8581526020019081526020015f2061305390919063ffffffff16565b5b905092915050565b6124d281613080565b61251357806040517fae8f9a3600000000000000000000000000000000000000000000000000000000815260040161250a9190614cf1565b60405180910390fd5b50565b60605f612524835f016130e8565b905060608190508092505050919050565b5f61253f84610e8f565b90508573ffffffffffffffffffffffffffffffffffffffff168173ffffffffffffffffffffffffffffffffffffffff16146125b5578084876040517f5b271ea20000000000000000000000000000000000000000000000000000000081526004016125ac93929190614f7c565b60405180910390fd5b5f73ffffffffffffffffffffffffffffffffffffffff168573ffffffffffffffffffffffffffffffffffffffff160361261a576040517f24ecef4d00000000000000000000000000000000000000000000000000000000815260040160405180910390fd5b61262686868685613141565b5f61263085610e8f565b90508073ffffffffffffffffffffffffffffffffffffffff168273ffffffffffffffffffffffffffffffffffffffff16146126a6578482826040517f5a9c31d300000000000000000000000000000000000000000000000000000000815260040161269d93929190615495565b60405180910390fd5b6126b08786613147565b6126ff8560045f8a73ffffffffffffffffffffffffffffffffffffffff1673ffffffffffffffffffffffffffffffffffffffff1681526020019081526020015f206131b590919063ffffffff16565b5061274f8560045f8973ffffffffffffffffffffffffffffffffffffffff1673ffffffffffffffffffffffffffffffffffffffff1681526020019081526020015f206131ca90919063ffffffff16565b508560035f8781526020019081526020015f205f6101000a81548173ffffffffffffffffffffffffffffffffffffffff021916908373ffffffffffffffffffffffffffffffffffffffff160217905550848673ffffffffffffffffffffffffffffffffffffffff168873ffffffffffffffffffffffffffffffffffffffff167fb333c813a7426a7a11e2b190cad52c44119421594b47f6f32ace6d8c7207b2bf338888604051612801939291906154ca565b60405180910390a4612815878787866131df565b5f338888888760405160200161282f959493929190615506565b604051602081830303815290604052905061284a88826131e5565b612855878683613216565b5050505050505050565b606060015f8381526020019081526020015f20805461287d90614e72565b80601f01602080910402602001604051908101604052809291908181526020018280546128a990614e72565b80156128f45780601f106128cb576101008083540402835291602001916128f4565b820191905f5260205f20905b8154815290600101906020018083116128d757829003601f168201915b50505050509050919050565b5f61290c825f01613375565b9050919050565b3373ffffffffffffffffffffffffffffffffffffffff166129326117f9565b73ffffffffffffffffffffffffffffffffffffffff161461298a57336040517fbf1169c50000000000000000000000000000000000000000000000000000000081526004016129819190613e7b565b60405180910390fd5b565b6129946117f9565b73ffffffffffffffffffffffffffffffffffffffff168173ffffffffffffffffffffffffffffffffffffffff1614612a7f578073ffffffffffffffffffffffffffffffffffffffff165f8054906101000a900473ffffffffffffffffffffffffffffffffffffffff1673ffffffffffffffffffffffffffffffffffffffff167f8be0079c531659141344cd1fd0a4f28419497f9722a3daafe3b4186f6b6457e060405160405180910390a3805f806101000a81548173ffffffffffffffffffffffffffffffffffffffff021916908373ffffffffffffffffffffffffffffffffffffffff1602179055505b50565b7ff675e9361af1c1664c1868cfa3eb97672d6b1a513aa5b81dec34c9ee330e818d5f1b8203612add576040517f3664800a00000000000000000000000000000000000000000000000000000000815260040160405180910390fd5b612ae78282613384565b5050565b5f612b10835f018373ffffffffffffffffffffffffffffffffffffffff165f1b613392565b905092915050565b612b45827f8a1c15a8799f71b547e08e2bcb2e85257e81b0a07eee2ce6712549eef1f009705f1b836133f9565b5050565b60605f612b57835f016130e8565b905060608190508092505050919050565b5f73ffffffffffffffffffffffffffffffffffffffff168473ffffffffffffffffffffffffffffffffffffffff1603612bcd576040517f24ecef4d00000000000000000000000000000000000000000000000000000000815260040160405180910390fd5b612bd683613080565b15612c1857826040517f34c7b511000000000000000000000000000000000000000000000000000000008152600401612c0f9190614cf1565b60405180910390fd5b612c245f858584613141565b612c2d83613080565b15612c6f57826040517f34c7b511000000000000000000000000000000000000000000000000000000008152600401612c669190614cf1565b60405180910390fd5b60025f8154612c7d9061539a565b91905081905550612cd38360045f8773ffffffffffffffffffffffffffffffffffffffff1673ffffffffffffffffffffffffffffffffffffffff1681526020019081526020015f206131ca90919063ffffffff16565b508360035f8581526020019081526020015f205f6101000a81548173ffffffffffffffffffffffffffffffffffffffff021916908373ffffffffffffffffffffffffffffffffffffffff160217905550828473ffffffffffffffffffffffffffffffffffffffff165f73ffffffffffffffffffffffffffffffffffffffff167fb333c813a7426a7a11e2b190cad52c44119421594b47f6f32ace6d8c7207b2bf338686604051612d85939291906154ca565b60405180910390a4612d995f8585846131df565b5f335f868685604051602001612db3959493929190615506565b6040516020818303038152906040529050612dcf858483613216565b5050505050565b8060065f8581526020019081526020015f205f8481526020019081526020015f209081612e0391906151b6565b5081837fa6e4251f855f750545fe414f120db91c76b88def14d120969e5bb2d3f05debbb83604051612e359190613ad7565b60405180910390a3505050565b5f612e668660055f8781526020019081526020015f206134b390919063ffffffff16565b905080612eac5785846040517f4aa31a8c000000000000000000000000000000000000000000000000000000008152600401612ea3929190614fb1565b60405180910390fd5b838573ffffffffffffffffffffffffffffffffffffffff168773ffffffffffffffffffffffffffffffffffffffff167fc78cd419d6136f9f1c1c6aec1d3fae098cffaf8bc86314a8f2685e32fe574e3c8686604051612f0c92919061555e565b60405180910390a4505050505050565b5f80835f60f01b84604051602001612f3693929190615642565b604051602081830303815290604052905080612f5190615692565b91505092915050565b5f63629aa69460e01b7bffffffffffffffffffffffffffffffffffffffffffffffffffffffff1916827bffffffffffffffffffffffffffffffffffffffffffffffffffffffff19161480612fb35750612fb2826134e0565b5b9050919050565b5f8082604051602401612fcd9190614d19565b6040516020818303038152906040526301ffc9a760e01b6020820180517bffffffffffffffffffffffffffffffffffffffffffffffffffffffff838183161783525050505090505f805f60205f8551602087018a617530fa92503d91505f51905082801561303c575060208210155b801561304757505f81115b94505050505092915050565b5f613078835f018373ffffffffffffffffffffffffffffffffffffffff165f1b613549565b905092915050565b5f8073ffffffffffffffffffffffffffffffffffffffff1660035f8481526020019081526020015f205f9054906101000a900473ffffffffffffffffffffffffffffffffffffffff1673ffffffffffffffffffffffffffffffffffffffff1614159050919050565b6060815f0180548060200260200160405190810160405280929190818152602001828054801561313557602002820191905f5260205f20905b815481526020019060010190808311613121575b50505050509050919050565b50505050565b5f60055f8381526020019081526020015f2090505f61316582613569565b90505f805b828110156131ad576131855f8561357c90919063ffffffff16565b91506131a28287875f60405180602001604052805f815250612e42565b80600101905061316a565b505050505050565b5f6131c2835f0183613593565b905092915050565b5f6131d7835f0183613392565b905092915050565b50505050565b613212827fb23eae7e6d1564b295b4c3e3be402d9a2f0776c57bdf365903496f6fa481ab005f1b836133f9565b5050565b61322783636bb56a1460e01b612fba565b156132d2578273ffffffffffffffffffffffffffffffffffffffff16636bb56a147f0b084a55ebf70fd3c06fd755269dac2212c4d3f0f4d09079780bfa50c1b2984d5f1b836040518363ffffffff1660e01b81526004016132899291906156f8565b5f604051808303815f875af11580156132a4573d5f803e3d5ffd5b505050506040513d5f823e3d601f19601f820116820180604052508101906132cc9190615794565b50613370565b8161336f575f8373ffffffffffffffffffffffffffffffffffffffff163b1461333257826040517f4349776d0000000000000000000000000000000000000000000000000000000081526004016133299190613e7b565b60405180910390fd5b826040517f031731370000000000000000000000000000000000000000000000000000000081526004016133669190613e7b565b60405180910390fd5b5b505050565b5f815f01805490509050919050565b61338e828261368f565b5050565b5f61339d8383613549565b6133ef57825f0182908060018154018082558091505060019003905f5260205f20015f9091909190915055825f0180549050836001015f8481526020019081526020015f2081905550600190506133f3565b5f90505b92915050565b613429636bb56a1460e01b8473ffffffffffffffffffffffffffffffffffffffff16612fba90919063ffffffff16565b156134ae578273ffffffffffffffffffffffffffffffffffffffff16636bb56a1483836040518363ffffffff1660e01b81526004016134699291906156f8565b5f604051808303815f875af1158015613484573d5f803e3d5ffd5b505050506040513d5f823e3d601f19601f820116820180604052508101906134ac9190615794565b505b505050565b5f6134d8835f018373ffffffffffffffffffffffffffffffffffffffff165f1b613593565b905092915050565b5f7f01ffc9a7000000000000000000000000000000000000000000000000000000007bffffffffffffffffffffffffffffffffffffffffffffffffffffffff1916827bffffffffffffffffffffffffffffffffffffffffffffffffffffffff1916149050919050565b5f80836001015f8481526020019081526020015f20541415905092915050565b5f613575825f01613375565b9050919050565b5f613589835f01836137fb565b5f1c905092915050565b5f80836001015f8481526020019081526020015f205490505f8114613684575f6001826135c091906157db565b90505f6001865f01805490506135d691906157db565b905080821461363c575f865f0182815481106135f5576135f4614ea2565b5b905f5260205f200154905080875f01848154811061361657613615614ea2565b5b905f5260205f20018190555083876001015f8381526020019081526020015f2081905550505b855f0180548061364f5761364e61580e565b5b600190038181905f5260205f20015f90559055856001015f8681526020019081526020015f205f905560019350505050613689565b5f9150505b92915050565b7fdeba1e292f8ba88238e10ab3c7f88bd4be4fac56cad5194b6ecceaf653468af15f1b82036136ea576040517f85c169bd00000000000000000000000000000000000000000000000000000000815260040160405180910390fd5b7f2f0a68ab07768e01943a599e73362a0e17a63a72e94dd2e384d2c1d4db9327565f1b8203613745576040517f76755b3800000000000000000000000000000000000000000000000000000000815260040160405180910390fd5b7fe0261fa95db2eb3b5439bd033cda66d56b96f92f243a8228fd87550ed7bdfdb35f1b82036137a0576040517f4ef6d7fb00000000000000000000000000000000000000000000000000000000815260040160405180910390fd5b8060015f8481526020019081526020015f2090816137be91906151b6565b50817fece574603820d07bc9b91f2a932baadf4628aabcb8afba49776529c14a6104b2826040516137ef9190613ad7565b60405180910390a25050565b5f825f01828154811061381157613810614ea2565b5b905f5260205f200154905092915050565b61014a8061583c83390190565b5f82825260208201905092915050565b5f8082015250565b5f61385360048361382f565b915061385e8261383f565b602082019050919050565b5f6020820190508181035f83015261388081613847565b9050919050565b828183375f83830152505050565b5f601f19601f8301169050919050565b5f6138b0838561382f565b93506138bd838584613887565b6138c683613895565b840190509392505050565b5f6020820190508181035f8301526138ea8184866138a5565b90509392505050565b5f604051905090565b5f80fd5b5f80fd5b5f73ffffffffffffffffffffffffffffffffffffffff82169050919050565b5f61392d82613904565b9050919050565b61393d81613923565b8114613947575f80fd5b50565b5f8135905061395881613934565b92915050565b5f60208284031215613973576139726138fc565b5b5f6139808482850161394a565b91505092915050565b5f819050919050565b61399b81613989565b82525050565b5f6020820190506139b45f830184613992565b92915050565b5f7fffffffff0000000000000000000000000000000000000000000000000000000082169050919050565b6139ee816139ba565b81146139f8575f80fd5b50565b5f81359050613a09816139e5565b92915050565b5f60208284031215613a2457613a236138fc565b5b5f613a31848285016139fb565b91505092915050565b5f8115159050919050565b613a4e81613a3a565b82525050565b5f602082019050613a675f830184613a45565b92915050565b5f81519050919050565b5f5b83811015613a94578082015181840152602081019050613a79565b5f8484015250505050565b5f613aa982613a6d565b613ab3818561382f565b9350613ac3818560208601613a77565b613acc81613895565b840191505092915050565b5f6020820190508181035f830152613aef8184613a9f565b905092915050565b5f819050919050565b613b0981613af7565b8114613b13575f80fd5b50565b5f81359050613b2481613b00565b92915050565b5f8060408385031215613b4057613b3f6138fc565b5b5f613b4d85828601613b16565b9250506020613b5e85828601613b16565b9150509250929050565b5f80fd5b7f4e487b71000000000000000000000000000000000000000000000000000000005f52604160045260245ffd5b613ba282613895565b810181811067ffffffffffffffff82111715613bc157613bc0613b6c565b5b80604052505050565b5f613bd36138f3565b9050613bdf8282613b99565b919050565b5f67ffffffffffffffff821115613bfe57613bfd613b6c565b5b602082029050602081019050919050565b5f80fd5b5f613c25613c2084613be4565b613bca565b90508083825260208201905060208402830185811115613c4857613c47613c0f565b5b835b81811015613c715780613c5d8882613b16565b845260208401935050602081019050613c4a565b5050509392505050565b5f82601f830112613c8f57613c8e613b68565b5b8135613c9f848260208601613c13565b91505092915050565b5f8060408385031215613cbe57613cbd6138fc565b5b5f83013567ffffffffffffffff811115613cdb57613cda613900565b5b613ce785828601613c7b565b925050602083013567ffffffffffffffff811115613d0857613d07613900565b5b613d1485828601613c7b565b9150509250929050565b5f81519050919050565b5f82825260208201905092915050565b5f819050602082019050919050565b5f82825260208201905092915050565b5f613d6182613a6d565b613d6b8185613d47565b9350613d7b818560208601613a77565b613d8481613895565b840191505092915050565b5f613d9a8383613d57565b905092915050565b5f602082019050919050565b5f613db882613d1e565b613dc28185613d28565b935083602082028501613dd485613d38565b805f5b85811015613e0f5784840389528151613df08582613d8f565b9450613dfb83613da2565b925060208a01995050600181019050613dd7565b50829750879550505050505092915050565b5f6020820190508181035f830152613e398184613dae565b905092915050565b5f60208284031215613e5657613e556138fc565b5b5f613e6384828501613b16565b91505092915050565b613e7581613923565b82525050565b5f602082019050613e8e5f830184613e6c565b92915050565b5f8060408385031215613eaa57613ea96138fc565b5b5f613eb78582860161394a565b9250506020613ec885828601613b16565b9150509250929050565b5f81519050919050565b5f82825260208201905092915050565b5f819050602082019050919050565b613f0481613af7565b82525050565b613f1381613923565b82525050565b613f2281613989565b82525050565b606082015f820151613f3c5f850182613efb565b506020820151613f4f6020850182613f0a565b506040820151613f626040850182613f19565b50505050565b5f613f738383613f28565b60608301905092915050565b5f602082019050919050565b5f613f9582613ed2565b613f9f8185613edc565b9350613faa83613eec565b805f5b83811015613fda578151613fc18882613f68565b9750613fcc83613f7f565b925050600181019050613fad565b5085935050505092915050565b5f6020820190508181035f830152613fff8184613f8b565b905092915050565b5f81519050919050565b5f82825260208201905092915050565b5f819050602082019050919050565b5f61403b8383613f0a565b60208301905092915050565b5f602082019050919050565b5f61405d82614007565b6140678185614011565b935061407283614021565b805f5b838110156140a25781516140898882614030565b975061409483614047565b925050600181019050614075565b5085935050505092915050565b5f6020820190508181035f8301526140c78184614053565b905092915050565b6140d881613a3a565b81146140e2575f80fd5b50565b5f813590506140f3816140cf565b92915050565b5f80fd5b5f67ffffffffffffffff82111561411757614116613b6c565b5b61412082613895565b9050602081019050919050565b5f61413f61413a846140fd565b613bca565b90508281526020810184848401111561415b5761415a6140f9565b5b614166848285613887565b509392505050565b5f82601f83011261418257614181613b68565b5b813561419284826020860161412d565b91505092915050565b5f805f805f60a086880312156141b4576141b36138fc565b5b5f6141c18882890161394a565b95505060206141d28882890161394a565b94505060406141e388828901613b16565b93505060606141f4888289016140e5565b925050608086013567ffffffffffffffff81111561421557614214613900565b5b6142218882890161416e565b9150509295509295909350565b5f80fd5b5f8083601f84011261424757614246613b68565b5b8235905067ffffffffffffffff8111156142645761426361422e565b5b6020830191508360208202830111156142805761427f613c0f565b5b9250929050565b5f806020838503121561429d5761429c6138fc565b5b5f83013567ffffffffffffffff8111156142ba576142b9613900565b5b6142c685828601614232565b92509250509250929050565b5f67ffffffffffffffff8211156142ec576142eb613b6c565b5b602082029050602081019050919050565b5f61430f61430a846142d2565b613bca565b9050808382526020820190506020840283018581111561433257614331613c0f565b5b835b8181101561435b5780614347888261394a565b845260208401935050602081019050614334565b5050509392505050565b5f82601f83011261437957614378613b68565b5b81356143898482602086016142fd565b91505092915050565b5f67ffffffffffffffff8211156143ac576143ab613b6c565b5b602082029050602081019050919050565b5f6143cf6143ca84614392565b613bca565b905080838252602082019050602084028301858111156143f2576143f1613c0f565b5b835b8181101561441b578061440788826140e5565b8452602084019350506020810190506143f4565b5050509392505050565b5f82601f83011261443957614438613b68565b5b81356144498482602086016143bd565b91505092915050565b5f67ffffffffffffffff82111561446c5761446b613b6c565b5b602082029050602081019050919050565b5f61448f61448a84614452565b613bca565b905080838252602082019050602084028301858111156144b2576144b1613c0f565b5b835b818110156144f957803567ffffffffffffffff8111156144d7576144d6613b68565b5b8086016144e4898261416e565b855260208501945050506020810190506144b4565b5050509392505050565b5f82601f83011261451757614516613b68565b5b813561452784826020860161447d565b91505092915050565b5f805f805f60a08688031215614549576145486138fc565b5b5f86013567ffffffffffffffff81111561456657614565613900565b5b61457288828901614365565b955050602086013567ffffffffffffffff81111561459357614592613900565b5b61459f88828901614365565b945050604086013567ffffffffffffffff8111156145c0576145bf613900565b5b6145cc88828901613c7b565b935050606086013567ffffffffffffffff8111156145ed576145ec613900565b5b6145f988828901614425565b925050608086013567ffffffffffffffff81111561461a57614619613900565b5b61462688828901614503565b9150509295509295909350565b5f8060408385031215614649576146486138fc565b5b5f61465685828601613b16565b925050602083013567ffffffffffffffff81111561467757614676613900565b5b6146838582860161416e565b9150509250929050565b5f805f606084860312156146a4576146a36138fc565b5b5f6146b18682870161394a565b93505060206146c286828701613b16565b925050604084013567ffffffffffffffff8111156146e3576146e2613900565b5b6146ef8682870161416e565b9150509250925092565b5f819050919050565b5f61471c61471761471284613904565b6146f9565b613904565b9050919050565b5f61472d82614702565b9050919050565b5f61473e82614723565b9050919050565b61474e81614734565b82525050565b5f6020820190506147675f830184614745565b92915050565b5f8060408385031215614783576147826138fc565b5b5f6147908582860161394a565b925050602083013567ffffffffffffffff8111156147b1576147b0613900565b5b6147bd8582860161416e565b9150509250929050565b5f80604083850312156147dd576147dc6138fc565b5b5f83013567ffffffffffffffff8111156147fa576147f9613900565b5b61480685828601613c7b565b925050602083013567ffffffffffffffff81111561482757614826613900565b5b61483385828601614503565b9150509250929050565b5f81519050919050565b5f82825260208201905092915050565b5f819050602082019050919050565b5f6148718383613efb565b60208301905092915050565b5f602082019050919050565b5f6148938261483d565b61489d8185614847565b93506148a883614857565b805f5b838110156148d85781516148bf8882614866565b97506148ca8361487d565b9250506001810190506148ab565b5085935050505092915050565b5f6020820190508181035f8301526148fd8184614889565b905092915050565b5f805f806080858703121561491d5761491c6138fc565b5b5f61492a8782880161394a565b945050602061493b87828801613b16565b935050604061494c878288016140e5565b925050606085013567ffffffffffffffff81111561496d5761496c613900565b5b6149798782880161416e565b91505092959194509250565b5f805f6060848603121561499c5761499b6138fc565b5b5f84013567ffffffffffffffff8111156149b9576149b8613900565b5b6149c586828701613c7b565b935050602084013567ffffffffffffffff8111156149e6576149e5613900565b5b6149f286828701613c7b565b925050604084013567ffffffffffffffff811115614a1357614a12613900565b5b614a1f86828701614503565b9150509250925092565b5f805f60608486031215614a4057614a3f6138fc565b5b5f614a4d86828701613b16565b9350506020614a5e86828701613b16565b925050604084013567ffffffffffffffff811115614a7f57614a7e613900565b5b614a8b8682870161416e565b9150509250925092565b5f60208284031215614aaa57614aa96138fc565b5b5f82013567ffffffffffffffff811115614ac757614ac6613900565b5b614ad384828501613c7b565b91505092915050565b614ae581613989565b8114614aef575f80fd5b50565b5f81359050614b0081614adc565b92915050565b5f8060408385031215614b1c57614b1b6138fc565b5b5f614b298582860161394a565b9250506020614b3a85828601614af2565b9150509250929050565b614b4d81613af7565b82525050565b5f606082019050614b665f830186614b44565b614b736020830185613e6c565b614b806040830184613992565b949350505050565b5f67ffffffffffffffff821115614ba257614ba1613b6c565b5b614bab82613895565b9050602081019050919050565b5f614bca614bc584614b88565b613bca565b905082815260208101848484011115614be657614be56140f9565b5b614bf1848285613887565b509392505050565b5f82601f830112614c0d57614c0c613b68565b5b8135614c1d848260208601614bb8565b91505092915050565b5f805f805f60a08688031215614c3f57614c3e6138fc565b5b5f614c4c8882890161394a565b9550506020614c5d88828901613b16565b945050604086013567ffffffffffffffff811115614c7e57614c7d613900565b5b614c8a8882890161416e565b935050606086013567ffffffffffffffff811115614cab57614caa613900565b5b614cb78882890161416e565b925050608086013567ffffffffffffffff811115614cd857614cd7613900565b5b614ce488828901614bf9565b9150509295509295909350565b5f602082019050614d045f830184614b44565b92915050565b614d13816139ba565b82525050565b5f602082019050614d2c5f830184614d0a565b92915050565b5f81905092915050565b5f614d478385614d32565b9350614d54838584613887565b82840190509392505050565b5f8160601b9050919050565b5f614d7682614d60565b9050919050565b5f614d8782614d6c565b9050919050565b614d9f614d9a82613923565b614d7d565b82525050565b5f819050919050565b614dbf614dba82613989565b614da5565b82525050565b5f614dd1828688614d3c565b9150614ddd8285614d8e565b601482019150614ded8284614dae565b60208201915081905095945050505050565b5f614e0982613a6d565b614e138185614d32565b9350614e23818560208601613a77565b80840191505092915050565b5f614e3a8284614dff565b915081905092915050565b7f4e487b71000000000000000000000000000000000000000000000000000000005f52602260045260245ffd5b5f6002820490506001821680614e8957607f821691505b602082108103614e9c57614e9b614e45565b5b50919050565b7f4e487b71000000000000000000000000000000000000000000000000000000005f52603260045260245ffd5b5f604082019050614ee25f830185614b44565b614eef6020830184613e6c565b9392505050565b5f80fd5b5f80fd5b5f80fd5b5f8083356001602003843603038112614f1e57614f1d614ef6565b5b80840192508235915067ffffffffffffffff821115614f4057614f3f614efa565b5b602083019250600182023603831315614f5c57614f5b614efe565b5b509250929050565b5f614f70828486614d3c565b91508190509392505050565b5f606082019050614f8f5f830186613e6c565b614f9c6020830185614b44565b614fa96040830184613e6c565b949350505050565b5f604082019050614fc45f830185613e6c565b614fd16020830184614b44565b9392505050565b5f608082019050614feb5f830187613e6c565b614ff86020830186614b44565b6150056040830185613a45565b81810360608301526150178184613a9f565b905095945050505050565b5f819050815f5260205f209050919050565b5f6020601f8301049050919050565b5f82821b905092915050565b5f6008830261507e7fffffffffffffffffffffffffffffffffffffffffffffffffffffffffffffffff82615043565b6150888683615043565b95508019841693508086168417925050509392505050565b5f6150ba6150b56150b084613989565b6146f9565b613989565b9050919050565b5f819050919050565b6150d3836150a0565b6150e76150df826150c1565b84845461504f565b825550505050565b5f90565b6150fb6150ef565b6151068184846150ca565b505050565b5b818110156151295761511e5f826150f3565b60018101905061510c565b5050565b601f82111561516e5761513f81615022565b61514884615034565b81016020851015615157578190505b61516b61516385615034565b83018261510b565b50505b505050565b5f82821c905092915050565b5f61518e5f1984600802615173565b1980831691505092915050565b5f6151a6838361517f565b9150826002028217905092915050565b6151bf82613a6d565b67ffffffffffffffff8111156151d8576151d7613b6c565b5b6151e28254614e72565b6151ed82828561512d565b5f60209050601f83116001811461521e575f841561520c578287015190505b615216858261519b565b86555061527d565b601f19841661522c86615022565b5f5b828110156152535784890151825560018201915060208501945060208101905061522e565b86831015615270578489015161526c601f89168261517f565b8355505b6001600288020188555050505b505050505050565b7f4e487b71000000000000000000000000000000000000000000000000000000005f52601160045260245ffd5b5f6152bc82613989565b91506152c783613989565b92508282019050808211156152df576152de615285565b5b92915050565b5f6060820190506152f85f830186613e6c565b6153056020830185613e6c565b6153126040830184614b44565b949350505050565b5f81519050919050565b5f82825260208201905092915050565b5f61533e8261531a565b6153488185615324565b9350615358818560208601613a77565b61536181613895565b840191505092915050565b5f60408201905061537f5f830185614b44565b81810360208301526153918184615334565b90509392505050565b5f6153a482613989565b91507fffffffffffffffffffffffffffffffffffffffffffffffffffffffffffffffff82036153d6576153d5615285565b5b600182019050919050565b5f819050602082019050919050565b5f7fffffffffffffffffffffffffffffffffffffffff00000000000000000000000082169050919050565b5f61542682516153f0565b80915050919050565b5f61543982613a6d565b82615443846153e1565b905061544e8161541b565b9250601482101561548e576154897fffffffffffffffffffffffffffffffffffffffff00000000000000000000000083601403600802615043565b831692505b5050919050565b5f6060820190506154a85f830186614b44565b6154b56020830185613e6c565b6154c26040830184613e6c565b949350505050565b5f6060820190506154dd5f830186613e6c565b6154ea6020830185613a45565b81810360408301526154fc8184613a9f565b9050949350505050565b5f60a0820190506155195f830188613e6c565b6155266020830187613e6c565b6155336040830186613e6c565b6155406060830185614b44565b81810360808301526155528184613a9f565b90509695505050505050565b5f6040820190506155715f830185613a45565b81810360208301526155838184613a9f565b90509392505050565b5f7fffffffffffffffffffff0000000000000000000000000000000000000000000082169050919050565b5f819050919050565b6155d16155cc8261558c565b6155b7565b82525050565b5f7fffff00000000000000000000000000000000000000000000000000000000000082169050919050565b5f819050919050565b61561c615617826155d7565b615602565b82525050565b5f819050919050565b61563c615637826153f0565b615622565b82525050565b5f61564d82866155c0565b600a8201915061565d828561560b565b60028201915061566d828461562b565b601482019150819050949350505050565b5f6156898251613af7565b80915050919050565b5f61569c82613a6d565b826156a6846153e1565b90506156b18161567e565b925060208210156156f1576156ec7fffffffffffffffffffffffffffffffffffffffffffffffffffffffffffffffff83602003600802615043565b831692505b5050919050565b5f60408201905061570b5f830185614b44565b818103602083015261571d8184613a9f565b90509392505050565b5f615738615733846140fd565b613bca565b905082815260208101848484011115615754576157536140f9565b5b61575f848285613a77565b509392505050565b5f82601f83011261577b5761577a613b68565b5b815161578b848260208601615726565b91505092915050565b5f602082840312156157a9576157a86138fc565b5b5f82015167ffffffffffffffff8111156157c6576157c5613900565b5b6157d284828501615767565b91505092915050565b5f6157e582613989565b91506157f083613989565b925082820390508181111561580857615807615285565b5b92915050565b7f4e487b71000000000000000000000000000000000000000000000000000000005f52603160045260245ffdfe608060405234801561000f575f80fd5b50335f806101000a81548173ffffffffffffffffffffffffffffffffffffffff021916908373ffffffffffffffffffffffffffffffffffffffff16021790555060ef8061005b5f395ff3fe6080604052348015600e575f80fd5b50600436106026575f3560e01c80638da5cb5b14602a575b5f80fd5b60306044565b604051603b919060a2565b60405180910390f35b5f8054906101000a900473ffffffffffffffffffffffffffffffffffffffff1681565b5f73ffffffffffffffffffffffffffffffffffffffff82169050919050565b5f608e826067565b9050919050565b609c816086565b82525050565b5f60208201905060b35f8301846095565b9291505056fea26469706673582212204361ad3321c8aa4cf7ce57b443e21bc5d0da79b10552361b6d9c39586267a9fb64736f6c63430008140033a2646970667358221220d70f915321e82e24e7aee4787b9756ef4d22e5408be097e1b306840dbf5c2a6c64736f6c63430008140033",
			"opcodes": "PUSH1 0x80 PUSH1 0x40 MSTORE CALLVALUE DUP1 ISZERO PUSH3 0x10 JUMPI PUSH0 DUP1 REVERT JUMPDEST POP PUSH1 0x40 MLOAD PUSH3 0x65B5 CODESIZE SUB DUP1 PUSH3 0x65B5 DUP4 CODECOPY DUP2 DUP2 ADD PUSH1 0x40 MSTORE DUP2 ADD SWAP1 PUSH3 0x36 SWAP2 SWAP1 PUSH3 0x786 JUMP JUMPDEST DUP4 DUP4 DUP4 PUSH1 0x1 PUSH1 0x2 DUP5 DUP5 DUP5 DUP5 DUP5 DUP5 DUP5 DUP5 DUP5 DUP2 PUSH0 PUSH20 0xFFFFFFFFFFFFFFFFFFFFFFFFFFFFFFFFFFFFFFFF AND DUP2 PUSH20 0xFFFFFFFFFFFFFFFFFFFFFFFFFFFFFFFFFFFFFFFF AND SUB PUSH3 0xAD JUMPI PUSH1 0x40 MLOAD PUSH32 0x1AD8836C00000000000000000000000000000000000000000000000000000000 DUP2 MSTORE PUSH1 0x4 ADD PUSH1 0x40 MLOAD DUP1 SWAP2 SUB SWAP1 REVERT JUMPDEST PUSH3 0xBE DUP2 PUSH3 0x292 PUSH1 0x20 SHL PUSH1 0x20 SHR JUMP JUMPDEST POP PUSH3 0x128 PUSH32 0xEAFEC4D89FA9619884B60000A4D96624A38F7AC2D8D9A604ECF07C12C77E480C PUSH0 SHL PUSH1 0x40 MLOAD DUP1 PUSH1 0x40 ADD PUSH1 0x40 MSTORE DUP1 PUSH1 0x4 DUP2 MSTORE PUSH1 0x20 ADD PUSH32 0xA4D9662400000000000000000000000000000000000000000000000000000000 DUP2 MSTORE POP PUSH3 0x391 PUSH1 0x20 SHL PUSH1 0x20 SHR JUMP JUMPDEST PUSH3 0x15C PUSH32 0xDEBA1E292F8BA88238E10AB3C7F88BD4BE4FAC56CAD5194B6ECCEAF653468AF1 PUSH0 SHL DUP6 PUSH3 0x391 PUSH1 0x20 SHL PUSH1 0x20 SHR JUMP JUMPDEST PUSH3 0x190 PUSH32 0x2F0A68AB07768E01943A599E73362A0E17A63A72E94DD2E384D2C1D4DB932756 PUSH0 SHL DUP5 PUSH3 0x391 PUSH1 0x20 SHL PUSH1 0x20 SHR JUMP JUMPDEST PUSH3 0x1E5 PUSH32 0xE0261FA95DB2EB3B5439BD033CDA66D56B96F92F243A8228FD87550ED7BDFDB3 PUSH0 SHL DUP3 PUSH1 0x40 MLOAD PUSH1 0x20 ADD PUSH3 0x1CA SWAP2 SWAP1 PUSH3 0x84D JUMP JUMPDEST PUSH1 0x40 MLOAD PUSH1 0x20 DUP2 DUP4 SUB SUB DUP2 MSTORE SWAP1 PUSH1 0x40 MSTORE PUSH3 0x391 PUSH1 0x20 SHL PUSH1 0x20 SHR JUMP JUMPDEST POP POP POP POP PUSH3 0x23E PUSH32 0xF675E9361AF1C1664C1868CFA3EB97672D6B1A513AA5B81DEC34C9EE330E818D PUSH0 SHL DUP3 PUSH1 0x40 MLOAD PUSH1 0x20 ADD PUSH3 0x223 SWAP2 SWAP1 PUSH3 0x84D JUMP JUMPDEST PUSH1 0x40 MLOAD PUSH1 0x20 DUP2 DUP4 SUB SUB DUP2 MSTORE SWAP1 PUSH1 0x40 MSTORE PUSH3 0x3F0 PUSH1 0x20 SHL PUSH1 0x20 SHR JUMP JUMPDEST POP POP POP POP POP POP POP POP POP POP DUP1 PUSH1 0x7 PUSH0 PUSH2 0x100 EXP DUP2 SLOAD DUP2 PUSH20 0xFFFFFFFFFFFFFFFFFFFFFFFFFFFFFFFFFFFFFFFF MUL NOT AND SWAP1 DUP4 PUSH20 0xFFFFFFFFFFFFFFFFFFFFFFFFFFFFFFFFFFFFFFFF AND MUL OR SWAP1 SSTORE POP POP POP POP POP PUSH3 0xBEC JUMP JUMPDEST PUSH3 0x2A2 PUSH3 0x406 PUSH1 0x20 SHL PUSH1 0x20 SHR JUMP JUMPDEST PUSH20 0xFFFFFFFFFFFFFFFFFFFFFFFFFFFFFFFFFFFFFFFF AND DUP2 PUSH20 0xFFFFFFFFFFFFFFFFFFFFFFFFFFFFFFFFFFFFFFFF AND EQ PUSH3 0x38E JUMPI DUP1 PUSH20 0xFFFFFFFFFFFFFFFFFFFFFFFFFFFFFFFFFFFFFFFF AND PUSH0 DUP1 SLOAD SWAP1 PUSH2 0x100 EXP SWAP1 DIV PUSH20 0xFFFFFFFFFFFFFFFFFFFFFFFFFFFFFFFFFFFFFFFF AND PUSH20 0xFFFFFFFFFFFFFFFFFFFFFFFFFFFFFFFFFFFFFFFF AND PUSH32 0x8BE0079C531659141344CD1FD0A4F28419497F9722A3DAAFE3B4186F6B6457E0 PUSH1 0x40 MLOAD PUSH1 0x40 MLOAD DUP1 SWAP2 SUB SWAP1 LOG3 DUP1 PUSH0 DUP1 PUSH2 0x100 EXP DUP2 SLOAD DUP2 PUSH20 0xFFFFFFFFFFFFFFFFFFFFFFFFFFFFFFFFFFFFFFFF MUL NOT AND SWAP1 DUP4 PUSH20 0xFFFFFFFFFFFFFFFFFFFFFFFFFFFFFFFFFFFFFFFF AND MUL OR SWAP1 SSTORE POP JUMPDEST POP JUMP JUMPDEST DUP1 PUSH1 0x1 PUSH0 DUP5 DUP2 MSTORE PUSH1 0x20 ADD SWAP1 DUP2 MSTORE PUSH1 0x20 ADD PUSH0 KECCAK256 SWAP1 DUP2 PUSH3 0x3B1 SWAP2 SWAP1 PUSH3 0xA96 JUMP JUMPDEST POP DUP2 PUSH32 0xECE574603820D07BC9B91F2A932BAADF4628AABCB8AFBA49776529C14A6104B2 DUP3 PUSH1 0x40 MLOAD PUSH3 0x3E4 SWAP2 SWAP1 PUSH3 0xBCA JUMP JUMPDEST PUSH1 0x40 MLOAD DUP1 SWAP2 SUB SWAP1 LOG2 POP POP JUMP JUMPDEST PUSH3 0x402 DUP3 DUP3 PUSH3 0x42D PUSH1 0x20 SHL PUSH1 0x20 SHR JUMP JUMPDEST POP POP JUMP JUMPDEST PUSH0 DUP1 PUSH0 SWAP1 SLOAD SWAP1 PUSH2 0x100 EXP SWAP1 DIV PUSH20 0xFFFFFFFFFFFFFFFFFFFFFFFFFFFFFFFFFFFFFFFF AND SWAP1 POP SWAP1 JUMP JUMPDEST PUSH32 0xDEBA1E292F8BA88238E10AB3C7F88BD4BE4FAC56CAD5194B6ECCEAF653468AF1 PUSH0 SHL DUP3 SUB PUSH3 0x489 JUMPI PUSH1 0x40 MLOAD PUSH32 0x85C169BD00000000000000000000000000000000000000000000000000000000 DUP2 MSTORE PUSH1 0x4 ADD PUSH1 0x40 MLOAD DUP1 SWAP2 SUB SWAP1 REVERT JUMPDEST PUSH32 0x2F0A68AB07768E01943A599E73362A0E17A63A72E94DD2E384D2C1D4DB932756 PUSH0 SHL DUP3 SUB PUSH3 0x4E5 JUMPI PUSH1 0x40 MLOAD PUSH32 0x76755B3800000000000000000000000000000000000000000000000000000000 DUP2 MSTORE PUSH1 0x4 ADD PUSH1 0x40 MLOAD DUP1 SWAP2 SUB SWAP1 REVERT JUMPDEST PUSH32 0xE0261FA95DB2EB3B5439BD033CDA66D56B96F92F243A8228FD87550ED7BDFDB3 PUSH0 SHL DUP3 SUB PUSH3 0x541 JUMPI PUSH1 0x40 MLOAD PUSH32 0x4EF6D7FB00000000000000000000000000000000000000000000000000000000 DUP2 MSTORE PUSH1 0x4 ADD PUSH1 0x40 MLOAD DUP1 SWAP2 SUB SWAP1 REVERT JUMPDEST DUP1 PUSH1 0x1 PUSH0 DUP5 DUP2 MSTORE PUSH1 0x20 ADD SWAP1 DUP2 MSTORE PUSH1 0x20 ADD PUSH0 KECCAK256 SWAP1 DUP2 PUSH3 0x561 SWAP2 SWAP1 PUSH3 0xA96 JUMP JUMPDEST POP DUP2 PUSH32 0xECE574603820D07BC9B91F2A932BAADF4628AABCB8AFBA49776529C14A6104B2 DUP3 PUSH1 0x40 MLOAD PUSH3 0x594 SWAP2 SWAP1 PUSH3 0xBCA JUMP JUMPDEST PUSH1 0x40 MLOAD DUP1 SWAP2 SUB SWAP1 LOG2 POP POP JUMP JUMPDEST PUSH0 PUSH1 0x40 MLOAD SWAP1 POP SWAP1 JUMP JUMPDEST PUSH0 DUP1 REVERT JUMPDEST PUSH0 DUP1 REVERT JUMPDEST PUSH0 DUP1 REVERT JUMPDEST PUSH0 DUP1 REVERT JUMPDEST PUSH0 PUSH1 0x1F NOT PUSH1 0x1F DUP4 ADD AND SWAP1 POP SWAP2 SWAP1 POP JUMP JUMPDEST PUSH32 0x4E487B7100000000000000000000000000000000000000000000000000000000 PUSH0 MSTORE PUSH1 0x41 PUSH1 0x4 MSTORE PUSH1 0x24 PUSH0 REVERT JUMPDEST PUSH3 0x601 DUP3 PUSH3 0x5B9 JUMP JUMPDEST DUP2 ADD DUP2 DUP2 LT PUSH8 0xFFFFFFFFFFFFFFFF DUP3 GT OR ISZERO PUSH3 0x623 JUMPI PUSH3 0x622 PUSH3 0x5C9 JUMP JUMPDEST JUMPDEST DUP1 PUSH1 0x40 MSTORE POP POP POP JUMP JUMPDEST PUSH0 PUSH3 0x637 PUSH3 0x5A0 JUMP JUMPDEST SWAP1 POP PUSH3 0x645 DUP3 DUP3 PUSH3 0x5F6 JUMP JUMPDEST SWAP2 SWAP1 POP JUMP JUMPDEST PUSH0 PUSH8 0xFFFFFFFFFFFFFFFF DUP3 GT ISZERO PUSH3 0x667 JUMPI PUSH3 0x666 PUSH3 0x5C9 JUMP JUMPDEST JUMPDEST PUSH3 0x672 DUP3 PUSH3 0x5B9 JUMP JUMPDEST SWAP1 POP PUSH1 0x20 DUP2 ADD SWAP1 POP SWAP2 SWAP1 POP JUMP JUMPDEST PUSH0 JUMPDEST DUP4 DUP2 LT ISZERO PUSH3 0x69E JUMPI DUP1 DUP3 ADD MLOAD DUP2 DUP5 ADD MSTORE PUSH1 0x20 DUP2 ADD SWAP1 POP PUSH3 0x681 JUMP JUMPDEST PUSH0 DUP5 DUP5 ADD MSTORE POP POP POP POP JUMP JUMPDEST PUSH0 PUSH3 0x6BF PUSH3 0x6B9 DUP5 PUSH3 0x64A JUMP JUMPDEST PUSH3 0x62C JUMP JUMPDEST SWAP1 POP DUP3 DUP2 MSTORE PUSH1 0x20 DUP2 ADD DUP5 DUP5 DUP5 ADD GT ISZERO PUSH3 0x6DE JUMPI PUSH3 0x6DD PUSH3 0x5B5 JUMP JUMPDEST JUMPDEST PUSH3 0x6EB DUP5 DUP3 DUP6 PUSH3 0x67F JUMP JUMPDEST POP SWAP4 SWAP3 POP POP POP JUMP JUMPDEST PUSH0 DUP3 PUSH1 0x1F DUP4 ADD SLT PUSH3 0x70A JUMPI PUSH3 0x709 PUSH3 0x5B1 JUMP JUMPDEST JUMPDEST DUP2 MLOAD PUSH3 0x71C DUP5 DUP3 PUSH1 0x20 DUP7 ADD PUSH3 0x6A9 JUMP JUMPDEST SWAP2 POP POP SWAP3 SWAP2 POP POP JUMP JUMPDEST PUSH0 PUSH20 0xFFFFFFFFFFFFFFFFFFFFFFFFFFFFFFFFFFFFFFFF DUP3 AND SWAP1 POP SWAP2 SWAP1 POP JUMP JUMPDEST PUSH0 PUSH3 0x750 DUP3 PUSH3 0x725 JUMP JUMPDEST SWAP1 POP SWAP2 SWAP1 POP JUMP JUMPDEST PUSH3 0x762 DUP2 PUSH3 0x744 JUMP JUMPDEST DUP2 EQ PUSH3 0x76D JUMPI PUSH0 DUP1 REVERT JUMPDEST POP JUMP JUMPDEST PUSH0 DUP2 MLOAD SWAP1 POP PUSH3 0x780 DUP2 PUSH3 0x757 JUMP JUMPDEST SWAP3 SWAP2 POP POP JUMP JUMPDEST PUSH0 DUP1 PUSH0 DUP1 PUSH1 0x80 DUP6 DUP8 SUB SLT ISZERO PUSH3 0x7A1 JUMPI PUSH3 0x7A0 PUSH3 0x5A9 JUMP JUMPDEST JUMPDEST PUSH0 DUP6 ADD MLOAD PUSH8 0xFFFFFFFFFFFFFFFF DUP2 GT ISZERO PUSH3 0x7C1 JUMPI PUSH3 0x7C0 PUSH3 0x5AD JUMP JUMPDEST JUMPDEST PUSH3 0x7CF DUP8 DUP3 DUP9 ADD PUSH3 0x6F3 JUMP JUMPDEST SWAP5 POP POP PUSH1 0x20 DUP6 ADD MLOAD PUSH8 0xFFFFFFFFFFFFFFFF DUP2 GT ISZERO PUSH3 0x7F3 JUMPI PUSH3 0x7F2 PUSH3 0x5AD JUMP JUMPDEST JUMPDEST PUSH3 0x801 DUP8 DUP3 DUP9 ADD PUSH3 0x6F3 JUMP JUMPDEST SWAP4 POP POP PUSH1 0x40 PUSH3 0x814 DUP8 DUP3 DUP9 ADD PUSH3 0x770 JUMP JUMPDEST SWAP3 POP POP PUSH1 0x60 PUSH3 0x827 DUP8 DUP3 DUP9 ADD PUSH3 0x770 JUMP JUMPDEST SWAP2 POP POP SWAP3 SWAP6 SWAP2 SWAP5 POP SWAP3 POP JUMP JUMPDEST PUSH0 DUP2 SWAP1 POP SWAP2 SWAP1 POP JUMP JUMPDEST PUSH3 0x847 DUP2 PUSH3 0x833 JUMP JUMPDEST DUP3 MSTORE POP POP JUMP JUMPDEST PUSH0 PUSH1 0x20 DUP3 ADD SWAP1 POP PUSH3 0x862 PUSH0 DUP4 ADD DUP5 PUSH3 0x83C JUMP JUMPDEST SWAP3 SWAP2 POP POP JUMP JUMPDEST PUSH0 DUP2 MLOAD SWAP1 POP SWAP2 SWAP1 POP JUMP JUMPDEST PUSH32 0x4E487B7100000000000000000000000000000000000000000000000000000000 PUSH0 MSTORE PUSH1 0x22 PUSH1 0x4 MSTORE PUSH1 0x24 PUSH0 REVERT JUMPDEST PUSH0 PUSH1 0x2 DUP3 DIV SWAP1 POP PUSH1 0x1 DUP3 AND DUP1 PUSH3 0x8B7 JUMPI PUSH1 0x7F DUP3 AND SWAP2 POP JUMPDEST PUSH1 0x20 DUP3 LT DUP2 SUB PUSH3 0x8CD JUMPI PUSH3 0x8CC PUSH3 0x872 JUMP JUMPDEST JUMPDEST POP SWAP2 SWAP1 POP JUMP JUMPDEST PUSH0 DUP2 SWAP1 POP DUP2 PUSH0 MSTORE PUSH1 0x20 PUSH0 KECCAK256 SWAP1 POP SWAP2 SWAP1 POP JUMP JUMPDEST PUSH0 PUSH1 0x20 PUSH1 0x1F DUP4 ADD DIV SWAP1 POP SWAP2 SWAP1 POP JUMP JUMPDEST PUSH0 DUP3 DUP3 SHL SWAP1 POP SWAP3 SWAP2 POP POP JUMP JUMPDEST PUSH0 PUSH1 0x8 DUP4 MUL PUSH3 0x931 PUSH32 0xFFFFFFFFFFFFFFFFFFFFFFFFFFFFFFFFFFFFFFFFFFFFFFFFFFFFFFFFFFFFFFFF DUP3 PUSH3 0x8F4 JUMP JUMPDEST PUSH3 0x93D DUP7 DUP4 PUSH3 0x8F4 JUMP JUMPDEST SWAP6 POP DUP1 NOT DUP5 AND SWAP4 POP DUP1 DUP7 AND DUP5 OR SWAP3 POP POP POP SWAP4 SWAP3 POP POP POP JUMP JUMPDEST PUSH0 DUP2 SWAP1 POP SWAP2 SWAP1 POP JUMP JUMPDEST PUSH0 PUSH3 0x97E PUSH3 0x978 PUSH3 0x972 DUP5 PUSH3 0x833 JUMP JUMPDEST PUSH3 0x955 JUMP JUMPDEST PUSH3 0x833 JUMP JUMPDEST SWAP1 POP SWAP2 SWAP1 POP JUMP JUMPDEST PUSH0 DUP2 SWAP1 POP SWAP2 SWAP1 POP JUMP JUMPDEST PUSH3 0x999 DUP4 PUSH3 0x95E JUMP JUMPDEST PUSH3 0x9B1 PUSH3 0x9A8 DUP3 PUSH3 0x985 JUMP JUMPDEST DUP5 DUP5 SLOAD PUSH3 0x900 JUMP JUMPDEST DUP3 SSTORE POP POP POP POP JUMP JUMPDEST PUSH0 SWAP1 JUMP JUMPDEST PUSH3 0x9C7 PUSH3 0x9B9 JUMP JUMPDEST PUSH3 0x9D4 DUP2 DUP5 DUP5 PUSH3 0x98E JUMP JUMPDEST POP POP POP JUMP JUMPDEST JUMPDEST DUP2 DUP2 LT ISZERO PUSH3 0x9FB JUMPI PUSH3 0x9EF PUSH0 DUP3 PUSH3 0x9BD JUMP JUMPDEST PUSH1 0x1 DUP2 ADD SWAP1 POP PUSH3 0x9DA JUMP JUMPDEST POP POP JUMP JUMPDEST PUSH1 0x1F DUP3 GT ISZERO PUSH3 0xA4A JUMPI PUSH3 0xA14 DUP2 PUSH3 0x8D3 JUMP JUMPDEST PUSH3 0xA1F DUP5 PUSH3 0x8E5 JUMP JUMPDEST DUP2 ADD PUSH1 0x20 DUP6 LT ISZERO PUSH3 0xA2F JUMPI DUP2 SWAP1 POP JUMPDEST PUSH3 0xA47 PUSH3 0xA3E DUP6 PUSH3 0x8E5 JUMP JUMPDEST DUP4 ADD DUP3 PUSH3 0x9D9 JUMP JUMPDEST POP POP JUMPDEST POP POP POP JUMP JUMPDEST PUSH0 DUP3 DUP3 SHR SWAP1 POP SWAP3 SWAP2 POP POP JUMP JUMPDEST PUSH0 PUSH3 0xA6C PUSH0 NOT DUP5 PUSH1 0x8 MUL PUSH3 0xA4F JUMP JUMPDEST NOT DUP1 DUP4 AND SWAP2 POP POP SWAP3 SWAP2 POP POP JUMP JUMPDEST PUSH0 PUSH3 0xA86 DUP4 DUP4 PUSH3 0xA5B JUMP JUMPDEST SWAP2 POP DUP3 PUSH1 0x2 MUL DUP3 OR SWAP1 POP SWAP3 SWAP2 POP POP JUMP JUMPDEST PUSH3 0xAA1 DUP3 PUSH3 0x868 JUMP JUMPDEST PUSH8 0xFFFFFFFFFFFFFFFF DUP2 GT ISZERO PUSH3 0xABD JUMPI PUSH3 0xABC PUSH3 0x5C9 JUMP JUMPDEST JUMPDEST PUSH3 0xAC9 DUP3 SLOAD PUSH3 0x89F JUMP JUMPDEST PUSH3 0xAD6 DUP3 DUP3 DUP6 PUSH3 0x9FF JUMP JUMPDEST PUSH0 PUSH1 0x20 SWAP1 POP PUSH1 0x1F DUP4 GT PUSH1 0x1 DUP2 EQ PUSH3 0xB0C JUMPI PUSH0 DUP5 ISZERO PUSH3 0xAF7 JUMPI DUP3 DUP8 ADD MLOAD SWAP1 POP JUMPDEST PUSH3 0xB03 DUP6 DUP3 PUSH3 0xA79 JUMP JUMPDEST DUP7 SSTORE POP PUSH3 0xB72 JUMP JUMPDEST PUSH1 0x1F NOT DUP5 AND PUSH3 0xB1C DUP7 PUSH3 0x8D3 JUMP JUMPDEST PUSH0 JUMPDEST DUP3 DUP2 LT ISZERO PUSH3 0xB45 JUMPI DUP5 DUP10 ADD MLOAD DUP3 SSTORE PUSH1 0x1 DUP3 ADD SWAP2 POP PUSH1 0x20 DUP6 ADD SWAP5 POP PUSH1 0x20 DUP2 ADD SWAP1 POP PUSH3 0xB1E JUMP JUMPDEST DUP7 DUP4 LT ISZERO PUSH3 0xB65 JUMPI DUP5 DUP10 ADD MLOAD PUSH3 0xB61 PUSH1 0x1F DUP10 AND DUP3 PUSH3 0xA5B JUMP JUMPDEST DUP4 SSTORE POP JUMPDEST PUSH1 0x1 PUSH1 0x2 DUP9 MUL ADD DUP9 SSTORE POP POP POP JUMPDEST POP POP POP POP POP POP JUMP JUMPDEST PUSH0 DUP3 DUP3 MSTORE PUSH1 0x20 DUP3 ADD SWAP1 POP SWAP3 SWAP2 POP POP JUMP JUMPDEST PUSH0 PUSH3 0xB96 DUP3 PUSH3 0x868 JUMP JUMPDEST PUSH3 0xBA2 DUP2 DUP6 PUSH3 0xB7A JUMP JUMPDEST SWAP4 POP PUSH3 0xBB4 DUP2 DUP6 PUSH1 0x20 DUP7 ADD PUSH3 0x67F JUMP JUMPDEST PUSH3 0xBBF DUP2 PUSH3 0x5B9 JUMP JUMPDEST DUP5 ADD SWAP2 POP POP SWAP3 SWAP2 POP POP JUMP JUMPDEST PUSH0 PUSH1 0x20 DUP3 ADD SWAP1 POP DUP2 DUP2 SUB PUSH0 DUP4 ADD MSTORE PUSH3 0xBE4 DUP2 DUP5 PUSH3 0xB8A JUMP JUMPDEST SWAP1 POP SWAP3 SWAP2 POP POP JUMP JUMPDEST PUSH2 0x59BB DUP1 PUSH3 0xBFA PUSH0 CODECOPY PUSH0 RETURN INVALID PUSH1 0x80 PUSH1 0x40 MSTORE PUSH1 0x4 CALLDATASIZE LT PUSH2 0x228 JUMPI PUSH0 CALLDATALOAD PUSH1 0xE0 SHR DUP1 PUSH4 0x715018A6 GT PUSH2 0x122 JUMPI DUP1 PUSH4 0xAF255B61 GT PUSH2 0xAA JUMPI DUP1 PUSH4 0xDEDFF9C6 GT PUSH2 0x6E JUMPI DUP1 PUSH4 0xDEDFF9C6 EQ PUSH2 0x975 JUMPI DUP1 PUSH4 0xF08E076D EQ PUSH2 0x9B1 JUMPI DUP1 PUSH4 0xF2FDE38B EQ PUSH2 0x9ED JUMPI DUP1 PUSH4 0xF4E4FB41 EQ PUSH2 0xA15 JUMPI DUP1 PUSH4 0xF6E5826E EQ PUSH2 0xA53 JUMPI PUSH2 0x2A1 JUMP JUMPDEST DUP1 PUSH4 0xAF255B61 EQ PUSH2 0x8AB JUMPI DUP1 PUSH4 0xBE9F0E6F EQ PUSH2 0x8D3 JUMPI DUP1 PUSH4 0xBEB9716D EQ PUSH2 0x8FB JUMPI DUP1 PUSH4 0xD6C1407C EQ PUSH2 0x925 JUMPI DUP1 PUSH4 0xDB8C9663 EQ PUSH2 0x94D JUMPI PUSH2 0x2A1 JUMP JUMPDEST DUP1 PUSH4 0x86F029D8 GT PUSH2 0xF1 JUMPI DUP1 PUSH4 0x86F029D8 EQ PUSH2 0x7D7 JUMPI DUP1 PUSH4 0x8DA5CB5B EQ PUSH2 0x801 JUMPI DUP1 PUSH4 0x92E18C4A EQ PUSH2 0x82B JUMPI DUP1 PUSH4 0x97902421 EQ PUSH2 0x853 JUMPI DUP1 PUSH4 0xA3B261F2 EQ PUSH2 0x86F JUMPI PUSH2 0x2A1 JUMP JUMPDEST DUP1 PUSH4 0x715018A6 EQ PUSH2 0x755 JUMPI DUP1 PUSH4 0x7E87632C EQ PUSH2 0x76B JUMPI DUP1 PUSH4 0x7F23690C EQ PUSH2 0x793 JUMPI DUP1 PUSH4 0x86A10DDD EQ PUSH2 0x7AF JUMPI PUSH2 0x2A1 JUMP JUMPDEST DUP1 PUSH4 0x32E30AEA GT PUSH2 0x1B0 JUMPI DUP1 PUSH4 0x4B74A1F1 GT PUSH2 0x174 JUMPI DUP1 PUSH4 0x4B74A1F1 EQ PUSH2 0x63D JUMPI DUP1 PUSH4 0x511B6952 EQ PUSH2 0x679 JUMPI DUP1 PUSH4 0x54F6127F EQ PUSH2 0x6A1 JUMPI DUP1 PUSH4 0x6963D438 EQ PUSH2 0x6DD JUMPI DUP1 PUSH4 0x70A08231 EQ PUSH2 0x719 JUMPI PUSH2 0x2A1 JUMP JUMPDEST DUP1 PUSH4 0x32E30AEA EQ PUSH2 0x511 JUMPI DUP1 PUSH4 0x3A0F787F EQ PUSH2 0x54D JUMPI DUP1 PUSH4 0x3DB3ED30 EQ PUSH2 0x589 JUMPI DUP1 PUSH4 0x4046B9FD EQ PUSH2 0x5C5 JUMPI DUP1 PUSH4 0x49A6078D EQ PUSH2 0x601 JUMPI PUSH2 0x2A1 JUMP JUMPDEST DUP1 PUSH4 0x16E023B3 GT PUSH2 0x1F7 JUMPI DUP1 PUSH4 0x16E023B3 EQ PUSH2 0x3F7 JUMPI DUP1 PUSH4 0x18160DDD EQ PUSH2 0x433 JUMPI DUP1 PUSH4 0x1D26FCE6 EQ PUSH2 0x45D JUMPI DUP1 PUSH4 0x217B2270 EQ PUSH2 0x499 JUMPI DUP1 PUSH4 0x2A3654A4 EQ PUSH2 0x4D5 JUMPI PUSH2 0x2A1 JUMP JUMPDEST DUP1 PUSH4 0x13EBA92 EQ PUSH2 0x307 JUMPI DUP1 PUSH4 0x1FFC9A7 EQ PUSH2 0x343 JUMPI DUP1 PUSH4 0x75BF131 EQ PUSH2 0x37F JUMPI DUP1 PUSH4 0xC590F51 EQ PUSH2 0x3BB JUMPI PUSH2 0x2A1 JUMP JUMPDEST CALLDATASIZE PUSH2 0x2A1 JUMPI PUSH0 CALLVALUE SUB PUSH2 0x26F JUMPI PUSH1 0x40 MLOAD PUSH32 0xE5099EE300000000000000000000000000000000000000000000000000000000 DUP2 MSTORE PUSH1 0x4 ADD PUSH2 0x266 SWAP1 PUSH2 0x3869 JUMP JUMPDEST PUSH1 0x40 MLOAD DUP1 SWAP2 SUB SWAP1 REVERT JUMPDEST PUSH1 0x40 MLOAD PUSH32 0x61F4944200000000000000000000000000000000000000000000000000000000 DUP2 MSTORE PUSH1 0x4 ADD PUSH1 0x40 MLOAD DUP1 SWAP2 SUB SWAP1 REVERT JUMPDEST PUSH0 CALLDATASIZE PUSH1 0x60 PUSH1 0x4 PUSH0 CALLDATASIZE SWAP1 POP LT ISZERO PUSH2 0x2F0 JUMPI DUP3 DUP3 PUSH1 0x40 MLOAD PUSH32 0xE5099EE300000000000000000000000000000000000000000000000000000000 DUP2 MSTORE PUSH1 0x4 ADD PUSH2 0x2E7 SWAP3 SWAP2 SWAP1 PUSH2 0x38D1 JUMP JUMPDEST PUSH1 0x40 MLOAD DUP1 SWAP2 SUB SWAP1 REVERT JUMPDEST PUSH2 0x2FA DUP4 DUP4 PUSH2 0xA8F JUMP JUMPDEST SWAP1 POP SWAP2 POP POP DUP1 MLOAD SWAP1 PUSH1 0x20 ADD RETURN JUMPDEST CALLVALUE DUP1 ISZERO PUSH2 0x312 JUMPI PUSH0 DUP1 REVERT JUMPDEST POP PUSH2 0x32D PUSH1 0x4 DUP1 CALLDATASIZE SUB DUP2 ADD SWAP1 PUSH2 0x328 SWAP2 SWAP1 PUSH2 0x395E JUMP JUMPDEST PUSH2 0xC05 JUMP JUMPDEST PUSH1 0x40 MLOAD PUSH2 0x33A SWAP2 SWAP1 PUSH2 0x39A1 JUMP JUMPDEST PUSH1 0x40 MLOAD DUP1 SWAP2 SUB SWAP1 RETURN JUMPDEST CALLVALUE DUP1 ISZERO PUSH2 0x34E JUMPI PUSH0 DUP1 REVERT JUMPDEST POP PUSH2 0x369 PUSH1 0x4 DUP1 CALLDATASIZE SUB DUP2 ADD SWAP1 PUSH2 0x364 SWAP2 SWAP1 PUSH2 0x3A0F JUMP JUMPDEST PUSH2 0xC1A JUMP JUMPDEST PUSH1 0x40 MLOAD PUSH2 0x376 SWAP2 SWAP1 PUSH2 0x3A54 JUMP JUMPDEST PUSH1 0x40 MLOAD DUP1 SWAP2 SUB SWAP1 RETURN JUMPDEST CALLVALUE DUP1 ISZERO PUSH2 0x38A JUMPI PUSH0 DUP1 REVERT JUMPDEST POP PUSH2 0x3A5 PUSH1 0x4 DUP1 CALLDATASIZE SUB DUP2 ADD SWAP1 PUSH2 0x3A0 SWAP2 SWAP1 PUSH2 0x395E JUMP JUMPDEST PUSH2 0xC8A JUMP JUMPDEST PUSH1 0x40 MLOAD PUSH2 0x3B2 SWAP2 SWAP1 PUSH2 0x3AD7 JUMP JUMPDEST PUSH1 0x40 MLOAD DUP1 SWAP2 SUB SWAP1 RETURN JUMPDEST CALLVALUE DUP1 ISZERO PUSH2 0x3C6 JUMPI PUSH0 DUP1 REVERT JUMPDEST POP PUSH2 0x3E1 PUSH1 0x4 DUP1 CALLDATASIZE SUB DUP2 ADD SWAP1 PUSH2 0x3DC SWAP2 SWAP1 PUSH2 0x395E JUMP JUMPDEST PUSH2 0xD25 JUMP JUMPDEST PUSH1 0x40 MLOAD PUSH2 0x3EE SWAP2 SWAP1 PUSH2 0x39A1 JUMP JUMPDEST PUSH1 0x40 MLOAD DUP1 SWAP2 SUB SWAP1 RETURN JUMPDEST CALLVALUE DUP1 ISZERO PUSH2 0x402 JUMPI PUSH0 DUP1 REVERT JUMPDEST POP PUSH2 0x41D PUSH1 0x4 DUP1 CALLDATASIZE SUB DUP2 ADD SWAP1 PUSH2 0x418 SWAP2 SWAP1 PUSH2 0x3B2A JUMP JUMPDEST PUSH2 0xD6B JUMP JUMPDEST PUSH1 0x40 MLOAD PUSH2 0x42A SWAP2 SWAP1 PUSH2 0x3AD7 JUMP JUMPDEST PUSH1 0x40 MLOAD DUP1 SWAP2 SUB SWAP1 RETURN JUMPDEST CALLVALUE DUP1 ISZERO PUSH2 0x43E JUMPI PUSH0 DUP1 REVERT JUMPDEST POP PUSH2 0x447 PUSH2 0xD7F JUMP JUMPDEST PUSH1 0x40 MLOAD PUSH2 0x454 SWAP2 SWAP1 PUSH2 0x39A1 JUMP JUMPDEST PUSH1 0x40 MLOAD DUP1 SWAP2 SUB SWAP1 RETURN JUMPDEST CALLVALUE DUP1 ISZERO PUSH2 0x468 JUMPI PUSH0 DUP1 REVERT JUMPDEST POP PUSH2 0x483 PUSH1 0x4 DUP1 CALLDATASIZE SUB DUP2 ADD SWAP1 PUSH2 0x47E SWAP2 SWAP1 PUSH2 0x3CA8 JUMP JUMPDEST PUSH2 0xD88 JUMP JUMPDEST PUSH1 0x40 MLOAD PUSH2 0x490 SWAP2 SWAP1 PUSH2 0x3E21 JUMP JUMPDEST PUSH1 0x40 MLOAD DUP1 SWAP2 SUB SWAP1 RETURN JUMPDEST CALLVALUE DUP1 ISZERO PUSH2 0x4A4 JUMPI PUSH0 DUP1 REVERT JUMPDEST POP PUSH2 0x4BF PUSH1 0x4 DUP1 CALLDATASIZE SUB DUP2 ADD SWAP1 PUSH2 0x4BA SWAP2 SWAP1 PUSH2 0x3E41 JUMP JUMPDEST PUSH2 0xE8F JUMP JUMPDEST PUSH1 0x40 MLOAD PUSH2 0x4CC SWAP2 SWAP1 PUSH2 0x3E7B JUMP JUMPDEST PUSH1 0x40 MLOAD DUP1 SWAP2 SUB SWAP1 RETURN JUMPDEST CALLVALUE DUP1 ISZERO PUSH2 0x4E0 JUMPI PUSH0 DUP1 REVERT JUMPDEST POP PUSH2 0x4FB PUSH1 0x4 DUP1 CALLDATASIZE SUB DUP2 ADD SWAP1 PUSH2 0x4F6 SWAP2 SWAP1 PUSH2 0x3E94 JUMP JUMPDEST PUSH2 0xF3D JUMP JUMPDEST PUSH1 0x40 MLOAD PUSH2 0x508 SWAP2 SWAP1 PUSH2 0x3A54 JUMP JUMPDEST PUSH1 0x40 MLOAD DUP1 SWAP2 SUB SWAP1 RETURN JUMPDEST CALLVALUE DUP1 ISZERO PUSH2 0x51C JUMPI PUSH0 DUP1 REVERT JUMPDEST POP PUSH2 0x537 PUSH1 0x4 DUP1 CALLDATASIZE SUB DUP2 ADD SWAP1 PUSH2 0x532 SWAP2 SWAP1 PUSH2 0x3E41 JUMP JUMPDEST PUSH2 0xF50 JUMP JUMPDEST PUSH1 0x40 MLOAD PUSH2 0x544 SWAP2 SWAP1 PUSH2 0x3E7B JUMP JUMPDEST PUSH1 0x40 MLOAD DUP1 SWAP2 SUB SWAP1 RETURN JUMPDEST CALLVALUE DUP1 ISZERO PUSH2 0x558 JUMPI PUSH0 DUP1 REVERT JUMPDEST POP PUSH2 0x573 PUSH1 0x4 DUP1 CALLDATASIZE SUB DUP2 ADD SWAP1 PUSH2 0x56E SWAP2 SWAP1 PUSH2 0x395E JUMP JUMPDEST PUSH2 0xF80 JUMP JUMPDEST PUSH1 0x40 MLOAD PUSH2 0x580 SWAP2 SWAP1 PUSH2 0x39A1 JUMP JUMPDEST PUSH1 0x40 MLOAD DUP1 SWAP2 SUB SWAP1 RETURN JUMPDEST CALLVALUE DUP1 ISZERO PUSH2 0x594 JUMPI PUSH0 DUP1 REVERT JUMPDEST POP PUSH2 0x5AF PUSH1 0x4 DUP1 CALLDATASIZE SUB DUP2 ADD SWAP1 PUSH2 0x5AA SWAP2 SWAP1 PUSH2 0x395E JUMP JUMPDEST PUSH2 0xF95 JUMP JUMPDEST PUSH1 0x40 MLOAD PUSH2 0x5BC SWAP2 SWAP1 PUSH2 0x39A1 JUMP JUMPDEST PUSH1 0x40 MLOAD DUP1 SWAP2 SUB SWAP1 RETURN JUMPDEST CALLVALUE DUP1 ISZERO PUSH2 0x5D0 JUMPI PUSH0 DUP1 REVERT JUMPDEST POP PUSH2 0x5EB PUSH1 0x4 DUP1 CALLDATASIZE SUB DUP2 ADD SWAP1 PUSH2 0x5E6 SWAP2 SWAP1 PUSH2 0x395E JUMP JUMPDEST PUSH2 0xFDB JUMP JUMPDEST PUSH1 0x40 MLOAD PUSH2 0x5F8 SWAP2 SWAP1 PUSH2 0x3FE7 JUMP JUMPDEST PUSH1 0x40 MLOAD DUP1 SWAP2 SUB SWAP1 RETURN JUMPDEST CALLVALUE DUP1 ISZERO PUSH2 0x60C JUMPI PUSH0 DUP1 REVERT JUMPDEST POP PUSH2 0x627 PUSH1 0x4 DUP1 CALLDATASIZE SUB DUP2 ADD SWAP1 PUSH2 0x622 SWAP2 SWAP1 PUSH2 0x3E41 JUMP JUMPDEST PUSH2 0x10DC JUMP JUMPDEST PUSH1 0x40 MLOAD PUSH2 0x634 SWAP2 SWAP1 PUSH2 0x40AF JUMP JUMPDEST PUSH1 0x40 MLOAD DUP1 SWAP2 SUB SWAP1 RETURN JUMPDEST CALLVALUE DUP1 ISZERO PUSH2 0x648 JUMPI PUSH0 DUP1 REVERT JUMPDEST POP PUSH2 0x663 PUSH1 0x4 DUP1 CALLDATASIZE SUB DUP2 ADD SWAP1 PUSH2 0x65E SWAP2 SWAP1 PUSH2 0x395E JUMP JUMPDEST PUSH2 0x1107 JUMP JUMPDEST PUSH1 0x40 MLOAD PUSH2 0x670 SWAP2 SWAP1 PUSH2 0x3AD7 JUMP JUMPDEST PUSH1 0x40 MLOAD DUP1 SWAP2 SUB SWAP1 RETURN JUMPDEST CALLVALUE DUP1 ISZERO PUSH2 0x684 JUMPI PUSH0 DUP1 REVERT JUMPDEST POP PUSH2 0x69F PUSH1 0x4 DUP1 CALLDATASIZE SUB DUP2 ADD SWAP1 PUSH2 0x69A SWAP2 SWAP1 PUSH2 0x419B JUMP JUMPDEST PUSH2 0x11D4 JUMP JUMPDEST STOP JUMPDEST CALLVALUE DUP1 ISZERO PUSH2 0x6AC JUMPI PUSH0 DUP1 REVERT JUMPDEST POP PUSH2 0x6C7 PUSH1 0x4 DUP1 CALLDATASIZE SUB DUP2 ADD SWAP1 PUSH2 0x6C2 SWAP2 SWAP1 PUSH2 0x3E41 JUMP JUMPDEST PUSH2 0x1235 JUMP JUMPDEST PUSH1 0x40 MLOAD PUSH2 0x6D4 SWAP2 SWAP1 PUSH2 0x3AD7 JUMP JUMPDEST PUSH1 0x40 MLOAD DUP1 SWAP2 SUB SWAP1 RETURN JUMPDEST CALLVALUE DUP1 ISZERO PUSH2 0x6E8 JUMPI PUSH0 DUP1 REVERT JUMPDEST POP PUSH2 0x703 PUSH1 0x4 DUP1 CALLDATASIZE SUB DUP2 ADD SWAP1 PUSH2 0x6FE SWAP2 SWAP1 PUSH2 0x4287 JUMP JUMPDEST PUSH2 0x1247 JUMP JUMPDEST PUSH1 0x40 MLOAD PUSH2 0x710 SWAP2 SWAP1 PUSH2 0x3E21 JUMP JUMPDEST PUSH1 0x40 MLOAD DUP1 SWAP2 SUB SWAP1 RETURN JUMPDEST CALLVALUE DUP1 ISZERO PUSH2 0x724 JUMPI PUSH0 DUP1 REVERT JUMPDEST POP PUSH2 0x73F PUSH1 0x4 DUP1 CALLDATASIZE SUB DUP2 ADD SWAP1 PUSH2 0x73A SWAP2 SWAP1 PUSH2 0x395E JUMP JUMPDEST PUSH2 0x13BD JUMP JUMPDEST PUSH1 0x40 MLOAD PUSH2 0x74C SWAP2 SWAP1 PUSH2 0x39A1 JUMP JUMPDEST PUSH1 0x40 MLOAD DUP1 SWAP2 SUB SWAP1 RETURN JUMPDEST CALLVALUE DUP1 ISZERO PUSH2 0x760 JUMPI PUSH0 DUP1 REVERT JUMPDEST POP PUSH2 0x769 PUSH2 0x140A JUMP JUMPDEST STOP JUMPDEST CALLVALUE DUP1 ISZERO PUSH2 0x776 JUMPI PUSH0 DUP1 REVERT JUMPDEST POP PUSH2 0x791 PUSH1 0x4 DUP1 CALLDATASIZE SUB DUP2 ADD SWAP1 PUSH2 0x78C SWAP2 SWAP1 PUSH2 0x4530 JUMP JUMPDEST PUSH2 0x141D JUMP JUMPDEST STOP JUMPDEST PUSH2 0x7AD PUSH1 0x4 DUP1 CALLDATASIZE SUB DUP2 ADD SWAP1 PUSH2 0x7A8 SWAP2 SWAP1 PUSH2 0x4633 JUMP JUMPDEST PUSH2 0x152F JUMP JUMPDEST STOP JUMPDEST CALLVALUE DUP1 ISZERO PUSH2 0x7BA JUMPI PUSH0 DUP1 REVERT JUMPDEST POP PUSH2 0x7D5 PUSH1 0x4 DUP1 CALLDATASIZE SUB DUP2 ADD SWAP1 PUSH2 0x7D0 SWAP2 SWAP1 PUSH2 0x468D JUMP JUMPDEST PUSH2 0x157E JUMP JUMPDEST STOP JUMPDEST CALLVALUE DUP1 ISZERO PUSH2 0x7E2 JUMPI PUSH0 DUP1 REVERT JUMPDEST POP PUSH2 0x7EB PUSH2 0x17D4 JUMP JUMPDEST PUSH1 0x40 MLOAD PUSH2 0x7F8 SWAP2 SWAP1 PUSH2 0x4754 JUMP JUMPDEST PUSH1 0x40 MLOAD DUP1 SWAP2 SUB SWAP1 RETURN JUMPDEST CALLVALUE DUP1 ISZERO PUSH2 0x80C JUMPI PUSH0 DUP1 REVERT JUMPDEST POP PUSH2 0x815 PUSH2 0x17F9 JUMP JUMPDEST PUSH1 0x40 MLOAD PUSH2 0x822 SWAP2 SWAP1 PUSH2 0x3E7B JUMP JUMPDEST PUSH1 0x40 MLOAD DUP1 SWAP2 SUB SWAP1 RETURN JUMPDEST CALLVALUE DUP1 ISZERO PUSH2 0x836 JUMPI PUSH0 DUP1 REVERT JUMPDEST POP PUSH2 0x851 PUSH1 0x4 DUP1 CALLDATASIZE SUB DUP2 ADD SWAP1 PUSH2 0x84C SWAP2 SWAP1 PUSH2 0x476D JUMP JUMPDEST PUSH2 0x1820 JUMP JUMPDEST STOP JUMPDEST PUSH2 0x86D PUSH1 0x4 DUP1 CALLDATASIZE SUB DUP2 ADD SWAP1 PUSH2 0x868 SWAP2 SWAP1 PUSH2 0x47C7 JUMP JUMPDEST PUSH2 0x186F JUMP JUMPDEST STOP JUMPDEST CALLVALUE DUP1 ISZERO PUSH2 0x87A JUMPI PUSH0 DUP1 REVERT JUMPDEST POP PUSH2 0x895 PUSH1 0x4 DUP1 CALLDATASIZE SUB DUP2 ADD SWAP1 PUSH2 0x890 SWAP2 SWAP1 PUSH2 0x395E JUMP JUMPDEST PUSH2 0x197E JUMP JUMPDEST PUSH1 0x40 MLOAD PUSH2 0x8A2 SWAP2 SWAP1 PUSH2 0x48E5 JUMP JUMPDEST PUSH1 0x40 MLOAD DUP1 SWAP2 SUB SWAP1 RETURN JUMPDEST CALLVALUE DUP1 ISZERO PUSH2 0x8B6 JUMPI PUSH0 DUP1 REVERT JUMPDEST POP PUSH2 0x8D1 PUSH1 0x4 DUP1 CALLDATASIZE SUB DUP2 ADD SWAP1 PUSH2 0x8CC SWAP2 SWAP1 PUSH2 0x4905 JUMP JUMPDEST PUSH2 0x19CC JUMP JUMPDEST STOP JUMPDEST CALLVALUE DUP1 ISZERO PUSH2 0x8DE JUMPI PUSH0 DUP1 REVERT JUMPDEST POP PUSH2 0x8F9 PUSH1 0x4 DUP1 CALLDATASIZE SUB DUP2 ADD SWAP1 PUSH2 0x8F4 SWAP2 SWAP1 PUSH2 0x4985 JUMP JUMPDEST PUSH2 0x19E6 JUMP JUMPDEST STOP JUMPDEST CALLVALUE DUP1 ISZERO PUSH2 0x906 JUMPI PUSH0 DUP1 REVERT JUMPDEST POP PUSH2 0x90F PUSH2 0x1AE7 JUMP JUMPDEST PUSH1 0x40 MLOAD PUSH2 0x91C SWAP2 SWAP1 PUSH2 0x3A54 JUMP JUMPDEST PUSH1 0x40 MLOAD DUP1 SWAP2 SUB SWAP1 RETURN JUMPDEST CALLVALUE DUP1 ISZERO PUSH2 0x930 JUMPI PUSH0 DUP1 REVERT JUMPDEST POP PUSH2 0x94B PUSH1 0x4 DUP1 CALLDATASIZE SUB DUP2 ADD SWAP1 PUSH2 0x946 SWAP2 SWAP1 PUSH2 0x4A29 JUMP JUMPDEST PUSH2 0x1B3B JUMP JUMPDEST STOP JUMPDEST CALLVALUE DUP1 ISZERO PUSH2 0x958 JUMPI PUSH0 DUP1 REVERT JUMPDEST POP PUSH2 0x973 PUSH1 0x4 DUP1 CALLDATASIZE SUB DUP2 ADD SWAP1 PUSH2 0x96E SWAP2 SWAP1 PUSH2 0x4905 JUMP JUMPDEST PUSH2 0x1B53 JUMP JUMPDEST STOP JUMPDEST CALLVALUE DUP1 ISZERO PUSH2 0x980 JUMPI PUSH0 DUP1 REVERT JUMPDEST POP PUSH2 0x99B PUSH1 0x4 DUP1 CALLDATASIZE SUB DUP2 ADD SWAP1 PUSH2 0x996 SWAP2 SWAP1 PUSH2 0x4A95 JUMP JUMPDEST PUSH2 0x1D20 JUMP JUMPDEST PUSH1 0x40 MLOAD PUSH2 0x9A8 SWAP2 SWAP1 PUSH2 0x3E21 JUMP JUMPDEST PUSH1 0x40 MLOAD DUP1 SWAP2 SUB SWAP1 RETURN JUMPDEST CALLVALUE DUP1 ISZERO PUSH2 0x9BC JUMPI PUSH0 DUP1 REVERT JUMPDEST POP PUSH2 0x9D7 PUSH1 0x4 DUP1 CALLDATASIZE SUB DUP2 ADD SWAP1 PUSH2 0x9D2 SWAP2 SWAP1 PUSH2 0x395E JUMP JUMPDEST PUSH2 0x1DD0 JUMP JUMPDEST PUSH1 0x40 MLOAD PUSH2 0x9E4 SWAP2 SWAP1 PUSH2 0x39A1 JUMP JUMPDEST PUSH1 0x40 MLOAD DUP1 SWAP2 SUB SWAP1 RETURN JUMPDEST CALLVALUE DUP1 ISZERO PUSH2 0x9F8 JUMPI PUSH0 DUP1 REVERT JUMPDEST POP PUSH2 0xA13 PUSH1 0x4 DUP1 CALLDATASIZE SUB DUP2 ADD SWAP1 PUSH2 0xA0E SWAP2 SWAP1 PUSH2 0x395E JUMP JUMPDEST PUSH2 0x1DE5 JUMP JUMPDEST STOP JUMPDEST CALLVALUE DUP1 ISZERO PUSH2 0xA20 JUMPI PUSH0 DUP1 REVERT JUMPDEST POP PUSH2 0xA3B PUSH1 0x4 DUP1 CALLDATASIZE SUB DUP2 ADD SWAP1 PUSH2 0xA36 SWAP2 SWAP1 PUSH2 0x4B06 JUMP JUMPDEST PUSH2 0x1E5E JUMP JUMPDEST PUSH1 0x40 MLOAD PUSH2 0xA4A SWAP4 SWAP3 SWAP2 SWAP1 PUSH2 0x4B53 JUMP JUMPDEST PUSH1 0x40 MLOAD DUP1 SWAP2 SUB SWAP1 RETURN JUMPDEST CALLVALUE DUP1 ISZERO PUSH2 0xA5E JUMPI PUSH0 DUP1 REVERT JUMPDEST POP PUSH2 0xA79 PUSH1 0x4 DUP1 CALLDATASIZE SUB DUP2 ADD SWAP1 PUSH2 0xA74 SWAP2 SWAP1 PUSH2 0x4C26 JUMP JUMPDEST PUSH2 0x1EBD JUMP JUMPDEST PUSH1 0x40 MLOAD PUSH2 0xA86 SWAP2 SWAP1 PUSH2 0x4CF1 JUMP JUMPDEST PUSH1 0x40 MLOAD DUP1 SWAP2 SUB SWAP1 RETURN JUMPDEST PUSH1 0x60 PUSH0 PUSH2 0xABE PUSH0 CALLDATALOAD PUSH32 0xFFFFFFFF00000000000000000000000000000000000000000000000000000000 AND PUSH2 0x2234 JUMP JUMPDEST POP SWAP1 POP PUSH0 PUSH20 0xFFFFFFFFFFFFFFFFFFFFFFFFFFFFFFFFFFFFFFFF AND DUP2 PUSH20 0xFFFFFFFFFFFFFFFFFFFFFFFFFFFFFFFFFFFFFFFF AND SUB PUSH2 0xB54 JUMPI PUSH0 CALLDATALOAD PUSH32 0xFFFFFFFF00000000000000000000000000000000000000000000000000000000 AND PUSH1 0x40 MLOAD PUSH32 0xBB370B2B00000000000000000000000000000000000000000000000000000000 DUP2 MSTORE PUSH1 0x4 ADD PUSH2 0xB4B SWAP2 SWAP1 PUSH2 0x4D19 JUMP JUMPDEST PUSH1 0x40 MLOAD DUP1 SWAP2 SUB SWAP1 REVERT JUMPDEST PUSH0 DUP1 DUP3 PUSH20 0xFFFFFFFFFFFFFFFFFFFFFFFFFFFFFFFFFFFFFFFF AND CALLVALUE DUP8 DUP8 CALLER CALLVALUE PUSH1 0x40 MLOAD PUSH1 0x20 ADD PUSH2 0xB85 SWAP5 SWAP4 SWAP3 SWAP2 SWAP1 PUSH2 0x4DC5 JUMP JUMPDEST PUSH1 0x40 MLOAD PUSH1 0x20 DUP2 DUP4 SUB SUB DUP2 MSTORE SWAP1 PUSH1 0x40 MSTORE PUSH1 0x40 MLOAD PUSH2 0xBA1 SWAP2 SWAP1 PUSH2 0x4E2F JUMP JUMPDEST PUSH0 PUSH1 0x40 MLOAD DUP1 DUP4 SUB DUP2 DUP6 DUP8 GAS CALL SWAP3 POP POP POP RETURNDATASIZE DUP1 PUSH0 DUP2 EQ PUSH2 0xBDB JUMPI PUSH1 0x40 MLOAD SWAP2 POP PUSH1 0x1F NOT PUSH1 0x3F RETURNDATASIZE ADD AND DUP3 ADD PUSH1 0x40 MSTORE RETURNDATASIZE DUP3 MSTORE RETURNDATASIZE PUSH0 PUSH1 0x20 DUP5 ADD RETURNDATACOPY PUSH2 0xBE0 JUMP JUMPDEST PUSH1 0x60 SWAP2 POP JUMPDEST POP SWAP2 POP SWAP2 POP DUP2 ISZERO PUSH2 0xBF6 JUMPI DUP1 SWAP4 POP POP POP POP PUSH2 0xBFF JUMP JUMPDEST DUP1 MLOAD DUP1 PUSH1 0x20 DUP4 ADD REVERT JUMPDEST SWAP3 SWAP2 POP POP JUMP JUMPDEST PUSH1 0x8 PUSH1 0x20 MSTORE DUP1 PUSH0 MSTORE PUSH1 0x40 PUSH0 KECCAK256 PUSH0 SWAP2 POP SWAP1 POP SLOAD DUP2 JUMP JUMPDEST PUSH0 PUSH4 0x3A271706 PUSH1 0xE0 SHL PUSH28 0xFFFFFFFFFFFFFFFFFFFFFFFFFFFFFFFFFFFFFFFFFFFFFFFFFFFFFFFF NOT AND DUP3 PUSH28 0xFFFFFFFFFFFFFFFFFFFFFFFFFFFFFFFFFFFFFFFFFFFFFFFFFFFFFFFF NOT AND EQ DUP1 PUSH2 0xC73 JUMPI POP PUSH2 0xC72 DUP3 PUSH2 0x22EA JUMP JUMPDEST JUMPDEST DUP1 PUSH2 0xC83 JUMPI POP PUSH2 0xC82 DUP3 PUSH2 0x234A JUMP JUMPDEST JUMPDEST SWAP1 POP SWAP2 SWAP1 POP JUMP JUMPDEST PUSH1 0xA PUSH1 0x20 MSTORE DUP1 PUSH0 MSTORE PUSH1 0x40 PUSH0 KECCAK256 PUSH0 SWAP2 POP SWAP1 POP DUP1 SLOAD PUSH2 0xCA6 SWAP1 PUSH2 0x4E72 JUMP JUMPDEST DUP1 PUSH1 0x1F ADD PUSH1 0x20 DUP1 SWAP2 DIV MUL PUSH1 0x20 ADD PUSH1 0x40 MLOAD SWAP1 DUP2 ADD PUSH1 0x40 MSTORE DUP1 SWAP3 SWAP2 SWAP1 DUP2 DUP2 MSTORE PUSH1 0x20 ADD DUP3 DUP1 SLOAD PUSH2 0xCD2 SWAP1 PUSH2 0x4E72 JUMP JUMPDEST DUP1 ISZERO PUSH2 0xD1D JUMPI DUP1 PUSH1 0x1F LT PUSH2 0xCF4 JUMPI PUSH2 0x100 DUP1 DUP4 SLOAD DIV MUL DUP4 MSTORE SWAP2 PUSH1 0x20 ADD SWAP2 PUSH2 0xD1D JUMP JUMPDEST DUP3 ADD SWAP2 SWAP1 PUSH0 MSTORE PUSH1 0x20 PUSH0 KECCAK256 SWAP1 JUMPDEST DUP2 SLOAD DUP2 MSTORE SWAP1 PUSH1 0x1 ADD SWAP1 PUSH1 0x20 ADD DUP1 DUP4 GT PUSH2 0xD00 JUMPI DUP3 SWAP1 SUB PUSH1 0x1F AND DUP3 ADD SWAP2 JUMPDEST POP POP POP POP POP DUP2 JUMP JUMPDEST PUSH0 PUSH1 0x9 PUSH0 DUP4 PUSH20 0xFFFFFFFFFFFFFFFFFFFFFFFFFFFFFFFFFFFFFFFF AND PUSH20 0xFFFFFFFFFFFFFFFFFFFFFFFFFFFFFFFFFFFFFFFF AND DUP2 MSTORE PUSH1 0x20 ADD SWAP1 DUP2 MSTORE PUSH1 0x20 ADD PUSH0 KECCAK256 SLOAD SWAP1 POP SWAP2 SWAP1 POP JUMP JUMPDEST PUSH1 0x60 PUSH2 0xD77 DUP4 DUP4 PUSH2 0x23AE JUMP JUMPDEST SWAP1 POP SWAP3 SWAP2 POP POP JUMP JUMPDEST PUSH0 PUSH1 0x2 SLOAD SWAP1 POP SWAP1 JUMP JUMPDEST PUSH1 0x60 DUP2 MLOAD DUP4 MLOAD EQ PUSH2 0xDC5 JUMPI PUSH1 0x40 MLOAD PUSH32 0x2FA71DFE00000000000000000000000000000000000000000000000000000000 DUP2 MSTORE PUSH1 0x4 ADD PUSH1 0x40 MLOAD DUP1 SWAP2 SUB SWAP1 REVERT JUMPDEST DUP3 MLOAD PUSH8 0xFFFFFFFFFFFFFFFF DUP2 GT ISZERO PUSH2 0xDE0 JUMPI PUSH2 0xDDF PUSH2 0x3B6C JUMP JUMPDEST JUMPDEST PUSH1 0x40 MLOAD SWAP1 DUP1 DUP3 MSTORE DUP1 PUSH1 0x20 MUL PUSH1 0x20 ADD DUP3 ADD PUSH1 0x40 MSTORE DUP1 ISZERO PUSH2 0xE13 JUMPI DUP2 PUSH1 0x20 ADD JUMPDEST PUSH1 0x60 DUP2 MSTORE PUSH1 0x20 ADD SWAP1 PUSH1 0x1 SWAP1 SUB SWAP1 DUP2 PUSH2 0xDFE JUMPI SWAP1 POP JUMPDEST POP SWAP1 POP PUSH0 JUMPDEST DUP4 MLOAD DUP2 LT ISZERO PUSH2 0xE88 JUMPI PUSH2 0xE5F DUP5 DUP3 DUP2 MLOAD DUP2 LT PUSH2 0xE37 JUMPI PUSH2 0xE36 PUSH2 0x4EA2 JUMP JUMPDEST JUMPDEST PUSH1 0x20 MUL PUSH1 0x20 ADD ADD MLOAD DUP5 DUP4 DUP2 MLOAD DUP2 LT PUSH2 0xE52 JUMPI PUSH2 0xE51 PUSH2 0x4EA2 JUMP JUMPDEST JUMPDEST PUSH1 0x20 MUL PUSH1 0x20 ADD ADD MLOAD PUSH2 0x23AE JUMP JUMPDEST DUP3 DUP3 DUP2 MLOAD DUP2 LT PUSH2 0xE72 JUMPI PUSH2 0xE71 PUSH2 0x4EA2 JUMP JUMPDEST JUMPDEST PUSH1 0x20 MUL PUSH1 0x20 ADD ADD DUP2 SWAP1 MSTORE POP DUP1 PUSH1 0x1 ADD SWAP1 POP PUSH2 0xE18 JUMP JUMPDEST POP SWAP3 SWAP2 POP POP JUMP JUMPDEST PUSH0 DUP1 PUSH1 0x3 PUSH0 DUP5 DUP2 MSTORE PUSH1 0x20 ADD SWAP1 DUP2 MSTORE PUSH1 0x20 ADD PUSH0 KECCAK256 PUSH0 SWAP1 SLOAD SWAP1 PUSH2 0x100 EXP SWAP1 DIV PUSH20 0xFFFFFFFFFFFFFFFFFFFFFFFFFFFFFFFFFFFFFFFF AND SWAP1 POP PUSH0 PUSH20 0xFFFFFFFFFFFFFFFFFFFFFFFFFFFFFFFFFFFFFFFF AND DUP2 PUSH20 0xFFFFFFFFFFFFFFFFFFFFFFFFFFFFFFFFFFFFFFFF AND SUB PUSH2 0xF34 JUMPI DUP3 PUSH1 0x40 MLOAD PUSH32 0xAE8F9A3600000000000000000000000000000000000000000000000000000000 DUP2 MSTORE PUSH1 0x4 ADD PUSH2 0xF2B SWAP2 SWAP1 PUSH2 0x4CF1 JUMP JUMPDEST PUSH1 0x40 MLOAD DUP1 SWAP2 SUB SWAP1 REVERT JUMPDEST DUP1 SWAP2 POP POP SWAP2 SWAP1 POP JUMP JUMPDEST PUSH0 PUSH2 0xF48 DUP4 DUP4 PUSH2 0x245F JUMP JUMPDEST SWAP1 POP SWAP3 SWAP2 POP POP JUMP JUMPDEST PUSH1 0xD PUSH1 0x20 MSTORE DUP1 PUSH0 MSTORE PUSH1 0x40 PUSH0 KECCAK256 PUSH0 SWAP2 POP SLOAD SWAP1 PUSH2 0x100 EXP SWAP1 DIV PUSH20 0xFFFFFFFFFFFFFFFFFFFFFFFFFFFFFFFFFFFFFFFF AND DUP2 JUMP JUMPDEST PUSH1 0xB PUSH1 0x20 MSTORE DUP1 PUSH0 MSTORE PUSH1 0x40 PUSH0 KECCAK256 PUSH0 SWAP2 POP SWAP1 POP SLOAD DUP2 JUMP JUMPDEST PUSH0 PUSH1 0xB PUSH0 DUP4 PUSH20 0xFFFFFFFFFFFFFFFFFFFFFFFFFFFFFFFFFFFFFFFF AND PUSH20 0xFFFFFFFFFFFFFFFFFFFFFFFFFFFFFFFFFFFFFFFF AND DUP2 MSTORE PUSH1 0x20 ADD SWAP1 DUP2 MSTORE PUSH1 0x20 ADD PUSH0 KECCAK256 SLOAD SWAP1 POP SWAP2 SWAP1 POP JUMP JUMPDEST PUSH1 0x60 PUSH1 0xC PUSH0 DUP4 PUSH20 0xFFFFFFFFFFFFFFFFFFFFFFFFFFFFFFFFFFFFFFFF AND PUSH20 0xFFFFFFFFFFFFFFFFFFFFFFFFFFFFFFFFFFFFFFFF AND DUP2 MSTORE PUSH1 0x20 ADD SWAP1 DUP2 MSTORE PUSH1 0x20 ADD PUSH0 KECCAK256 DUP1 SLOAD DUP1 PUSH1 0x20 MUL PUSH1 0x20 ADD PUSH1 0x40 MLOAD SWAP1 DUP2 ADD PUSH1 0x40 MSTORE DUP1 SWAP3 SWAP2 SWAP1 DUP2 DUP2 MSTORE PUSH1 0x20 ADD PUSH0 SWAP1 JUMPDEST DUP3 DUP3 LT ISZERO PUSH2 0x10D1 JUMPI DUP4 DUP3 SWAP1 PUSH0 MSTORE PUSH1 0x20 PUSH0 KECCAK256 SWAP1 PUSH1 0x3 MUL ADD PUSH1 0x40 MLOAD DUP1 PUSH1 0x60 ADD PUSH1 0x40 MSTORE SWAP1 DUP2 PUSH0 DUP3 ADD SLOAD DUP2 MSTORE PUSH1 0x20 ADD PUSH1 0x1 DUP3 ADD PUSH0 SWAP1 SLOAD SWAP1 PUSH2 0x100 EXP SWAP1 DIV PUSH20 0xFFFFFFFFFFFFFFFFFFFFFFFFFFFFFFFFFFFFFFFF AND PUSH20 0xFFFFFFFFFFFFFFFFFFFFFFFFFFFFFFFFFFFFFFFF AND PUSH20 0xFFFFFFFFFFFFFFFFFFFFFFFFFFFFFFFFFFFFFFFF AND DUP2 MSTORE PUSH1 0x20 ADD PUSH1 0x2 DUP3 ADD SLOAD DUP2 MSTORE POP POP DUP2 MSTORE PUSH1 0x20 ADD SWAP1 PUSH1 0x1 ADD SWAP1 PUSH2 0x1039 JUMP JUMPDEST POP POP POP POP SWAP1 POP SWAP2 SWAP1 POP JUMP JUMPDEST PUSH1 0x60 PUSH2 0x10E7 DUP3 PUSH2 0x24C9 JUMP JUMPDEST PUSH2 0x1100 PUSH1 0x5 PUSH0 DUP5 DUP2 MSTORE PUSH1 0x20 ADD SWAP1 DUP2 MSTORE PUSH1 0x20 ADD PUSH0 KECCAK256 PUSH2 0x2516 JUMP JUMPDEST SWAP1 POP SWAP2 SWAP1 POP JUMP JUMPDEST PUSH1 0x60 PUSH1 0xA PUSH0 DUP4 PUSH20 0xFFFFFFFFFFFFFFFFFFFFFFFFFFFFFFFFFFFFFFFF AND PUSH20 0xFFFFFFFFFFFFFFFFFFFFFFFFFFFFFFFFFFFFFFFF AND DUP2 MSTORE PUSH1 0x20 ADD SWAP1 DUP2 MSTORE PUSH1 0x20 ADD PUSH0 KECCAK256 DUP1 SLOAD PUSH2 0x1151 SWAP1 PUSH2 0x4E72 JUMP JUMPDEST DUP1 PUSH1 0x1F ADD PUSH1 0x20 DUP1 SWAP2 DIV MUL PUSH1 0x20 ADD PUSH1 0x40 MLOAD SWAP1 DUP2 ADD PUSH1 0x40 MSTORE DUP1 SWAP3 SWAP2 SWAP1 DUP2 DUP2 MSTORE PUSH1 0x20 ADD DUP3 DUP1 SLOAD PUSH2 0x117D SWAP1 PUSH2 0x4E72 JUMP JUMPDEST DUP1 ISZERO PUSH2 0x11C8 JUMPI DUP1 PUSH1 0x1F LT PUSH2 0x119F JUMPI PUSH2 0x100 DUP1 DUP4 SLOAD DIV MUL DUP4 MSTORE SWAP2 PUSH1 0x20 ADD SWAP2 PUSH2 0x11C8 JUMP JUMPDEST DUP3 ADD SWAP2 SWAP1 PUSH0 MSTORE PUSH1 0x20 PUSH0 KECCAK256 SWAP1 JUMPDEST DUP2 SLOAD DUP2 MSTORE SWAP1 PUSH1 0x1 ADD SWAP1 PUSH1 0x20 ADD DUP1 DUP4 GT PUSH2 0x11AB JUMPI DUP3 SWAP1 SUB PUSH1 0x1F AND DUP3 ADD SWAP2 JUMPDEST POP POP POP POP POP SWAP1 POP SWAP2 SWAP1 POP JUMP JUMPDEST PUSH2 0x11DE CALLER DUP5 PUSH2 0x245F JUMP JUMPDEST PUSH2 0x1221 JUMPI DUP3 CALLER PUSH1 0x40 MLOAD PUSH32 0x1294D2A900000000000000000000000000000000000000000000000000000000 DUP2 MSTORE PUSH1 0x4 ADD PUSH2 0x1218 SWAP3 SWAP2 SWAP1 PUSH2 0x4ECF JUMP JUMPDEST PUSH1 0x40 MLOAD DUP1 SWAP2 SUB SWAP1 REVERT JUMPDEST PUSH2 0x122E DUP6 DUP6 DUP6 DUP6 DUP6 PUSH2 0x2535 JUMP JUMPDEST POP POP POP POP POP JUMP JUMPDEST PUSH1 0x60 PUSH2 0x1240 DUP3 PUSH2 0x285F JUMP JUMPDEST SWAP1 POP SWAP2 SWAP1 POP JUMP JUMPDEST PUSH1 0x60 DUP3 DUP3 SWAP1 POP PUSH8 0xFFFFFFFFFFFFFFFF DUP2 GT ISZERO PUSH2 0x1266 JUMPI PUSH2 0x1265 PUSH2 0x3B6C JUMP JUMPDEST JUMPDEST PUSH1 0x40 MLOAD SWAP1 DUP1 DUP3 MSTORE DUP1 PUSH1 0x20 MUL PUSH1 0x20 ADD DUP3 ADD PUSH1 0x40 MSTORE DUP1 ISZERO PUSH2 0x1299 JUMPI DUP2 PUSH1 0x20 ADD JUMPDEST PUSH1 0x60 DUP2 MSTORE PUSH1 0x20 ADD SWAP1 PUSH1 0x1 SWAP1 SUB SWAP1 DUP2 PUSH2 0x1284 JUMPI SWAP1 POP JUMPDEST POP SWAP1 POP PUSH0 JUMPDEST DUP4 DUP4 SWAP1 POP DUP2 LT ISZERO PUSH2 0x13B6 JUMPI PUSH0 DUP1 ADDRESS PUSH20 0xFFFFFFFFFFFFFFFFFFFFFFFFFFFFFFFFFFFFFFFF AND DUP7 DUP7 DUP6 DUP2 DUP2 LT PUSH2 0x12D5 JUMPI PUSH2 0x12D4 PUSH2 0x4EA2 JUMP JUMPDEST JUMPDEST SWAP1 POP PUSH1 0x20 MUL DUP2 ADD SWAP1 PUSH2 0x12E7 SWAP2 SWAP1 PUSH2 0x4F02 JUMP JUMPDEST PUSH1 0x40 MLOAD PUSH2 0x12F5 SWAP3 SWAP2 SWAP1 PUSH2 0x4F64 JUMP JUMPDEST PUSH0 PUSH1 0x40 MLOAD DUP1 DUP4 SUB DUP2 DUP6 GAS DELEGATECALL SWAP2 POP POP RETURNDATASIZE DUP1 PUSH0 DUP2 EQ PUSH2 0x132D JUMPI PUSH1 0x40 MLOAD SWAP2 POP PUSH1 0x1F NOT PUSH1 0x3F RETURNDATASIZE ADD AND DUP3 ADD PUSH1 0x40 MSTORE RETURNDATASIZE DUP3 MSTORE RETURNDATASIZE PUSH0 PUSH1 0x20 DUP5 ADD RETURNDATACOPY PUSH2 0x1332 JUMP JUMPDEST PUSH1 0x60 SWAP2 POP JUMPDEST POP SWAP2 POP SWAP2 POP DUP2 PUSH2 0x138A JUMPI PUSH0 DUP2 MLOAD EQ PUSH2 0x134D JUMPI DUP1 MLOAD DUP1 DUP3 PUSH1 0x20 ADD REVERT JUMPDEST DUP3 PUSH1 0x40 MLOAD PUSH32 0x234EB81900000000000000000000000000000000000000000000000000000000 DUP2 MSTORE PUSH1 0x4 ADD PUSH2 0x1381 SWAP2 SWAP1 PUSH2 0x39A1 JUMP JUMPDEST PUSH1 0x40 MLOAD DUP1 SWAP2 SUB SWAP1 REVERT JUMPDEST DUP1 DUP5 DUP5 DUP2 MLOAD DUP2 LT PUSH2 0x139E JUMPI PUSH2 0x139D PUSH2 0x4EA2 JUMP JUMPDEST JUMPDEST PUSH1 0x20 MUL PUSH1 0x20 ADD ADD DUP2 SWAP1 MSTORE POP DUP3 PUSH1 0x1 ADD SWAP3 POP POP POP PUSH2 0x129E JUMP JUMPDEST POP SWAP3 SWAP2 POP POP JUMP JUMPDEST PUSH0 PUSH2 0x1403 PUSH1 0x4 PUSH0 DUP5 PUSH20 0xFFFFFFFFFFFFFFFFFFFFFFFFFFFFFFFFFFFFFFFF AND PUSH20 0xFFFFFFFFFFFFFFFFFFFFFFFFFFFFFFFFFFFFFFFF AND DUP2 MSTORE PUSH1 0x20 ADD SWAP1 DUP2 MSTORE PUSH1 0x20 ADD PUSH0 KECCAK256 PUSH2 0x2900 JUMP JUMPDEST SWAP1 POP SWAP2 SWAP1 POP JUMP JUMPDEST PUSH2 0x1412 PUSH2 0x2913 JUMP JUMPDEST PUSH2 0x141B PUSH0 PUSH2 0x298C JUMP JUMPDEST JUMP JUMPDEST PUSH0 DUP6 MLOAD SWAP1 POP DUP5 MLOAD DUP2 EQ ISZERO DUP1 PUSH2 0x1433 JUMPI POP DUP4 MLOAD DUP2 EQ ISZERO JUMPDEST DUP1 PUSH2 0x143F JUMPI POP DUP3 MLOAD DUP2 EQ ISZERO JUMPDEST DUP1 PUSH2 0x144B JUMPI POP DUP2 MLOAD DUP2 EQ ISZERO JUMPDEST ISZERO PUSH2 0x1482 JUMPI PUSH1 0x40 MLOAD PUSH32 0x93A8311900000000000000000000000000000000000000000000000000000000 DUP2 MSTORE PUSH1 0x4 ADD PUSH1 0x40 MLOAD DUP1 SWAP2 SUB SWAP1 REVERT JUMPDEST PUSH0 JUMPDEST DUP2 DUP2 LT ISZERO PUSH2 0x1526 JUMPI PUSH2 0x151B DUP8 DUP3 DUP2 MLOAD DUP2 LT PUSH2 0x14A2 JUMPI PUSH2 0x14A1 PUSH2 0x4EA2 JUMP JUMPDEST JUMPDEST PUSH1 0x20 MUL PUSH1 0x20 ADD ADD MLOAD DUP8 DUP4 DUP2 MLOAD DUP2 LT PUSH2 0x14BD JUMPI PUSH2 0x14BC PUSH2 0x4EA2 JUMP JUMPDEST JUMPDEST PUSH1 0x20 MUL PUSH1 0x20 ADD ADD MLOAD DUP8 DUP5 DUP2 MLOAD DUP2 LT PUSH2 0x14D8 JUMPI PUSH2 0x14D7 PUSH2 0x4EA2 JUMP JUMPDEST JUMPDEST PUSH1 0x20 MUL PUSH1 0x20 ADD ADD MLOAD DUP8 DUP6 DUP2 MLOAD DUP2 LT PUSH2 0x14F3 JUMPI PUSH2 0x14F2 PUSH2 0x4EA2 JUMP JUMPDEST JUMPDEST PUSH1 0x20 MUL PUSH1 0x20 ADD ADD MLOAD DUP8 DUP7 DUP2 MLOAD DUP2 LT PUSH2 0x150E JUMPI PUSH2 0x150D PUSH2 0x4EA2 JUMP JUMPDEST JUMPDEST PUSH1 0x20 MUL PUSH1 0x20 ADD ADD MLOAD PUSH2 0x11D4 JUMP JUMPDEST DUP1 PUSH1 0x1 ADD SWAP1 POP PUSH2 0x1484 JUMP JUMPDEST POP POP POP POP POP POP POP JUMP JUMPDEST PUSH2 0x1537 PUSH2 0x2913 JUMP JUMPDEST PUSH0 CALLVALUE EQ PUSH2 0x1570 JUMPI PUSH1 0x40 MLOAD PUSH32 0xF36BA73700000000000000000000000000000000000000000000000000000000 DUP2 MSTORE PUSH1 0x4 ADD PUSH1 0x40 MLOAD DUP1 SWAP2 SUB SWAP1 REVERT JUMPDEST PUSH2 0x157A DUP3 DUP3 PUSH2 0x2A82 JUMP JUMPDEST POP POP JUMP JUMPDEST PUSH0 PUSH2 0x1588 DUP4 PUSH2 0xE8F JUMP JUMPDEST SWAP1 POP CALLER PUSH20 0xFFFFFFFFFFFFFFFFFFFFFFFFFFFFFFFFFFFFFFFF AND DUP2 PUSH20 0xFFFFFFFFFFFFFFFFFFFFFFFFFFFFFFFFFFFFFFFF AND EQ PUSH2 0x15FE JUMPI DUP1 DUP4 CALLER PUSH1 0x40 MLOAD PUSH32 0x5B271EA200000000000000000000000000000000000000000000000000000000 DUP2 MSTORE PUSH1 0x4 ADD PUSH2 0x15F5 SWAP4 SWAP3 SWAP2 SWAP1 PUSH2 0x4F7C JUMP JUMPDEST PUSH1 0x40 MLOAD DUP1 SWAP2 SUB SWAP1 REVERT JUMPDEST PUSH0 PUSH20 0xFFFFFFFFFFFFFFFFFFFFFFFFFFFFFFFFFFFFFFFF AND DUP5 PUSH20 0xFFFFFFFFFFFFFFFFFFFFFFFFFFFFFFFFFFFFFFFF AND SUB PUSH2 0x1663 JUMPI PUSH1 0x40 MLOAD PUSH32 0x9577B8B300000000000000000000000000000000000000000000000000000000 DUP2 MSTORE PUSH1 0x4 ADD PUSH1 0x40 MLOAD DUP1 SWAP2 SUB SWAP1 REVERT JUMPDEST DUP4 PUSH20 0xFFFFFFFFFFFFFFFFFFFFFFFFFFFFFFFFFFFFFFFF AND DUP2 PUSH20 0xFFFFFFFFFFFFFFFFFFFFFFFFFFFFFFFFFFFFFFFF AND SUB PUSH2 0x16C8 JUMPI PUSH1 0x40 MLOAD PUSH32 0x89FDAD6200000000000000000000000000000000000000000000000000000000 DUP2 MSTORE PUSH1 0x4 ADD PUSH1 0x40 MLOAD DUP1 SWAP2 SUB SWAP1 REVERT JUMPDEST PUSH0 PUSH2 0x16EC DUP6 PUSH1 0x5 PUSH0 DUP8 DUP2 MSTORE PUSH1 0x20 ADD SWAP1 DUP2 MSTORE PUSH1 0x20 ADD PUSH0 KECCAK256 PUSH2 0x2AEB SWAP1 SWAP2 SWAP1 PUSH4 0xFFFFFFFF AND JUMP JUMPDEST SWAP1 POP DUP1 PUSH2 0x1732 JUMPI DUP5 DUP5 PUSH1 0x40 MLOAD PUSH32 0xA7626B6800000000000000000000000000000000000000000000000000000000 DUP2 MSTORE PUSH1 0x4 ADD PUSH2 0x1729 SWAP3 SWAP2 SWAP1 PUSH2 0x4FB1 JUMP JUMPDEST PUSH1 0x40 MLOAD DUP1 SWAP2 SUB SWAP1 REVERT JUMPDEST DUP4 DUP3 PUSH20 0xFFFFFFFFFFFFFFFFFFFFFFFFFFFFFFFFFFFFFFFF AND DUP7 PUSH20 0xFFFFFFFFFFFFFFFFFFFFFFFFFFFFFFFFFFFFFFFF AND PUSH32 0x1B1B58AA2EC0CEC2228B2D37124556D41F5A1F7B12F089171F896CC236671215 DUP7 PUSH1 0x40 MLOAD PUSH2 0x1790 SWAP2 SWAP1 PUSH2 0x3AD7 JUMP JUMPDEST PUSH1 0x40 MLOAD DUP1 SWAP2 SUB SWAP1 LOG4 PUSH0 CALLER DUP6 PUSH1 0x1 DUP7 PUSH1 0x40 MLOAD PUSH1 0x20 ADD PUSH2 0x17B1 SWAP5 SWAP4 SWAP3 SWAP2 SWAP1 PUSH2 0x4FD8 JUMP JUMPDEST PUSH1 0x40 MLOAD PUSH1 0x20 DUP2 DUP4 SUB SUB DUP2 MSTORE SWAP1 PUSH1 0x40 MSTORE SWAP1 POP PUSH2 0x17CC DUP7 DUP3 PUSH2 0x2B18 JUMP JUMPDEST POP POP POP POP POP POP JUMP JUMPDEST PUSH1 0x7 PUSH0 SWAP1 SLOAD SWAP1 PUSH2 0x100 EXP SWAP1 DIV PUSH20 0xFFFFFFFFFFFFFFFFFFFFFFFFFFFFFFFFFFFFFFFF AND DUP2 JUMP JUMPDEST PUSH0 DUP1 PUSH0 SWAP1 SLOAD SWAP1 PUSH2 0x100 EXP SWAP1 DIV PUSH20 0xFFFFFFFFFFFFFFFFFFFFFFFFFFFFFFFFFFFFFFFF AND SWAP1 POP SWAP1 JUMP JUMPDEST DUP1 PUSH1 0xA PUSH0 DUP5 PUSH20 0xFFFFFFFFFFFFFFFFFFFFFFFFFFFFFFFFFFFFFFFF AND PUSH20 0xFFFFFFFFFFFFFFFFFFFFFFFFFFFFFFFFFFFFFFFF AND DUP2 MSTORE PUSH1 0x20 ADD SWAP1 DUP2 MSTORE PUSH1 0x20 ADD PUSH0 KECCAK256 SWAP1 DUP2 PUSH2 0x186A SWAP2 SWAP1 PUSH2 0x51B6 JUMP JUMPDEST POP POP POP JUMP JUMPDEST PUSH2 0x1877 PUSH2 0x2913 JUMP JUMPDEST PUSH0 CALLVALUE EQ PUSH2 0x18B0 JUMPI PUSH1 0x40 MLOAD PUSH32 0xF36BA73700000000000000000000000000000000000000000000000000000000 DUP2 MSTORE PUSH1 0x4 ADD PUSH1 0x40 MLOAD DUP1 SWAP2 SUB SWAP1 REVERT JUMPDEST DUP1 MLOAD DUP3 MLOAD EQ PUSH2 0x18EB JUMPI PUSH1 0x40 MLOAD PUSH32 0x3BCC897900000000000000000000000000000000000000000000000000000000 DUP2 MSTORE PUSH1 0x4 ADD PUSH1 0x40 MLOAD DUP1 SWAP2 SUB SWAP1 REVERT JUMPDEST PUSH0 DUP3 MLOAD SUB PUSH2 0x1925 JUMPI PUSH1 0x40 MLOAD PUSH32 0x97DA5F9500000000000000000000000000000000000000000000000000000000 DUP2 MSTORE PUSH1 0x4 ADD PUSH1 0x40 MLOAD DUP1 SWAP2 SUB SWAP1 REVERT JUMPDEST PUSH0 JUMPDEST DUP3 MLOAD DUP2 LT ISZERO PUSH2 0x1979 JUMPI PUSH2 0x196E DUP4 DUP3 DUP2 MLOAD DUP2 LT PUSH2 0x1946 JUMPI PUSH2 0x1945 PUSH2 0x4EA2 JUMP JUMPDEST JUMPDEST PUSH1 0x20 MUL PUSH1 0x20 ADD ADD MLOAD DUP4 DUP4 DUP2 MLOAD DUP2 LT PUSH2 0x1961 JUMPI PUSH2 0x1960 PUSH2 0x4EA2 JUMP JUMPDEST JUMPDEST PUSH1 0x20 MUL PUSH1 0x20 ADD ADD MLOAD PUSH2 0x2A82 JUMP JUMPDEST DUP1 PUSH1 0x1 ADD SWAP1 POP PUSH2 0x1927 JUMP JUMPDEST POP POP POP JUMP JUMPDEST PUSH1 0x60 PUSH2 0x19C5 PUSH1 0x4 PUSH0 DUP5 PUSH20 0xFFFFFFFFFFFFFFFFFFFFFFFFFFFFFFFFFFFFFFFF AND PUSH20 0xFFFFFFFFFFFFFFFFFFFFFFFFFFFFFFFFFFFFFFFF AND DUP2 MSTORE PUSH1 0x20 ADD SWAP1 DUP2 MSTORE PUSH1 0x20 ADD PUSH0 KECCAK256 PUSH2 0x2B49 JUMP JUMPDEST SWAP1 POP SWAP2 SWAP1 POP JUMP JUMPDEST PUSH2 0x19D4 PUSH2 0x2913 JUMP JUMPDEST PUSH2 0x19E0 DUP5 DUP5 DUP5 DUP5 PUSH2 0x2B68 JUMP JUMPDEST POP POP POP POP JUMP JUMPDEST PUSH2 0x19EE PUSH2 0x2913 JUMP JUMPDEST DUP2 MLOAD DUP4 MLOAD EQ ISZERO DUP1 PUSH2 0x1A01 JUMPI POP DUP1 MLOAD DUP3 MLOAD EQ ISZERO JUMPDEST ISZERO PUSH2 0x1A38 JUMPI PUSH1 0x40 MLOAD PUSH32 0x2FA71DFE00000000000000000000000000000000000000000000000000000000 DUP2 MSTORE PUSH1 0x4 ADD PUSH1 0x40 MLOAD DUP1 SWAP2 SUB SWAP1 REVERT JUMPDEST PUSH0 DUP4 MLOAD SUB PUSH2 0x1A72 JUMPI PUSH1 0x40 MLOAD PUSH32 0x80C9830500000000000000000000000000000000000000000000000000000000 DUP2 MSTORE PUSH1 0x4 ADD PUSH1 0x40 MLOAD DUP1 SWAP2 SUB SWAP1 REVERT JUMPDEST PUSH0 JUMPDEST DUP4 MLOAD DUP2 LT ISZERO PUSH2 0x1AE1 JUMPI PUSH2 0x1AD6 DUP5 DUP3 DUP2 MLOAD DUP2 LT PUSH2 0x1A93 JUMPI PUSH2 0x1A92 PUSH2 0x4EA2 JUMP JUMPDEST JUMPDEST PUSH1 0x20 MUL PUSH1 0x20 ADD ADD MLOAD DUP5 DUP4 DUP2 MLOAD DUP2 LT PUSH2 0x1AAE JUMPI PUSH2 0x1AAD PUSH2 0x4EA2 JUMP JUMPDEST JUMPDEST PUSH1 0x20 MUL PUSH1 0x20 ADD ADD MLOAD DUP5 DUP5 DUP2 MLOAD DUP2 LT PUSH2 0x1AC9 JUMPI PUSH2 0x1AC8 PUSH2 0x4EA2 JUMP JUMPDEST JUMPDEST PUSH1 0x20 MUL PUSH1 0x20 ADD ADD MLOAD PUSH2 0x2DD6 JUMP JUMPDEST DUP1 PUSH1 0x1 ADD SWAP1 POP PUSH2 0x1A74 JUMP JUMPDEST POP POP POP POP JUMP JUMPDEST PUSH0 PUSH3 0x15180 PUSH1 0x8 PUSH0 CALLER PUSH20 0xFFFFFFFFFFFFFFFFFFFFFFFFFFFFFFFFFFFFFFFF AND PUSH20 0xFFFFFFFFFFFFFFFFFFFFFFFFFFFFFFFFFFFFFFFF AND DUP2 MSTORE PUSH1 0x20 ADD SWAP1 DUP2 MSTORE PUSH1 0x20 ADD PUSH0 KECCAK256 SLOAD PUSH2 0x1B34 SWAP2 SWAP1 PUSH2 0x52B2 JUMP JUMPDEST TIMESTAMP LT SWAP1 POP SWAP1 JUMP JUMPDEST PUSH2 0x1B43 PUSH2 0x2913 JUMP JUMPDEST PUSH2 0x1B4E DUP4 DUP4 DUP4 PUSH2 0x2DD6 JUMP JUMPDEST POP POP POP JUMP JUMPDEST PUSH0 PUSH2 0x1B5D DUP5 PUSH2 0xE8F JUMP JUMPDEST SWAP1 POP DUP1 PUSH20 0xFFFFFFFFFFFFFFFFFFFFFFFFFFFFFFFFFFFFFFFF AND CALLER PUSH20 0xFFFFFFFFFFFFFFFFFFFFFFFFFFFFFFFFFFFFFFFF AND EQ PUSH2 0x1C07 JUMPI CALLER PUSH20 0xFFFFFFFFFFFFFFFFFFFFFFFFFFFFFFFFFFFFFFFF AND DUP6 PUSH20 0xFFFFFFFFFFFFFFFFFFFFFFFFFFFFFFFFFFFFFFFF AND EQ PUSH2 0x1C06 JUMPI CALLER DUP2 DUP6 PUSH1 0x40 MLOAD PUSH32 0x760B5ACD00000000000000000000000000000000000000000000000000000000 DUP2 MSTORE PUSH1 0x4 ADD PUSH2 0x1BFD SWAP4 SWAP3 SWAP2 SWAP1 PUSH2 0x52E5 JUMP JUMPDEST PUSH1 0x40 MLOAD DUP1 SWAP2 SUB SWAP1 REVERT JUMPDEST JUMPDEST PUSH0 PUSH20 0xFFFFFFFFFFFFFFFFFFFFFFFFFFFFFFFFFFFFFFFF AND DUP6 PUSH20 0xFFFFFFFFFFFFFFFFFFFFFFFFFFFFFFFFFFFFFFFF AND SUB PUSH2 0x1C6C JUMPI PUSH1 0x40 MLOAD PUSH32 0x9577B8B300000000000000000000000000000000000000000000000000000000 DUP2 MSTORE PUSH1 0x4 ADD PUSH1 0x40 MLOAD DUP1 SWAP2 SUB SWAP1 REVERT JUMPDEST DUP5 PUSH20 0xFFFFFFFFFFFFFFFFFFFFFFFFFFFFFFFFFFFFFFFF AND DUP2 PUSH20 0xFFFFFFFFFFFFFFFFFFFFFFFFFFFFFFFFFFFFFFFF AND SUB PUSH2 0x1CD1 JUMPI PUSH1 0x40 MLOAD PUSH32 0x89FDAD6200000000000000000000000000000000000000000000000000000000 DUP2 MSTORE PUSH1 0x4 ADD PUSH1 0x40 MLOAD DUP1 SWAP2 SUB SWAP1 REVERT JUMPDEST PUSH2 0x1CDE DUP6 DUP3 DUP7 DUP7 DUP7 PUSH2 0x2E42 JUMP JUMPDEST DUP3 ISZERO PUSH2 0x1D19 JUMPI PUSH0 DUP2 DUP6 PUSH0 DUP6 PUSH1 0x40 MLOAD PUSH1 0x20 ADD PUSH2 0x1CFC SWAP5 SWAP4 SWAP3 SWAP2 SWAP1 PUSH2 0x4FD8 JUMP JUMPDEST PUSH1 0x40 MLOAD PUSH1 0x20 DUP2 DUP4 SUB SUB DUP2 MSTORE SWAP1 PUSH1 0x40 MSTORE SWAP1 POP PUSH2 0x1D17 DUP7 DUP3 PUSH2 0x2B18 JUMP JUMPDEST POP JUMPDEST POP POP POP POP POP JUMP JUMPDEST PUSH1 0x60 DUP2 MLOAD PUSH8 0xFFFFFFFFFFFFFFFF DUP2 GT ISZERO PUSH2 0x1D3D JUMPI PUSH2 0x1D3C PUSH2 0x3B6C JUMP JUMPDEST JUMPDEST PUSH1 0x40 MLOAD SWAP1 DUP1 DUP3 MSTORE DUP1 PUSH1 0x20 MUL PUSH1 0x20 ADD DUP3 ADD PUSH1 0x40 MSTORE DUP1 ISZERO PUSH2 0x1D70 JUMPI DUP2 PUSH1 0x20 ADD JUMPDEST PUSH1 0x60 DUP2 MSTORE PUSH1 0x20 ADD SWAP1 PUSH1 0x1 SWAP1 SUB SWAP1 DUP2 PUSH2 0x1D5B JUMPI SWAP1 POP JUMPDEST POP SWAP1 POP PUSH0 JUMPDEST DUP3 MLOAD DUP2 LT ISZERO PUSH2 0x1DCA JUMPI PUSH2 0x1DA1 DUP4 DUP3 DUP2 MLOAD DUP2 LT PUSH2 0x1D94 JUMPI PUSH2 0x1D93 PUSH2 0x4EA2 JUMP JUMPDEST JUMPDEST PUSH1 0x20 MUL PUSH1 0x20 ADD ADD MLOAD PUSH2 0x285F JUMP JUMPDEST DUP3 DUP3 DUP2 MLOAD DUP2 LT PUSH2 0x1DB4 JUMPI PUSH2 0x1DB3 PUSH2 0x4EA2 JUMP JUMPDEST JUMPDEST PUSH1 0x20 MUL PUSH1 0x20 ADD ADD DUP2 SWAP1 MSTORE POP DUP1 PUSH1 0x1 ADD SWAP1 POP PUSH2 0x1D75 JUMP JUMPDEST POP SWAP2 SWAP1 POP JUMP JUMPDEST PUSH1 0x9 PUSH1 0x20 MSTORE DUP1 PUSH0 MSTORE PUSH1 0x40 PUSH0 KECCAK256 PUSH0 SWAP2 POP SWAP1 POP SLOAD DUP2 JUMP JUMPDEST PUSH2 0x1DED PUSH2 0x2913 JUMP JUMPDEST PUSH0 PUSH20 0xFFFFFFFFFFFFFFFFFFFFFFFFFFFFFFFFFFFFFFFF AND DUP2 PUSH20 0xFFFFFFFFFFFFFFFFFFFFFFFFFFFFFFFFFFFFFFFF AND SUB PUSH2 0x1E52 JUMPI PUSH1 0x40 MLOAD PUSH32 0x1AD8836C00000000000000000000000000000000000000000000000000000000 DUP2 MSTORE PUSH1 0x4 ADD PUSH1 0x40 MLOAD DUP1 SWAP2 SUB SWAP1 REVERT JUMPDEST PUSH2 0x1E5B DUP2 PUSH2 0x298C JUMP JUMPDEST POP JUMP JUMPDEST PUSH1 0xC PUSH1 0x20 MSTORE DUP2 PUSH0 MSTORE PUSH1 0x40 PUSH0 KECCAK256 DUP2 DUP2 SLOAD DUP2 LT PUSH2 0x1E77 JUMPI PUSH0 DUP1 REVERT JUMPDEST SWAP1 PUSH0 MSTORE PUSH1 0x20 PUSH0 KECCAK256 SWAP1 PUSH1 0x3 MUL ADD PUSH0 SWAP2 POP SWAP2 POP POP DUP1 PUSH0 ADD SLOAD SWAP1 DUP1 PUSH1 0x1 ADD PUSH0 SWAP1 SLOAD SWAP1 PUSH2 0x100 EXP SWAP1 DIV PUSH20 0xFFFFFFFFFFFFFFFFFFFFFFFFFFFFFFFFFFFFFFFF AND SWAP1 DUP1 PUSH1 0x2 ADD SLOAD SWAP1 POP DUP4 JUMP JUMPDEST PUSH0 DUP1 PUSH1 0x40 MLOAD PUSH2 0x1ECB SWAP1 PUSH2 0x3822 JUMP JUMPDEST PUSH1 0x40 MLOAD DUP1 SWAP2 SUB SWAP1 PUSH0 CREATE DUP1 ISZERO DUP1 ISZERO PUSH2 0x1EE4 JUMPI RETURNDATASIZE PUSH0 DUP1 RETURNDATACOPY RETURNDATASIZE PUSH0 REVERT JUMPDEST POP SWAP1 POP PUSH0 DUP2 PUSH20 0xFFFFFFFFFFFFFFFFFFFFFFFFFFFFFFFFFFFFFFFF AND PUSH0 SHL SWAP1 POP PUSH2 0x1F0E DUP2 DUP9 DUP9 PUSH2 0x2DD6 JUMP JUMPDEST PUSH1 0x7 PUSH0 SWAP1 SLOAD SWAP1 PUSH2 0x100 EXP SWAP1 DIV PUSH20 0xFFFFFFFFFFFFFFFFFFFFFFFFFFFFFFFFFFFFFFFF AND PUSH20 0xFFFFFFFFFFFFFFFFFFFFFFFFFFFFFFFFFFFFFFFF AND PUSH4 0x76A83F16 DUP3 DUP7 PUSH1 0x40 MLOAD DUP4 PUSH4 0xFFFFFFFF AND PUSH1 0xE0 SHL DUP2 MSTORE PUSH1 0x4 ADD PUSH2 0x1F6A SWAP3 SWAP2 SWAP1 PUSH2 0x536C JUMP JUMPDEST PUSH0 PUSH1 0x40 MLOAD DUP1 DUP4 SUB DUP2 PUSH0 DUP8 DUP1 EXTCODESIZE ISZERO DUP1 ISZERO PUSH2 0x1F81 JUMPI PUSH0 DUP1 REVERT JUMPDEST POP GAS CALL ISZERO DUP1 ISZERO PUSH2 0x1F93 JUMPI RETURNDATASIZE PUSH0 DUP1 RETURNDATACOPY RETURNDATASIZE PUSH0 REVERT JUMPDEST POP POP POP POP PUSH2 0x1FB2 DUP9 DUP3 PUSH1 0x1 PUSH1 0x40 MLOAD DUP1 PUSH1 0x20 ADD PUSH1 0x40 MSTORE DUP1 PUSH0 DUP2 MSTORE POP PUSH2 0x2B68 JUMP JUMPDEST TIMESTAMP PUSH1 0x8 PUSH0 CALLER PUSH20 0xFFFFFFFFFFFFFFFFFFFFFFFFFFFFFFFFFFFFFFFF AND PUSH20 0xFFFFFFFFFFFFFFFFFFFFFFFFFFFFFFFFFFFFFFFF AND DUP2 MSTORE PUSH1 0x20 ADD SWAP1 DUP2 MSTORE PUSH1 0x20 ADD PUSH0 KECCAK256 DUP2 SWAP1 SSTORE POP TIMESTAMP PUSH1 0x9 PUSH0 DUP5 PUSH20 0xFFFFFFFFFFFFFFFFFFFFFFFFFFFFFFFFFFFFFFFF AND PUSH20 0xFFFFFFFFFFFFFFFFFFFFFFFFFFFFFFFFFFFFFFFF AND DUP2 MSTORE PUSH1 0x20 ADD SWAP1 DUP2 MSTORE PUSH1 0x20 ADD PUSH0 KECCAK256 DUP2 SWAP1 SSTORE POP PUSH2 0x2040 DUP3 DUP7 PUSH2 0x1820 JUMP JUMPDEST PUSH1 0xB PUSH0 DUP10 PUSH20 0xFFFFFFFFFFFFFFFFFFFFFFFFFFFFFFFFFFFFFFFF AND PUSH20 0xFFFFFFFFFFFFFFFFFFFFFFFFFFFFFFFFFFFFFFFF AND DUP2 MSTORE PUSH1 0x20 ADD SWAP1 DUP2 MSTORE PUSH1 0x20 ADD PUSH0 KECCAK256 PUSH0 DUP2 SLOAD DUP1 SWAP3 SWAP2 SWAP1 PUSH2 0x208D SWAP1 PUSH2 0x539A JUMP JUMPDEST SWAP2 SWAP1 POP SSTORE POP PUSH0 PUSH1 0x40 MLOAD DUP1 PUSH1 0x60 ADD PUSH1 0x40 MSTORE DUP1 DUP4 DUP2 MSTORE PUSH1 0x20 ADD CALLER PUSH20 0xFFFFFFFFFFFFFFFFFFFFFFFFFFFFFFFFFFFFFFFF AND DUP2 MSTORE PUSH1 0x20 ADD TIMESTAMP DUP2 MSTORE POP SWAP1 POP PUSH1 0xC PUSH0 DUP11 PUSH20 0xFFFFFFFFFFFFFFFFFFFFFFFFFFFFFFFFFFFFFFFF AND PUSH20 0xFFFFFFFFFFFFFFFFFFFFFFFFFFFFFFFFFFFFFFFF AND DUP2 MSTORE PUSH1 0x20 ADD SWAP1 DUP2 MSTORE PUSH1 0x20 ADD PUSH0 KECCAK256 DUP2 SWAP1 DUP1 PUSH1 0x1 DUP2 SLOAD ADD DUP1 DUP3 SSTORE DUP1 SWAP2 POP POP PUSH1 0x1 SWAP1 SUB SWAP1 PUSH0 MSTORE PUSH1 0x20 PUSH0 KECCAK256 SWAP1 PUSH1 0x3 MUL ADD PUSH0 SWAP1 SWAP2 SWAP1 SWAP2 SWAP1 SWAP2 POP PUSH0 DUP3 ADD MLOAD DUP2 PUSH0 ADD SSTORE PUSH1 0x20 DUP3 ADD MLOAD DUP2 PUSH1 0x1 ADD PUSH0 PUSH2 0x100 EXP DUP2 SLOAD DUP2 PUSH20 0xFFFFFFFFFFFFFFFFFFFFFFFFFFFFFFFFFFFFFFFF MUL NOT AND SWAP1 DUP4 PUSH20 0xFFFFFFFFFFFFFFFFFFFFFFFFFFFFFFFFFFFFFFFF AND MUL OR SWAP1 SSTORE POP PUSH1 0x40 DUP3 ADD MLOAD DUP2 PUSH1 0x2 ADD SSTORE POP POP CALLER PUSH1 0xD PUSH0 DUP5 DUP2 MSTORE PUSH1 0x20 ADD SWAP1 DUP2 MSTORE PUSH1 0x20 ADD PUSH0 KECCAK256 PUSH0 PUSH2 0x100 EXP DUP2 SLOAD DUP2 PUSH20 0xFFFFFFFFFFFFFFFFFFFFFFFFFFFFFFFFFFFFFFFF MUL NOT AND SWAP1 DUP4 PUSH20 0xFFFFFFFFFFFFFFFFFFFFFFFFFFFFFFFFFFFFFFFF AND MUL OR SWAP1 SSTORE POP DUP9 PUSH20 0xFFFFFFFFFFFFFFFFFFFFFFFFFFFFFFFFFFFFFFFF AND PUSH32 0x4AF0E90F5243680602BA0CE6BE26BFD783C4A7B08E9809529920D8F765124F83 DUP4 CALLER TIMESTAMP PUSH1 0x40 MLOAD PUSH2 0x221D SWAP4 SWAP3 SWAP2 SWAP1 PUSH2 0x4B53 JUMP JUMPDEST PUSH1 0x40 MLOAD DUP1 SWAP2 SUB SWAP1 LOG2 DUP2 SWAP4 POP POP POP POP SWAP6 SWAP5 POP POP POP POP POP JUMP JUMPDEST PUSH0 DUP1 PUSH0 PUSH2 0x226D PUSH10 0xCEE78B4094DA86011096 PUSH1 0xB0 SHL DUP6 PUSH28 0xFFFFFFFFFFFFFFFFFFFFFFFFFFFFFFFFFFFFFFFFFFFFFFFFFFFFFFFF NOT AND PUSH2 0x2F1C JUMP JUMPDEST SWAP1 POP PUSH0 PUSH2 0x2279 DUP3 PUSH2 0x285F JUMP JUMPDEST SWAP1 POP PUSH1 0x14 DUP2 MLOAD EQ ISZERO DUP1 ISZERO PUSH2 0x228E JUMPI POP PUSH0 DUP2 MLOAD EQ ISZERO JUMPDEST ISZERO PUSH2 0x22D0 JUMPI DUP1 PUSH1 0x40 MLOAD PUSH32 0x42BFE79F00000000000000000000000000000000000000000000000000000000 DUP2 MSTORE PUSH1 0x4 ADD PUSH2 0x22C7 SWAP2 SWAP1 PUSH2 0x3AD7 JUMP JUMPDEST PUSH1 0x40 MLOAD DUP1 SWAP2 SUB SWAP1 REVERT JUMPDEST DUP1 PUSH2 0x22DA SWAP1 PUSH2 0x542F JUMP JUMPDEST PUSH1 0x60 SHR PUSH1 0x1 SWAP4 POP SWAP4 POP POP POP SWAP2 POP SWAP2 JUMP JUMPDEST PUSH0 PUSH4 0xA918FA6B PUSH1 0xE0 SHL PUSH28 0xFFFFFFFFFFFFFFFFFFFFFFFFFFFFFFFFFFFFFFFFFFFFFFFFFFFFFFFF NOT AND DUP3 PUSH28 0xFFFFFFFFFFFFFFFFFFFFFFFFFFFFFFFFFFFFFFFFFFFFFFFFFFFFFFFF NOT AND EQ DUP1 PUSH2 0x2343 JUMPI POP PUSH2 0x2342 DUP3 PUSH2 0x2F5A JUMP JUMPDEST JUMPDEST SWAP1 POP SWAP2 SWAP1 POP JUMP JUMPDEST PUSH0 DUP1 PUSH2 0x235C PUSH4 0x1FFC9A7 PUSH1 0xE0 SHL PUSH2 0x2234 JUMP JUMPDEST POP SWAP1 POP PUSH0 PUSH20 0xFFFFFFFFFFFFFFFFFFFFFFFFFFFFFFFFFFFFFFFF AND DUP2 PUSH20 0xFFFFFFFFFFFFFFFFFFFFFFFFFFFFFFFFFFFFFFFF AND SUB PUSH2 0x239B JUMPI PUSH0 SWAP2 POP POP PUSH2 0x23A9 JUMP JUMPDEST PUSH2 0x23A5 DUP2 DUP5 PUSH2 0x2FBA JUMP JUMPDEST SWAP2 POP POP JUMPDEST SWAP2 SWAP1 POP JUMP JUMPDEST PUSH1 0x60 PUSH1 0x6 PUSH0 DUP5 DUP2 MSTORE PUSH1 0x20 ADD SWAP1 DUP2 MSTORE PUSH1 0x20 ADD PUSH0 KECCAK256 PUSH0 DUP4 DUP2 MSTORE PUSH1 0x20 ADD SWAP1 DUP2 MSTORE PUSH1 0x20 ADD PUSH0 KECCAK256 DUP1 SLOAD PUSH2 0x23DB SWAP1 PUSH2 0x4E72 JUMP JUMPDEST DUP1 PUSH1 0x1F ADD PUSH1 0x20 DUP1 SWAP2 DIV MUL PUSH1 0x20 ADD PUSH1 0x40 MLOAD SWAP1 DUP2 ADD PUSH1 0x40 MSTORE DUP1 SWAP3 SWAP2 SWAP1 DUP2 DUP2 MSTORE PUSH1 0x20 ADD DUP3 DUP1 SLOAD PUSH2 0x2407 SWAP1 PUSH2 0x4E72 JUMP JUMPDEST DUP1 ISZERO PUSH2 0x2452 JUMPI DUP1 PUSH1 0x1F LT PUSH2 0x2429 JUMPI PUSH2 0x100 DUP1 DUP4 SLOAD DIV MUL DUP4 MSTORE SWAP2 PUSH1 0x20 ADD SWAP2 PUSH2 0x2452 JUMP JUMPDEST DUP3 ADD SWAP2 SWAP1 PUSH0 MSTORE PUSH1 0x20 PUSH0 KECCAK256 SWAP1 JUMPDEST DUP2 SLOAD DUP2 MSTORE SWAP1 PUSH1 0x1 ADD SWAP1 PUSH1 0x20 ADD DUP1 DUP4 GT PUSH2 0x2435 JUMPI DUP3 SWAP1 SUB PUSH1 0x1F AND DUP3 ADD SWAP2 JUMPDEST POP POP POP POP POP SWAP1 POP SWAP3 SWAP2 POP POP JUMP JUMPDEST PUSH0 PUSH2 0x2469 DUP3 PUSH2 0xE8F JUMP JUMPDEST PUSH20 0xFFFFFFFFFFFFFFFFFFFFFFFFFFFFFFFFFFFFFFFF AND DUP4 PUSH20 0xFFFFFFFFFFFFFFFFFFFFFFFFFFFFFFFFFFFFFFFF AND EQ DUP1 PUSH2 0x24C1 JUMPI POP PUSH2 0x24C0 DUP4 PUSH1 0x5 PUSH0 DUP6 DUP2 MSTORE PUSH1 0x20 ADD SWAP1 DUP2 MSTORE PUSH1 0x20 ADD PUSH0 KECCAK256 PUSH2 0x3053 SWAP1 SWAP2 SWAP1 PUSH4 0xFFFFFFFF AND JUMP JUMPDEST JUMPDEST SWAP1 POP SWAP3 SWAP2 POP POP JUMP JUMPDEST PUSH2 0x24D2 DUP2 PUSH2 0x3080 JUMP JUMPDEST PUSH2 0x2513 JUMPI DUP1 PUSH1 0x40 MLOAD PUSH32 0xAE8F9A3600000000000000000000000000000000000000000000000000000000 DUP2 MSTORE PUSH1 0x4 ADD PUSH2 0x250A SWAP2 SWAP1 PUSH2 0x4CF1 JUMP JUMPDEST PUSH1 0x40 MLOAD DUP1 SWAP2 SUB SWAP1 REVERT JUMPDEST POP JUMP JUMPDEST PUSH1 0x60 PUSH0 PUSH2 0x2524 DUP4 PUSH0 ADD PUSH2 0x30E8 JUMP JUMPDEST SWAP1 POP PUSH1 0x60 DUP2 SWAP1 POP DUP1 SWAP3 POP POP POP SWAP2 SWAP1 POP JUMP JUMPDEST PUSH0 PUSH2 0x253F DUP5 PUSH2 0xE8F JUMP JUMPDEST SWAP1 POP DUP6 PUSH20 0xFFFFFFFFFFFFFFFFFFFFFFFFFFFFFFFFFFFFFFFF AND DUP2 PUSH20 0xFFFFFFFFFFFFFFFFFFFFFFFFFFFFFFFFFFFFFFFF AND EQ PUSH2 0x25B5 JUMPI DUP1 DUP5 DUP8 PUSH1 0x40 MLOAD PUSH32 0x5B271EA200000000000000000000000000000000000000000000000000000000 DUP2 MSTORE PUSH1 0x4 ADD PUSH2 0x25AC SWAP4 SWAP3 SWAP2 SWAP1 PUSH2 0x4F7C JUMP JUMPDEST PUSH1 0x40 MLOAD DUP1 SWAP2 SUB SWAP1 REVERT JUMPDEST PUSH0 PUSH20 0xFFFFFFFFFFFFFFFFFFFFFFFFFFFFFFFFFFFFFFFF AND DUP6 PUSH20 0xFFFFFFFFFFFFFFFFFFFFFFFFFFFFFFFFFFFFFFFF AND SUB PUSH2 0x261A JUMPI PUSH1 0x40 MLOAD PUSH32 0x24ECEF4D00000000000000000000000000000000000000000000000000000000 DUP2 MSTORE PUSH1 0x4 ADD PUSH1 0x40 MLOAD DUP1 SWAP2 SUB SWAP1 REVERT JUMPDEST PUSH2 0x2626 DUP7 DUP7 DUP7 DUP6 PUSH2 0x3141 JUMP JUMPDEST PUSH0 PUSH2 0x2630 DUP6 PUSH2 0xE8F JUMP JUMPDEST SWAP1 POP DUP1 PUSH20 0xFFFFFFFFFFFFFFFFFFFFFFFFFFFFFFFFFFFFFFFF AND DUP3 PUSH20 0xFFFFFFFFFFFFFFFFFFFFFFFFFFFFFFFFFFFFFFFF AND EQ PUSH2 0x26A6 JUMPI DUP5 DUP3 DUP3 PUSH1 0x40 MLOAD PUSH32 0x5A9C31D300000000000000000000000000000000000000000000000000000000 DUP2 MSTORE PUSH1 0x4 ADD PUSH2 0x269D SWAP4 SWAP3 SWAP2 SWAP1 PUSH2 0x5495 JUMP JUMPDEST PUSH1 0x40 MLOAD DUP1 SWAP2 SUB SWAP1 REVERT JUMPDEST PUSH2 0x26B0 DUP8 DUP7 PUSH2 0x3147 JUMP JUMPDEST PUSH2 0x26FF DUP6 PUSH1 0x4 PUSH0 DUP11 PUSH20 0xFFFFFFFFFFFFFFFFFFFFFFFFFFFFFFFFFFFFFFFF AND PUSH20 0xFFFFFFFFFFFFFFFFFFFFFFFFFFFFFFFFFFFFFFFF AND DUP2 MSTORE PUSH1 0x20 ADD SWAP1 DUP2 MSTORE PUSH1 0x20 ADD PUSH0 KECCAK256 PUSH2 0x31B5 SWAP1 SWAP2 SWAP1 PUSH4 0xFFFFFFFF AND JUMP JUMPDEST POP PUSH2 0x274F DUP6 PUSH1 0x4 PUSH0 DUP10 PUSH20 0xFFFFFFFFFFFFFFFFFFFFFFFFFFFFFFFFFFFFFFFF AND PUSH20 0xFFFFFFFFFFFFFFFFFFFFFFFFFFFFFFFFFFFFFFFF AND DUP2 MSTORE PUSH1 0x20 ADD SWAP1 DUP2 MSTORE PUSH1 0x20 ADD PUSH0 KECCAK256 PUSH2 0x31CA SWAP1 SWAP2 SWAP1 PUSH4 0xFFFFFFFF AND JUMP JUMPDEST POP DUP6 PUSH1 0x3 PUSH0 DUP8 DUP2 MSTORE PUSH1 0x20 ADD SWAP1 DUP2 MSTORE PUSH1 0x20 ADD PUSH0 KECCAK256 PUSH0 PUSH2 0x100 EXP DUP2 SLOAD DUP2 PUSH20 0xFFFFFFFFFFFFFFFFFFFFFFFFFFFFFFFFFFFFFFFF MUL NOT AND SWAP1 DUP4 PUSH20 0xFFFFFFFFFFFFFFFFFFFFFFFFFFFFFFFFFFFFFFFF AND MUL OR SWAP1 SSTORE POP DUP5 DUP7 PUSH20 0xFFFFFFFFFFFFFFFFFFFFFFFFFFFFFFFFFFFFFFFF AND DUP9 PUSH20 0xFFFFFFFFFFFFFFFFFFFFFFFFFFFFFFFFFFFFFFFF AND PUSH32 0xB333C813A7426A7A11E2B190CAD52C44119421594B47F6F32ACE6D8C7207B2BF CALLER DUP9 DUP9 PUSH1 0x40 MLOAD PUSH2 0x2801 SWAP4 SWAP3 SWAP2 SWAP1 PUSH2 0x54CA JUMP JUMPDEST PUSH1 0x40 MLOAD DUP1 SWAP2 SUB SWAP1 LOG4 PUSH2 0x2815 DUP8 DUP8 DUP8 DUP7 PUSH2 0x31DF JUMP JUMPDEST PUSH0 CALLER DUP9 DUP9 DUP9 DUP8 PUSH1 0x40 MLOAD PUSH1 0x20 ADD PUSH2 0x282F SWAP6 SWAP5 SWAP4 SWAP3 SWAP2 SWAP1 PUSH2 0x5506 JUMP JUMPDEST PUSH1 0x40 MLOAD PUSH1 0x20 DUP2 DUP4 SUB SUB DUP2 MSTORE SWAP1 PUSH1 0x40 MSTORE SWAP1 POP PUSH2 0x284A DUP9 DUP3 PUSH2 0x31E5 JUMP JUMPDEST PUSH2 0x2855 DUP8 DUP7 DUP4 PUSH2 0x3216 JUMP JUMPDEST POP POP POP POP POP POP POP POP JUMP JUMPDEST PUSH1 0x60 PUSH1 0x1 PUSH0 DUP4 DUP2 MSTORE PUSH1 0x20 ADD SWAP1 DUP2 MSTORE PUSH1 0x20 ADD PUSH0 KECCAK256 DUP1 SLOAD PUSH2 0x287D SWAP1 PUSH2 0x4E72 JUMP JUMPDEST DUP1 PUSH1 0x1F ADD PUSH1 0x20 DUP1 SWAP2 DIV MUL PUSH1 0x20 ADD PUSH1 0x40 MLOAD SWAP1 DUP2 ADD PUSH1 0x40 MSTORE DUP1 SWAP3 SWAP2 SWAP1 DUP2 DUP2 MSTORE PUSH1 0x20 ADD DUP3 DUP1 SLOAD PUSH2 0x28A9 SWAP1 PUSH2 0x4E72 JUMP JUMPDEST DUP1 ISZERO PUSH2 0x28F4 JUMPI DUP1 PUSH1 0x1F LT PUSH2 0x28CB JUMPI PUSH2 0x100 DUP1 DUP4 SLOAD DIV MUL DUP4 MSTORE SWAP2 PUSH1 0x20 ADD SWAP2 PUSH2 0x28F4 JUMP JUMPDEST DUP3 ADD SWAP2 SWAP1 PUSH0 MSTORE PUSH1 0x20 PUSH0 KECCAK256 SWAP1 JUMPDEST DUP2 SLOAD DUP2 MSTORE SWAP1 PUSH1 0x1 ADD SWAP1 PUSH1 0x20 ADD DUP1 DUP4 GT PUSH2 0x28D7 JUMPI DUP3 SWAP1 SUB PUSH1 0x1F AND DUP3 ADD SWAP2 JUMPDEST POP POP POP POP POP SWAP1 POP SWAP2 SWAP1 POP JUMP JUMPDEST PUSH0 PUSH2 0x290C DUP3 PUSH0 ADD PUSH2 0x3375 JUMP JUMPDEST SWAP1 POP SWAP2 SWAP1 POP JUMP JUMPDEST CALLER PUSH20 0xFFFFFFFFFFFFFFFFFFFFFFFFFFFFFFFFFFFFFFFF AND PUSH2 0x2932 PUSH2 0x17F9 JUMP JUMPDEST PUSH20 0xFFFFFFFFFFFFFFFFFFFFFFFFFFFFFFFFFFFFFFFF AND EQ PUSH2 0x298A JUMPI CALLER PUSH1 0x40 MLOAD PUSH32 0xBF1169C500000000000000000000000000000000000000000000000000000000 DUP2 MSTORE PUSH1 0x4 ADD PUSH2 0x2981 SWAP2 SWAP1 PUSH2 0x3E7B JUMP JUMPDEST PUSH1 0x40 MLOAD DUP1 SWAP2 SUB SWAP1 REVERT JUMPDEST JUMP JUMPDEST PUSH2 0x2994 PUSH2 0x17F9 JUMP JUMPDEST PUSH20 0xFFFFFFFFFFFFFFFFFFFFFFFFFFFFFFFFFFFFFFFF AND DUP2 PUSH20 0xFFFFFFFFFFFFFFFFFFFFFFFFFFFFFFFFFFFFFFFF AND EQ PUSH2 0x2A7F JUMPI DUP1 PUSH20 0xFFFFFFFFFFFFFFFFFFFFFFFFFFFFFFFFFFFFFFFF AND PUSH0 DUP1 SLOAD SWAP1 PUSH2 0x100 EXP SWAP1 DIV PUSH20 0xFFFFFFFFFFFFFFFFFFFFFFFFFFFFFFFFFFFFFFFF AND PUSH20 0xFFFFFFFFFFFFFFFFFFFFFFFFFFFFFFFFFFFFFFFF AND PUSH32 0x8BE0079C531659141344CD1FD0A4F28419497F9722A3DAAFE3B4186F6B6457E0 PUSH1 0x40 MLOAD PUSH1 0x40 MLOAD DUP1 SWAP2 SUB SWAP1 LOG3 DUP1 PUSH0 DUP1 PUSH2 0x100 EXP DUP2 SLOAD DUP2 PUSH20 0xFFFFFFFFFFFFFFFFFFFFFFFFFFFFFFFFFFFFFFFF MUL NOT AND SWAP1 DUP4 PUSH20 0xFFFFFFFFFFFFFFFFFFFFFFFFFFFFFFFFFFFFFFFF AND MUL OR SWAP1 SSTORE POP JUMPDEST POP JUMP JUMPDEST PUSH32 0xF675E9361AF1C1664C1868CFA3EB97672D6B1A513AA5B81DEC34C9EE330E818D PUSH0 SHL DUP3 SUB PUSH2 0x2ADD JUMPI PUSH1 0x40 MLOAD PUSH32 0x3664800A00000000000000000000000000000000000000000000000000000000 DUP2 MSTORE PUSH1 0x4 ADD PUSH1 0x40 MLOAD DUP1 SWAP2 SUB SWAP1 REVERT JUMPDEST PUSH2 0x2AE7 DUP3 DUP3 PUSH2 0x3384 JUMP JUMPDEST POP POP JUMP JUMPDEST PUSH0 PUSH2 0x2B10 DUP4 PUSH0 ADD DUP4 PUSH20 0xFFFFFFFFFFFFFFFFFFFFFFFFFFFFFFFFFFFFFFFF AND PUSH0 SHL PUSH2 0x3392 JUMP JUMPDEST SWAP1 POP SWAP3 SWAP2 POP POP JUMP JUMPDEST PUSH2 0x2B45 DUP3 PUSH32 0x8A1C15A8799F71B547E08E2BCB2E85257E81B0A07EEE2CE6712549EEF1F00970 PUSH0 SHL DUP4 PUSH2 0x33F9 JUMP JUMPDEST POP POP JUMP JUMPDEST PUSH1 0x60 PUSH0 PUSH2 0x2B57 DUP4 PUSH0 ADD PUSH2 0x30E8 JUMP JUMPDEST SWAP1 POP PUSH1 0x60 DUP2 SWAP1 POP DUP1 SWAP3 POP POP POP SWAP2 SWAP1 POP JUMP JUMPDEST PUSH0 PUSH20 0xFFFFFFFFFFFFFFFFFFFFFFFFFFFFFFFFFFFFFFFF AND DUP5 PUSH20 0xFFFFFFFFFFFFFFFFFFFFFFFFFFFFFFFFFFFFFFFF AND SUB PUSH2 0x2BCD JUMPI PUSH1 0x40 MLOAD PUSH32 0x24ECEF4D00000000000000000000000000000000000000000000000000000000 DUP2 MSTORE PUSH1 0x4 ADD PUSH1 0x40 MLOAD DUP1 SWAP2 SUB SWAP1 REVERT JUMPDEST PUSH2 0x2BD6 DUP4 PUSH2 0x3080 JUMP JUMPDEST ISZERO PUSH2 0x2C18 JUMPI DUP3 PUSH1 0x40 MLOAD PUSH32 0x34C7B51100000000000000000000000000000000000000000000000000000000 DUP2 MSTORE PUSH1 0x4 ADD PUSH2 0x2C0F SWAP2 SWAP1 PUSH2 0x4CF1 JUMP JUMPDEST PUSH1 0x40 MLOAD DUP1 SWAP2 SUB SWAP1 REVERT JUMPDEST PUSH2 0x2C24 PUSH0 DUP6 DUP6 DUP5 PUSH2 0x3141 JUMP JUMPDEST PUSH2 0x2C2D DUP4 PUSH2 0x3080 JUMP JUMPDEST ISZERO PUSH2 0x2C6F JUMPI DUP3 PUSH1 0x40 MLOAD PUSH32 0x34C7B51100000000000000000000000000000000000000000000000000000000 DUP2 MSTORE PUSH1 0x4 ADD PUSH2 0x2C66 SWAP2 SWAP1 PUSH2 0x4CF1 JUMP JUMPDEST PUSH1 0x40 MLOAD DUP1 SWAP2 SUB SWAP1 REVERT JUMPDEST PUSH1 0x2 PUSH0 DUP2 SLOAD PUSH2 0x2C7D SWAP1 PUSH2 0x539A JUMP JUMPDEST SWAP2 SWAP1 POP DUP2 SWAP1 SSTORE POP PUSH2 0x2CD3 DUP4 PUSH1 0x4 PUSH0 DUP8 PUSH20 0xFFFFFFFFFFFFFFFFFFFFFFFFFFFFFFFFFFFFFFFF AND PUSH20 0xFFFFFFFFFFFFFFFFFFFFFFFFFFFFFFFFFFFFFFFF AND DUP2 MSTORE PUSH1 0x20 ADD SWAP1 DUP2 MSTORE PUSH1 0x20 ADD PUSH0 KECCAK256 PUSH2 0x31CA SWAP1 SWAP2 SWAP1 PUSH4 0xFFFFFFFF AND JUMP JUMPDEST POP DUP4 PUSH1 0x3 PUSH0 DUP6 DUP2 MSTORE PUSH1 0x20 ADD SWAP1 DUP2 MSTORE PUSH1 0x20 ADD PUSH0 KECCAK256 PUSH0 PUSH2 0x100 EXP DUP2 SLOAD DUP2 PUSH20 0xFFFFFFFFFFFFFFFFFFFFFFFFFFFFFFFFFFFFFFFF MUL NOT AND SWAP1 DUP4 PUSH20 0xFFFFFFFFFFFFFFFFFFFFFFFFFFFFFFFFFFFFFFFF AND MUL OR SWAP1 SSTORE POP DUP3 DUP5 PUSH20 0xFFFFFFFFFFFFFFFFFFFFFFFFFFFFFFFFFFFFFFFF AND PUSH0 PUSH20 0xFFFFFFFFFFFFFFFFFFFFFFFFFFFFFFFFFFFFFFFF AND PUSH32 0xB333C813A7426A7A11E2B190CAD52C44119421594B47F6F32ACE6D8C7207B2BF CALLER DUP7 DUP7 PUSH1 0x40 MLOAD PUSH2 0x2D85 SWAP4 SWAP3 SWAP2 SWAP1 PUSH2 0x54CA JUMP JUMPDEST PUSH1 0x40 MLOAD DUP1 SWAP2 SUB SWAP1 LOG4 PUSH2 0x2D99 PUSH0 DUP6 DUP6 DUP5 PUSH2 0x31DF JUMP JUMPDEST PUSH0 CALLER PUSH0 DUP7 DUP7 DUP6 PUSH1 0x40 MLOAD PUSH1 0x20 ADD PUSH2 0x2DB3 SWAP6 SWAP5 SWAP4 SWAP3 SWAP2 SWAP1 PUSH2 0x5506 JUMP JUMPDEST PUSH1 0x40 MLOAD PUSH1 0x20 DUP2 DUP4 SUB SUB DUP2 MSTORE SWAP1 PUSH1 0x40 MSTORE SWAP1 POP PUSH2 0x2DCF DUP6 DUP5 DUP4 PUSH2 0x3216 JUMP JUMPDEST POP POP POP POP POP JUMP JUMPDEST DUP1 PUSH1 0x6 PUSH0 DUP6 DUP2 MSTORE PUSH1 0x20 ADD SWAP1 DUP2 MSTORE PUSH1 0x20 ADD PUSH0 KECCAK256 PUSH0 DUP5 DUP2 MSTORE PUSH1 0x20 ADD SWAP1 DUP2 MSTORE PUSH1 0x20 ADD PUSH0 KECCAK256 SWAP1 DUP2 PUSH2 0x2E03 SWAP2 SWAP1 PUSH2 0x51B6 JUMP JUMPDEST POP DUP2 DUP4 PUSH32 0xA6E4251F855F750545FE414F120DB91C76B88DEF14D120969E5BB2D3F05DEBBB DUP4 PUSH1 0x40 MLOAD PUSH2 0x2E35 SWAP2 SWAP1 PUSH2 0x3AD7 JUMP JUMPDEST PUSH1 0x40 MLOAD DUP1 SWAP2 SUB SWAP1 LOG3 POP POP POP JUMP JUMPDEST PUSH0 PUSH2 0x2E66 DUP7 PUSH1 0x5 PUSH0 DUP8 DUP2 MSTORE PUSH1 0x20 ADD SWAP1 DUP2 MSTORE PUSH1 0x20 ADD PUSH0 KECCAK256 PUSH2 0x34B3 SWAP1 SWAP2 SWAP1 PUSH4 0xFFFFFFFF AND JUMP JUMPDEST SWAP1 POP DUP1 PUSH2 0x2EAC JUMPI DUP6 DUP5 PUSH1 0x40 MLOAD PUSH32 0x4AA31A8C00000000000000000000000000000000000000000000000000000000 DUP2 MSTORE PUSH1 0x4 ADD PUSH2 0x2EA3 SWAP3 SWAP2 SWAP1 PUSH2 0x4FB1 JUMP JUMPDEST PUSH1 0x40 MLOAD DUP1 SWAP2 SUB SWAP1 REVERT JUMPDEST DUP4 DUP6 PUSH20 0xFFFFFFFFFFFFFFFFFFFFFFFFFFFFFFFFFFFFFFFF AND DUP8 PUSH20 0xFFFFFFFFFFFFFFFFFFFFFFFFFFFFFFFFFFFFFFFF AND PUSH32 0xC78CD419D6136F9F1C1C6AEC1D3FAE098CFFAF8BC86314A8F2685E32FE574E3C DUP7 DUP7 PUSH1 0x40 MLOAD PUSH2 0x2F0C SWAP3 SWAP2 SWAP1 PUSH2 0x555E JUMP JUMPDEST PUSH1 0x40 MLOAD DUP1 SWAP2 SUB SWAP1 LOG4 POP POP POP POP POP POP JUMP JUMPDEST PUSH0 DUP1 DUP4 PUSH0 PUSH1 0xF0 SHL DUP5 PUSH1 0x40 MLOAD PUSH1 0x20 ADD PUSH2 0x2F36 SWAP4 SWAP3 SWAP2 SWAP1 PUSH2 0x5642 JUMP JUMPDEST PUSH1 0x40 MLOAD PUSH1 0x20 DUP2 DUP4 SUB SUB DUP2 MSTORE SWAP1 PUSH1 0x40 MSTORE SWAP1 POP DUP1 PUSH2 0x2F51 SWAP1 PUSH2 0x5692 JUMP JUMPDEST SWAP2 POP POP SWAP3 SWAP2 POP POP JUMP JUMPDEST PUSH0 PUSH4 0x629AA694 PUSH1 0xE0 SHL PUSH28 0xFFFFFFFFFFFFFFFFFFFFFFFFFFFFFFFFFFFFFFFFFFFFFFFFFFFFFFFF NOT AND DUP3 PUSH28 0xFFFFFFFFFFFFFFFFFFFFFFFFFFFFFFFFFFFFFFFFFFFFFFFFFFFFFFFF NOT AND EQ DUP1 PUSH2 0x2FB3 JUMPI POP PUSH2 0x2FB2 DUP3 PUSH2 0x34E0 JUMP JUMPDEST JUMPDEST SWAP1 POP SWAP2 SWAP1 POP JUMP JUMPDEST PUSH0 DUP1 DUP3 PUSH1 0x40 MLOAD PUSH1 0x24 ADD PUSH2 0x2FCD SWAP2 SWAP1 PUSH2 0x4D19 JUMP JUMPDEST PUSH1 0x40 MLOAD PUSH1 0x20 DUP2 DUP4 SUB SUB DUP2 MSTORE SWAP1 PUSH1 0x40 MSTORE PUSH4 0x1FFC9A7 PUSH1 0xE0 SHL PUSH1 0x20 DUP3 ADD DUP1 MLOAD PUSH28 0xFFFFFFFFFFFFFFFFFFFFFFFFFFFFFFFFFFFFFFFFFFFFFFFFFFFFFFFF DUP4 DUP2 DUP4 AND OR DUP4 MSTORE POP POP POP POP SWAP1 POP PUSH0 DUP1 PUSH0 PUSH1 0x20 PUSH0 DUP6 MLOAD PUSH1 0x20 DUP8 ADD DUP11 PUSH2 0x7530 STATICCALL SWAP3 POP RETURNDATASIZE SWAP2 POP PUSH0 MLOAD SWAP1 POP DUP3 DUP1 ISZERO PUSH2 0x303C JUMPI POP PUSH1 0x20 DUP3 LT ISZERO JUMPDEST DUP1 ISZERO PUSH2 0x3047 JUMPI POP PUSH0 DUP2 GT JUMPDEST SWAP5 POP POP POP POP POP SWAP3 SWAP2 POP POP JUMP JUMPDEST PUSH0 PUSH2 0x3078 DUP4 PUSH0 ADD DUP4 PUSH20 0xFFFFFFFFFFFFFFFFFFFFFFFFFFFFFFFFFFFFFFFF AND PUSH0 SHL PUSH2 0x3549 JUMP JUMPDEST SWAP1 POP SWAP3 SWAP2 POP POP JUMP JUMPDEST PUSH0 DUP1 PUSH20 0xFFFFFFFFFFFFFFFFFFFFFFFFFFFFFFFFFFFFFFFF AND PUSH1 0x3 PUSH0 DUP5 DUP2 MSTORE PUSH1 0x20 ADD SWAP1 DUP2 MSTORE PUSH1 0x20 ADD PUSH0 KECCAK256 PUSH0 SWAP1 SLOAD SWAP1 PUSH2 0x100 EXP SWAP1 DIV PUSH20 0xFFFFFFFFFFFFFFFFFFFFFFFFFFFFFFFFFFFFFFFF AND PUSH20 0xFFFFFFFFFFFFFFFFFFFFFFFFFFFFFFFFFFFFFFFF AND EQ ISZERO SWAP1 POP SWAP2 SWAP1 POP JUMP JUMPDEST PUSH1 0x60 DUP2 PUSH0 ADD DUP1 SLOAD DUP1 PUSH1 0x20 MUL PUSH1 0x20 ADD PUSH1 0x40 MLOAD SWAP1 DUP2 ADD PUSH1 0x40 MSTORE DUP1 SWAP3 SWAP2 SWAP1 DUP2 DUP2 MSTORE PUSH1 0x20 ADD DUP3 DUP1 SLOAD DUP1 ISZERO PUSH2 0x3135 JUMPI PUSH1 0x20 MUL DUP3 ADD SWAP2 SWAP1 PUSH0 MSTORE PUSH1 0x20 PUSH0 KECCAK256 SWAP1 JUMPDEST DUP2 SLOAD DUP2 MSTORE PUSH1 0x20 ADD SWAP1 PUSH1 0x1 ADD SWAP1 DUP1 DUP4 GT PUSH2 0x3121 JUMPI JUMPDEST POP POP POP POP POP SWAP1 POP SWAP2 SWAP1 POP JUMP JUMPDEST POP POP POP POP JUMP JUMPDEST PUSH0 PUSH1 0x5 PUSH0 DUP4 DUP2 MSTORE PUSH1 0x20 ADD SWAP1 DUP2 MSTORE PUSH1 0x20 ADD PUSH0 KECCAK256 SWAP1 POP PUSH0 PUSH2 0x3165 DUP3 PUSH2 0x3569 JUMP JUMPDEST SWAP1 POP PUSH0 DUP1 JUMPDEST DUP3 DUP2 LT ISZERO PUSH2 0x31AD JUMPI PUSH2 0x3185 PUSH0 DUP6 PUSH2 0x357C SWAP1 SWAP2 SWAP1 PUSH4 0xFFFFFFFF AND JUMP JUMPDEST SWAP2 POP PUSH2 0x31A2 DUP3 DUP8 DUP8 PUSH0 PUSH1 0x40 MLOAD DUP1 PUSH1 0x20 ADD PUSH1 0x40 MSTORE DUP1 PUSH0 DUP2 MSTORE POP PUSH2 0x2E42 JUMP JUMPDEST DUP1 PUSH1 0x1 ADD SWAP1 POP PUSH2 0x316A JUMP JUMPDEST POP POP POP POP POP POP JUMP JUMPDEST PUSH0 PUSH2 0x31C2 DUP4 PUSH0 ADD DUP4 PUSH2 0x3593 JUMP JUMPDEST SWAP1 POP SWAP3 SWAP2 POP POP JUMP JUMPDEST PUSH0 PUSH2 0x31D7 DUP4 PUSH0 ADD DUP4 PUSH2 0x3392 JUMP JUMPDEST SWAP1 POP SWAP3 SWAP2 POP POP JUMP JUMPDEST POP POP POP POP JUMP JUMPDEST PUSH2 0x3212 DUP3 PUSH32 0xB23EAE7E6D1564B295B4C3E3BE402D9A2F0776C57BDF365903496F6FA481AB00 PUSH0 SHL DUP4 PUSH2 0x33F9 JUMP JUMPDEST POP POP JUMP JUMPDEST PUSH2 0x3227 DUP4 PUSH4 0x6BB56A14 PUSH1 0xE0 SHL PUSH2 0x2FBA JUMP JUMPDEST ISZERO PUSH2 0x32D2 JUMPI DUP3 PUSH20 0xFFFFFFFFFFFFFFFFFFFFFFFFFFFFFFFFFFFFFFFF AND PUSH4 0x6BB56A14 PUSH32 0xB084A55EBF70FD3C06FD755269DAC2212C4D3F0F4D09079780BFA50C1B2984D PUSH0 SHL DUP4 PUSH1 0x40 MLOAD DUP4 PUSH4 0xFFFFFFFF AND PUSH1 0xE0 SHL DUP2 MSTORE PUSH1 0x4 ADD PUSH2 0x3289 SWAP3 SWAP2 SWAP1 PUSH2 0x56F8 JUMP JUMPDEST PUSH0 PUSH1 0x40 MLOAD DUP1 DUP4 SUB DUP2 PUSH0 DUP8 GAS CALL ISZERO DUP1 ISZERO PUSH2 0x32A4 JUMPI RETURNDATASIZE PUSH0 DUP1 RETURNDATACOPY RETURNDATASIZE PUSH0 REVERT JUMPDEST POP POP POP POP PUSH1 0x40 MLOAD RETURNDATASIZE PUSH0 DUP3 RETURNDATACOPY RETURNDATASIZE PUSH1 0x1F NOT PUSH1 0x1F DUP3 ADD AND DUP3 ADD DUP1 PUSH1 0x40 MSTORE POP DUP2 ADD SWAP1 PUSH2 0x32CC SWAP2 SWAP1 PUSH2 0x5794 JUMP JUMPDEST POP PUSH2 0x3370 JUMP JUMPDEST DUP2 PUSH2 0x336F JUMPI PUSH0 DUP4 PUSH20 0xFFFFFFFFFFFFFFFFFFFFFFFFFFFFFFFFFFFFFFFF AND EXTCODESIZE EQ PUSH2 0x3332 JUMPI DUP3 PUSH1 0x40 MLOAD PUSH32 0x4349776D00000000000000000000000000000000000000000000000000000000 DUP2 MSTORE PUSH1 0x4 ADD PUSH2 0x3329 SWAP2 SWAP1 PUSH2 0x3E7B JUMP JUMPDEST PUSH1 0x40 MLOAD DUP1 SWAP2 SUB SWAP1 REVERT JUMPDEST DUP3 PUSH1 0x40 MLOAD PUSH32 0x317313700000000000000000000000000000000000000000000000000000000 DUP2 MSTORE PUSH1 0x4 ADD PUSH2 0x3366 SWAP2 SWAP1 PUSH2 0x3E7B JUMP JUMPDEST PUSH1 0x40 MLOAD DUP1 SWAP2 SUB SWAP1 REVERT JUMPDEST JUMPDEST POP POP POP JUMP JUMPDEST PUSH0 DUP2 PUSH0 ADD DUP1 SLOAD SWAP1 POP SWAP1 POP SWAP2 SWAP1 POP JUMP JUMPDEST PUSH2 0x338E DUP3 DUP3 PUSH2 0x368F JUMP JUMPDEST POP POP JUMP JUMPDEST PUSH0 PUSH2 0x339D DUP4 DUP4 PUSH2 0x3549 JUMP JUMPDEST PUSH2 0x33EF JUMPI DUP3 PUSH0 ADD DUP3 SWAP1 DUP1 PUSH1 0x1 DUP2 SLOAD ADD DUP1 DUP3 SSTORE DUP1 SWAP2 POP POP PUSH1 0x1 SWAP1 SUB SWAP1 PUSH0 MSTORE PUSH1 0x20 PUSH0 KECCAK256 ADD PUSH0 SWAP1 SWAP2 SWAP1 SWAP2 SWAP1 SWAP2 POP SSTORE DUP3 PUSH0 ADD DUP1 SLOAD SWAP1 POP DUP4 PUSH1 0x1 ADD PUSH0 DUP5 DUP2 MSTORE PUSH1 0x20 ADD SWAP1 DUP2 MSTORE PUSH1 0x20 ADD PUSH0 KECCAK256 DUP2 SWAP1 SSTORE POP PUSH1 0x1 SWAP1 POP PUSH2 0x33F3 JUMP JUMPDEST PUSH0 SWAP1 POP JUMPDEST SWAP3 SWAP2 POP POP JUMP JUMPDEST PUSH2 0x3429 PUSH4 0x6BB56A14 PUSH1 0xE0 SHL DUP5 PUSH20 0xFFFFFFFFFFFFFFFFFFFFFFFFFFFFFFFFFFFFFFFF AND PUSH2 0x2FBA SWAP1 SWAP2 SWAP1 PUSH4 0xFFFFFFFF AND JUMP JUMPDEST ISZERO PUSH2 0x34AE JUMPI DUP3 PUSH20 0xFFFFFFFFFFFFFFFFFFFFFFFFFFFFFFFFFFFFFFFF AND PUSH4 0x6BB56A14 DUP4 DUP4 PUSH1 0x40 MLOAD DUP4 PUSH4 0xFFFFFFFF AND PUSH1 0xE0 SHL DUP2 MSTORE PUSH1 0x4 ADD PUSH2 0x3469 SWAP3 SWAP2 SWAP1 PUSH2 0x56F8 JUMP JUMPDEST PUSH0 PUSH1 0x40 MLOAD DUP1 DUP4 SUB DUP2 PUSH0 DUP8 GAS CALL ISZERO DUP1 ISZERO PUSH2 0x3484 JUMPI RETURNDATASIZE PUSH0 DUP1 RETURNDATACOPY RETURNDATASIZE PUSH0 REVERT JUMPDEST POP POP POP POP PUSH1 0x40 MLOAD RETURNDATASIZE PUSH0 DUP3 RETURNDATACOPY RETURNDATASIZE PUSH1 0x1F NOT PUSH1 0x1F DUP3 ADD AND DUP3 ADD DUP1 PUSH1 0x40 MSTORE POP DUP2 ADD SWAP1 PUSH2 0x34AC SWAP2 SWAP1 PUSH2 0x5794 JUMP JUMPDEST POP JUMPDEST POP POP POP JUMP JUMPDEST PUSH0 PUSH2 0x34D8 DUP4 PUSH0 ADD DUP4 PUSH20 0xFFFFFFFFFFFFFFFFFFFFFFFFFFFFFFFFFFFFFFFF AND PUSH0 SHL PUSH2 0x3593 JUMP JUMPDEST SWAP1 POP SWAP3 SWAP2 POP POP JUMP JUMPDEST PUSH0 PUSH32 0x1FFC9A700000000000000000000000000000000000000000000000000000000 PUSH28 0xFFFFFFFFFFFFFFFFFFFFFFFFFFFFFFFFFFFFFFFFFFFFFFFFFFFFFFFF NOT AND DUP3 PUSH28 0xFFFFFFFFFFFFFFFFFFFFFFFFFFFFFFFFFFFFFFFFFFFFFFFFFFFFFFFF NOT AND EQ SWAP1 POP SWAP2 SWAP1 POP JUMP JUMPDEST PUSH0 DUP1 DUP4 PUSH1 0x1 ADD PUSH0 DUP5 DUP2 MSTORE PUSH1 0x20 ADD SWAP1 DUP2 MSTORE PUSH1 0x20 ADD PUSH0 KECCAK256 SLOAD EQ ISZERO SWAP1 POP SWAP3 SWAP2 POP POP JUMP JUMPDEST PUSH0 PUSH2 0x3575 DUP3 PUSH0 ADD PUSH2 0x3375 JUMP JUMPDEST SWAP1 POP SWAP2 SWAP1 POP JUMP JUMPDEST PUSH0 PUSH2 0x3589 DUP4 PUSH0 ADD DUP4 PUSH2 0x37FB JUMP JUMPDEST PUSH0 SHR SWAP1 POP SWAP3 SWAP2 POP POP JUMP JUMPDEST PUSH0 DUP1 DUP4 PUSH1 0x1 ADD PUSH0 DUP5 DUP2 MSTORE PUSH1 0x20 ADD SWAP1 DUP2 MSTORE PUSH1 0x20 ADD PUSH0 KECCAK256 SLOAD SWAP1 POP PUSH0 DUP2 EQ PUSH2 0x3684 JUMPI PUSH0 PUSH1 0x1 DUP3 PUSH2 0x35C0 SWAP2 SWAP1 PUSH2 0x57DB JUMP JUMPDEST SWAP1 POP PUSH0 PUSH1 0x1 DUP7 PUSH0 ADD DUP1 SLOAD SWAP1 POP PUSH2 0x35D6 SWAP2 SWAP1 PUSH2 0x57DB JUMP JUMPDEST SWAP1 POP DUP1 DUP3 EQ PUSH2 0x363C JUMPI PUSH0 DUP7 PUSH0 ADD DUP3 DUP2 SLOAD DUP2 LT PUSH2 0x35F5 JUMPI PUSH2 0x35F4 PUSH2 0x4EA2 JUMP JUMPDEST JUMPDEST SWAP1 PUSH0 MSTORE PUSH1 0x20 PUSH0 KECCAK256 ADD SLOAD SWAP1 POP DUP1 DUP8 PUSH0 ADD DUP5 DUP2 SLOAD DUP2 LT PUSH2 0x3616 JUMPI PUSH2 0x3615 PUSH2 0x4EA2 JUMP JUMPDEST JUMPDEST SWAP1 PUSH0 MSTORE PUSH1 0x20 PUSH0 KECCAK256 ADD DUP2 SWAP1 SSTORE POP DUP4 DUP8 PUSH1 0x1 ADD PUSH0 DUP4 DUP2 MSTORE PUSH1 0x20 ADD SWAP1 DUP2 MSTORE PUSH1 0x20 ADD PUSH0 KECCAK256 DUP2 SWAP1 SSTORE POP POP JUMPDEST DUP6 PUSH0 ADD DUP1 SLOAD DUP1 PUSH2 0x364F JUMPI PUSH2 0x364E PUSH2 0x580E JUMP JUMPDEST JUMPDEST PUSH1 0x1 SWAP1 SUB DUP2 DUP2 SWAP1 PUSH0 MSTORE PUSH1 0x20 PUSH0 KECCAK256 ADD PUSH0 SWAP1 SSTORE SWAP1 SSTORE DUP6 PUSH1 0x1 ADD PUSH0 DUP7 DUP2 MSTORE PUSH1 0x20 ADD SWAP1 DUP2 MSTORE PUSH1 0x20 ADD PUSH0 KECCAK256 PUSH0 SWAP1 SSTORE PUSH1 0x1 SWAP4 POP POP POP POP PUSH2 0x3689 JUMP JUMPDEST PUSH0 SWAP2 POP POP JUMPDEST SWAP3 SWAP2 POP POP JUMP JUMPDEST PUSH32 0xDEBA1E292F8BA88238E10AB3C7F88BD4BE4FAC56CAD5194B6ECCEAF653468AF1 PUSH0 SHL DUP3 SUB PUSH2 0x36EA JUMPI PUSH1 0x40 MLOAD PUSH32 0x85C169BD00000000000000000000000000000000000000000000000000000000 DUP2 MSTORE PUSH1 0x4 ADD PUSH1 0x40 MLOAD DUP1 SWAP2 SUB SWAP1 REVERT JUMPDEST PUSH32 0x2F0A68AB07768E01943A599E73362A0E17A63A72E94DD2E384D2C1D4DB932756 PUSH0 SHL DUP3 SUB PUSH2 0x3745 JUMPI PUSH1 0x40 MLOAD PUSH32 0x76755B3800000000000000000000000000000000000000000000000000000000 DUP2 MSTORE PUSH1 0x4 ADD PUSH1 0x40 MLOAD DUP1 SWAP2 SUB SWAP1 REVERT JUMPDEST PUSH32 0xE0261FA95DB2EB3B5439BD033CDA66D56B96F92F243A8228FD87550ED7BDFDB3 PUSH0 SHL DUP3 SUB PUSH2 0x37A0 JUMPI PUSH1 0x40 MLOAD PUSH32 0x4EF6D7FB00000000000000000000000000000000000000000000000000000000 DUP2 MSTORE PUSH1 0x4 ADD PUSH1 0x40 MLOAD DUP1 SWAP2 SUB SWAP1 REVERT JUMPDEST DUP1 PUSH1 0x1 PUSH0 DUP5 DUP2 MSTORE PUSH1 0x20 ADD SWAP1 DUP2 MSTORE PUSH1 0x20 ADD PUSH0 KECCAK256 SWAP1 DUP2 PUSH2 0x37BE SWAP2 SWAP1 PUSH2 0x51B6 JUMP JUMPDEST POP DUP2 PUSH32 0xECE574603820D07BC9B91F2A932BAADF4628AABCB8AFBA49776529C14A6104B2 DUP3 PUSH1 0x40 MLOAD PUSH2 0x37EF SWAP2 SWAP1 PUSH2 0x3AD7 JUMP JUMPDEST PUSH1 0x40 MLOAD DUP1 SWAP2 SUB SWAP1 LOG2 POP POP JUMP JUMPDEST PUSH0 DUP3 PUSH0 ADD DUP3 DUP2 SLOAD DUP2 LT PUSH2 0x3811 JUMPI PUSH2 0x3810 PUSH2 0x4EA2 JUMP JUMPDEST JUMPDEST SWAP1 PUSH0 MSTORE PUSH1 0x20 PUSH0 KECCAK256 ADD SLOAD SWAP1 POP SWAP3 SWAP2 POP POP JUMP JUMPDEST PUSH2 0x14A DUP1 PUSH2 0x583C DUP4 CODECOPY ADD SWAP1 JUMP JUMPDEST PUSH0 DUP3 DUP3 MSTORE PUSH1 0x20 DUP3 ADD SWAP1 POP SWAP3 SWAP2 POP POP JUMP JUMPDEST PUSH0 DUP1 DUP3 ADD MSTORE POP JUMP JUMPDEST PUSH0 PUSH2 0x3853 PUSH1 0x4 DUP4 PUSH2 0x382F JUMP JUMPDEST SWAP2 POP PUSH2 0x385E DUP3 PUSH2 0x383F JUMP JUMPDEST PUSH1 0x20 DUP3 ADD SWAP1 POP SWAP2 SWAP1 POP JUMP JUMPDEST PUSH0 PUSH1 0x20 DUP3 ADD SWAP1 POP DUP2 DUP2 SUB PUSH0 DUP4 ADD MSTORE PUSH2 0x3880 DUP2 PUSH2 0x3847 JUMP JUMPDEST SWAP1 POP SWAP2 SWAP1 POP JUMP JUMPDEST DUP3 DUP2 DUP4 CALLDATACOPY PUSH0 DUP4 DUP4 ADD MSTORE POP POP POP JUMP JUMPDEST PUSH0 PUSH1 0x1F NOT PUSH1 0x1F DUP4 ADD AND SWAP1 POP SWAP2 SWAP1 POP JUMP JUMPDEST PUSH0 PUSH2 0x38B0 DUP4 DUP6 PUSH2 0x382F JUMP JUMPDEST SWAP4 POP PUSH2 0x38BD DUP4 DUP6 DUP5 PUSH2 0x3887 JUMP JUMPDEST PUSH2 0x38C6 DUP4 PUSH2 0x3895 JUMP JUMPDEST DUP5 ADD SWAP1 POP SWAP4 SWAP3 POP POP POP JUMP JUMPDEST PUSH0 PUSH1 0x20 DUP3 ADD SWAP1 POP DUP2 DUP2 SUB PUSH0 DUP4 ADD MSTORE PUSH2 0x38EA DUP2 DUP5 DUP7 PUSH2 0x38A5 JUMP JUMPDEST SWAP1 POP SWAP4 SWAP3 POP POP POP JUMP JUMPDEST PUSH0 PUSH1 0x40 MLOAD SWAP1 POP SWAP1 JUMP JUMPDEST PUSH0 DUP1 REVERT JUMPDEST PUSH0 DUP1 REVERT JUMPDEST PUSH0 PUSH20 0xFFFFFFFFFFFFFFFFFFFFFFFFFFFFFFFFFFFFFFFF DUP3 AND SWAP1 POP SWAP2 SWAP1 POP JUMP JUMPDEST PUSH0 PUSH2 0x392D DUP3 PUSH2 0x3904 JUMP JUMPDEST SWAP1 POP SWAP2 SWAP1 POP JUMP JUMPDEST PUSH2 0x393D DUP2 PUSH2 0x3923 JUMP JUMPDEST DUP2 EQ PUSH2 0x3947 JUMPI PUSH0 DUP1 REVERT JUMPDEST POP JUMP JUMPDEST PUSH0 DUP2 CALLDATALOAD SWAP1 POP PUSH2 0x3958 DUP2 PUSH2 0x3934 JUMP JUMPDEST SWAP3 SWAP2 POP POP JUMP JUMPDEST PUSH0 PUSH1 0x20 DUP3 DUP5 SUB SLT ISZERO PUSH2 0x3973 JUMPI PUSH2 0x3972 PUSH2 0x38FC JUMP JUMPDEST JUMPDEST PUSH0 PUSH2 0x3980 DUP5 DUP3 DUP6 ADD PUSH2 0x394A JUMP JUMPDEST SWAP2 POP POP SWAP3 SWAP2 POP POP JUMP JUMPDEST PUSH0 DUP2 SWAP1 POP SWAP2 SWAP1 POP JUMP JUMPDEST PUSH2 0x399B DUP2 PUSH2 0x3989 JUMP JUMPDEST DUP3 MSTORE POP POP JUMP JUMPDEST PUSH0 PUSH1 0x20 DUP3 ADD SWAP1 POP PUSH2 0x39B4 PUSH0 DUP4 ADD DUP5 PUSH2 0x3992 JUMP JUMPDEST SWAP3 SWAP2 POP POP JUMP JUMPDEST PUSH0 PUSH32 0xFFFFFFFF00000000000000000000000000000000000000000000000000000000 DUP3 AND SWAP1 POP SWAP2 SWAP1 POP JUMP JUMPDEST PUSH2 0x39EE DUP2 PUSH2 0x39BA JUMP JUMPDEST DUP2 EQ PUSH2 0x39F8 JUMPI PUSH0 DUP1 REVERT JUMPDEST POP JUMP JUMPDEST PUSH0 DUP2 CALLDATALOAD SWAP1 POP PUSH2 0x3A09 DUP2 PUSH2 0x39E5 JUMP JUMPDEST SWAP3 SWAP2 POP POP JUMP JUMPDEST PUSH0 PUSH1 0x20 DUP3 DUP5 SUB SLT ISZERO PUSH2 0x3A24 JUMPI PUSH2 0x3A23 PUSH2 0x38FC JUMP JUMPDEST JUMPDEST PUSH0 PUSH2 0x3A31 DUP5 DUP3 DUP6 ADD PUSH2 0x39FB JUMP JUMPDEST SWAP2 POP POP SWAP3 SWAP2 POP POP JUMP JUMPDEST PUSH0 DUP2 ISZERO ISZERO SWAP1 POP SWAP2 SWAP1 POP JUMP JUMPDEST PUSH2 0x3A4E DUP2 PUSH2 0x3A3A JUMP JUMPDEST DUP3 MSTORE POP POP JUMP JUMPDEST PUSH0 PUSH1 0x20 DUP3 ADD SWAP1 POP PUSH2 0x3A67 PUSH0 DUP4 ADD DUP5 PUSH2 0x3A45 JUMP JUMPDEST SWAP3 SWAP2 POP POP JUMP JUMPDEST PUSH0 DUP2 MLOAD SWAP1 POP SWAP2 SWAP1 POP JUMP JUMPDEST PUSH0 JUMPDEST DUP4 DUP2 LT ISZERO PUSH2 0x3A94 JUMPI DUP1 DUP3 ADD MLOAD DUP2 DUP5 ADD MSTORE PUSH1 0x20 DUP2 ADD SWAP1 POP PUSH2 0x3A79 JUMP JUMPDEST PUSH0 DUP5 DUP5 ADD MSTORE POP POP POP POP JUMP JUMPDEST PUSH0 PUSH2 0x3AA9 DUP3 PUSH2 0x3A6D JUMP JUMPDEST PUSH2 0x3AB3 DUP2 DUP6 PUSH2 0x382F JUMP JUMPDEST SWAP4 POP PUSH2 0x3AC3 DUP2 DUP6 PUSH1 0x20 DUP7 ADD PUSH2 0x3A77 JUMP JUMPDEST PUSH2 0x3ACC DUP2 PUSH2 0x3895 JUMP JUMPDEST DUP5 ADD SWAP2 POP POP SWAP3 SWAP2 POP POP JUMP JUMPDEST PUSH0 PUSH1 0x20 DUP3 ADD SWAP1 POP DUP2 DUP2 SUB PUSH0 DUP4 ADD MSTORE PUSH2 0x3AEF DUP2 DUP5 PUSH2 0x3A9F JUMP JUMPDEST SWAP1 POP SWAP3 SWAP2 POP POP JUMP JUMPDEST PUSH0 DUP2 SWAP1 POP SWAP2 SWAP1 POP JUMP JUMPDEST PUSH2 0x3B09 DUP2 PUSH2 0x3AF7 JUMP JUMPDEST DUP2 EQ PUSH2 0x3B13 JUMPI PUSH0 DUP1 REVERT JUMPDEST POP JUMP JUMPDEST PUSH0 DUP2 CALLDATALOAD SWAP1 POP PUSH2 0x3B24 DUP2 PUSH2 0x3B00 JUMP JUMPDEST SWAP3 SWAP2 POP POP JUMP JUMPDEST PUSH0 DUP1 PUSH1 0x40 DUP4 DUP6 SUB SLT ISZERO PUSH2 0x3B40 JUMPI PUSH2 0x3B3F PUSH2 0x38FC JUMP JUMPDEST JUMPDEST PUSH0 PUSH2 0x3B4D DUP6 DUP3 DUP7 ADD PUSH2 0x3B16 JUMP JUMPDEST SWAP3 POP POP PUSH1 0x20 PUSH2 0x3B5E DUP6 DUP3 DUP7 ADD PUSH2 0x3B16 JUMP JUMPDEST SWAP2 POP POP SWAP3 POP SWAP3 SWAP1 POP JUMP JUMPDEST PUSH0 DUP1 REVERT JUMPDEST PUSH32 0x4E487B7100000000000000000000000000000000000000000000000000000000 PUSH0 MSTORE PUSH1 0x41 PUSH1 0x4 MSTORE PUSH1 0x24 PUSH0 REVERT JUMPDEST PUSH2 0x3BA2 DUP3 PUSH2 0x3895 JUMP JUMPDEST DUP2 ADD DUP2 DUP2 LT PUSH8 0xFFFFFFFFFFFFFFFF DUP3 GT OR ISZERO PUSH2 0x3BC1 JUMPI PUSH2 0x3BC0 PUSH2 0x3B6C JUMP JUMPDEST JUMPDEST DUP1 PUSH1 0x40 MSTORE POP POP POP JUMP JUMPDEST PUSH0 PUSH2 0x3BD3 PUSH2 0x38F3 JUMP JUMPDEST SWAP1 POP PUSH2 0x3BDF DUP3 DUP3 PUSH2 0x3B99 JUMP JUMPDEST SWAP2 SWAP1 POP JUMP JUMPDEST PUSH0 PUSH8 0xFFFFFFFFFFFFFFFF DUP3 GT ISZERO PUSH2 0x3BFE JUMPI PUSH2 0x3BFD PUSH2 0x3B6C JUMP JUMPDEST JUMPDEST PUSH1 0x20 DUP3 MUL SWAP1 POP PUSH1 0x20 DUP2 ADD SWAP1 POP SWAP2 SWAP1 POP JUMP JUMPDEST PUSH0 DUP1 REVERT JUMPDEST PUSH0 PUSH2 0x3C25 PUSH2 0x3C20 DUP5 PUSH2 0x3BE4 JUMP JUMPDEST PUSH2 0x3BCA JUMP JUMPDEST SWAP1 POP DUP1 DUP4 DUP3 MSTORE PUSH1 0x20 DUP3 ADD SWAP1 POP PUSH1 0x20 DUP5 MUL DUP4 ADD DUP6 DUP2 GT ISZERO PUSH2 0x3C48 JUMPI PUSH2 0x3C47 PUSH2 0x3C0F JUMP JUMPDEST JUMPDEST DUP4 JUMPDEST DUP2 DUP2 LT ISZERO PUSH2 0x3C71 JUMPI DUP1 PUSH2 0x3C5D DUP9 DUP3 PUSH2 0x3B16 JUMP JUMPDEST DUP5 MSTORE PUSH1 0x20 DUP5 ADD SWAP4 POP POP PUSH1 0x20 DUP2 ADD SWAP1 POP PUSH2 0x3C4A JUMP JUMPDEST POP POP POP SWAP4 SWAP3 POP POP POP JUMP JUMPDEST PUSH0 DUP3 PUSH1 0x1F DUP4 ADD SLT PUSH2 0x3C8F JUMPI PUSH2 0x3C8E PUSH2 0x3B68 JUMP JUMPDEST JUMPDEST DUP2 CALLDATALOAD PUSH2 0x3C9F DUP5 DUP3 PUSH1 0x20 DUP7 ADD PUSH2 0x3C13 JUMP JUMPDEST SWAP2 POP POP SWAP3 SWAP2 POP POP JUMP JUMPDEST PUSH0 DUP1 PUSH1 0x40 DUP4 DUP6 SUB SLT ISZERO PUSH2 0x3CBE JUMPI PUSH2 0x3CBD PUSH2 0x38FC JUMP JUMPDEST JUMPDEST PUSH0 DUP4 ADD CALLDATALOAD PUSH8 0xFFFFFFFFFFFFFFFF DUP2 GT ISZERO PUSH2 0x3CDB JUMPI PUSH2 0x3CDA PUSH2 0x3900 JUMP JUMPDEST JUMPDEST PUSH2 0x3CE7 DUP6 DUP3 DUP7 ADD PUSH2 0x3C7B JUMP JUMPDEST SWAP3 POP POP PUSH1 0x20 DUP4 ADD CALLDATALOAD PUSH8 0xFFFFFFFFFFFFFFFF DUP2 GT ISZERO PUSH2 0x3D08 JUMPI PUSH2 0x3D07 PUSH2 0x3900 JUMP JUMPDEST JUMPDEST PUSH2 0x3D14 DUP6 DUP3 DUP7 ADD PUSH2 0x3C7B JUMP JUMPDEST SWAP2 POP POP SWAP3 POP SWAP3 SWAP1 POP JUMP JUMPDEST PUSH0 DUP2 MLOAD SWAP1 POP SWAP2 SWAP1 POP JUMP JUMPDEST PUSH0 DUP3 DUP3 MSTORE PUSH1 0x20 DUP3 ADD SWAP1 POP SWAP3 SWAP2 POP POP JUMP JUMPDEST PUSH0 DUP2 SWAP1 POP PUSH1 0x20 DUP3 ADD SWAP1 POP SWAP2 SWAP1 POP JUMP JUMPDEST PUSH0 DUP3 DUP3 MSTORE PUSH1 0x20 DUP3 ADD SWAP1 POP SWAP3 SWAP2 POP POP JUMP JUMPDEST PUSH0 PUSH2 0x3D61 DUP3 PUSH2 0x3A6D JUMP JUMPDEST PUSH2 0x3D6B DUP2 DUP6 PUSH2 0x3D47 JUMP JUMPDEST SWAP4 POP PUSH2 0x3D7B DUP2 DUP6 PUSH1 0x20 DUP7 ADD PUSH2 0x3A77 JUMP JUMPDEST PUSH2 0x3D84 DUP2 PUSH2 0x3895 JUMP JUMPDEST DUP5 ADD SWAP2 POP POP SWAP3 SWAP2 POP POP JUMP JUMPDEST PUSH0 PUSH2 0x3D9A DUP4 DUP4 PUSH2 0x3D57 JUMP JUMPDEST SWAP1 POP SWAP3 SWAP2 POP POP JUMP JUMPDEST PUSH0 PUSH1 0x20 DUP3 ADD SWAP1 POP SWAP2 SWAP1 POP JUMP JUMPDEST PUSH0 PUSH2 0x3DB8 DUP3 PUSH2 0x3D1E JUMP JUMPDEST PUSH2 0x3DC2 DUP2 DUP6 PUSH2 0x3D28 JUMP JUMPDEST SWAP4 POP DUP4 PUSH1 0x20 DUP3 MUL DUP6 ADD PUSH2 0x3DD4 DUP6 PUSH2 0x3D38 JUMP JUMPDEST DUP1 PUSH0 JUMPDEST DUP6 DUP2 LT ISZERO PUSH2 0x3E0F JUMPI DUP5 DUP5 SUB DUP10 MSTORE DUP2 MLOAD PUSH2 0x3DF0 DUP6 DUP3 PUSH2 0x3D8F JUMP JUMPDEST SWAP5 POP PUSH2 0x3DFB DUP4 PUSH2 0x3DA2 JUMP JUMPDEST SWAP3 POP PUSH1 0x20 DUP11 ADD SWAP10 POP POP PUSH1 0x1 DUP2 ADD SWAP1 POP PUSH2 0x3DD7 JUMP JUMPDEST POP DUP3 SWAP8 POP DUP8 SWAP6 POP POP POP POP POP POP SWAP3 SWAP2 POP POP JUMP JUMPDEST PUSH0 PUSH1 0x20 DUP3 ADD SWAP1 POP DUP2 DUP2 SUB PUSH0 DUP4 ADD MSTORE PUSH2 0x3E39 DUP2 DUP5 PUSH2 0x3DAE JUMP JUMPDEST SWAP1 POP SWAP3 SWAP2 POP POP JUMP JUMPDEST PUSH0 PUSH1 0x20 DUP3 DUP5 SUB SLT ISZERO PUSH2 0x3E56 JUMPI PUSH2 0x3E55 PUSH2 0x38FC JUMP JUMPDEST JUMPDEST PUSH0 PUSH2 0x3E63 DUP5 DUP3 DUP6 ADD PUSH2 0x3B16 JUMP JUMPDEST SWAP2 POP POP SWAP3 SWAP2 POP POP JUMP JUMPDEST PUSH2 0x3E75 DUP2 PUSH2 0x3923 JUMP JUMPDEST DUP3 MSTORE POP POP JUMP JUMPDEST PUSH0 PUSH1 0x20 DUP3 ADD SWAP1 POP PUSH2 0x3E8E PUSH0 DUP4 ADD DUP5 PUSH2 0x3E6C JUMP JUMPDEST SWAP3 SWAP2 POP POP JUMP JUMPDEST PUSH0 DUP1 PUSH1 0x40 DUP4 DUP6 SUB SLT ISZERO PUSH2 0x3EAA JUMPI PUSH2 0x3EA9 PUSH2 0x38FC JUMP JUMPDEST JUMPDEST PUSH0 PUSH2 0x3EB7 DUP6 DUP3 DUP7 ADD PUSH2 0x394A JUMP JUMPDEST SWAP3 POP POP PUSH1 0x20 PUSH2 0x3EC8 DUP6 DUP3 DUP7 ADD PUSH2 0x3B16 JUMP JUMPDEST SWAP2 POP POP SWAP3 POP SWAP3 SWAP1 POP JUMP JUMPDEST PUSH0 DUP2 MLOAD SWAP1 POP SWAP2 SWAP1 POP JUMP JUMPDEST PUSH0 DUP3 DUP3 MSTORE PUSH1 0x20 DUP3 ADD SWAP1 POP SWAP3 SWAP2 POP POP JUMP JUMPDEST PUSH0 DUP2 SWAP1 POP PUSH1 0x20 DUP3 ADD SWAP1 POP SWAP2 SWAP1 POP JUMP JUMPDEST PUSH2 0x3F04 DUP2 PUSH2 0x3AF7 JUMP JUMPDEST DUP3 MSTORE POP POP JUMP JUMPDEST PUSH2 0x3F13 DUP2 PUSH2 0x3923 JUMP JUMPDEST DUP3 MSTORE POP POP JUMP JUMPDEST PUSH2 0x3F22 DUP2 PUSH2 0x3989 JUMP JUMPDEST DUP3 MSTORE POP POP JUMP JUMPDEST PUSH1 0x60 DUP3 ADD PUSH0 DUP3 ADD MLOAD PUSH2 0x3F3C PUSH0 DUP6 ADD DUP3 PUSH2 0x3EFB JUMP JUMPDEST POP PUSH1 0x20 DUP3 ADD MLOAD PUSH2 0x3F4F PUSH1 0x20 DUP6 ADD DUP3 PUSH2 0x3F0A JUMP JUMPDEST POP PUSH1 0x40 DUP3 ADD MLOAD PUSH2 0x3F62 PUSH1 0x40 DUP6 ADD DUP3 PUSH2 0x3F19 JUMP JUMPDEST POP POP POP POP JUMP JUMPDEST PUSH0 PUSH2 0x3F73 DUP4 DUP4 PUSH2 0x3F28 JUMP JUMPDEST PUSH1 0x60 DUP4 ADD SWAP1 POP SWAP3 SWAP2 POP POP JUMP JUMPDEST PUSH0 PUSH1 0x20 DUP3 ADD SWAP1 POP SWAP2 SWAP1 POP JUMP JUMPDEST PUSH0 PUSH2 0x3F95 DUP3 PUSH2 0x3ED2 JUMP JUMPDEST PUSH2 0x3F9F DUP2 DUP6 PUSH2 0x3EDC JUMP JUMPDEST SWAP4 POP PUSH2 0x3FAA DUP4 PUSH2 0x3EEC JUMP JUMPDEST DUP1 PUSH0 JUMPDEST DUP4 DUP2 LT ISZERO PUSH2 0x3FDA JUMPI DUP2 MLOAD PUSH2 0x3FC1 DUP9 DUP3 PUSH2 0x3F68 JUMP JUMPDEST SWAP8 POP PUSH2 0x3FCC DUP4 PUSH2 0x3F7F JUMP JUMPDEST SWAP3 POP POP PUSH1 0x1 DUP2 ADD SWAP1 POP PUSH2 0x3FAD JUMP JUMPDEST POP DUP6 SWAP4 POP POP POP POP SWAP3 SWAP2 POP POP JUMP JUMPDEST PUSH0 PUSH1 0x20 DUP3 ADD SWAP1 POP DUP2 DUP2 SUB PUSH0 DUP4 ADD MSTORE PUSH2 0x3FFF DUP2 DUP5 PUSH2 0x3F8B JUMP JUMPDEST SWAP1 POP SWAP3 SWAP2 POP POP JUMP JUMPDEST PUSH0 DUP2 MLOAD SWAP1 POP SWAP2 SWAP1 POP JUMP JUMPDEST PUSH0 DUP3 DUP3 MSTORE PUSH1 0x20 DUP3 ADD SWAP1 POP SWAP3 SWAP2 POP POP JUMP JUMPDEST PUSH0 DUP2 SWAP1 POP PUSH1 0x20 DUP3 ADD SWAP1 POP SWAP2 SWAP1 POP JUMP JUMPDEST PUSH0 PUSH2 0x403B DUP4 DUP4 PUSH2 0x3F0A JUMP JUMPDEST PUSH1 0x20 DUP4 ADD SWAP1 POP SWAP3 SWAP2 POP POP JUMP JUMPDEST PUSH0 PUSH1 0x20 DUP3 ADD SWAP1 POP SWAP2 SWAP1 POP JUMP JUMPDEST PUSH0 PUSH2 0x405D DUP3 PUSH2 0x4007 JUMP JUMPDEST PUSH2 0x4067 DUP2 DUP6 PUSH2 0x4011 JUMP JUMPDEST SWAP4 POP PUSH2 0x4072 DUP4 PUSH2 0x4021 JUMP JUMPDEST DUP1 PUSH0 JUMPDEST DUP4 DUP2 LT ISZERO PUSH2 0x40A2 JUMPI DUP2 MLOAD PUSH2 0x4089 DUP9 DUP3 PUSH2 0x4030 JUMP JUMPDEST SWAP8 POP PUSH2 0x4094 DUP4 PUSH2 0x4047 JUMP JUMPDEST SWAP3 POP POP PUSH1 0x1 DUP2 ADD SWAP1 POP PUSH2 0x4075 JUMP JUMPDEST POP DUP6 SWAP4 POP POP POP POP SWAP3 SWAP2 POP POP JUMP JUMPDEST PUSH0 PUSH1 0x20 DUP3 ADD SWAP1 POP DUP2 DUP2 SUB PUSH0 DUP4 ADD MSTORE PUSH2 0x40C7 DUP2 DUP5 PUSH2 0x4053 JUMP JUMPDEST SWAP1 POP SWAP3 SWAP2 POP POP JUMP JUMPDEST PUSH2 0x40D8 DUP2 PUSH2 0x3A3A JUMP JUMPDEST DUP2 EQ PUSH2 0x40E2 JUMPI PUSH0 DUP1 REVERT JUMPDEST POP JUMP JUMPDEST PUSH0 DUP2 CALLDATALOAD SWAP1 POP PUSH2 0x40F3 DUP2 PUSH2 0x40CF JUMP JUMPDEST SWAP3 SWAP2 POP POP JUMP JUMPDEST PUSH0 DUP1 REVERT JUMPDEST PUSH0 PUSH8 0xFFFFFFFFFFFFFFFF DUP3 GT ISZERO PUSH2 0x4117 JUMPI PUSH2 0x4116 PUSH2 0x3B6C JUMP JUMPDEST JUMPDEST PUSH2 0x4120 DUP3 PUSH2 0x3895 JUMP JUMPDEST SWAP1 POP PUSH1 0x20 DUP2 ADD SWAP1 POP SWAP2 SWAP1 POP JUMP JUMPDEST PUSH0 PUSH2 0x413F PUSH2 0x413A DUP5 PUSH2 0x40FD JUMP JUMPDEST PUSH2 0x3BCA JUMP JUMPDEST SWAP1 POP DUP3 DUP2 MSTORE PUSH1 0x20 DUP2 ADD DUP5 DUP5 DUP5 ADD GT ISZERO PUSH2 0x415B JUMPI PUSH2 0x415A PUSH2 0x40F9 JUMP JUMPDEST JUMPDEST PUSH2 0x4166 DUP5 DUP3 DUP6 PUSH2 0x3887 JUMP JUMPDEST POP SWAP4 SWAP3 POP POP POP JUMP JUMPDEST PUSH0 DUP3 PUSH1 0x1F DUP4 ADD SLT PUSH2 0x4182 JUMPI PUSH2 0x4181 PUSH2 0x3B68 JUMP JUMPDEST JUMPDEST DUP2 CALLDATALOAD PUSH2 0x4192 DUP5 DUP3 PUSH1 0x20 DUP7 ADD PUSH2 0x412D JUMP JUMPDEST SWAP2 POP POP SWAP3 SWAP2 POP POP JUMP JUMPDEST PUSH0 DUP1 PUSH0 DUP1 PUSH0 PUSH1 0xA0 DUP7 DUP9 SUB SLT ISZERO PUSH2 0x41B4 JUMPI PUSH2 0x41B3 PUSH2 0x38FC JUMP JUMPDEST JUMPDEST PUSH0 PUSH2 0x41C1 DUP9 DUP3 DUP10 ADD PUSH2 0x394A JUMP JUMPDEST SWAP6 POP POP PUSH1 0x20 PUSH2 0x41D2 DUP9 DUP3 DUP10 ADD PUSH2 0x394A JUMP JUMPDEST SWAP5 POP POP PUSH1 0x40 PUSH2 0x41E3 DUP9 DUP3 DUP10 ADD PUSH2 0x3B16 JUMP JUMPDEST SWAP4 POP POP PUSH1 0x60 PUSH2 0x41F4 DUP9 DUP3 DUP10 ADD PUSH2 0x40E5 JUMP JUMPDEST SWAP3 POP POP PUSH1 0x80 DUP7 ADD CALLDATALOAD PUSH8 0xFFFFFFFFFFFFFFFF DUP2 GT ISZERO PUSH2 0x4215 JUMPI PUSH2 0x4214 PUSH2 0x3900 JUMP JUMPDEST JUMPDEST PUSH2 0x4221 DUP9 DUP3 DUP10 ADD PUSH2 0x416E JUMP JUMPDEST SWAP2 POP POP SWAP3 SWAP6 POP SWAP3 SWAP6 SWAP1 SWAP4 POP JUMP JUMPDEST PUSH0 DUP1 REVERT JUMPDEST PUSH0 DUP1 DUP4 PUSH1 0x1F DUP5 ADD SLT PUSH2 0x4247 JUMPI PUSH2 0x4246 PUSH2 0x3B68 JUMP JUMPDEST JUMPDEST DUP3 CALLDATALOAD SWAP1 POP PUSH8 0xFFFFFFFFFFFFFFFF DUP2 GT ISZERO PUSH2 0x4264 JUMPI PUSH2 0x4263 PUSH2 0x422E JUMP JUMPDEST JUMPDEST PUSH1 0x20 DUP4 ADD SWAP2 POP DUP4 PUSH1 0x20 DUP3 MUL DUP4 ADD GT ISZERO PUSH2 0x4280 JUMPI PUSH2 0x427F PUSH2 0x3C0F JUMP JUMPDEST JUMPDEST SWAP3 POP SWAP3 SWAP1 POP JUMP JUMPDEST PUSH0 DUP1 PUSH1 0x20 DUP4 DUP6 SUB SLT ISZERO PUSH2 0x429D JUMPI PUSH2 0x429C PUSH2 0x38FC JUMP JUMPDEST JUMPDEST PUSH0 DUP4 ADD CALLDATALOAD PUSH8 0xFFFFFFFFFFFFFFFF DUP2 GT ISZERO PUSH2 0x42BA JUMPI PUSH2 0x42B9 PUSH2 0x3900 JUMP JUMPDEST JUMPDEST PUSH2 0x42C6 DUP6 DUP3 DUP7 ADD PUSH2 0x4232 JUMP JUMPDEST SWAP3 POP SWAP3 POP POP SWAP3 POP SWAP3 SWAP1 POP JUMP JUMPDEST PUSH0 PUSH8 0xFFFFFFFFFFFFFFFF DUP3 GT ISZERO PUSH2 0x42EC JUMPI PUSH2 0x42EB PUSH2 0x3B6C JUMP JUMPDEST JUMPDEST PUSH1 0x20 DUP3 MUL SWAP1 POP PUSH1 0x20 DUP2 ADD SWAP1 POP SWAP2 SWAP1 POP JUMP JUMPDEST PUSH0 PUSH2 0x430F PUSH2 0x430A DUP5 PUSH2 0x42D2 JUMP JUMPDEST PUSH2 0x3BCA JUMP JUMPDEST SWAP1 POP DUP1 DUP4 DUP3 MSTORE PUSH1 0x20 DUP3 ADD SWAP1 POP PUSH1 0x20 DUP5 MUL DUP4 ADD DUP6 DUP2 GT ISZERO PUSH2 0x4332 JUMPI PUSH2 0x4331 PUSH2 0x3C0F JUMP JUMPDEST JUMPDEST DUP4 JUMPDEST DUP2 DUP2 LT ISZERO PUSH2 0x435B JUMPI DUP1 PUSH2 0x4347 DUP9 DUP3 PUSH2 0x394A JUMP JUMPDEST DUP5 MSTORE PUSH1 0x20 DUP5 ADD SWAP4 POP POP PUSH1 0x20 DUP2 ADD SWAP1 POP PUSH2 0x4334 JUMP JUMPDEST POP POP POP SWAP4 SWAP3 POP POP POP JUMP JUMPDEST PUSH0 DUP3 PUSH1 0x1F DUP4 ADD SLT PUSH2 0x4379 JUMPI PUSH2 0x4378 PUSH2 0x3B68 JUMP JUMPDEST JUMPDEST DUP2 CALLDATALOAD PUSH2 0x4389 DUP5 DUP3 PUSH1 0x20 DUP7 ADD PUSH2 0x42FD JUMP JUMPDEST SWAP2 POP POP SWAP3 SWAP2 POP POP JUMP JUMPDEST PUSH0 PUSH8 0xFFFFFFFFFFFFFFFF DUP3 GT ISZERO PUSH2 0x43AC JUMPI PUSH2 0x43AB PUSH2 0x3B6C JUMP JUMPDEST JUMPDEST PUSH1 0x20 DUP3 MUL SWAP1 POP PUSH1 0x20 DUP2 ADD SWAP1 POP SWAP2 SWAP1 POP JUMP JUMPDEST PUSH0 PUSH2 0x43CF PUSH2 0x43CA DUP5 PUSH2 0x4392 JUMP JUMPDEST PUSH2 0x3BCA JUMP JUMPDEST SWAP1 POP DUP1 DUP4 DUP3 MSTORE PUSH1 0x20 DUP3 ADD SWAP1 POP PUSH1 0x20 DUP5 MUL DUP4 ADD DUP6 DUP2 GT ISZERO PUSH2 0x43F2 JUMPI PUSH2 0x43F1 PUSH2 0x3C0F JUMP JUMPDEST JUMPDEST DUP4 JUMPDEST DUP2 DUP2 LT ISZERO PUSH2 0x441B JUMPI DUP1 PUSH2 0x4407 DUP9 DUP3 PUSH2 0x40E5 JUMP JUMPDEST DUP5 MSTORE PUSH1 0x20 DUP5 ADD SWAP4 POP POP PUSH1 0x20 DUP2 ADD SWAP1 POP PUSH2 0x43F4 JUMP JUMPDEST POP POP POP SWAP4 SWAP3 POP POP POP JUMP JUMPDEST PUSH0 DUP3 PUSH1 0x1F DUP4 ADD SLT PUSH2 0x4439 JUMPI PUSH2 0x4438 PUSH2 0x3B68 JUMP JUMPDEST JUMPDEST DUP2 CALLDATALOAD PUSH2 0x4449 DUP5 DUP3 PUSH1 0x20 DUP7 ADD PUSH2 0x43BD JUMP JUMPDEST SWAP2 POP POP SWAP3 SWAP2 POP POP JUMP JUMPDEST PUSH0 PUSH8 0xFFFFFFFFFFFFFFFF DUP3 GT ISZERO PUSH2 0x446C JUMPI PUSH2 0x446B PUSH2 0x3B6C JUMP JUMPDEST JUMPDEST PUSH1 0x20 DUP3 MUL SWAP1 POP PUSH1 0x20 DUP2 ADD SWAP1 POP SWAP2 SWAP1 POP JUMP JUMPDEST PUSH0 PUSH2 0x448F PUSH2 0x448A DUP5 PUSH2 0x4452 JUMP JUMPDEST PUSH2 0x3BCA JUMP JUMPDEST SWAP1 POP DUP1 DUP4 DUP3 MSTORE PUSH1 0x20 DUP3 ADD SWAP1 POP PUSH1 0x20 DUP5 MUL DUP4 ADD DUP6 DUP2 GT ISZERO PUSH2 0x44B2 JUMPI PUSH2 0x44B1 PUSH2 0x3C0F JUMP JUMPDEST JUMPDEST DUP4 JUMPDEST DUP2 DUP2 LT ISZERO PUSH2 0x44F9 JUMPI DUP1 CALLDATALOAD PUSH8 0xFFFFFFFFFFFFFFFF DUP2 GT ISZERO PUSH2 0x44D7 JUMPI PUSH2 0x44D6 PUSH2 0x3B68 JUMP JUMPDEST JUMPDEST DUP1 DUP7 ADD PUSH2 0x44E4 DUP10 DUP3 PUSH2 0x416E JUMP JUMPDEST DUP6 MSTORE PUSH1 0x20 DUP6 ADD SWAP5 POP POP POP PUSH1 0x20 DUP2 ADD SWAP1 POP PUSH2 0x44B4 JUMP JUMPDEST POP POP POP SWAP4 SWAP3 POP POP POP JUMP JUMPDEST PUSH0 DUP3 PUSH1 0x1F DUP4 ADD SLT PUSH2 0x4517 JUMPI PUSH2 0x4516 PUSH2 0x3B68 JUMP JUMPDEST JUMPDEST DUP2 CALLDATALOAD PUSH2 0x4527 DUP5 DUP3 PUSH1 0x20 DUP7 ADD PUSH2 0x447D JUMP JUMPDEST SWAP2 POP POP SWAP3 SWAP2 POP POP JUMP JUMPDEST PUSH0 DUP1 PUSH0 DUP1 PUSH0 PUSH1 0xA0 DUP7 DUP9 SUB SLT ISZERO PUSH2 0x4549 JUMPI PUSH2 0x4548 PUSH2 0x38FC JUMP JUMPDEST JUMPDEST PUSH0 DUP7 ADD CALLDATALOAD PUSH8 0xFFFFFFFFFFFFFFFF DUP2 GT ISZERO PUSH2 0x4566 JUMPI PUSH2 0x4565 PUSH2 0x3900 JUMP JUMPDEST JUMPDEST PUSH2 0x4572 DUP9 DUP3 DUP10 ADD PUSH2 0x4365 JUMP JUMPDEST SWAP6 POP POP PUSH1 0x20 DUP7 ADD CALLDATALOAD PUSH8 0xFFFFFFFFFFFFFFFF DUP2 GT ISZERO PUSH2 0x4593 JUMPI PUSH2 0x4592 PUSH2 0x3900 JUMP JUMPDEST JUMPDEST PUSH2 0x459F DUP9 DUP3 DUP10 ADD PUSH2 0x4365 JUMP JUMPDEST SWAP5 POP POP PUSH1 0x40 DUP7 ADD CALLDATALOAD PUSH8 0xFFFFFFFFFFFFFFFF DUP2 GT ISZERO PUSH2 0x45C0 JUMPI PUSH2 0x45BF PUSH2 0x3900 JUMP JUMPDEST JUMPDEST PUSH2 0x45CC DUP9 DUP3 DUP10 ADD PUSH2 0x3C7B JUMP JUMPDEST SWAP4 POP POP PUSH1 0x60 DUP7 ADD CALLDATALOAD PUSH8 0xFFFFFFFFFFFFFFFF DUP2 GT ISZERO PUSH2 0x45ED JUMPI PUSH2 0x45EC PUSH2 0x3900 JUMP JUMPDEST JUMPDEST PUSH2 0x45F9 DUP9 DUP3 DUP10 ADD PUSH2 0x4425 JUMP JUMPDEST SWAP3 POP POP PUSH1 0x80 DUP7 ADD CALLDATALOAD PUSH8 0xFFFFFFFFFFFFFFFF DUP2 GT ISZERO PUSH2 0x461A JUMPI PUSH2 0x4619 PUSH2 0x3900 JUMP JUMPDEST JUMPDEST PUSH2 0x4626 DUP9 DUP3 DUP10 ADD PUSH2 0x4503 JUMP JUMPDEST SWAP2 POP POP SWAP3 SWAP6 POP SWAP3 SWAP6 SWAP1 SWAP4 POP JUMP JUMPDEST PUSH0 DUP1 PUSH1 0x40 DUP4 DUP6 SUB SLT ISZERO PUSH2 0x4649 JUMPI PUSH2 0x4648 PUSH2 0x38FC JUMP JUMPDEST JUMPDEST PUSH0 PUSH2 0x4656 DUP6 DUP3 DUP7 ADD PUSH2 0x3B16 JUMP JUMPDEST SWAP3 POP POP PUSH1 0x20 DUP4 ADD CALLDATALOAD PUSH8 0xFFFFFFFFFFFFFFFF DUP2 GT ISZERO PUSH2 0x4677 JUMPI PUSH2 0x4676 PUSH2 0x3900 JUMP JUMPDEST JUMPDEST PUSH2 0x4683 DUP6 DUP3 DUP7 ADD PUSH2 0x416E JUMP JUMPDEST SWAP2 POP POP SWAP3 POP SWAP3 SWAP1 POP JUMP JUMPDEST PUSH0 DUP1 PUSH0 PUSH1 0x60 DUP5 DUP7 SUB SLT ISZERO PUSH2 0x46A4 JUMPI PUSH2 0x46A3 PUSH2 0x38FC JUMP JUMPDEST JUMPDEST PUSH0 PUSH2 0x46B1 DUP7 DUP3 DUP8 ADD PUSH2 0x394A JUMP JUMPDEST SWAP4 POP POP PUSH1 0x20 PUSH2 0x46C2 DUP7 DUP3 DUP8 ADD PUSH2 0x3B16 JUMP JUMPDEST SWAP3 POP POP PUSH1 0x40 DUP5 ADD CALLDATALOAD PUSH8 0xFFFFFFFFFFFFFFFF DUP2 GT ISZERO PUSH2 0x46E3 JUMPI PUSH2 0x46E2 PUSH2 0x3900 JUMP JUMPDEST JUMPDEST PUSH2 0x46EF DUP7 DUP3 DUP8 ADD PUSH2 0x416E JUMP JUMPDEST SWAP2 POP POP SWAP3 POP SWAP3 POP SWAP3 JUMP JUMPDEST PUSH0 DUP2 SWAP1 POP SWAP2 SWAP1 POP JUMP JUMPDEST PUSH0 PUSH2 0x471C PUSH2 0x4717 PUSH2 0x4712 DUP5 PUSH2 0x3904 JUMP JUMPDEST PUSH2 0x46F9 JUMP JUMPDEST PUSH2 0x3904 JUMP JUMPDEST SWAP1 POP SWAP2 SWAP1 POP JUMP JUMPDEST PUSH0 PUSH2 0x472D DUP3 PUSH2 0x4702 JUMP JUMPDEST SWAP1 POP SWAP2 SWAP1 POP JUMP JUMPDEST PUSH0 PUSH2 0x473E DUP3 PUSH2 0x4723 JUMP JUMPDEST SWAP1 POP SWAP2 SWAP1 POP JUMP JUMPDEST PUSH2 0x474E DUP2 PUSH2 0x4734 JUMP JUMPDEST DUP3 MSTORE POP POP JUMP JUMPDEST PUSH0 PUSH1 0x20 DUP3 ADD SWAP1 POP PUSH2 0x4767 PUSH0 DUP4 ADD DUP5 PUSH2 0x4745 JUMP JUMPDEST SWAP3 SWAP2 POP POP JUMP JUMPDEST PUSH0 DUP1 PUSH1 0x40 DUP4 DUP6 SUB SLT ISZERO PUSH2 0x4783 JUMPI PUSH2 0x4782 PUSH2 0x38FC JUMP JUMPDEST JUMPDEST PUSH0 PUSH2 0x4790 DUP6 DUP3 DUP7 ADD PUSH2 0x394A JUMP JUMPDEST SWAP3 POP POP PUSH1 0x20 DUP4 ADD CALLDATALOAD PUSH8 0xFFFFFFFFFFFFFFFF DUP2 GT ISZERO PUSH2 0x47B1 JUMPI PUSH2 0x47B0 PUSH2 0x3900 JUMP JUMPDEST JUMPDEST PUSH2 0x47BD DUP6 DUP3 DUP7 ADD PUSH2 0x416E JUMP JUMPDEST SWAP2 POP POP SWAP3 POP SWAP3 SWAP1 POP JUMP JUMPDEST PUSH0 DUP1 PUSH1 0x40 DUP4 DUP6 SUB SLT ISZERO PUSH2 0x47DD JUMPI PUSH2 0x47DC PUSH2 0x38FC JUMP JUMPDEST JUMPDEST PUSH0 DUP4 ADD CALLDATALOAD PUSH8 0xFFFFFFFFFFFFFFFF DUP2 GT ISZERO PUSH2 0x47FA JUMPI PUSH2 0x47F9 PUSH2 0x3900 JUMP JUMPDEST JUMPDEST PUSH2 0x4806 DUP6 DUP3 DUP7 ADD PUSH2 0x3C7B JUMP JUMPDEST SWAP3 POP POP PUSH1 0x20 DUP4 ADD CALLDATALOAD PUSH8 0xFFFFFFFFFFFFFFFF DUP2 GT ISZERO PUSH2 0x4827 JUMPI PUSH2 0x4826 PUSH2 0x3900 JUMP JUMPDEST JUMPDEST PUSH2 0x4833 DUP6 DUP3 DUP7 ADD PUSH2 0x4503 JUMP JUMPDEST SWAP2 POP POP SWAP3 POP SWAP3 SWAP1 POP JUMP JUMPDEST PUSH0 DUP2 MLOAD SWAP1 POP SWAP2 SWAP1 POP JUMP JUMPDEST PUSH0 DUP3 DUP3 MSTORE PUSH1 0x20 DUP3 ADD SWAP1 POP SWAP3 SWAP2 POP POP JUMP JUMPDEST PUSH0 DUP2 SWAP1 POP PUSH1 0x20 DUP3 ADD SWAP1 POP SWAP2 SWAP1 POP JUMP JUMPDEST PUSH0 PUSH2 0x4871 DUP4 DUP4 PUSH2 0x3EFB JUMP JUMPDEST PUSH1 0x20 DUP4 ADD SWAP1 POP SWAP3 SWAP2 POP POP JUMP JUMPDEST PUSH0 PUSH1 0x20 DUP3 ADD SWAP1 POP SWAP2 SWAP1 POP JUMP JUMPDEST PUSH0 PUSH2 0x4893 DUP3 PUSH2 0x483D JUMP JUMPDEST PUSH2 0x489D DUP2 DUP6 PUSH2 0x4847 JUMP JUMPDEST SWAP4 POP PUSH2 0x48A8 DUP4 PUSH2 0x4857 JUMP JUMPDEST DUP1 PUSH0 JUMPDEST DUP4 DUP2 LT ISZERO PUSH2 0x48D8 JUMPI DUP2 MLOAD PUSH2 0x48BF DUP9 DUP3 PUSH2 0x4866 JUMP JUMPDEST SWAP8 POP PUSH2 0x48CA DUP4 PUSH2 0x487D JUMP JUMPDEST SWAP3 POP POP PUSH1 0x1 DUP2 ADD SWAP1 POP PUSH2 0x48AB JUMP JUMPDEST POP DUP6 SWAP4 POP POP POP POP SWAP3 SWAP2 POP POP JUMP JUMPDEST PUSH0 PUSH1 0x20 DUP3 ADD SWAP1 POP DUP2 DUP2 SUB PUSH0 DUP4 ADD MSTORE PUSH2 0x48FD DUP2 DUP5 PUSH2 0x4889 JUMP JUMPDEST SWAP1 POP SWAP3 SWAP2 POP POP JUMP JUMPDEST PUSH0 DUP1 PUSH0 DUP1 PUSH1 0x80 DUP6 DUP8 SUB SLT ISZERO PUSH2 0x491D JUMPI PUSH2 0x491C PUSH2 0x38FC JUMP JUMPDEST JUMPDEST PUSH0 PUSH2 0x492A DUP8 DUP3 DUP9 ADD PUSH2 0x394A JUMP JUMPDEST SWAP5 POP POP PUSH1 0x20 PUSH2 0x493B DUP8 DUP3 DUP9 ADD PUSH2 0x3B16 JUMP JUMPDEST SWAP4 POP POP PUSH1 0x40 PUSH2 0x494C DUP8 DUP3 DUP9 ADD PUSH2 0x40E5 JUMP JUMPDEST SWAP3 POP POP PUSH1 0x60 DUP6 ADD CALLDATALOAD PUSH8 0xFFFFFFFFFFFFFFFF DUP2 GT ISZERO PUSH2 0x496D JUMPI PUSH2 0x496C PUSH2 0x3900 JUMP JUMPDEST JUMPDEST PUSH2 0x4979 DUP8 DUP3 DUP9 ADD PUSH2 0x416E JUMP JUMPDEST SWAP2 POP POP SWAP3 SWAP6 SWAP2 SWAP5 POP SWAP3 POP JUMP JUMPDEST PUSH0 DUP1 PUSH0 PUSH1 0x60 DUP5 DUP7 SUB SLT ISZERO PUSH2 0x499C JUMPI PUSH2 0x499B PUSH2 0x38FC JUMP JUMPDEST JUMPDEST PUSH0 DUP5 ADD CALLDATALOAD PUSH8 0xFFFFFFFFFFFFFFFF DUP2 GT ISZERO PUSH2 0x49B9 JUMPI PUSH2 0x49B8 PUSH2 0x3900 JUMP JUMPDEST JUMPDEST PUSH2 0x49C5 DUP7 DUP3 DUP8 ADD PUSH2 0x3C7B JUMP JUMPDEST SWAP4 POP POP PUSH1 0x20 DUP5 ADD CALLDATALOAD PUSH8 0xFFFFFFFFFFFFFFFF DUP2 GT ISZERO PUSH2 0x49E6 JUMPI PUSH2 0x49E5 PUSH2 0x3900 JUMP JUMPDEST JUMPDEST PUSH2 0x49F2 DUP7 DUP3 DUP8 ADD PUSH2 0x3C7B JUMP JUMPDEST SWAP3 POP POP PUSH1 0x40 DUP5 ADD CALLDATALOAD PUSH8 0xFFFFFFFFFFFFFFFF DUP2 GT ISZERO PUSH2 0x4A13 JUMPI PUSH2 0x4A12 PUSH2 0x3900 JUMP JUMPDEST JUMPDEST PUSH2 0x4A1F DUP7 DUP3 DUP8 ADD PUSH2 0x4503 JUMP JUMPDEST SWAP2 POP POP SWAP3 POP SWAP3 POP SWAP3 JUMP JUMPDEST PUSH0 DUP1 PUSH0 PUSH1 0x60 DUP5 DUP7 SUB SLT ISZERO PUSH2 0x4A40 JUMPI PUSH2 0x4A3F PUSH2 0x38FC JUMP JUMPDEST JUMPDEST PUSH0 PUSH2 0x4A4D DUP7 DUP3 DUP8 ADD PUSH2 0x3B16 JUMP JUMPDEST SWAP4 POP POP PUSH1 0x20 PUSH2 0x4A5E DUP7 DUP3 DUP8 ADD PUSH2 0x3B16 JUMP JUMPDEST SWAP3 POP POP PUSH1 0x40 DUP5 ADD CALLDATALOAD PUSH8 0xFFFFFFFFFFFFFFFF DUP2 GT ISZERO PUSH2 0x4A7F JUMPI PUSH2 0x4A7E PUSH2 0x3900 JUMP JUMPDEST JUMPDEST PUSH2 0x4A8B DUP7 DUP3 DUP8 ADD PUSH2 0x416E JUMP JUMPDEST SWAP2 POP POP SWAP3 POP SWAP3 POP SWAP3 JUMP JUMPDEST PUSH0 PUSH1 0x20 DUP3 DUP5 SUB SLT ISZERO PUSH2 0x4AAA JUMPI PUSH2 0x4AA9 PUSH2 0x38FC JUMP JUMPDEST JUMPDEST PUSH0 DUP3 ADD CALLDATALOAD PUSH8 0xFFFFFFFFFFFFFFFF DUP2 GT ISZERO PUSH2 0x4AC7 JUMPI PUSH2 0x4AC6 PUSH2 0x3900 JUMP JUMPDEST JUMPDEST PUSH2 0x4AD3 DUP5 DUP3 DUP6 ADD PUSH2 0x3C7B JUMP JUMPDEST SWAP2 POP POP SWAP3 SWAP2 POP POP JUMP JUMPDEST PUSH2 0x4AE5 DUP2 PUSH2 0x3989 JUMP JUMPDEST DUP2 EQ PUSH2 0x4AEF JUMPI PUSH0 DUP1 REVERT JUMPDEST POP JUMP JUMPDEST PUSH0 DUP2 CALLDATALOAD SWAP1 POP PUSH2 0x4B00 DUP2 PUSH2 0x4ADC JUMP JUMPDEST SWAP3 SWAP2 POP POP JUMP JUMPDEST PUSH0 DUP1 PUSH1 0x40 DUP4 DUP6 SUB SLT ISZERO PUSH2 0x4B1C JUMPI PUSH2 0x4B1B PUSH2 0x38FC JUMP JUMPDEST JUMPDEST PUSH0 PUSH2 0x4B29 DUP6 DUP3 DUP7 ADD PUSH2 0x394A JUMP JUMPDEST SWAP3 POP POP PUSH1 0x20 PUSH2 0x4B3A DUP6 DUP3 DUP7 ADD PUSH2 0x4AF2 JUMP JUMPDEST SWAP2 POP POP SWAP3 POP SWAP3 SWAP1 POP JUMP JUMPDEST PUSH2 0x4B4D DUP2 PUSH2 0x3AF7 JUMP JUMPDEST DUP3 MSTORE POP POP JUMP JUMPDEST PUSH0 PUSH1 0x60 DUP3 ADD SWAP1 POP PUSH2 0x4B66 PUSH0 DUP4 ADD DUP7 PUSH2 0x4B44 JUMP JUMPDEST PUSH2 0x4B73 PUSH1 0x20 DUP4 ADD DUP6 PUSH2 0x3E6C JUMP JUMPDEST PUSH2 0x4B80 PUSH1 0x40 DUP4 ADD DUP5 PUSH2 0x3992 JUMP JUMPDEST SWAP5 SWAP4 POP POP POP POP JUMP JUMPDEST PUSH0 PUSH8 0xFFFFFFFFFFFFFFFF DUP3 GT ISZERO PUSH2 0x4BA2 JUMPI PUSH2 0x4BA1 PUSH2 0x3B6C JUMP JUMPDEST JUMPDEST PUSH2 0x4BAB DUP3 PUSH2 0x3895 JUMP JUMPDEST SWAP1 POP PUSH1 0x20 DUP2 ADD SWAP1 POP SWAP2 SWAP1 POP JUMP JUMPDEST PUSH0 PUSH2 0x4BCA PUSH2 0x4BC5 DUP5 PUSH2 0x4B88 JUMP JUMPDEST PUSH2 0x3BCA JUMP JUMPDEST SWAP1 POP DUP3 DUP2 MSTORE PUSH1 0x20 DUP2 ADD DUP5 DUP5 DUP5 ADD GT ISZERO PUSH2 0x4BE6 JUMPI PUSH2 0x4BE5 PUSH2 0x40F9 JUMP JUMPDEST JUMPDEST PUSH2 0x4BF1 DUP5 DUP3 DUP6 PUSH2 0x3887 JUMP JUMPDEST POP SWAP4 SWAP3 POP POP POP JUMP JUMPDEST PUSH0 DUP3 PUSH1 0x1F DUP4 ADD SLT PUSH2 0x4C0D JUMPI PUSH2 0x4C0C PUSH2 0x3B68 JUMP JUMPDEST JUMPDEST DUP2 CALLDATALOAD PUSH2 0x4C1D DUP5 DUP3 PUSH1 0x20 DUP7 ADD PUSH2 0x4BB8 JUMP JUMPDEST SWAP2 POP POP SWAP3 SWAP2 POP POP JUMP JUMPDEST PUSH0 DUP1 PUSH0 DUP1 PUSH0 PUSH1 0xA0 DUP7 DUP9 SUB SLT ISZERO PUSH2 0x4C3F JUMPI PUSH2 0x4C3E PUSH2 0x38FC JUMP JUMPDEST JUMPDEST PUSH0 PUSH2 0x4C4C DUP9 DUP3 DUP10 ADD PUSH2 0x394A JUMP JUMPDEST SWAP6 POP POP PUSH1 0x20 PUSH2 0x4C5D DUP9 DUP3 DUP10 ADD PUSH2 0x3B16 JUMP JUMPDEST SWAP5 POP POP PUSH1 0x40 DUP7 ADD CALLDATALOAD PUSH8 0xFFFFFFFFFFFFFFFF DUP2 GT ISZERO PUSH2 0x4C7E JUMPI PUSH2 0x4C7D PUSH2 0x3900 JUMP JUMPDEST JUMPDEST PUSH2 0x4C8A DUP9 DUP3 DUP10 ADD PUSH2 0x416E JUMP JUMPDEST SWAP4 POP POP PUSH1 0x60 DUP7 ADD CALLDATALOAD PUSH8 0xFFFFFFFFFFFFFFFF DUP2 GT ISZERO PUSH2 0x4CAB JUMPI PUSH2 0x4CAA PUSH2 0x3900 JUMP JUMPDEST JUMPDEST PUSH2 0x4CB7 DUP9 DUP3 DUP10 ADD PUSH2 0x416E JUMP JUMPDEST SWAP3 POP POP PUSH1 0x80 DUP7 ADD CALLDATALOAD PUSH8 0xFFFFFFFFFFFFFFFF DUP2 GT ISZERO PUSH2 0x4CD8 JUMPI PUSH2 0x4CD7 PUSH2 0x3900 JUMP JUMPDEST JUMPDEST PUSH2 0x4CE4 DUP9 DUP3 DUP10 ADD PUSH2 0x4BF9 JUMP JUMPDEST SWAP2 POP POP SWAP3 SWAP6 POP SWAP3 SWAP6 SWAP1 SWAP4 POP JUMP JUMPDEST PUSH0 PUSH1 0x20 DUP3 ADD SWAP1 POP PUSH2 0x4D04 PUSH0 DUP4 ADD DUP5 PUSH2 0x4B44 JUMP JUMPDEST SWAP3 SWAP2 POP POP JUMP JUMPDEST PUSH2 0x4D13 DUP2 PUSH2 0x39BA JUMP JUMPDEST DUP3 MSTORE POP POP JUMP JUMPDEST PUSH0 PUSH1 0x20 DUP3 ADD SWAP1 POP PUSH2 0x4D2C PUSH0 DUP4 ADD DUP5 PUSH2 0x4D0A JUMP JUMPDEST SWAP3 SWAP2 POP POP JUMP JUMPDEST PUSH0 DUP2 SWAP1 POP SWAP3 SWAP2 POP POP JUMP JUMPDEST PUSH0 PUSH2 0x4D47 DUP4 DUP6 PUSH2 0x4D32 JUMP JUMPDEST SWAP4 POP PUSH2 0x4D54 DUP4 DUP6 DUP5 PUSH2 0x3887 JUMP JUMPDEST DUP3 DUP5 ADD SWAP1 POP SWAP4 SWAP3 POP POP POP JUMP JUMPDEST PUSH0 DUP2 PUSH1 0x60 SHL SWAP1 POP SWAP2 SWAP1 POP JUMP JUMPDEST PUSH0 PUSH2 0x4D76 DUP3 PUSH2 0x4D60 JUMP JUMPDEST SWAP1 POP SWAP2 SWAP1 POP JUMP JUMPDEST PUSH0 PUSH2 0x4D87 DUP3 PUSH2 0x4D6C JUMP JUMPDEST SWAP1 POP SWAP2 SWAP1 POP JUMP JUMPDEST PUSH2 0x4D9F PUSH2 0x4D9A DUP3 PUSH2 0x3923 JUMP JUMPDEST PUSH2 0x4D7D JUMP JUMPDEST DUP3 MSTORE POP POP JUMP JUMPDEST PUSH0 DUP2 SWAP1 POP SWAP2 SWAP1 POP JUMP JUMPDEST PUSH2 0x4DBF PUSH2 0x4DBA DUP3 PUSH2 0x3989 JUMP JUMPDEST PUSH2 0x4DA5 JUMP JUMPDEST DUP3 MSTORE POP POP JUMP JUMPDEST PUSH0 PUSH2 0x4DD1 DUP3 DUP7 DUP9 PUSH2 0x4D3C JUMP JUMPDEST SWAP2 POP PUSH2 0x4DDD DUP3 DUP6 PUSH2 0x4D8E JUMP JUMPDEST PUSH1 0x14 DUP3 ADD SWAP2 POP PUSH2 0x4DED DUP3 DUP5 PUSH2 0x4DAE JUMP JUMPDEST PUSH1 0x20 DUP3 ADD SWAP2 POP DUP2 SWAP1 POP SWAP6 SWAP5 POP POP POP POP POP JUMP JUMPDEST PUSH0 PUSH2 0x4E09 DUP3 PUSH2 0x3A6D JUMP JUMPDEST PUSH2 0x4E13 DUP2 DUP6 PUSH2 0x4D32 JUMP JUMPDEST SWAP4 POP PUSH2 0x4E23 DUP2 DUP6 PUSH1 0x20 DUP7 ADD PUSH2 0x3A77 JUMP JUMPDEST DUP1 DUP5 ADD SWAP2 POP POP SWAP3 SWAP2 POP POP JUMP JUMPDEST PUSH0 PUSH2 0x4E3A DUP3 DUP5 PUSH2 0x4DFF JUMP JUMPDEST SWAP2 POP DUP2 SWAP1 POP SWAP3 SWAP2 POP POP JUMP JUMPDEST PUSH32 0x4E487B7100000000000000000000000000000000000000000000000000000000 PUSH0 MSTORE PUSH1 0x22 PUSH1 0x4 MSTORE PUSH1 0x24 PUSH0 REVERT JUMPDEST PUSH0 PUSH1 0x2 DUP3 DIV SWAP1 POP PUSH1 0x1 DUP3 AND DUP1 PUSH2 0x4E89 JUMPI PUSH1 0x7F DUP3 AND SWAP2 POP JUMPDEST PUSH1 0x20 DUP3 LT DUP2 SUB PUSH2 0x4E9C JUMPI PUSH2 0x4E9B PUSH2 0x4E45 JUMP JUMPDEST JUMPDEST POP SWAP2 SWAP1 POP JUMP JUMPDEST PUSH32 0x4E487B7100000000000000000000000000000000000000000000000000000000 PUSH0 MSTORE PUSH1 0x32 PUSH1 0x4 MSTORE PUSH1 0x24 PUSH0 REVERT JUMPDEST PUSH0 PUSH1 0x40 DUP3 ADD SWAP1 POP PUSH2 0x4EE2 PUSH0 DUP4 ADD DUP6 PUSH2 0x4B44 JUMP JUMPDEST PUSH2 0x4EEF PUSH1 0x20 DUP4 ADD DUP5 PUSH2 0x3E6C JUMP JUMPDEST SWAP4 SWAP3 POP POP POP JUMP JUMPDEST PUSH0 DUP1 REVERT JUMPDEST PUSH0 DUP1 REVERT JUMPDEST PUSH0 DUP1 REVERT JUMPDEST PUSH0 DUP1 DUP4 CALLDATALOAD PUSH1 0x1 PUSH1 0x20 SUB DUP5 CALLDATASIZE SUB SUB DUP2 SLT PUSH2 0x4F1E JUMPI PUSH2 0x4F1D PUSH2 0x4EF6 JUMP JUMPDEST JUMPDEST DUP1 DUP5 ADD SWAP3 POP DUP3 CALLDATALOAD SWAP2 POP PUSH8 0xFFFFFFFFFFFFFFFF DUP3 GT ISZERO PUSH2 0x4F40 JUMPI PUSH2 0x4F3F PUSH2 0x4EFA JUMP JUMPDEST JUMPDEST PUSH1 0x20 DUP4 ADD SWAP3 POP PUSH1 0x1 DUP3 MUL CALLDATASIZE SUB DUP4 SGT ISZERO PUSH2 0x4F5C JUMPI PUSH2 0x4F5B PUSH2 0x4EFE JUMP JUMPDEST JUMPDEST POP SWAP3 POP SWAP3 SWAP1 POP JUMP JUMPDEST PUSH0 PUSH2 0x4F70 DUP3 DUP5 DUP7 PUSH2 0x4D3C JUMP JUMPDEST SWAP2 POP DUP2 SWAP1 POP SWAP4 SWAP3 POP POP POP JUMP JUMPDEST PUSH0 PUSH1 0x60 DUP3 ADD SWAP1 POP PUSH2 0x4F8F PUSH0 DUP4 ADD DUP7 PUSH2 0x3E6C JUMP JUMPDEST PUSH2 0x4F9C PUSH1 0x20 DUP4 ADD DUP6 PUSH2 0x4B44 JUMP JUMPDEST PUSH2 0x4FA9 PUSH1 0x40 DUP4 ADD DUP5 PUSH2 0x3E6C JUMP JUMPDEST SWAP5 SWAP4 POP POP POP POP JUMP JUMPDEST PUSH0 PUSH1 0x40 DUP3 ADD SWAP1 POP PUSH2 0x4FC4 PUSH0 DUP4 ADD DUP6 PUSH2 0x3E6C JUMP JUMPDEST PUSH2 0x4FD1 PUSH1 0x20 DUP4 ADD DUP5 PUSH2 0x4B44 JUMP JUMPDEST SWAP4 SWAP3 POP POP POP JUMP JUMPDEST PUSH0 PUSH1 0x80 DUP3 ADD SWAP1 POP PUSH2 0x4FEB PUSH0 DUP4 ADD DUP8 PUSH2 0x3E6C JUMP JUMPDEST PUSH2 0x4FF8 PUSH1 0x20 DUP4 ADD DUP7 PUSH2 0x4B44 JUMP JUMPDEST PUSH2 0x5005 PUSH1 0x40 DUP4 ADD DUP6 PUSH2 0x3A45 JUMP JUMPDEST DUP2 DUP2 SUB PUSH1 0x60 DUP4 ADD MSTORE PUSH2 0x5017 DUP2 DUP5 PUSH2 0x3A9F JUMP JUMPDEST SWAP1 POP SWAP6 SWAP5 POP POP POP POP POP JUMP JUMPDEST PUSH0 DUP2 SWAP1 POP DUP2 PUSH0 MSTORE PUSH1 0x20 PUSH0 KECCAK256 SWAP1 POP SWAP2 SWAP1 POP JUMP JUMPDEST PUSH0 PUSH1 0x20 PUSH1 0x1F DUP4 ADD DIV SWAP1 POP SWAP2 SWAP1 POP JUMP JUMPDEST PUSH0 DUP3 DUP3 SHL SWAP1 POP SWAP3 SWAP2 POP POP JUMP JUMPDEST PUSH0 PUSH1 0x8 DUP4 MUL PUSH2 0x507E PUSH32 0xFFFFFFFFFFFFFFFFFFFFFFFFFFFFFFFFFFFFFFFFFFFFFFFFFFFFFFFFFFFFFFFF DUP3 PUSH2 0x5043 JUMP JUMPDEST PUSH2 0x5088 DUP7 DUP4 PUSH2 0x5043 JUMP JUMPDEST SWAP6 POP DUP1 NOT DUP5 AND SWAP4 POP DUP1 DUP7 AND DUP5 OR SWAP3 POP POP POP SWAP4 SWAP3 POP POP POP JUMP JUMPDEST PUSH0 PUSH2 0x50BA PUSH2 0x50B5 PUSH2 0x50B0 DUP5 PUSH2 0x3989 JUMP JUMPDEST PUSH2 0x46F9 JUMP JUMPDEST PUSH2 0x3989 JUMP JUMPDEST SWAP1 POP SWAP2 SWAP1 POP JUMP JUMPDEST PUSH0 DUP2 SWAP1 POP SWAP2 SWAP1 POP JUMP JUMPDEST PUSH2 0x50D3 DUP4 PUSH2 0x50A0 JUMP JUMPDEST PUSH2 0x50E7 PUSH2 0x50DF DUP3 PUSH2 0x50C1 JUMP JUMPDEST DUP5 DUP5 SLOAD PUSH2 0x504F JUMP JUMPDEST DUP3 SSTORE POP POP POP POP JUMP JUMPDEST PUSH0 SWAP1 JUMP JUMPDEST PUSH2 0x50FB PUSH2 0x50EF JUMP JUMPDEST PUSH2 0x5106 DUP2 DUP5 DUP5 PUSH2 0x50CA JUMP JUMPDEST POP POP POP JUMP JUMPDEST JUMPDEST DUP2 DUP2 LT ISZERO PUSH2 0x5129 JUMPI PUSH2 0x511E PUSH0 DUP3 PUSH2 0x50F3 JUMP JUMPDEST PUSH1 0x1 DUP2 ADD SWAP1 POP PUSH2 0x510C JUMP JUMPDEST POP POP JUMP JUMPDEST PUSH1 0x1F DUP3 GT ISZERO PUSH2 0x516E JUMPI PUSH2 0x513F DUP2 PUSH2 0x5022 JUMP JUMPDEST PUSH2 0x5148 DUP5 PUSH2 0x5034 JUMP JUMPDEST DUP2 ADD PUSH1 0x20 DUP6 LT ISZERO PUSH2 0x5157 JUMPI DUP2 SWAP1 POP JUMPDEST PUSH2 0x516B PUSH2 0x5163 DUP6 PUSH2 0x5034 JUMP JUMPDEST DUP4 ADD DUP3 PUSH2 0x510B JUMP JUMPDEST POP POP JUMPDEST POP POP POP JUMP JUMPDEST PUSH0 DUP3 DUP3 SHR SWAP1 POP SWAP3 SWAP2 POP POP JUMP JUMPDEST PUSH0 PUSH2 0x518E PUSH0 NOT DUP5 PUSH1 0x8 MUL PUSH2 0x5173 JUMP JUMPDEST NOT DUP1 DUP4 AND SWAP2 POP POP SWAP3 SWAP2 POP POP JUMP JUMPDEST PUSH0 PUSH2 0x51A6 DUP4 DUP4 PUSH2 0x517F JUMP JUMPDEST SWAP2 POP DUP3 PUSH1 0x2 MUL DUP3 OR SWAP1 POP SWAP3 SWAP2 POP POP JUMP JUMPDEST PUSH2 0x51BF DUP3 PUSH2 0x3A6D JUMP JUMPDEST PUSH8 0xFFFFFFFFFFFFFFFF DUP2 GT ISZERO PUSH2 0x51D8 JUMPI PUSH2 0x51D7 PUSH2 0x3B6C JUMP JUMPDEST JUMPDEST PUSH2 0x51E2 DUP3 SLOAD PUSH2 0x4E72 JUMP JUMPDEST PUSH2 0x51ED DUP3 DUP3 DUP6 PUSH2 0x512D JUMP JUMPDEST PUSH0 PUSH1 0x20 SWAP1 POP PUSH1 0x1F DUP4 GT PUSH1 0x1 DUP2 EQ PUSH2 0x521E JUMPI PUSH0 DUP5 ISZERO PUSH2 0x520C JUMPI DUP3 DUP8 ADD MLOAD SWAP1 POP JUMPDEST PUSH2 0x5216 DUP6 DUP3 PUSH2 0x519B JUMP JUMPDEST DUP7 SSTORE POP PUSH2 0x527D JUMP JUMPDEST PUSH1 0x1F NOT DUP5 AND PUSH2 0x522C DUP7 PUSH2 0x5022 JUMP JUMPDEST PUSH0 JUMPDEST DUP3 DUP2 LT ISZERO PUSH2 0x5253 JUMPI DUP5 DUP10 ADD MLOAD DUP3 SSTORE PUSH1 0x1 DUP3 ADD SWAP2 POP PUSH1 0x20 DUP6 ADD SWAP5 POP PUSH1 0x20 DUP2 ADD SWAP1 POP PUSH2 0x522E JUMP JUMPDEST DUP7 DUP4 LT ISZERO PUSH2 0x5270 JUMPI DUP5 DUP10 ADD MLOAD PUSH2 0x526C PUSH1 0x1F DUP10 AND DUP3 PUSH2 0x517F JUMP JUMPDEST DUP4 SSTORE POP JUMPDEST PUSH1 0x1 PUSH1 0x2 DUP9 MUL ADD DUP9 SSTORE POP POP POP JUMPDEST POP POP POP POP POP POP JUMP JUMPDEST PUSH32 0x4E487B7100000000000000000000000000000000000000000000000000000000 PUSH0 MSTORE PUSH1 0x11 PUSH1 0x4 MSTORE PUSH1 0x24 PUSH0 REVERT JUMPDEST PUSH0 PUSH2 0x52BC DUP3 PUSH2 0x3989 JUMP JUMPDEST SWAP2 POP PUSH2 0x52C7 DUP4 PUSH2 0x3989 JUMP JUMPDEST SWAP3 POP DUP3 DUP3 ADD SWAP1 POP DUP1 DUP3 GT ISZERO PUSH2 0x52DF JUMPI PUSH2 0x52DE PUSH2 0x5285 JUMP JUMPDEST JUMPDEST SWAP3 SWAP2 POP POP JUMP JUMPDEST PUSH0 PUSH1 0x60 DUP3 ADD SWAP1 POP PUSH2 0x52F8 PUSH0 DUP4 ADD DUP7 PUSH2 0x3E6C JUMP JUMPDEST PUSH2 0x5305 PUSH1 0x20 DUP4 ADD DUP6 PUSH2 0x3E6C JUMP JUMPDEST PUSH2 0x5312 PUSH1 0x40 DUP4 ADD DUP5 PUSH2 0x4B44 JUMP JUMPDEST SWAP5 SWAP4 POP POP POP POP JUMP JUMPDEST PUSH0 DUP2 MLOAD SWAP1 POP SWAP2 SWAP1 POP JUMP JUMPDEST PUSH0 DUP3 DUP3 MSTORE PUSH1 0x20 DUP3 ADD SWAP1 POP SWAP3 SWAP2 POP POP JUMP JUMPDEST PUSH0 PUSH2 0x533E DUP3 PUSH2 0x531A JUMP JUMPDEST PUSH2 0x5348 DUP2 DUP6 PUSH2 0x5324 JUMP JUMPDEST SWAP4 POP PUSH2 0x5358 DUP2 DUP6 PUSH1 0x20 DUP7 ADD PUSH2 0x3A77 JUMP JUMPDEST PUSH2 0x5361 DUP2 PUSH2 0x3895 JUMP JUMPDEST DUP5 ADD SWAP2 POP POP SWAP3 SWAP2 POP POP JUMP JUMPDEST PUSH0 PUSH1 0x40 DUP3 ADD SWAP1 POP PUSH2 0x537F PUSH0 DUP4 ADD DUP6 PUSH2 0x4B44 JUMP JUMPDEST DUP2 DUP2 SUB PUSH1 0x20 DUP4 ADD MSTORE PUSH2 0x5391 DUP2 DUP5 PUSH2 0x5334 JUMP JUMPDEST SWAP1 POP SWAP4 SWAP3 POP POP POP JUMP JUMPDEST PUSH0 PUSH2 0x53A4 DUP3 PUSH2 0x3989 JUMP JUMPDEST SWAP2 POP PUSH32 0xFFFFFFFFFFFFFFFFFFFFFFFFFFFFFFFFFFFFFFFFFFFFFFFFFFFFFFFFFFFFFFFF DUP3 SUB PUSH2 0x53D6 JUMPI PUSH2 0x53D5 PUSH2 0x5285 JUMP JUMPDEST JUMPDEST PUSH1 0x1 DUP3 ADD SWAP1 POP SWAP2 SWAP1 POP JUMP JUMPDEST PUSH0 DUP2 SWAP1 POP PUSH1 0x20 DUP3 ADD SWAP1 POP SWAP2 SWAP1 POP JUMP JUMPDEST PUSH0 PUSH32 0xFFFFFFFFFFFFFFFFFFFFFFFFFFFFFFFFFFFFFFFF000000000000000000000000 DUP3 AND SWAP1 POP SWAP2 SWAP1 POP JUMP JUMPDEST PUSH0 PUSH2 0x5426 DUP3 MLOAD PUSH2 0x53F0 JUMP JUMPDEST DUP1 SWAP2 POP POP SWAP2 SWAP1 POP JUMP JUMPDEST PUSH0 PUSH2 0x5439 DUP3 PUSH2 0x3A6D JUMP JUMPDEST DUP3 PUSH2 0x5443 DUP5 PUSH2 0x53E1 JUMP JUMPDEST SWAP1 POP PUSH2 0x544E DUP2 PUSH2 0x541B JUMP JUMPDEST SWAP3 POP PUSH1 0x14 DUP3 LT ISZERO PUSH2 0x548E JUMPI PUSH2 0x5489 PUSH32 0xFFFFFFFFFFFFFFFFFFFFFFFFFFFFFFFFFFFFFFFF000000000000000000000000 DUP4 PUSH1 0x14 SUB PUSH1 0x8 MUL PUSH2 0x5043 JUMP JUMPDEST DUP4 AND SWAP3 POP JUMPDEST POP POP SWAP2 SWAP1 POP JUMP JUMPDEST PUSH0 PUSH1 0x60 DUP3 ADD SWAP1 POP PUSH2 0x54A8 PUSH0 DUP4 ADD DUP7 PUSH2 0x4B44 JUMP JUMPDEST PUSH2 0x54B5 PUSH1 0x20 DUP4 ADD DUP6 PUSH2 0x3E6C JUMP JUMPDEST PUSH2 0x54C2 PUSH1 0x40 DUP4 ADD DUP5 PUSH2 0x3E6C JUMP JUMPDEST SWAP5 SWAP4 POP POP POP POP JUMP JUMPDEST PUSH0 PUSH1 0x60 DUP3 ADD SWAP1 POP PUSH2 0x54DD PUSH0 DUP4 ADD DUP7 PUSH2 0x3E6C JUMP JUMPDEST PUSH2 0x54EA PUSH1 0x20 DUP4 ADD DUP6 PUSH2 0x3A45 JUMP JUMPDEST DUP2 DUP2 SUB PUSH1 0x40 DUP4 ADD MSTORE PUSH2 0x54FC DUP2 DUP5 PUSH2 0x3A9F JUMP JUMPDEST SWAP1 POP SWAP5 SWAP4 POP POP POP POP JUMP JUMPDEST PUSH0 PUSH1 0xA0 DUP3 ADD SWAP1 POP PUSH2 0x5519 PUSH0 DUP4 ADD DUP9 PUSH2 0x3E6C JUMP JUMPDEST PUSH2 0x5526 PUSH1 0x20 DUP4 ADD DUP8 PUSH2 0x3E6C JUMP JUMPDEST PUSH2 0x5533 PUSH1 0x40 DUP4 ADD DUP7 PUSH2 0x3E6C JUMP JUMPDEST PUSH2 0x5540 PUSH1 0x60 DUP4 ADD DUP6 PUSH2 0x4B44 JUMP JUMPDEST DUP2 DUP2 SUB PUSH1 0x80 DUP4 ADD MSTORE PUSH2 0x5552 DUP2 DUP5 PUSH2 0x3A9F JUMP JUMPDEST SWAP1 POP SWAP7 SWAP6 POP POP POP POP POP POP JUMP JUMPDEST PUSH0 PUSH1 0x40 DUP3 ADD SWAP1 POP PUSH2 0x5571 PUSH0 DUP4 ADD DUP6 PUSH2 0x3A45 JUMP JUMPDEST DUP2 DUP2 SUB PUSH1 0x20 DUP4 ADD MSTORE PUSH2 0x5583 DUP2 DUP5 PUSH2 0x3A9F JUMP JUMPDEST SWAP1 POP SWAP4 SWAP3 POP POP POP JUMP JUMPDEST PUSH0 PUSH32 0xFFFFFFFFFFFFFFFFFFFF00000000000000000000000000000000000000000000 DUP3 AND SWAP1 POP SWAP2 SWAP1 POP JUMP JUMPDEST PUSH0 DUP2 SWAP1 POP SWAP2 SWAP1 POP JUMP JUMPDEST PUSH2 0x55D1 PUSH2 0x55CC DUP3 PUSH2 0x558C JUMP JUMPDEST PUSH2 0x55B7 JUMP JUMPDEST DUP3 MSTORE POP POP JUMP JUMPDEST PUSH0 PUSH32 0xFFFF000000000000000000000000000000000000000000000000000000000000 DUP3 AND SWAP1 POP SWAP2 SWAP1 POP JUMP JUMPDEST PUSH0 DUP2 SWAP1 POP SWAP2 SWAP1 POP JUMP JUMPDEST PUSH2 0x561C PUSH2 0x5617 DUP3 PUSH2 0x55D7 JUMP JUMPDEST PUSH2 0x5602 JUMP JUMPDEST DUP3 MSTORE POP POP JUMP JUMPDEST PUSH0 DUP2 SWAP1 POP SWAP2 SWAP1 POP JUMP JUMPDEST PUSH2 0x563C PUSH2 0x5637 DUP3 PUSH2 0x53F0 JUMP JUMPDEST PUSH2 0x5622 JUMP JUMPDEST DUP3 MSTORE POP POP JUMP JUMPDEST PUSH0 PUSH2 0x564D DUP3 DUP7 PUSH2 0x55C0 JUMP JUMPDEST PUSH1 0xA DUP3 ADD SWAP2 POP PUSH2 0x565D DUP3 DUP6 PUSH2 0x560B JUMP JUMPDEST PUSH1 0x2 DUP3 ADD SWAP2 POP PUSH2 0x566D DUP3 DUP5 PUSH2 0x562B JUMP JUMPDEST PUSH1 0x14 DUP3 ADD SWAP2 POP DUP2 SWAP1 POP SWAP5 SWAP4 POP POP POP POP JUMP JUMPDEST PUSH0 PUSH2 0x5689 DUP3 MLOAD PUSH2 0x3AF7 JUMP JUMPDEST DUP1 SWAP2 POP POP SWAP2 SWAP1 POP JUMP JUMPDEST PUSH0 PUSH2 0x569C DUP3 PUSH2 0x3A6D JUMP JUMPDEST DUP3 PUSH2 0x56A6 DUP5 PUSH2 0x53E1 JUMP JUMPDEST SWAP1 POP PUSH2 0x56B1 DUP2 PUSH2 0x567E JUMP JUMPDEST SWAP3 POP PUSH1 0x20 DUP3 LT ISZERO PUSH2 0x56F1 JUMPI PUSH2 0x56EC PUSH32 0xFFFFFFFFFFFFFFFFFFFFFFFFFFFFFFFFFFFFFFFFFFFFFFFFFFFFFFFFFFFFFFFF DUP4 PUSH1 0x20 SUB PUSH1 0x8 MUL PUSH2 0x5043 JUMP JUMPDEST DUP4 AND SWAP3 POP JUMPDEST POP POP SWAP2 SWAP1 POP JUMP JUMPDEST PUSH0 PUSH1 0x40 DUP3 ADD SWAP1 POP PUSH2 0x570B PUSH0 DUP4 ADD DUP6 PUSH2 0x4B44 JUMP JUMPDEST DUP2 DUP2 SUB PUSH1 0x20 DUP4 ADD MSTORE PUSH2 0x571D DUP2 DUP5 PUSH2 0x3A9F JUMP JUMPDEST SWAP1 POP SWAP4 SWAP3 POP POP POP JUMP JUMPDEST PUSH0 PUSH2 0x5738 PUSH2 0x5733 DUP5 PUSH2 0x40FD JUMP JUMPDEST PUSH2 0x3BCA JUMP JUMPDEST SWAP1 POP DUP3 DUP2 MSTORE PUSH1 0x20 DUP2 ADD DUP5 DUP5 DUP5 ADD GT ISZERO PUSH2 0x5754 JUMPI PUSH2 0x5753 PUSH2 0x40F9 JUMP JUMPDEST JUMPDEST PUSH2 0x575F DUP5 DUP3 DUP6 PUSH2 0x3A77 JUMP JUMPDEST POP SWAP4 SWAP3 POP POP POP JUMP JUMPDEST PUSH0 DUP3 PUSH1 0x1F DUP4 ADD SLT PUSH2 0x577B JUMPI PUSH2 0x577A PUSH2 0x3B68 JUMP JUMPDEST JUMPDEST DUP2 MLOAD PUSH2 0x578B DUP5 DUP3 PUSH1 0x20 DUP7 ADD PUSH2 0x5726 JUMP JUMPDEST SWAP2 POP POP SWAP3 SWAP2 POP POP JUMP JUMPDEST PUSH0 PUSH1 0x20 DUP3 DUP5 SUB SLT ISZERO PUSH2 0x57A9 JUMPI PUSH2 0x57A8 PUSH2 0x38FC JUMP JUMPDEST JUMPDEST PUSH0 DUP3 ADD MLOAD PUSH8 0xFFFFFFFFFFFFFFFF DUP2 GT ISZERO PUSH2 0x57C6 JUMPI PUSH2 0x57C5 PUSH2 0x3900 JUMP JUMPDEST JUMPDEST PUSH2 0x57D2 DUP5 DUP3 DUP6 ADD PUSH2 0x5767 JUMP JUMPDEST SWAP2 POP POP SWAP3 SWAP2 POP POP JUMP JUMPDEST PUSH0 PUSH2 0x57E5 DUP3 PUSH2 0x3989 JUMP JUMPDEST SWAP2 POP PUSH2 0x57F0 DUP4 PUSH2 0x3989 JUMP JUMPDEST SWAP3 POP DUP3 DUP3 SUB SWAP1 POP DUP2 DUP2 GT ISZERO PUSH2 0x5808 JUMPI PUSH2 0x5807 PUSH2 0x5285 JUMP JUMPDEST JUMPDEST SWAP3 SWAP2 POP POP JUMP JUMPDEST PUSH32 0x4E487B7100000000000000000000000000000000000000000000000000000000 PUSH0 MSTORE PUSH1 0x31 PUSH1 0x4 MSTORE PUSH1 0x24 PUSH0 REVERT INVALID PUSH1 0x80 PUSH1 0x40 MSTORE CALLVALUE DUP1 ISZERO PUSH2 0xF JUMPI PUSH0 DUP1 REVERT JUMPDEST POP CALLER PUSH0 DUP1 PUSH2 0x100 EXP DUP2 SLOAD DUP2 PUSH20 0xFFFFFFFFFFFFFFFFFFFFFFFFFFFFFFFFFFFFFFFF MUL NOT AND SWAP1 DUP4 PUSH20 0xFFFFFFFFFFFFFFFFFFFFFFFFFFFFFFFFFFFFFFFF AND MUL OR SWAP1 SSTORE POP PUSH1 0xEF DUP1 PUSH2 0x5B PUSH0 CODECOPY PUSH0 RETURN INVALID PUSH1 0x80 PUSH1 0x40 MSTORE CALLVALUE DUP1 ISZERO PUSH1 0xE JUMPI PUSH0 DUP1 REVERT JUMPDEST POP PUSH1 0x4 CALLDATASIZE LT PUSH1 0x26 JUMPI PUSH0 CALLDATALOAD PUSH1 0xE0 SHR DUP1 PUSH4 0x8DA5CB5B EQ PUSH1 0x2A JUMPI JUMPDEST PUSH0 DUP1 REVERT JUMPDEST PUSH1 0x30 PUSH1 0x44 JUMP JUMPDEST PUSH1 0x40 MLOAD PUSH1 0x3B SWAP2 SWAP1 PUSH1 0xA2 JUMP JUMPDEST PUSH1 0x40 MLOAD DUP1 SWAP2 SUB SWAP1 RETURN JUMPDEST PUSH0 DUP1 SLOAD SWAP1 PUSH2 0x100 EXP SWAP1 DIV PUSH20 0xFFFFFFFFFFFFFFFFFFFFFFFFFFFFFFFFFFFFFFFF AND DUP2 JUMP JUMPDEST PUSH0 PUSH20 0xFFFFFFFFFFFFFFFFFFFFFFFFFFFFFFFFFFFFFFFF DUP3 AND SWAP1 POP SWAP2 SWAP1 POP JUMP JUMPDEST PUSH0 PUSH1 0x8E DUP3 PUSH1 0x67 JUMP JUMPDEST SWAP1 POP SWAP2 SWAP1 POP JUMP JUMPDEST PUSH1 0x9C DUP2 PUSH1 0x86 JUMP JUMPDEST DUP3 MSTORE POP POP JUMP JUMPDEST PUSH0 PUSH1 0x20 DUP3 ADD SWAP1 POP PUSH1 0xB3 PUSH0 DUP4 ADD DUP5 PUSH1 0x95 JUMP JUMPDEST SWAP3 SWAP2 POP POP JUMP INVALID LOG2 PUSH5 0x6970667358 0x22 SLT KECCAK256 NUMBER PUSH2 0xAD33 0x21 0xC8 0xAA 0x4C 0xF7 0xCE JUMPI 0xB4 NUMBER 0xE2 SHL 0xC5 0xD0 0xDA PUSH26 0xB10552361B6D9C39586267A9FB64736F6C63430008140033A264 PUSH10 0x70667358221220D70F91 MSTORE8 0x21 0xE8 0x2E 0x24 0xE7 0xAE 0xE4 PUSH25 0x7B9756EF4D22E5408BE097E1B306840DBF5C2A6C64736F6C63 NUMBER STOP ADDMOD EQ STOP CALLER "
		},
		"gasEstimates": {
			"creation": {
				"codeDepositCost": "4594200",
				"executionCost": "infinite",
				"totalCost": "infinite"
			},
			"external": {
				"": "infinite",
				"authorizeOperator(address,bytes32,bytes)": "infinite",
				"balanceOf(address)": "3064",
				"batchCalls(bytes[])": "infinite",
				"canMint()": "infinite",
				"encryptedEncryptionKeys(address)": "infinite",
				"getAllMoments(address)": "infinite",
				"getData(bytes32)": "infinite",
				"getDataBatch(bytes32[])": "infinite",
				"getDataBatchForTokenIds(bytes32[],bytes32[])": "infinite",
				"getDataForTokenId(bytes32,bytes32)": "infinite",
				"getEncryptedKey(address)": "infinite",
				"getMintingDate(address)": "2942",
				"getNFTcounts(address)": "2919",
				"getOperatorsOf(bytes32)": "infinite",
				"isOperatorFor(address,bytes32)": "infinite",
				"lastClaimed(address)": "2849",
				"mint(address,bytes32,bool,bytes)": "infinite",
				"mintMoment(address,bytes32,bytes,bytes,string)": "infinite",
				"mintingDates(address)": "2868",
				"momentOwners(bytes32)": "2873",
				"moments(address,uint256)": "infinite",
				"owner()": "2582",
				"renounceOwnership()": "infinite",
				"revokeOperator(address,bytes32,bool,bytes)": "infinite",
				"setData(bytes32,bytes)": "infinite",
				"setDataBatch(bytes32[],bytes[])": "infinite",
				"setDataBatchForTokenIds(bytes32[],bytes32[],bytes[])": "infinite",
				"setDataForTokenId(bytes32,bytes32,bytes)": "infinite",
				"storeEncryptedKey(address,bytes)": "infinite",
				"supportsInterface(bytes4)": "infinite",
				"tokenIdsOf(address)": "infinite",
				"tokenOwnerOf(bytes32)": "infinite",
				"totalNFTcounts(address)": "2870",
				"totalSupply()": "2500",
				"transfer(address,address,bytes32,bool,bytes)": "infinite",
				"transferBatch(address[],address[],bytes32[],bool[],bytes[])": "infinite",
				"transferOwnership(address)": "infinite",
				"vaultAssist()": "infinite"
			}
		},
		"methodIdentifiers": {
			"authorizeOperator(address,bytes32,bytes)": "86a10ddd",
			"balanceOf(address)": "70a08231",
			"batchCalls(bytes[])": "6963d438",
			"canMint()": "beb9716d",
			"encryptedEncryptionKeys(address)": "075bf131",
			"getAllMoments(address)": "4046b9fd",
			"getData(bytes32)": "54f6127f",
			"getDataBatch(bytes32[])": "dedff9c6",
			"getDataBatchForTokenIds(bytes32[],bytes32[])": "1d26fce6",
			"getDataForTokenId(bytes32,bytes32)": "16e023b3",
			"getEncryptedKey(address)": "4b74a1f1",
			"getMintingDate(address)": "0c590f51",
			"getNFTcounts(address)": "3db3ed30",
			"getOperatorsOf(bytes32)": "49a6078d",
			"isOperatorFor(address,bytes32)": "2a3654a4",
			"lastClaimed(address)": "013eba92",
			"mint(address,bytes32,bool,bytes)": "af255b61",
			"mintMoment(address,bytes32,bytes,bytes,string)": "f6e5826e",
			"mintingDates(address)": "f08e076d",
			"momentOwners(bytes32)": "32e30aea",
			"moments(address,uint256)": "f4e4fb41",
			"owner()": "8da5cb5b",
			"renounceOwnership()": "715018a6",
			"revokeOperator(address,bytes32,bool,bytes)": "db8c9663",
			"setData(bytes32,bytes)": "7f23690c",
			"setDataBatch(bytes32[],bytes[])": "97902421",
			"setDataBatchForTokenIds(bytes32[],bytes32[],bytes[])": "be9f0e6f",
			"setDataForTokenId(bytes32,bytes32,bytes)": "d6c1407c",
			"storeEncryptedKey(address,bytes)": "92e18c4a",
			"supportsInterface(bytes4)": "01ffc9a7",
			"tokenIdsOf(address)": "a3b261f2",
			"tokenOwnerOf(bytes32)": "217b2270",
			"totalNFTcounts(address)": "3a0f787f",
			"totalSupply()": "18160ddd",
			"transfer(address,address,bytes32,bool,bytes)": "511b6952",
			"transferBatch(address[],address[],bytes32[],bool[],bytes[])": "7e87632c",
			"transferOwnership(address)": "f2fde38b",
			"vaultAssist()": "86f029d8"
		}
	},
	"abi": [
		{
			"inputs": [
				{
					"internalType": "string",
					"name": "LSP8CollectionName",
					"type": "string"
				},
				{
					"internalType": "string",
					"name": "LSP8CollectionSymbol",
					"type": "string"
				},
				{
					"internalType": "address",
					"name": "newOwner",
					"type": "address"
				},
				{
					"internalType": "address",
					"name": "vaultAssistAddress",
					"type": "address"
				}
			],
			"stateMutability": "nonpayable",
			"type": "constructor"
		},
		{
			"inputs": [],
			"name": "ERC725Y_DataKeysValuesEmptyArray",
			"type": "error"
		},
		{
			"inputs": [],
			"name": "ERC725Y_DataKeysValuesLengthMismatch",
			"type": "error"
		},
		{
			"inputs": [],
			"name": "ERC725Y_MsgValueDisallowed",
			"type": "error"
		},
		{
			"inputs": [
				{
					"internalType": "bytes",
					"name": "storedData",
					"type": "bytes"
				}
			],
			"name": "InvalidExtensionAddress",
			"type": "error"
		},
		{
			"inputs": [
				{
					"internalType": "bytes",
					"name": "data",
					"type": "bytes"
				}
			],
			"name": "InvalidFunctionSelector",
			"type": "error"
		},
		{
			"inputs": [],
			"name": "LSP4TokenNameNotEditable",
			"type": "error"
		},
		{
			"inputs": [],
			"name": "LSP4TokenSymbolNotEditable",
			"type": "error"
		},
		{
			"inputs": [],
			"name": "LSP4TokenTypeNotEditable",
			"type": "error"
		},
		{
			"inputs": [
				{
					"internalType": "uint256",
					"name": "callIndex",
					"type": "uint256"
				}
			],
			"name": "LSP8BatchCallFailed",
			"type": "error"
		},
		{
			"inputs": [],
			"name": "LSP8CannotSendToAddressZero",
			"type": "error"
		},
		{
			"inputs": [],
			"name": "LSP8CannotUseAddressZeroAsOperator",
			"type": "error"
		},
		{
			"inputs": [],
			"name": "LSP8InvalidTransferBatch",
			"type": "error"
		},
		{
			"inputs": [
				{
					"internalType": "bytes32",
					"name": "tokenId",
					"type": "bytes32"
				}
			],
			"name": "LSP8NonExistentTokenId",
			"type": "error"
		},
		{
			"inputs": [
				{
					"internalType": "address",
					"name": "operator",
					"type": "address"
				},
				{
					"internalType": "bytes32",
					"name": "tokenId",
					"type": "bytes32"
				}
			],
			"name": "LSP8NonExistingOperator",
			"type": "error"
		},
		{
			"inputs": [
				{
					"internalType": "bytes32",
					"name": "tokenId",
					"type": "bytes32"
				},
				{
					"internalType": "address",
					"name": "caller",
					"type": "address"
				}
			],
			"name": "LSP8NotTokenOperator",
			"type": "error"
		},
		{
			"inputs": [
				{
					"internalType": "address",
					"name": "tokenOwner",
					"type": "address"
				},
				{
					"internalType": "bytes32",
					"name": "tokenId",
					"type": "bytes32"
				},
				{
					"internalType": "address",
					"name": "caller",
					"type": "address"
				}
			],
			"name": "LSP8NotTokenOwner",
			"type": "error"
		},
		{
			"inputs": [
				{
					"internalType": "address",
					"name": "tokenReceiver",
					"type": "address"
				}
			],
			"name": "LSP8NotifyTokenReceiverContractMissingLSP1Interface",
			"type": "error"
		},
		{
			"inputs": [
				{
					"internalType": "address",
					"name": "tokenReceiver",
					"type": "address"
				}
			],
			"name": "LSP8NotifyTokenReceiverIsEOA",
			"type": "error"
		},
		{
			"inputs": [
				{
					"internalType": "address",
					"name": "operator",
					"type": "address"
				},
				{
					"internalType": "bytes32",
					"name": "tokenId",
					"type": "bytes32"
				}
			],
			"name": "LSP8OperatorAlreadyAuthorized",
			"type": "error"
		},
		{
			"inputs": [
				{
					"internalType": "address",
					"name": "caller",
					"type": "address"
				},
				{
					"internalType": "address",
					"name": "tokenOwner",
					"type": "address"
				},
				{
					"internalType": "bytes32",
					"name": "tokenId",
					"type": "bytes32"
				}
			],
			"name": "LSP8RevokeOperatorNotAuthorized",
			"type": "error"
		},
		{
			"inputs": [],
			"name": "LSP8TokenContractCannotHoldValue",
			"type": "error"
		},
		{
			"inputs": [
				{
					"internalType": "bytes32",
					"name": "tokenId",
					"type": "bytes32"
				}
			],
			"name": "LSP8TokenIdAlreadyMinted",
			"type": "error"
		},
		{
			"inputs": [],
			"name": "LSP8TokenIdFormatNotEditable",
			"type": "error"
		},
		{
			"inputs": [],
			"name": "LSP8TokenIdsDataEmptyArray",
			"type": "error"
		},
		{
			"inputs": [],
			"name": "LSP8TokenIdsDataLengthMismatch",
			"type": "error"
		},
		{
			"inputs": [],
			"name": "LSP8TokenOwnerCannotBeOperator",
			"type": "error"
		},
		{
			"inputs": [
				{
					"internalType": "bytes32",
					"name": "tokenId",
					"type": "bytes32"
				},
				{
					"internalType": "address",
					"name": "oldOwner",
					"type": "address"
				},
				{
					"internalType": "address",
					"name": "newOwner",
					"type": "address"
				}
			],
			"name": "LSP8TokenOwnerChanged",
			"type": "error"
		},
		{
			"inputs": [
				{
					"internalType": "bytes4",
					"name": "functionSelector",
					"type": "bytes4"
				}
			],
			"name": "NoExtensionFoundForFunctionSelector",
			"type": "error"
		},
		{
			"inputs": [
				{
					"internalType": "address",
					"name": "callerAddress",
					"type": "address"
				}
			],
			"name": "OwnableCallerNotTheOwner",
			"type": "error"
		},
		{
			"inputs": [],
			"name": "OwnableCannotSetZeroAddressAsOwner",
			"type": "error"
		},
		{
			"anonymous": false,
			"inputs": [
				{
					"indexed": true,
					"internalType": "bytes32",
					"name": "dataKey",
					"type": "bytes32"
				},
				{
					"indexed": false,
					"internalType": "bytes",
					"name": "dataValue",
					"type": "bytes"
				}
			],
			"name": "DataChanged",
			"type": "event"
		},
		{
			"anonymous": false,
			"inputs": [
				{
					"indexed": true,
					"internalType": "address",
					"name": "vault",
					"type": "address"
				},
				{
					"indexed": false,
					"internalType": "bytes32",
					"name": "tokenId",
					"type": "bytes32"
				},
				{
					"indexed": false,
					"internalType": "address",
					"name": "owner",
					"type": "address"
				},
				{
					"indexed": false,
					"internalType": "uint256",
					"name": "timestamp",
					"type": "uint256"
				}
			],
			"name": "MomentMinted",
			"type": "event"
		},
		{
			"anonymous": false,
			"inputs": [
				{
					"indexed": true,
					"internalType": "address",
					"name": "operator",
					"type": "address"
				},
				{
					"indexed": true,
					"internalType": "address",
					"name": "tokenOwner",
					"type": "address"
				},
				{
					"indexed": true,
					"internalType": "bytes32",
					"name": "tokenId",
					"type": "bytes32"
				},
				{
					"indexed": false,
					"internalType": "bytes",
					"name": "operatorNotificationData",
					"type": "bytes"
				}
			],
			"name": "OperatorAuthorizationChanged",
			"type": "event"
		},
		{
			"anonymous": false,
			"inputs": [
				{
					"indexed": true,
					"internalType": "address",
					"name": "operator",
					"type": "address"
				},
				{
					"indexed": true,
					"internalType": "address",
					"name": "tokenOwner",
					"type": "address"
				},
				{
					"indexed": true,
					"internalType": "bytes32",
					"name": "tokenId",
					"type": "bytes32"
				},
				{
					"indexed": false,
					"internalType": "bool",
					"name": "notified",
					"type": "bool"
				},
				{
					"indexed": false,
					"internalType": "bytes",
					"name": "operatorNotificationData",
					"type": "bytes"
				}
			],
			"name": "OperatorRevoked",
			"type": "event"
		},
		{
			"anonymous": false,
			"inputs": [
				{
					"indexed": true,
					"internalType": "address",
					"name": "previousOwner",
					"type": "address"
				},
				{
					"indexed": true,
					"internalType": "address",
					"name": "newOwner",
					"type": "address"
				}
			],
			"name": "OwnershipTransferred",
			"type": "event"
		},
		{
			"anonymous": false,
			"inputs": [
				{
					"indexed": true,
					"internalType": "bytes32",
					"name": "tokenId",
					"type": "bytes32"
				},
				{
					"indexed": true,
					"internalType": "bytes32",
					"name": "dataKey",
					"type": "bytes32"
				},
				{
					"indexed": false,
					"internalType": "bytes",
					"name": "dataValue",
					"type": "bytes"
				}
			],
			"name": "TokenIdDataChanged",
			"type": "event"
		},
		{
			"anonymous": false,
			"inputs": [
				{
					"indexed": false,
					"internalType": "address",
					"name": "operator",
					"type": "address"
				},
				{
					"indexed": true,
					"internalType": "address",
					"name": "from",
					"type": "address"
				},
				{
					"indexed": true,
					"internalType": "address",
					"name": "to",
					"type": "address"
				},
				{
					"indexed": true,
					"internalType": "bytes32",
					"name": "tokenId",
					"type": "bytes32"
				},
				{
					"indexed": false,
					"internalType": "bool",
					"name": "force",
					"type": "bool"
				},
				{
					"indexed": false,
					"internalType": "bytes",
					"name": "data",
					"type": "bytes"
				}
			],
			"name": "Transfer",
			"type": "event"
		},
		{
			"stateMutability": "payable",
			"type": "fallback"
		},
		{
			"inputs": [
				{
					"internalType": "address",
					"name": "operator",
					"type": "address"
				},
				{
					"internalType": "bytes32",
					"name": "tokenId",
					"type": "bytes32"
				},
				{
					"internalType": "bytes",
					"name": "operatorNotificationData",
					"type": "bytes"
				}
			],
			"name": "authorizeOperator",
			"outputs": [],
			"stateMutability": "nonpayable",
			"type": "function"
		},
		{
			"inputs": [
				{
					"internalType": "address",
					"name": "tokenOwner",
					"type": "address"
				}
			],
			"name": "balanceOf",
			"outputs": [
				{
					"internalType": "uint256",
					"name": "",
					"type": "uint256"
				}
			],
			"stateMutability": "view",
			"type": "function"
		},
		{
			"inputs": [
				{
					"internalType": "bytes[]",
					"name": "data",
					"type": "bytes[]"
				}
			],
			"name": "batchCalls",
			"outputs": [
				{
					"internalType": "bytes[]",
					"name": "results",
					"type": "bytes[]"
				}
			],
			"stateMutability": "nonpayable",
			"type": "function"
		},
		{
			"inputs": [],
			"name": "canMint",
			"outputs": [
				{
					"internalType": "bool",
					"name": "",
					"type": "bool"
				}
			],
			"stateMutability": "view",
			"type": "function"
		},
		{
			"inputs": [
				{
					"internalType": "address",
					"name": "",
					"type": "address"
				}
			],
			"name": "encryptedEncryptionKeys",
			"outputs": [
				{
					"internalType": "bytes",
					"name": "",
					"type": "bytes"
				}
			],
			"stateMutability": "view",
			"type": "function"
		},
		{
			"inputs": [
				{
					"internalType": "address",
					"name": "vaultAddress",
					"type": "address"
				}
			],
			"name": "getAllMoments",
			"outputs": [
				{
					"components": [
						{
							"internalType": "bytes32",
							"name": "tokenId",
							"type": "bytes32"
						},
						{
							"internalType": "address",
							"name": "username",
							"type": "address"
						},
						{
							"internalType": "uint256",
							"name": "creationTime",
							"type": "uint256"
						}
					],
					"internalType": "struct Vault.Moment[]",
					"name": "",
					"type": "tuple[]"
				}
			],
			"stateMutability": "view",
			"type": "function"
		},
		{
			"inputs": [
				{
					"internalType": "bytes32",
					"name": "dataKey",
					"type": "bytes32"
				}
			],
			"name": "getData",
			"outputs": [
				{
					"internalType": "bytes",
					"name": "dataValue",
					"type": "bytes"
				}
			],
			"stateMutability": "view",
			"type": "function"
		},
		{
			"inputs": [
				{
					"internalType": "bytes32[]",
					"name": "dataKeys",
					"type": "bytes32[]"
				}
			],
			"name": "getDataBatch",
			"outputs": [
				{
					"internalType": "bytes[]",
					"name": "dataValues",
					"type": "bytes[]"
				}
			],
			"stateMutability": "view",
			"type": "function"
		},
		{
			"inputs": [
				{
					"internalType": "bytes32[]",
					"name": "tokenIds",
					"type": "bytes32[]"
				},
				{
					"internalType": "bytes32[]",
					"name": "dataKeys",
					"type": "bytes32[]"
				}
			],
			"name": "getDataBatchForTokenIds",
			"outputs": [
				{
					"internalType": "bytes[]",
					"name": "dataValues",
					"type": "bytes[]"
				}
			],
			"stateMutability": "view",
			"type": "function"
		},
		{
			"inputs": [
				{
					"internalType": "bytes32",
					"name": "tokenId",
					"type": "bytes32"
				},
				{
					"internalType": "bytes32",
					"name": "dataKey",
					"type": "bytes32"
				}
			],
			"name": "getDataForTokenId",
			"outputs": [
				{
					"internalType": "bytes",
					"name": "dataValue",
					"type": "bytes"
				}
			],
			"stateMutability": "view",
			"type": "function"
		},
		{
			"inputs": [
				{
					"internalType": "address",
					"name": "momentAddress",
					"type": "address"
				}
			],
			"name": "getEncryptedKey",
			"outputs": [
				{
					"internalType": "bytes",
					"name": "",
					"type": "bytes"
				}
			],
			"stateMutability": "view",
			"type": "function"
		},
		{
			"inputs": [
				{
					"internalType": "address",
					"name": "momentAddress",
					"type": "address"
				}
			],
			"name": "getMintingDate",
			"outputs": [
				{
					"internalType": "uint256",
					"name": "",
					"type": "uint256"
				}
			],
			"stateMutability": "view",
			"type": "function"
		},
		{
			"inputs": [
				{
					"internalType": "address",
					"name": "vaultAddress_",
					"type": "address"
				}
			],
			"name": "getNFTcounts",
			"outputs": [
				{
					"internalType": "uint256",
					"name": "",
					"type": "uint256"
				}
			],
			"stateMutability": "view",
			"type": "function"
		},
		{
			"inputs": [
				{
					"internalType": "bytes32",
					"name": "tokenId",
					"type": "bytes32"
				}
			],
			"name": "getOperatorsOf",
			"outputs": [
				{
					"internalType": "address[]",
					"name": "",
					"type": "address[]"
				}
			],
			"stateMutability": "view",
			"type": "function"
		},
		{
			"inputs": [
				{
					"internalType": "address",
					"name": "operator",
					"type": "address"
				},
				{
					"internalType": "bytes32",
					"name": "tokenId",
					"type": "bytes32"
				}
			],
			"name": "isOperatorFor",
			"outputs": [
				{
					"internalType": "bool",
					"name": "",
					"type": "bool"
				}
			],
			"stateMutability": "view",
			"type": "function"
		},
		{
			"inputs": [
				{
					"internalType": "address",
					"name": "",
					"type": "address"
				}
			],
			"name": "lastClaimed",
			"outputs": [
				{
					"internalType": "uint256",
					"name": "",
					"type": "uint256"
				}
			],
			"stateMutability": "view",
			"type": "function"
		},
		{
			"inputs": [
				{
					"internalType": "address",
					"name": "to",
					"type": "address"
				},
				{
					"internalType": "bytes32",
					"name": "tokenId",
					"type": "bytes32"
				},
				{
					"internalType": "bool",
					"name": "force",
					"type": "bool"
				},
				{
					"internalType": "bytes",
					"name": "data",
					"type": "bytes"
				}
			],
			"name": "mint",
			"outputs": [],
			"stateMutability": "nonpayable",
			"type": "function"
		},
		{
			"inputs": [
				{
					"internalType": "address",
					"name": "vaultAddress",
					"type": "address"
				},
				{
					"internalType": "bytes32",
					"name": "LSP4MetadataKey",
					"type": "bytes32"
				},
				{
					"internalType": "bytes",
					"name": "lsp4MetadataURI",
					"type": "bytes"
				},
				{
					"internalType": "bytes",
					"name": "encryptedEncryptionKey",
					"type": "bytes"
				},
				{
					"internalType": "string",
					"name": "description",
					"type": "string"
				}
			],
			"name": "mintMoment",
			"outputs": [
				{
					"internalType": "bytes32",
					"name": "",
					"type": "bytes32"
				}
			],
			"stateMutability": "nonpayable",
			"type": "function"
		},
		{
			"inputs": [
				{
					"internalType": "address",
					"name": "",
					"type": "address"
				}
			],
			"name": "mintingDates",
			"outputs": [
				{
					"internalType": "uint256",
					"name": "",
					"type": "uint256"
				}
			],
			"stateMutability": "view",
			"type": "function"
		},
		{
			"inputs": [
				{
					"internalType": "bytes32",
					"name": "",
					"type": "bytes32"
				}
			],
			"name": "momentOwners",
			"outputs": [
				{
					"internalType": "address",
					"name": "",
					"type": "address"
				}
			],
			"stateMutability": "view",
			"type": "function"
		},
		{
			"inputs": [
				{
					"internalType": "address",
					"name": "",
					"type": "address"
				},
				{
					"internalType": "uint256",
					"name": "",
					"type": "uint256"
				}
			],
			"name": "moments",
			"outputs": [
				{
					"internalType": "bytes32",
					"name": "tokenId",
					"type": "bytes32"
				},
				{
					"internalType": "address",
					"name": "username",
					"type": "address"
				},
				{
					"internalType": "uint256",
					"name": "creationTime",
					"type": "uint256"
				}
			],
			"stateMutability": "view",
			"type": "function"
		},
		{
			"inputs": [],
			"name": "owner",
			"outputs": [
				{
					"internalType": "address",
					"name": "",
					"type": "address"
				}
			],
			"stateMutability": "view",
			"type": "function"
		},
		{
			"inputs": [],
			"name": "renounceOwnership",
			"outputs": [],
			"stateMutability": "nonpayable",
			"type": "function"
		},
		{
			"inputs": [
				{
					"internalType": "address",
					"name": "operator",
					"type": "address"
				},
				{
					"internalType": "bytes32",
					"name": "tokenId",
					"type": "bytes32"
				},
				{
					"internalType": "bool",
					"name": "notify",
					"type": "bool"
				},
				{
					"internalType": "bytes",
					"name": "operatorNotificationData",
					"type": "bytes"
				}
			],
			"name": "revokeOperator",
			"outputs": [],
			"stateMutability": "nonpayable",
			"type": "function"
		},
		{
			"inputs": [
				{
					"internalType": "bytes32",
					"name": "dataKey",
					"type": "bytes32"
				},
				{
					"internalType": "bytes",
					"name": "dataValue",
					"type": "bytes"
				}
			],
			"name": "setData",
			"outputs": [],
			"stateMutability": "payable",
			"type": "function"
		},
		{
			"inputs": [
				{
					"internalType": "bytes32[]",
					"name": "dataKeys",
					"type": "bytes32[]"
				},
				{
					"internalType": "bytes[]",
					"name": "dataValues",
					"type": "bytes[]"
				}
			],
			"name": "setDataBatch",
			"outputs": [],
			"stateMutability": "payable",
			"type": "function"
		},
		{
			"inputs": [
				{
					"internalType": "bytes32[]",
					"name": "tokenIds",
					"type": "bytes32[]"
				},
				{
					"internalType": "bytes32[]",
					"name": "dataKeys",
					"type": "bytes32[]"
				},
				{
					"internalType": "bytes[]",
					"name": "dataValues",
					"type": "bytes[]"
				}
			],
			"name": "setDataBatchForTokenIds",
			"outputs": [],
			"stateMutability": "nonpayable",
			"type": "function"
		},
		{
			"inputs": [
				{
					"internalType": "bytes32",
					"name": "tokenId",
					"type": "bytes32"
				},
				{
					"internalType": "bytes32",
					"name": "dataKey",
					"type": "bytes32"
				},
				{
					"internalType": "bytes",
					"name": "dataValue",
					"type": "bytes"
				}
			],
			"name": "setDataForTokenId",
			"outputs": [],
			"stateMutability": "nonpayable",
			"type": "function"
		},
		{
			"inputs": [
				{
					"internalType": "address",
					"name": "momentAddress",
					"type": "address"
				},
				{
					"internalType": "bytes",
					"name": "encryptedEncryptionKey",
					"type": "bytes"
				}
			],
			"name": "storeEncryptedKey",
			"outputs": [],
			"stateMutability": "nonpayable",
			"type": "function"
		},
		{
			"inputs": [
				{
					"internalType": "bytes4",
					"name": "interfaceId",
					"type": "bytes4"
				}
			],
			"name": "supportsInterface",
			"outputs": [
				{
					"internalType": "bool",
					"name": "",
					"type": "bool"
				}
			],
			"stateMutability": "view",
			"type": "function"
		},
		{
			"inputs": [
				{
					"internalType": "address",
					"name": "tokenOwner",
					"type": "address"
				}
			],
			"name": "tokenIdsOf",
			"outputs": [
				{
					"internalType": "bytes32[]",
					"name": "",
					"type": "bytes32[]"
				}
			],
			"stateMutability": "view",
			"type": "function"
		},
		{
			"inputs": [
				{
					"internalType": "bytes32",
					"name": "tokenId",
					"type": "bytes32"
				}
			],
			"name": "tokenOwnerOf",
			"outputs": [
				{
					"internalType": "address",
					"name": "",
					"type": "address"
				}
			],
			"stateMutability": "view",
			"type": "function"
		},
		{
			"inputs": [
				{
					"internalType": "address",
					"name": "",
					"type": "address"
				}
			],
			"name": "totalNFTcounts",
			"outputs": [
				{
					"internalType": "uint256",
					"name": "",
					"type": "uint256"
				}
			],
			"stateMutability": "view",
			"type": "function"
		},
		{
			"inputs": [],
			"name": "totalSupply",
			"outputs": [
				{
					"internalType": "uint256",
					"name": "",
					"type": "uint256"
				}
			],
			"stateMutability": "view",
			"type": "function"
		},
		{
			"inputs": [
				{
					"internalType": "address",
					"name": "from",
					"type": "address"
				},
				{
					"internalType": "address",
					"name": "to",
					"type": "address"
				},
				{
					"internalType": "bytes32",
					"name": "tokenId",
					"type": "bytes32"
				},
				{
					"internalType": "bool",
					"name": "force",
					"type": "bool"
				},
				{
					"internalType": "bytes",
					"name": "data",
					"type": "bytes"
				}
			],
			"name": "transfer",
			"outputs": [],
			"stateMutability": "nonpayable",
			"type": "function"
		},
		{
			"inputs": [
				{
					"internalType": "address[]",
					"name": "from",
					"type": "address[]"
				},
				{
					"internalType": "address[]",
					"name": "to",
					"type": "address[]"
				},
				{
					"internalType": "bytes32[]",
					"name": "tokenId",
					"type": "bytes32[]"
				},
				{
					"internalType": "bool[]",
					"name": "force",
					"type": "bool[]"
				},
				{
					"internalType": "bytes[]",
					"name": "data",
					"type": "bytes[]"
				}
			],
			"name": "transferBatch",
			"outputs": [],
			"stateMutability": "nonpayable",
			"type": "function"
		},
		{
			"inputs": [
				{
					"internalType": "address",
					"name": "newOwner",
					"type": "address"
				}
			],
			"name": "transferOwnership",
			"outputs": [],
			"stateMutability": "nonpayable",
			"type": "function"
		},
		{
			"inputs": [],
			"name": "vaultAssist",
			"outputs": [
				{
					"internalType": "contract VaultAssist",
					"name": "",
					"type": "address"
				}
			],
			"stateMutability": "view",
			"type": "function"
		},
		{
			"stateMutability": "payable",
			"type": "receive"
		}
	]
}