{
	"data": {
		"bytecode": {
			"linkReferences": {},
			"object": "608060405234801562000010575f80fd5b5060405162005a6538038062005a6583398181016040528101906200003691906200090c565b85858585600284848484815f73ffffffffffffffffffffffffffffffffffffffff168173ffffffffffffffffffffffffffffffffffffffff1603620000a7576040517f1ad8836c00000000000000000000000000000000000000000000000000000000815260040160405180910390fd5b620000b881620002bd60201b60201c565b50620001227feafec4d89fa9619884b60000a4d96624a38f7ac2d8d9a604ecf07c12c77e480c5f1b6040518060400160405280600481526020017fa4d9662400000000000000000000000000000000000000000000000000000000815250620003bc60201b60201c565b620001567fdeba1e292f8ba88238e10ab3c7f88bd4be4fac56cad5194b6ecceaf653468af15f1b85620003bc60201b60201c565b6200018a7f2f0a68ab07768e01943a599e73362a0e17a63a72e94dd2e384d2c1d4db9327565f1b84620003bc60201b60201c565b620001df7fe0261fa95db2eb3b5439bd033cda66d56b96f92f243a8228fd87550ed7bdfdb35f1b82604051602001620001c4919062000a12565b604051602081830303815290604052620003bc60201b60201c565b50505050620002387ff675e9361af1c1664c1868cfa3eb97672d6b1a513aa5b81dec34c9ee330e818d5f1b826040516020016200021d919062000a12565b6040516020818303038152906040526200041b60201b60201c565b5050505050620002717f9afb95cacc9f95858ec44aa8c3b685511002e30ae54415823f406128b85b238e5f1b836200043160201b60201c565b8060075f6101000a81548173ffffffffffffffffffffffffffffffffffffffff021916908373ffffffffffffffffffffffffffffffffffffffff16021790555050505050505062000db1565b620002cd620004a360201b60201c565b73ffffffffffffffffffffffffffffffffffffffff168173ffffffffffffffffffffffffffffffffffffffff1614620003b9578073ffffffffffffffffffffffffffffffffffffffff165f8054906101000a900473ffffffffffffffffffffffffffffffffffffffff1673ffffffffffffffffffffffffffffffffffffffff167f8be0079c531659141344cd1fd0a4f28419497f9722a3daafe3b4186f6b6457e060405160405180910390a3805f806101000a81548173ffffffffffffffffffffffffffffffffffffffff021916908373ffffffffffffffffffffffffffffffffffffffff1602179055505b50565b8060015f8481526020019081526020015f209081620003dc919062000c5b565b50817fece574603820d07bc9b91f2a932baadf4628aabcb8afba49776529c14a6104b2826040516200040f919062000d8f565b60405180910390a25050565b6200042d8282620004ca60201b60201c565b5050565b7ff675e9361af1c1664c1868cfa3eb97672d6b1a513aa5b81dec34c9ee330e818d5f1b82036200048d576040517f3664800a00000000000000000000000000000000000000000000000000000000815260040160405180910390fd5b6200049f82826200041b60201b60201c565b5050565b5f805f9054906101000a900473ffffffffffffffffffffffffffffffffffffffff16905090565b7fdeba1e292f8ba88238e10ab3c7f88bd4be4fac56cad5194b6ecceaf653468af15f1b820362000526576040517f85c169bd00000000000000000000000000000000000000000000000000000000815260040160405180910390fd5b7f2f0a68ab07768e01943a599e73362a0e17a63a72e94dd2e384d2c1d4db9327565f1b820362000582576040517f76755b3800000000000000000000000000000000000000000000000000000000815260040160405180910390fd5b7fe0261fa95db2eb3b5439bd033cda66d56b96f92f243a8228fd87550ed7bdfdb35f1b8203620005de576040517f4ef6d7fb00000000000000000000000000000000000000000000000000000000815260040160405180910390fd5b8060015f8481526020019081526020015f209081620005fe919062000c5b565b50817fece574603820d07bc9b91f2a932baadf4628aabcb8afba49776529c14a6104b28260405162000631919062000d8f565b60405180910390a25050565b5f604051905090565b5f80fd5b5f80fd5b5f80fd5b5f80fd5b5f601f19601f8301169050919050565b7f4e487b71000000000000000000000000000000000000000000000000000000005f52604160045260245ffd5b6200069e8262000656565b810181811067ffffffffffffffff82111715620006c057620006bf62000666565b5b80604052505050565b5f620006d46200063d565b9050620006e2828262000693565b919050565b5f67ffffffffffffffff82111562000704576200070362000666565b5b6200070f8262000656565b9050602081019050919050565b5f5b838110156200073b5780820151818401526020810190506200071e565b5f8484015250505050565b5f6200075c6200075684620006e7565b620006c9565b9050828152602081018484840111156200077b576200077a62000652565b5b620007888482856200071c565b509392505050565b5f82601f830112620007a757620007a66200064e565b5b8151620007b984826020860162000746565b91505092915050565b5f73ffffffffffffffffffffffffffffffffffffffff82169050919050565b5f620007ed82620007c2565b9050919050565b620007ff81620007e1565b81146200080a575f80fd5b50565b5f815190506200081d81620007f4565b92915050565b5f819050919050565b620008378162000823565b811462000842575f80fd5b50565b5f8151905062000855816200082c565b92915050565b5f67ffffffffffffffff82111562000878576200087762000666565b5b620008838262000656565b9050602081019050919050565b5f620008a6620008a0846200085b565b620006c9565b905082815260208101848484011115620008c557620008c462000652565b5b620008d28482856200071c565b509392505050565b5f82601f830112620008f157620008f06200064e565b5b81516200090384826020860162000890565b91505092915050565b5f805f805f8060c0878903121562000929576200092862000646565b5b5f87015167ffffffffffffffff8111156200094957620009486200064a565b5b6200095789828a0162000790565b965050602087015167ffffffffffffffff8111156200097b576200097a6200064a565b5b6200098989828a0162000790565b95505060406200099c89828a016200080d565b9450506060620009af89828a0162000845565b935050608087015167ffffffffffffffff811115620009d357620009d26200064a565b5b620009e189828a01620008da565b92505060a0620009f489828a016200080d565b9150509295509295509295565b62000a0c8162000823565b82525050565b5f60208201905062000a275f83018462000a01565b92915050565b5f81519050919050565b7f4e487b71000000000000000000000000000000000000000000000000000000005f52602260045260245ffd5b5f600282049050600182168062000a7c57607f821691505b60208210810362000a925762000a9162000a37565b5b50919050565b5f819050815f5260205f209050919050565b5f6020601f8301049050919050565b5f82821b905092915050565b5f6008830262000af67fffffffffffffffffffffffffffffffffffffffffffffffffffffffffffffffff8262000ab9565b62000b02868362000ab9565b95508019841693508086168417925050509392505050565b5f819050919050565b5f62000b4362000b3d62000b378462000823565b62000b1a565b62000823565b9050919050565b5f819050919050565b62000b5e8362000b23565b62000b7662000b6d8262000b4a565b84845462000ac5565b825550505050565b5f90565b62000b8c62000b7e565b62000b9981848462000b53565b505050565b5b8181101562000bc05762000bb45f8262000b82565b60018101905062000b9f565b5050565b601f82111562000c0f5762000bd98162000a98565b62000be48462000aaa565b8101602085101562000bf4578190505b62000c0c62000c038562000aaa565b83018262000b9e565b50505b505050565b5f82821c905092915050565b5f62000c315f198460080262000c14565b1980831691505092915050565b5f62000c4b838362000c20565b9150826002028217905092915050565b62000c668262000a2d565b67ffffffffffffffff81111562000c825762000c8162000666565b5b62000c8e825462000a64565b62000c9b82828562000bc4565b5f60209050601f83116001811462000cd1575f841562000cbc578287015190505b62000cc8858262000c3e565b86555062000d37565b601f19841662000ce18662000a98565b5f5b8281101562000d0a5784890151825560018201915060208501945060208101905062000ce3565b8683101562000d2a578489015162000d26601f89168262000c20565b8355505b6001600288020188555050505b505050505050565b5f82825260208201905092915050565b5f62000d5b8262000a2d565b62000d67818562000d3f565b935062000d798185602086016200071c565b62000d848162000656565b840191505092915050565b5f6020820190508181035f83015262000da9818462000d4f565b905092915050565b614ca68062000dbf5f395ff3fe608060405260043610610169575f3560e01c8063715018a6116100d0578063a3b261f211610089578063d6c1407c11610063578063d6c1407c14610648578063db8c966314610670578063dedff9c614610698578063f2fde38b146106d4576101e2565b8063a3b261f2146105a8578063b3b2981e146105e4578063be9f0e6f14610620576101e2565b8063715018a6146104e05780637e87632c146104f65780637f23690c1461051e57806386a10ddd1461053a5780638da5cb5b14610562578063979024211461058c576101e2565b80632a3654a4116101225780632a3654a41461038c57806349a6078d146103c8578063511b69521461040457806354f6127f1461042c5780636963d4381461046857806370a08231146104a4576101e2565b806301ffc9a714610248578063075461721461028457806316e023b3146102ae57806318160ddd146102ea5780631d26fce614610314578063217b227014610350576101e2565b366101e2575f34036101b0576040517fe5099ee30000000000000000000000000000000000000000000000000000000081526004016101a790612dfc565b60405180910390fd5b6040517f61f4944200000000000000000000000000000000000000000000000000000000815260040160405180910390fd5b5f36606060045f36905010156102315782826040517fe5099ee3000000000000000000000000000000000000000000000000000000008152600401610228929190612e64565b60405180910390fd5b61023b83836106fc565b9050915050805190602001f35b348015610253575f80fd5b5061026e60048036038101906102699190612eec565b610872565b60405161027b9190612f31565b60405180910390f35b34801561028f575f80fd5b506102986108e2565b6040516102a59190612fc4565b60405180910390f35b3480156102b9575f80fd5b506102d460048036038101906102cf9190613010565b610907565b6040516102e191906130b8565b60405180910390f35b3480156102f5575f80fd5b506102fe61091b565b60405161030b91906130f0565b60405180910390f35b34801561031f575f80fd5b5061033a60048036038101906103359190613249565b610924565b60405161034791906133c2565b60405180910390f35b34801561035b575f80fd5b50610376600480360381019061037191906133e2565b610a2b565b604051610383919061342d565b60405180910390f35b348015610397575f80fd5b506103b260048036038101906103ad9190613470565b610ad9565b6040516103bf9190612f31565b60405180910390f35b3480156103d3575f80fd5b506103ee60048036038101906103e991906133e2565b610aec565b6040516103fb9190613565565b60405180910390f35b34801561040f575f80fd5b5061042a60048036038101906104259190613651565b610b17565b005b348015610437575f80fd5b50610452600480360381019061044d91906133e2565b610b78565b60405161045f91906130b8565b60405180910390f35b348015610473575f80fd5b5061048e6004803603810190610489919061373d565b610b8a565b60405161049b91906133c2565b60405180910390f35b3480156104af575f80fd5b506104ca60048036038101906104c59190613788565b610d00565b6040516104d791906130f0565b60405180910390f35b3480156104eb575f80fd5b506104f4610d4d565b005b348015610501575f80fd5b5061051c60048036038101906105179190613a11565b610d60565b005b61053860048036038101906105339190613b14565b610e72565b005b348015610545575f80fd5b50610560600480360381019061055b9190613b6e565b610ec1565b005b34801561056d575f80fd5b50610576611117565b604051610583919061342d565b60405180910390f35b6105a660048036038101906105a19190613bda565b61113e565b005b3480156105b3575f80fd5b506105ce60048036038101906105c99190613788565b61124d565b6040516105db9190613d07565b60405180910390f35b3480156105ef575f80fd5b5061060a60048036038101906106059190613def565b61129b565b604051610617919061342d565b60405180910390f35b34801561062b575f80fd5b5061064660048036038101906106419190613ee0565b61138f565b005b348015610653575f80fd5b5061066e60048036038101906106699190613f84565b611490565b005b34801561067b575f80fd5b5061069660048036038101906106919190613ff0565b6114a8565b005b3480156106a3575f80fd5b506106be60048036038101906106b99190614070565b611675565b6040516106cb91906133c2565b60405180910390f35b3480156106df575f80fd5b506106fa60048036038101906106f59190613788565b611725565b005b60605f61072b5f357fffffffff000000000000000000000000000000000000000000000000000000001661179e565b5090505f73ffffffffffffffffffffffffffffffffffffffff168173ffffffffffffffffffffffffffffffffffffffff16036107c1575f357fffffffff00000000000000000000000000000000000000000000000000000000166040517fbb370b2b0000000000000000000000000000000000000000000000000000000081526004016107b891906140c6565b60405180910390fd5b5f808273ffffffffffffffffffffffffffffffffffffffff1634878733346040516020016107f29493929190614172565b60405160208183030381529060405260405161080e91906141dc565b5f6040518083038185875af1925050503d805f8114610848576040519150601f19603f3d011682016040523d82523d5f602084013e61084d565b606091505b509150915081156108635780935050505061086c565b80518060208301fd5b92915050565b5f633a27170660e01b7bffffffffffffffffffffffffffffffffffffffffffffffffffffffff1916827bffffffffffffffffffffffffffffffffffffffffffffffffffffffff191614806108cb57506108ca82611854565b5b806108db57506108da826118b4565b5b9050919050565b60075f9054906101000a900473ffffffffffffffffffffffffffffffffffffffff1681565b60606109138383611918565b905092915050565b5f600254905090565b60608151835114610961576040517f2fa71dfe00000000000000000000000000000000000000000000000000000000815260040160405180910390fd5b825167ffffffffffffffff81111561097c5761097b61310d565b5b6040519080825280602002602001820160405280156109af57816020015b606081526020019060019003908161099a5790505b5090505f5b8351811015610a24576109fb8482815181106109d3576109d26141f2565b5b60200260200101518483815181106109ee576109ed6141f2565b5b6020026020010151611918565b828281518110610a0e57610a0d6141f2565b5b60200260200101819052508060010190506109b4565b5092915050565b5f8060035f8481526020019081526020015f205f9054906101000a900473ffffffffffffffffffffffffffffffffffffffff1690505f73ffffffffffffffffffffffffffffffffffffffff168173ffffffffffffffffffffffffffffffffffffffff1603610ad057826040517fae8f9a36000000000000000000000000000000000000000000000000000000008152600401610ac7919061422e565b60405180910390fd5b80915050919050565b5f610ae4838361192c565b905092915050565b6060610af782611996565b610b1060055f8481526020019081526020015f206119e3565b9050919050565b610b21338461192c565b610b645782336040517f1294d2a9000000000000000000000000000000000000000000000000000000008152600401610b5b929190614247565b60405180910390fd5b610b718585858585611a02565b5050505050565b6060610b8382611d2c565b9050919050565b60608282905067ffffffffffffffff811115610ba957610ba861310d565b5b604051908082528060200260200182016040528015610bdc57816020015b6060815260200190600190039081610bc75790505b5090505f5b83839050811015610cf9575f803073ffffffffffffffffffffffffffffffffffffffff16868685818110610c1857610c176141f2565b5b9050602002810190610c2a919061427a565b604051610c389291906142dc565b5f60405180830381855af49150503d805f8114610c70576040519150601f19603f3d011682016040523d82523d5f602084013e610c75565b606091505b509150915081610ccd575f815114610c905780518082602001fd5b826040517f234eb819000000000000000000000000000000000000000000000000000000008152600401610cc491906130f0565b60405180910390fd5b80848481518110610ce157610ce06141f2565b5b60200260200101819052508260010192505050610be1565b5092915050565b5f610d4660045f8473ffffffffffffffffffffffffffffffffffffffff1673ffffffffffffffffffffffffffffffffffffffff1681526020019081526020015f20611dcd565b9050919050565b610d55611de0565b610d5e5f611e59565b565b5f85519050845181141580610d76575083518114155b80610d82575082518114155b80610d8e575081518114155b15610dc5576040517f93a8311900000000000000000000000000000000000000000000000000000000815260040160405180910390fd5b5f5b81811015610e6957610e5e878281518110610de557610de46141f2565b5b6020026020010151878381518110610e0057610dff6141f2565b5b6020026020010151878481518110610e1b57610e1a6141f2565b5b6020026020010151878581518110610e3657610e356141f2565b5b6020026020010151878681518110610e5157610e506141f2565b5b6020026020010151610b17565b806001019050610dc7565b50505050505050565b610e7a611de0565b5f3414610eb3576040517ff36ba73700000000000000000000000000000000000000000000000000000000815260040160405180910390fd5b610ebd8282611f4f565b5050565b5f610ecb83610a2b565b90503373ffffffffffffffffffffffffffffffffffffffff168173ffffffffffffffffffffffffffffffffffffffff1614610f41578083336040517f5b271ea2000000000000000000000000000000000000000000000000000000008152600401610f38939291906142f4565b60405180910390fd5b5f73ffffffffffffffffffffffffffffffffffffffff168473ffffffffffffffffffffffffffffffffffffffff1603610fa6576040517f9577b8b300000000000000000000000000000000000000000000000000000000815260040160405180910390fd5b8373ffffffffffffffffffffffffffffffffffffffff168173ffffffffffffffffffffffffffffffffffffffff160361100b576040517f89fdad6200000000000000000000000000000000000000000000000000000000815260040160405180910390fd5b5f61102f8560055f8781526020019081526020015f20611fb890919063ffffffff16565b9050806110755784846040517fa7626b6800000000000000000000000000000000000000000000000000000000815260040161106c929190614329565b60405180910390fd5b838273ffffffffffffffffffffffffffffffffffffffff168673ffffffffffffffffffffffffffffffffffffffff167f1b1b58aa2ec0cec2228b2d37124556d41f5a1f7b12f089171f896cc236671215866040516110d391906130b8565b60405180910390a45f33856001866040516020016110f49493929190614350565b604051602081830303815290604052905061110f8682611fe5565b505050505050565b5f805f9054906101000a900473ffffffffffffffffffffffffffffffffffffffff16905090565b611146611de0565b5f341461117f576040517ff36ba73700000000000000000000000000000000000000000000000000000000815260040160405180910390fd5b80518251146111ba576040517f3bcc897900000000000000000000000000000000000000000000000000000000815260040160405180910390fd5b5f8251036111f4576040517f97da5f9500000000000000000000000000000000000000000000000000000000815260040160405180910390fd5b5f5b82518110156112485761123d838281518110611215576112146141f2565b5b60200260200101518383815181106112305761122f6141f2565b5b6020026020010151611f4f565b8060010190506111f6565b505050565b606061129460045f8473ffffffffffffffffffffffffffffffffffffffff1673ffffffffffffffffffffffffffffffffffffffff1681526020019081526020015f20612016565b9050919050565b5f6112a4611de0565b60075f9054906101000a900473ffffffffffffffffffffffffffffffffffffffff1673ffffffffffffffffffffffffffffffffffffffff1663b3b2981e898989898989896040518863ffffffff1660e01b815260040161130a97969594939291906143ec565b6020604051808303815f875af1158015611326573d5f803e3d5ffd5b505050506040513d601f19601f8201168201806040525081019061134a9190614482565b90505f8173ffffffffffffffffffffffffffffffffffffffff165f1b90506113833082600160405180602001604052805f815250612035565b50979650505050505050565b611397611de0565b815183511415806113aa57508051825114155b156113e1576040517f2fa71dfe00000000000000000000000000000000000000000000000000000000815260040160405180910390fd5b5f83510361141b576040517f80c9830500000000000000000000000000000000000000000000000000000000815260040160405180910390fd5b5f5b835181101561148a5761147f84828151811061143c5761143b6141f2565b5b6020026020010151848381518110611457576114566141f2565b5b6020026020010151848481518110611472576114716141f2565b5b60200260200101516122a3565b80600101905061141d565b50505050565b611498611de0565b6114a38383836122a3565b505050565b5f6114b284610a2b565b90508073ffffffffffffffffffffffffffffffffffffffff163373ffffffffffffffffffffffffffffffffffffffff161461155c573373ffffffffffffffffffffffffffffffffffffffff168573ffffffffffffffffffffffffffffffffffffffff161461155b573381856040517f760b5acd000000000000000000000000000000000000000000000000000000008152600401611552939291906144ad565b60405180910390fd5b5b5f73ffffffffffffffffffffffffffffffffffffffff168573ffffffffffffffffffffffffffffffffffffffff16036115c1576040517f9577b8b300000000000000000000000000000000000000000000000000000000815260040160405180910390fd5b8473ffffffffffffffffffffffffffffffffffffffff168173ffffffffffffffffffffffffffffffffffffffff1603611626576040517f89fdad6200000000000000000000000000000000000000000000000000000000815260040160405180910390fd5b61163385828686866122ec565b821561166e575f81855f856040516020016116519493929190614350565b604051602081830303815290604052905061166c8682611fe5565b505b5050505050565b6060815167ffffffffffffffff8111156116925761169161310d565b5b6040519080825280602002602001820160405280156116c557816020015b60608152602001906001900390816116b05790505b5090505f5b825181101561171f576116f68382815181106116e9576116e86141f2565b5b6020026020010151611d2c565b828281518110611709576117086141f2565b5b60200260200101819052508060010190506116ca565b50919050565b61172d611de0565b5f73ffffffffffffffffffffffffffffffffffffffff168173ffffffffffffffffffffffffffffffffffffffff1603611792576040517f1ad8836c00000000000000000000000000000000000000000000000000000000815260040160405180910390fd5b61179b81611e59565b50565b5f805f6117d769cee78b4094da8601109660b01b857bffffffffffffffffffffffffffffffffffffffffffffffffffffffff19166123c6565b90505f6117e382611d2c565b905060148151141580156117f857505f815114155b1561183a57806040517f42bfe79f00000000000000000000000000000000000000000000000000000000815260040161183191906130b8565b60405180910390fd5b806118449061453c565b60601c6001935093505050915091565b5f63a918fa6b60e01b7bffffffffffffffffffffffffffffffffffffffffffffffffffffffff1916827bffffffffffffffffffffffffffffffffffffffffffffffffffffffff191614806118ad57506118ac82612404565b5b9050919050565b5f806118c66301ffc9a760e01b61179e565b5090505f73ffffffffffffffffffffffffffffffffffffffff168173ffffffffffffffffffffffffffffffffffffffff1603611905575f915050611913565b61190f8184612464565b9150505b919050565b606061192483836124fd565b905092915050565b5f61193682610a2b565b73ffffffffffffffffffffffffffffffffffffffff168373ffffffffffffffffffffffffffffffffffffffff16148061198e575061198d8360055f8581526020019081526020015f2061258490919063ffffffff16565b5b905092915050565b61199f816125b1565b6119e057806040517fae8f9a360000000000000000000000000000000000000000000000000000000081526004016119d7919061422e565b60405180910390fd5b50565b60605f6119f1835f01612619565b905060608190508092505050919050565b5f611a0c84610a2b565b90508573ffffffffffffffffffffffffffffffffffffffff168173ffffffffffffffffffffffffffffffffffffffff1614611a82578084876040517f5b271ea2000000000000000000000000000000000000000000000000000000008152600401611a79939291906142f4565b60405180910390fd5b5f73ffffffffffffffffffffffffffffffffffffffff168573ffffffffffffffffffffffffffffffffffffffff1603611ae7576040517f24ecef4d00000000000000000000000000000000000000000000000000000000815260040160405180910390fd5b611af386868685612672565b5f611afd85610a2b565b90508073ffffffffffffffffffffffffffffffffffffffff168273ffffffffffffffffffffffffffffffffffffffff1614611b73578482826040517f5a9c31d3000000000000000000000000000000000000000000000000000000008152600401611b6a939291906145a2565b60405180910390fd5b611b7d8786612678565b611bcc8560045f8a73ffffffffffffffffffffffffffffffffffffffff1673ffffffffffffffffffffffffffffffffffffffff1681526020019081526020015f206126e690919063ffffffff16565b50611c1c8560045f8973ffffffffffffffffffffffffffffffffffffffff1673ffffffffffffffffffffffffffffffffffffffff1681526020019081526020015f206126fb90919063ffffffff16565b508560035f8781526020019081526020015f205f6101000a81548173ffffffffffffffffffffffffffffffffffffffff021916908373ffffffffffffffffffffffffffffffffffffffff160217905550848673ffffffffffffffffffffffffffffffffffffffff168873ffffffffffffffffffffffffffffffffffffffff167fb333c813a7426a7a11e2b190cad52c44119421594b47f6f32ace6d8c7207b2bf338888604051611cce939291906145d7565b60405180910390a4611ce287878786612710565b5f3388888887604051602001611cfc959493929190614613565b6040516020818303038152906040529050611d178882612716565b611d22878683612747565b5050505050505050565b606060015f8381526020019081526020015f208054611d4a90614698565b80601f0160208091040260200160405190810160405280929190818152602001828054611d7690614698565b8015611dc15780601f10611d9857610100808354040283529160200191611dc1565b820191905f5260205f20905b815481529060010190602001808311611da457829003601f168201915b50505050509050919050565b5f611dd9825f016128a6565b9050919050565b3373ffffffffffffffffffffffffffffffffffffffff16611dff611117565b73ffffffffffffffffffffffffffffffffffffffff1614611e5757336040517fbf1169c5000000000000000000000000000000000000000000000000000000008152600401611e4e919061342d565b60405180910390fd5b565b611e61611117565b73ffffffffffffffffffffffffffffffffffffffff168173ffffffffffffffffffffffffffffffffffffffff1614611f4c578073ffffffffffffffffffffffffffffffffffffffff165f8054906101000a900473ffffffffffffffffffffffffffffffffffffffff1673ffffffffffffffffffffffffffffffffffffffff167f8be0079c531659141344cd1fd0a4f28419497f9722a3daafe3b4186f6b6457e060405160405180910390a3805f806101000a81548173ffffffffffffffffffffffffffffffffffffffff021916908373ffffffffffffffffffffffffffffffffffffffff1602179055505b50565b7ff675e9361af1c1664c1868cfa3eb97672d6b1a513aa5b81dec34c9ee330e818d5f1b8203611faa576040517f3664800a00000000000000000000000000000000000000000000000000000000815260040160405180910390fd5b611fb482826128b5565b5050565b5f611fdd835f018373ffffffffffffffffffffffffffffffffffffffff165f1b6128c3565b905092915050565b612012827f8a1c15a8799f71b547e08e2bcb2e85257e81b0a07eee2ce6712549eef1f009705f1b8361292a565b5050565b60605f612024835f01612619565b905060608190508092505050919050565b5f73ffffffffffffffffffffffffffffffffffffffff168473ffffffffffffffffffffffffffffffffffffffff160361209a576040517f24ecef4d00000000000000000000000000000000000000000000000000000000815260040160405180910390fd5b6120a3836125b1565b156120e557826040517f34c7b5110000000000000000000000000000000000000000000000000000000081526004016120dc919061422e565b60405180910390fd5b6120f15f858584612672565b6120fa836125b1565b1561213c57826040517f34c7b511000000000000000000000000000000000000000000000000000000008152600401612133919061422e565b60405180910390fd5b60025f815461214a906146f5565b919050819055506121a08360045f8773ffffffffffffffffffffffffffffffffffffffff1673ffffffffffffffffffffffffffffffffffffffff1681526020019081526020015f206126fb90919063ffffffff16565b508360035f8581526020019081526020015f205f6101000a81548173ffffffffffffffffffffffffffffffffffffffff021916908373ffffffffffffffffffffffffffffffffffffffff160217905550828473ffffffffffffffffffffffffffffffffffffffff165f73ffffffffffffffffffffffffffffffffffffffff167fb333c813a7426a7a11e2b190cad52c44119421594b47f6f32ace6d8c7207b2bf338686604051612252939291906145d7565b60405180910390a46122665f858584612710565b5f335f868685604051602001612280959493929190614613565b604051602081830303815290604052905061229c858483612747565b5050505050565b6122ae8383836129e4565b81837fa6e4251f855f750545fe414f120db91c76b88def14d120969e5bb2d3f05debbb836040516122df91906130b8565b60405180910390a3505050565b5f6123108660055f8781526020019081526020015f20612a5390919063ffffffff16565b9050806123565785846040517f4aa31a8c00000000000000000000000000000000000000000000000000000000815260040161234d929190614329565b60405180910390fd5b838573ffffffffffffffffffffffffffffffffffffffff168773ffffffffffffffffffffffffffffffffffffffff167fc78cd419d6136f9f1c1c6aec1d3fae098cffaf8bc86314a8f2685e32fe574e3c86866040516123b692919061473c565b60405180910390a4505050505050565b5f80835f60f01b846040516020016123e093929190614820565b6040516020818303038152906040529050806123fb90614870565b91505092915050565b5f63629aa69460e01b7bffffffffffffffffffffffffffffffffffffffffffffffffffffffff1916827bffffffffffffffffffffffffffffffffffffffffffffffffffffffff1916148061245d575061245c82612a80565b5b9050919050565b5f808260405160240161247791906140c6565b6040516020818303038152906040526301ffc9a760e01b6020820180517bffffffffffffffffffffffffffffffffffffffffffffffffffffffff838183161783525050505090505f805f60205f8551602087018a617530fa92503d91505f5190508280156124e6575060208210155b80156124f157505f81115b94505050505092915050565b6060825f1c73ffffffffffffffffffffffffffffffffffffffff166354f6127f836040518263ffffffff1660e01b815260040161253a919061422e565b5f60405180830381865afa158015612554573d5f803e3d5ffd5b505050506040513d5f823e3d601f19601f8201168201806040525081019061257c9190614944565b905092915050565b5f6125a9835f018373ffffffffffffffffffffffffffffffffffffffff165f1b612ae9565b905092915050565b5f8073ffffffffffffffffffffffffffffffffffffffff1660035f8481526020019081526020015f205f9054906101000a900473ffffffffffffffffffffffffffffffffffffffff1673ffffffffffffffffffffffffffffffffffffffff1614159050919050565b6060815f0180548060200260200160405190810160405280929190818152602001828054801561266657602002820191905f5260205f20905b815481526020019060010190808311612652575b50505050509050919050565b50505050565b5f60055f8381526020019081526020015f2090505f61269682612b09565b90505f805b828110156126de576126b65f85612b1c90919063ffffffff16565b91506126d38287875f60405180602001604052805f8152506122ec565b80600101905061269b565b505050505050565b5f6126f3835f0183612b33565b905092915050565b5f612708835f01836128c3565b905092915050565b50505050565b612743827fb23eae7e6d1564b295b4c3e3be402d9a2f0776c57bdf365903496f6fa481ab005f1b8361292a565b5050565b61275883636bb56a1460e01b612464565b15612803578273ffffffffffffffffffffffffffffffffffffffff16636bb56a147f0b084a55ebf70fd3c06fd755269dac2212c4d3f0f4d09079780bfa50c1b2984d5f1b836040518363ffffffff1660e01b81526004016127ba92919061498b565b5f604051808303815f875af11580156127d5573d5f803e3d5ffd5b505050506040513d5f823e3d601f19601f820116820180604052508101906127fd9190614944565b506128a1565b816128a0575f8373ffffffffffffffffffffffffffffffffffffffff163b1461286357826040517f4349776d00000000000000000000000000000000000000000000000000000000815260040161285a919061342d565b60405180910390fd5b826040517f03173137000000000000000000000000000000000000000000000000000000008152600401612897919061342d565b60405180910390fd5b5b505050565b5f815f01805490509050919050565b6128bf8282612c2f565b5050565b5f6128ce8383612ae9565b61292057825f0182908060018154018082558091505060019003905f5260205f20015f9091909190915055825f0180549050836001015f8481526020019081526020015f208190555060019050612924565b5f90505b92915050565b61295a636bb56a1460e01b8473ffffffffffffffffffffffffffffffffffffffff1661246490919063ffffffff16565b156129df578273ffffffffffffffffffffffffffffffffffffffff16636bb56a1483836040518363ffffffff1660e01b815260040161299a92919061498b565b5f604051808303815f875af11580156129b5573d5f803e3d5ffd5b505050506040513d5f823e3d601f19601f820116820180604052508101906129dd9190614944565b505b505050565b825f1c73ffffffffffffffffffffffffffffffffffffffff16637f23690c83836040518363ffffffff1660e01b8152600401612a2192919061498b565b5f604051808303815f87803b158015612a38575f80fd5b505af1158015612a4a573d5f803e3d5ffd5b50505050505050565b5f612a78835f018373ffffffffffffffffffffffffffffffffffffffff165f1b612b33565b905092915050565b5f7f01ffc9a7000000000000000000000000000000000000000000000000000000007bffffffffffffffffffffffffffffffffffffffffffffffffffffffff1916827bffffffffffffffffffffffffffffffffffffffffffffffffffffffff1916149050919050565b5f80836001015f8481526020019081526020015f20541415905092915050565b5f612b15825f016128a6565b9050919050565b5f612b29835f0183612d9b565b5f1c905092915050565b5f80836001015f8481526020019081526020015f205490505f8114612c24575f600182612b6091906149b9565b90505f6001865f0180549050612b7691906149b9565b9050808214612bdc575f865f018281548110612b9557612b946141f2565b5b905f5260205f200154905080875f018481548110612bb657612bb56141f2565b5b905f5260205f20018190555083876001015f8381526020019081526020015f2081905550505b855f01805480612bef57612bee6149ec565b5b600190038181905f5260205f20015f90559055856001015f8681526020019081526020015f205f905560019350505050612c29565b5f9150505b92915050565b7fdeba1e292f8ba88238e10ab3c7f88bd4be4fac56cad5194b6ecceaf653468af15f1b8203612c8a576040517f85c169bd00000000000000000000000000000000000000000000000000000000815260040160405180910390fd5b7f2f0a68ab07768e01943a599e73362a0e17a63a72e94dd2e384d2c1d4db9327565f1b8203612ce5576040517f76755b3800000000000000000000000000000000000000000000000000000000815260040160405180910390fd5b7fe0261fa95db2eb3b5439bd033cda66d56b96f92f243a8228fd87550ed7bdfdb35f1b8203612d40576040517f4ef6d7fb00000000000000000000000000000000000000000000000000000000815260040160405180910390fd5b8060015f8481526020019081526020015f209081612d5e9190614ba1565b50817fece574603820d07bc9b91f2a932baadf4628aabcb8afba49776529c14a6104b282604051612d8f91906130b8565b60405180910390a25050565b5f825f018281548110612db157612db06141f2565b5b905f5260205f200154905092915050565b5f82825260208201905092915050565b5f8082015250565b5f612de6600483612dc2565b9150612df182612dd2565b602082019050919050565b5f6020820190508181035f830152612e1381612dda565b9050919050565b828183375f83830152505050565b5f601f19601f8301169050919050565b5f612e438385612dc2565b9350612e50838584612e1a565b612e5983612e28565b840190509392505050565b5f6020820190508181035f830152612e7d818486612e38565b90509392505050565b5f604051905090565b5f80fd5b5f80fd5b5f7fffffffff0000000000000000000000000000000000000000000000000000000082169050919050565b612ecb81612e97565b8114612ed5575f80fd5b50565b5f81359050612ee681612ec2565b92915050565b5f60208284031215612f0157612f00612e8f565b5b5f612f0e84828501612ed8565b91505092915050565b5f8115159050919050565b612f2b81612f17565b82525050565b5f602082019050612f445f830184612f22565b92915050565b5f73ffffffffffffffffffffffffffffffffffffffff82169050919050565b5f819050919050565b5f612f8c612f87612f8284612f4a565b612f69565b612f4a565b9050919050565b5f612f9d82612f72565b9050919050565b5f612fae82612f93565b9050919050565b612fbe81612fa4565b82525050565b5f602082019050612fd75f830184612fb5565b92915050565b5f819050919050565b612fef81612fdd565b8114612ff9575f80fd5b50565b5f8135905061300a81612fe6565b92915050565b5f806040838503121561302657613025612e8f565b5b5f61303385828601612ffc565b925050602061304485828601612ffc565b9150509250929050565b5f81519050919050565b5f5b8381101561307557808201518184015260208101905061305a565b5f8484015250505050565b5f61308a8261304e565b6130948185612dc2565b93506130a4818560208601613058565b6130ad81612e28565b840191505092915050565b5f6020820190508181035f8301526130d08184613080565b905092915050565b5f819050919050565b6130ea816130d8565b82525050565b5f6020820190506131035f8301846130e1565b92915050565b5f80fd5b7f4e487b71000000000000000000000000000000000000000000000000000000005f52604160045260245ffd5b61314382612e28565b810181811067ffffffffffffffff821117156131625761316161310d565b5b80604052505050565b5f613174612e86565b9050613180828261313a565b919050565b5f67ffffffffffffffff82111561319f5761319e61310d565b5b602082029050602081019050919050565b5f80fd5b5f6131c66131c184613185565b61316b565b905080838252602082019050602084028301858111156131e9576131e86131b0565b5b835b8181101561321257806131fe8882612ffc565b8452602084019350506020810190506131eb565b5050509392505050565b5f82601f8301126132305761322f613109565b5b81356132408482602086016131b4565b91505092915050565b5f806040838503121561325f5761325e612e8f565b5b5f83013567ffffffffffffffff81111561327c5761327b612e93565b5b6132888582860161321c565b925050602083013567ffffffffffffffff8111156132a9576132a8612e93565b5b6132b58582860161321c565b9150509250929050565b5f81519050919050565b5f82825260208201905092915050565b5f819050602082019050919050565b5f82825260208201905092915050565b5f6133028261304e565b61330c81856132e8565b935061331c818560208601613058565b61332581612e28565b840191505092915050565b5f61333b83836132f8565b905092915050565b5f602082019050919050565b5f613359826132bf565b61336381856132c9565b935083602082028501613375856132d9565b805f5b858110156133b057848403895281516133918582613330565b945061339c83613343565b925060208a01995050600181019050613378565b50829750879550505050505092915050565b5f6020820190508181035f8301526133da818461334f565b905092915050565b5f602082840312156133f7576133f6612e8f565b5b5f61340484828501612ffc565b91505092915050565b5f61341782612f4a565b9050919050565b6134278161340d565b82525050565b5f6020820190506134405f83018461341e565b92915050565b61344f8161340d565b8114613459575f80fd5b50565b5f8135905061346a81613446565b92915050565b5f806040838503121561348657613485612e8f565b5b5f6134938582860161345c565b92505060206134a485828601612ffc565b9150509250929050565b5f81519050919050565b5f82825260208201905092915050565b5f819050602082019050919050565b6134e08161340d565b82525050565b5f6134f183836134d7565b60208301905092915050565b5f602082019050919050565b5f613513826134ae565b61351d81856134b8565b9350613528836134c8565b805f5b8381101561355857815161353f88826134e6565b975061354a836134fd565b92505060018101905061352b565b5085935050505092915050565b5f6020820190508181035f83015261357d8184613509565b905092915050565b61358e81612f17565b8114613598575f80fd5b50565b5f813590506135a981613585565b92915050565b5f80fd5b5f67ffffffffffffffff8211156135cd576135cc61310d565b5b6135d682612e28565b9050602081019050919050565b5f6135f56135f0846135b3565b61316b565b905082815260208101848484011115613611576136106135af565b5b61361c848285612e1a565b509392505050565b5f82601f83011261363857613637613109565b5b81356136488482602086016135e3565b91505092915050565b5f805f805f60a0868803121561366a57613669612e8f565b5b5f6136778882890161345c565b95505060206136888882890161345c565b945050604061369988828901612ffc565b93505060606136aa8882890161359b565b925050608086013567ffffffffffffffff8111156136cb576136ca612e93565b5b6136d788828901613624565b9150509295509295909350565b5f80fd5b5f8083601f8401126136fd576136fc613109565b5b8235905067ffffffffffffffff81111561371a576137196136e4565b5b602083019150836020820283011115613736576137356131b0565b5b9250929050565b5f806020838503121561375357613752612e8f565b5b5f83013567ffffffffffffffff8111156137705761376f612e93565b5b61377c858286016136e8565b92509250509250929050565b5f6020828403121561379d5761379c612e8f565b5b5f6137aa8482850161345c565b91505092915050565b5f67ffffffffffffffff8211156137cd576137cc61310d565b5b602082029050602081019050919050565b5f6137f06137eb846137b3565b61316b565b90508083825260208201905060208402830185811115613813576138126131b0565b5b835b8181101561383c5780613828888261345c565b845260208401935050602081019050613815565b5050509392505050565b5f82601f83011261385a57613859613109565b5b813561386a8482602086016137de565b91505092915050565b5f67ffffffffffffffff82111561388d5761388c61310d565b5b602082029050602081019050919050565b5f6138b06138ab84613873565b61316b565b905080838252602082019050602084028301858111156138d3576138d26131b0565b5b835b818110156138fc57806138e8888261359b565b8452602084019350506020810190506138d5565b5050509392505050565b5f82601f83011261391a57613919613109565b5b813561392a84826020860161389e565b91505092915050565b5f67ffffffffffffffff82111561394d5761394c61310d565b5b602082029050602081019050919050565b5f61397061396b84613933565b61316b565b90508083825260208201905060208402830185811115613993576139926131b0565b5b835b818110156139da57803567ffffffffffffffff8111156139b8576139b7613109565b5b8086016139c58982613624565b85526020850194505050602081019050613995565b5050509392505050565b5f82601f8301126139f8576139f7613109565b5b8135613a0884826020860161395e565b91505092915050565b5f805f805f60a08688031215613a2a57613a29612e8f565b5b5f86013567ffffffffffffffff811115613a4757613a46612e93565b5b613a5388828901613846565b955050602086013567ffffffffffffffff811115613a7457613a73612e93565b5b613a8088828901613846565b945050604086013567ffffffffffffffff811115613aa157613aa0612e93565b5b613aad8882890161321c565b935050606086013567ffffffffffffffff811115613ace57613acd612e93565b5b613ada88828901613906565b925050608086013567ffffffffffffffff811115613afb57613afa612e93565b5b613b07888289016139e4565b9150509295509295909350565b5f8060408385031215613b2a57613b29612e8f565b5b5f613b3785828601612ffc565b925050602083013567ffffffffffffffff811115613b5857613b57612e93565b5b613b6485828601613624565b9150509250929050565b5f805f60608486031215613b8557613b84612e8f565b5b5f613b928682870161345c565b9350506020613ba386828701612ffc565b925050604084013567ffffffffffffffff811115613bc457613bc3612e93565b5b613bd086828701613624565b9150509250925092565b5f8060408385031215613bf057613bef612e8f565b5b5f83013567ffffffffffffffff811115613c0d57613c0c612e93565b5b613c198582860161321c565b925050602083013567ffffffffffffffff811115613c3a57613c39612e93565b5b613c46858286016139e4565b9150509250929050565b5f81519050919050565b5f82825260208201905092915050565b5f819050602082019050919050565b613c8281612fdd565b82525050565b5f613c938383613c79565b60208301905092915050565b5f602082019050919050565b5f613cb582613c50565b613cbf8185613c5a565b9350613cca83613c6a565b805f5b83811015613cfa578151613ce18882613c88565b9750613cec83613c9f565b925050600181019050613ccd565b5085935050505092915050565b5f6020820190508181035f830152613d1f8184613cab565b905092915050565b5f67ffffffffffffffff821115613d4157613d4061310d565b5b613d4a82612e28565b9050602081019050919050565b5f613d69613d6484613d27565b61316b565b905082815260208101848484011115613d8557613d846135af565b5b613d90848285612e1a565b509392505050565b5f82601f830112613dac57613dab613109565b5b8135613dbc848260208601613d57565b91505092915050565b613dce816130d8565b8114613dd8575f80fd5b50565b5f81359050613de981613dc5565b92915050565b5f805f805f805f60e0888a031215613e0a57613e09612e8f565b5b5f88013567ffffffffffffffff811115613e2757613e26612e93565b5b613e338a828b01613d98565b975050602088013567ffffffffffffffff811115613e5457613e53612e93565b5b613e608a828b01613d98565b9650506040613e718a828b01613ddb565b9550506060613e828a828b0161359b565b9450506080613e938a828b01613ddb565b93505060a0613ea48a828b0161345c565b92505060c088013567ffffffffffffffff811115613ec557613ec4612e93565b5b613ed18a828b01613624565b91505092959891949750929550565b5f805f60608486031215613ef757613ef6612e8f565b5b5f84013567ffffffffffffffff811115613f1457613f13612e93565b5b613f208682870161321c565b935050602084013567ffffffffffffffff811115613f4157613f40612e93565b5b613f4d8682870161321c565b925050604084013567ffffffffffffffff811115613f6e57613f6d612e93565b5b613f7a868287016139e4565b9150509250925092565b5f805f60608486031215613f9b57613f9a612e8f565b5b5f613fa886828701612ffc565b9350506020613fb986828701612ffc565b925050604084013567ffffffffffffffff811115613fda57613fd9612e93565b5b613fe686828701613624565b9150509250925092565b5f805f806080858703121561400857614007612e8f565b5b5f6140158782880161345c565b945050602061402687828801612ffc565b93505060406140378782880161359b565b925050606085013567ffffffffffffffff81111561405857614057612e93565b5b61406487828801613624565b91505092959194509250565b5f6020828403121561408557614084612e8f565b5b5f82013567ffffffffffffffff8111156140a2576140a1612e93565b5b6140ae8482850161321c565b91505092915050565b6140c081612e97565b82525050565b5f6020820190506140d95f8301846140b7565b92915050565b5f81905092915050565b5f6140f483856140df565b9350614101838584612e1a565b82840190509392505050565b5f8160601b9050919050565b5f6141238261410d565b9050919050565b5f61413482614119565b9050919050565b61414c6141478261340d565b61412a565b82525050565b5f819050919050565b61416c614167826130d8565b614152565b82525050565b5f61417e8286886140e9565b915061418a828561413b565b60148201915061419a828461415b565b60208201915081905095945050505050565b5f6141b68261304e565b6141c081856140df565b93506141d0818560208601613058565b80840191505092915050565b5f6141e782846141ac565b915081905092915050565b7f4e487b71000000000000000000000000000000000000000000000000000000005f52603260045260245ffd5b61422881612fdd565b82525050565b5f6020820190506142415f83018461421f565b92915050565b5f60408201905061425a5f83018561421f565b614267602083018461341e565b9392505050565b5f80fd5b5f80fd5b5f80fd5b5f80833560016020038436030381126142965761429561426e565b5b80840192508235915067ffffffffffffffff8211156142b8576142b7614272565b5b6020830192506001820236038313156142d4576142d3614276565b5b509250929050565b5f6142e88284866140e9565b91508190509392505050565b5f6060820190506143075f83018661341e565b614314602083018561421f565b614321604083018461341e565b949350505050565b5f60408201905061433c5f83018561341e565b614349602083018461421f565b9392505050565b5f6080820190506143635f83018761341e565b614370602083018661421f565b61437d6040830185612f22565b818103606083015261438f8184613080565b905095945050505050565b5f81519050919050565b5f82825260208201905092915050565b5f6143be8261439a565b6143c881856143a4565b93506143d8818560208601613058565b6143e181612e28565b840191505092915050565b5f60e0820190508181035f830152614404818a6143b4565b9050818103602083015261441881896143b4565b905061442760408301886130e1565b6144346060830187612f22565b61444160808301866130e1565b61444e60a083018561341e565b81810360c08301526144608184613080565b905098975050505050505050565b5f8151905061447c81613446565b92915050565b5f6020828403121561449757614496612e8f565b5b5f6144a48482850161446e565b91505092915050565b5f6060820190506144c05f83018661341e565b6144cd602083018561341e565b6144da604083018461421f565b949350505050565b5f819050602082019050919050565b5f7fffffffffffffffffffffffffffffffffffffffff00000000000000000000000082169050919050565b5f61452782516144f1565b80915050919050565b5f82821b905092915050565b5f6145468261304e565b82614550846144e2565b905061455b8161451c565b9250601482101561459b576145967fffffffffffffffffffffffffffffffffffffffff00000000000000000000000083601403600802614530565b831692505b5050919050565b5f6060820190506145b55f83018661421f565b6145c2602083018561341e565b6145cf604083018461341e565b949350505050565b5f6060820190506145ea5f83018661341e565b6145f76020830185612f22565b81810360408301526146098184613080565b9050949350505050565b5f60a0820190506146265f83018861341e565b614633602083018761341e565b614640604083018661341e565b61464d606083018561421f565b818103608083015261465f8184613080565b90509695505050505050565b7f4e487b71000000000000000000000000000000000000000000000000000000005f52602260045260245ffd5b5f60028204905060018216806146af57607f821691505b6020821081036146c2576146c161466b565b5b50919050565b7f4e487b71000000000000000000000000000000000000000000000000000000005f52601160045260245ffd5b5f6146ff826130d8565b91507fffffffffffffffffffffffffffffffffffffffffffffffffffffffffffffffff8203614731576147306146c8565b5b600182019050919050565b5f60408201905061474f5f830185612f22565b81810360208301526147618184613080565b90509392505050565b5f7fffffffffffffffffffff0000000000000000000000000000000000000000000082169050919050565b5f819050919050565b6147af6147aa8261476a565b614795565b82525050565b5f7fffff00000000000000000000000000000000000000000000000000000000000082169050919050565b5f819050919050565b6147fa6147f5826147b5565b6147e0565b82525050565b5f819050919050565b61481a614815826144f1565b614800565b82525050565b5f61482b828661479e565b600a8201915061483b82856147e9565b60028201915061484b8284614809565b601482019150819050949350505050565b5f6148678251612fdd565b80915050919050565b5f61487a8261304e565b82614884846144e2565b905061488f8161485c565b925060208210156148cf576148ca7fffffffffffffffffffffffffffffffffffffffffffffffffffffffffffffffff83602003600802614530565b831692505b5050919050565b5f6148e86148e3846135b3565b61316b565b905082815260208101848484011115614904576149036135af565b5b61490f848285613058565b509392505050565b5f82601f83011261492b5761492a613109565b5b815161493b8482602086016148d6565b91505092915050565b5f6020828403121561495957614958612e8f565b5b5f82015167ffffffffffffffff81111561497657614975612e93565b5b61498284828501614917565b91505092915050565b5f60408201905061499e5f83018561421f565b81810360208301526149b08184613080565b90509392505050565b5f6149c3826130d8565b91506149ce836130d8565b92508282039050818111156149e6576149e56146c8565b5b92915050565b7f4e487b71000000000000000000000000000000000000000000000000000000005f52603160045260245ffd5b5f819050815f5260205f209050919050565b5f6020601f8301049050919050565b5f60088302614a697fffffffffffffffffffffffffffffffffffffffffffffffffffffffffffffffff82614530565b614a738683614530565b95508019841693508086168417925050509392505050565b5f614aa5614aa0614a9b846130d8565b612f69565b6130d8565b9050919050565b5f819050919050565b614abe83614a8b565b614ad2614aca82614aac565b848454614a3a565b825550505050565b5f90565b614ae6614ada565b614af1818484614ab5565b505050565b5b81811015614b1457614b095f82614ade565b600181019050614af7565b5050565b601f821115614b5957614b2a81614a19565b614b3384614a2b565b81016020851015614b42578190505b614b56614b4e85614a2b565b830182614af6565b50505b505050565b5f82821c905092915050565b5f614b795f1984600802614b5e565b1980831691505092915050565b5f614b918383614b6a565b9150826002028217905092915050565b614baa8261304e565b67ffffffffffffffff811115614bc357614bc261310d565b5b614bcd8254614698565b614bd8828285614b18565b5f60209050601f831160018114614c09575f8415614bf7578287015190505b614c018582614b86565b865550614c68565b601f198416614c1786614a19565b5f5b82811015614c3e57848901518255600182019150602085019450602081019050614c19565b86831015614c5b5784890151614c57601f891682614b6a565b8355505b6001600288020188555050505b50505050505056fea2646970667358221220f816883e783aaeb3ac239be3398e25f6c0aba1ab73db727a17a698a5e0dc186f64736f6c63430008140033",
			"opcodes": "PUSH1 0x80 PUSH1 0x40 MSTORE CALLVALUE DUP1 ISZERO PUSH3 0x10 JUMPI PUSH0 DUP1 REVERT JUMPDEST POP PUSH1 0x40 MLOAD PUSH3 0x5A65 CODESIZE SUB DUP1 PUSH3 0x5A65 DUP4 CODECOPY DUP2 DUP2 ADD PUSH1 0x40 MSTORE DUP2 ADD SWAP1 PUSH3 0x36 SWAP2 SWAP1 PUSH3 0x90C JUMP JUMPDEST DUP6 DUP6 DUP6 DUP6 PUSH1 0x2 DUP5 DUP5 DUP5 DUP5 DUP2 PUSH0 PUSH20 0xFFFFFFFFFFFFFFFFFFFFFFFFFFFFFFFFFFFFFFFF AND DUP2 PUSH20 0xFFFFFFFFFFFFFFFFFFFFFFFFFFFFFFFFFFFFFFFF AND SUB PUSH3 0xA7 JUMPI PUSH1 0x40 MLOAD PUSH32 0x1AD8836C00000000000000000000000000000000000000000000000000000000 DUP2 MSTORE PUSH1 0x4 ADD PUSH1 0x40 MLOAD DUP1 SWAP2 SUB SWAP1 REVERT JUMPDEST PUSH3 0xB8 DUP2 PUSH3 0x2BD PUSH1 0x20 SHL PUSH1 0x20 SHR JUMP JUMPDEST POP PUSH3 0x122 PUSH32 0xEAFEC4D89FA9619884B60000A4D96624A38F7AC2D8D9A604ECF07C12C77E480C PUSH0 SHL PUSH1 0x40 MLOAD DUP1 PUSH1 0x40 ADD PUSH1 0x40 MSTORE DUP1 PUSH1 0x4 DUP2 MSTORE PUSH1 0x20 ADD PUSH32 0xA4D9662400000000000000000000000000000000000000000000000000000000 DUP2 MSTORE POP PUSH3 0x3BC PUSH1 0x20 SHL PUSH1 0x20 SHR JUMP JUMPDEST PUSH3 0x156 PUSH32 0xDEBA1E292F8BA88238E10AB3C7F88BD4BE4FAC56CAD5194B6ECCEAF653468AF1 PUSH0 SHL DUP6 PUSH3 0x3BC PUSH1 0x20 SHL PUSH1 0x20 SHR JUMP JUMPDEST PUSH3 0x18A PUSH32 0x2F0A68AB07768E01943A599E73362A0E17A63A72E94DD2E384D2C1D4DB932756 PUSH0 SHL DUP5 PUSH3 0x3BC PUSH1 0x20 SHL PUSH1 0x20 SHR JUMP JUMPDEST PUSH3 0x1DF PUSH32 0xE0261FA95DB2EB3B5439BD033CDA66D56B96F92F243A8228FD87550ED7BDFDB3 PUSH0 SHL DUP3 PUSH1 0x40 MLOAD PUSH1 0x20 ADD PUSH3 0x1C4 SWAP2 SWAP1 PUSH3 0xA12 JUMP JUMPDEST PUSH1 0x40 MLOAD PUSH1 0x20 DUP2 DUP4 SUB SUB DUP2 MSTORE SWAP1 PUSH1 0x40 MSTORE PUSH3 0x3BC PUSH1 0x20 SHL PUSH1 0x20 SHR JUMP JUMPDEST POP POP POP POP PUSH3 0x238 PUSH32 0xF675E9361AF1C1664C1868CFA3EB97672D6B1A513AA5B81DEC34C9EE330E818D PUSH0 SHL DUP3 PUSH1 0x40 MLOAD PUSH1 0x20 ADD PUSH3 0x21D SWAP2 SWAP1 PUSH3 0xA12 JUMP JUMPDEST PUSH1 0x40 MLOAD PUSH1 0x20 DUP2 DUP4 SUB SUB DUP2 MSTORE SWAP1 PUSH1 0x40 MSTORE PUSH3 0x41B PUSH1 0x20 SHL PUSH1 0x20 SHR JUMP JUMPDEST POP POP POP POP POP PUSH3 0x271 PUSH32 0x9AFB95CACC9F95858EC44AA8C3B685511002E30AE54415823F406128B85B238E PUSH0 SHL DUP4 PUSH3 0x431 PUSH1 0x20 SHL PUSH1 0x20 SHR JUMP JUMPDEST DUP1 PUSH1 0x7 PUSH0 PUSH2 0x100 EXP DUP2 SLOAD DUP2 PUSH20 0xFFFFFFFFFFFFFFFFFFFFFFFFFFFFFFFFFFFFFFFF MUL NOT AND SWAP1 DUP4 PUSH20 0xFFFFFFFFFFFFFFFFFFFFFFFFFFFFFFFFFFFFFFFF AND MUL OR SWAP1 SSTORE POP POP POP POP POP POP POP PUSH3 0xDB1 JUMP JUMPDEST PUSH3 0x2CD PUSH3 0x4A3 PUSH1 0x20 SHL PUSH1 0x20 SHR JUMP JUMPDEST PUSH20 0xFFFFFFFFFFFFFFFFFFFFFFFFFFFFFFFFFFFFFFFF AND DUP2 PUSH20 0xFFFFFFFFFFFFFFFFFFFFFFFFFFFFFFFFFFFFFFFF AND EQ PUSH3 0x3B9 JUMPI DUP1 PUSH20 0xFFFFFFFFFFFFFFFFFFFFFFFFFFFFFFFFFFFFFFFF AND PUSH0 DUP1 SLOAD SWAP1 PUSH2 0x100 EXP SWAP1 DIV PUSH20 0xFFFFFFFFFFFFFFFFFFFFFFFFFFFFFFFFFFFFFFFF AND PUSH20 0xFFFFFFFFFFFFFFFFFFFFFFFFFFFFFFFFFFFFFFFF AND PUSH32 0x8BE0079C531659141344CD1FD0A4F28419497F9722A3DAAFE3B4186F6B6457E0 PUSH1 0x40 MLOAD PUSH1 0x40 MLOAD DUP1 SWAP2 SUB SWAP1 LOG3 DUP1 PUSH0 DUP1 PUSH2 0x100 EXP DUP2 SLOAD DUP2 PUSH20 0xFFFFFFFFFFFFFFFFFFFFFFFFFFFFFFFFFFFFFFFF MUL NOT AND SWAP1 DUP4 PUSH20 0xFFFFFFFFFFFFFFFFFFFFFFFFFFFFFFFFFFFFFFFF AND MUL OR SWAP1 SSTORE POP JUMPDEST POP JUMP JUMPDEST DUP1 PUSH1 0x1 PUSH0 DUP5 DUP2 MSTORE PUSH1 0x20 ADD SWAP1 DUP2 MSTORE PUSH1 0x20 ADD PUSH0 KECCAK256 SWAP1 DUP2 PUSH3 0x3DC SWAP2 SWAP1 PUSH3 0xC5B JUMP JUMPDEST POP DUP2 PUSH32 0xECE574603820D07BC9B91F2A932BAADF4628AABCB8AFBA49776529C14A6104B2 DUP3 PUSH1 0x40 MLOAD PUSH3 0x40F SWAP2 SWAP1 PUSH3 0xD8F JUMP JUMPDEST PUSH1 0x40 MLOAD DUP1 SWAP2 SUB SWAP1 LOG2 POP POP JUMP JUMPDEST PUSH3 0x42D DUP3 DUP3 PUSH3 0x4CA PUSH1 0x20 SHL PUSH1 0x20 SHR JUMP JUMPDEST POP POP JUMP JUMPDEST PUSH32 0xF675E9361AF1C1664C1868CFA3EB97672D6B1A513AA5B81DEC34C9EE330E818D PUSH0 SHL DUP3 SUB PUSH3 0x48D JUMPI PUSH1 0x40 MLOAD PUSH32 0x3664800A00000000000000000000000000000000000000000000000000000000 DUP2 MSTORE PUSH1 0x4 ADD PUSH1 0x40 MLOAD DUP1 SWAP2 SUB SWAP1 REVERT JUMPDEST PUSH3 0x49F DUP3 DUP3 PUSH3 0x41B PUSH1 0x20 SHL PUSH1 0x20 SHR JUMP JUMPDEST POP POP JUMP JUMPDEST PUSH0 DUP1 PUSH0 SWAP1 SLOAD SWAP1 PUSH2 0x100 EXP SWAP1 DIV PUSH20 0xFFFFFFFFFFFFFFFFFFFFFFFFFFFFFFFFFFFFFFFF AND SWAP1 POP SWAP1 JUMP JUMPDEST PUSH32 0xDEBA1E292F8BA88238E10AB3C7F88BD4BE4FAC56CAD5194B6ECCEAF653468AF1 PUSH0 SHL DUP3 SUB PUSH3 0x526 JUMPI PUSH1 0x40 MLOAD PUSH32 0x85C169BD00000000000000000000000000000000000000000000000000000000 DUP2 MSTORE PUSH1 0x4 ADD PUSH1 0x40 MLOAD DUP1 SWAP2 SUB SWAP1 REVERT JUMPDEST PUSH32 0x2F0A68AB07768E01943A599E73362A0E17A63A72E94DD2E384D2C1D4DB932756 PUSH0 SHL DUP3 SUB PUSH3 0x582 JUMPI PUSH1 0x40 MLOAD PUSH32 0x76755B3800000000000000000000000000000000000000000000000000000000 DUP2 MSTORE PUSH1 0x4 ADD PUSH1 0x40 MLOAD DUP1 SWAP2 SUB SWAP1 REVERT JUMPDEST PUSH32 0xE0261FA95DB2EB3B5439BD033CDA66D56B96F92F243A8228FD87550ED7BDFDB3 PUSH0 SHL DUP3 SUB PUSH3 0x5DE JUMPI PUSH1 0x40 MLOAD PUSH32 0x4EF6D7FB00000000000000000000000000000000000000000000000000000000 DUP2 MSTORE PUSH1 0x4 ADD PUSH1 0x40 MLOAD DUP1 SWAP2 SUB SWAP1 REVERT JUMPDEST DUP1 PUSH1 0x1 PUSH0 DUP5 DUP2 MSTORE PUSH1 0x20 ADD SWAP1 DUP2 MSTORE PUSH1 0x20 ADD PUSH0 KECCAK256 SWAP1 DUP2 PUSH3 0x5FE SWAP2 SWAP1 PUSH3 0xC5B JUMP JUMPDEST POP DUP2 PUSH32 0xECE574603820D07BC9B91F2A932BAADF4628AABCB8AFBA49776529C14A6104B2 DUP3 PUSH1 0x40 MLOAD PUSH3 0x631 SWAP2 SWAP1 PUSH3 0xD8F JUMP JUMPDEST PUSH1 0x40 MLOAD DUP1 SWAP2 SUB SWAP1 LOG2 POP POP JUMP JUMPDEST PUSH0 PUSH1 0x40 MLOAD SWAP1 POP SWAP1 JUMP JUMPDEST PUSH0 DUP1 REVERT JUMPDEST PUSH0 DUP1 REVERT JUMPDEST PUSH0 DUP1 REVERT JUMPDEST PUSH0 DUP1 REVERT JUMPDEST PUSH0 PUSH1 0x1F NOT PUSH1 0x1F DUP4 ADD AND SWAP1 POP SWAP2 SWAP1 POP JUMP JUMPDEST PUSH32 0x4E487B7100000000000000000000000000000000000000000000000000000000 PUSH0 MSTORE PUSH1 0x41 PUSH1 0x4 MSTORE PUSH1 0x24 PUSH0 REVERT JUMPDEST PUSH3 0x69E DUP3 PUSH3 0x656 JUMP JUMPDEST DUP2 ADD DUP2 DUP2 LT PUSH8 0xFFFFFFFFFFFFFFFF DUP3 GT OR ISZERO PUSH3 0x6C0 JUMPI PUSH3 0x6BF PUSH3 0x666 JUMP JUMPDEST JUMPDEST DUP1 PUSH1 0x40 MSTORE POP POP POP JUMP JUMPDEST PUSH0 PUSH3 0x6D4 PUSH3 0x63D JUMP JUMPDEST SWAP1 POP PUSH3 0x6E2 DUP3 DUP3 PUSH3 0x693 JUMP JUMPDEST SWAP2 SWAP1 POP JUMP JUMPDEST PUSH0 PUSH8 0xFFFFFFFFFFFFFFFF DUP3 GT ISZERO PUSH3 0x704 JUMPI PUSH3 0x703 PUSH3 0x666 JUMP JUMPDEST JUMPDEST PUSH3 0x70F DUP3 PUSH3 0x656 JUMP JUMPDEST SWAP1 POP PUSH1 0x20 DUP2 ADD SWAP1 POP SWAP2 SWAP1 POP JUMP JUMPDEST PUSH0 JUMPDEST DUP4 DUP2 LT ISZERO PUSH3 0x73B JUMPI DUP1 DUP3 ADD MLOAD DUP2 DUP5 ADD MSTORE PUSH1 0x20 DUP2 ADD SWAP1 POP PUSH3 0x71E JUMP JUMPDEST PUSH0 DUP5 DUP5 ADD MSTORE POP POP POP POP JUMP JUMPDEST PUSH0 PUSH3 0x75C PUSH3 0x756 DUP5 PUSH3 0x6E7 JUMP JUMPDEST PUSH3 0x6C9 JUMP JUMPDEST SWAP1 POP DUP3 DUP2 MSTORE PUSH1 0x20 DUP2 ADD DUP5 DUP5 DUP5 ADD GT ISZERO PUSH3 0x77B JUMPI PUSH3 0x77A PUSH3 0x652 JUMP JUMPDEST JUMPDEST PUSH3 0x788 DUP5 DUP3 DUP6 PUSH3 0x71C JUMP JUMPDEST POP SWAP4 SWAP3 POP POP POP JUMP JUMPDEST PUSH0 DUP3 PUSH1 0x1F DUP4 ADD SLT PUSH3 0x7A7 JUMPI PUSH3 0x7A6 PUSH3 0x64E JUMP JUMPDEST JUMPDEST DUP2 MLOAD PUSH3 0x7B9 DUP5 DUP3 PUSH1 0x20 DUP7 ADD PUSH3 0x746 JUMP JUMPDEST SWAP2 POP POP SWAP3 SWAP2 POP POP JUMP JUMPDEST PUSH0 PUSH20 0xFFFFFFFFFFFFFFFFFFFFFFFFFFFFFFFFFFFFFFFF DUP3 AND SWAP1 POP SWAP2 SWAP1 POP JUMP JUMPDEST PUSH0 PUSH3 0x7ED DUP3 PUSH3 0x7C2 JUMP JUMPDEST SWAP1 POP SWAP2 SWAP1 POP JUMP JUMPDEST PUSH3 0x7FF DUP2 PUSH3 0x7E1 JUMP JUMPDEST DUP2 EQ PUSH3 0x80A JUMPI PUSH0 DUP1 REVERT JUMPDEST POP JUMP JUMPDEST PUSH0 DUP2 MLOAD SWAP1 POP PUSH3 0x81D DUP2 PUSH3 0x7F4 JUMP JUMPDEST SWAP3 SWAP2 POP POP JUMP JUMPDEST PUSH0 DUP2 SWAP1 POP SWAP2 SWAP1 POP JUMP JUMPDEST PUSH3 0x837 DUP2 PUSH3 0x823 JUMP JUMPDEST DUP2 EQ PUSH3 0x842 JUMPI PUSH0 DUP1 REVERT JUMPDEST POP JUMP JUMPDEST PUSH0 DUP2 MLOAD SWAP1 POP PUSH3 0x855 DUP2 PUSH3 0x82C JUMP JUMPDEST SWAP3 SWAP2 POP POP JUMP JUMPDEST PUSH0 PUSH8 0xFFFFFFFFFFFFFFFF DUP3 GT ISZERO PUSH3 0x878 JUMPI PUSH3 0x877 PUSH3 0x666 JUMP JUMPDEST JUMPDEST PUSH3 0x883 DUP3 PUSH3 0x656 JUMP JUMPDEST SWAP1 POP PUSH1 0x20 DUP2 ADD SWAP1 POP SWAP2 SWAP1 POP JUMP JUMPDEST PUSH0 PUSH3 0x8A6 PUSH3 0x8A0 DUP5 PUSH3 0x85B JUMP JUMPDEST PUSH3 0x6C9 JUMP JUMPDEST SWAP1 POP DUP3 DUP2 MSTORE PUSH1 0x20 DUP2 ADD DUP5 DUP5 DUP5 ADD GT ISZERO PUSH3 0x8C5 JUMPI PUSH3 0x8C4 PUSH3 0x652 JUMP JUMPDEST JUMPDEST PUSH3 0x8D2 DUP5 DUP3 DUP6 PUSH3 0x71C JUMP JUMPDEST POP SWAP4 SWAP3 POP POP POP JUMP JUMPDEST PUSH0 DUP3 PUSH1 0x1F DUP4 ADD SLT PUSH3 0x8F1 JUMPI PUSH3 0x8F0 PUSH3 0x64E JUMP JUMPDEST JUMPDEST DUP2 MLOAD PUSH3 0x903 DUP5 DUP3 PUSH1 0x20 DUP7 ADD PUSH3 0x890 JUMP JUMPDEST SWAP2 POP POP SWAP3 SWAP2 POP POP JUMP JUMPDEST PUSH0 DUP1 PUSH0 DUP1 PUSH0 DUP1 PUSH1 0xC0 DUP8 DUP10 SUB SLT ISZERO PUSH3 0x929 JUMPI PUSH3 0x928 PUSH3 0x646 JUMP JUMPDEST JUMPDEST PUSH0 DUP8 ADD MLOAD PUSH8 0xFFFFFFFFFFFFFFFF DUP2 GT ISZERO PUSH3 0x949 JUMPI PUSH3 0x948 PUSH3 0x64A JUMP JUMPDEST JUMPDEST PUSH3 0x957 DUP10 DUP3 DUP11 ADD PUSH3 0x790 JUMP JUMPDEST SWAP7 POP POP PUSH1 0x20 DUP8 ADD MLOAD PUSH8 0xFFFFFFFFFFFFFFFF DUP2 GT ISZERO PUSH3 0x97B JUMPI PUSH3 0x97A PUSH3 0x64A JUMP JUMPDEST JUMPDEST PUSH3 0x989 DUP10 DUP3 DUP11 ADD PUSH3 0x790 JUMP JUMPDEST SWAP6 POP POP PUSH1 0x40 PUSH3 0x99C DUP10 DUP3 DUP11 ADD PUSH3 0x80D JUMP JUMPDEST SWAP5 POP POP PUSH1 0x60 PUSH3 0x9AF DUP10 DUP3 DUP11 ADD PUSH3 0x845 JUMP JUMPDEST SWAP4 POP POP PUSH1 0x80 DUP8 ADD MLOAD PUSH8 0xFFFFFFFFFFFFFFFF DUP2 GT ISZERO PUSH3 0x9D3 JUMPI PUSH3 0x9D2 PUSH3 0x64A JUMP JUMPDEST JUMPDEST PUSH3 0x9E1 DUP10 DUP3 DUP11 ADD PUSH3 0x8DA JUMP JUMPDEST SWAP3 POP POP PUSH1 0xA0 PUSH3 0x9F4 DUP10 DUP3 DUP11 ADD PUSH3 0x80D JUMP JUMPDEST SWAP2 POP POP SWAP3 SWAP6 POP SWAP3 SWAP6 POP SWAP3 SWAP6 JUMP JUMPDEST PUSH3 0xA0C DUP2 PUSH3 0x823 JUMP JUMPDEST DUP3 MSTORE POP POP JUMP JUMPDEST PUSH0 PUSH1 0x20 DUP3 ADD SWAP1 POP PUSH3 0xA27 PUSH0 DUP4 ADD DUP5 PUSH3 0xA01 JUMP JUMPDEST SWAP3 SWAP2 POP POP JUMP JUMPDEST PUSH0 DUP2 MLOAD SWAP1 POP SWAP2 SWAP1 POP JUMP JUMPDEST PUSH32 0x4E487B7100000000000000000000000000000000000000000000000000000000 PUSH0 MSTORE PUSH1 0x22 PUSH1 0x4 MSTORE PUSH1 0x24 PUSH0 REVERT JUMPDEST PUSH0 PUSH1 0x2 DUP3 DIV SWAP1 POP PUSH1 0x1 DUP3 AND DUP1 PUSH3 0xA7C JUMPI PUSH1 0x7F DUP3 AND SWAP2 POP JUMPDEST PUSH1 0x20 DUP3 LT DUP2 SUB PUSH3 0xA92 JUMPI PUSH3 0xA91 PUSH3 0xA37 JUMP JUMPDEST JUMPDEST POP SWAP2 SWAP1 POP JUMP JUMPDEST PUSH0 DUP2 SWAP1 POP DUP2 PUSH0 MSTORE PUSH1 0x20 PUSH0 KECCAK256 SWAP1 POP SWAP2 SWAP1 POP JUMP JUMPDEST PUSH0 PUSH1 0x20 PUSH1 0x1F DUP4 ADD DIV SWAP1 POP SWAP2 SWAP1 POP JUMP JUMPDEST PUSH0 DUP3 DUP3 SHL SWAP1 POP SWAP3 SWAP2 POP POP JUMP JUMPDEST PUSH0 PUSH1 0x8 DUP4 MUL PUSH3 0xAF6 PUSH32 0xFFFFFFFFFFFFFFFFFFFFFFFFFFFFFFFFFFFFFFFFFFFFFFFFFFFFFFFFFFFFFFFF DUP3 PUSH3 0xAB9 JUMP JUMPDEST PUSH3 0xB02 DUP7 DUP4 PUSH3 0xAB9 JUMP JUMPDEST SWAP6 POP DUP1 NOT DUP5 AND SWAP4 POP DUP1 DUP7 AND DUP5 OR SWAP3 POP POP POP SWAP4 SWAP3 POP POP POP JUMP JUMPDEST PUSH0 DUP2 SWAP1 POP SWAP2 SWAP1 POP JUMP JUMPDEST PUSH0 PUSH3 0xB43 PUSH3 0xB3D PUSH3 0xB37 DUP5 PUSH3 0x823 JUMP JUMPDEST PUSH3 0xB1A JUMP JUMPDEST PUSH3 0x823 JUMP JUMPDEST SWAP1 POP SWAP2 SWAP1 POP JUMP JUMPDEST PUSH0 DUP2 SWAP1 POP SWAP2 SWAP1 POP JUMP JUMPDEST PUSH3 0xB5E DUP4 PUSH3 0xB23 JUMP JUMPDEST PUSH3 0xB76 PUSH3 0xB6D DUP3 PUSH3 0xB4A JUMP JUMPDEST DUP5 DUP5 SLOAD PUSH3 0xAC5 JUMP JUMPDEST DUP3 SSTORE POP POP POP POP JUMP JUMPDEST PUSH0 SWAP1 JUMP JUMPDEST PUSH3 0xB8C PUSH3 0xB7E JUMP JUMPDEST PUSH3 0xB99 DUP2 DUP5 DUP5 PUSH3 0xB53 JUMP JUMPDEST POP POP POP JUMP JUMPDEST JUMPDEST DUP2 DUP2 LT ISZERO PUSH3 0xBC0 JUMPI PUSH3 0xBB4 PUSH0 DUP3 PUSH3 0xB82 JUMP JUMPDEST PUSH1 0x1 DUP2 ADD SWAP1 POP PUSH3 0xB9F JUMP JUMPDEST POP POP JUMP JUMPDEST PUSH1 0x1F DUP3 GT ISZERO PUSH3 0xC0F JUMPI PUSH3 0xBD9 DUP2 PUSH3 0xA98 JUMP JUMPDEST PUSH3 0xBE4 DUP5 PUSH3 0xAAA JUMP JUMPDEST DUP2 ADD PUSH1 0x20 DUP6 LT ISZERO PUSH3 0xBF4 JUMPI DUP2 SWAP1 POP JUMPDEST PUSH3 0xC0C PUSH3 0xC03 DUP6 PUSH3 0xAAA JUMP JUMPDEST DUP4 ADD DUP3 PUSH3 0xB9E JUMP JUMPDEST POP POP JUMPDEST POP POP POP JUMP JUMPDEST PUSH0 DUP3 DUP3 SHR SWAP1 POP SWAP3 SWAP2 POP POP JUMP JUMPDEST PUSH0 PUSH3 0xC31 PUSH0 NOT DUP5 PUSH1 0x8 MUL PUSH3 0xC14 JUMP JUMPDEST NOT DUP1 DUP4 AND SWAP2 POP POP SWAP3 SWAP2 POP POP JUMP JUMPDEST PUSH0 PUSH3 0xC4B DUP4 DUP4 PUSH3 0xC20 JUMP JUMPDEST SWAP2 POP DUP3 PUSH1 0x2 MUL DUP3 OR SWAP1 POP SWAP3 SWAP2 POP POP JUMP JUMPDEST PUSH3 0xC66 DUP3 PUSH3 0xA2D JUMP JUMPDEST PUSH8 0xFFFFFFFFFFFFFFFF DUP2 GT ISZERO PUSH3 0xC82 JUMPI PUSH3 0xC81 PUSH3 0x666 JUMP JUMPDEST JUMPDEST PUSH3 0xC8E DUP3 SLOAD PUSH3 0xA64 JUMP JUMPDEST PUSH3 0xC9B DUP3 DUP3 DUP6 PUSH3 0xBC4 JUMP JUMPDEST PUSH0 PUSH1 0x20 SWAP1 POP PUSH1 0x1F DUP4 GT PUSH1 0x1 DUP2 EQ PUSH3 0xCD1 JUMPI PUSH0 DUP5 ISZERO PUSH3 0xCBC JUMPI DUP3 DUP8 ADD MLOAD SWAP1 POP JUMPDEST PUSH3 0xCC8 DUP6 DUP3 PUSH3 0xC3E JUMP JUMPDEST DUP7 SSTORE POP PUSH3 0xD37 JUMP JUMPDEST PUSH1 0x1F NOT DUP5 AND PUSH3 0xCE1 DUP7 PUSH3 0xA98 JUMP JUMPDEST PUSH0 JUMPDEST DUP3 DUP2 LT ISZERO PUSH3 0xD0A JUMPI DUP5 DUP10 ADD MLOAD DUP3 SSTORE PUSH1 0x1 DUP3 ADD SWAP2 POP PUSH1 0x20 DUP6 ADD SWAP5 POP PUSH1 0x20 DUP2 ADD SWAP1 POP PUSH3 0xCE3 JUMP JUMPDEST DUP7 DUP4 LT ISZERO PUSH3 0xD2A JUMPI DUP5 DUP10 ADD MLOAD PUSH3 0xD26 PUSH1 0x1F DUP10 AND DUP3 PUSH3 0xC20 JUMP JUMPDEST DUP4 SSTORE POP JUMPDEST PUSH1 0x1 PUSH1 0x2 DUP9 MUL ADD DUP9 SSTORE POP POP POP JUMPDEST POP POP POP POP POP POP JUMP JUMPDEST PUSH0 DUP3 DUP3 MSTORE PUSH1 0x20 DUP3 ADD SWAP1 POP SWAP3 SWAP2 POP POP JUMP JUMPDEST PUSH0 PUSH3 0xD5B DUP3 PUSH3 0xA2D JUMP JUMPDEST PUSH3 0xD67 DUP2 DUP6 PUSH3 0xD3F JUMP JUMPDEST SWAP4 POP PUSH3 0xD79 DUP2 DUP6 PUSH1 0x20 DUP7 ADD PUSH3 0x71C JUMP JUMPDEST PUSH3 0xD84 DUP2 PUSH3 0x656 JUMP JUMPDEST DUP5 ADD SWAP2 POP POP SWAP3 SWAP2 POP POP JUMP JUMPDEST PUSH0 PUSH1 0x20 DUP3 ADD SWAP1 POP DUP2 DUP2 SUB PUSH0 DUP4 ADD MSTORE PUSH3 0xDA9 DUP2 DUP5 PUSH3 0xD4F JUMP JUMPDEST SWAP1 POP SWAP3 SWAP2 POP POP JUMP JUMPDEST PUSH2 0x4CA6 DUP1 PUSH3 0xDBF PUSH0 CODECOPY PUSH0 RETURN INVALID PUSH1 0x80 PUSH1 0x40 MSTORE PUSH1 0x4 CALLDATASIZE LT PUSH2 0x169 JUMPI PUSH0 CALLDATALOAD PUSH1 0xE0 SHR DUP1 PUSH4 0x715018A6 GT PUSH2 0xD0 JUMPI DUP1 PUSH4 0xA3B261F2 GT PUSH2 0x89 JUMPI DUP1 PUSH4 0xD6C1407C GT PUSH2 0x63 JUMPI DUP1 PUSH4 0xD6C1407C EQ PUSH2 0x648 JUMPI DUP1 PUSH4 0xDB8C9663 EQ PUSH2 0x670 JUMPI DUP1 PUSH4 0xDEDFF9C6 EQ PUSH2 0x698 JUMPI DUP1 PUSH4 0xF2FDE38B EQ PUSH2 0x6D4 JUMPI PUSH2 0x1E2 JUMP JUMPDEST DUP1 PUSH4 0xA3B261F2 EQ PUSH2 0x5A8 JUMPI DUP1 PUSH4 0xB3B2981E EQ PUSH2 0x5E4 JUMPI DUP1 PUSH4 0xBE9F0E6F EQ PUSH2 0x620 JUMPI PUSH2 0x1E2 JUMP JUMPDEST DUP1 PUSH4 0x715018A6 EQ PUSH2 0x4E0 JUMPI DUP1 PUSH4 0x7E87632C EQ PUSH2 0x4F6 JUMPI DUP1 PUSH4 0x7F23690C EQ PUSH2 0x51E JUMPI DUP1 PUSH4 0x86A10DDD EQ PUSH2 0x53A JUMPI DUP1 PUSH4 0x8DA5CB5B EQ PUSH2 0x562 JUMPI DUP1 PUSH4 0x97902421 EQ PUSH2 0x58C JUMPI PUSH2 0x1E2 JUMP JUMPDEST DUP1 PUSH4 0x2A3654A4 GT PUSH2 0x122 JUMPI DUP1 PUSH4 0x2A3654A4 EQ PUSH2 0x38C JUMPI DUP1 PUSH4 0x49A6078D EQ PUSH2 0x3C8 JUMPI DUP1 PUSH4 0x511B6952 EQ PUSH2 0x404 JUMPI DUP1 PUSH4 0x54F6127F EQ PUSH2 0x42C JUMPI DUP1 PUSH4 0x6963D438 EQ PUSH2 0x468 JUMPI DUP1 PUSH4 0x70A08231 EQ PUSH2 0x4A4 JUMPI PUSH2 0x1E2 JUMP JUMPDEST DUP1 PUSH4 0x1FFC9A7 EQ PUSH2 0x248 JUMPI DUP1 PUSH4 0x7546172 EQ PUSH2 0x284 JUMPI DUP1 PUSH4 0x16E023B3 EQ PUSH2 0x2AE JUMPI DUP1 PUSH4 0x18160DDD EQ PUSH2 0x2EA JUMPI DUP1 PUSH4 0x1D26FCE6 EQ PUSH2 0x314 JUMPI DUP1 PUSH4 0x217B2270 EQ PUSH2 0x350 JUMPI PUSH2 0x1E2 JUMP JUMPDEST CALLDATASIZE PUSH2 0x1E2 JUMPI PUSH0 CALLVALUE SUB PUSH2 0x1B0 JUMPI PUSH1 0x40 MLOAD PUSH32 0xE5099EE300000000000000000000000000000000000000000000000000000000 DUP2 MSTORE PUSH1 0x4 ADD PUSH2 0x1A7 SWAP1 PUSH2 0x2DFC JUMP JUMPDEST PUSH1 0x40 MLOAD DUP1 SWAP2 SUB SWAP1 REVERT JUMPDEST PUSH1 0x40 MLOAD PUSH32 0x61F4944200000000000000000000000000000000000000000000000000000000 DUP2 MSTORE PUSH1 0x4 ADD PUSH1 0x40 MLOAD DUP1 SWAP2 SUB SWAP1 REVERT JUMPDEST PUSH0 CALLDATASIZE PUSH1 0x60 PUSH1 0x4 PUSH0 CALLDATASIZE SWAP1 POP LT ISZERO PUSH2 0x231 JUMPI DUP3 DUP3 PUSH1 0x40 MLOAD PUSH32 0xE5099EE300000000000000000000000000000000000000000000000000000000 DUP2 MSTORE PUSH1 0x4 ADD PUSH2 0x228 SWAP3 SWAP2 SWAP1 PUSH2 0x2E64 JUMP JUMPDEST PUSH1 0x40 MLOAD DUP1 SWAP2 SUB SWAP1 REVERT JUMPDEST PUSH2 0x23B DUP4 DUP4 PUSH2 0x6FC JUMP JUMPDEST SWAP1 POP SWAP2 POP POP DUP1 MLOAD SWAP1 PUSH1 0x20 ADD RETURN JUMPDEST CALLVALUE DUP1 ISZERO PUSH2 0x253 JUMPI PUSH0 DUP1 REVERT JUMPDEST POP PUSH2 0x26E PUSH1 0x4 DUP1 CALLDATASIZE SUB DUP2 ADD SWAP1 PUSH2 0x269 SWAP2 SWAP1 PUSH2 0x2EEC JUMP JUMPDEST PUSH2 0x872 JUMP JUMPDEST PUSH1 0x40 MLOAD PUSH2 0x27B SWAP2 SWAP1 PUSH2 0x2F31 JUMP JUMPDEST PUSH1 0x40 MLOAD DUP1 SWAP2 SUB SWAP1 RETURN JUMPDEST CALLVALUE DUP1 ISZERO PUSH2 0x28F JUMPI PUSH0 DUP1 REVERT JUMPDEST POP PUSH2 0x298 PUSH2 0x8E2 JUMP JUMPDEST PUSH1 0x40 MLOAD PUSH2 0x2A5 SWAP2 SWAP1 PUSH2 0x2FC4 JUMP JUMPDEST PUSH1 0x40 MLOAD DUP1 SWAP2 SUB SWAP1 RETURN JUMPDEST CALLVALUE DUP1 ISZERO PUSH2 0x2B9 JUMPI PUSH0 DUP1 REVERT JUMPDEST POP PUSH2 0x2D4 PUSH1 0x4 DUP1 CALLDATASIZE SUB DUP2 ADD SWAP1 PUSH2 0x2CF SWAP2 SWAP1 PUSH2 0x3010 JUMP JUMPDEST PUSH2 0x907 JUMP JUMPDEST PUSH1 0x40 MLOAD PUSH2 0x2E1 SWAP2 SWAP1 PUSH2 0x30B8 JUMP JUMPDEST PUSH1 0x40 MLOAD DUP1 SWAP2 SUB SWAP1 RETURN JUMPDEST CALLVALUE DUP1 ISZERO PUSH2 0x2F5 JUMPI PUSH0 DUP1 REVERT JUMPDEST POP PUSH2 0x2FE PUSH2 0x91B JUMP JUMPDEST PUSH1 0x40 MLOAD PUSH2 0x30B SWAP2 SWAP1 PUSH2 0x30F0 JUMP JUMPDEST PUSH1 0x40 MLOAD DUP1 SWAP2 SUB SWAP1 RETURN JUMPDEST CALLVALUE DUP1 ISZERO PUSH2 0x31F JUMPI PUSH0 DUP1 REVERT JUMPDEST POP PUSH2 0x33A PUSH1 0x4 DUP1 CALLDATASIZE SUB DUP2 ADD SWAP1 PUSH2 0x335 SWAP2 SWAP1 PUSH2 0x3249 JUMP JUMPDEST PUSH2 0x924 JUMP JUMPDEST PUSH1 0x40 MLOAD PUSH2 0x347 SWAP2 SWAP1 PUSH2 0x33C2 JUMP JUMPDEST PUSH1 0x40 MLOAD DUP1 SWAP2 SUB SWAP1 RETURN JUMPDEST CALLVALUE DUP1 ISZERO PUSH2 0x35B JUMPI PUSH0 DUP1 REVERT JUMPDEST POP PUSH2 0x376 PUSH1 0x4 DUP1 CALLDATASIZE SUB DUP2 ADD SWAP1 PUSH2 0x371 SWAP2 SWAP1 PUSH2 0x33E2 JUMP JUMPDEST PUSH2 0xA2B JUMP JUMPDEST PUSH1 0x40 MLOAD PUSH2 0x383 SWAP2 SWAP1 PUSH2 0x342D JUMP JUMPDEST PUSH1 0x40 MLOAD DUP1 SWAP2 SUB SWAP1 RETURN JUMPDEST CALLVALUE DUP1 ISZERO PUSH2 0x397 JUMPI PUSH0 DUP1 REVERT JUMPDEST POP PUSH2 0x3B2 PUSH1 0x4 DUP1 CALLDATASIZE SUB DUP2 ADD SWAP1 PUSH2 0x3AD SWAP2 SWAP1 PUSH2 0x3470 JUMP JUMPDEST PUSH2 0xAD9 JUMP JUMPDEST PUSH1 0x40 MLOAD PUSH2 0x3BF SWAP2 SWAP1 PUSH2 0x2F31 JUMP JUMPDEST PUSH1 0x40 MLOAD DUP1 SWAP2 SUB SWAP1 RETURN JUMPDEST CALLVALUE DUP1 ISZERO PUSH2 0x3D3 JUMPI PUSH0 DUP1 REVERT JUMPDEST POP PUSH2 0x3EE PUSH1 0x4 DUP1 CALLDATASIZE SUB DUP2 ADD SWAP1 PUSH2 0x3E9 SWAP2 SWAP1 PUSH2 0x33E2 JUMP JUMPDEST PUSH2 0xAEC JUMP JUMPDEST PUSH1 0x40 MLOAD PUSH2 0x3FB SWAP2 SWAP1 PUSH2 0x3565 JUMP JUMPDEST PUSH1 0x40 MLOAD DUP1 SWAP2 SUB SWAP1 RETURN JUMPDEST CALLVALUE DUP1 ISZERO PUSH2 0x40F JUMPI PUSH0 DUP1 REVERT JUMPDEST POP PUSH2 0x42A PUSH1 0x4 DUP1 CALLDATASIZE SUB DUP2 ADD SWAP1 PUSH2 0x425 SWAP2 SWAP1 PUSH2 0x3651 JUMP JUMPDEST PUSH2 0xB17 JUMP JUMPDEST STOP JUMPDEST CALLVALUE DUP1 ISZERO PUSH2 0x437 JUMPI PUSH0 DUP1 REVERT JUMPDEST POP PUSH2 0x452 PUSH1 0x4 DUP1 CALLDATASIZE SUB DUP2 ADD SWAP1 PUSH2 0x44D SWAP2 SWAP1 PUSH2 0x33E2 JUMP JUMPDEST PUSH2 0xB78 JUMP JUMPDEST PUSH1 0x40 MLOAD PUSH2 0x45F SWAP2 SWAP1 PUSH2 0x30B8 JUMP JUMPDEST PUSH1 0x40 MLOAD DUP1 SWAP2 SUB SWAP1 RETURN JUMPDEST CALLVALUE DUP1 ISZERO PUSH2 0x473 JUMPI PUSH0 DUP1 REVERT JUMPDEST POP PUSH2 0x48E PUSH1 0x4 DUP1 CALLDATASIZE SUB DUP2 ADD SWAP1 PUSH2 0x489 SWAP2 SWAP1 PUSH2 0x373D JUMP JUMPDEST PUSH2 0xB8A JUMP JUMPDEST PUSH1 0x40 MLOAD PUSH2 0x49B SWAP2 SWAP1 PUSH2 0x33C2 JUMP JUMPDEST PUSH1 0x40 MLOAD DUP1 SWAP2 SUB SWAP1 RETURN JUMPDEST CALLVALUE DUP1 ISZERO PUSH2 0x4AF JUMPI PUSH0 DUP1 REVERT JUMPDEST POP PUSH2 0x4CA PUSH1 0x4 DUP1 CALLDATASIZE SUB DUP2 ADD SWAP1 PUSH2 0x4C5 SWAP2 SWAP1 PUSH2 0x3788 JUMP JUMPDEST PUSH2 0xD00 JUMP JUMPDEST PUSH1 0x40 MLOAD PUSH2 0x4D7 SWAP2 SWAP1 PUSH2 0x30F0 JUMP JUMPDEST PUSH1 0x40 MLOAD DUP1 SWAP2 SUB SWAP1 RETURN JUMPDEST CALLVALUE DUP1 ISZERO PUSH2 0x4EB JUMPI PUSH0 DUP1 REVERT JUMPDEST POP PUSH2 0x4F4 PUSH2 0xD4D JUMP JUMPDEST STOP JUMPDEST CALLVALUE DUP1 ISZERO PUSH2 0x501 JUMPI PUSH0 DUP1 REVERT JUMPDEST POP PUSH2 0x51C PUSH1 0x4 DUP1 CALLDATASIZE SUB DUP2 ADD SWAP1 PUSH2 0x517 SWAP2 SWAP1 PUSH2 0x3A11 JUMP JUMPDEST PUSH2 0xD60 JUMP JUMPDEST STOP JUMPDEST PUSH2 0x538 PUSH1 0x4 DUP1 CALLDATASIZE SUB DUP2 ADD SWAP1 PUSH2 0x533 SWAP2 SWAP1 PUSH2 0x3B14 JUMP JUMPDEST PUSH2 0xE72 JUMP JUMPDEST STOP JUMPDEST CALLVALUE DUP1 ISZERO PUSH2 0x545 JUMPI PUSH0 DUP1 REVERT JUMPDEST POP PUSH2 0x560 PUSH1 0x4 DUP1 CALLDATASIZE SUB DUP2 ADD SWAP1 PUSH2 0x55B SWAP2 SWAP1 PUSH2 0x3B6E JUMP JUMPDEST PUSH2 0xEC1 JUMP JUMPDEST STOP JUMPDEST CALLVALUE DUP1 ISZERO PUSH2 0x56D JUMPI PUSH0 DUP1 REVERT JUMPDEST POP PUSH2 0x576 PUSH2 0x1117 JUMP JUMPDEST PUSH1 0x40 MLOAD PUSH2 0x583 SWAP2 SWAP1 PUSH2 0x342D JUMP JUMPDEST PUSH1 0x40 MLOAD DUP1 SWAP2 SUB SWAP1 RETURN JUMPDEST PUSH2 0x5A6 PUSH1 0x4 DUP1 CALLDATASIZE SUB DUP2 ADD SWAP1 PUSH2 0x5A1 SWAP2 SWAP1 PUSH2 0x3BDA JUMP JUMPDEST PUSH2 0x113E JUMP JUMPDEST STOP JUMPDEST CALLVALUE DUP1 ISZERO PUSH2 0x5B3 JUMPI PUSH0 DUP1 REVERT JUMPDEST POP PUSH2 0x5CE PUSH1 0x4 DUP1 CALLDATASIZE SUB DUP2 ADD SWAP1 PUSH2 0x5C9 SWAP2 SWAP1 PUSH2 0x3788 JUMP JUMPDEST PUSH2 0x124D JUMP JUMPDEST PUSH1 0x40 MLOAD PUSH2 0x5DB SWAP2 SWAP1 PUSH2 0x3D07 JUMP JUMPDEST PUSH1 0x40 MLOAD DUP1 SWAP2 SUB SWAP1 RETURN JUMPDEST CALLVALUE DUP1 ISZERO PUSH2 0x5EF JUMPI PUSH0 DUP1 REVERT JUMPDEST POP PUSH2 0x60A PUSH1 0x4 DUP1 CALLDATASIZE SUB DUP2 ADD SWAP1 PUSH2 0x605 SWAP2 SWAP1 PUSH2 0x3DEF JUMP JUMPDEST PUSH2 0x129B JUMP JUMPDEST PUSH1 0x40 MLOAD PUSH2 0x617 SWAP2 SWAP1 PUSH2 0x342D JUMP JUMPDEST PUSH1 0x40 MLOAD DUP1 SWAP2 SUB SWAP1 RETURN JUMPDEST CALLVALUE DUP1 ISZERO PUSH2 0x62B JUMPI PUSH0 DUP1 REVERT JUMPDEST POP PUSH2 0x646 PUSH1 0x4 DUP1 CALLDATASIZE SUB DUP2 ADD SWAP1 PUSH2 0x641 SWAP2 SWAP1 PUSH2 0x3EE0 JUMP JUMPDEST PUSH2 0x138F JUMP JUMPDEST STOP JUMPDEST CALLVALUE DUP1 ISZERO PUSH2 0x653 JUMPI PUSH0 DUP1 REVERT JUMPDEST POP PUSH2 0x66E PUSH1 0x4 DUP1 CALLDATASIZE SUB DUP2 ADD SWAP1 PUSH2 0x669 SWAP2 SWAP1 PUSH2 0x3F84 JUMP JUMPDEST PUSH2 0x1490 JUMP JUMPDEST STOP JUMPDEST CALLVALUE DUP1 ISZERO PUSH2 0x67B JUMPI PUSH0 DUP1 REVERT JUMPDEST POP PUSH2 0x696 PUSH1 0x4 DUP1 CALLDATASIZE SUB DUP2 ADD SWAP1 PUSH2 0x691 SWAP2 SWAP1 PUSH2 0x3FF0 JUMP JUMPDEST PUSH2 0x14A8 JUMP JUMPDEST STOP JUMPDEST CALLVALUE DUP1 ISZERO PUSH2 0x6A3 JUMPI PUSH0 DUP1 REVERT JUMPDEST POP PUSH2 0x6BE PUSH1 0x4 DUP1 CALLDATASIZE SUB DUP2 ADD SWAP1 PUSH2 0x6B9 SWAP2 SWAP1 PUSH2 0x4070 JUMP JUMPDEST PUSH2 0x1675 JUMP JUMPDEST PUSH1 0x40 MLOAD PUSH2 0x6CB SWAP2 SWAP1 PUSH2 0x33C2 JUMP JUMPDEST PUSH1 0x40 MLOAD DUP1 SWAP2 SUB SWAP1 RETURN JUMPDEST CALLVALUE DUP1 ISZERO PUSH2 0x6DF JUMPI PUSH0 DUP1 REVERT JUMPDEST POP PUSH2 0x6FA PUSH1 0x4 DUP1 CALLDATASIZE SUB DUP2 ADD SWAP1 PUSH2 0x6F5 SWAP2 SWAP1 PUSH2 0x3788 JUMP JUMPDEST PUSH2 0x1725 JUMP JUMPDEST STOP JUMPDEST PUSH1 0x60 PUSH0 PUSH2 0x72B PUSH0 CALLDATALOAD PUSH32 0xFFFFFFFF00000000000000000000000000000000000000000000000000000000 AND PUSH2 0x179E JUMP JUMPDEST POP SWAP1 POP PUSH0 PUSH20 0xFFFFFFFFFFFFFFFFFFFFFFFFFFFFFFFFFFFFFFFF AND DUP2 PUSH20 0xFFFFFFFFFFFFFFFFFFFFFFFFFFFFFFFFFFFFFFFF AND SUB PUSH2 0x7C1 JUMPI PUSH0 CALLDATALOAD PUSH32 0xFFFFFFFF00000000000000000000000000000000000000000000000000000000 AND PUSH1 0x40 MLOAD PUSH32 0xBB370B2B00000000000000000000000000000000000000000000000000000000 DUP2 MSTORE PUSH1 0x4 ADD PUSH2 0x7B8 SWAP2 SWAP1 PUSH2 0x40C6 JUMP JUMPDEST PUSH1 0x40 MLOAD DUP1 SWAP2 SUB SWAP1 REVERT JUMPDEST PUSH0 DUP1 DUP3 PUSH20 0xFFFFFFFFFFFFFFFFFFFFFFFFFFFFFFFFFFFFFFFF AND CALLVALUE DUP8 DUP8 CALLER CALLVALUE PUSH1 0x40 MLOAD PUSH1 0x20 ADD PUSH2 0x7F2 SWAP5 SWAP4 SWAP3 SWAP2 SWAP1 PUSH2 0x4172 JUMP JUMPDEST PUSH1 0x40 MLOAD PUSH1 0x20 DUP2 DUP4 SUB SUB DUP2 MSTORE SWAP1 PUSH1 0x40 MSTORE PUSH1 0x40 MLOAD PUSH2 0x80E SWAP2 SWAP1 PUSH2 0x41DC JUMP JUMPDEST PUSH0 PUSH1 0x40 MLOAD DUP1 DUP4 SUB DUP2 DUP6 DUP8 GAS CALL SWAP3 POP POP POP RETURNDATASIZE DUP1 PUSH0 DUP2 EQ PUSH2 0x848 JUMPI PUSH1 0x40 MLOAD SWAP2 POP PUSH1 0x1F NOT PUSH1 0x3F RETURNDATASIZE ADD AND DUP3 ADD PUSH1 0x40 MSTORE RETURNDATASIZE DUP3 MSTORE RETURNDATASIZE PUSH0 PUSH1 0x20 DUP5 ADD RETURNDATACOPY PUSH2 0x84D JUMP JUMPDEST PUSH1 0x60 SWAP2 POP JUMPDEST POP SWAP2 POP SWAP2 POP DUP2 ISZERO PUSH2 0x863 JUMPI DUP1 SWAP4 POP POP POP POP PUSH2 0x86C JUMP JUMPDEST DUP1 MLOAD DUP1 PUSH1 0x20 DUP4 ADD REVERT JUMPDEST SWAP3 SWAP2 POP POP JUMP JUMPDEST PUSH0 PUSH4 0x3A271706 PUSH1 0xE0 SHL PUSH28 0xFFFFFFFFFFFFFFFFFFFFFFFFFFFFFFFFFFFFFFFFFFFFFFFFFFFFFFFF NOT AND DUP3 PUSH28 0xFFFFFFFFFFFFFFFFFFFFFFFFFFFFFFFFFFFFFFFFFFFFFFFFFFFFFFFF NOT AND EQ DUP1 PUSH2 0x8CB JUMPI POP PUSH2 0x8CA DUP3 PUSH2 0x1854 JUMP JUMPDEST JUMPDEST DUP1 PUSH2 0x8DB JUMPI POP PUSH2 0x8DA DUP3 PUSH2 0x18B4 JUMP JUMPDEST JUMPDEST SWAP1 POP SWAP2 SWAP1 POP JUMP JUMPDEST PUSH1 0x7 PUSH0 SWAP1 SLOAD SWAP1 PUSH2 0x100 EXP SWAP1 DIV PUSH20 0xFFFFFFFFFFFFFFFFFFFFFFFFFFFFFFFFFFFFFFFF AND DUP2 JUMP JUMPDEST PUSH1 0x60 PUSH2 0x913 DUP4 DUP4 PUSH2 0x1918 JUMP JUMPDEST SWAP1 POP SWAP3 SWAP2 POP POP JUMP JUMPDEST PUSH0 PUSH1 0x2 SLOAD SWAP1 POP SWAP1 JUMP JUMPDEST PUSH1 0x60 DUP2 MLOAD DUP4 MLOAD EQ PUSH2 0x961 JUMPI PUSH1 0x40 MLOAD PUSH32 0x2FA71DFE00000000000000000000000000000000000000000000000000000000 DUP2 MSTORE PUSH1 0x4 ADD PUSH1 0x40 MLOAD DUP1 SWAP2 SUB SWAP1 REVERT JUMPDEST DUP3 MLOAD PUSH8 0xFFFFFFFFFFFFFFFF DUP2 GT ISZERO PUSH2 0x97C JUMPI PUSH2 0x97B PUSH2 0x310D JUMP JUMPDEST JUMPDEST PUSH1 0x40 MLOAD SWAP1 DUP1 DUP3 MSTORE DUP1 PUSH1 0x20 MUL PUSH1 0x20 ADD DUP3 ADD PUSH1 0x40 MSTORE DUP1 ISZERO PUSH2 0x9AF JUMPI DUP2 PUSH1 0x20 ADD JUMPDEST PUSH1 0x60 DUP2 MSTORE PUSH1 0x20 ADD SWAP1 PUSH1 0x1 SWAP1 SUB SWAP1 DUP2 PUSH2 0x99A JUMPI SWAP1 POP JUMPDEST POP SWAP1 POP PUSH0 JUMPDEST DUP4 MLOAD DUP2 LT ISZERO PUSH2 0xA24 JUMPI PUSH2 0x9FB DUP5 DUP3 DUP2 MLOAD DUP2 LT PUSH2 0x9D3 JUMPI PUSH2 0x9D2 PUSH2 0x41F2 JUMP JUMPDEST JUMPDEST PUSH1 0x20 MUL PUSH1 0x20 ADD ADD MLOAD DUP5 DUP4 DUP2 MLOAD DUP2 LT PUSH2 0x9EE JUMPI PUSH2 0x9ED PUSH2 0x41F2 JUMP JUMPDEST JUMPDEST PUSH1 0x20 MUL PUSH1 0x20 ADD ADD MLOAD PUSH2 0x1918 JUMP JUMPDEST DUP3 DUP3 DUP2 MLOAD DUP2 LT PUSH2 0xA0E JUMPI PUSH2 0xA0D PUSH2 0x41F2 JUMP JUMPDEST JUMPDEST PUSH1 0x20 MUL PUSH1 0x20 ADD ADD DUP2 SWAP1 MSTORE POP DUP1 PUSH1 0x1 ADD SWAP1 POP PUSH2 0x9B4 JUMP JUMPDEST POP SWAP3 SWAP2 POP POP JUMP JUMPDEST PUSH0 DUP1 PUSH1 0x3 PUSH0 DUP5 DUP2 MSTORE PUSH1 0x20 ADD SWAP1 DUP2 MSTORE PUSH1 0x20 ADD PUSH0 KECCAK256 PUSH0 SWAP1 SLOAD SWAP1 PUSH2 0x100 EXP SWAP1 DIV PUSH20 0xFFFFFFFFFFFFFFFFFFFFFFFFFFFFFFFFFFFFFFFF AND SWAP1 POP PUSH0 PUSH20 0xFFFFFFFFFFFFFFFFFFFFFFFFFFFFFFFFFFFFFFFF AND DUP2 PUSH20 0xFFFFFFFFFFFFFFFFFFFFFFFFFFFFFFFFFFFFFFFF AND SUB PUSH2 0xAD0 JUMPI DUP3 PUSH1 0x40 MLOAD PUSH32 0xAE8F9A3600000000000000000000000000000000000000000000000000000000 DUP2 MSTORE PUSH1 0x4 ADD PUSH2 0xAC7 SWAP2 SWAP1 PUSH2 0x422E JUMP JUMPDEST PUSH1 0x40 MLOAD DUP1 SWAP2 SUB SWAP1 REVERT JUMPDEST DUP1 SWAP2 POP POP SWAP2 SWAP1 POP JUMP JUMPDEST PUSH0 PUSH2 0xAE4 DUP4 DUP4 PUSH2 0x192C JUMP JUMPDEST SWAP1 POP SWAP3 SWAP2 POP POP JUMP JUMPDEST PUSH1 0x60 PUSH2 0xAF7 DUP3 PUSH2 0x1996 JUMP JUMPDEST PUSH2 0xB10 PUSH1 0x5 PUSH0 DUP5 DUP2 MSTORE PUSH1 0x20 ADD SWAP1 DUP2 MSTORE PUSH1 0x20 ADD PUSH0 KECCAK256 PUSH2 0x19E3 JUMP JUMPDEST SWAP1 POP SWAP2 SWAP1 POP JUMP JUMPDEST PUSH2 0xB21 CALLER DUP5 PUSH2 0x192C JUMP JUMPDEST PUSH2 0xB64 JUMPI DUP3 CALLER PUSH1 0x40 MLOAD PUSH32 0x1294D2A900000000000000000000000000000000000000000000000000000000 DUP2 MSTORE PUSH1 0x4 ADD PUSH2 0xB5B SWAP3 SWAP2 SWAP1 PUSH2 0x4247 JUMP JUMPDEST PUSH1 0x40 MLOAD DUP1 SWAP2 SUB SWAP1 REVERT JUMPDEST PUSH2 0xB71 DUP6 DUP6 DUP6 DUP6 DUP6 PUSH2 0x1A02 JUMP JUMPDEST POP POP POP POP POP JUMP JUMPDEST PUSH1 0x60 PUSH2 0xB83 DUP3 PUSH2 0x1D2C JUMP JUMPDEST SWAP1 POP SWAP2 SWAP1 POP JUMP JUMPDEST PUSH1 0x60 DUP3 DUP3 SWAP1 POP PUSH8 0xFFFFFFFFFFFFFFFF DUP2 GT ISZERO PUSH2 0xBA9 JUMPI PUSH2 0xBA8 PUSH2 0x310D JUMP JUMPDEST JUMPDEST PUSH1 0x40 MLOAD SWAP1 DUP1 DUP3 MSTORE DUP1 PUSH1 0x20 MUL PUSH1 0x20 ADD DUP3 ADD PUSH1 0x40 MSTORE DUP1 ISZERO PUSH2 0xBDC JUMPI DUP2 PUSH1 0x20 ADD JUMPDEST PUSH1 0x60 DUP2 MSTORE PUSH1 0x20 ADD SWAP1 PUSH1 0x1 SWAP1 SUB SWAP1 DUP2 PUSH2 0xBC7 JUMPI SWAP1 POP JUMPDEST POP SWAP1 POP PUSH0 JUMPDEST DUP4 DUP4 SWAP1 POP DUP2 LT ISZERO PUSH2 0xCF9 JUMPI PUSH0 DUP1 ADDRESS PUSH20 0xFFFFFFFFFFFFFFFFFFFFFFFFFFFFFFFFFFFFFFFF AND DUP7 DUP7 DUP6 DUP2 DUP2 LT PUSH2 0xC18 JUMPI PUSH2 0xC17 PUSH2 0x41F2 JUMP JUMPDEST JUMPDEST SWAP1 POP PUSH1 0x20 MUL DUP2 ADD SWAP1 PUSH2 0xC2A SWAP2 SWAP1 PUSH2 0x427A JUMP JUMPDEST PUSH1 0x40 MLOAD PUSH2 0xC38 SWAP3 SWAP2 SWAP1 PUSH2 0x42DC JUMP JUMPDEST PUSH0 PUSH1 0x40 MLOAD DUP1 DUP4 SUB DUP2 DUP6 GAS DELEGATECALL SWAP2 POP POP RETURNDATASIZE DUP1 PUSH0 DUP2 EQ PUSH2 0xC70 JUMPI PUSH1 0x40 MLOAD SWAP2 POP PUSH1 0x1F NOT PUSH1 0x3F RETURNDATASIZE ADD AND DUP3 ADD PUSH1 0x40 MSTORE RETURNDATASIZE DUP3 MSTORE RETURNDATASIZE PUSH0 PUSH1 0x20 DUP5 ADD RETURNDATACOPY PUSH2 0xC75 JUMP JUMPDEST PUSH1 0x60 SWAP2 POP JUMPDEST POP SWAP2 POP SWAP2 POP DUP2 PUSH2 0xCCD JUMPI PUSH0 DUP2 MLOAD EQ PUSH2 0xC90 JUMPI DUP1 MLOAD DUP1 DUP3 PUSH1 0x20 ADD REVERT JUMPDEST DUP3 PUSH1 0x40 MLOAD PUSH32 0x234EB81900000000000000000000000000000000000000000000000000000000 DUP2 MSTORE PUSH1 0x4 ADD PUSH2 0xCC4 SWAP2 SWAP1 PUSH2 0x30F0 JUMP JUMPDEST PUSH1 0x40 MLOAD DUP1 SWAP2 SUB SWAP1 REVERT JUMPDEST DUP1 DUP5 DUP5 DUP2 MLOAD DUP2 LT PUSH2 0xCE1 JUMPI PUSH2 0xCE0 PUSH2 0x41F2 JUMP JUMPDEST JUMPDEST PUSH1 0x20 MUL PUSH1 0x20 ADD ADD DUP2 SWAP1 MSTORE POP DUP3 PUSH1 0x1 ADD SWAP3 POP POP POP PUSH2 0xBE1 JUMP JUMPDEST POP SWAP3 SWAP2 POP POP JUMP JUMPDEST PUSH0 PUSH2 0xD46 PUSH1 0x4 PUSH0 DUP5 PUSH20 0xFFFFFFFFFFFFFFFFFFFFFFFFFFFFFFFFFFFFFFFF AND PUSH20 0xFFFFFFFFFFFFFFFFFFFFFFFFFFFFFFFFFFFFFFFF AND DUP2 MSTORE PUSH1 0x20 ADD SWAP1 DUP2 MSTORE PUSH1 0x20 ADD PUSH0 KECCAK256 PUSH2 0x1DCD JUMP JUMPDEST SWAP1 POP SWAP2 SWAP1 POP JUMP JUMPDEST PUSH2 0xD55 PUSH2 0x1DE0 JUMP JUMPDEST PUSH2 0xD5E PUSH0 PUSH2 0x1E59 JUMP JUMPDEST JUMP JUMPDEST PUSH0 DUP6 MLOAD SWAP1 POP DUP5 MLOAD DUP2 EQ ISZERO DUP1 PUSH2 0xD76 JUMPI POP DUP4 MLOAD DUP2 EQ ISZERO JUMPDEST DUP1 PUSH2 0xD82 JUMPI POP DUP3 MLOAD DUP2 EQ ISZERO JUMPDEST DUP1 PUSH2 0xD8E JUMPI POP DUP2 MLOAD DUP2 EQ ISZERO JUMPDEST ISZERO PUSH2 0xDC5 JUMPI PUSH1 0x40 MLOAD PUSH32 0x93A8311900000000000000000000000000000000000000000000000000000000 DUP2 MSTORE PUSH1 0x4 ADD PUSH1 0x40 MLOAD DUP1 SWAP2 SUB SWAP1 REVERT JUMPDEST PUSH0 JUMPDEST DUP2 DUP2 LT ISZERO PUSH2 0xE69 JUMPI PUSH2 0xE5E DUP8 DUP3 DUP2 MLOAD DUP2 LT PUSH2 0xDE5 JUMPI PUSH2 0xDE4 PUSH2 0x41F2 JUMP JUMPDEST JUMPDEST PUSH1 0x20 MUL PUSH1 0x20 ADD ADD MLOAD DUP8 DUP4 DUP2 MLOAD DUP2 LT PUSH2 0xE00 JUMPI PUSH2 0xDFF PUSH2 0x41F2 JUMP JUMPDEST JUMPDEST PUSH1 0x20 MUL PUSH1 0x20 ADD ADD MLOAD DUP8 DUP5 DUP2 MLOAD DUP2 LT PUSH2 0xE1B JUMPI PUSH2 0xE1A PUSH2 0x41F2 JUMP JUMPDEST JUMPDEST PUSH1 0x20 MUL PUSH1 0x20 ADD ADD MLOAD DUP8 DUP6 DUP2 MLOAD DUP2 LT PUSH2 0xE36 JUMPI PUSH2 0xE35 PUSH2 0x41F2 JUMP JUMPDEST JUMPDEST PUSH1 0x20 MUL PUSH1 0x20 ADD ADD MLOAD DUP8 DUP7 DUP2 MLOAD DUP2 LT PUSH2 0xE51 JUMPI PUSH2 0xE50 PUSH2 0x41F2 JUMP JUMPDEST JUMPDEST PUSH1 0x20 MUL PUSH1 0x20 ADD ADD MLOAD PUSH2 0xB17 JUMP JUMPDEST DUP1 PUSH1 0x1 ADD SWAP1 POP PUSH2 0xDC7 JUMP JUMPDEST POP POP POP POP POP POP POP JUMP JUMPDEST PUSH2 0xE7A PUSH2 0x1DE0 JUMP JUMPDEST PUSH0 CALLVALUE EQ PUSH2 0xEB3 JUMPI PUSH1 0x40 MLOAD PUSH32 0xF36BA73700000000000000000000000000000000000000000000000000000000 DUP2 MSTORE PUSH1 0x4 ADD PUSH1 0x40 MLOAD DUP1 SWAP2 SUB SWAP1 REVERT JUMPDEST PUSH2 0xEBD DUP3 DUP3 PUSH2 0x1F4F JUMP JUMPDEST POP POP JUMP JUMPDEST PUSH0 PUSH2 0xECB DUP4 PUSH2 0xA2B JUMP JUMPDEST SWAP1 POP CALLER PUSH20 0xFFFFFFFFFFFFFFFFFFFFFFFFFFFFFFFFFFFFFFFF AND DUP2 PUSH20 0xFFFFFFFFFFFFFFFFFFFFFFFFFFFFFFFFFFFFFFFF AND EQ PUSH2 0xF41 JUMPI DUP1 DUP4 CALLER PUSH1 0x40 MLOAD PUSH32 0x5B271EA200000000000000000000000000000000000000000000000000000000 DUP2 MSTORE PUSH1 0x4 ADD PUSH2 0xF38 SWAP4 SWAP3 SWAP2 SWAP1 PUSH2 0x42F4 JUMP JUMPDEST PUSH1 0x40 MLOAD DUP1 SWAP2 SUB SWAP1 REVERT JUMPDEST PUSH0 PUSH20 0xFFFFFFFFFFFFFFFFFFFFFFFFFFFFFFFFFFFFFFFF AND DUP5 PUSH20 0xFFFFFFFFFFFFFFFFFFFFFFFFFFFFFFFFFFFFFFFF AND SUB PUSH2 0xFA6 JUMPI PUSH1 0x40 MLOAD PUSH32 0x9577B8B300000000000000000000000000000000000000000000000000000000 DUP2 MSTORE PUSH1 0x4 ADD PUSH1 0x40 MLOAD DUP1 SWAP2 SUB SWAP1 REVERT JUMPDEST DUP4 PUSH20 0xFFFFFFFFFFFFFFFFFFFFFFFFFFFFFFFFFFFFFFFF AND DUP2 PUSH20 0xFFFFFFFFFFFFFFFFFFFFFFFFFFFFFFFFFFFFFFFF AND SUB PUSH2 0x100B JUMPI PUSH1 0x40 MLOAD PUSH32 0x89FDAD6200000000000000000000000000000000000000000000000000000000 DUP2 MSTORE PUSH1 0x4 ADD PUSH1 0x40 MLOAD DUP1 SWAP2 SUB SWAP1 REVERT JUMPDEST PUSH0 PUSH2 0x102F DUP6 PUSH1 0x5 PUSH0 DUP8 DUP2 MSTORE PUSH1 0x20 ADD SWAP1 DUP2 MSTORE PUSH1 0x20 ADD PUSH0 KECCAK256 PUSH2 0x1FB8 SWAP1 SWAP2 SWAP1 PUSH4 0xFFFFFFFF AND JUMP JUMPDEST SWAP1 POP DUP1 PUSH2 0x1075 JUMPI DUP5 DUP5 PUSH1 0x40 MLOAD PUSH32 0xA7626B6800000000000000000000000000000000000000000000000000000000 DUP2 MSTORE PUSH1 0x4 ADD PUSH2 0x106C SWAP3 SWAP2 SWAP1 PUSH2 0x4329 JUMP JUMPDEST PUSH1 0x40 MLOAD DUP1 SWAP2 SUB SWAP1 REVERT JUMPDEST DUP4 DUP3 PUSH20 0xFFFFFFFFFFFFFFFFFFFFFFFFFFFFFFFFFFFFFFFF AND DUP7 PUSH20 0xFFFFFFFFFFFFFFFFFFFFFFFFFFFFFFFFFFFFFFFF AND PUSH32 0x1B1B58AA2EC0CEC2228B2D37124556D41F5A1F7B12F089171F896CC236671215 DUP7 PUSH1 0x40 MLOAD PUSH2 0x10D3 SWAP2 SWAP1 PUSH2 0x30B8 JUMP JUMPDEST PUSH1 0x40 MLOAD DUP1 SWAP2 SUB SWAP1 LOG4 PUSH0 CALLER DUP6 PUSH1 0x1 DUP7 PUSH1 0x40 MLOAD PUSH1 0x20 ADD PUSH2 0x10F4 SWAP5 SWAP4 SWAP3 SWAP2 SWAP1 PUSH2 0x4350 JUMP JUMPDEST PUSH1 0x40 MLOAD PUSH1 0x20 DUP2 DUP4 SUB SUB DUP2 MSTORE SWAP1 PUSH1 0x40 MSTORE SWAP1 POP PUSH2 0x110F DUP7 DUP3 PUSH2 0x1FE5 JUMP JUMPDEST POP POP POP POP POP POP JUMP JUMPDEST PUSH0 DUP1 PUSH0 SWAP1 SLOAD SWAP1 PUSH2 0x100 EXP SWAP1 DIV PUSH20 0xFFFFFFFFFFFFFFFFFFFFFFFFFFFFFFFFFFFFFFFF AND SWAP1 POP SWAP1 JUMP JUMPDEST PUSH2 0x1146 PUSH2 0x1DE0 JUMP JUMPDEST PUSH0 CALLVALUE EQ PUSH2 0x117F JUMPI PUSH1 0x40 MLOAD PUSH32 0xF36BA73700000000000000000000000000000000000000000000000000000000 DUP2 MSTORE PUSH1 0x4 ADD PUSH1 0x40 MLOAD DUP1 SWAP2 SUB SWAP1 REVERT JUMPDEST DUP1 MLOAD DUP3 MLOAD EQ PUSH2 0x11BA JUMPI PUSH1 0x40 MLOAD PUSH32 0x3BCC897900000000000000000000000000000000000000000000000000000000 DUP2 MSTORE PUSH1 0x4 ADD PUSH1 0x40 MLOAD DUP1 SWAP2 SUB SWAP1 REVERT JUMPDEST PUSH0 DUP3 MLOAD SUB PUSH2 0x11F4 JUMPI PUSH1 0x40 MLOAD PUSH32 0x97DA5F9500000000000000000000000000000000000000000000000000000000 DUP2 MSTORE PUSH1 0x4 ADD PUSH1 0x40 MLOAD DUP1 SWAP2 SUB SWAP1 REVERT JUMPDEST PUSH0 JUMPDEST DUP3 MLOAD DUP2 LT ISZERO PUSH2 0x1248 JUMPI PUSH2 0x123D DUP4 DUP3 DUP2 MLOAD DUP2 LT PUSH2 0x1215 JUMPI PUSH2 0x1214 PUSH2 0x41F2 JUMP JUMPDEST JUMPDEST PUSH1 0x20 MUL PUSH1 0x20 ADD ADD MLOAD DUP4 DUP4 DUP2 MLOAD DUP2 LT PUSH2 0x1230 JUMPI PUSH2 0x122F PUSH2 0x41F2 JUMP JUMPDEST JUMPDEST PUSH1 0x20 MUL PUSH1 0x20 ADD ADD MLOAD PUSH2 0x1F4F JUMP JUMPDEST DUP1 PUSH1 0x1 ADD SWAP1 POP PUSH2 0x11F6 JUMP JUMPDEST POP POP POP JUMP JUMPDEST PUSH1 0x60 PUSH2 0x1294 PUSH1 0x4 PUSH0 DUP5 PUSH20 0xFFFFFFFFFFFFFFFFFFFFFFFFFFFFFFFFFFFFFFFF AND PUSH20 0xFFFFFFFFFFFFFFFFFFFFFFFFFFFFFFFFFFFFFFFF AND DUP2 MSTORE PUSH1 0x20 ADD SWAP1 DUP2 MSTORE PUSH1 0x20 ADD PUSH0 KECCAK256 PUSH2 0x2016 JUMP JUMPDEST SWAP1 POP SWAP2 SWAP1 POP JUMP JUMPDEST PUSH0 PUSH2 0x12A4 PUSH2 0x1DE0 JUMP JUMPDEST PUSH1 0x7 PUSH0 SWAP1 SLOAD SWAP1 PUSH2 0x100 EXP SWAP1 DIV PUSH20 0xFFFFFFFFFFFFFFFFFFFFFFFFFFFFFFFFFFFFFFFF AND PUSH20 0xFFFFFFFFFFFFFFFFFFFFFFFFFFFFFFFFFFFFFFFF AND PUSH4 0xB3B2981E DUP10 DUP10 DUP10 DUP10 DUP10 DUP10 DUP10 PUSH1 0x40 MLOAD DUP9 PUSH4 0xFFFFFFFF AND PUSH1 0xE0 SHL DUP2 MSTORE PUSH1 0x4 ADD PUSH2 0x130A SWAP8 SWAP7 SWAP6 SWAP5 SWAP4 SWAP3 SWAP2 SWAP1 PUSH2 0x43EC JUMP JUMPDEST PUSH1 0x20 PUSH1 0x40 MLOAD DUP1 DUP4 SUB DUP2 PUSH0 DUP8 GAS CALL ISZERO DUP1 ISZERO PUSH2 0x1326 JUMPI RETURNDATASIZE PUSH0 DUP1 RETURNDATACOPY RETURNDATASIZE PUSH0 REVERT JUMPDEST POP POP POP POP PUSH1 0x40 MLOAD RETURNDATASIZE PUSH1 0x1F NOT PUSH1 0x1F DUP3 ADD AND DUP3 ADD DUP1 PUSH1 0x40 MSTORE POP DUP2 ADD SWAP1 PUSH2 0x134A SWAP2 SWAP1 PUSH2 0x4482 JUMP JUMPDEST SWAP1 POP PUSH0 DUP2 PUSH20 0xFFFFFFFFFFFFFFFFFFFFFFFFFFFFFFFFFFFFFFFF AND PUSH0 SHL SWAP1 POP PUSH2 0x1383 ADDRESS DUP3 PUSH1 0x1 PUSH1 0x40 MLOAD DUP1 PUSH1 0x20 ADD PUSH1 0x40 MSTORE DUP1 PUSH0 DUP2 MSTORE POP PUSH2 0x2035 JUMP JUMPDEST POP SWAP8 SWAP7 POP POP POP POP POP POP POP JUMP JUMPDEST PUSH2 0x1397 PUSH2 0x1DE0 JUMP JUMPDEST DUP2 MLOAD DUP4 MLOAD EQ ISZERO DUP1 PUSH2 0x13AA JUMPI POP DUP1 MLOAD DUP3 MLOAD EQ ISZERO JUMPDEST ISZERO PUSH2 0x13E1 JUMPI PUSH1 0x40 MLOAD PUSH32 0x2FA71DFE00000000000000000000000000000000000000000000000000000000 DUP2 MSTORE PUSH1 0x4 ADD PUSH1 0x40 MLOAD DUP1 SWAP2 SUB SWAP1 REVERT JUMPDEST PUSH0 DUP4 MLOAD SUB PUSH2 0x141B JUMPI PUSH1 0x40 MLOAD PUSH32 0x80C9830500000000000000000000000000000000000000000000000000000000 DUP2 MSTORE PUSH1 0x4 ADD PUSH1 0x40 MLOAD DUP1 SWAP2 SUB SWAP1 REVERT JUMPDEST PUSH0 JUMPDEST DUP4 MLOAD DUP2 LT ISZERO PUSH2 0x148A JUMPI PUSH2 0x147F DUP5 DUP3 DUP2 MLOAD DUP2 LT PUSH2 0x143C JUMPI PUSH2 0x143B PUSH2 0x41F2 JUMP JUMPDEST JUMPDEST PUSH1 0x20 MUL PUSH1 0x20 ADD ADD MLOAD DUP5 DUP4 DUP2 MLOAD DUP2 LT PUSH2 0x1457 JUMPI PUSH2 0x1456 PUSH2 0x41F2 JUMP JUMPDEST JUMPDEST PUSH1 0x20 MUL PUSH1 0x20 ADD ADD MLOAD DUP5 DUP5 DUP2 MLOAD DUP2 LT PUSH2 0x1472 JUMPI PUSH2 0x1471 PUSH2 0x41F2 JUMP JUMPDEST JUMPDEST PUSH1 0x20 MUL PUSH1 0x20 ADD ADD MLOAD PUSH2 0x22A3 JUMP JUMPDEST DUP1 PUSH1 0x1 ADD SWAP1 POP PUSH2 0x141D JUMP JUMPDEST POP POP POP POP JUMP JUMPDEST PUSH2 0x1498 PUSH2 0x1DE0 JUMP JUMPDEST PUSH2 0x14A3 DUP4 DUP4 DUP4 PUSH2 0x22A3 JUMP JUMPDEST POP POP POP JUMP JUMPDEST PUSH0 PUSH2 0x14B2 DUP5 PUSH2 0xA2B JUMP JUMPDEST SWAP1 POP DUP1 PUSH20 0xFFFFFFFFFFFFFFFFFFFFFFFFFFFFFFFFFFFFFFFF AND CALLER PUSH20 0xFFFFFFFFFFFFFFFFFFFFFFFFFFFFFFFFFFFFFFFF AND EQ PUSH2 0x155C JUMPI CALLER PUSH20 0xFFFFFFFFFFFFFFFFFFFFFFFFFFFFFFFFFFFFFFFF AND DUP6 PUSH20 0xFFFFFFFFFFFFFFFFFFFFFFFFFFFFFFFFFFFFFFFF AND EQ PUSH2 0x155B JUMPI CALLER DUP2 DUP6 PUSH1 0x40 MLOAD PUSH32 0x760B5ACD00000000000000000000000000000000000000000000000000000000 DUP2 MSTORE PUSH1 0x4 ADD PUSH2 0x1552 SWAP4 SWAP3 SWAP2 SWAP1 PUSH2 0x44AD JUMP JUMPDEST PUSH1 0x40 MLOAD DUP1 SWAP2 SUB SWAP1 REVERT JUMPDEST JUMPDEST PUSH0 PUSH20 0xFFFFFFFFFFFFFFFFFFFFFFFFFFFFFFFFFFFFFFFF AND DUP6 PUSH20 0xFFFFFFFFFFFFFFFFFFFFFFFFFFFFFFFFFFFFFFFF AND SUB PUSH2 0x15C1 JUMPI PUSH1 0x40 MLOAD PUSH32 0x9577B8B300000000000000000000000000000000000000000000000000000000 DUP2 MSTORE PUSH1 0x4 ADD PUSH1 0x40 MLOAD DUP1 SWAP2 SUB SWAP1 REVERT JUMPDEST DUP5 PUSH20 0xFFFFFFFFFFFFFFFFFFFFFFFFFFFFFFFFFFFFFFFF AND DUP2 PUSH20 0xFFFFFFFFFFFFFFFFFFFFFFFFFFFFFFFFFFFFFFFF AND SUB PUSH2 0x1626 JUMPI PUSH1 0x40 MLOAD PUSH32 0x89FDAD6200000000000000000000000000000000000000000000000000000000 DUP2 MSTORE PUSH1 0x4 ADD PUSH1 0x40 MLOAD DUP1 SWAP2 SUB SWAP1 REVERT JUMPDEST PUSH2 0x1633 DUP6 DUP3 DUP7 DUP7 DUP7 PUSH2 0x22EC JUMP JUMPDEST DUP3 ISZERO PUSH2 0x166E JUMPI PUSH0 DUP2 DUP6 PUSH0 DUP6 PUSH1 0x40 MLOAD PUSH1 0x20 ADD PUSH2 0x1651 SWAP5 SWAP4 SWAP3 SWAP2 SWAP1 PUSH2 0x4350 JUMP JUMPDEST PUSH1 0x40 MLOAD PUSH1 0x20 DUP2 DUP4 SUB SUB DUP2 MSTORE SWAP1 PUSH1 0x40 MSTORE SWAP1 POP PUSH2 0x166C DUP7 DUP3 PUSH2 0x1FE5 JUMP JUMPDEST POP JUMPDEST POP POP POP POP POP JUMP JUMPDEST PUSH1 0x60 DUP2 MLOAD PUSH8 0xFFFFFFFFFFFFFFFF DUP2 GT ISZERO PUSH2 0x1692 JUMPI PUSH2 0x1691 PUSH2 0x310D JUMP JUMPDEST JUMPDEST PUSH1 0x40 MLOAD SWAP1 DUP1 DUP3 MSTORE DUP1 PUSH1 0x20 MUL PUSH1 0x20 ADD DUP3 ADD PUSH1 0x40 MSTORE DUP1 ISZERO PUSH2 0x16C5 JUMPI DUP2 PUSH1 0x20 ADD JUMPDEST PUSH1 0x60 DUP2 MSTORE PUSH1 0x20 ADD SWAP1 PUSH1 0x1 SWAP1 SUB SWAP1 DUP2 PUSH2 0x16B0 JUMPI SWAP1 POP JUMPDEST POP SWAP1 POP PUSH0 JUMPDEST DUP3 MLOAD DUP2 LT ISZERO PUSH2 0x171F JUMPI PUSH2 0x16F6 DUP4 DUP3 DUP2 MLOAD DUP2 LT PUSH2 0x16E9 JUMPI PUSH2 0x16E8 PUSH2 0x41F2 JUMP JUMPDEST JUMPDEST PUSH1 0x20 MUL PUSH1 0x20 ADD ADD MLOAD PUSH2 0x1D2C JUMP JUMPDEST DUP3 DUP3 DUP2 MLOAD DUP2 LT PUSH2 0x1709 JUMPI PUSH2 0x1708 PUSH2 0x41F2 JUMP JUMPDEST JUMPDEST PUSH1 0x20 MUL PUSH1 0x20 ADD ADD DUP2 SWAP1 MSTORE POP DUP1 PUSH1 0x1 ADD SWAP1 POP PUSH2 0x16CA JUMP JUMPDEST POP SWAP2 SWAP1 POP JUMP JUMPDEST PUSH2 0x172D PUSH2 0x1DE0 JUMP JUMPDEST PUSH0 PUSH20 0xFFFFFFFFFFFFFFFFFFFFFFFFFFFFFFFFFFFFFFFF AND DUP2 PUSH20 0xFFFFFFFFFFFFFFFFFFFFFFFFFFFFFFFFFFFFFFFF AND SUB PUSH2 0x1792 JUMPI PUSH1 0x40 MLOAD PUSH32 0x1AD8836C00000000000000000000000000000000000000000000000000000000 DUP2 MSTORE PUSH1 0x4 ADD PUSH1 0x40 MLOAD DUP1 SWAP2 SUB SWAP1 REVERT JUMPDEST PUSH2 0x179B DUP2 PUSH2 0x1E59 JUMP JUMPDEST POP JUMP JUMPDEST PUSH0 DUP1 PUSH0 PUSH2 0x17D7 PUSH10 0xCEE78B4094DA86011096 PUSH1 0xB0 SHL DUP6 PUSH28 0xFFFFFFFFFFFFFFFFFFFFFFFFFFFFFFFFFFFFFFFFFFFFFFFFFFFFFFFF NOT AND PUSH2 0x23C6 JUMP JUMPDEST SWAP1 POP PUSH0 PUSH2 0x17E3 DUP3 PUSH2 0x1D2C JUMP JUMPDEST SWAP1 POP PUSH1 0x14 DUP2 MLOAD EQ ISZERO DUP1 ISZERO PUSH2 0x17F8 JUMPI POP PUSH0 DUP2 MLOAD EQ ISZERO JUMPDEST ISZERO PUSH2 0x183A JUMPI DUP1 PUSH1 0x40 MLOAD PUSH32 0x42BFE79F00000000000000000000000000000000000000000000000000000000 DUP2 MSTORE PUSH1 0x4 ADD PUSH2 0x1831 SWAP2 SWAP1 PUSH2 0x30B8 JUMP JUMPDEST PUSH1 0x40 MLOAD DUP1 SWAP2 SUB SWAP1 REVERT JUMPDEST DUP1 PUSH2 0x1844 SWAP1 PUSH2 0x453C JUMP JUMPDEST PUSH1 0x60 SHR PUSH1 0x1 SWAP4 POP SWAP4 POP POP POP SWAP2 POP SWAP2 JUMP JUMPDEST PUSH0 PUSH4 0xA918FA6B PUSH1 0xE0 SHL PUSH28 0xFFFFFFFFFFFFFFFFFFFFFFFFFFFFFFFFFFFFFFFFFFFFFFFFFFFFFFFF NOT AND DUP3 PUSH28 0xFFFFFFFFFFFFFFFFFFFFFFFFFFFFFFFFFFFFFFFFFFFFFFFFFFFFFFFF NOT AND EQ DUP1 PUSH2 0x18AD JUMPI POP PUSH2 0x18AC DUP3 PUSH2 0x2404 JUMP JUMPDEST JUMPDEST SWAP1 POP SWAP2 SWAP1 POP JUMP JUMPDEST PUSH0 DUP1 PUSH2 0x18C6 PUSH4 0x1FFC9A7 PUSH1 0xE0 SHL PUSH2 0x179E JUMP JUMPDEST POP SWAP1 POP PUSH0 PUSH20 0xFFFFFFFFFFFFFFFFFFFFFFFFFFFFFFFFFFFFFFFF AND DUP2 PUSH20 0xFFFFFFFFFFFFFFFFFFFFFFFFFFFFFFFFFFFFFFFF AND SUB PUSH2 0x1905 JUMPI PUSH0 SWAP2 POP POP PUSH2 0x1913 JUMP JUMPDEST PUSH2 0x190F DUP2 DUP5 PUSH2 0x2464 JUMP JUMPDEST SWAP2 POP POP JUMPDEST SWAP2 SWAP1 POP JUMP JUMPDEST PUSH1 0x60 PUSH2 0x1924 DUP4 DUP4 PUSH2 0x24FD JUMP JUMPDEST SWAP1 POP SWAP3 SWAP2 POP POP JUMP JUMPDEST PUSH0 PUSH2 0x1936 DUP3 PUSH2 0xA2B JUMP JUMPDEST PUSH20 0xFFFFFFFFFFFFFFFFFFFFFFFFFFFFFFFFFFFFFFFF AND DUP4 PUSH20 0xFFFFFFFFFFFFFFFFFFFFFFFFFFFFFFFFFFFFFFFF AND EQ DUP1 PUSH2 0x198E JUMPI POP PUSH2 0x198D DUP4 PUSH1 0x5 PUSH0 DUP6 DUP2 MSTORE PUSH1 0x20 ADD SWAP1 DUP2 MSTORE PUSH1 0x20 ADD PUSH0 KECCAK256 PUSH2 0x2584 SWAP1 SWAP2 SWAP1 PUSH4 0xFFFFFFFF AND JUMP JUMPDEST JUMPDEST SWAP1 POP SWAP3 SWAP2 POP POP JUMP JUMPDEST PUSH2 0x199F DUP2 PUSH2 0x25B1 JUMP JUMPDEST PUSH2 0x19E0 JUMPI DUP1 PUSH1 0x40 MLOAD PUSH32 0xAE8F9A3600000000000000000000000000000000000000000000000000000000 DUP2 MSTORE PUSH1 0x4 ADD PUSH2 0x19D7 SWAP2 SWAP1 PUSH2 0x422E JUMP JUMPDEST PUSH1 0x40 MLOAD DUP1 SWAP2 SUB SWAP1 REVERT JUMPDEST POP JUMP JUMPDEST PUSH1 0x60 PUSH0 PUSH2 0x19F1 DUP4 PUSH0 ADD PUSH2 0x2619 JUMP JUMPDEST SWAP1 POP PUSH1 0x60 DUP2 SWAP1 POP DUP1 SWAP3 POP POP POP SWAP2 SWAP1 POP JUMP JUMPDEST PUSH0 PUSH2 0x1A0C DUP5 PUSH2 0xA2B JUMP JUMPDEST SWAP1 POP DUP6 PUSH20 0xFFFFFFFFFFFFFFFFFFFFFFFFFFFFFFFFFFFFFFFF AND DUP2 PUSH20 0xFFFFFFFFFFFFFFFFFFFFFFFFFFFFFFFFFFFFFFFF AND EQ PUSH2 0x1A82 JUMPI DUP1 DUP5 DUP8 PUSH1 0x40 MLOAD PUSH32 0x5B271EA200000000000000000000000000000000000000000000000000000000 DUP2 MSTORE PUSH1 0x4 ADD PUSH2 0x1A79 SWAP4 SWAP3 SWAP2 SWAP1 PUSH2 0x42F4 JUMP JUMPDEST PUSH1 0x40 MLOAD DUP1 SWAP2 SUB SWAP1 REVERT JUMPDEST PUSH0 PUSH20 0xFFFFFFFFFFFFFFFFFFFFFFFFFFFFFFFFFFFFFFFF AND DUP6 PUSH20 0xFFFFFFFFFFFFFFFFFFFFFFFFFFFFFFFFFFFFFFFF AND SUB PUSH2 0x1AE7 JUMPI PUSH1 0x40 MLOAD PUSH32 0x24ECEF4D00000000000000000000000000000000000000000000000000000000 DUP2 MSTORE PUSH1 0x4 ADD PUSH1 0x40 MLOAD DUP1 SWAP2 SUB SWAP1 REVERT JUMPDEST PUSH2 0x1AF3 DUP7 DUP7 DUP7 DUP6 PUSH2 0x2672 JUMP JUMPDEST PUSH0 PUSH2 0x1AFD DUP6 PUSH2 0xA2B JUMP JUMPDEST SWAP1 POP DUP1 PUSH20 0xFFFFFFFFFFFFFFFFFFFFFFFFFFFFFFFFFFFFFFFF AND DUP3 PUSH20 0xFFFFFFFFFFFFFFFFFFFFFFFFFFFFFFFFFFFFFFFF AND EQ PUSH2 0x1B73 JUMPI DUP5 DUP3 DUP3 PUSH1 0x40 MLOAD PUSH32 0x5A9C31D300000000000000000000000000000000000000000000000000000000 DUP2 MSTORE PUSH1 0x4 ADD PUSH2 0x1B6A SWAP4 SWAP3 SWAP2 SWAP1 PUSH2 0x45A2 JUMP JUMPDEST PUSH1 0x40 MLOAD DUP1 SWAP2 SUB SWAP1 REVERT JUMPDEST PUSH2 0x1B7D DUP8 DUP7 PUSH2 0x2678 JUMP JUMPDEST PUSH2 0x1BCC DUP6 PUSH1 0x4 PUSH0 DUP11 PUSH20 0xFFFFFFFFFFFFFFFFFFFFFFFFFFFFFFFFFFFFFFFF AND PUSH20 0xFFFFFFFFFFFFFFFFFFFFFFFFFFFFFFFFFFFFFFFF AND DUP2 MSTORE PUSH1 0x20 ADD SWAP1 DUP2 MSTORE PUSH1 0x20 ADD PUSH0 KECCAK256 PUSH2 0x26E6 SWAP1 SWAP2 SWAP1 PUSH4 0xFFFFFFFF AND JUMP JUMPDEST POP PUSH2 0x1C1C DUP6 PUSH1 0x4 PUSH0 DUP10 PUSH20 0xFFFFFFFFFFFFFFFFFFFFFFFFFFFFFFFFFFFFFFFF AND PUSH20 0xFFFFFFFFFFFFFFFFFFFFFFFFFFFFFFFFFFFFFFFF AND DUP2 MSTORE PUSH1 0x20 ADD SWAP1 DUP2 MSTORE PUSH1 0x20 ADD PUSH0 KECCAK256 PUSH2 0x26FB SWAP1 SWAP2 SWAP1 PUSH4 0xFFFFFFFF AND JUMP JUMPDEST POP DUP6 PUSH1 0x3 PUSH0 DUP8 DUP2 MSTORE PUSH1 0x20 ADD SWAP1 DUP2 MSTORE PUSH1 0x20 ADD PUSH0 KECCAK256 PUSH0 PUSH2 0x100 EXP DUP2 SLOAD DUP2 PUSH20 0xFFFFFFFFFFFFFFFFFFFFFFFFFFFFFFFFFFFFFFFF MUL NOT AND SWAP1 DUP4 PUSH20 0xFFFFFFFFFFFFFFFFFFFFFFFFFFFFFFFFFFFFFFFF AND MUL OR SWAP1 SSTORE POP DUP5 DUP7 PUSH20 0xFFFFFFFFFFFFFFFFFFFFFFFFFFFFFFFFFFFFFFFF AND DUP9 PUSH20 0xFFFFFFFFFFFFFFFFFFFFFFFFFFFFFFFFFFFFFFFF AND PUSH32 0xB333C813A7426A7A11E2B190CAD52C44119421594B47F6F32ACE6D8C7207B2BF CALLER DUP9 DUP9 PUSH1 0x40 MLOAD PUSH2 0x1CCE SWAP4 SWAP3 SWAP2 SWAP1 PUSH2 0x45D7 JUMP JUMPDEST PUSH1 0x40 MLOAD DUP1 SWAP2 SUB SWAP1 LOG4 PUSH2 0x1CE2 DUP8 DUP8 DUP8 DUP7 PUSH2 0x2710 JUMP JUMPDEST PUSH0 CALLER DUP9 DUP9 DUP9 DUP8 PUSH1 0x40 MLOAD PUSH1 0x20 ADD PUSH2 0x1CFC SWAP6 SWAP5 SWAP4 SWAP3 SWAP2 SWAP1 PUSH2 0x4613 JUMP JUMPDEST PUSH1 0x40 MLOAD PUSH1 0x20 DUP2 DUP4 SUB SUB DUP2 MSTORE SWAP1 PUSH1 0x40 MSTORE SWAP1 POP PUSH2 0x1D17 DUP9 DUP3 PUSH2 0x2716 JUMP JUMPDEST PUSH2 0x1D22 DUP8 DUP7 DUP4 PUSH2 0x2747 JUMP JUMPDEST POP POP POP POP POP POP POP POP JUMP JUMPDEST PUSH1 0x60 PUSH1 0x1 PUSH0 DUP4 DUP2 MSTORE PUSH1 0x20 ADD SWAP1 DUP2 MSTORE PUSH1 0x20 ADD PUSH0 KECCAK256 DUP1 SLOAD PUSH2 0x1D4A SWAP1 PUSH2 0x4698 JUMP JUMPDEST DUP1 PUSH1 0x1F ADD PUSH1 0x20 DUP1 SWAP2 DIV MUL PUSH1 0x20 ADD PUSH1 0x40 MLOAD SWAP1 DUP2 ADD PUSH1 0x40 MSTORE DUP1 SWAP3 SWAP2 SWAP1 DUP2 DUP2 MSTORE PUSH1 0x20 ADD DUP3 DUP1 SLOAD PUSH2 0x1D76 SWAP1 PUSH2 0x4698 JUMP JUMPDEST DUP1 ISZERO PUSH2 0x1DC1 JUMPI DUP1 PUSH1 0x1F LT PUSH2 0x1D98 JUMPI PUSH2 0x100 DUP1 DUP4 SLOAD DIV MUL DUP4 MSTORE SWAP2 PUSH1 0x20 ADD SWAP2 PUSH2 0x1DC1 JUMP JUMPDEST DUP3 ADD SWAP2 SWAP1 PUSH0 MSTORE PUSH1 0x20 PUSH0 KECCAK256 SWAP1 JUMPDEST DUP2 SLOAD DUP2 MSTORE SWAP1 PUSH1 0x1 ADD SWAP1 PUSH1 0x20 ADD DUP1 DUP4 GT PUSH2 0x1DA4 JUMPI DUP3 SWAP1 SUB PUSH1 0x1F AND DUP3 ADD SWAP2 JUMPDEST POP POP POP POP POP SWAP1 POP SWAP2 SWAP1 POP JUMP JUMPDEST PUSH0 PUSH2 0x1DD9 DUP3 PUSH0 ADD PUSH2 0x28A6 JUMP JUMPDEST SWAP1 POP SWAP2 SWAP1 POP JUMP JUMPDEST CALLER PUSH20 0xFFFFFFFFFFFFFFFFFFFFFFFFFFFFFFFFFFFFFFFF AND PUSH2 0x1DFF PUSH2 0x1117 JUMP JUMPDEST PUSH20 0xFFFFFFFFFFFFFFFFFFFFFFFFFFFFFFFFFFFFFFFF AND EQ PUSH2 0x1E57 JUMPI CALLER PUSH1 0x40 MLOAD PUSH32 0xBF1169C500000000000000000000000000000000000000000000000000000000 DUP2 MSTORE PUSH1 0x4 ADD PUSH2 0x1E4E SWAP2 SWAP1 PUSH2 0x342D JUMP JUMPDEST PUSH1 0x40 MLOAD DUP1 SWAP2 SUB SWAP1 REVERT JUMPDEST JUMP JUMPDEST PUSH2 0x1E61 PUSH2 0x1117 JUMP JUMPDEST PUSH20 0xFFFFFFFFFFFFFFFFFFFFFFFFFFFFFFFFFFFFFFFF AND DUP2 PUSH20 0xFFFFFFFFFFFFFFFFFFFFFFFFFFFFFFFFFFFFFFFF AND EQ PUSH2 0x1F4C JUMPI DUP1 PUSH20 0xFFFFFFFFFFFFFFFFFFFFFFFFFFFFFFFFFFFFFFFF AND PUSH0 DUP1 SLOAD SWAP1 PUSH2 0x100 EXP SWAP1 DIV PUSH20 0xFFFFFFFFFFFFFFFFFFFFFFFFFFFFFFFFFFFFFFFF AND PUSH20 0xFFFFFFFFFFFFFFFFFFFFFFFFFFFFFFFFFFFFFFFF AND PUSH32 0x8BE0079C531659141344CD1FD0A4F28419497F9722A3DAAFE3B4186F6B6457E0 PUSH1 0x40 MLOAD PUSH1 0x40 MLOAD DUP1 SWAP2 SUB SWAP1 LOG3 DUP1 PUSH0 DUP1 PUSH2 0x100 EXP DUP2 SLOAD DUP2 PUSH20 0xFFFFFFFFFFFFFFFFFFFFFFFFFFFFFFFFFFFFFFFF MUL NOT AND SWAP1 DUP4 PUSH20 0xFFFFFFFFFFFFFFFFFFFFFFFFFFFFFFFFFFFFFFFF AND MUL OR SWAP1 SSTORE POP JUMPDEST POP JUMP JUMPDEST PUSH32 0xF675E9361AF1C1664C1868CFA3EB97672D6B1A513AA5B81DEC34C9EE330E818D PUSH0 SHL DUP3 SUB PUSH2 0x1FAA JUMPI PUSH1 0x40 MLOAD PUSH32 0x3664800A00000000000000000000000000000000000000000000000000000000 DUP2 MSTORE PUSH1 0x4 ADD PUSH1 0x40 MLOAD DUP1 SWAP2 SUB SWAP1 REVERT JUMPDEST PUSH2 0x1FB4 DUP3 DUP3 PUSH2 0x28B5 JUMP JUMPDEST POP POP JUMP JUMPDEST PUSH0 PUSH2 0x1FDD DUP4 PUSH0 ADD DUP4 PUSH20 0xFFFFFFFFFFFFFFFFFFFFFFFFFFFFFFFFFFFFFFFF AND PUSH0 SHL PUSH2 0x28C3 JUMP JUMPDEST SWAP1 POP SWAP3 SWAP2 POP POP JUMP JUMPDEST PUSH2 0x2012 DUP3 PUSH32 0x8A1C15A8799F71B547E08E2BCB2E85257E81B0A07EEE2CE6712549EEF1F00970 PUSH0 SHL DUP4 PUSH2 0x292A JUMP JUMPDEST POP POP JUMP JUMPDEST PUSH1 0x60 PUSH0 PUSH2 0x2024 DUP4 PUSH0 ADD PUSH2 0x2619 JUMP JUMPDEST SWAP1 POP PUSH1 0x60 DUP2 SWAP1 POP DUP1 SWAP3 POP POP POP SWAP2 SWAP1 POP JUMP JUMPDEST PUSH0 PUSH20 0xFFFFFFFFFFFFFFFFFFFFFFFFFFFFFFFFFFFFFFFF AND DUP5 PUSH20 0xFFFFFFFFFFFFFFFFFFFFFFFFFFFFFFFFFFFFFFFF AND SUB PUSH2 0x209A JUMPI PUSH1 0x40 MLOAD PUSH32 0x24ECEF4D00000000000000000000000000000000000000000000000000000000 DUP2 MSTORE PUSH1 0x4 ADD PUSH1 0x40 MLOAD DUP1 SWAP2 SUB SWAP1 REVERT JUMPDEST PUSH2 0x20A3 DUP4 PUSH2 0x25B1 JUMP JUMPDEST ISZERO PUSH2 0x20E5 JUMPI DUP3 PUSH1 0x40 MLOAD PUSH32 0x34C7B51100000000000000000000000000000000000000000000000000000000 DUP2 MSTORE PUSH1 0x4 ADD PUSH2 0x20DC SWAP2 SWAP1 PUSH2 0x422E JUMP JUMPDEST PUSH1 0x40 MLOAD DUP1 SWAP2 SUB SWAP1 REVERT JUMPDEST PUSH2 0x20F1 PUSH0 DUP6 DUP6 DUP5 PUSH2 0x2672 JUMP JUMPDEST PUSH2 0x20FA DUP4 PUSH2 0x25B1 JUMP JUMPDEST ISZERO PUSH2 0x213C JUMPI DUP3 PUSH1 0x40 MLOAD PUSH32 0x34C7B51100000000000000000000000000000000000000000000000000000000 DUP2 MSTORE PUSH1 0x4 ADD PUSH2 0x2133 SWAP2 SWAP1 PUSH2 0x422E JUMP JUMPDEST PUSH1 0x40 MLOAD DUP1 SWAP2 SUB SWAP1 REVERT JUMPDEST PUSH1 0x2 PUSH0 DUP2 SLOAD PUSH2 0x214A SWAP1 PUSH2 0x46F5 JUMP JUMPDEST SWAP2 SWAP1 POP DUP2 SWAP1 SSTORE POP PUSH2 0x21A0 DUP4 PUSH1 0x4 PUSH0 DUP8 PUSH20 0xFFFFFFFFFFFFFFFFFFFFFFFFFFFFFFFFFFFFFFFF AND PUSH20 0xFFFFFFFFFFFFFFFFFFFFFFFFFFFFFFFFFFFFFFFF AND DUP2 MSTORE PUSH1 0x20 ADD SWAP1 DUP2 MSTORE PUSH1 0x20 ADD PUSH0 KECCAK256 PUSH2 0x26FB SWAP1 SWAP2 SWAP1 PUSH4 0xFFFFFFFF AND JUMP JUMPDEST POP DUP4 PUSH1 0x3 PUSH0 DUP6 DUP2 MSTORE PUSH1 0x20 ADD SWAP1 DUP2 MSTORE PUSH1 0x20 ADD PUSH0 KECCAK256 PUSH0 PUSH2 0x100 EXP DUP2 SLOAD DUP2 PUSH20 0xFFFFFFFFFFFFFFFFFFFFFFFFFFFFFFFFFFFFFFFF MUL NOT AND SWAP1 DUP4 PUSH20 0xFFFFFFFFFFFFFFFFFFFFFFFFFFFFFFFFFFFFFFFF AND MUL OR SWAP1 SSTORE POP DUP3 DUP5 PUSH20 0xFFFFFFFFFFFFFFFFFFFFFFFFFFFFFFFFFFFFFFFF AND PUSH0 PUSH20 0xFFFFFFFFFFFFFFFFFFFFFFFFFFFFFFFFFFFFFFFF AND PUSH32 0xB333C813A7426A7A11E2B190CAD52C44119421594B47F6F32ACE6D8C7207B2BF CALLER DUP7 DUP7 PUSH1 0x40 MLOAD PUSH2 0x2252 SWAP4 SWAP3 SWAP2 SWAP1 PUSH2 0x45D7 JUMP JUMPDEST PUSH1 0x40 MLOAD DUP1 SWAP2 SUB SWAP1 LOG4 PUSH2 0x2266 PUSH0 DUP6 DUP6 DUP5 PUSH2 0x2710 JUMP JUMPDEST PUSH0 CALLER PUSH0 DUP7 DUP7 DUP6 PUSH1 0x40 MLOAD PUSH1 0x20 ADD PUSH2 0x2280 SWAP6 SWAP5 SWAP4 SWAP3 SWAP2 SWAP1 PUSH2 0x4613 JUMP JUMPDEST PUSH1 0x40 MLOAD PUSH1 0x20 DUP2 DUP4 SUB SUB DUP2 MSTORE SWAP1 PUSH1 0x40 MSTORE SWAP1 POP PUSH2 0x229C DUP6 DUP5 DUP4 PUSH2 0x2747 JUMP JUMPDEST POP POP POP POP POP JUMP JUMPDEST PUSH2 0x22AE DUP4 DUP4 DUP4 PUSH2 0x29E4 JUMP JUMPDEST DUP2 DUP4 PUSH32 0xA6E4251F855F750545FE414F120DB91C76B88DEF14D120969E5BB2D3F05DEBBB DUP4 PUSH1 0x40 MLOAD PUSH2 0x22DF SWAP2 SWAP1 PUSH2 0x30B8 JUMP JUMPDEST PUSH1 0x40 MLOAD DUP1 SWAP2 SUB SWAP1 LOG3 POP POP POP JUMP JUMPDEST PUSH0 PUSH2 0x2310 DUP7 PUSH1 0x5 PUSH0 DUP8 DUP2 MSTORE PUSH1 0x20 ADD SWAP1 DUP2 MSTORE PUSH1 0x20 ADD PUSH0 KECCAK256 PUSH2 0x2A53 SWAP1 SWAP2 SWAP1 PUSH4 0xFFFFFFFF AND JUMP JUMPDEST SWAP1 POP DUP1 PUSH2 0x2356 JUMPI DUP6 DUP5 PUSH1 0x40 MLOAD PUSH32 0x4AA31A8C00000000000000000000000000000000000000000000000000000000 DUP2 MSTORE PUSH1 0x4 ADD PUSH2 0x234D SWAP3 SWAP2 SWAP1 PUSH2 0x4329 JUMP JUMPDEST PUSH1 0x40 MLOAD DUP1 SWAP2 SUB SWAP1 REVERT JUMPDEST DUP4 DUP6 PUSH20 0xFFFFFFFFFFFFFFFFFFFFFFFFFFFFFFFFFFFFFFFF AND DUP8 PUSH20 0xFFFFFFFFFFFFFFFFFFFFFFFFFFFFFFFFFFFFFFFF AND PUSH32 0xC78CD419D6136F9F1C1C6AEC1D3FAE098CFFAF8BC86314A8F2685E32FE574E3C DUP7 DUP7 PUSH1 0x40 MLOAD PUSH2 0x23B6 SWAP3 SWAP2 SWAP1 PUSH2 0x473C JUMP JUMPDEST PUSH1 0x40 MLOAD DUP1 SWAP2 SUB SWAP1 LOG4 POP POP POP POP POP POP JUMP JUMPDEST PUSH0 DUP1 DUP4 PUSH0 PUSH1 0xF0 SHL DUP5 PUSH1 0x40 MLOAD PUSH1 0x20 ADD PUSH2 0x23E0 SWAP4 SWAP3 SWAP2 SWAP1 PUSH2 0x4820 JUMP JUMPDEST PUSH1 0x40 MLOAD PUSH1 0x20 DUP2 DUP4 SUB SUB DUP2 MSTORE SWAP1 PUSH1 0x40 MSTORE SWAP1 POP DUP1 PUSH2 0x23FB SWAP1 PUSH2 0x4870 JUMP JUMPDEST SWAP2 POP POP SWAP3 SWAP2 POP POP JUMP JUMPDEST PUSH0 PUSH4 0x629AA694 PUSH1 0xE0 SHL PUSH28 0xFFFFFFFFFFFFFFFFFFFFFFFFFFFFFFFFFFFFFFFFFFFFFFFFFFFFFFFF NOT AND DUP3 PUSH28 0xFFFFFFFFFFFFFFFFFFFFFFFFFFFFFFFFFFFFFFFFFFFFFFFFFFFFFFFF NOT AND EQ DUP1 PUSH2 0x245D JUMPI POP PUSH2 0x245C DUP3 PUSH2 0x2A80 JUMP JUMPDEST JUMPDEST SWAP1 POP SWAP2 SWAP1 POP JUMP JUMPDEST PUSH0 DUP1 DUP3 PUSH1 0x40 MLOAD PUSH1 0x24 ADD PUSH2 0x2477 SWAP2 SWAP1 PUSH2 0x40C6 JUMP JUMPDEST PUSH1 0x40 MLOAD PUSH1 0x20 DUP2 DUP4 SUB SUB DUP2 MSTORE SWAP1 PUSH1 0x40 MSTORE PUSH4 0x1FFC9A7 PUSH1 0xE0 SHL PUSH1 0x20 DUP3 ADD DUP1 MLOAD PUSH28 0xFFFFFFFFFFFFFFFFFFFFFFFFFFFFFFFFFFFFFFFFFFFFFFFFFFFFFFFF DUP4 DUP2 DUP4 AND OR DUP4 MSTORE POP POP POP POP SWAP1 POP PUSH0 DUP1 PUSH0 PUSH1 0x20 PUSH0 DUP6 MLOAD PUSH1 0x20 DUP8 ADD DUP11 PUSH2 0x7530 STATICCALL SWAP3 POP RETURNDATASIZE SWAP2 POP PUSH0 MLOAD SWAP1 POP DUP3 DUP1 ISZERO PUSH2 0x24E6 JUMPI POP PUSH1 0x20 DUP3 LT ISZERO JUMPDEST DUP1 ISZERO PUSH2 0x24F1 JUMPI POP PUSH0 DUP2 GT JUMPDEST SWAP5 POP POP POP POP POP SWAP3 SWAP2 POP POP JUMP JUMPDEST PUSH1 0x60 DUP3 PUSH0 SHR PUSH20 0xFFFFFFFFFFFFFFFFFFFFFFFFFFFFFFFFFFFFFFFF AND PUSH4 0x54F6127F DUP4 PUSH1 0x40 MLOAD DUP3 PUSH4 0xFFFFFFFF AND PUSH1 0xE0 SHL DUP2 MSTORE PUSH1 0x4 ADD PUSH2 0x253A SWAP2 SWAP1 PUSH2 0x422E JUMP JUMPDEST PUSH0 PUSH1 0x40 MLOAD DUP1 DUP4 SUB DUP2 DUP7 GAS STATICCALL ISZERO DUP1 ISZERO PUSH2 0x2554 JUMPI RETURNDATASIZE PUSH0 DUP1 RETURNDATACOPY RETURNDATASIZE PUSH0 REVERT JUMPDEST POP POP POP POP PUSH1 0x40 MLOAD RETURNDATASIZE PUSH0 DUP3 RETURNDATACOPY RETURNDATASIZE PUSH1 0x1F NOT PUSH1 0x1F DUP3 ADD AND DUP3 ADD DUP1 PUSH1 0x40 MSTORE POP DUP2 ADD SWAP1 PUSH2 0x257C SWAP2 SWAP1 PUSH2 0x4944 JUMP JUMPDEST SWAP1 POP SWAP3 SWAP2 POP POP JUMP JUMPDEST PUSH0 PUSH2 0x25A9 DUP4 PUSH0 ADD DUP4 PUSH20 0xFFFFFFFFFFFFFFFFFFFFFFFFFFFFFFFFFFFFFFFF AND PUSH0 SHL PUSH2 0x2AE9 JUMP JUMPDEST SWAP1 POP SWAP3 SWAP2 POP POP JUMP JUMPDEST PUSH0 DUP1 PUSH20 0xFFFFFFFFFFFFFFFFFFFFFFFFFFFFFFFFFFFFFFFF AND PUSH1 0x3 PUSH0 DUP5 DUP2 MSTORE PUSH1 0x20 ADD SWAP1 DUP2 MSTORE PUSH1 0x20 ADD PUSH0 KECCAK256 PUSH0 SWAP1 SLOAD SWAP1 PUSH2 0x100 EXP SWAP1 DIV PUSH20 0xFFFFFFFFFFFFFFFFFFFFFFFFFFFFFFFFFFFFFFFF AND PUSH20 0xFFFFFFFFFFFFFFFFFFFFFFFFFFFFFFFFFFFFFFFF AND EQ ISZERO SWAP1 POP SWAP2 SWAP1 POP JUMP JUMPDEST PUSH1 0x60 DUP2 PUSH0 ADD DUP1 SLOAD DUP1 PUSH1 0x20 MUL PUSH1 0x20 ADD PUSH1 0x40 MLOAD SWAP1 DUP2 ADD PUSH1 0x40 MSTORE DUP1 SWAP3 SWAP2 SWAP1 DUP2 DUP2 MSTORE PUSH1 0x20 ADD DUP3 DUP1 SLOAD DUP1 ISZERO PUSH2 0x2666 JUMPI PUSH1 0x20 MUL DUP3 ADD SWAP2 SWAP1 PUSH0 MSTORE PUSH1 0x20 PUSH0 KECCAK256 SWAP1 JUMPDEST DUP2 SLOAD DUP2 MSTORE PUSH1 0x20 ADD SWAP1 PUSH1 0x1 ADD SWAP1 DUP1 DUP4 GT PUSH2 0x2652 JUMPI JUMPDEST POP POP POP POP POP SWAP1 POP SWAP2 SWAP1 POP JUMP JUMPDEST POP POP POP POP JUMP JUMPDEST PUSH0 PUSH1 0x5 PUSH0 DUP4 DUP2 MSTORE PUSH1 0x20 ADD SWAP1 DUP2 MSTORE PUSH1 0x20 ADD PUSH0 KECCAK256 SWAP1 POP PUSH0 PUSH2 0x2696 DUP3 PUSH2 0x2B09 JUMP JUMPDEST SWAP1 POP PUSH0 DUP1 JUMPDEST DUP3 DUP2 LT ISZERO PUSH2 0x26DE JUMPI PUSH2 0x26B6 PUSH0 DUP6 PUSH2 0x2B1C SWAP1 SWAP2 SWAP1 PUSH4 0xFFFFFFFF AND JUMP JUMPDEST SWAP2 POP PUSH2 0x26D3 DUP3 DUP8 DUP8 PUSH0 PUSH1 0x40 MLOAD DUP1 PUSH1 0x20 ADD PUSH1 0x40 MSTORE DUP1 PUSH0 DUP2 MSTORE POP PUSH2 0x22EC JUMP JUMPDEST DUP1 PUSH1 0x1 ADD SWAP1 POP PUSH2 0x269B JUMP JUMPDEST POP POP POP POP POP POP JUMP JUMPDEST PUSH0 PUSH2 0x26F3 DUP4 PUSH0 ADD DUP4 PUSH2 0x2B33 JUMP JUMPDEST SWAP1 POP SWAP3 SWAP2 POP POP JUMP JUMPDEST PUSH0 PUSH2 0x2708 DUP4 PUSH0 ADD DUP4 PUSH2 0x28C3 JUMP JUMPDEST SWAP1 POP SWAP3 SWAP2 POP POP JUMP JUMPDEST POP POP POP POP JUMP JUMPDEST PUSH2 0x2743 DUP3 PUSH32 0xB23EAE7E6D1564B295B4C3E3BE402D9A2F0776C57BDF365903496F6FA481AB00 PUSH0 SHL DUP4 PUSH2 0x292A JUMP JUMPDEST POP POP JUMP JUMPDEST PUSH2 0x2758 DUP4 PUSH4 0x6BB56A14 PUSH1 0xE0 SHL PUSH2 0x2464 JUMP JUMPDEST ISZERO PUSH2 0x2803 JUMPI DUP3 PUSH20 0xFFFFFFFFFFFFFFFFFFFFFFFFFFFFFFFFFFFFFFFF AND PUSH4 0x6BB56A14 PUSH32 0xB084A55EBF70FD3C06FD755269DAC2212C4D3F0F4D09079780BFA50C1B2984D PUSH0 SHL DUP4 PUSH1 0x40 MLOAD DUP4 PUSH4 0xFFFFFFFF AND PUSH1 0xE0 SHL DUP2 MSTORE PUSH1 0x4 ADD PUSH2 0x27BA SWAP3 SWAP2 SWAP1 PUSH2 0x498B JUMP JUMPDEST PUSH0 PUSH1 0x40 MLOAD DUP1 DUP4 SUB DUP2 PUSH0 DUP8 GAS CALL ISZERO DUP1 ISZERO PUSH2 0x27D5 JUMPI RETURNDATASIZE PUSH0 DUP1 RETURNDATACOPY RETURNDATASIZE PUSH0 REVERT JUMPDEST POP POP POP POP PUSH1 0x40 MLOAD RETURNDATASIZE PUSH0 DUP3 RETURNDATACOPY RETURNDATASIZE PUSH1 0x1F NOT PUSH1 0x1F DUP3 ADD AND DUP3 ADD DUP1 PUSH1 0x40 MSTORE POP DUP2 ADD SWAP1 PUSH2 0x27FD SWAP2 SWAP1 PUSH2 0x4944 JUMP JUMPDEST POP PUSH2 0x28A1 JUMP JUMPDEST DUP2 PUSH2 0x28A0 JUMPI PUSH0 DUP4 PUSH20 0xFFFFFFFFFFFFFFFFFFFFFFFFFFFFFFFFFFFFFFFF AND EXTCODESIZE EQ PUSH2 0x2863 JUMPI DUP3 PUSH1 0x40 MLOAD PUSH32 0x4349776D00000000000000000000000000000000000000000000000000000000 DUP2 MSTORE PUSH1 0x4 ADD PUSH2 0x285A SWAP2 SWAP1 PUSH2 0x342D JUMP JUMPDEST PUSH1 0x40 MLOAD DUP1 SWAP2 SUB SWAP1 REVERT JUMPDEST DUP3 PUSH1 0x40 MLOAD PUSH32 0x317313700000000000000000000000000000000000000000000000000000000 DUP2 MSTORE PUSH1 0x4 ADD PUSH2 0x2897 SWAP2 SWAP1 PUSH2 0x342D JUMP JUMPDEST PUSH1 0x40 MLOAD DUP1 SWAP2 SUB SWAP1 REVERT JUMPDEST JUMPDEST POP POP POP JUMP JUMPDEST PUSH0 DUP2 PUSH0 ADD DUP1 SLOAD SWAP1 POP SWAP1 POP SWAP2 SWAP1 POP JUMP JUMPDEST PUSH2 0x28BF DUP3 DUP3 PUSH2 0x2C2F JUMP JUMPDEST POP POP JUMP JUMPDEST PUSH0 PUSH2 0x28CE DUP4 DUP4 PUSH2 0x2AE9 JUMP JUMPDEST PUSH2 0x2920 JUMPI DUP3 PUSH0 ADD DUP3 SWAP1 DUP1 PUSH1 0x1 DUP2 SLOAD ADD DUP1 DUP3 SSTORE DUP1 SWAP2 POP POP PUSH1 0x1 SWAP1 SUB SWAP1 PUSH0 MSTORE PUSH1 0x20 PUSH0 KECCAK256 ADD PUSH0 SWAP1 SWAP2 SWAP1 SWAP2 SWAP1 SWAP2 POP SSTORE DUP3 PUSH0 ADD DUP1 SLOAD SWAP1 POP DUP4 PUSH1 0x1 ADD PUSH0 DUP5 DUP2 MSTORE PUSH1 0x20 ADD SWAP1 DUP2 MSTORE PUSH1 0x20 ADD PUSH0 KECCAK256 DUP2 SWAP1 SSTORE POP PUSH1 0x1 SWAP1 POP PUSH2 0x2924 JUMP JUMPDEST PUSH0 SWAP1 POP JUMPDEST SWAP3 SWAP2 POP POP JUMP JUMPDEST PUSH2 0x295A PUSH4 0x6BB56A14 PUSH1 0xE0 SHL DUP5 PUSH20 0xFFFFFFFFFFFFFFFFFFFFFFFFFFFFFFFFFFFFFFFF AND PUSH2 0x2464 SWAP1 SWAP2 SWAP1 PUSH4 0xFFFFFFFF AND JUMP JUMPDEST ISZERO PUSH2 0x29DF JUMPI DUP3 PUSH20 0xFFFFFFFFFFFFFFFFFFFFFFFFFFFFFFFFFFFFFFFF AND PUSH4 0x6BB56A14 DUP4 DUP4 PUSH1 0x40 MLOAD DUP4 PUSH4 0xFFFFFFFF AND PUSH1 0xE0 SHL DUP2 MSTORE PUSH1 0x4 ADD PUSH2 0x299A SWAP3 SWAP2 SWAP1 PUSH2 0x498B JUMP JUMPDEST PUSH0 PUSH1 0x40 MLOAD DUP1 DUP4 SUB DUP2 PUSH0 DUP8 GAS CALL ISZERO DUP1 ISZERO PUSH2 0x29B5 JUMPI RETURNDATASIZE PUSH0 DUP1 RETURNDATACOPY RETURNDATASIZE PUSH0 REVERT JUMPDEST POP POP POP POP PUSH1 0x40 MLOAD RETURNDATASIZE PUSH0 DUP3 RETURNDATACOPY RETURNDATASIZE PUSH1 0x1F NOT PUSH1 0x1F DUP3 ADD AND DUP3 ADD DUP1 PUSH1 0x40 MSTORE POP DUP2 ADD SWAP1 PUSH2 0x29DD SWAP2 SWAP1 PUSH2 0x4944 JUMP JUMPDEST POP JUMPDEST POP POP POP JUMP JUMPDEST DUP3 PUSH0 SHR PUSH20 0xFFFFFFFFFFFFFFFFFFFFFFFFFFFFFFFFFFFFFFFF AND PUSH4 0x7F23690C DUP4 DUP4 PUSH1 0x40 MLOAD DUP4 PUSH4 0xFFFFFFFF AND PUSH1 0xE0 SHL DUP2 MSTORE PUSH1 0x4 ADD PUSH2 0x2A21 SWAP3 SWAP2 SWAP1 PUSH2 0x498B JUMP JUMPDEST PUSH0 PUSH1 0x40 MLOAD DUP1 DUP4 SUB DUP2 PUSH0 DUP8 DUP1 EXTCODESIZE ISZERO DUP1 ISZERO PUSH2 0x2A38 JUMPI PUSH0 DUP1 REVERT JUMPDEST POP GAS CALL ISZERO DUP1 ISZERO PUSH2 0x2A4A JUMPI RETURNDATASIZE PUSH0 DUP1 RETURNDATACOPY RETURNDATASIZE PUSH0 REVERT JUMPDEST POP POP POP POP POP POP POP JUMP JUMPDEST PUSH0 PUSH2 0x2A78 DUP4 PUSH0 ADD DUP4 PUSH20 0xFFFFFFFFFFFFFFFFFFFFFFFFFFFFFFFFFFFFFFFF AND PUSH0 SHL PUSH2 0x2B33 JUMP JUMPDEST SWAP1 POP SWAP3 SWAP2 POP POP JUMP JUMPDEST PUSH0 PUSH32 0x1FFC9A700000000000000000000000000000000000000000000000000000000 PUSH28 0xFFFFFFFFFFFFFFFFFFFFFFFFFFFFFFFFFFFFFFFFFFFFFFFFFFFFFFFF NOT AND DUP3 PUSH28 0xFFFFFFFFFFFFFFFFFFFFFFFFFFFFFFFFFFFFFFFFFFFFFFFFFFFFFFFF NOT AND EQ SWAP1 POP SWAP2 SWAP1 POP JUMP JUMPDEST PUSH0 DUP1 DUP4 PUSH1 0x1 ADD PUSH0 DUP5 DUP2 MSTORE PUSH1 0x20 ADD SWAP1 DUP2 MSTORE PUSH1 0x20 ADD PUSH0 KECCAK256 SLOAD EQ ISZERO SWAP1 POP SWAP3 SWAP2 POP POP JUMP JUMPDEST PUSH0 PUSH2 0x2B15 DUP3 PUSH0 ADD PUSH2 0x28A6 JUMP JUMPDEST SWAP1 POP SWAP2 SWAP1 POP JUMP JUMPDEST PUSH0 PUSH2 0x2B29 DUP4 PUSH0 ADD DUP4 PUSH2 0x2D9B JUMP JUMPDEST PUSH0 SHR SWAP1 POP SWAP3 SWAP2 POP POP JUMP JUMPDEST PUSH0 DUP1 DUP4 PUSH1 0x1 ADD PUSH0 DUP5 DUP2 MSTORE PUSH1 0x20 ADD SWAP1 DUP2 MSTORE PUSH1 0x20 ADD PUSH0 KECCAK256 SLOAD SWAP1 POP PUSH0 DUP2 EQ PUSH2 0x2C24 JUMPI PUSH0 PUSH1 0x1 DUP3 PUSH2 0x2B60 SWAP2 SWAP1 PUSH2 0x49B9 JUMP JUMPDEST SWAP1 POP PUSH0 PUSH1 0x1 DUP7 PUSH0 ADD DUP1 SLOAD SWAP1 POP PUSH2 0x2B76 SWAP2 SWAP1 PUSH2 0x49B9 JUMP JUMPDEST SWAP1 POP DUP1 DUP3 EQ PUSH2 0x2BDC JUMPI PUSH0 DUP7 PUSH0 ADD DUP3 DUP2 SLOAD DUP2 LT PUSH2 0x2B95 JUMPI PUSH2 0x2B94 PUSH2 0x41F2 JUMP JUMPDEST JUMPDEST SWAP1 PUSH0 MSTORE PUSH1 0x20 PUSH0 KECCAK256 ADD SLOAD SWAP1 POP DUP1 DUP8 PUSH0 ADD DUP5 DUP2 SLOAD DUP2 LT PUSH2 0x2BB6 JUMPI PUSH2 0x2BB5 PUSH2 0x41F2 JUMP JUMPDEST JUMPDEST SWAP1 PUSH0 MSTORE PUSH1 0x20 PUSH0 KECCAK256 ADD DUP2 SWAP1 SSTORE POP DUP4 DUP8 PUSH1 0x1 ADD PUSH0 DUP4 DUP2 MSTORE PUSH1 0x20 ADD SWAP1 DUP2 MSTORE PUSH1 0x20 ADD PUSH0 KECCAK256 DUP2 SWAP1 SSTORE POP POP JUMPDEST DUP6 PUSH0 ADD DUP1 SLOAD DUP1 PUSH2 0x2BEF JUMPI PUSH2 0x2BEE PUSH2 0x49EC JUMP JUMPDEST JUMPDEST PUSH1 0x1 SWAP1 SUB DUP2 DUP2 SWAP1 PUSH0 MSTORE PUSH1 0x20 PUSH0 KECCAK256 ADD PUSH0 SWAP1 SSTORE SWAP1 SSTORE DUP6 PUSH1 0x1 ADD PUSH0 DUP7 DUP2 MSTORE PUSH1 0x20 ADD SWAP1 DUP2 MSTORE PUSH1 0x20 ADD PUSH0 KECCAK256 PUSH0 SWAP1 SSTORE PUSH1 0x1 SWAP4 POP POP POP POP PUSH2 0x2C29 JUMP JUMPDEST PUSH0 SWAP2 POP POP JUMPDEST SWAP3 SWAP2 POP POP JUMP JUMPDEST PUSH32 0xDEBA1E292F8BA88238E10AB3C7F88BD4BE4FAC56CAD5194B6ECCEAF653468AF1 PUSH0 SHL DUP3 SUB PUSH2 0x2C8A JUMPI PUSH1 0x40 MLOAD PUSH32 0x85C169BD00000000000000000000000000000000000000000000000000000000 DUP2 MSTORE PUSH1 0x4 ADD PUSH1 0x40 MLOAD DUP1 SWAP2 SUB SWAP1 REVERT JUMPDEST PUSH32 0x2F0A68AB07768E01943A599E73362A0E17A63A72E94DD2E384D2C1D4DB932756 PUSH0 SHL DUP3 SUB PUSH2 0x2CE5 JUMPI PUSH1 0x40 MLOAD PUSH32 0x76755B3800000000000000000000000000000000000000000000000000000000 DUP2 MSTORE PUSH1 0x4 ADD PUSH1 0x40 MLOAD DUP1 SWAP2 SUB SWAP1 REVERT JUMPDEST PUSH32 0xE0261FA95DB2EB3B5439BD033CDA66D56B96F92F243A8228FD87550ED7BDFDB3 PUSH0 SHL DUP3 SUB PUSH2 0x2D40 JUMPI PUSH1 0x40 MLOAD PUSH32 0x4EF6D7FB00000000000000000000000000000000000000000000000000000000 DUP2 MSTORE PUSH1 0x4 ADD PUSH1 0x40 MLOAD DUP1 SWAP2 SUB SWAP1 REVERT JUMPDEST DUP1 PUSH1 0x1 PUSH0 DUP5 DUP2 MSTORE PUSH1 0x20 ADD SWAP1 DUP2 MSTORE PUSH1 0x20 ADD PUSH0 KECCAK256 SWAP1 DUP2 PUSH2 0x2D5E SWAP2 SWAP1 PUSH2 0x4BA1 JUMP JUMPDEST POP DUP2 PUSH32 0xECE574603820D07BC9B91F2A932BAADF4628AABCB8AFBA49776529C14A6104B2 DUP3 PUSH1 0x40 MLOAD PUSH2 0x2D8F SWAP2 SWAP1 PUSH2 0x30B8 JUMP JUMPDEST PUSH1 0x40 MLOAD DUP1 SWAP2 SUB SWAP1 LOG2 POP POP JUMP JUMPDEST PUSH0 DUP3 PUSH0 ADD DUP3 DUP2 SLOAD DUP2 LT PUSH2 0x2DB1 JUMPI PUSH2 0x2DB0 PUSH2 0x41F2 JUMP JUMPDEST JUMPDEST SWAP1 PUSH0 MSTORE PUSH1 0x20 PUSH0 KECCAK256 ADD SLOAD SWAP1 POP SWAP3 SWAP2 POP POP JUMP JUMPDEST PUSH0 DUP3 DUP3 MSTORE PUSH1 0x20 DUP3 ADD SWAP1 POP SWAP3 SWAP2 POP POP JUMP JUMPDEST PUSH0 DUP1 DUP3 ADD MSTORE POP JUMP JUMPDEST PUSH0 PUSH2 0x2DE6 PUSH1 0x4 DUP4 PUSH2 0x2DC2 JUMP JUMPDEST SWAP2 POP PUSH2 0x2DF1 DUP3 PUSH2 0x2DD2 JUMP JUMPDEST PUSH1 0x20 DUP3 ADD SWAP1 POP SWAP2 SWAP1 POP JUMP JUMPDEST PUSH0 PUSH1 0x20 DUP3 ADD SWAP1 POP DUP2 DUP2 SUB PUSH0 DUP4 ADD MSTORE PUSH2 0x2E13 DUP2 PUSH2 0x2DDA JUMP JUMPDEST SWAP1 POP SWAP2 SWAP1 POP JUMP JUMPDEST DUP3 DUP2 DUP4 CALLDATACOPY PUSH0 DUP4 DUP4 ADD MSTORE POP POP POP JUMP JUMPDEST PUSH0 PUSH1 0x1F NOT PUSH1 0x1F DUP4 ADD AND SWAP1 POP SWAP2 SWAP1 POP JUMP JUMPDEST PUSH0 PUSH2 0x2E43 DUP4 DUP6 PUSH2 0x2DC2 JUMP JUMPDEST SWAP4 POP PUSH2 0x2E50 DUP4 DUP6 DUP5 PUSH2 0x2E1A JUMP JUMPDEST PUSH2 0x2E59 DUP4 PUSH2 0x2E28 JUMP JUMPDEST DUP5 ADD SWAP1 POP SWAP4 SWAP3 POP POP POP JUMP JUMPDEST PUSH0 PUSH1 0x20 DUP3 ADD SWAP1 POP DUP2 DUP2 SUB PUSH0 DUP4 ADD MSTORE PUSH2 0x2E7D DUP2 DUP5 DUP7 PUSH2 0x2E38 JUMP JUMPDEST SWAP1 POP SWAP4 SWAP3 POP POP POP JUMP JUMPDEST PUSH0 PUSH1 0x40 MLOAD SWAP1 POP SWAP1 JUMP JUMPDEST PUSH0 DUP1 REVERT JUMPDEST PUSH0 DUP1 REVERT JUMPDEST PUSH0 PUSH32 0xFFFFFFFF00000000000000000000000000000000000000000000000000000000 DUP3 AND SWAP1 POP SWAP2 SWAP1 POP JUMP JUMPDEST PUSH2 0x2ECB DUP2 PUSH2 0x2E97 JUMP JUMPDEST DUP2 EQ PUSH2 0x2ED5 JUMPI PUSH0 DUP1 REVERT JUMPDEST POP JUMP JUMPDEST PUSH0 DUP2 CALLDATALOAD SWAP1 POP PUSH2 0x2EE6 DUP2 PUSH2 0x2EC2 JUMP JUMPDEST SWAP3 SWAP2 POP POP JUMP JUMPDEST PUSH0 PUSH1 0x20 DUP3 DUP5 SUB SLT ISZERO PUSH2 0x2F01 JUMPI PUSH2 0x2F00 PUSH2 0x2E8F JUMP JUMPDEST JUMPDEST PUSH0 PUSH2 0x2F0E DUP5 DUP3 DUP6 ADD PUSH2 0x2ED8 JUMP JUMPDEST SWAP2 POP POP SWAP3 SWAP2 POP POP JUMP JUMPDEST PUSH0 DUP2 ISZERO ISZERO SWAP1 POP SWAP2 SWAP1 POP JUMP JUMPDEST PUSH2 0x2F2B DUP2 PUSH2 0x2F17 JUMP JUMPDEST DUP3 MSTORE POP POP JUMP JUMPDEST PUSH0 PUSH1 0x20 DUP3 ADD SWAP1 POP PUSH2 0x2F44 PUSH0 DUP4 ADD DUP5 PUSH2 0x2F22 JUMP JUMPDEST SWAP3 SWAP2 POP POP JUMP JUMPDEST PUSH0 PUSH20 0xFFFFFFFFFFFFFFFFFFFFFFFFFFFFFFFFFFFFFFFF DUP3 AND SWAP1 POP SWAP2 SWAP1 POP JUMP JUMPDEST PUSH0 DUP2 SWAP1 POP SWAP2 SWAP1 POP JUMP JUMPDEST PUSH0 PUSH2 0x2F8C PUSH2 0x2F87 PUSH2 0x2F82 DUP5 PUSH2 0x2F4A JUMP JUMPDEST PUSH2 0x2F69 JUMP JUMPDEST PUSH2 0x2F4A JUMP JUMPDEST SWAP1 POP SWAP2 SWAP1 POP JUMP JUMPDEST PUSH0 PUSH2 0x2F9D DUP3 PUSH2 0x2F72 JUMP JUMPDEST SWAP1 POP SWAP2 SWAP1 POP JUMP JUMPDEST PUSH0 PUSH2 0x2FAE DUP3 PUSH2 0x2F93 JUMP JUMPDEST SWAP1 POP SWAP2 SWAP1 POP JUMP JUMPDEST PUSH2 0x2FBE DUP2 PUSH2 0x2FA4 JUMP JUMPDEST DUP3 MSTORE POP POP JUMP JUMPDEST PUSH0 PUSH1 0x20 DUP3 ADD SWAP1 POP PUSH2 0x2FD7 PUSH0 DUP4 ADD DUP5 PUSH2 0x2FB5 JUMP JUMPDEST SWAP3 SWAP2 POP POP JUMP JUMPDEST PUSH0 DUP2 SWAP1 POP SWAP2 SWAP1 POP JUMP JUMPDEST PUSH2 0x2FEF DUP2 PUSH2 0x2FDD JUMP JUMPDEST DUP2 EQ PUSH2 0x2FF9 JUMPI PUSH0 DUP1 REVERT JUMPDEST POP JUMP JUMPDEST PUSH0 DUP2 CALLDATALOAD SWAP1 POP PUSH2 0x300A DUP2 PUSH2 0x2FE6 JUMP JUMPDEST SWAP3 SWAP2 POP POP JUMP JUMPDEST PUSH0 DUP1 PUSH1 0x40 DUP4 DUP6 SUB SLT ISZERO PUSH2 0x3026 JUMPI PUSH2 0x3025 PUSH2 0x2E8F JUMP JUMPDEST JUMPDEST PUSH0 PUSH2 0x3033 DUP6 DUP3 DUP7 ADD PUSH2 0x2FFC JUMP JUMPDEST SWAP3 POP POP PUSH1 0x20 PUSH2 0x3044 DUP6 DUP3 DUP7 ADD PUSH2 0x2FFC JUMP JUMPDEST SWAP2 POP POP SWAP3 POP SWAP3 SWAP1 POP JUMP JUMPDEST PUSH0 DUP2 MLOAD SWAP1 POP SWAP2 SWAP1 POP JUMP JUMPDEST PUSH0 JUMPDEST DUP4 DUP2 LT ISZERO PUSH2 0x3075 JUMPI DUP1 DUP3 ADD MLOAD DUP2 DUP5 ADD MSTORE PUSH1 0x20 DUP2 ADD SWAP1 POP PUSH2 0x305A JUMP JUMPDEST PUSH0 DUP5 DUP5 ADD MSTORE POP POP POP POP JUMP JUMPDEST PUSH0 PUSH2 0x308A DUP3 PUSH2 0x304E JUMP JUMPDEST PUSH2 0x3094 DUP2 DUP6 PUSH2 0x2DC2 JUMP JUMPDEST SWAP4 POP PUSH2 0x30A4 DUP2 DUP6 PUSH1 0x20 DUP7 ADD PUSH2 0x3058 JUMP JUMPDEST PUSH2 0x30AD DUP2 PUSH2 0x2E28 JUMP JUMPDEST DUP5 ADD SWAP2 POP POP SWAP3 SWAP2 POP POP JUMP JUMPDEST PUSH0 PUSH1 0x20 DUP3 ADD SWAP1 POP DUP2 DUP2 SUB PUSH0 DUP4 ADD MSTORE PUSH2 0x30D0 DUP2 DUP5 PUSH2 0x3080 JUMP JUMPDEST SWAP1 POP SWAP3 SWAP2 POP POP JUMP JUMPDEST PUSH0 DUP2 SWAP1 POP SWAP2 SWAP1 POP JUMP JUMPDEST PUSH2 0x30EA DUP2 PUSH2 0x30D8 JUMP JUMPDEST DUP3 MSTORE POP POP JUMP JUMPDEST PUSH0 PUSH1 0x20 DUP3 ADD SWAP1 POP PUSH2 0x3103 PUSH0 DUP4 ADD DUP5 PUSH2 0x30E1 JUMP JUMPDEST SWAP3 SWAP2 POP POP JUMP JUMPDEST PUSH0 DUP1 REVERT JUMPDEST PUSH32 0x4E487B7100000000000000000000000000000000000000000000000000000000 PUSH0 MSTORE PUSH1 0x41 PUSH1 0x4 MSTORE PUSH1 0x24 PUSH0 REVERT JUMPDEST PUSH2 0x3143 DUP3 PUSH2 0x2E28 JUMP JUMPDEST DUP2 ADD DUP2 DUP2 LT PUSH8 0xFFFFFFFFFFFFFFFF DUP3 GT OR ISZERO PUSH2 0x3162 JUMPI PUSH2 0x3161 PUSH2 0x310D JUMP JUMPDEST JUMPDEST DUP1 PUSH1 0x40 MSTORE POP POP POP JUMP JUMPDEST PUSH0 PUSH2 0x3174 PUSH2 0x2E86 JUMP JUMPDEST SWAP1 POP PUSH2 0x3180 DUP3 DUP3 PUSH2 0x313A JUMP JUMPDEST SWAP2 SWAP1 POP JUMP JUMPDEST PUSH0 PUSH8 0xFFFFFFFFFFFFFFFF DUP3 GT ISZERO PUSH2 0x319F JUMPI PUSH2 0x319E PUSH2 0x310D JUMP JUMPDEST JUMPDEST PUSH1 0x20 DUP3 MUL SWAP1 POP PUSH1 0x20 DUP2 ADD SWAP1 POP SWAP2 SWAP1 POP JUMP JUMPDEST PUSH0 DUP1 REVERT JUMPDEST PUSH0 PUSH2 0x31C6 PUSH2 0x31C1 DUP5 PUSH2 0x3185 JUMP JUMPDEST PUSH2 0x316B JUMP JUMPDEST SWAP1 POP DUP1 DUP4 DUP3 MSTORE PUSH1 0x20 DUP3 ADD SWAP1 POP PUSH1 0x20 DUP5 MUL DUP4 ADD DUP6 DUP2 GT ISZERO PUSH2 0x31E9 JUMPI PUSH2 0x31E8 PUSH2 0x31B0 JUMP JUMPDEST JUMPDEST DUP4 JUMPDEST DUP2 DUP2 LT ISZERO PUSH2 0x3212 JUMPI DUP1 PUSH2 0x31FE DUP9 DUP3 PUSH2 0x2FFC JUMP JUMPDEST DUP5 MSTORE PUSH1 0x20 DUP5 ADD SWAP4 POP POP PUSH1 0x20 DUP2 ADD SWAP1 POP PUSH2 0x31EB JUMP JUMPDEST POP POP POP SWAP4 SWAP3 POP POP POP JUMP JUMPDEST PUSH0 DUP3 PUSH1 0x1F DUP4 ADD SLT PUSH2 0x3230 JUMPI PUSH2 0x322F PUSH2 0x3109 JUMP JUMPDEST JUMPDEST DUP2 CALLDATALOAD PUSH2 0x3240 DUP5 DUP3 PUSH1 0x20 DUP7 ADD PUSH2 0x31B4 JUMP JUMPDEST SWAP2 POP POP SWAP3 SWAP2 POP POP JUMP JUMPDEST PUSH0 DUP1 PUSH1 0x40 DUP4 DUP6 SUB SLT ISZERO PUSH2 0x325F JUMPI PUSH2 0x325E PUSH2 0x2E8F JUMP JUMPDEST JUMPDEST PUSH0 DUP4 ADD CALLDATALOAD PUSH8 0xFFFFFFFFFFFFFFFF DUP2 GT ISZERO PUSH2 0x327C JUMPI PUSH2 0x327B PUSH2 0x2E93 JUMP JUMPDEST JUMPDEST PUSH2 0x3288 DUP6 DUP3 DUP7 ADD PUSH2 0x321C JUMP JUMPDEST SWAP3 POP POP PUSH1 0x20 DUP4 ADD CALLDATALOAD PUSH8 0xFFFFFFFFFFFFFFFF DUP2 GT ISZERO PUSH2 0x32A9 JUMPI PUSH2 0x32A8 PUSH2 0x2E93 JUMP JUMPDEST JUMPDEST PUSH2 0x32B5 DUP6 DUP3 DUP7 ADD PUSH2 0x321C JUMP JUMPDEST SWAP2 POP POP SWAP3 POP SWAP3 SWAP1 POP JUMP JUMPDEST PUSH0 DUP2 MLOAD SWAP1 POP SWAP2 SWAP1 POP JUMP JUMPDEST PUSH0 DUP3 DUP3 MSTORE PUSH1 0x20 DUP3 ADD SWAP1 POP SWAP3 SWAP2 POP POP JUMP JUMPDEST PUSH0 DUP2 SWAP1 POP PUSH1 0x20 DUP3 ADD SWAP1 POP SWAP2 SWAP1 POP JUMP JUMPDEST PUSH0 DUP3 DUP3 MSTORE PUSH1 0x20 DUP3 ADD SWAP1 POP SWAP3 SWAP2 POP POP JUMP JUMPDEST PUSH0 PUSH2 0x3302 DUP3 PUSH2 0x304E JUMP JUMPDEST PUSH2 0x330C DUP2 DUP6 PUSH2 0x32E8 JUMP JUMPDEST SWAP4 POP PUSH2 0x331C DUP2 DUP6 PUSH1 0x20 DUP7 ADD PUSH2 0x3058 JUMP JUMPDEST PUSH2 0x3325 DUP2 PUSH2 0x2E28 JUMP JUMPDEST DUP5 ADD SWAP2 POP POP SWAP3 SWAP2 POP POP JUMP JUMPDEST PUSH0 PUSH2 0x333B DUP4 DUP4 PUSH2 0x32F8 JUMP JUMPDEST SWAP1 POP SWAP3 SWAP2 POP POP JUMP JUMPDEST PUSH0 PUSH1 0x20 DUP3 ADD SWAP1 POP SWAP2 SWAP1 POP JUMP JUMPDEST PUSH0 PUSH2 0x3359 DUP3 PUSH2 0x32BF JUMP JUMPDEST PUSH2 0x3363 DUP2 DUP6 PUSH2 0x32C9 JUMP JUMPDEST SWAP4 POP DUP4 PUSH1 0x20 DUP3 MUL DUP6 ADD PUSH2 0x3375 DUP6 PUSH2 0x32D9 JUMP JUMPDEST DUP1 PUSH0 JUMPDEST DUP6 DUP2 LT ISZERO PUSH2 0x33B0 JUMPI DUP5 DUP5 SUB DUP10 MSTORE DUP2 MLOAD PUSH2 0x3391 DUP6 DUP3 PUSH2 0x3330 JUMP JUMPDEST SWAP5 POP PUSH2 0x339C DUP4 PUSH2 0x3343 JUMP JUMPDEST SWAP3 POP PUSH1 0x20 DUP11 ADD SWAP10 POP POP PUSH1 0x1 DUP2 ADD SWAP1 POP PUSH2 0x3378 JUMP JUMPDEST POP DUP3 SWAP8 POP DUP8 SWAP6 POP POP POP POP POP POP SWAP3 SWAP2 POP POP JUMP JUMPDEST PUSH0 PUSH1 0x20 DUP3 ADD SWAP1 POP DUP2 DUP2 SUB PUSH0 DUP4 ADD MSTORE PUSH2 0x33DA DUP2 DUP5 PUSH2 0x334F JUMP JUMPDEST SWAP1 POP SWAP3 SWAP2 POP POP JUMP JUMPDEST PUSH0 PUSH1 0x20 DUP3 DUP5 SUB SLT ISZERO PUSH2 0x33F7 JUMPI PUSH2 0x33F6 PUSH2 0x2E8F JUMP JUMPDEST JUMPDEST PUSH0 PUSH2 0x3404 DUP5 DUP3 DUP6 ADD PUSH2 0x2FFC JUMP JUMPDEST SWAP2 POP POP SWAP3 SWAP2 POP POP JUMP JUMPDEST PUSH0 PUSH2 0x3417 DUP3 PUSH2 0x2F4A JUMP JUMPDEST SWAP1 POP SWAP2 SWAP1 POP JUMP JUMPDEST PUSH2 0x3427 DUP2 PUSH2 0x340D JUMP JUMPDEST DUP3 MSTORE POP POP JUMP JUMPDEST PUSH0 PUSH1 0x20 DUP3 ADD SWAP1 POP PUSH2 0x3440 PUSH0 DUP4 ADD DUP5 PUSH2 0x341E JUMP JUMPDEST SWAP3 SWAP2 POP POP JUMP JUMPDEST PUSH2 0x344F DUP2 PUSH2 0x340D JUMP JUMPDEST DUP2 EQ PUSH2 0x3459 JUMPI PUSH0 DUP1 REVERT JUMPDEST POP JUMP JUMPDEST PUSH0 DUP2 CALLDATALOAD SWAP1 POP PUSH2 0x346A DUP2 PUSH2 0x3446 JUMP JUMPDEST SWAP3 SWAP2 POP POP JUMP JUMPDEST PUSH0 DUP1 PUSH1 0x40 DUP4 DUP6 SUB SLT ISZERO PUSH2 0x3486 JUMPI PUSH2 0x3485 PUSH2 0x2E8F JUMP JUMPDEST JUMPDEST PUSH0 PUSH2 0x3493 DUP6 DUP3 DUP7 ADD PUSH2 0x345C JUMP JUMPDEST SWAP3 POP POP PUSH1 0x20 PUSH2 0x34A4 DUP6 DUP3 DUP7 ADD PUSH2 0x2FFC JUMP JUMPDEST SWAP2 POP POP SWAP3 POP SWAP3 SWAP1 POP JUMP JUMPDEST PUSH0 DUP2 MLOAD SWAP1 POP SWAP2 SWAP1 POP JUMP JUMPDEST PUSH0 DUP3 DUP3 MSTORE PUSH1 0x20 DUP3 ADD SWAP1 POP SWAP3 SWAP2 POP POP JUMP JUMPDEST PUSH0 DUP2 SWAP1 POP PUSH1 0x20 DUP3 ADD SWAP1 POP SWAP2 SWAP1 POP JUMP JUMPDEST PUSH2 0x34E0 DUP2 PUSH2 0x340D JUMP JUMPDEST DUP3 MSTORE POP POP JUMP JUMPDEST PUSH0 PUSH2 0x34F1 DUP4 DUP4 PUSH2 0x34D7 JUMP JUMPDEST PUSH1 0x20 DUP4 ADD SWAP1 POP SWAP3 SWAP2 POP POP JUMP JUMPDEST PUSH0 PUSH1 0x20 DUP3 ADD SWAP1 POP SWAP2 SWAP1 POP JUMP JUMPDEST PUSH0 PUSH2 0x3513 DUP3 PUSH2 0x34AE JUMP JUMPDEST PUSH2 0x351D DUP2 DUP6 PUSH2 0x34B8 JUMP JUMPDEST SWAP4 POP PUSH2 0x3528 DUP4 PUSH2 0x34C8 JUMP JUMPDEST DUP1 PUSH0 JUMPDEST DUP4 DUP2 LT ISZERO PUSH2 0x3558 JUMPI DUP2 MLOAD PUSH2 0x353F DUP9 DUP3 PUSH2 0x34E6 JUMP JUMPDEST SWAP8 POP PUSH2 0x354A DUP4 PUSH2 0x34FD JUMP JUMPDEST SWAP3 POP POP PUSH1 0x1 DUP2 ADD SWAP1 POP PUSH2 0x352B JUMP JUMPDEST POP DUP6 SWAP4 POP POP POP POP SWAP3 SWAP2 POP POP JUMP JUMPDEST PUSH0 PUSH1 0x20 DUP3 ADD SWAP1 POP DUP2 DUP2 SUB PUSH0 DUP4 ADD MSTORE PUSH2 0x357D DUP2 DUP5 PUSH2 0x3509 JUMP JUMPDEST SWAP1 POP SWAP3 SWAP2 POP POP JUMP JUMPDEST PUSH2 0x358E DUP2 PUSH2 0x2F17 JUMP JUMPDEST DUP2 EQ PUSH2 0x3598 JUMPI PUSH0 DUP1 REVERT JUMPDEST POP JUMP JUMPDEST PUSH0 DUP2 CALLDATALOAD SWAP1 POP PUSH2 0x35A9 DUP2 PUSH2 0x3585 JUMP JUMPDEST SWAP3 SWAP2 POP POP JUMP JUMPDEST PUSH0 DUP1 REVERT JUMPDEST PUSH0 PUSH8 0xFFFFFFFFFFFFFFFF DUP3 GT ISZERO PUSH2 0x35CD JUMPI PUSH2 0x35CC PUSH2 0x310D JUMP JUMPDEST JUMPDEST PUSH2 0x35D6 DUP3 PUSH2 0x2E28 JUMP JUMPDEST SWAP1 POP PUSH1 0x20 DUP2 ADD SWAP1 POP SWAP2 SWAP1 POP JUMP JUMPDEST PUSH0 PUSH2 0x35F5 PUSH2 0x35F0 DUP5 PUSH2 0x35B3 JUMP JUMPDEST PUSH2 0x316B JUMP JUMPDEST SWAP1 POP DUP3 DUP2 MSTORE PUSH1 0x20 DUP2 ADD DUP5 DUP5 DUP5 ADD GT ISZERO PUSH2 0x3611 JUMPI PUSH2 0x3610 PUSH2 0x35AF JUMP JUMPDEST JUMPDEST PUSH2 0x361C DUP5 DUP3 DUP6 PUSH2 0x2E1A JUMP JUMPDEST POP SWAP4 SWAP3 POP POP POP JUMP JUMPDEST PUSH0 DUP3 PUSH1 0x1F DUP4 ADD SLT PUSH2 0x3638 JUMPI PUSH2 0x3637 PUSH2 0x3109 JUMP JUMPDEST JUMPDEST DUP2 CALLDATALOAD PUSH2 0x3648 DUP5 DUP3 PUSH1 0x20 DUP7 ADD PUSH2 0x35E3 JUMP JUMPDEST SWAP2 POP POP SWAP3 SWAP2 POP POP JUMP JUMPDEST PUSH0 DUP1 PUSH0 DUP1 PUSH0 PUSH1 0xA0 DUP7 DUP9 SUB SLT ISZERO PUSH2 0x366A JUMPI PUSH2 0x3669 PUSH2 0x2E8F JUMP JUMPDEST JUMPDEST PUSH0 PUSH2 0x3677 DUP9 DUP3 DUP10 ADD PUSH2 0x345C JUMP JUMPDEST SWAP6 POP POP PUSH1 0x20 PUSH2 0x3688 DUP9 DUP3 DUP10 ADD PUSH2 0x345C JUMP JUMPDEST SWAP5 POP POP PUSH1 0x40 PUSH2 0x3699 DUP9 DUP3 DUP10 ADD PUSH2 0x2FFC JUMP JUMPDEST SWAP4 POP POP PUSH1 0x60 PUSH2 0x36AA DUP9 DUP3 DUP10 ADD PUSH2 0x359B JUMP JUMPDEST SWAP3 POP POP PUSH1 0x80 DUP7 ADD CALLDATALOAD PUSH8 0xFFFFFFFFFFFFFFFF DUP2 GT ISZERO PUSH2 0x36CB JUMPI PUSH2 0x36CA PUSH2 0x2E93 JUMP JUMPDEST JUMPDEST PUSH2 0x36D7 DUP9 DUP3 DUP10 ADD PUSH2 0x3624 JUMP JUMPDEST SWAP2 POP POP SWAP3 SWAP6 POP SWAP3 SWAP6 SWAP1 SWAP4 POP JUMP JUMPDEST PUSH0 DUP1 REVERT JUMPDEST PUSH0 DUP1 DUP4 PUSH1 0x1F DUP5 ADD SLT PUSH2 0x36FD JUMPI PUSH2 0x36FC PUSH2 0x3109 JUMP JUMPDEST JUMPDEST DUP3 CALLDATALOAD SWAP1 POP PUSH8 0xFFFFFFFFFFFFFFFF DUP2 GT ISZERO PUSH2 0x371A JUMPI PUSH2 0x3719 PUSH2 0x36E4 JUMP JUMPDEST JUMPDEST PUSH1 0x20 DUP4 ADD SWAP2 POP DUP4 PUSH1 0x20 DUP3 MUL DUP4 ADD GT ISZERO PUSH2 0x3736 JUMPI PUSH2 0x3735 PUSH2 0x31B0 JUMP JUMPDEST JUMPDEST SWAP3 POP SWAP3 SWAP1 POP JUMP JUMPDEST PUSH0 DUP1 PUSH1 0x20 DUP4 DUP6 SUB SLT ISZERO PUSH2 0x3753 JUMPI PUSH2 0x3752 PUSH2 0x2E8F JUMP JUMPDEST JUMPDEST PUSH0 DUP4 ADD CALLDATALOAD PUSH8 0xFFFFFFFFFFFFFFFF DUP2 GT ISZERO PUSH2 0x3770 JUMPI PUSH2 0x376F PUSH2 0x2E93 JUMP JUMPDEST JUMPDEST PUSH2 0x377C DUP6 DUP3 DUP7 ADD PUSH2 0x36E8 JUMP JUMPDEST SWAP3 POP SWAP3 POP POP SWAP3 POP SWAP3 SWAP1 POP JUMP JUMPDEST PUSH0 PUSH1 0x20 DUP3 DUP5 SUB SLT ISZERO PUSH2 0x379D JUMPI PUSH2 0x379C PUSH2 0x2E8F JUMP JUMPDEST JUMPDEST PUSH0 PUSH2 0x37AA DUP5 DUP3 DUP6 ADD PUSH2 0x345C JUMP JUMPDEST SWAP2 POP POP SWAP3 SWAP2 POP POP JUMP JUMPDEST PUSH0 PUSH8 0xFFFFFFFFFFFFFFFF DUP3 GT ISZERO PUSH2 0x37CD JUMPI PUSH2 0x37CC PUSH2 0x310D JUMP JUMPDEST JUMPDEST PUSH1 0x20 DUP3 MUL SWAP1 POP PUSH1 0x20 DUP2 ADD SWAP1 POP SWAP2 SWAP1 POP JUMP JUMPDEST PUSH0 PUSH2 0x37F0 PUSH2 0x37EB DUP5 PUSH2 0x37B3 JUMP JUMPDEST PUSH2 0x316B JUMP JUMPDEST SWAP1 POP DUP1 DUP4 DUP3 MSTORE PUSH1 0x20 DUP3 ADD SWAP1 POP PUSH1 0x20 DUP5 MUL DUP4 ADD DUP6 DUP2 GT ISZERO PUSH2 0x3813 JUMPI PUSH2 0x3812 PUSH2 0x31B0 JUMP JUMPDEST JUMPDEST DUP4 JUMPDEST DUP2 DUP2 LT ISZERO PUSH2 0x383C JUMPI DUP1 PUSH2 0x3828 DUP9 DUP3 PUSH2 0x345C JUMP JUMPDEST DUP5 MSTORE PUSH1 0x20 DUP5 ADD SWAP4 POP POP PUSH1 0x20 DUP2 ADD SWAP1 POP PUSH2 0x3815 JUMP JUMPDEST POP POP POP SWAP4 SWAP3 POP POP POP JUMP JUMPDEST PUSH0 DUP3 PUSH1 0x1F DUP4 ADD SLT PUSH2 0x385A JUMPI PUSH2 0x3859 PUSH2 0x3109 JUMP JUMPDEST JUMPDEST DUP2 CALLDATALOAD PUSH2 0x386A DUP5 DUP3 PUSH1 0x20 DUP7 ADD PUSH2 0x37DE JUMP JUMPDEST SWAP2 POP POP SWAP3 SWAP2 POP POP JUMP JUMPDEST PUSH0 PUSH8 0xFFFFFFFFFFFFFFFF DUP3 GT ISZERO PUSH2 0x388D JUMPI PUSH2 0x388C PUSH2 0x310D JUMP JUMPDEST JUMPDEST PUSH1 0x20 DUP3 MUL SWAP1 POP PUSH1 0x20 DUP2 ADD SWAP1 POP SWAP2 SWAP1 POP JUMP JUMPDEST PUSH0 PUSH2 0x38B0 PUSH2 0x38AB DUP5 PUSH2 0x3873 JUMP JUMPDEST PUSH2 0x316B JUMP JUMPDEST SWAP1 POP DUP1 DUP4 DUP3 MSTORE PUSH1 0x20 DUP3 ADD SWAP1 POP PUSH1 0x20 DUP5 MUL DUP4 ADD DUP6 DUP2 GT ISZERO PUSH2 0x38D3 JUMPI PUSH2 0x38D2 PUSH2 0x31B0 JUMP JUMPDEST JUMPDEST DUP4 JUMPDEST DUP2 DUP2 LT ISZERO PUSH2 0x38FC JUMPI DUP1 PUSH2 0x38E8 DUP9 DUP3 PUSH2 0x359B JUMP JUMPDEST DUP5 MSTORE PUSH1 0x20 DUP5 ADD SWAP4 POP POP PUSH1 0x20 DUP2 ADD SWAP1 POP PUSH2 0x38D5 JUMP JUMPDEST POP POP POP SWAP4 SWAP3 POP POP POP JUMP JUMPDEST PUSH0 DUP3 PUSH1 0x1F DUP4 ADD SLT PUSH2 0x391A JUMPI PUSH2 0x3919 PUSH2 0x3109 JUMP JUMPDEST JUMPDEST DUP2 CALLDATALOAD PUSH2 0x392A DUP5 DUP3 PUSH1 0x20 DUP7 ADD PUSH2 0x389E JUMP JUMPDEST SWAP2 POP POP SWAP3 SWAP2 POP POP JUMP JUMPDEST PUSH0 PUSH8 0xFFFFFFFFFFFFFFFF DUP3 GT ISZERO PUSH2 0x394D JUMPI PUSH2 0x394C PUSH2 0x310D JUMP JUMPDEST JUMPDEST PUSH1 0x20 DUP3 MUL SWAP1 POP PUSH1 0x20 DUP2 ADD SWAP1 POP SWAP2 SWAP1 POP JUMP JUMPDEST PUSH0 PUSH2 0x3970 PUSH2 0x396B DUP5 PUSH2 0x3933 JUMP JUMPDEST PUSH2 0x316B JUMP JUMPDEST SWAP1 POP DUP1 DUP4 DUP3 MSTORE PUSH1 0x20 DUP3 ADD SWAP1 POP PUSH1 0x20 DUP5 MUL DUP4 ADD DUP6 DUP2 GT ISZERO PUSH2 0x3993 JUMPI PUSH2 0x3992 PUSH2 0x31B0 JUMP JUMPDEST JUMPDEST DUP4 JUMPDEST DUP2 DUP2 LT ISZERO PUSH2 0x39DA JUMPI DUP1 CALLDATALOAD PUSH8 0xFFFFFFFFFFFFFFFF DUP2 GT ISZERO PUSH2 0x39B8 JUMPI PUSH2 0x39B7 PUSH2 0x3109 JUMP JUMPDEST JUMPDEST DUP1 DUP7 ADD PUSH2 0x39C5 DUP10 DUP3 PUSH2 0x3624 JUMP JUMPDEST DUP6 MSTORE PUSH1 0x20 DUP6 ADD SWAP5 POP POP POP PUSH1 0x20 DUP2 ADD SWAP1 POP PUSH2 0x3995 JUMP JUMPDEST POP POP POP SWAP4 SWAP3 POP POP POP JUMP JUMPDEST PUSH0 DUP3 PUSH1 0x1F DUP4 ADD SLT PUSH2 0x39F8 JUMPI PUSH2 0x39F7 PUSH2 0x3109 JUMP JUMPDEST JUMPDEST DUP2 CALLDATALOAD PUSH2 0x3A08 DUP5 DUP3 PUSH1 0x20 DUP7 ADD PUSH2 0x395E JUMP JUMPDEST SWAP2 POP POP SWAP3 SWAP2 POP POP JUMP JUMPDEST PUSH0 DUP1 PUSH0 DUP1 PUSH0 PUSH1 0xA0 DUP7 DUP9 SUB SLT ISZERO PUSH2 0x3A2A JUMPI PUSH2 0x3A29 PUSH2 0x2E8F JUMP JUMPDEST JUMPDEST PUSH0 DUP7 ADD CALLDATALOAD PUSH8 0xFFFFFFFFFFFFFFFF DUP2 GT ISZERO PUSH2 0x3A47 JUMPI PUSH2 0x3A46 PUSH2 0x2E93 JUMP JUMPDEST JUMPDEST PUSH2 0x3A53 DUP9 DUP3 DUP10 ADD PUSH2 0x3846 JUMP JUMPDEST SWAP6 POP POP PUSH1 0x20 DUP7 ADD CALLDATALOAD PUSH8 0xFFFFFFFFFFFFFFFF DUP2 GT ISZERO PUSH2 0x3A74 JUMPI PUSH2 0x3A73 PUSH2 0x2E93 JUMP JUMPDEST JUMPDEST PUSH2 0x3A80 DUP9 DUP3 DUP10 ADD PUSH2 0x3846 JUMP JUMPDEST SWAP5 POP POP PUSH1 0x40 DUP7 ADD CALLDATALOAD PUSH8 0xFFFFFFFFFFFFFFFF DUP2 GT ISZERO PUSH2 0x3AA1 JUMPI PUSH2 0x3AA0 PUSH2 0x2E93 JUMP JUMPDEST JUMPDEST PUSH2 0x3AAD DUP9 DUP3 DUP10 ADD PUSH2 0x321C JUMP JUMPDEST SWAP4 POP POP PUSH1 0x60 DUP7 ADD CALLDATALOAD PUSH8 0xFFFFFFFFFFFFFFFF DUP2 GT ISZERO PUSH2 0x3ACE JUMPI PUSH2 0x3ACD PUSH2 0x2E93 JUMP JUMPDEST JUMPDEST PUSH2 0x3ADA DUP9 DUP3 DUP10 ADD PUSH2 0x3906 JUMP JUMPDEST SWAP3 POP POP PUSH1 0x80 DUP7 ADD CALLDATALOAD PUSH8 0xFFFFFFFFFFFFFFFF DUP2 GT ISZERO PUSH2 0x3AFB JUMPI PUSH2 0x3AFA PUSH2 0x2E93 JUMP JUMPDEST JUMPDEST PUSH2 0x3B07 DUP9 DUP3 DUP10 ADD PUSH2 0x39E4 JUMP JUMPDEST SWAP2 POP POP SWAP3 SWAP6 POP SWAP3 SWAP6 SWAP1 SWAP4 POP JUMP JUMPDEST PUSH0 DUP1 PUSH1 0x40 DUP4 DUP6 SUB SLT ISZERO PUSH2 0x3B2A JUMPI PUSH2 0x3B29 PUSH2 0x2E8F JUMP JUMPDEST JUMPDEST PUSH0 PUSH2 0x3B37 DUP6 DUP3 DUP7 ADD PUSH2 0x2FFC JUMP JUMPDEST SWAP3 POP POP PUSH1 0x20 DUP4 ADD CALLDATALOAD PUSH8 0xFFFFFFFFFFFFFFFF DUP2 GT ISZERO PUSH2 0x3B58 JUMPI PUSH2 0x3B57 PUSH2 0x2E93 JUMP JUMPDEST JUMPDEST PUSH2 0x3B64 DUP6 DUP3 DUP7 ADD PUSH2 0x3624 JUMP JUMPDEST SWAP2 POP POP SWAP3 POP SWAP3 SWAP1 POP JUMP JUMPDEST PUSH0 DUP1 PUSH0 PUSH1 0x60 DUP5 DUP7 SUB SLT ISZERO PUSH2 0x3B85 JUMPI PUSH2 0x3B84 PUSH2 0x2E8F JUMP JUMPDEST JUMPDEST PUSH0 PUSH2 0x3B92 DUP7 DUP3 DUP8 ADD PUSH2 0x345C JUMP JUMPDEST SWAP4 POP POP PUSH1 0x20 PUSH2 0x3BA3 DUP7 DUP3 DUP8 ADD PUSH2 0x2FFC JUMP JUMPDEST SWAP3 POP POP PUSH1 0x40 DUP5 ADD CALLDATALOAD PUSH8 0xFFFFFFFFFFFFFFFF DUP2 GT ISZERO PUSH2 0x3BC4 JUMPI PUSH2 0x3BC3 PUSH2 0x2E93 JUMP JUMPDEST JUMPDEST PUSH2 0x3BD0 DUP7 DUP3 DUP8 ADD PUSH2 0x3624 JUMP JUMPDEST SWAP2 POP POP SWAP3 POP SWAP3 POP SWAP3 JUMP JUMPDEST PUSH0 DUP1 PUSH1 0x40 DUP4 DUP6 SUB SLT ISZERO PUSH2 0x3BF0 JUMPI PUSH2 0x3BEF PUSH2 0x2E8F JUMP JUMPDEST JUMPDEST PUSH0 DUP4 ADD CALLDATALOAD PUSH8 0xFFFFFFFFFFFFFFFF DUP2 GT ISZERO PUSH2 0x3C0D JUMPI PUSH2 0x3C0C PUSH2 0x2E93 JUMP JUMPDEST JUMPDEST PUSH2 0x3C19 DUP6 DUP3 DUP7 ADD PUSH2 0x321C JUMP JUMPDEST SWAP3 POP POP PUSH1 0x20 DUP4 ADD CALLDATALOAD PUSH8 0xFFFFFFFFFFFFFFFF DUP2 GT ISZERO PUSH2 0x3C3A JUMPI PUSH2 0x3C39 PUSH2 0x2E93 JUMP JUMPDEST JUMPDEST PUSH2 0x3C46 DUP6 DUP3 DUP7 ADD PUSH2 0x39E4 JUMP JUMPDEST SWAP2 POP POP SWAP3 POP SWAP3 SWAP1 POP JUMP JUMPDEST PUSH0 DUP2 MLOAD SWAP1 POP SWAP2 SWAP1 POP JUMP JUMPDEST PUSH0 DUP3 DUP3 MSTORE PUSH1 0x20 DUP3 ADD SWAP1 POP SWAP3 SWAP2 POP POP JUMP JUMPDEST PUSH0 DUP2 SWAP1 POP PUSH1 0x20 DUP3 ADD SWAP1 POP SWAP2 SWAP1 POP JUMP JUMPDEST PUSH2 0x3C82 DUP2 PUSH2 0x2FDD JUMP JUMPDEST DUP3 MSTORE POP POP JUMP JUMPDEST PUSH0 PUSH2 0x3C93 DUP4 DUP4 PUSH2 0x3C79 JUMP JUMPDEST PUSH1 0x20 DUP4 ADD SWAP1 POP SWAP3 SWAP2 POP POP JUMP JUMPDEST PUSH0 PUSH1 0x20 DUP3 ADD SWAP1 POP SWAP2 SWAP1 POP JUMP JUMPDEST PUSH0 PUSH2 0x3CB5 DUP3 PUSH2 0x3C50 JUMP JUMPDEST PUSH2 0x3CBF DUP2 DUP6 PUSH2 0x3C5A JUMP JUMPDEST SWAP4 POP PUSH2 0x3CCA DUP4 PUSH2 0x3C6A JUMP JUMPDEST DUP1 PUSH0 JUMPDEST DUP4 DUP2 LT ISZERO PUSH2 0x3CFA JUMPI DUP2 MLOAD PUSH2 0x3CE1 DUP9 DUP3 PUSH2 0x3C88 JUMP JUMPDEST SWAP8 POP PUSH2 0x3CEC DUP4 PUSH2 0x3C9F JUMP JUMPDEST SWAP3 POP POP PUSH1 0x1 DUP2 ADD SWAP1 POP PUSH2 0x3CCD JUMP JUMPDEST POP DUP6 SWAP4 POP POP POP POP SWAP3 SWAP2 POP POP JUMP JUMPDEST PUSH0 PUSH1 0x20 DUP3 ADD SWAP1 POP DUP2 DUP2 SUB PUSH0 DUP4 ADD MSTORE PUSH2 0x3D1F DUP2 DUP5 PUSH2 0x3CAB JUMP JUMPDEST SWAP1 POP SWAP3 SWAP2 POP POP JUMP JUMPDEST PUSH0 PUSH8 0xFFFFFFFFFFFFFFFF DUP3 GT ISZERO PUSH2 0x3D41 JUMPI PUSH2 0x3D40 PUSH2 0x310D JUMP JUMPDEST JUMPDEST PUSH2 0x3D4A DUP3 PUSH2 0x2E28 JUMP JUMPDEST SWAP1 POP PUSH1 0x20 DUP2 ADD SWAP1 POP SWAP2 SWAP1 POP JUMP JUMPDEST PUSH0 PUSH2 0x3D69 PUSH2 0x3D64 DUP5 PUSH2 0x3D27 JUMP JUMPDEST PUSH2 0x316B JUMP JUMPDEST SWAP1 POP DUP3 DUP2 MSTORE PUSH1 0x20 DUP2 ADD DUP5 DUP5 DUP5 ADD GT ISZERO PUSH2 0x3D85 JUMPI PUSH2 0x3D84 PUSH2 0x35AF JUMP JUMPDEST JUMPDEST PUSH2 0x3D90 DUP5 DUP3 DUP6 PUSH2 0x2E1A JUMP JUMPDEST POP SWAP4 SWAP3 POP POP POP JUMP JUMPDEST PUSH0 DUP3 PUSH1 0x1F DUP4 ADD SLT PUSH2 0x3DAC JUMPI PUSH2 0x3DAB PUSH2 0x3109 JUMP JUMPDEST JUMPDEST DUP2 CALLDATALOAD PUSH2 0x3DBC DUP5 DUP3 PUSH1 0x20 DUP7 ADD PUSH2 0x3D57 JUMP JUMPDEST SWAP2 POP POP SWAP3 SWAP2 POP POP JUMP JUMPDEST PUSH2 0x3DCE DUP2 PUSH2 0x30D8 JUMP JUMPDEST DUP2 EQ PUSH2 0x3DD8 JUMPI PUSH0 DUP1 REVERT JUMPDEST POP JUMP JUMPDEST PUSH0 DUP2 CALLDATALOAD SWAP1 POP PUSH2 0x3DE9 DUP2 PUSH2 0x3DC5 JUMP JUMPDEST SWAP3 SWAP2 POP POP JUMP JUMPDEST PUSH0 DUP1 PUSH0 DUP1 PUSH0 DUP1 PUSH0 PUSH1 0xE0 DUP9 DUP11 SUB SLT ISZERO PUSH2 0x3E0A JUMPI PUSH2 0x3E09 PUSH2 0x2E8F JUMP JUMPDEST JUMPDEST PUSH0 DUP9 ADD CALLDATALOAD PUSH8 0xFFFFFFFFFFFFFFFF DUP2 GT ISZERO PUSH2 0x3E27 JUMPI PUSH2 0x3E26 PUSH2 0x2E93 JUMP JUMPDEST JUMPDEST PUSH2 0x3E33 DUP11 DUP3 DUP12 ADD PUSH2 0x3D98 JUMP JUMPDEST SWAP8 POP POP PUSH1 0x20 DUP9 ADD CALLDATALOAD PUSH8 0xFFFFFFFFFFFFFFFF DUP2 GT ISZERO PUSH2 0x3E54 JUMPI PUSH2 0x3E53 PUSH2 0x2E93 JUMP JUMPDEST JUMPDEST PUSH2 0x3E60 DUP11 DUP3 DUP12 ADD PUSH2 0x3D98 JUMP JUMPDEST SWAP7 POP POP PUSH1 0x40 PUSH2 0x3E71 DUP11 DUP3 DUP12 ADD PUSH2 0x3DDB JUMP JUMPDEST SWAP6 POP POP PUSH1 0x60 PUSH2 0x3E82 DUP11 DUP3 DUP12 ADD PUSH2 0x359B JUMP JUMPDEST SWAP5 POP POP PUSH1 0x80 PUSH2 0x3E93 DUP11 DUP3 DUP12 ADD PUSH2 0x3DDB JUMP JUMPDEST SWAP4 POP POP PUSH1 0xA0 PUSH2 0x3EA4 DUP11 DUP3 DUP12 ADD PUSH2 0x345C JUMP JUMPDEST SWAP3 POP POP PUSH1 0xC0 DUP9 ADD CALLDATALOAD PUSH8 0xFFFFFFFFFFFFFFFF DUP2 GT ISZERO PUSH2 0x3EC5 JUMPI PUSH2 0x3EC4 PUSH2 0x2E93 JUMP JUMPDEST JUMPDEST PUSH2 0x3ED1 DUP11 DUP3 DUP12 ADD PUSH2 0x3624 JUMP JUMPDEST SWAP2 POP POP SWAP3 SWAP6 SWAP9 SWAP2 SWAP5 SWAP8 POP SWAP3 SWAP6 POP JUMP JUMPDEST PUSH0 DUP1 PUSH0 PUSH1 0x60 DUP5 DUP7 SUB SLT ISZERO PUSH2 0x3EF7 JUMPI PUSH2 0x3EF6 PUSH2 0x2E8F JUMP JUMPDEST JUMPDEST PUSH0 DUP5 ADD CALLDATALOAD PUSH8 0xFFFFFFFFFFFFFFFF DUP2 GT ISZERO PUSH2 0x3F14 JUMPI PUSH2 0x3F13 PUSH2 0x2E93 JUMP JUMPDEST JUMPDEST PUSH2 0x3F20 DUP7 DUP3 DUP8 ADD PUSH2 0x321C JUMP JUMPDEST SWAP4 POP POP PUSH1 0x20 DUP5 ADD CALLDATALOAD PUSH8 0xFFFFFFFFFFFFFFFF DUP2 GT ISZERO PUSH2 0x3F41 JUMPI PUSH2 0x3F40 PUSH2 0x2E93 JUMP JUMPDEST JUMPDEST PUSH2 0x3F4D DUP7 DUP3 DUP8 ADD PUSH2 0x321C JUMP JUMPDEST SWAP3 POP POP PUSH1 0x40 DUP5 ADD CALLDATALOAD PUSH8 0xFFFFFFFFFFFFFFFF DUP2 GT ISZERO PUSH2 0x3F6E JUMPI PUSH2 0x3F6D PUSH2 0x2E93 JUMP JUMPDEST JUMPDEST PUSH2 0x3F7A DUP7 DUP3 DUP8 ADD PUSH2 0x39E4 JUMP JUMPDEST SWAP2 POP POP SWAP3 POP SWAP3 POP SWAP3 JUMP JUMPDEST PUSH0 DUP1 PUSH0 PUSH1 0x60 DUP5 DUP7 SUB SLT ISZERO PUSH2 0x3F9B JUMPI PUSH2 0x3F9A PUSH2 0x2E8F JUMP JUMPDEST JUMPDEST PUSH0 PUSH2 0x3FA8 DUP7 DUP3 DUP8 ADD PUSH2 0x2FFC JUMP JUMPDEST SWAP4 POP POP PUSH1 0x20 PUSH2 0x3FB9 DUP7 DUP3 DUP8 ADD PUSH2 0x2FFC JUMP JUMPDEST SWAP3 POP POP PUSH1 0x40 DUP5 ADD CALLDATALOAD PUSH8 0xFFFFFFFFFFFFFFFF DUP2 GT ISZERO PUSH2 0x3FDA JUMPI PUSH2 0x3FD9 PUSH2 0x2E93 JUMP JUMPDEST JUMPDEST PUSH2 0x3FE6 DUP7 DUP3 DUP8 ADD PUSH2 0x3624 JUMP JUMPDEST SWAP2 POP POP SWAP3 POP SWAP3 POP SWAP3 JUMP JUMPDEST PUSH0 DUP1 PUSH0 DUP1 PUSH1 0x80 DUP6 DUP8 SUB SLT ISZERO PUSH2 0x4008 JUMPI PUSH2 0x4007 PUSH2 0x2E8F JUMP JUMPDEST JUMPDEST PUSH0 PUSH2 0x4015 DUP8 DUP3 DUP9 ADD PUSH2 0x345C JUMP JUMPDEST SWAP5 POP POP PUSH1 0x20 PUSH2 0x4026 DUP8 DUP3 DUP9 ADD PUSH2 0x2FFC JUMP JUMPDEST SWAP4 POP POP PUSH1 0x40 PUSH2 0x4037 DUP8 DUP3 DUP9 ADD PUSH2 0x359B JUMP JUMPDEST SWAP3 POP POP PUSH1 0x60 DUP6 ADD CALLDATALOAD PUSH8 0xFFFFFFFFFFFFFFFF DUP2 GT ISZERO PUSH2 0x4058 JUMPI PUSH2 0x4057 PUSH2 0x2E93 JUMP JUMPDEST JUMPDEST PUSH2 0x4064 DUP8 DUP3 DUP9 ADD PUSH2 0x3624 JUMP JUMPDEST SWAP2 POP POP SWAP3 SWAP6 SWAP2 SWAP5 POP SWAP3 POP JUMP JUMPDEST PUSH0 PUSH1 0x20 DUP3 DUP5 SUB SLT ISZERO PUSH2 0x4085 JUMPI PUSH2 0x4084 PUSH2 0x2E8F JUMP JUMPDEST JUMPDEST PUSH0 DUP3 ADD CALLDATALOAD PUSH8 0xFFFFFFFFFFFFFFFF DUP2 GT ISZERO PUSH2 0x40A2 JUMPI PUSH2 0x40A1 PUSH2 0x2E93 JUMP JUMPDEST JUMPDEST PUSH2 0x40AE DUP5 DUP3 DUP6 ADD PUSH2 0x321C JUMP JUMPDEST SWAP2 POP POP SWAP3 SWAP2 POP POP JUMP JUMPDEST PUSH2 0x40C0 DUP2 PUSH2 0x2E97 JUMP JUMPDEST DUP3 MSTORE POP POP JUMP JUMPDEST PUSH0 PUSH1 0x20 DUP3 ADD SWAP1 POP PUSH2 0x40D9 PUSH0 DUP4 ADD DUP5 PUSH2 0x40B7 JUMP JUMPDEST SWAP3 SWAP2 POP POP JUMP JUMPDEST PUSH0 DUP2 SWAP1 POP SWAP3 SWAP2 POP POP JUMP JUMPDEST PUSH0 PUSH2 0x40F4 DUP4 DUP6 PUSH2 0x40DF JUMP JUMPDEST SWAP4 POP PUSH2 0x4101 DUP4 DUP6 DUP5 PUSH2 0x2E1A JUMP JUMPDEST DUP3 DUP5 ADD SWAP1 POP SWAP4 SWAP3 POP POP POP JUMP JUMPDEST PUSH0 DUP2 PUSH1 0x60 SHL SWAP1 POP SWAP2 SWAP1 POP JUMP JUMPDEST PUSH0 PUSH2 0x4123 DUP3 PUSH2 0x410D JUMP JUMPDEST SWAP1 POP SWAP2 SWAP1 POP JUMP JUMPDEST PUSH0 PUSH2 0x4134 DUP3 PUSH2 0x4119 JUMP JUMPDEST SWAP1 POP SWAP2 SWAP1 POP JUMP JUMPDEST PUSH2 0x414C PUSH2 0x4147 DUP3 PUSH2 0x340D JUMP JUMPDEST PUSH2 0x412A JUMP JUMPDEST DUP3 MSTORE POP POP JUMP JUMPDEST PUSH0 DUP2 SWAP1 POP SWAP2 SWAP1 POP JUMP JUMPDEST PUSH2 0x416C PUSH2 0x4167 DUP3 PUSH2 0x30D8 JUMP JUMPDEST PUSH2 0x4152 JUMP JUMPDEST DUP3 MSTORE POP POP JUMP JUMPDEST PUSH0 PUSH2 0x417E DUP3 DUP7 DUP9 PUSH2 0x40E9 JUMP JUMPDEST SWAP2 POP PUSH2 0x418A DUP3 DUP6 PUSH2 0x413B JUMP JUMPDEST PUSH1 0x14 DUP3 ADD SWAP2 POP PUSH2 0x419A DUP3 DUP5 PUSH2 0x415B JUMP JUMPDEST PUSH1 0x20 DUP3 ADD SWAP2 POP DUP2 SWAP1 POP SWAP6 SWAP5 POP POP POP POP POP JUMP JUMPDEST PUSH0 PUSH2 0x41B6 DUP3 PUSH2 0x304E JUMP JUMPDEST PUSH2 0x41C0 DUP2 DUP6 PUSH2 0x40DF JUMP JUMPDEST SWAP4 POP PUSH2 0x41D0 DUP2 DUP6 PUSH1 0x20 DUP7 ADD PUSH2 0x3058 JUMP JUMPDEST DUP1 DUP5 ADD SWAP2 POP POP SWAP3 SWAP2 POP POP JUMP JUMPDEST PUSH0 PUSH2 0x41E7 DUP3 DUP5 PUSH2 0x41AC JUMP JUMPDEST SWAP2 POP DUP2 SWAP1 POP SWAP3 SWAP2 POP POP JUMP JUMPDEST PUSH32 0x4E487B7100000000000000000000000000000000000000000000000000000000 PUSH0 MSTORE PUSH1 0x32 PUSH1 0x4 MSTORE PUSH1 0x24 PUSH0 REVERT JUMPDEST PUSH2 0x4228 DUP2 PUSH2 0x2FDD JUMP JUMPDEST DUP3 MSTORE POP POP JUMP JUMPDEST PUSH0 PUSH1 0x20 DUP3 ADD SWAP1 POP PUSH2 0x4241 PUSH0 DUP4 ADD DUP5 PUSH2 0x421F JUMP JUMPDEST SWAP3 SWAP2 POP POP JUMP JUMPDEST PUSH0 PUSH1 0x40 DUP3 ADD SWAP1 POP PUSH2 0x425A PUSH0 DUP4 ADD DUP6 PUSH2 0x421F JUMP JUMPDEST PUSH2 0x4267 PUSH1 0x20 DUP4 ADD DUP5 PUSH2 0x341E JUMP JUMPDEST SWAP4 SWAP3 POP POP POP JUMP JUMPDEST PUSH0 DUP1 REVERT JUMPDEST PUSH0 DUP1 REVERT JUMPDEST PUSH0 DUP1 REVERT JUMPDEST PUSH0 DUP1 DUP4 CALLDATALOAD PUSH1 0x1 PUSH1 0x20 SUB DUP5 CALLDATASIZE SUB SUB DUP2 SLT PUSH2 0x4296 JUMPI PUSH2 0x4295 PUSH2 0x426E JUMP JUMPDEST JUMPDEST DUP1 DUP5 ADD SWAP3 POP DUP3 CALLDATALOAD SWAP2 POP PUSH8 0xFFFFFFFFFFFFFFFF DUP3 GT ISZERO PUSH2 0x42B8 JUMPI PUSH2 0x42B7 PUSH2 0x4272 JUMP JUMPDEST JUMPDEST PUSH1 0x20 DUP4 ADD SWAP3 POP PUSH1 0x1 DUP3 MUL CALLDATASIZE SUB DUP4 SGT ISZERO PUSH2 0x42D4 JUMPI PUSH2 0x42D3 PUSH2 0x4276 JUMP JUMPDEST JUMPDEST POP SWAP3 POP SWAP3 SWAP1 POP JUMP JUMPDEST PUSH0 PUSH2 0x42E8 DUP3 DUP5 DUP7 PUSH2 0x40E9 JUMP JUMPDEST SWAP2 POP DUP2 SWAP1 POP SWAP4 SWAP3 POP POP POP JUMP JUMPDEST PUSH0 PUSH1 0x60 DUP3 ADD SWAP1 POP PUSH2 0x4307 PUSH0 DUP4 ADD DUP7 PUSH2 0x341E JUMP JUMPDEST PUSH2 0x4314 PUSH1 0x20 DUP4 ADD DUP6 PUSH2 0x421F JUMP JUMPDEST PUSH2 0x4321 PUSH1 0x40 DUP4 ADD DUP5 PUSH2 0x341E JUMP JUMPDEST SWAP5 SWAP4 POP POP POP POP JUMP JUMPDEST PUSH0 PUSH1 0x40 DUP3 ADD SWAP1 POP PUSH2 0x433C PUSH0 DUP4 ADD DUP6 PUSH2 0x341E JUMP JUMPDEST PUSH2 0x4349 PUSH1 0x20 DUP4 ADD DUP5 PUSH2 0x421F JUMP JUMPDEST SWAP4 SWAP3 POP POP POP JUMP JUMPDEST PUSH0 PUSH1 0x80 DUP3 ADD SWAP1 POP PUSH2 0x4363 PUSH0 DUP4 ADD DUP8 PUSH2 0x341E JUMP JUMPDEST PUSH2 0x4370 PUSH1 0x20 DUP4 ADD DUP7 PUSH2 0x421F JUMP JUMPDEST PUSH2 0x437D PUSH1 0x40 DUP4 ADD DUP6 PUSH2 0x2F22 JUMP JUMPDEST DUP2 DUP2 SUB PUSH1 0x60 DUP4 ADD MSTORE PUSH2 0x438F DUP2 DUP5 PUSH2 0x3080 JUMP JUMPDEST SWAP1 POP SWAP6 SWAP5 POP POP POP POP POP JUMP JUMPDEST PUSH0 DUP2 MLOAD SWAP1 POP SWAP2 SWAP1 POP JUMP JUMPDEST PUSH0 DUP3 DUP3 MSTORE PUSH1 0x20 DUP3 ADD SWAP1 POP SWAP3 SWAP2 POP POP JUMP JUMPDEST PUSH0 PUSH2 0x43BE DUP3 PUSH2 0x439A JUMP JUMPDEST PUSH2 0x43C8 DUP2 DUP6 PUSH2 0x43A4 JUMP JUMPDEST SWAP4 POP PUSH2 0x43D8 DUP2 DUP6 PUSH1 0x20 DUP7 ADD PUSH2 0x3058 JUMP JUMPDEST PUSH2 0x43E1 DUP2 PUSH2 0x2E28 JUMP JUMPDEST DUP5 ADD SWAP2 POP POP SWAP3 SWAP2 POP POP JUMP JUMPDEST PUSH0 PUSH1 0xE0 DUP3 ADD SWAP1 POP DUP2 DUP2 SUB PUSH0 DUP4 ADD MSTORE PUSH2 0x4404 DUP2 DUP11 PUSH2 0x43B4 JUMP JUMPDEST SWAP1 POP DUP2 DUP2 SUB PUSH1 0x20 DUP4 ADD MSTORE PUSH2 0x4418 DUP2 DUP10 PUSH2 0x43B4 JUMP JUMPDEST SWAP1 POP PUSH2 0x4427 PUSH1 0x40 DUP4 ADD DUP9 PUSH2 0x30E1 JUMP JUMPDEST PUSH2 0x4434 PUSH1 0x60 DUP4 ADD DUP8 PUSH2 0x2F22 JUMP JUMPDEST PUSH2 0x4441 PUSH1 0x80 DUP4 ADD DUP7 PUSH2 0x30E1 JUMP JUMPDEST PUSH2 0x444E PUSH1 0xA0 DUP4 ADD DUP6 PUSH2 0x341E JUMP JUMPDEST DUP2 DUP2 SUB PUSH1 0xC0 DUP4 ADD MSTORE PUSH2 0x4460 DUP2 DUP5 PUSH2 0x3080 JUMP JUMPDEST SWAP1 POP SWAP9 SWAP8 POP POP POP POP POP POP POP POP JUMP JUMPDEST PUSH0 DUP2 MLOAD SWAP1 POP PUSH2 0x447C DUP2 PUSH2 0x3446 JUMP JUMPDEST SWAP3 SWAP2 POP POP JUMP JUMPDEST PUSH0 PUSH1 0x20 DUP3 DUP5 SUB SLT ISZERO PUSH2 0x4497 JUMPI PUSH2 0x4496 PUSH2 0x2E8F JUMP JUMPDEST JUMPDEST PUSH0 PUSH2 0x44A4 DUP5 DUP3 DUP6 ADD PUSH2 0x446E JUMP JUMPDEST SWAP2 POP POP SWAP3 SWAP2 POP POP JUMP JUMPDEST PUSH0 PUSH1 0x60 DUP3 ADD SWAP1 POP PUSH2 0x44C0 PUSH0 DUP4 ADD DUP7 PUSH2 0x341E JUMP JUMPDEST PUSH2 0x44CD PUSH1 0x20 DUP4 ADD DUP6 PUSH2 0x341E JUMP JUMPDEST PUSH2 0x44DA PUSH1 0x40 DUP4 ADD DUP5 PUSH2 0x421F JUMP JUMPDEST SWAP5 SWAP4 POP POP POP POP JUMP JUMPDEST PUSH0 DUP2 SWAP1 POP PUSH1 0x20 DUP3 ADD SWAP1 POP SWAP2 SWAP1 POP JUMP JUMPDEST PUSH0 PUSH32 0xFFFFFFFFFFFFFFFFFFFFFFFFFFFFFFFFFFFFFFFF000000000000000000000000 DUP3 AND SWAP1 POP SWAP2 SWAP1 POP JUMP JUMPDEST PUSH0 PUSH2 0x4527 DUP3 MLOAD PUSH2 0x44F1 JUMP JUMPDEST DUP1 SWAP2 POP POP SWAP2 SWAP1 POP JUMP JUMPDEST PUSH0 DUP3 DUP3 SHL SWAP1 POP SWAP3 SWAP2 POP POP JUMP JUMPDEST PUSH0 PUSH2 0x4546 DUP3 PUSH2 0x304E JUMP JUMPDEST DUP3 PUSH2 0x4550 DUP5 PUSH2 0x44E2 JUMP JUMPDEST SWAP1 POP PUSH2 0x455B DUP2 PUSH2 0x451C JUMP JUMPDEST SWAP3 POP PUSH1 0x14 DUP3 LT ISZERO PUSH2 0x459B JUMPI PUSH2 0x4596 PUSH32 0xFFFFFFFFFFFFFFFFFFFFFFFFFFFFFFFFFFFFFFFF000000000000000000000000 DUP4 PUSH1 0x14 SUB PUSH1 0x8 MUL PUSH2 0x4530 JUMP JUMPDEST DUP4 AND SWAP3 POP JUMPDEST POP POP SWAP2 SWAP1 POP JUMP JUMPDEST PUSH0 PUSH1 0x60 DUP3 ADD SWAP1 POP PUSH2 0x45B5 PUSH0 DUP4 ADD DUP7 PUSH2 0x421F JUMP JUMPDEST PUSH2 0x45C2 PUSH1 0x20 DUP4 ADD DUP6 PUSH2 0x341E JUMP JUMPDEST PUSH2 0x45CF PUSH1 0x40 DUP4 ADD DUP5 PUSH2 0x341E JUMP JUMPDEST SWAP5 SWAP4 POP POP POP POP JUMP JUMPDEST PUSH0 PUSH1 0x60 DUP3 ADD SWAP1 POP PUSH2 0x45EA PUSH0 DUP4 ADD DUP7 PUSH2 0x341E JUMP JUMPDEST PUSH2 0x45F7 PUSH1 0x20 DUP4 ADD DUP6 PUSH2 0x2F22 JUMP JUMPDEST DUP2 DUP2 SUB PUSH1 0x40 DUP4 ADD MSTORE PUSH2 0x4609 DUP2 DUP5 PUSH2 0x3080 JUMP JUMPDEST SWAP1 POP SWAP5 SWAP4 POP POP POP POP JUMP JUMPDEST PUSH0 PUSH1 0xA0 DUP3 ADD SWAP1 POP PUSH2 0x4626 PUSH0 DUP4 ADD DUP9 PUSH2 0x341E JUMP JUMPDEST PUSH2 0x4633 PUSH1 0x20 DUP4 ADD DUP8 PUSH2 0x341E JUMP JUMPDEST PUSH2 0x4640 PUSH1 0x40 DUP4 ADD DUP7 PUSH2 0x341E JUMP JUMPDEST PUSH2 0x464D PUSH1 0x60 DUP4 ADD DUP6 PUSH2 0x421F JUMP JUMPDEST DUP2 DUP2 SUB PUSH1 0x80 DUP4 ADD MSTORE PUSH2 0x465F DUP2 DUP5 PUSH2 0x3080 JUMP JUMPDEST SWAP1 POP SWAP7 SWAP6 POP POP POP POP POP POP JUMP JUMPDEST PUSH32 0x4E487B7100000000000000000000000000000000000000000000000000000000 PUSH0 MSTORE PUSH1 0x22 PUSH1 0x4 MSTORE PUSH1 0x24 PUSH0 REVERT JUMPDEST PUSH0 PUSH1 0x2 DUP3 DIV SWAP1 POP PUSH1 0x1 DUP3 AND DUP1 PUSH2 0x46AF JUMPI PUSH1 0x7F DUP3 AND SWAP2 POP JUMPDEST PUSH1 0x20 DUP3 LT DUP2 SUB PUSH2 0x46C2 JUMPI PUSH2 0x46C1 PUSH2 0x466B JUMP JUMPDEST JUMPDEST POP SWAP2 SWAP1 POP JUMP JUMPDEST PUSH32 0x4E487B7100000000000000000000000000000000000000000000000000000000 PUSH0 MSTORE PUSH1 0x11 PUSH1 0x4 MSTORE PUSH1 0x24 PUSH0 REVERT JUMPDEST PUSH0 PUSH2 0x46FF DUP3 PUSH2 0x30D8 JUMP JUMPDEST SWAP2 POP PUSH32 0xFFFFFFFFFFFFFFFFFFFFFFFFFFFFFFFFFFFFFFFFFFFFFFFFFFFFFFFFFFFFFFFF DUP3 SUB PUSH2 0x4731 JUMPI PUSH2 0x4730 PUSH2 0x46C8 JUMP JUMPDEST JUMPDEST PUSH1 0x1 DUP3 ADD SWAP1 POP SWAP2 SWAP1 POP JUMP JUMPDEST PUSH0 PUSH1 0x40 DUP3 ADD SWAP1 POP PUSH2 0x474F PUSH0 DUP4 ADD DUP6 PUSH2 0x2F22 JUMP JUMPDEST DUP2 DUP2 SUB PUSH1 0x20 DUP4 ADD MSTORE PUSH2 0x4761 DUP2 DUP5 PUSH2 0x3080 JUMP JUMPDEST SWAP1 POP SWAP4 SWAP3 POP POP POP JUMP JUMPDEST PUSH0 PUSH32 0xFFFFFFFFFFFFFFFFFFFF00000000000000000000000000000000000000000000 DUP3 AND SWAP1 POP SWAP2 SWAP1 POP JUMP JUMPDEST PUSH0 DUP2 SWAP1 POP SWAP2 SWAP1 POP JUMP JUMPDEST PUSH2 0x47AF PUSH2 0x47AA DUP3 PUSH2 0x476A JUMP JUMPDEST PUSH2 0x4795 JUMP JUMPDEST DUP3 MSTORE POP POP JUMP JUMPDEST PUSH0 PUSH32 0xFFFF000000000000000000000000000000000000000000000000000000000000 DUP3 AND SWAP1 POP SWAP2 SWAP1 POP JUMP JUMPDEST PUSH0 DUP2 SWAP1 POP SWAP2 SWAP1 POP JUMP JUMPDEST PUSH2 0x47FA PUSH2 0x47F5 DUP3 PUSH2 0x47B5 JUMP JUMPDEST PUSH2 0x47E0 JUMP JUMPDEST DUP3 MSTORE POP POP JUMP JUMPDEST PUSH0 DUP2 SWAP1 POP SWAP2 SWAP1 POP JUMP JUMPDEST PUSH2 0x481A PUSH2 0x4815 DUP3 PUSH2 0x44F1 JUMP JUMPDEST PUSH2 0x4800 JUMP JUMPDEST DUP3 MSTORE POP POP JUMP JUMPDEST PUSH0 PUSH2 0x482B DUP3 DUP7 PUSH2 0x479E JUMP JUMPDEST PUSH1 0xA DUP3 ADD SWAP2 POP PUSH2 0x483B DUP3 DUP6 PUSH2 0x47E9 JUMP JUMPDEST PUSH1 0x2 DUP3 ADD SWAP2 POP PUSH2 0x484B DUP3 DUP5 PUSH2 0x4809 JUMP JUMPDEST PUSH1 0x14 DUP3 ADD SWAP2 POP DUP2 SWAP1 POP SWAP5 SWAP4 POP POP POP POP JUMP JUMPDEST PUSH0 PUSH2 0x4867 DUP3 MLOAD PUSH2 0x2FDD JUMP JUMPDEST DUP1 SWAP2 POP POP SWAP2 SWAP1 POP JUMP JUMPDEST PUSH0 PUSH2 0x487A DUP3 PUSH2 0x304E JUMP JUMPDEST DUP3 PUSH2 0x4884 DUP5 PUSH2 0x44E2 JUMP JUMPDEST SWAP1 POP PUSH2 0x488F DUP2 PUSH2 0x485C JUMP JUMPDEST SWAP3 POP PUSH1 0x20 DUP3 LT ISZERO PUSH2 0x48CF JUMPI PUSH2 0x48CA PUSH32 0xFFFFFFFFFFFFFFFFFFFFFFFFFFFFFFFFFFFFFFFFFFFFFFFFFFFFFFFFFFFFFFFF DUP4 PUSH1 0x20 SUB PUSH1 0x8 MUL PUSH2 0x4530 JUMP JUMPDEST DUP4 AND SWAP3 POP JUMPDEST POP POP SWAP2 SWAP1 POP JUMP JUMPDEST PUSH0 PUSH2 0x48E8 PUSH2 0x48E3 DUP5 PUSH2 0x35B3 JUMP JUMPDEST PUSH2 0x316B JUMP JUMPDEST SWAP1 POP DUP3 DUP2 MSTORE PUSH1 0x20 DUP2 ADD DUP5 DUP5 DUP5 ADD GT ISZERO PUSH2 0x4904 JUMPI PUSH2 0x4903 PUSH2 0x35AF JUMP JUMPDEST JUMPDEST PUSH2 0x490F DUP5 DUP3 DUP6 PUSH2 0x3058 JUMP JUMPDEST POP SWAP4 SWAP3 POP POP POP JUMP JUMPDEST PUSH0 DUP3 PUSH1 0x1F DUP4 ADD SLT PUSH2 0x492B JUMPI PUSH2 0x492A PUSH2 0x3109 JUMP JUMPDEST JUMPDEST DUP2 MLOAD PUSH2 0x493B DUP5 DUP3 PUSH1 0x20 DUP7 ADD PUSH2 0x48D6 JUMP JUMPDEST SWAP2 POP POP SWAP3 SWAP2 POP POP JUMP JUMPDEST PUSH0 PUSH1 0x20 DUP3 DUP5 SUB SLT ISZERO PUSH2 0x4959 JUMPI PUSH2 0x4958 PUSH2 0x2E8F JUMP JUMPDEST JUMPDEST PUSH0 DUP3 ADD MLOAD PUSH8 0xFFFFFFFFFFFFFFFF DUP2 GT ISZERO PUSH2 0x4976 JUMPI PUSH2 0x4975 PUSH2 0x2E93 JUMP JUMPDEST JUMPDEST PUSH2 0x4982 DUP5 DUP3 DUP6 ADD PUSH2 0x4917 JUMP JUMPDEST SWAP2 POP POP SWAP3 SWAP2 POP POP JUMP JUMPDEST PUSH0 PUSH1 0x40 DUP3 ADD SWAP1 POP PUSH2 0x499E PUSH0 DUP4 ADD DUP6 PUSH2 0x421F JUMP JUMPDEST DUP2 DUP2 SUB PUSH1 0x20 DUP4 ADD MSTORE PUSH2 0x49B0 DUP2 DUP5 PUSH2 0x3080 JUMP JUMPDEST SWAP1 POP SWAP4 SWAP3 POP POP POP JUMP JUMPDEST PUSH0 PUSH2 0x49C3 DUP3 PUSH2 0x30D8 JUMP JUMPDEST SWAP2 POP PUSH2 0x49CE DUP4 PUSH2 0x30D8 JUMP JUMPDEST SWAP3 POP DUP3 DUP3 SUB SWAP1 POP DUP2 DUP2 GT ISZERO PUSH2 0x49E6 JUMPI PUSH2 0x49E5 PUSH2 0x46C8 JUMP JUMPDEST JUMPDEST SWAP3 SWAP2 POP POP JUMP JUMPDEST PUSH32 0x4E487B7100000000000000000000000000000000000000000000000000000000 PUSH0 MSTORE PUSH1 0x31 PUSH1 0x4 MSTORE PUSH1 0x24 PUSH0 REVERT JUMPDEST PUSH0 DUP2 SWAP1 POP DUP2 PUSH0 MSTORE PUSH1 0x20 PUSH0 KECCAK256 SWAP1 POP SWAP2 SWAP1 POP JUMP JUMPDEST PUSH0 PUSH1 0x20 PUSH1 0x1F DUP4 ADD DIV SWAP1 POP SWAP2 SWAP1 POP JUMP JUMPDEST PUSH0 PUSH1 0x8 DUP4 MUL PUSH2 0x4A69 PUSH32 0xFFFFFFFFFFFFFFFFFFFFFFFFFFFFFFFFFFFFFFFFFFFFFFFFFFFFFFFFFFFFFFFF DUP3 PUSH2 0x4530 JUMP JUMPDEST PUSH2 0x4A73 DUP7 DUP4 PUSH2 0x4530 JUMP JUMPDEST SWAP6 POP DUP1 NOT DUP5 AND SWAP4 POP DUP1 DUP7 AND DUP5 OR SWAP3 POP POP POP SWAP4 SWAP3 POP POP POP JUMP JUMPDEST PUSH0 PUSH2 0x4AA5 PUSH2 0x4AA0 PUSH2 0x4A9B DUP5 PUSH2 0x30D8 JUMP JUMPDEST PUSH2 0x2F69 JUMP JUMPDEST PUSH2 0x30D8 JUMP JUMPDEST SWAP1 POP SWAP2 SWAP1 POP JUMP JUMPDEST PUSH0 DUP2 SWAP1 POP SWAP2 SWAP1 POP JUMP JUMPDEST PUSH2 0x4ABE DUP4 PUSH2 0x4A8B JUMP JUMPDEST PUSH2 0x4AD2 PUSH2 0x4ACA DUP3 PUSH2 0x4AAC JUMP JUMPDEST DUP5 DUP5 SLOAD PUSH2 0x4A3A JUMP JUMPDEST DUP3 SSTORE POP POP POP POP JUMP JUMPDEST PUSH0 SWAP1 JUMP JUMPDEST PUSH2 0x4AE6 PUSH2 0x4ADA JUMP JUMPDEST PUSH2 0x4AF1 DUP2 DUP5 DUP5 PUSH2 0x4AB5 JUMP JUMPDEST POP POP POP JUMP JUMPDEST JUMPDEST DUP2 DUP2 LT ISZERO PUSH2 0x4B14 JUMPI PUSH2 0x4B09 PUSH0 DUP3 PUSH2 0x4ADE JUMP JUMPDEST PUSH1 0x1 DUP2 ADD SWAP1 POP PUSH2 0x4AF7 JUMP JUMPDEST POP POP JUMP JUMPDEST PUSH1 0x1F DUP3 GT ISZERO PUSH2 0x4B59 JUMPI PUSH2 0x4B2A DUP2 PUSH2 0x4A19 JUMP JUMPDEST PUSH2 0x4B33 DUP5 PUSH2 0x4A2B JUMP JUMPDEST DUP2 ADD PUSH1 0x20 DUP6 LT ISZERO PUSH2 0x4B42 JUMPI DUP2 SWAP1 POP JUMPDEST PUSH2 0x4B56 PUSH2 0x4B4E DUP6 PUSH2 0x4A2B JUMP JUMPDEST DUP4 ADD DUP3 PUSH2 0x4AF6 JUMP JUMPDEST POP POP JUMPDEST POP POP POP JUMP JUMPDEST PUSH0 DUP3 DUP3 SHR SWAP1 POP SWAP3 SWAP2 POP POP JUMP JUMPDEST PUSH0 PUSH2 0x4B79 PUSH0 NOT DUP5 PUSH1 0x8 MUL PUSH2 0x4B5E JUMP JUMPDEST NOT DUP1 DUP4 AND SWAP2 POP POP SWAP3 SWAP2 POP POP JUMP JUMPDEST PUSH0 PUSH2 0x4B91 DUP4 DUP4 PUSH2 0x4B6A JUMP JUMPDEST SWAP2 POP DUP3 PUSH1 0x2 MUL DUP3 OR SWAP1 POP SWAP3 SWAP2 POP POP JUMP JUMPDEST PUSH2 0x4BAA DUP3 PUSH2 0x304E JUMP JUMPDEST PUSH8 0xFFFFFFFFFFFFFFFF DUP2 GT ISZERO PUSH2 0x4BC3 JUMPI PUSH2 0x4BC2 PUSH2 0x310D JUMP JUMPDEST JUMPDEST PUSH2 0x4BCD DUP3 SLOAD PUSH2 0x4698 JUMP JUMPDEST PUSH2 0x4BD8 DUP3 DUP3 DUP6 PUSH2 0x4B18 JUMP JUMPDEST PUSH0 PUSH1 0x20 SWAP1 POP PUSH1 0x1F DUP4 GT PUSH1 0x1 DUP2 EQ PUSH2 0x4C09 JUMPI PUSH0 DUP5 ISZERO PUSH2 0x4BF7 JUMPI DUP3 DUP8 ADD MLOAD SWAP1 POP JUMPDEST PUSH2 0x4C01 DUP6 DUP3 PUSH2 0x4B86 JUMP JUMPDEST DUP7 SSTORE POP PUSH2 0x4C68 JUMP JUMPDEST PUSH1 0x1F NOT DUP5 AND PUSH2 0x4C17 DUP7 PUSH2 0x4A19 JUMP JUMPDEST PUSH0 JUMPDEST DUP3 DUP2 LT ISZERO PUSH2 0x4C3E JUMPI DUP5 DUP10 ADD MLOAD DUP3 SSTORE PUSH1 0x1 DUP3 ADD SWAP2 POP PUSH1 0x20 DUP6 ADD SWAP5 POP PUSH1 0x20 DUP2 ADD SWAP1 POP PUSH2 0x4C19 JUMP JUMPDEST DUP7 DUP4 LT ISZERO PUSH2 0x4C5B JUMPI DUP5 DUP10 ADD MLOAD PUSH2 0x4C57 PUSH1 0x1F DUP10 AND DUP3 PUSH2 0x4B6A JUMP JUMPDEST DUP4 SSTORE POP JUMPDEST PUSH1 0x1 PUSH1 0x2 DUP9 MUL ADD DUP9 SSTORE POP POP POP JUMPDEST POP POP POP POP POP POP JUMP INVALID LOG2 PUSH5 0x6970667358 0x22 SLT KECCAK256 0xF8 AND DUP9 RETURNDATACOPY PUSH25 0x3AAEB3AC239BE3398E25F6C0ABA1AB73DB727A17A698A5E0DC XOR PUSH16 0x64736F6C634300081400330000000000 "
		},
		"gasEstimates": {
			"creation": {
				"codeDepositCost": "3924400",
				"executionCost": "infinite",
				"totalCost": "infinite"
			},
			"external": {
				"": "infinite",
				"authorizeOperator(address,bytes32,bytes)": "infinite",
				"balanceOf(address)": "3064",
				"batchCalls(bytes[])": "infinite",
				"getData(bytes32)": "infinite",
				"getDataBatch(bytes32[])": "infinite",
				"getDataBatchForTokenIds(bytes32[],bytes32[])": "infinite",
				"getDataForTokenId(bytes32,bytes32)": "infinite",
				"getOperatorsOf(bytes32)": "infinite",
				"isOperatorFor(address,bytes32)": "infinite",
				"mint(string,string,uint256,bool,uint256,address,bytes)": "infinite",
				"minter()": "infinite",
				"owner()": "2626",
				"renounceOwnership()": "infinite",
				"revokeOperator(address,bytes32,bool,bytes)": "infinite",
				"setData(bytes32,bytes)": "infinite",
				"setDataBatch(bytes32[],bytes[])": "infinite",
				"setDataBatchForTokenIds(bytes32[],bytes32[],bytes[])": "infinite",
				"setDataForTokenId(bytes32,bytes32,bytes)": "infinite",
				"supportsInterface(bytes4)": "infinite",
				"tokenIdsOf(address)": "infinite",
				"tokenOwnerOf(bytes32)": "infinite",
				"totalSupply()": "2522",
				"transfer(address,address,bytes32,bool,bytes)": "infinite",
				"transferBatch(address[],address[],bytes32[],bool[],bytes[])": "infinite",
				"transferOwnership(address)": "infinite"
			},
			"internal": {
				"_getDataForTokenId(bytes32,bytes32)": "infinite",
				"_setDataForTokenId(bytes32,bytes32,bytes memory)": "infinite"
			}
		},
		"methodIdentifiers": {
			"authorizeOperator(address,bytes32,bytes)": "86a10ddd",
			"balanceOf(address)": "70a08231",
			"batchCalls(bytes[])": "6963d438",
			"getData(bytes32)": "54f6127f",
			"getDataBatch(bytes32[])": "dedff9c6",
			"getDataBatchForTokenIds(bytes32[],bytes32[])": "1d26fce6",
			"getDataForTokenId(bytes32,bytes32)": "16e023b3",
			"getOperatorsOf(bytes32)": "49a6078d",
			"isOperatorFor(address,bytes32)": "2a3654a4",
			"mint(string,string,uint256,bool,uint256,address,bytes)": "b3b2981e",
			"minter()": "07546172",
			"owner()": "8da5cb5b",
			"renounceOwnership()": "715018a6",
			"revokeOperator(address,bytes32,bool,bytes)": "db8c9663",
			"setData(bytes32,bytes)": "7f23690c",
			"setDataBatch(bytes32[],bytes[])": "97902421",
			"setDataBatchForTokenIds(bytes32[],bytes32[],bytes[])": "be9f0e6f",
			"setDataForTokenId(bytes32,bytes32,bytes)": "d6c1407c",
			"supportsInterface(bytes4)": "01ffc9a7",
			"tokenIdsOf(address)": "a3b261f2",
			"tokenOwnerOf(bytes32)": "217b2270",
			"totalSupply()": "18160ddd",
			"transfer(address,address,bytes32,bool,bytes)": "511b6952",
			"transferBatch(address[],address[],bytes32[],bool[],bytes[])": "7e87632c",
			"transferOwnership(address)": "f2fde38b"
		}
	},
	"abi": [
		{
			"inputs": [
				{
					"internalType": "string",
					"name": "name_",
					"type": "string"
				},
				{
					"internalType": "string",
					"name": "symbol_",
					"type": "string"
				},
				{
					"internalType": "address",
					"name": "newOwner_",
					"type": "address"
				},
				{
					"internalType": "uint256",
					"name": "lsp4TokenType_",
					"type": "uint256"
				},
				{
					"internalType": "bytes",
					"name": "lsp4MetadataURI_",
					"type": "bytes"
				},
				{
					"internalType": "address",
					"name": "minterAddress_",
					"type": "address"
				}
			],
			"stateMutability": "nonpayable",
			"type": "constructor"
		},
		{
			"inputs": [],
			"name": "ERC725Y_DataKeysValuesEmptyArray",
			"type": "error"
		},
		{
			"inputs": [],
			"name": "ERC725Y_DataKeysValuesLengthMismatch",
			"type": "error"
		},
		{
			"inputs": [],
			"name": "ERC725Y_MsgValueDisallowed",
			"type": "error"
		},
		{
			"inputs": [
				{
					"internalType": "bytes",
					"name": "storedData",
					"type": "bytes"
				}
			],
			"name": "InvalidExtensionAddress",
			"type": "error"
		},
		{
			"inputs": [
				{
					"internalType": "bytes",
					"name": "data",
					"type": "bytes"
				}
			],
			"name": "InvalidFunctionSelector",
			"type": "error"
		},
		{
			"inputs": [],
			"name": "LSP4TokenNameNotEditable",
			"type": "error"
		},
		{
			"inputs": [],
			"name": "LSP4TokenSymbolNotEditable",
			"type": "error"
		},
		{
			"inputs": [],
			"name": "LSP4TokenTypeNotEditable",
			"type": "error"
		},
		{
			"inputs": [
				{
					"internalType": "uint256",
					"name": "callIndex",
					"type": "uint256"
				}
			],
			"name": "LSP8BatchCallFailed",
			"type": "error"
		},
		{
			"inputs": [],
			"name": "LSP8CannotSendToAddressZero",
			"type": "error"
		},
		{
			"inputs": [],
			"name": "LSP8CannotUseAddressZeroAsOperator",
			"type": "error"
		},
		{
			"inputs": [],
			"name": "LSP8InvalidTransferBatch",
			"type": "error"
		},
		{
			"inputs": [
				{
					"internalType": "bytes32",
					"name": "tokenId",
					"type": "bytes32"
				}
			],
			"name": "LSP8NonExistentTokenId",
			"type": "error"
		},
		{
			"inputs": [
				{
					"internalType": "address",
					"name": "operator",
					"type": "address"
				},
				{
					"internalType": "bytes32",
					"name": "tokenId",
					"type": "bytes32"
				}
			],
			"name": "LSP8NonExistingOperator",
			"type": "error"
		},
		{
			"inputs": [
				{
					"internalType": "bytes32",
					"name": "tokenId",
					"type": "bytes32"
				},
				{
					"internalType": "address",
					"name": "caller",
					"type": "address"
				}
			],
			"name": "LSP8NotTokenOperator",
			"type": "error"
		},
		{
			"inputs": [
				{
					"internalType": "address",
					"name": "tokenOwner",
					"type": "address"
				},
				{
					"internalType": "bytes32",
					"name": "tokenId",
					"type": "bytes32"
				},
				{
					"internalType": "address",
					"name": "caller",
					"type": "address"
				}
			],
			"name": "LSP8NotTokenOwner",
			"type": "error"
		},
		{
			"inputs": [
				{
					"internalType": "address",
					"name": "tokenReceiver",
					"type": "address"
				}
			],
			"name": "LSP8NotifyTokenReceiverContractMissingLSP1Interface",
			"type": "error"
		},
		{
			"inputs": [
				{
					"internalType": "address",
					"name": "tokenReceiver",
					"type": "address"
				}
			],
			"name": "LSP8NotifyTokenReceiverIsEOA",
			"type": "error"
		},
		{
			"inputs": [
				{
					"internalType": "address",
					"name": "operator",
					"type": "address"
				},
				{
					"internalType": "bytes32",
					"name": "tokenId",
					"type": "bytes32"
				}
			],
			"name": "LSP8OperatorAlreadyAuthorized",
			"type": "error"
		},
		{
			"inputs": [
				{
					"internalType": "address",
					"name": "caller",
					"type": "address"
				},
				{
					"internalType": "address",
					"name": "tokenOwner",
					"type": "address"
				},
				{
					"internalType": "bytes32",
					"name": "tokenId",
					"type": "bytes32"
				}
			],
			"name": "LSP8RevokeOperatorNotAuthorized",
			"type": "error"
		},
		{
			"inputs": [],
			"name": "LSP8TokenContractCannotHoldValue",
			"type": "error"
		},
		{
			"inputs": [
				{
					"internalType": "bytes32",
					"name": "tokenId",
					"type": "bytes32"
				}
			],
			"name": "LSP8TokenIdAlreadyMinted",
			"type": "error"
		},
		{
			"inputs": [],
			"name": "LSP8TokenIdFormatNotEditable",
			"type": "error"
		},
		{
			"inputs": [],
			"name": "LSP8TokenIdsDataEmptyArray",
			"type": "error"
		},
		{
			"inputs": [],
			"name": "LSP8TokenIdsDataLengthMismatch",
			"type": "error"
		},
		{
			"inputs": [],
			"name": "LSP8TokenOwnerCannotBeOperator",
			"type": "error"
		},
		{
			"inputs": [
				{
					"internalType": "bytes32",
					"name": "tokenId",
					"type": "bytes32"
				},
				{
					"internalType": "address",
					"name": "oldOwner",
					"type": "address"
				},
				{
					"internalType": "address",
					"name": "newOwner",
					"type": "address"
				}
			],
			"name": "LSP8TokenOwnerChanged",
			"type": "error"
		},
		{
			"inputs": [
				{
					"internalType": "bytes4",
					"name": "functionSelector",
					"type": "bytes4"
				}
			],
			"name": "NoExtensionFoundForFunctionSelector",
			"type": "error"
		},
		{
			"inputs": [
				{
					"internalType": "address",
					"name": "callerAddress",
					"type": "address"
				}
			],
			"name": "OwnableCallerNotTheOwner",
			"type": "error"
		},
		{
			"inputs": [],
			"name": "OwnableCannotSetZeroAddressAsOwner",
			"type": "error"
		},
		{
			"anonymous": false,
			"inputs": [
				{
					"indexed": true,
					"internalType": "bytes32",
					"name": "dataKey",
					"type": "bytes32"
				},
				{
					"indexed": false,
					"internalType": "bytes",
					"name": "dataValue",
					"type": "bytes"
				}
			],
			"name": "DataChanged",
			"type": "event"
		},
		{
			"anonymous": false,
			"inputs": [
				{
					"indexed": true,
					"internalType": "address",
					"name": "operator",
					"type": "address"
				},
				{
					"indexed": true,
					"internalType": "address",
					"name": "tokenOwner",
					"type": "address"
				},
				{
					"indexed": true,
					"internalType": "bytes32",
					"name": "tokenId",
					"type": "bytes32"
				},
				{
					"indexed": false,
					"internalType": "bytes",
					"name": "operatorNotificationData",
					"type": "bytes"
				}
			],
			"name": "OperatorAuthorizationChanged",
			"type": "event"
		},
		{
			"anonymous": false,
			"inputs": [
				{
					"indexed": true,
					"internalType": "address",
					"name": "operator",
					"type": "address"
				},
				{
					"indexed": true,
					"internalType": "address",
					"name": "tokenOwner",
					"type": "address"
				},
				{
					"indexed": true,
					"internalType": "bytes32",
					"name": "tokenId",
					"type": "bytes32"
				},
				{
					"indexed": false,
					"internalType": "bool",
					"name": "notified",
					"type": "bool"
				},
				{
					"indexed": false,
					"internalType": "bytes",
					"name": "operatorNotificationData",
					"type": "bytes"
				}
			],
			"name": "OperatorRevoked",
			"type": "event"
		},
		{
			"anonymous": false,
			"inputs": [
				{
					"indexed": true,
					"internalType": "address",
					"name": "previousOwner",
					"type": "address"
				},
				{
					"indexed": true,
					"internalType": "address",
					"name": "newOwner",
					"type": "address"
				}
			],
			"name": "OwnershipTransferred",
			"type": "event"
		},
		{
			"anonymous": false,
			"inputs": [
				{
					"indexed": true,
					"internalType": "bytes32",
					"name": "tokenId",
					"type": "bytes32"
				},
				{
					"indexed": true,
					"internalType": "bytes32",
					"name": "dataKey",
					"type": "bytes32"
				},
				{
					"indexed": false,
					"internalType": "bytes",
					"name": "dataValue",
					"type": "bytes"
				}
			],
			"name": "TokenIdDataChanged",
			"type": "event"
		},
		{
			"anonymous": false,
			"inputs": [
				{
					"indexed": false,
					"internalType": "address",
					"name": "operator",
					"type": "address"
				},
				{
					"indexed": true,
					"internalType": "address",
					"name": "from",
					"type": "address"
				},
				{
					"indexed": true,
					"internalType": "address",
					"name": "to",
					"type": "address"
				},
				{
					"indexed": true,
					"internalType": "bytes32",
					"name": "tokenId",
					"type": "bytes32"
				},
				{
					"indexed": false,
					"internalType": "bool",
					"name": "force",
					"type": "bool"
				},
				{
					"indexed": false,
					"internalType": "bytes",
					"name": "data",
					"type": "bytes"
				}
			],
			"name": "Transfer",
			"type": "event"
		},
		{
			"stateMutability": "payable",
			"type": "fallback"
		},
		{
			"inputs": [
				{
					"internalType": "address",
					"name": "operator",
					"type": "address"
				},
				{
					"internalType": "bytes32",
					"name": "tokenId",
					"type": "bytes32"
				},
				{
					"internalType": "bytes",
					"name": "operatorNotificationData",
					"type": "bytes"
				}
			],
			"name": "authorizeOperator",
			"outputs": [],
			"stateMutability": "nonpayable",
			"type": "function"
		},
		{
			"inputs": [
				{
					"internalType": "address",
					"name": "tokenOwner",
					"type": "address"
				}
			],
			"name": "balanceOf",
			"outputs": [
				{
					"internalType": "uint256",
					"name": "",
					"type": "uint256"
				}
			],
			"stateMutability": "view",
			"type": "function"
		},
		{
			"inputs": [
				{
					"internalType": "bytes[]",
					"name": "data",
					"type": "bytes[]"
				}
			],
			"name": "batchCalls",
			"outputs": [
				{
					"internalType": "bytes[]",
					"name": "results",
					"type": "bytes[]"
				}
			],
			"stateMutability": "nonpayable",
			"type": "function"
		},
		{
			"inputs": [
				{
					"internalType": "bytes32",
					"name": "dataKey",
					"type": "bytes32"
				}
			],
			"name": "getData",
			"outputs": [
				{
					"internalType": "bytes",
					"name": "dataValue",
					"type": "bytes"
				}
			],
			"stateMutability": "view",
			"type": "function"
		},
		{
			"inputs": [
				{
					"internalType": "bytes32[]",
					"name": "dataKeys",
					"type": "bytes32[]"
				}
			],
			"name": "getDataBatch",
			"outputs": [
				{
					"internalType": "bytes[]",
					"name": "dataValues",
					"type": "bytes[]"
				}
			],
			"stateMutability": "view",
			"type": "function"
		},
		{
			"inputs": [
				{
					"internalType": "bytes32[]",
					"name": "tokenIds",
					"type": "bytes32[]"
				},
				{
					"internalType": "bytes32[]",
					"name": "dataKeys",
					"type": "bytes32[]"
				}
			],
			"name": "getDataBatchForTokenIds",
			"outputs": [
				{
					"internalType": "bytes[]",
					"name": "dataValues",
					"type": "bytes[]"
				}
			],
			"stateMutability": "view",
			"type": "function"
		},
		{
			"inputs": [
				{
					"internalType": "bytes32",
					"name": "tokenId",
					"type": "bytes32"
				},
				{
					"internalType": "bytes32",
					"name": "dataKey",
					"type": "bytes32"
				}
			],
			"name": "getDataForTokenId",
			"outputs": [
				{
					"internalType": "bytes",
					"name": "dataValue",
					"type": "bytes"
				}
			],
			"stateMutability": "view",
			"type": "function"
		},
		{
			"inputs": [
				{
					"internalType": "bytes32",
					"name": "tokenId",
					"type": "bytes32"
				}
			],
			"name": "getOperatorsOf",
			"outputs": [
				{
					"internalType": "address[]",
					"name": "",
					"type": "address[]"
				}
			],
			"stateMutability": "view",
			"type": "function"
		},
		{
			"inputs": [
				{
					"internalType": "address",
					"name": "operator",
					"type": "address"
				},
				{
					"internalType": "bytes32",
					"name": "tokenId",
					"type": "bytes32"
				}
			],
			"name": "isOperatorFor",
			"outputs": [
				{
					"internalType": "bool",
					"name": "",
					"type": "bool"
				}
			],
			"stateMutability": "view",
			"type": "function"
		},
		{
			"inputs": [
				{
					"internalType": "string",
					"name": "nameOfLSP7_",
					"type": "string"
				},
				{
					"internalType": "string",
					"name": "symbolOfLSP7_",
					"type": "string"
				},
				{
					"internalType": "uint256",
					"name": "lsp4TokenType_",
					"type": "uint256"
				},
				{
					"internalType": "bool",
					"name": "isNonDivisible_",
					"type": "bool"
				},
				{
					"internalType": "uint256",
					"name": "totalSupplyOfLSP7_",
					"type": "uint256"
				},
				{
					"internalType": "address",
					"name": "receiverOfInitialTokens_",
					"type": "address"
				},
				{
					"internalType": "bytes",
					"name": "lsp4MetadataURIOfLSP7_",
					"type": "bytes"
				}
			],
			"name": "mint",
			"outputs": [
				{
					"internalType": "address",
					"name": "lsp7SubCollectionAddress",
					"type": "address"
				}
			],
			"stateMutability": "nonpayable",
			"type": "function"
		},
		{
			"inputs": [],
			"name": "minter",
			"outputs": [
				{
					"internalType": "contract LSP8CollectionMinter",
					"name": "",
					"type": "address"
				}
			],
			"stateMutability": "view",
			"type": "function"
		},
		{
			"inputs": [],
			"name": "owner",
			"outputs": [
				{
					"internalType": "address",
					"name": "",
					"type": "address"
				}
			],
			"stateMutability": "view",
			"type": "function"
		},
		{
			"inputs": [],
			"name": "renounceOwnership",
			"outputs": [],
			"stateMutability": "nonpayable",
			"type": "function"
		},
		{
			"inputs": [
				{
					"internalType": "address",
					"name": "operator",
					"type": "address"
				},
				{
					"internalType": "bytes32",
					"name": "tokenId",
					"type": "bytes32"
				},
				{
					"internalType": "bool",
					"name": "notify",
					"type": "bool"
				},
				{
					"internalType": "bytes",
					"name": "operatorNotificationData",
					"type": "bytes"
				}
			],
			"name": "revokeOperator",
			"outputs": [],
			"stateMutability": "nonpayable",
			"type": "function"
		},
		{
			"inputs": [
				{
					"internalType": "bytes32",
					"name": "dataKey",
					"type": "bytes32"
				},
				{
					"internalType": "bytes",
					"name": "dataValue",
					"type": "bytes"
				}
			],
			"name": "setData",
			"outputs": [],
			"stateMutability": "payable",
			"type": "function"
		},
		{
			"inputs": [
				{
					"internalType": "bytes32[]",
					"name": "dataKeys",
					"type": "bytes32[]"
				},
				{
					"internalType": "bytes[]",
					"name": "dataValues",
					"type": "bytes[]"
				}
			],
			"name": "setDataBatch",
			"outputs": [],
			"stateMutability": "payable",
			"type": "function"
		},
		{
			"inputs": [
				{
					"internalType": "bytes32[]",
					"name": "tokenIds",
					"type": "bytes32[]"
				},
				{
					"internalType": "bytes32[]",
					"name": "dataKeys",
					"type": "bytes32[]"
				},
				{
					"internalType": "bytes[]",
					"name": "dataValues",
					"type": "bytes[]"
				}
			],
			"name": "setDataBatchForTokenIds",
			"outputs": [],
			"stateMutability": "nonpayable",
			"type": "function"
		},
		{
			"inputs": [
				{
					"internalType": "bytes32",
					"name": "tokenId",
					"type": "bytes32"
				},
				{
					"internalType": "bytes32",
					"name": "dataKey",
					"type": "bytes32"
				},
				{
					"internalType": "bytes",
					"name": "dataValue",
					"type": "bytes"
				}
			],
			"name": "setDataForTokenId",
			"outputs": [],
			"stateMutability": "nonpayable",
			"type": "function"
		},
		{
			"inputs": [
				{
					"internalType": "bytes4",
					"name": "interfaceId",
					"type": "bytes4"
				}
			],
			"name": "supportsInterface",
			"outputs": [
				{
					"internalType": "bool",
					"name": "",
					"type": "bool"
				}
			],
			"stateMutability": "view",
			"type": "function"
		},
		{
			"inputs": [
				{
					"internalType": "address",
					"name": "tokenOwner",
					"type": "address"
				}
			],
			"name": "tokenIdsOf",
			"outputs": [
				{
					"internalType": "bytes32[]",
					"name": "",
					"type": "bytes32[]"
				}
			],
			"stateMutability": "view",
			"type": "function"
		},
		{
			"inputs": [
				{
					"internalType": "bytes32",
					"name": "tokenId",
					"type": "bytes32"
				}
			],
			"name": "tokenOwnerOf",
			"outputs": [
				{
					"internalType": "address",
					"name": "",
					"type": "address"
				}
			],
			"stateMutability": "view",
			"type": "function"
		},
		{
			"inputs": [],
			"name": "totalSupply",
			"outputs": [
				{
					"internalType": "uint256",
					"name": "",
					"type": "uint256"
				}
			],
			"stateMutability": "view",
			"type": "function"
		},
		{
			"inputs": [
				{
					"internalType": "address",
					"name": "from",
					"type": "address"
				},
				{
					"internalType": "address",
					"name": "to",
					"type": "address"
				},
				{
					"internalType": "bytes32",
					"name": "tokenId",
					"type": "bytes32"
				},
				{
					"internalType": "bool",
					"name": "force",
					"type": "bool"
				},
				{
					"internalType": "bytes",
					"name": "data",
					"type": "bytes"
				}
			],
			"name": "transfer",
			"outputs": [],
			"stateMutability": "nonpayable",
			"type": "function"
		},
		{
			"inputs": [
				{
					"internalType": "address[]",
					"name": "from",
					"type": "address[]"
				},
				{
					"internalType": "address[]",
					"name": "to",
					"type": "address[]"
				},
				{
					"internalType": "bytes32[]",
					"name": "tokenId",
					"type": "bytes32[]"
				},
				{
					"internalType": "bool[]",
					"name": "force",
					"type": "bool[]"
				},
				{
					"internalType": "bytes[]",
					"name": "data",
					"type": "bytes[]"
				}
			],
			"name": "transferBatch",
			"outputs": [],
			"stateMutability": "nonpayable",
			"type": "function"
		},
		{
			"inputs": [
				{
					"internalType": "address",
					"name": "newOwner",
					"type": "address"
				}
			],
			"name": "transferOwnership",
			"outputs": [],
			"stateMutability": "nonpayable",
			"type": "function"
		},
		{
			"stateMutability": "payable",
			"type": "receive"
		}
	]
}